{
	"data": {
		"bytecode": {
			"linkReferences": {},
			"object": "60806040526040518060400160405280601881526020017f466f7274756e652054726561737572652048756e74696e6700000000000000008152506005908051906020019062000051929190620002a0565b506040518060400160405280610fa061ffff16815260200160fa61ffff1681525060069060026200008492919062000331565b506040518060400160405280600060ff168152602001600060ff168152506007906002620000b492919062000389565b50604051806040016040528066038d7ea4c6800066ffffffffffffff168152602001600066ffffffffffffff168152506008906002620000f6929190620003e0565b506040518060400160405280600060ff168152602001600060ff1681525060099060026200012692919062000389565b503480156200013457600080fd5b50604051806020016040528060008152506200015681620001b660201b60201c565b50620001776200016b620001d260201b60201c565b620001da60201b60201c565b6000600360146101000a81548160ff0219169083151502179055506005808054620001a290620004f4565b620001af9291906200043d565b5062000559565b8060029080519060200190620001ce929190620002a0565b5050565b600033905090565b6000600360009054906101000a900473ffffffffffffffffffffffffffffffffffffffff16905081600360006101000a81548173ffffffffffffffffffffffffffffffffffffffff021916908373ffffffffffffffffffffffffffffffffffffffff1602179055508173ffffffffffffffffffffffffffffffffffffffff168173ffffffffffffffffffffffffffffffffffffffff167f8be0079c531659141344cd1fd0a4f28419497f9722a3daafe3b4186f6b6457e060405160405180910390a35050565b828054620002ae90620004f4565b90600052602060002090601f016020900481019282620002d257600085556200031e565b82601f10620002ed57805160ff19168380011785556200031e565b828001600101855582156200031e579182015b828111156200031d57825182559160200191906001019062000300565b5b5090506200032d9190620004d5565b5090565b82805482825590600052602060002090810192821562000376579160200282015b8281111562000375578251829061ffff1690559160200191906001019062000352565b5b509050620003859190620004d5565b5090565b828054828255906000526020600020908101928215620003cd579160200282015b82811115620003cc578251829060ff16905591602001919060010190620003aa565b5b509050620003dc9190620004d5565b5090565b8280548282559060005260206000209081019282156200042a579160200282015b8281111562000429578251829066ffffffffffffff1690559160200191906001019062000401565b5b509050620004399190620004d5565b5090565b8280546200044b90620004f4565b90600052602060002090601f0160209004810192826200046f5760008555620004c2565b82601f10620004825780548555620004c2565b82800160010185558215620004c257600052602060002091601f016020900482015b82811115620004c1578254825591600101919060010190620004a4565b5b509050620004d19190620004d5565b5090565b5b80821115620004f0576000816000905550600101620004d6565b5090565b600060028204905060018216806200050d57607f821691505b602082108114156200052457620005236200052a565b5b50919050565b7f4e487b7100000000000000000000000000000000000000000000000000000000600052602260045260246000fd5b615ccb80620005696000396000f3fe6080604052600436106101ed5760003560e01c80638456cb591161010d578063b390c0ab116100a0578063e985e9c51161006f578063e985e9c5146106dc578063f242432a14610719578063f2a73fbb14610742578063f2fde38b1461076b578063f5298aca14610794576101ed565b8063b390c0ab14610610578063bd85b03914610639578063c87b56dd14610676578063d81d0a15146106b3576101ed565b80638da5cb5b116100dc5780638da5cb5b146105425780639b19251a1461056d578063a22cb465146105aa578063acb3180f146105d3576101ed565b80638456cb59146104cd578063853828b6146104e4578063862440e2146104ee5780638b7afe2e14610517576101ed565b80634f558e79116101855780636ac3274e116101545780636ac3274e1461043b5780636b20c45414610464578063715018a61461048d57806383ca4b6f146104a4576101ed565b80634f558e791461038e578063510f4104146103cb5780635c975abb146103f45780636a6278421461041f576101ed565b80632ae5d2f9116101c15780632ae5d2f9146102d45780632eb2c2d6146103115780633f4ba83a1461033a5780634e1273f414610351576101ed565b8062fdd58e146101f257806301ffc9a71461022f57806306fdde031461026c5780630e89341c14610297575b600080fd5b3480156101fe57600080fd5b50610219600480360381019061021491906142be565b6107bd565b6040516102269190615049565b60405180910390f35b34801561023b57600080fd5b506102566004803603810190610251919061449d565b610886565b6040516102639190614bda565b60405180910390f35b34801561027857600080fd5b50610281610968565b60405161028e9190614bf5565b60405180910390f35b3480156102a357600080fd5b506102be60048036038101906102b991906144f7565b6109f6565b6040516102cb9190614bf5565b60405180910390f35b3480156102e057600080fd5b506102fb60048036038101906102f69190613f35565b610a9b565b6040516103089190615049565b60405180910390f35b34801561031d57600080fd5b5061033860048036038101906103339190613fa2565b610ae4565b005b34801561034657600080fd5b5061034f610b85565b005b34801561035d57600080fd5b5061037860048036038101906103739190614351565b610c0b565b6040516103859190614b81565b60405180910390f35b34801561039a57600080fd5b506103b560048036038101906103b091906144f7565b610d24565b6040516103c29190614bda565b60405180910390f35b3480156103d757600080fd5b506103f260048036038101906103ed9190614193565b610d38565b005b34801561040057600080fd5b50610409610de1565b6040516104169190614bda565b60405180910390f35b61043960048036038101906104349190613f35565b610df8565b005b34801561044757600080fd5b50610462600480360381019061045d91906143c9565b6112ff565b005b34801561047057600080fd5b5061048b60048036038101906104869190614108565b6117b0565b005b34801561049957600080fd5b506104a261184d565b005b3480156104b057600080fd5b506104cb60048036038101906104c69190614425565b6118d5565b005b3480156104d957600080fd5b506104e26118e4565b005b6104ec61196a565b005b3480156104fa57600080fd5b5061051560048036038101906105109190614524565b611a2f565b005b34801561052357600080fd5b5061052c611b0f565b6040516105399190615049565b60405180910390f35b34801561054e57600080fd5b50610557611b93565b6040516105649190614aa4565b60405180910390f35b34801561057957600080fd5b50610594600480360381019061058f9190613f35565b611bbd565b6040516105a19190615049565b60405180910390f35b3480156105b657600080fd5b506105d160048036038101906105cc919061427e565b611bd5565b005b3480156105df57600080fd5b506105fa60048036038101906105f591906144f7565b611beb565b6040516106079190615049565b60405180910390f35b34801561061c57600080fd5b5061063760048036038101906106329190614580565b611c1f565b005b34801561064557600080fd5b50610660600480360381019061065b91906144f7565b611c2e565b60405161066d9190615049565b60405180910390f35b34801561068257600080fd5b5061069d600480360381019061069891906144f7565b611c4b565b6040516106aa9190614bf5565b60405180910390f35b3480156106bf57600080fd5b506106da60048036038101906106d59190614108565b611ceb565b005b3480156106e857600080fd5b5061070360048036038101906106fe9190613f62565b611d87565b6040516107109190614bda565b60405180910390f35b34801561072557600080fd5b50610740600480360381019061073b9190614071565b611e1b565b005b34801561074e57600080fd5b50610769600480360381019061076491906143c9565b611ebc565b005b34801561077757600080fd5b50610792600480360381019061078d9190613f35565b611eca565b005b3480156107a057600080fd5b506107bb60048036038101906107b691906142fe565b611fc2565b005b60008073ffffffffffffffffffffffffffffffffffffffff168373ffffffffffffffffffffffffffffffffffffffff16141561082e576040517f08c379a000000000000000000000000000000000000000000000000000000000815260040161082590614d4b565b60405180910390fd5b60008083815260200190815260200160002060008473ffffffffffffffffffffffffffffffffffffffff1673ffffffffffffffffffffffffffffffffffffffff16815260200190815260200160002054905092915050565b60007fd9b67a26000000000000000000000000000000000000000000000000000000007bffffffffffffffffffffffffffffffffffffffffffffffffffffffff1916827bffffffffffffffffffffffffffffffffffffffffffffffffffffffff1916148061095157507f0e89341c000000000000000000000000000000000000000000000000000000007bffffffffffffffffffffffffffffffffffffffffffffffffffffffff1916827bffffffffffffffffffffffffffffffffffffffffffffffffffffffff1916145b8061096157506109608261205f565b5b9050919050565b600580546109759061532f565b80601f01602080910402602001604051908101604052809291908181526020018280546109a19061532f565b80156109ee5780601f106109c3576101008083540402835291602001916109ee565b820191906000526020600020905b8154815290600101906020018083116109d157829003601f168201915b505050505081565b6060600a60008381526020019081526020016000208054610a169061532f565b80601f0160208091040260200160405190810160405280929190818152602001828054610a429061532f565b8015610a8f5780601f10610a6457610100808354040283529160200191610a8f565b820191906000526020600020905b815481529060010190602001808311610a7257829003601f168201915b50505050509050919050565b6000600b60008373ffffffffffffffffffffffffffffffffffffffff1673ffffffffffffffffffffffffffffffffffffffff168152602001908152602001600020549050919050565b610aec6120c9565b73ffffffffffffffffffffffffffffffffffffffff168573ffffffffffffffffffffffffffffffffffffffff161480610b325750610b3185610b2c6120c9565b611d87565b5b610b71576040517f08c379a0000000000000000000000000000000000000000000000000000000008152600401610b6890614ebf565b60405180910390fd5b610b7e85858585856120d1565b5050505050565b610b8d6120c9565b73ffffffffffffffffffffffffffffffffffffffff16610bab611b93565b73ffffffffffffffffffffffffffffffffffffffff1614610c01576040517f08c379a0000000000000000000000000000000000000000000000000000000008152600401610bf890614f69565b60405180910390fd5b610c096123e5565b565b60608151835114610c51576040517f08c379a0000000000000000000000000000000000000000000000000000000008152600401610c4890614fe9565b60405180910390fd5b6000835167ffffffffffffffff811115610c6e57610c6d615468565b5b604051908082528060200260200182016040528015610c9c5781602001602082028036833780820191505090505b50905060005b8451811015610d1957610ce9858281518110610cc157610cc0615439565b5b6020026020010151858381518110610cdc57610cdb615439565b5b60200260200101516107bd565b828281518110610cfc57610cfb615439565b5b60200260200101818152505080610d1290615392565b9050610ca2565b508091505092915050565b600080610d3083611c2e565b119050919050565b610d406120c9565b73ffffffffffffffffffffffffffffffffffffffff16610d5e611b93565b73ffffffffffffffffffffffffffffffffffffffff1614610db4576040517f08c379a0000000000000000000000000000000000000000000000000000000008152600401610dab90614f69565b60405180910390fd5b610dbf858585612487565b610dda85838360405180602001604052806000815250612738565b5050505050565b6000600360149054906101000a900460ff16905090565b610e006120c9565b73ffffffffffffffffffffffffffffffffffffffff16610e1e611b93565b73ffffffffffffffffffffffffffffffffffffffff1614610e74576040517f08c379a0000000000000000000000000000000000000000000000000000000008152600401610e6b90614f69565b60405180910390fd5b610e7c610de1565b15610ebc576040517f08c379a0000000000000000000000000000000000000000000000000000000008152600401610eb390614e7f565b60405180910390fd5b807fa2455ec11f160d321516c021994881e7678c0b5870cd7aae50107098770e2c28336000600b60003373ffffffffffffffffffffffffffffffffffffffff1673ffffffffffffffffffffffffffffffffffffffff16815260200190815260200160002054604051610f3093929190614d8b565b60405180910390a16000600b60008373ffffffffffffffffffffffffffffffffffffffff1673ffffffffffffffffffffffffffffffffffffffff168152602001908152602001600020541415610fbb576040517f08c379a0000000000000000000000000000000000000000000000000000000008152600401610fb290614f89565b60405180910390fd5b6000610fc683610a9b565b90506006805490508111158015610fdd5750600081115b61101c576040517f08c379a000000000000000000000000000000000000000000000000000000000815260040161101390614c37565b60405180910390fd5b600060018261102b9190615233565b90506006818154811061104157611040615439565b5b906000526020600020015460016007838154811061106257611061615439565b5b906000526020600020015461107791906151dd565b11156110b8576040517f08c379a00000000000000000000000000000000000000000000000000000000081526004016110af90614d2b565b60405180910390fd5b600881815481106110cc576110cb615439565b5b9060005260206000200154341015611119576040517f08c379a000000000000000000000000000000000000000000000000000000000815260040161111090614fa9565b60405180910390fd5b6111358483600160405180602001604052806000815250612956565b6007818154811061114957611148615439565b5b90600052602060002001600081548092919061116490615392565b9190505550600182146112f957600060019050600680549050811115801561118c5750600081115b6111cb576040517f08c379a00000000000000000000000000000000000000000000000000000000081526004016111c290614c37565b60405180910390fd5b60066001826111da9190615233565b815481106111eb576111ea615439565b5b9060005260206000200154600160076001846112079190615233565b8154811061121857611217615439565b5b906000526020600020015461122d91906151dd565b111561126e576040517f08c379a000000000000000000000000000000000000000000000000000000000815260040161126590614d2b565b60405180910390fd5b600860018261127d9190615233565b8154811061128e5761128d615439565b5b90600052602060002001543410156112db576040517f08c379a00000000000000000000000000000000000000000000000000000000081526004016112d290614fa9565b60405180910390fd5b6112f78582600160405180602001604052806000815250612956565b505b50505050565b6113076120c9565b73ffffffffffffffffffffffffffffffffffffffff16611325611b93565b73ffffffffffffffffffffffffffffffffffffffff161461137b576040517f08c379a000000000000000000000000000000000000000000000000000000000815260040161137290614f69565b60405180910390fd5b807fa2455ec11f160d321516c021994881e7678c0b5870cd7aae50107098770e2c28336000600b60003373ffffffffffffffffffffffffffffffffffffffff1673ffffffffffffffffffffffffffffffffffffffff168152602001908152602001600020546040516113ef93929190614ce1565b60405180910390a1600680549050811115801561140c5750600081115b61144b576040517f08c379a000000000000000000000000000000000000000000000000000000000815260040161144290614c37565b60405180910390fd5b6000805b84518110156116c6577fa2455ec11f160d321516c021994881e7678c0b5870cd7aae50107098770e2c2885828151811061148c5761148b615439565b5b602002602001015183600b60008986815181106114ac576114ab615439565b5b602002602001015173ffffffffffffffffffffffffffffffffffffffff1673ffffffffffffffffffffffffffffffffffffffff168152602001908152602001600020546040516114fe93929190614c77565b60405180910390a16000600b600087848151811061151f5761151e615439565b5b602002602001015173ffffffffffffffffffffffffffffffffffffffff1673ffffffffffffffffffffffffffffffffffffffff1681526020019081526020016000205414156115da5783600b60008784815181106115805761157f615439565b5b602002602001015173ffffffffffffffffffffffffffffffffffffffff1673ffffffffffffffffffffffffffffffffffffffff168152602001908152602001600020819055506001826115d391906151dd565b91506116b3565b7fa2455ec11f160d321516c021994881e7678c0b5870cd7aae50107098770e2c2885828151811061160e5761160d615439565b5b602002602001015160096001876116259190615233565b8154811061163657611635615439565b5b9060005260206000200154600b600089868151811061165857611657615439565b5b602002602001015173ffffffffffffffffffffffffffffffffffffffff1673ffffffffffffffffffffffffffffffffffffffff168152602001908152602001600020546040516116aa93929190614df5565b60405180910390a15b80806116be90615392565b91505061144f565b5060066001846116d69190615233565b815481106116e7576116e6615439565b5b90600052602060002001548160096001866117029190615233565b8154811061171357611712615439565b5b906000526020600020015461172891906151dd565b1115611769576040517f08c379a000000000000000000000000000000000000000000000000000000000815260040161176090614e5f565b60405180910390fd5b8060096001856117799190615233565b8154811061178a57611789615439565b5b9060005260206000200160008282546117a391906151dd565b9250508190555050505050565b6117b86120c9565b73ffffffffffffffffffffffffffffffffffffffff168373ffffffffffffffffffffffffffffffffffffffff1614806117fe57506117fd836117f86120c9565b611d87565b5b61183d576040517f08c379a000000000000000000000000000000000000000000000000000000000815260040161183490614e3f565b60405180910390fd5b611848838383612487565b505050565b6118556120c9565b73ffffffffffffffffffffffffffffffffffffffff16611873611b93565b73ffffffffffffffffffffffffffffffffffffffff16146118c9576040517f08c379a00000000000000000000000000000000000000000000000000000000081526004016118c090614f69565b60405180910390fd5b6118d36000612aec565b565b6118e0338383612487565b5050565b6118ec6120c9565b73ffffffffffffffffffffffffffffffffffffffff1661190a611b93565b73ffffffffffffffffffffffffffffffffffffffff1614611960576040517f08c379a000000000000000000000000000000000000000000000000000000000815260040161195790614f69565b60405180910390fd5b611968612bb2565b565b6119726120c9565b73ffffffffffffffffffffffffffffffffffffffff16611990611b93565b73ffffffffffffffffffffffffffffffffffffffff16146119e6576040517f08c379a00000000000000000000000000000000000000000000000000000000081526004016119dd90614f69565b60405180910390fd5b3373ffffffffffffffffffffffffffffffffffffffff166108fc479081150290604051600060405180830381858888f19350505050158015611a2c573d6000803e3d6000fd5b50565b611a376120c9565b73ffffffffffffffffffffffffffffffffffffffff16611a55611b93565b73ffffffffffffffffffffffffffffffffffffffff1614611aab576040517f08c379a0000000000000000000000000000000000000000000000000000000008152600401611aa290614f69565b60405180910390fd5b80600a60008481526020019081526020016000209080519060200190611ad2929190613c0d565b50817f6bb7ff708619ba0610cba295a58592e0451dee2622938c8755667688daf3529b82604051611b039190614bf5565b60405180910390a25050565b6000611b196120c9565b73ffffffffffffffffffffffffffffffffffffffff16611b37611b93565b73ffffffffffffffffffffffffffffffffffffffff1614611b8d576040517f08c379a0000000000000000000000000000000000000000000000000000000008152600401611b8490614f69565b60405180910390fd5b47905090565b6000600360009054906101000a900473ffffffffffffffffffffffffffffffffffffffff16905090565b600b6020528060005260406000206000915090505481565b611be7611be06120c9565b8383612c55565b5050565b60006009600183611bfc9190615233565b81548110611c0d57611c0c615439565b5b90600052602060002001549050919050565b611c2a338383612dc2565b5050565b600060046000838152602001908152602001600020549050919050565b600a6020528060005260406000206000915090508054611c6a9061532f565b80601f0160208091040260200160405190810160405280929190818152602001828054611c969061532f565b8015611ce35780601f10611cb857610100808354040283529160200191611ce3565b820191906000526020600020905b815481529060010190602001808311611cc657829003601f168201915b505050505081565b611cf36120c9565b73ffffffffffffffffffffffffffffffffffffffff16611d11611b93565b73ffffffffffffffffffffffffffffffffffffffff1614611d67576040517f08c379a0000000000000000000000000000000000000000000000000000000008152600401611d5e90614f69565b60405180910390fd5b611d8283838360405180602001604052806000815250612738565b505050565b6000600160008473ffffffffffffffffffffffffffffffffffffffff1673ffffffffffffffffffffffffffffffffffffffff16815260200190815260200160002060008373ffffffffffffffffffffffffffffffffffffffff1673ffffffffffffffffffffffffffffffffffffffff16815260200190815260200160002060009054906101000a900460ff16905092915050565b611e236120c9565b73ffffffffffffffffffffffffffffffffffffffff168573ffffffffffffffffffffffffffffffffffffffff161480611e695750611e6885611e636120c9565b611d87565b5b611ea8576040517f08c379a0000000000000000000000000000000000000000000000000000000008152600401611e9f90614e3f565b60405180910390fd5b611eb58585858585612fdf565b5050505050565b611ec68282613261565b5050565b611ed26120c9565b73ffffffffffffffffffffffffffffffffffffffff16611ef0611b93565b73ffffffffffffffffffffffffffffffffffffffff1614611f46576040517f08c379a0000000000000000000000000000000000000000000000000000000008152600401611f3d90614f69565b60405180910390fd5b600073ffffffffffffffffffffffffffffffffffffffff168173ffffffffffffffffffffffffffffffffffffffff161415611fb6576040517f08c379a0000000000000000000000000000000000000000000000000000000008152600401611fad90614d6b565b60405180910390fd5b611fbf81612aec565b50565b611fca6120c9565b73ffffffffffffffffffffffffffffffffffffffff168373ffffffffffffffffffffffffffffffffffffffff161480612010575061200f8361200a6120c9565b611d87565b5b61204f576040517f08c379a000000000000000000000000000000000000000000000000000000000815260040161204690614e3f565b60405180910390fd5b61205a838383612dc2565b505050565b60007f01ffc9a7000000000000000000000000000000000000000000000000000000007bffffffffffffffffffffffffffffffffffffffffffffffffffffffff1916827bffffffffffffffffffffffffffffffffffffffffffffffffffffffff1916149050919050565b600033905090565b8151835114612115576040517f08c379a000000000000000000000000000000000000000000000000000000000815260040161210c90615009565b60405180910390fd5b600073ffffffffffffffffffffffffffffffffffffffff168473ffffffffffffffffffffffffffffffffffffffff161415612185576040517f08c379a000000000000000000000000000000000000000000000000000000000815260040161217c90614e9f565b60405180910390fd5b600061218f6120c9565b905061219f8187878787876135c2565b60005b84518110156123505760008582815181106121c0576121bf615439565b5b6020026020010151905060008583815181106121df576121de615439565b5b60200260200101519050600080600084815260200190815260200160002060008b73ffffffffffffffffffffffffffffffffffffffff1673ffffffffffffffffffffffffffffffffffffffff16815260200190815260200160002054905081811015612280576040517f08c379a000000000000000000000000000000000000000000000000000000000815260040161227790614eff565b60405180910390fd5b81810360008085815260200190815260200160002060008c73ffffffffffffffffffffffffffffffffffffffff1673ffffffffffffffffffffffffffffffffffffffff168152602001908152602001600020819055508160008085815260200190815260200160002060008b73ffffffffffffffffffffffffffffffffffffffff1673ffffffffffffffffffffffffffffffffffffffff168152602001908152602001600020600082825461233591906151dd565b925050819055505050508061234990615392565b90506121a2565b508473ffffffffffffffffffffffffffffffffffffffff168673ffffffffffffffffffffffffffffffffffffffff168273ffffffffffffffffffffffffffffffffffffffff167f4a39dc06d4c0dbc64b70af90fd698a233a518aa5d07e595d983b8c0526c8f7fb87876040516123c7929190614ba3565b60405180910390a46123dd818787878787613620565b505050505050565b6123ed610de1565b61242c576040517f08c379a000000000000000000000000000000000000000000000000000000000815260040161242390614cc1565b60405180910390fd5b6000600360146101000a81548160ff0219169083151502179055507f5db9ee0a495bf2e6ff9c91a7834c1ba4fdd244a5e8aa4e537bd38aeae4b073aa6124706120c9565b60405161247d9190614aa4565b60405180910390a1565b600073ffffffffffffffffffffffffffffffffffffffff168373ffffffffffffffffffffffffffffffffffffffff1614156124f7576040517f08c379a00000000000000000000000000000000000000000000000000000000081526004016124ee90614edf565b60405180910390fd5b805182511461253b576040517f08c379a000000000000000000000000000000000000000000000000000000000815260040161253290615009565b60405180910390fd5b60006125456120c9565b9050612565818560008686604051806020016040528060008152506135c2565b60005b83518110156126b257600084828151811061258657612585615439565b5b6020026020010151905060008483815181106125a5576125a4615439565b5b60200260200101519050600080600084815260200190815260200160002060008973ffffffffffffffffffffffffffffffffffffffff1673ffffffffffffffffffffffffffffffffffffffff16815260200190815260200160002054905081811015612646576040517f08c379a000000000000000000000000000000000000000000000000000000000815260040161263d90614dd5565b60405180910390fd5b81810360008085815260200190815260200160002060008a73ffffffffffffffffffffffffffffffffffffffff1673ffffffffffffffffffffffffffffffffffffffff1681526020019081526020016000208190555050505080806126aa90615392565b915050612568565b50600073ffffffffffffffffffffffffffffffffffffffff168473ffffffffffffffffffffffffffffffffffffffff168273ffffffffffffffffffffffffffffffffffffffff167f4a39dc06d4c0dbc64b70af90fd698a233a518aa5d07e595d983b8c0526c8f7fb868660405161272a929190614ba3565b60405180910390a450505050565b600073ffffffffffffffffffffffffffffffffffffffff168473ffffffffffffffffffffffffffffffffffffffff1614156127a8576040517f08c379a000000000000000000000000000000000000000000000000000000000815260040161279f90615029565b60405180910390fd5b81518351146127ec576040517f08c379a00000000000000000000000000000000000000000000000000000000081526004016127e390615009565b60405180910390fd5b60006127f66120c9565b9050612807816000878787876135c2565b60005b84518110156128c05783818151811061282657612825615439565b5b602002602001015160008087848151811061284457612843615439565b5b6020026020010151815260200190815260200160002060008873ffffffffffffffffffffffffffffffffffffffff1673ffffffffffffffffffffffffffffffffffffffff16815260200190815260200160002060008282546128a691906151dd565b9250508190555080806128b890615392565b91505061280a565b508473ffffffffffffffffffffffffffffffffffffffff16600073ffffffffffffffffffffffffffffffffffffffff168273ffffffffffffffffffffffffffffffffffffffff167f4a39dc06d4c0dbc64b70af90fd698a233a518aa5d07e595d983b8c0526c8f7fb8787604051612938929190614ba3565b60405180910390a461294f81600087878787613620565b5050505050565b600073ffffffffffffffffffffffffffffffffffffffff168473ffffffffffffffffffffffffffffffffffffffff1614156129c6576040517f08c379a00000000000000000000000000000000000000000000000000000000081526004016129bd90615029565b60405180910390fd5b60006129d06120c9565b90506129f1816000876129e288613807565b6129eb88613807565b876135c2565b8260008086815260200190815260200160002060008773ffffffffffffffffffffffffffffffffffffffff1673ffffffffffffffffffffffffffffffffffffffff1681526020019081526020016000206000828254612a5091906151dd565b925050819055508473ffffffffffffffffffffffffffffffffffffffff16600073ffffffffffffffffffffffffffffffffffffffff168273ffffffffffffffffffffffffffffffffffffffff167fc3d58168c5ae7397731d063d5bbf3d657854427343f4c083240f7aacaa2d0f628787604051612ace929190615064565b60405180910390a4612ae581600087878787613881565b5050505050565b6000600360009054906101000a900473ffffffffffffffffffffffffffffffffffffffff16905081600360006101000a81548173ffffffffffffffffffffffffffffffffffffffff021916908373ffffffffffffffffffffffffffffffffffffffff1602179055508173ffffffffffffffffffffffffffffffffffffffff168173ffffffffffffffffffffffffffffffffffffffff167f8be0079c531659141344cd1fd0a4f28419497f9722a3daafe3b4186f6b6457e060405160405180910390a35050565b612bba610de1565b15612bfa576040517f08c379a0000000000000000000000000000000000000000000000000000000008152600401612bf190614e7f565b60405180910390fd5b6001600360146101000a81548160ff0219169083151502179055507f62e78cea01bee320cd4e420270b5ea74000d11b0c9f74754ebdbfc544b05a258612c3e6120c9565b604051612c4b9190614aa4565b60405180910390a1565b8173ffffffffffffffffffffffffffffffffffffffff168373ffffffffffffffffffffffffffffffffffffffff161415612cc4576040517f08c379a0000000000000000000000000000000000000000000000000000000008152600401612cbb90614fc9565b60405180910390fd5b80600160008573ffffffffffffffffffffffffffffffffffffffff1673ffffffffffffffffffffffffffffffffffffffff16815260200190815260200160002060008473ffffffffffffffffffffffffffffffffffffffff1673ffffffffffffffffffffffffffffffffffffffff16815260200190815260200160002060006101000a81548160ff0219169083151502179055508173ffffffffffffffffffffffffffffffffffffffff168373ffffffffffffffffffffffffffffffffffffffff167f17307eab39ab6107e8899845ad3d59bd9653f200f220920489ca2b5937696c3183604051612db59190614bda565b60405180910390a3505050565b600073ffffffffffffffffffffffffffffffffffffffff168373ffffffffffffffffffffffffffffffffffffffff161415612e32576040517f08c379a0000000000000000000000000000000000000000000000000000000008152600401612e2990614edf565b60405180910390fd5b6000612e3c6120c9565b9050612e6c81856000612e4e87613807565b612e5787613807565b604051806020016040528060008152506135c2565b600080600085815260200190815260200160002060008673ffffffffffffffffffffffffffffffffffffffff1673ffffffffffffffffffffffffffffffffffffffff16815260200190815260200160002054905082811015612f03576040517f08c379a0000000000000000000000000000000000000000000000000000000008152600401612efa90614dd5565b60405180910390fd5b82810360008086815260200190815260200160002060008773ffffffffffffffffffffffffffffffffffffffff1673ffffffffffffffffffffffffffffffffffffffff16815260200190815260200160002081905550600073ffffffffffffffffffffffffffffffffffffffff168573ffffffffffffffffffffffffffffffffffffffff168373ffffffffffffffffffffffffffffffffffffffff167fc3d58168c5ae7397731d063d5bbf3d657854427343f4c083240f7aacaa2d0f628787604051612fd0929190615064565b60405180910390a45050505050565b600073ffffffffffffffffffffffffffffffffffffffff168473ffffffffffffffffffffffffffffffffffffffff16141561304f576040517f08c379a000000000000000000000000000000000000000000000000000000000815260040161304690614e9f565b60405180910390fd5b60006130596120c9565b905061307981878761306a88613807565b61307388613807565b876135c2565b600080600086815260200190815260200160002060008873ffffffffffffffffffffffffffffffffffffffff1673ffffffffffffffffffffffffffffffffffffffff16815260200190815260200160002054905083811015613110576040517f08c379a000000000000000000000000000000000000000000000000000000000815260040161310790614eff565b60405180910390fd5b83810360008087815260200190815260200160002060008973ffffffffffffffffffffffffffffffffffffffff1673ffffffffffffffffffffffffffffffffffffffff168152602001908152602001600020819055508360008087815260200190815260200160002060008873ffffffffffffffffffffffffffffffffffffffff1673ffffffffffffffffffffffffffffffffffffffff16815260200190815260200160002060008282546131c591906151dd565b925050819055508573ffffffffffffffffffffffffffffffffffffffff168773ffffffffffffffffffffffffffffffffffffffff168373ffffffffffffffffffffffffffffffffffffffff167fc3d58168c5ae7397731d063d5bbf3d657854427343f4c083240f7aacaa2d0f628888604051613242929190615064565b60405180910390a4613258828888888888613881565b50505050505050565b6132696120c9565b73ffffffffffffffffffffffffffffffffffffffff16613287611b93565b73ffffffffffffffffffffffffffffffffffffffff16146132dd576040517f08c379a00000000000000000000000000000000000000000000000000000000081526004016132d490614f69565b60405180910390fd5b807fa2455ec11f160d321516c021994881e7678c0b5870cd7aae50107098770e2c28336000600b60003373ffffffffffffffffffffffffffffffffffffffff1673ffffffffffffffffffffffffffffffffffffffff1681526020019081526020016000205460405161335193929190614ce1565b60405180910390a1600680549050811115801561336e5750600081115b6133ad576040517f08c379a00000000000000000000000000000000000000000000000000000000081526004016133a490614c37565b60405180910390fd5b6000805b845181101561357a576000600b60008784815181106133d3576133d2615439565b5b602002602001015173ffffffffffffffffffffffffffffffffffffffff1673ffffffffffffffffffffffffffffffffffffffff168152602001908152602001600020541461348e576000600b600087848151811061343457613433615439565b5b602002602001015173ffffffffffffffffffffffffffffffffffffffff1673ffffffffffffffffffffffffffffffffffffffff1681526020019081526020016000208190555060018261348791906151dd565b9150613567565b7fa2455ec11f160d321516c021994881e7678c0b5870cd7aae50107098770e2c288582815181106134c2576134c1615439565b5b602002602001015160096001876134d99190615233565b815481106134ea576134e9615439565b5b9060005260206000200154600b600089868151811061350c5761350b615439565b5b602002602001015173ffffffffffffffffffffffffffffffffffffffff1673ffffffffffffffffffffffffffffffffffffffff1681526020019081526020016000205460405161355e93929190614f1f565b60405180910390a15b808061357290615392565b9150506133b1565b5080600960018561358b9190615233565b8154811061359c5761359b615439565b5b9060005260206000200160008282546135b59190615233565b9250508190555050505050565b6135ca610de1565b1561360a576040517f08c379a000000000000000000000000000000000000000000000000000000000815260040161360190614e7f565b60405180910390fd5b613618868686868686613a68565b505050505050565b61363f8473ffffffffffffffffffffffffffffffffffffffff16613be2565b156137ff578373ffffffffffffffffffffffffffffffffffffffff1663bc197c8187878686866040518663ffffffff1660e01b8152600401613685959493929190614abf565b602060405180830381600087803b15801561369f57600080fd5b505af19250505080156136d057506040513d601f19601f820116820180604052508101906136cd91906144ca565b60015b613776576136dc615497565b806308c379a0141561373957506136f1615ba3565b806136fc575061373b565b806040517f08c379a00000000000000000000000000000000000000000000000000000000081526004016137309190614bf5565b60405180910390fd5b505b6040517f08c379a000000000000000000000000000000000000000000000000000000000815260040161376d90614c17565b60405180910390fd5b63bc197c8160e01b7bffffffffffffffffffffffffffffffffffffffffffffffffffffffff1916817bffffffffffffffffffffffffffffffffffffffffffffffffffffffff1916146137fd576040517f08c379a00000000000000000000000000000000000000000000000000000000081526004016137f490614c57565b60405180910390fd5b505b505050505050565b60606000600167ffffffffffffffff81111561382657613825615468565b5b6040519080825280602002602001820160405280156138545781602001602082028036833780820191505090505b509050828160008151811061386c5761386b615439565b5b60200260200101818152505080915050919050565b6138a08473ffffffffffffffffffffffffffffffffffffffff16613be2565b15613a60578373ffffffffffffffffffffffffffffffffffffffff1663f23a6e6187878686866040518663ffffffff1660e01b81526004016138e6959493929190614b27565b602060405180830381600087803b15801561390057600080fd5b505af192505050801561393157506040513d601f19601f8201168201806040525081019061392e91906144ca565b60015b6139d75761393d615497565b806308c379a0141561399a5750613952615ba3565b8061395d575061399c565b806040517f08c379a00000000000000000000000000000000000000000000000000000000081526004016139919190614bf5565b60405180910390fd5b505b6040517f08c379a00000000000000000000000000000000000000000000000000000000081526004016139ce90614c17565b60405180910390fd5b63f23a6e6160e01b7bffffffffffffffffffffffffffffffffffffffffffffffffffffffff1916817bffffffffffffffffffffffffffffffffffffffffffffffffffffffff191614613a5e576040517f08c379a0000000000000000000000000000000000000000000000000000000008152600401613a5590614c57565b60405180910390fd5b505b505050505050565b613a76868686868686613c05565b600073ffffffffffffffffffffffffffffffffffffffff168573ffffffffffffffffffffffffffffffffffffffff161415613b285760005b8351811015613b2657828181518110613aca57613ac9615439565b5b602002602001015160046000868481518110613ae957613ae8615439565b5b602002602001015181526020019081526020016000206000828254613b0e91906151dd565b9250508190555080613b1f90615392565b9050613aae565b505b600073ffffffffffffffffffffffffffffffffffffffff168473ffffffffffffffffffffffffffffffffffffffff161415613bda5760005b8351811015613bd857828181518110613b7c57613b7b615439565b5b602002602001015160046000868481518110613b9b57613b9a615439565b5b602002602001015181526020019081526020016000206000828254613bc09190615233565b9250508190555080613bd190615392565b9050613b60565b505b505050505050565b6000808273ffffffffffffffffffffffffffffffffffffffff163b119050919050565b505050505050565b828054613c199061532f565b90600052602060002090601f016020900481019282613c3b5760008555613c82565b82601f10613c5457805160ff1916838001178555613c82565b82800160010185558215613c82579182015b82811115613c81578251825591602001919060010190613c66565b5b509050613c8f9190613c93565b5090565b5b80821115613cac576000816000905550600101613c94565b5090565b6000613cc3613cbe846150b2565b61508d565b90508083825260208201905082856020860282011115613ce657613ce56154be565b5b60005b85811015613d165781613cfc8882613e14565b845260208401935060208301925050600181019050613ce9565b5050509392505050565b6000613d33613d2e846150de565b61508d565b90508083825260208201905082856020860282011115613d5657613d556154be565b5b60005b85811015613d865781613d6c8882613f20565b845260208401935060208301925050600181019050613d59565b5050509392505050565b6000613da3613d9e8461510a565b61508d565b905082815260208101848484011115613dbf57613dbe6154c3565b5b613dca8482856152ed565b509392505050565b6000613de5613de08461513b565b61508d565b905082815260208101848484011115613e0157613e006154c3565b5b613e0c8482856152ed565b509392505050565b600081359050613e2381615c39565b92915050565b600082601f830112613e3e57613e3d6154b9565b5b8135613e4e848260208601613cb0565b91505092915050565b600082601f830112613e6c57613e6b6154b9565b5b8135613e7c848260208601613d20565b91505092915050565b600081359050613e9481615c50565b92915050565b600081359050613ea981615c67565b92915050565b600081519050613ebe81615c67565b92915050565b600082601f830112613ed957613ed86154b9565b5b8135613ee9848260208601613d90565b91505092915050565b600082601f830112613f0757613f066154b9565b5b8135613f17848260208601613dd2565b91505092915050565b600081359050613f2f81615c7e565b92915050565b600060208284031215613f4b57613f4a6154cd565b5b6000613f5984828501613e14565b91505092915050565b60008060408385031215613f7957613f786154cd565b5b6000613f8785828601613e14565b9250506020613f9885828601613e14565b9150509250929050565b600080600080600060a08688031215613fbe57613fbd6154cd565b5b6000613fcc88828901613e14565b9550506020613fdd88828901613e14565b945050604086013567ffffffffffffffff811115613ffe57613ffd6154c8565b5b61400a88828901613e57565b935050606086013567ffffffffffffffff81111561402b5761402a6154c8565b5b61403788828901613e57565b925050608086013567ffffffffffffffff811115614058576140576154c8565b5b61406488828901613ec4565b9150509295509295909350565b600080600080600060a0868803121561408d5761408c6154cd565b5b600061409b88828901613e14565b95505060206140ac88828901613e14565b94505060406140bd88828901613f20565b93505060606140ce88828901613f20565b925050608086013567ffffffffffffffff8111156140ef576140ee6154c8565b5b6140fb88828901613ec4565b9150509295509295909350565b600080600060608486031215614121576141206154cd565b5b600061412f86828701613e14565b935050602084013567ffffffffffffffff8111156141505761414f6154c8565b5b61415c86828701613e57565b925050604084013567ffffffffffffffff81111561417d5761417c6154c8565b5b61418986828701613e57565b9150509250925092565b600080600080600060a086880312156141af576141ae6154cd565b5b60006141bd88828901613e14565b955050602086013567ffffffffffffffff8111156141de576141dd6154c8565b5b6141ea88828901613e57565b945050604086013567ffffffffffffffff81111561420b5761420a6154c8565b5b61421788828901613e57565b935050606086013567ffffffffffffffff811115614238576142376154c8565b5b61424488828901613e57565b925050608086013567ffffffffffffffff811115614265576142646154c8565b5b61427188828901613e57565b9150509295509295909350565b60008060408385031215614295576142946154cd565b5b60006142a385828601613e14565b92505060206142b485828601613e85565b9150509250929050565b600080604083850312156142d5576142d46154cd565b5b60006142e385828601613e14565b92505060206142f485828601613f20565b9150509250929050565b600080600060608486031215614317576143166154cd565b5b600061432586828701613e14565b935050602061433686828701613f20565b925050604061434786828701613f20565b9150509250925092565b60008060408385031215614368576143676154cd565b5b600083013567ffffffffffffffff811115614386576143856154c8565b5b61439285828601613e29565b925050602083013567ffffffffffffffff8111156143b3576143b26154c8565b5b6143bf85828601613e57565b9150509250929050565b600080604083850312156143e0576143df6154cd565b5b600083013567ffffffffffffffff8111156143fe576143fd6154c8565b5b61440a85828601613e29565b925050602061441b85828601613f20565b9150509250929050565b6000806040838503121561443c5761443b6154cd565b5b600083013567ffffffffffffffff81111561445a576144596154c8565b5b61446685828601613e57565b925050602083013567ffffffffffffffff811115614487576144866154c8565b5b61449385828601613e57565b9150509250929050565b6000602082840312156144b3576144b26154cd565b5b60006144c184828501613e9a565b91505092915050565b6000602082840312156144e0576144df6154cd565b5b60006144ee84828501613eaf565b91505092915050565b60006020828403121561450d5761450c6154cd565b5b600061451b84828501613f20565b91505092915050565b6000806040838503121561453b5761453a6154cd565b5b600061454985828601613f20565b925050602083013567ffffffffffffffff81111561456a576145696154c8565b5b61457685828601613ef2565b9150509250929050565b60008060408385031215614597576145966154cd565b5b60006145a585828601613f20565b92505060206145b685828601613f20565b9150509250929050565b60006145cc8383614a86565b60208301905092915050565b6145e181615267565b82525050565b60006145f28261517c565b6145fc81856151aa565b93506146078361516c565b8060005b8381101561463857815161461f88826145c0565b975061462a8361519d565b92505060018101905061460b565b5085935050505092915050565b61464e81615279565b82525050565b600061465f82615187565b61466981856151bb565b93506146798185602086016152fc565b614682816154d2565b840191505092915050565b614696816152db565b82525050565b60006146a782615192565b6146b181856151cc565b93506146c18185602086016152fc565b6146ca816154d2565b840191505092915050565b60006146e26034836151cc565b91506146ed826154f0565b604082019050919050565b60006147056013836151cc565b91506147108261553f565b602082019050919050565b60006147286028836151cc565b915061473382615568565b604082019050919050565b600061474b600b836151cc565b9150614756826155b7565b602082019050919050565b600061476e6014836151cc565b9150614779826155e0565b602082019050919050565b60006147916014836151cc565b915061479c82615609565b602082019050919050565b60006147b46011836151cc565b91506147bf82615632565b602082019050919050565b60006147d7602b836151cc565b91506147e28261565b565b604082019050919050565b60006147fa6026836151cc565b9150614805826156aa565b604082019050919050565b600061481d601c836151cc565b9150614828826156f9565b602082019050919050565b60006148406024836151cc565b915061484b82615722565b604082019050919050565b6000614863601e836151cc565b915061486e82615771565b602082019050919050565b60006148866029836151cc565b91506148918261579a565b604082019050919050565b60006148a96010836151cc565b91506148b4826157e9565b602082019050919050565b60006148cc6010836151cc565b91506148d782615812565b602082019050919050565b60006148ef6025836151cc565b91506148fa8261583b565b604082019050919050565b60006149126032836151cc565b915061491d8261588a565b604082019050919050565b60006149356023836151cc565b9150614940826158d9565b604082019050919050565b6000614958602a836151cc565b915061496382615928565b604082019050919050565b600061497b6021836151cc565b915061498682615977565b604082019050919050565b600061499e6020836151cc565b91506149a9826159c6565b602082019050919050565b60006149c16023836151cc565b91506149cc826159ef565b604082019050919050565b60006149e46015836151cc565b91506149ef82615a3e565b602082019050919050565b6000614a076029836151cc565b9150614a1282615a67565b604082019050919050565b6000614a2a6029836151cc565b9150614a3582615ab6565b604082019050919050565b6000614a4d6028836151cc565b9150614a5882615b05565b604082019050919050565b6000614a706021836151cc565b9150614a7b82615b54565b604082019050919050565b614a8f816152d1565b82525050565b614a9e816152d1565b82525050565b6000602082019050614ab960008301846145d8565b92915050565b600060a082019050614ad460008301886145d8565b614ae160208301876145d8565b8181036040830152614af381866145e7565b90508181036060830152614b0781856145e7565b90508181036080830152614b1b8184614654565b90509695505050505050565b600060a082019050614b3c60008301886145d8565b614b4960208301876145d8565b614b566040830186614a95565b614b636060830185614a95565b8181036080830152614b758184614654565b90509695505050505050565b60006020820190508181036000830152614b9b81846145e7565b905092915050565b60006040820190508181036000830152614bbd81856145e7565b90508181036020830152614bd181846145e7565b90509392505050565b6000602082019050614bef6000830184614645565b92915050565b60006020820190508181036000830152614c0f818461469c565b905092915050565b60006020820190508181036000830152614c30816146d5565b9050919050565b60006020820190508181036000830152614c50816146f8565b9050919050565b60006020820190508181036000830152614c708161471b565b9050919050565b60006080820190508181036000830152614c908161473e565b9050614c9f60208301866145d8565b614cac6040830185614a95565b614cb96060830184614a95565b949350505050565b60006020820190508181036000830152614cda81614761565b9050919050565b60006080820190508181036000830152614cfa81614784565b9050614d0960208301866145d8565b614d16604083018561468d565b614d236060830184614a95565b949350505050565b60006020820190508181036000830152614d44816147a7565b9050919050565b60006020820190508181036000830152614d64816147ca565b9050919050565b60006020820190508181036000830152614d84816147ed565b9050919050565b60006080820190508181036000830152614da481614810565b9050614db360208301866145d8565b614dc0604083018561468d565b614dcd6060830184614a95565b949350505050565b60006020820190508181036000830152614dee81614833565b9050919050565b60006080820190508181036000830152614e0e81614856565b9050614e1d60208301866145d8565b614e2a6040830185614a95565b614e376060830184614a95565b949350505050565b60006020820190508181036000830152614e5881614879565b9050919050565b60006020820190508181036000830152614e788161489c565b9050919050565b60006020820190508181036000830152614e98816148bf565b9050919050565b60006020820190508181036000830152614eb8816148e2565b9050919050565b60006020820190508181036000830152614ed881614905565b9050919050565b60006020820190508181036000830152614ef881614928565b9050919050565b60006020820190508181036000830152614f188161494b565b9050919050565b60006080820190508181036000830152614f388161496e565b9050614f4760208301866145d8565b614f546040830185614a95565b614f616060830184614a95565b949350505050565b60006020820190508181036000830152614f8281614991565b9050919050565b60006020820190508181036000830152614fa2816149b4565b9050919050565b60006020820190508181036000830152614fc2816149d7565b9050919050565b60006020820190508181036000830152614fe2816149fa565b9050919050565b6000602082019050818103600083015261500281614a1d565b9050919050565b6000602082019050818103600083015261502281614a40565b9050919050565b6000602082019050818103600083015261504281614a63565b9050919050565b600060208201905061505e6000830184614a95565b92915050565b60006040820190506150796000830185614a95565b6150866020830184614a95565b9392505050565b60006150976150a8565b90506150a38282615361565b919050565b6000604051905090565b600067ffffffffffffffff8211156150cd576150cc615468565b5b602082029050602081019050919050565b600067ffffffffffffffff8211156150f9576150f8615468565b5b602082029050602081019050919050565b600067ffffffffffffffff82111561512557615124615468565b5b61512e826154d2565b9050602081019050919050565b600067ffffffffffffffff82111561515657615155615468565b5b61515f826154d2565b9050602081019050919050565b6000819050602082019050919050565b600081519050919050565b600081519050919050565b600081519050919050565b6000602082019050919050565b600082825260208201905092915050565b600082825260208201905092915050565b600082825260208201905092915050565b60006151e8826152d1565b91506151f3836152d1565b9250827fffffffffffffffffffffffffffffffffffffffffffffffffffffffffffffffff03821115615228576152276153db565b5b828201905092915050565b600061523e826152d1565b9150615249836152d1565b92508282101561525c5761525b6153db565b5b828203905092915050565b6000615272826152b1565b9050919050565b60008115159050919050565b60007fffffffff0000000000000000000000000000000000000000000000000000000082169050919050565b600073ffffffffffffffffffffffffffffffffffffffff82169050919050565b6000819050919050565b60006152e6826152d1565b9050919050565b82818337600083830152505050565b60005b8381101561531a5780820151818401526020810190506152ff565b83811115615329576000848401525b50505050565b6000600282049050600182168061534757607f821691505b6020821081141561535b5761535a61540a565b5b50919050565b61536a826154d2565b810181811067ffffffffffffffff8211171561538957615388615468565b5b80604052505050565b600061539d826152d1565b91507fffffffffffffffffffffffffffffffffffffffffffffffffffffffffffffffff8214156153d0576153cf6153db565b5b600182019050919050565b7f4e487b7100000000000000000000000000000000000000000000000000000000600052601160045260246000fd5b7f4e487b7100000000000000000000000000000000000000000000000000000000600052602260045260246000fd5b7f4e487b7100000000000000000000000000000000000000000000000000000000600052603260045260246000fd5b7f4e487b7100000000000000000000000000000000000000000000000000000000600052604160045260246000fd5b600060033d11156154b65760046000803e6154b36000516154e3565b90505b90565b600080fd5b600080fd5b600080fd5b600080fd5b600080fd5b6000601f19601f8301169050919050565b60008160e01c9050919050565b7f455243313135353a207472616e7366657220746f206e6f6e204552433131353560008201527f526563656976657220696d706c656d656e746572000000000000000000000000602082015250565b7f546f6b656e20646f65736e277420657869737400000000000000000000000000600082015250565b7f455243313135353a204552433131353552656365697665722072656a6563746560008201527f6420746f6b656e73000000000000000000000000000000000000000000000000602082015250565b7f696e20666f72206c6f6f70000000000000000000000000000000000000000000600082015250565b7f5061757361626c653a206e6f7420706175736564000000000000000000000000600082015250565b7f4d6f64696665722076616c6964546f6b656e4964000000000000000000000000600082015250565b7f4e6f7420656e6f75676820737570706c79000000000000000000000000000000600082015250565b7f455243313135353a2062616c616e636520717565727920666f7220746865207a60008201527f65726f2061646472657373000000000000000000000000000000000000000000602082015250565b7f4f776e61626c653a206e6577206f776e657220697320746865207a65726f206160008201527f6464726573730000000000000000000000000000000000000000000000000000602082015250565b7f4d6f6469666572206f6e6c7957686974656c6973744164647265737300000000600082015250565b7f455243313135353a206275726e20616d6f756e7420657863656564732062616c60008201527f616e636500000000000000000000000000000000000000000000000000000000602082015250565b7f6164647265737320697320616c72656164792077686974656c69737465640000600082015250565b7f455243313135353a2063616c6c6572206973206e6f74206f776e6572206e6f7260008201527f20617070726f7665640000000000000000000000000000000000000000000000602082015250565b7f457863656564206d6178537570706c7900000000000000000000000000000000600082015250565b7f5061757361626c653a2070617573656400000000000000000000000000000000600082015250565b7f455243313135353a207472616e7366657220746f20746865207a65726f20616460008201527f6472657373000000000000000000000000000000000000000000000000000000602082015250565b7f455243313135353a207472616e736665722063616c6c6572206973206e6f742060008201527f6f776e6572206e6f7220617070726f7665640000000000000000000000000000602082015250565b7f455243313135353a206275726e2066726f6d20746865207a65726f206164647260008201527f6573730000000000000000000000000000000000000000000000000000000000602082015250565b7f455243313135353a20696e73756666696369656e742062616c616e636520666f60008201527f72207472616e7366657200000000000000000000000000000000000000000000602082015250565b7f416472657373206973206e6f7420616c72656164792077686974656c6973746560008201527f6400000000000000000000000000000000000000000000000000000000000000602082015250565b7f4f776e61626c653a2063616c6c6572206973206e6f7420746865206f776e6572600082015250565b7f41646472657373206e6f742077686974656c69737465642e2043616e74206d6960008201527f6e742e0000000000000000000000000000000000000000000000000000000000602082015250565b7f4e6f7420656e6f7567682065746865722073656e740000000000000000000000600082015250565b7f455243313135353a2073657474696e6720617070726f76616c2073746174757360008201527f20666f722073656c660000000000000000000000000000000000000000000000602082015250565b7f455243313135353a206163636f756e747320616e6420696473206c656e67746860008201527f206d69736d617463680000000000000000000000000000000000000000000000602082015250565b7f455243313135353a2069647320616e6420616d6f756e7473206c656e6774682060008201527f6d69736d61746368000000000000000000000000000000000000000000000000602082015250565b7f455243313135353a206d696e7420746f20746865207a65726f2061646472657360008201527f7300000000000000000000000000000000000000000000000000000000000000602082015250565b600060443d1015615bb357615c36565b615bbb6150a8565b60043d036004823e80513d602482011167ffffffffffffffff82111715615be3575050615c36565b808201805167ffffffffffffffff811115615c015750505050615c36565b80602083010160043d038501811115615c1e575050505050615c36565b615c2d82602001850186615361565b82955050505050505b90565b615c4281615267565b8114615c4d57600080fd5b50565b615c5981615279565b8114615c6457600080fd5b50565b615c7081615285565b8114615c7b57600080fd5b50565b615c87816152d1565b8114615c9257600080fd5b5056fea264697066735822122085a3a4476b91de389d2c43869a5ea6cf38ff58ee217ee8753643994e796a0ff764736f6c63430008070033",
			"opcodes": "PUSH1 0x80 PUSH1 0x40 MSTORE PUSH1 0x40 MLOAD DUP1 PUSH1 0x40 ADD PUSH1 0x40 MSTORE DUP1 PUSH1 0x18 DUP2 MSTORE PUSH1 0x20 ADD PUSH32 0x466F7274756E652054726561737572652048756E74696E670000000000000000 DUP2 MSTORE POP PUSH1 0x5 SWAP1 DUP1 MLOAD SWAP1 PUSH1 0x20 ADD SWAP1 PUSH3 0x51 SWAP3 SWAP2 SWAP1 PUSH3 0x2A0 JUMP JUMPDEST POP PUSH1 0x40 MLOAD DUP1 PUSH1 0x40 ADD PUSH1 0x40 MSTORE DUP1 PUSH2 0xFA0 PUSH2 0xFFFF AND DUP2 MSTORE PUSH1 0x20 ADD PUSH1 0xFA PUSH2 0xFFFF AND DUP2 MSTORE POP PUSH1 0x6 SWAP1 PUSH1 0x2 PUSH3 0x84 SWAP3 SWAP2 SWAP1 PUSH3 0x331 JUMP JUMPDEST POP PUSH1 0x40 MLOAD DUP1 PUSH1 0x40 ADD PUSH1 0x40 MSTORE DUP1 PUSH1 0x0 PUSH1 0xFF AND DUP2 MSTORE PUSH1 0x20 ADD PUSH1 0x0 PUSH1 0xFF AND DUP2 MSTORE POP PUSH1 0x7 SWAP1 PUSH1 0x2 PUSH3 0xB4 SWAP3 SWAP2 SWAP1 PUSH3 0x389 JUMP JUMPDEST POP PUSH1 0x40 MLOAD DUP1 PUSH1 0x40 ADD PUSH1 0x40 MSTORE DUP1 PUSH7 0x38D7EA4C68000 PUSH7 0xFFFFFFFFFFFFFF AND DUP2 MSTORE PUSH1 0x20 ADD PUSH1 0x0 PUSH7 0xFFFFFFFFFFFFFF AND DUP2 MSTORE POP PUSH1 0x8 SWAP1 PUSH1 0x2 PUSH3 0xF6 SWAP3 SWAP2 SWAP1 PUSH3 0x3E0 JUMP JUMPDEST POP PUSH1 0x40 MLOAD DUP1 PUSH1 0x40 ADD PUSH1 0x40 MSTORE DUP1 PUSH1 0x0 PUSH1 0xFF AND DUP2 MSTORE PUSH1 0x20 ADD PUSH1 0x0 PUSH1 0xFF AND DUP2 MSTORE POP PUSH1 0x9 SWAP1 PUSH1 0x2 PUSH3 0x126 SWAP3 SWAP2 SWAP1 PUSH3 0x389 JUMP JUMPDEST POP CALLVALUE DUP1 ISZERO PUSH3 0x134 JUMPI PUSH1 0x0 DUP1 REVERT JUMPDEST POP PUSH1 0x40 MLOAD DUP1 PUSH1 0x20 ADD PUSH1 0x40 MSTORE DUP1 PUSH1 0x0 DUP2 MSTORE POP PUSH3 0x156 DUP2 PUSH3 0x1B6 PUSH1 0x20 SHL PUSH1 0x20 SHR JUMP JUMPDEST POP PUSH3 0x177 PUSH3 0x16B PUSH3 0x1D2 PUSH1 0x20 SHL PUSH1 0x20 SHR JUMP JUMPDEST PUSH3 0x1DA PUSH1 0x20 SHL PUSH1 0x20 SHR JUMP JUMPDEST PUSH1 0x0 PUSH1 0x3 PUSH1 0x14 PUSH2 0x100 EXP DUP2 SLOAD DUP2 PUSH1 0xFF MUL NOT AND SWAP1 DUP4 ISZERO ISZERO MUL OR SWAP1 SSTORE POP PUSH1 0x5 DUP1 DUP1 SLOAD PUSH3 0x1A2 SWAP1 PUSH3 0x4F4 JUMP JUMPDEST PUSH3 0x1AF SWAP3 SWAP2 SWAP1 PUSH3 0x43D JUMP JUMPDEST POP PUSH3 0x559 JUMP JUMPDEST DUP1 PUSH1 0x2 SWAP1 DUP1 MLOAD SWAP1 PUSH1 0x20 ADD SWAP1 PUSH3 0x1CE SWAP3 SWAP2 SWAP1 PUSH3 0x2A0 JUMP JUMPDEST POP POP JUMP JUMPDEST PUSH1 0x0 CALLER SWAP1 POP SWAP1 JUMP JUMPDEST PUSH1 0x0 PUSH1 0x3 PUSH1 0x0 SWAP1 SLOAD SWAP1 PUSH2 0x100 EXP SWAP1 DIV PUSH20 0xFFFFFFFFFFFFFFFFFFFFFFFFFFFFFFFFFFFFFFFF AND SWAP1 POP DUP2 PUSH1 0x3 PUSH1 0x0 PUSH2 0x100 EXP DUP2 SLOAD DUP2 PUSH20 0xFFFFFFFFFFFFFFFFFFFFFFFFFFFFFFFFFFFFFFFF MUL NOT AND SWAP1 DUP4 PUSH20 0xFFFFFFFFFFFFFFFFFFFFFFFFFFFFFFFFFFFFFFFF AND MUL OR SWAP1 SSTORE POP DUP2 PUSH20 0xFFFFFFFFFFFFFFFFFFFFFFFFFFFFFFFFFFFFFFFF AND DUP2 PUSH20 0xFFFFFFFFFFFFFFFFFFFFFFFFFFFFFFFFFFFFFFFF AND PUSH32 0x8BE0079C531659141344CD1FD0A4F28419497F9722A3DAAFE3B4186F6B6457E0 PUSH1 0x40 MLOAD PUSH1 0x40 MLOAD DUP1 SWAP2 SUB SWAP1 LOG3 POP POP JUMP JUMPDEST DUP3 DUP1 SLOAD PUSH3 0x2AE SWAP1 PUSH3 0x4F4 JUMP JUMPDEST SWAP1 PUSH1 0x0 MSTORE PUSH1 0x20 PUSH1 0x0 KECCAK256 SWAP1 PUSH1 0x1F ADD PUSH1 0x20 SWAP1 DIV DUP2 ADD SWAP3 DUP3 PUSH3 0x2D2 JUMPI PUSH1 0x0 DUP6 SSTORE PUSH3 0x31E JUMP JUMPDEST DUP3 PUSH1 0x1F LT PUSH3 0x2ED JUMPI DUP1 MLOAD PUSH1 0xFF NOT AND DUP4 DUP1 ADD OR DUP6 SSTORE PUSH3 0x31E JUMP JUMPDEST DUP3 DUP1 ADD PUSH1 0x1 ADD DUP6 SSTORE DUP3 ISZERO PUSH3 0x31E JUMPI SWAP2 DUP3 ADD JUMPDEST DUP3 DUP2 GT ISZERO PUSH3 0x31D JUMPI DUP3 MLOAD DUP3 SSTORE SWAP2 PUSH1 0x20 ADD SWAP2 SWAP1 PUSH1 0x1 ADD SWAP1 PUSH3 0x300 JUMP JUMPDEST JUMPDEST POP SWAP1 POP PUSH3 0x32D SWAP2 SWAP1 PUSH3 0x4D5 JUMP JUMPDEST POP SWAP1 JUMP JUMPDEST DUP3 DUP1 SLOAD DUP3 DUP3 SSTORE SWAP1 PUSH1 0x0 MSTORE PUSH1 0x20 PUSH1 0x0 KECCAK256 SWAP1 DUP2 ADD SWAP3 DUP3 ISZERO PUSH3 0x376 JUMPI SWAP2 PUSH1 0x20 MUL DUP3 ADD JUMPDEST DUP3 DUP2 GT ISZERO PUSH3 0x375 JUMPI DUP3 MLOAD DUP3 SWAP1 PUSH2 0xFFFF AND SWAP1 SSTORE SWAP2 PUSH1 0x20 ADD SWAP2 SWAP1 PUSH1 0x1 ADD SWAP1 PUSH3 0x352 JUMP JUMPDEST JUMPDEST POP SWAP1 POP PUSH3 0x385 SWAP2 SWAP1 PUSH3 0x4D5 JUMP JUMPDEST POP SWAP1 JUMP JUMPDEST DUP3 DUP1 SLOAD DUP3 DUP3 SSTORE SWAP1 PUSH1 0x0 MSTORE PUSH1 0x20 PUSH1 0x0 KECCAK256 SWAP1 DUP2 ADD SWAP3 DUP3 ISZERO PUSH3 0x3CD JUMPI SWAP2 PUSH1 0x20 MUL DUP3 ADD JUMPDEST DUP3 DUP2 GT ISZERO PUSH3 0x3CC JUMPI DUP3 MLOAD DUP3 SWAP1 PUSH1 0xFF AND SWAP1 SSTORE SWAP2 PUSH1 0x20 ADD SWAP2 SWAP1 PUSH1 0x1 ADD SWAP1 PUSH3 0x3AA JUMP JUMPDEST JUMPDEST POP SWAP1 POP PUSH3 0x3DC SWAP2 SWAP1 PUSH3 0x4D5 JUMP JUMPDEST POP SWAP1 JUMP JUMPDEST DUP3 DUP1 SLOAD DUP3 DUP3 SSTORE SWAP1 PUSH1 0x0 MSTORE PUSH1 0x20 PUSH1 0x0 KECCAK256 SWAP1 DUP2 ADD SWAP3 DUP3 ISZERO PUSH3 0x42A JUMPI SWAP2 PUSH1 0x20 MUL DUP3 ADD JUMPDEST DUP3 DUP2 GT ISZERO PUSH3 0x429 JUMPI DUP3 MLOAD DUP3 SWAP1 PUSH7 0xFFFFFFFFFFFFFF AND SWAP1 SSTORE SWAP2 PUSH1 0x20 ADD SWAP2 SWAP1 PUSH1 0x1 ADD SWAP1 PUSH3 0x401 JUMP JUMPDEST JUMPDEST POP SWAP1 POP PUSH3 0x439 SWAP2 SWAP1 PUSH3 0x4D5 JUMP JUMPDEST POP SWAP1 JUMP JUMPDEST DUP3 DUP1 SLOAD PUSH3 0x44B SWAP1 PUSH3 0x4F4 JUMP JUMPDEST SWAP1 PUSH1 0x0 MSTORE PUSH1 0x20 PUSH1 0x0 KECCAK256 SWAP1 PUSH1 0x1F ADD PUSH1 0x20 SWAP1 DIV DUP2 ADD SWAP3 DUP3 PUSH3 0x46F JUMPI PUSH1 0x0 DUP6 SSTORE PUSH3 0x4C2 JUMP JUMPDEST DUP3 PUSH1 0x1F LT PUSH3 0x482 JUMPI DUP1 SLOAD DUP6 SSTORE PUSH3 0x4C2 JUMP JUMPDEST DUP3 DUP1 ADD PUSH1 0x1 ADD DUP6 SSTORE DUP3 ISZERO PUSH3 0x4C2 JUMPI PUSH1 0x0 MSTORE PUSH1 0x20 PUSH1 0x0 KECCAK256 SWAP2 PUSH1 0x1F ADD PUSH1 0x20 SWAP1 DIV DUP3 ADD JUMPDEST DUP3 DUP2 GT ISZERO PUSH3 0x4C1 JUMPI DUP3 SLOAD DUP3 SSTORE SWAP2 PUSH1 0x1 ADD SWAP2 SWAP1 PUSH1 0x1 ADD SWAP1 PUSH3 0x4A4 JUMP JUMPDEST JUMPDEST POP SWAP1 POP PUSH3 0x4D1 SWAP2 SWAP1 PUSH3 0x4D5 JUMP JUMPDEST POP SWAP1 JUMP JUMPDEST JUMPDEST DUP1 DUP3 GT ISZERO PUSH3 0x4F0 JUMPI PUSH1 0x0 DUP2 PUSH1 0x0 SWAP1 SSTORE POP PUSH1 0x1 ADD PUSH3 0x4D6 JUMP JUMPDEST POP SWAP1 JUMP JUMPDEST PUSH1 0x0 PUSH1 0x2 DUP3 DIV SWAP1 POP PUSH1 0x1 DUP3 AND DUP1 PUSH3 0x50D JUMPI PUSH1 0x7F DUP3 AND SWAP2 POP JUMPDEST PUSH1 0x20 DUP3 LT DUP2 EQ ISZERO PUSH3 0x524 JUMPI PUSH3 0x523 PUSH3 0x52A JUMP JUMPDEST JUMPDEST POP SWAP2 SWAP1 POP JUMP JUMPDEST PUSH32 0x4E487B7100000000000000000000000000000000000000000000000000000000 PUSH1 0x0 MSTORE PUSH1 0x22 PUSH1 0x4 MSTORE PUSH1 0x24 PUSH1 0x0 REVERT JUMPDEST PUSH2 0x5CCB DUP1 PUSH3 0x569 PUSH1 0x0 CODECOPY PUSH1 0x0 RETURN INVALID PUSH1 0x80 PUSH1 0x40 MSTORE PUSH1 0x4 CALLDATASIZE LT PUSH2 0x1ED JUMPI PUSH1 0x0 CALLDATALOAD PUSH1 0xE0 SHR DUP1 PUSH4 0x8456CB59 GT PUSH2 0x10D JUMPI DUP1 PUSH4 0xB390C0AB GT PUSH2 0xA0 JUMPI DUP1 PUSH4 0xE985E9C5 GT PUSH2 0x6F JUMPI DUP1 PUSH4 0xE985E9C5 EQ PUSH2 0x6DC JUMPI DUP1 PUSH4 0xF242432A EQ PUSH2 0x719 JUMPI DUP1 PUSH4 0xF2A73FBB EQ PUSH2 0x742 JUMPI DUP1 PUSH4 0xF2FDE38B EQ PUSH2 0x76B JUMPI DUP1 PUSH4 0xF5298ACA EQ PUSH2 0x794 JUMPI PUSH2 0x1ED JUMP JUMPDEST DUP1 PUSH4 0xB390C0AB EQ PUSH2 0x610 JUMPI DUP1 PUSH4 0xBD85B039 EQ PUSH2 0x639 JUMPI DUP1 PUSH4 0xC87B56DD EQ PUSH2 0x676 JUMPI DUP1 PUSH4 0xD81D0A15 EQ PUSH2 0x6B3 JUMPI PUSH2 0x1ED JUMP JUMPDEST DUP1 PUSH4 0x8DA5CB5B GT PUSH2 0xDC JUMPI DUP1 PUSH4 0x8DA5CB5B EQ PUSH2 0x542 JUMPI DUP1 PUSH4 0x9B19251A EQ PUSH2 0x56D JUMPI DUP1 PUSH4 0xA22CB465 EQ PUSH2 0x5AA JUMPI DUP1 PUSH4 0xACB3180F EQ PUSH2 0x5D3 JUMPI PUSH2 0x1ED JUMP JUMPDEST DUP1 PUSH4 0x8456CB59 EQ PUSH2 0x4CD JUMPI DUP1 PUSH4 0x853828B6 EQ PUSH2 0x4E4 JUMPI DUP1 PUSH4 0x862440E2 EQ PUSH2 0x4EE JUMPI DUP1 PUSH4 0x8B7AFE2E EQ PUSH2 0x517 JUMPI PUSH2 0x1ED JUMP JUMPDEST DUP1 PUSH4 0x4F558E79 GT PUSH2 0x185 JUMPI DUP1 PUSH4 0x6AC3274E GT PUSH2 0x154 JUMPI DUP1 PUSH4 0x6AC3274E EQ PUSH2 0x43B JUMPI DUP1 PUSH4 0x6B20C454 EQ PUSH2 0x464 JUMPI DUP1 PUSH4 0x715018A6 EQ PUSH2 0x48D JUMPI DUP1 PUSH4 0x83CA4B6F EQ PUSH2 0x4A4 JUMPI PUSH2 0x1ED JUMP JUMPDEST DUP1 PUSH4 0x4F558E79 EQ PUSH2 0x38E JUMPI DUP1 PUSH4 0x510F4104 EQ PUSH2 0x3CB JUMPI DUP1 PUSH4 0x5C975ABB EQ PUSH2 0x3F4 JUMPI DUP1 PUSH4 0x6A627842 EQ PUSH2 0x41F JUMPI PUSH2 0x1ED JUMP JUMPDEST DUP1 PUSH4 0x2AE5D2F9 GT PUSH2 0x1C1 JUMPI DUP1 PUSH4 0x2AE5D2F9 EQ PUSH2 0x2D4 JUMPI DUP1 PUSH4 0x2EB2C2D6 EQ PUSH2 0x311 JUMPI DUP1 PUSH4 0x3F4BA83A EQ PUSH2 0x33A JUMPI DUP1 PUSH4 0x4E1273F4 EQ PUSH2 0x351 JUMPI PUSH2 0x1ED JUMP JUMPDEST DUP1 PUSH3 0xFDD58E EQ PUSH2 0x1F2 JUMPI DUP1 PUSH4 0x1FFC9A7 EQ PUSH2 0x22F JUMPI DUP1 PUSH4 0x6FDDE03 EQ PUSH2 0x26C JUMPI DUP1 PUSH4 0xE89341C EQ PUSH2 0x297 JUMPI JUMPDEST PUSH1 0x0 DUP1 REVERT JUMPDEST CALLVALUE DUP1 ISZERO PUSH2 0x1FE JUMPI PUSH1 0x0 DUP1 REVERT JUMPDEST POP PUSH2 0x219 PUSH1 0x4 DUP1 CALLDATASIZE SUB DUP2 ADD SWAP1 PUSH2 0x214 SWAP2 SWAP1 PUSH2 0x42BE JUMP JUMPDEST PUSH2 0x7BD JUMP JUMPDEST PUSH1 0x40 MLOAD PUSH2 0x226 SWAP2 SWAP1 PUSH2 0x5049 JUMP JUMPDEST PUSH1 0x40 MLOAD DUP1 SWAP2 SUB SWAP1 RETURN JUMPDEST CALLVALUE DUP1 ISZERO PUSH2 0x23B JUMPI PUSH1 0x0 DUP1 REVERT JUMPDEST POP PUSH2 0x256 PUSH1 0x4 DUP1 CALLDATASIZE SUB DUP2 ADD SWAP1 PUSH2 0x251 SWAP2 SWAP1 PUSH2 0x449D JUMP JUMPDEST PUSH2 0x886 JUMP JUMPDEST PUSH1 0x40 MLOAD PUSH2 0x263 SWAP2 SWAP1 PUSH2 0x4BDA JUMP JUMPDEST PUSH1 0x40 MLOAD DUP1 SWAP2 SUB SWAP1 RETURN JUMPDEST CALLVALUE DUP1 ISZERO PUSH2 0x278 JUMPI PUSH1 0x0 DUP1 REVERT JUMPDEST POP PUSH2 0x281 PUSH2 0x968 JUMP JUMPDEST PUSH1 0x40 MLOAD PUSH2 0x28E SWAP2 SWAP1 PUSH2 0x4BF5 JUMP JUMPDEST PUSH1 0x40 MLOAD DUP1 SWAP2 SUB SWAP1 RETURN JUMPDEST CALLVALUE DUP1 ISZERO PUSH2 0x2A3 JUMPI PUSH1 0x0 DUP1 REVERT JUMPDEST POP PUSH2 0x2BE PUSH1 0x4 DUP1 CALLDATASIZE SUB DUP2 ADD SWAP1 PUSH2 0x2B9 SWAP2 SWAP1 PUSH2 0x44F7 JUMP JUMPDEST PUSH2 0x9F6 JUMP JUMPDEST PUSH1 0x40 MLOAD PUSH2 0x2CB SWAP2 SWAP1 PUSH2 0x4BF5 JUMP JUMPDEST PUSH1 0x40 MLOAD DUP1 SWAP2 SUB SWAP1 RETURN JUMPDEST CALLVALUE DUP1 ISZERO PUSH2 0x2E0 JUMPI PUSH1 0x0 DUP1 REVERT JUMPDEST POP PUSH2 0x2FB PUSH1 0x4 DUP1 CALLDATASIZE SUB DUP2 ADD SWAP1 PUSH2 0x2F6 SWAP2 SWAP1 PUSH2 0x3F35 JUMP JUMPDEST PUSH2 0xA9B JUMP JUMPDEST PUSH1 0x40 MLOAD PUSH2 0x308 SWAP2 SWAP1 PUSH2 0x5049 JUMP JUMPDEST PUSH1 0x40 MLOAD DUP1 SWAP2 SUB SWAP1 RETURN JUMPDEST CALLVALUE DUP1 ISZERO PUSH2 0x31D JUMPI PUSH1 0x0 DUP1 REVERT JUMPDEST POP PUSH2 0x338 PUSH1 0x4 DUP1 CALLDATASIZE SUB DUP2 ADD SWAP1 PUSH2 0x333 SWAP2 SWAP1 PUSH2 0x3FA2 JUMP JUMPDEST PUSH2 0xAE4 JUMP JUMPDEST STOP JUMPDEST CALLVALUE DUP1 ISZERO PUSH2 0x346 JUMPI PUSH1 0x0 DUP1 REVERT JUMPDEST POP PUSH2 0x34F PUSH2 0xB85 JUMP JUMPDEST STOP JUMPDEST CALLVALUE DUP1 ISZERO PUSH2 0x35D JUMPI PUSH1 0x0 DUP1 REVERT JUMPDEST POP PUSH2 0x378 PUSH1 0x4 DUP1 CALLDATASIZE SUB DUP2 ADD SWAP1 PUSH2 0x373 SWAP2 SWAP1 PUSH2 0x4351 JUMP JUMPDEST PUSH2 0xC0B JUMP JUMPDEST PUSH1 0x40 MLOAD PUSH2 0x385 SWAP2 SWAP1 PUSH2 0x4B81 JUMP JUMPDEST PUSH1 0x40 MLOAD DUP1 SWAP2 SUB SWAP1 RETURN JUMPDEST CALLVALUE DUP1 ISZERO PUSH2 0x39A JUMPI PUSH1 0x0 DUP1 REVERT JUMPDEST POP PUSH2 0x3B5 PUSH1 0x4 DUP1 CALLDATASIZE SUB DUP2 ADD SWAP1 PUSH2 0x3B0 SWAP2 SWAP1 PUSH2 0x44F7 JUMP JUMPDEST PUSH2 0xD24 JUMP JUMPDEST PUSH1 0x40 MLOAD PUSH2 0x3C2 SWAP2 SWAP1 PUSH2 0x4BDA JUMP JUMPDEST PUSH1 0x40 MLOAD DUP1 SWAP2 SUB SWAP1 RETURN JUMPDEST CALLVALUE DUP1 ISZERO PUSH2 0x3D7 JUMPI PUSH1 0x0 DUP1 REVERT JUMPDEST POP PUSH2 0x3F2 PUSH1 0x4 DUP1 CALLDATASIZE SUB DUP2 ADD SWAP1 PUSH2 0x3ED SWAP2 SWAP1 PUSH2 0x4193 JUMP JUMPDEST PUSH2 0xD38 JUMP JUMPDEST STOP JUMPDEST CALLVALUE DUP1 ISZERO PUSH2 0x400 JUMPI PUSH1 0x0 DUP1 REVERT JUMPDEST POP PUSH2 0x409 PUSH2 0xDE1 JUMP JUMPDEST PUSH1 0x40 MLOAD PUSH2 0x416 SWAP2 SWAP1 PUSH2 0x4BDA JUMP JUMPDEST PUSH1 0x40 MLOAD DUP1 SWAP2 SUB SWAP1 RETURN JUMPDEST PUSH2 0x439 PUSH1 0x4 DUP1 CALLDATASIZE SUB DUP2 ADD SWAP1 PUSH2 0x434 SWAP2 SWAP1 PUSH2 0x3F35 JUMP JUMPDEST PUSH2 0xDF8 JUMP JUMPDEST STOP JUMPDEST CALLVALUE DUP1 ISZERO PUSH2 0x447 JUMPI PUSH1 0x0 DUP1 REVERT JUMPDEST POP PUSH2 0x462 PUSH1 0x4 DUP1 CALLDATASIZE SUB DUP2 ADD SWAP1 PUSH2 0x45D SWAP2 SWAP1 PUSH2 0x43C9 JUMP JUMPDEST PUSH2 0x12FF JUMP JUMPDEST STOP JUMPDEST CALLVALUE DUP1 ISZERO PUSH2 0x470 JUMPI PUSH1 0x0 DUP1 REVERT JUMPDEST POP PUSH2 0x48B PUSH1 0x4 DUP1 CALLDATASIZE SUB DUP2 ADD SWAP1 PUSH2 0x486 SWAP2 SWAP1 PUSH2 0x4108 JUMP JUMPDEST PUSH2 0x17B0 JUMP JUMPDEST STOP JUMPDEST CALLVALUE DUP1 ISZERO PUSH2 0x499 JUMPI PUSH1 0x0 DUP1 REVERT JUMPDEST POP PUSH2 0x4A2 PUSH2 0x184D JUMP JUMPDEST STOP JUMPDEST CALLVALUE DUP1 ISZERO PUSH2 0x4B0 JUMPI PUSH1 0x0 DUP1 REVERT JUMPDEST POP PUSH2 0x4CB PUSH1 0x4 DUP1 CALLDATASIZE SUB DUP2 ADD SWAP1 PUSH2 0x4C6 SWAP2 SWAP1 PUSH2 0x4425 JUMP JUMPDEST PUSH2 0x18D5 JUMP JUMPDEST STOP JUMPDEST CALLVALUE DUP1 ISZERO PUSH2 0x4D9 JUMPI PUSH1 0x0 DUP1 REVERT JUMPDEST POP PUSH2 0x4E2 PUSH2 0x18E4 JUMP JUMPDEST STOP JUMPDEST PUSH2 0x4EC PUSH2 0x196A JUMP JUMPDEST STOP JUMPDEST CALLVALUE DUP1 ISZERO PUSH2 0x4FA JUMPI PUSH1 0x0 DUP1 REVERT JUMPDEST POP PUSH2 0x515 PUSH1 0x4 DUP1 CALLDATASIZE SUB DUP2 ADD SWAP1 PUSH2 0x510 SWAP2 SWAP1 PUSH2 0x4524 JUMP JUMPDEST PUSH2 0x1A2F JUMP JUMPDEST STOP JUMPDEST CALLVALUE DUP1 ISZERO PUSH2 0x523 JUMPI PUSH1 0x0 DUP1 REVERT JUMPDEST POP PUSH2 0x52C PUSH2 0x1B0F JUMP JUMPDEST PUSH1 0x40 MLOAD PUSH2 0x539 SWAP2 SWAP1 PUSH2 0x5049 JUMP JUMPDEST PUSH1 0x40 MLOAD DUP1 SWAP2 SUB SWAP1 RETURN JUMPDEST CALLVALUE DUP1 ISZERO PUSH2 0x54E JUMPI PUSH1 0x0 DUP1 REVERT JUMPDEST POP PUSH2 0x557 PUSH2 0x1B93 JUMP JUMPDEST PUSH1 0x40 MLOAD PUSH2 0x564 SWAP2 SWAP1 PUSH2 0x4AA4 JUMP JUMPDEST PUSH1 0x40 MLOAD DUP1 SWAP2 SUB SWAP1 RETURN JUMPDEST CALLVALUE DUP1 ISZERO PUSH2 0x579 JUMPI PUSH1 0x0 DUP1 REVERT JUMPDEST POP PUSH2 0x594 PUSH1 0x4 DUP1 CALLDATASIZE SUB DUP2 ADD SWAP1 PUSH2 0x58F SWAP2 SWAP1 PUSH2 0x3F35 JUMP JUMPDEST PUSH2 0x1BBD JUMP JUMPDEST PUSH1 0x40 MLOAD PUSH2 0x5A1 SWAP2 SWAP1 PUSH2 0x5049 JUMP JUMPDEST PUSH1 0x40 MLOAD DUP1 SWAP2 SUB SWAP1 RETURN JUMPDEST CALLVALUE DUP1 ISZERO PUSH2 0x5B6 JUMPI PUSH1 0x0 DUP1 REVERT JUMPDEST POP PUSH2 0x5D1 PUSH1 0x4 DUP1 CALLDATASIZE SUB DUP2 ADD SWAP1 PUSH2 0x5CC SWAP2 SWAP1 PUSH2 0x427E JUMP JUMPDEST PUSH2 0x1BD5 JUMP JUMPDEST STOP JUMPDEST CALLVALUE DUP1 ISZERO PUSH2 0x5DF JUMPI PUSH1 0x0 DUP1 REVERT JUMPDEST POP PUSH2 0x5FA PUSH1 0x4 DUP1 CALLDATASIZE SUB DUP2 ADD SWAP1 PUSH2 0x5F5 SWAP2 SWAP1 PUSH2 0x44F7 JUMP JUMPDEST PUSH2 0x1BEB JUMP JUMPDEST PUSH1 0x40 MLOAD PUSH2 0x607 SWAP2 SWAP1 PUSH2 0x5049 JUMP JUMPDEST PUSH1 0x40 MLOAD DUP1 SWAP2 SUB SWAP1 RETURN JUMPDEST CALLVALUE DUP1 ISZERO PUSH2 0x61C JUMPI PUSH1 0x0 DUP1 REVERT JUMPDEST POP PUSH2 0x637 PUSH1 0x4 DUP1 CALLDATASIZE SUB DUP2 ADD SWAP1 PUSH2 0x632 SWAP2 SWAP1 PUSH2 0x4580 JUMP JUMPDEST PUSH2 0x1C1F JUMP JUMPDEST STOP JUMPDEST CALLVALUE DUP1 ISZERO PUSH2 0x645 JUMPI PUSH1 0x0 DUP1 REVERT JUMPDEST POP PUSH2 0x660 PUSH1 0x4 DUP1 CALLDATASIZE SUB DUP2 ADD SWAP1 PUSH2 0x65B SWAP2 SWAP1 PUSH2 0x44F7 JUMP JUMPDEST PUSH2 0x1C2E JUMP JUMPDEST PUSH1 0x40 MLOAD PUSH2 0x66D SWAP2 SWAP1 PUSH2 0x5049 JUMP JUMPDEST PUSH1 0x40 MLOAD DUP1 SWAP2 SUB SWAP1 RETURN JUMPDEST CALLVALUE DUP1 ISZERO PUSH2 0x682 JUMPI PUSH1 0x0 DUP1 REVERT JUMPDEST POP PUSH2 0x69D PUSH1 0x4 DUP1 CALLDATASIZE SUB DUP2 ADD SWAP1 PUSH2 0x698 SWAP2 SWAP1 PUSH2 0x44F7 JUMP JUMPDEST PUSH2 0x1C4B JUMP JUMPDEST PUSH1 0x40 MLOAD PUSH2 0x6AA SWAP2 SWAP1 PUSH2 0x4BF5 JUMP JUMPDEST PUSH1 0x40 MLOAD DUP1 SWAP2 SUB SWAP1 RETURN JUMPDEST CALLVALUE DUP1 ISZERO PUSH2 0x6BF JUMPI PUSH1 0x0 DUP1 REVERT JUMPDEST POP PUSH2 0x6DA PUSH1 0x4 DUP1 CALLDATASIZE SUB DUP2 ADD SWAP1 PUSH2 0x6D5 SWAP2 SWAP1 PUSH2 0x4108 JUMP JUMPDEST PUSH2 0x1CEB JUMP JUMPDEST STOP JUMPDEST CALLVALUE DUP1 ISZERO PUSH2 0x6E8 JUMPI PUSH1 0x0 DUP1 REVERT JUMPDEST POP PUSH2 0x703 PUSH1 0x4 DUP1 CALLDATASIZE SUB DUP2 ADD SWAP1 PUSH2 0x6FE SWAP2 SWAP1 PUSH2 0x3F62 JUMP JUMPDEST PUSH2 0x1D87 JUMP JUMPDEST PUSH1 0x40 MLOAD PUSH2 0x710 SWAP2 SWAP1 PUSH2 0x4BDA JUMP JUMPDEST PUSH1 0x40 MLOAD DUP1 SWAP2 SUB SWAP1 RETURN JUMPDEST CALLVALUE DUP1 ISZERO PUSH2 0x725 JUMPI PUSH1 0x0 DUP1 REVERT JUMPDEST POP PUSH2 0x740 PUSH1 0x4 DUP1 CALLDATASIZE SUB DUP2 ADD SWAP1 PUSH2 0x73B SWAP2 SWAP1 PUSH2 0x4071 JUMP JUMPDEST PUSH2 0x1E1B JUMP JUMPDEST STOP JUMPDEST CALLVALUE DUP1 ISZERO PUSH2 0x74E JUMPI PUSH1 0x0 DUP1 REVERT JUMPDEST POP PUSH2 0x769 PUSH1 0x4 DUP1 CALLDATASIZE SUB DUP2 ADD SWAP1 PUSH2 0x764 SWAP2 SWAP1 PUSH2 0x43C9 JUMP JUMPDEST PUSH2 0x1EBC JUMP JUMPDEST STOP JUMPDEST CALLVALUE DUP1 ISZERO PUSH2 0x777 JUMPI PUSH1 0x0 DUP1 REVERT JUMPDEST POP PUSH2 0x792 PUSH1 0x4 DUP1 CALLDATASIZE SUB DUP2 ADD SWAP1 PUSH2 0x78D SWAP2 SWAP1 PUSH2 0x3F35 JUMP JUMPDEST PUSH2 0x1ECA JUMP JUMPDEST STOP JUMPDEST CALLVALUE DUP1 ISZERO PUSH2 0x7A0 JUMPI PUSH1 0x0 DUP1 REVERT JUMPDEST POP PUSH2 0x7BB PUSH1 0x4 DUP1 CALLDATASIZE SUB DUP2 ADD SWAP1 PUSH2 0x7B6 SWAP2 SWAP1 PUSH2 0x42FE JUMP JUMPDEST PUSH2 0x1FC2 JUMP JUMPDEST STOP JUMPDEST PUSH1 0x0 DUP1 PUSH20 0xFFFFFFFFFFFFFFFFFFFFFFFFFFFFFFFFFFFFFFFF AND DUP4 PUSH20 0xFFFFFFFFFFFFFFFFFFFFFFFFFFFFFFFFFFFFFFFF AND EQ ISZERO PUSH2 0x82E JUMPI PUSH1 0x40 MLOAD PUSH32 0x8C379A000000000000000000000000000000000000000000000000000000000 DUP2 MSTORE PUSH1 0x4 ADD PUSH2 0x825 SWAP1 PUSH2 0x4D4B JUMP JUMPDEST PUSH1 0x40 MLOAD DUP1 SWAP2 SUB SWAP1 REVERT JUMPDEST PUSH1 0x0 DUP1 DUP4 DUP2 MSTORE PUSH1 0x20 ADD SWAP1 DUP2 MSTORE PUSH1 0x20 ADD PUSH1 0x0 KECCAK256 PUSH1 0x0 DUP5 PUSH20 0xFFFFFFFFFFFFFFFFFFFFFFFFFFFFFFFFFFFFFFFF AND PUSH20 0xFFFFFFFFFFFFFFFFFFFFFFFFFFFFFFFFFFFFFFFF AND DUP2 MSTORE PUSH1 0x20 ADD SWAP1 DUP2 MSTORE PUSH1 0x20 ADD PUSH1 0x0 KECCAK256 SLOAD SWAP1 POP SWAP3 SWAP2 POP POP JUMP JUMPDEST PUSH1 0x0 PUSH32 0xD9B67A2600000000000000000000000000000000000000000000000000000000 PUSH28 0xFFFFFFFFFFFFFFFFFFFFFFFFFFFFFFFFFFFFFFFFFFFFFFFFFFFFFFFF NOT AND DUP3 PUSH28 0xFFFFFFFFFFFFFFFFFFFFFFFFFFFFFFFFFFFFFFFFFFFFFFFFFFFFFFFF NOT AND EQ DUP1 PUSH2 0x951 JUMPI POP PUSH32 0xE89341C00000000000000000000000000000000000000000000000000000000 PUSH28 0xFFFFFFFFFFFFFFFFFFFFFFFFFFFFFFFFFFFFFFFFFFFFFFFFFFFFFFFF NOT AND DUP3 PUSH28 0xFFFFFFFFFFFFFFFFFFFFFFFFFFFFFFFFFFFFFFFFFFFFFFFFFFFFFFFF NOT AND EQ JUMPDEST DUP1 PUSH2 0x961 JUMPI POP PUSH2 0x960 DUP3 PUSH2 0x205F JUMP JUMPDEST JUMPDEST SWAP1 POP SWAP2 SWAP1 POP JUMP JUMPDEST PUSH1 0x5 DUP1 SLOAD PUSH2 0x975 SWAP1 PUSH2 0x532F JUMP JUMPDEST DUP1 PUSH1 0x1F ADD PUSH1 0x20 DUP1 SWAP2 DIV MUL PUSH1 0x20 ADD PUSH1 0x40 MLOAD SWAP1 DUP2 ADD PUSH1 0x40 MSTORE DUP1 SWAP3 SWAP2 SWAP1 DUP2 DUP2 MSTORE PUSH1 0x20 ADD DUP3 DUP1 SLOAD PUSH2 0x9A1 SWAP1 PUSH2 0x532F JUMP JUMPDEST DUP1 ISZERO PUSH2 0x9EE JUMPI DUP1 PUSH1 0x1F LT PUSH2 0x9C3 JUMPI PUSH2 0x100 DUP1 DUP4 SLOAD DIV MUL DUP4 MSTORE SWAP2 PUSH1 0x20 ADD SWAP2 PUSH2 0x9EE JUMP JUMPDEST DUP3 ADD SWAP2 SWAP1 PUSH1 0x0 MSTORE PUSH1 0x20 PUSH1 0x0 KECCAK256 SWAP1 JUMPDEST DUP2 SLOAD DUP2 MSTORE SWAP1 PUSH1 0x1 ADD SWAP1 PUSH1 0x20 ADD DUP1 DUP4 GT PUSH2 0x9D1 JUMPI DUP3 SWAP1 SUB PUSH1 0x1F AND DUP3 ADD SWAP2 JUMPDEST POP POP POP POP POP DUP2 JUMP JUMPDEST PUSH1 0x60 PUSH1 0xA PUSH1 0x0 DUP4 DUP2 MSTORE PUSH1 0x20 ADD SWAP1 DUP2 MSTORE PUSH1 0x20 ADD PUSH1 0x0 KECCAK256 DUP1 SLOAD PUSH2 0xA16 SWAP1 PUSH2 0x532F JUMP JUMPDEST DUP1 PUSH1 0x1F ADD PUSH1 0x20 DUP1 SWAP2 DIV MUL PUSH1 0x20 ADD PUSH1 0x40 MLOAD SWAP1 DUP2 ADD PUSH1 0x40 MSTORE DUP1 SWAP3 SWAP2 SWAP1 DUP2 DUP2 MSTORE PUSH1 0x20 ADD DUP3 DUP1 SLOAD PUSH2 0xA42 SWAP1 PUSH2 0x532F JUMP JUMPDEST DUP1 ISZERO PUSH2 0xA8F JUMPI DUP1 PUSH1 0x1F LT PUSH2 0xA64 JUMPI PUSH2 0x100 DUP1 DUP4 SLOAD DIV MUL DUP4 MSTORE SWAP2 PUSH1 0x20 ADD SWAP2 PUSH2 0xA8F JUMP JUMPDEST DUP3 ADD SWAP2 SWAP1 PUSH1 0x0 MSTORE PUSH1 0x20 PUSH1 0x0 KECCAK256 SWAP1 JUMPDEST DUP2 SLOAD DUP2 MSTORE SWAP1 PUSH1 0x1 ADD SWAP1 PUSH1 0x20 ADD DUP1 DUP4 GT PUSH2 0xA72 JUMPI DUP3 SWAP1 SUB PUSH1 0x1F AND DUP3 ADD SWAP2 JUMPDEST POP POP POP POP POP SWAP1 POP SWAP2 SWAP1 POP JUMP JUMPDEST PUSH1 0x0 PUSH1 0xB PUSH1 0x0 DUP4 PUSH20 0xFFFFFFFFFFFFFFFFFFFFFFFFFFFFFFFFFFFFFFFF AND PUSH20 0xFFFFFFFFFFFFFFFFFFFFFFFFFFFFFFFFFFFFFFFF AND DUP2 MSTORE PUSH1 0x20 ADD SWAP1 DUP2 MSTORE PUSH1 0x20 ADD PUSH1 0x0 KECCAK256 SLOAD SWAP1 POP SWAP2 SWAP1 POP JUMP JUMPDEST PUSH2 0xAEC PUSH2 0x20C9 JUMP JUMPDEST PUSH20 0xFFFFFFFFFFFFFFFFFFFFFFFFFFFFFFFFFFFFFFFF AND DUP6 PUSH20 0xFFFFFFFFFFFFFFFFFFFFFFFFFFFFFFFFFFFFFFFF AND EQ DUP1 PUSH2 0xB32 JUMPI POP PUSH2 0xB31 DUP6 PUSH2 0xB2C PUSH2 0x20C9 JUMP JUMPDEST PUSH2 0x1D87 JUMP JUMPDEST JUMPDEST PUSH2 0xB71 JUMPI PUSH1 0x40 MLOAD PUSH32 0x8C379A000000000000000000000000000000000000000000000000000000000 DUP2 MSTORE PUSH1 0x4 ADD PUSH2 0xB68 SWAP1 PUSH2 0x4EBF JUMP JUMPDEST PUSH1 0x40 MLOAD DUP1 SWAP2 SUB SWAP1 REVERT JUMPDEST PUSH2 0xB7E DUP6 DUP6 DUP6 DUP6 DUP6 PUSH2 0x20D1 JUMP JUMPDEST POP POP POP POP POP JUMP JUMPDEST PUSH2 0xB8D PUSH2 0x20C9 JUMP JUMPDEST PUSH20 0xFFFFFFFFFFFFFFFFFFFFFFFFFFFFFFFFFFFFFFFF AND PUSH2 0xBAB PUSH2 0x1B93 JUMP JUMPDEST PUSH20 0xFFFFFFFFFFFFFFFFFFFFFFFFFFFFFFFFFFFFFFFF AND EQ PUSH2 0xC01 JUMPI PUSH1 0x40 MLOAD PUSH32 0x8C379A000000000000000000000000000000000000000000000000000000000 DUP2 MSTORE PUSH1 0x4 ADD PUSH2 0xBF8 SWAP1 PUSH2 0x4F69 JUMP JUMPDEST PUSH1 0x40 MLOAD DUP1 SWAP2 SUB SWAP1 REVERT JUMPDEST PUSH2 0xC09 PUSH2 0x23E5 JUMP JUMPDEST JUMP JUMPDEST PUSH1 0x60 DUP2 MLOAD DUP4 MLOAD EQ PUSH2 0xC51 JUMPI PUSH1 0x40 MLOAD PUSH32 0x8C379A000000000000000000000000000000000000000000000000000000000 DUP2 MSTORE PUSH1 0x4 ADD PUSH2 0xC48 SWAP1 PUSH2 0x4FE9 JUMP JUMPDEST PUSH1 0x40 MLOAD DUP1 SWAP2 SUB SWAP1 REVERT JUMPDEST PUSH1 0x0 DUP4 MLOAD PUSH8 0xFFFFFFFFFFFFFFFF DUP2 GT ISZERO PUSH2 0xC6E JUMPI PUSH2 0xC6D PUSH2 0x5468 JUMP JUMPDEST JUMPDEST PUSH1 0x40 MLOAD SWAP1 DUP1 DUP3 MSTORE DUP1 PUSH1 0x20 MUL PUSH1 0x20 ADD DUP3 ADD PUSH1 0x40 MSTORE DUP1 ISZERO PUSH2 0xC9C JUMPI DUP2 PUSH1 0x20 ADD PUSH1 0x20 DUP3 MUL DUP1 CALLDATASIZE DUP4 CALLDATACOPY DUP1 DUP3 ADD SWAP2 POP POP SWAP1 POP JUMPDEST POP SWAP1 POP PUSH1 0x0 JUMPDEST DUP5 MLOAD DUP2 LT ISZERO PUSH2 0xD19 JUMPI PUSH2 0xCE9 DUP6 DUP3 DUP2 MLOAD DUP2 LT PUSH2 0xCC1 JUMPI PUSH2 0xCC0 PUSH2 0x5439 JUMP JUMPDEST JUMPDEST PUSH1 0x20 MUL PUSH1 0x20 ADD ADD MLOAD DUP6 DUP4 DUP2 MLOAD DUP2 LT PUSH2 0xCDC JUMPI PUSH2 0xCDB PUSH2 0x5439 JUMP JUMPDEST JUMPDEST PUSH1 0x20 MUL PUSH1 0x20 ADD ADD MLOAD PUSH2 0x7BD JUMP JUMPDEST DUP3 DUP3 DUP2 MLOAD DUP2 LT PUSH2 0xCFC JUMPI PUSH2 0xCFB PUSH2 0x5439 JUMP JUMPDEST JUMPDEST PUSH1 0x20 MUL PUSH1 0x20 ADD ADD DUP2 DUP2 MSTORE POP POP DUP1 PUSH2 0xD12 SWAP1 PUSH2 0x5392 JUMP JUMPDEST SWAP1 POP PUSH2 0xCA2 JUMP JUMPDEST POP DUP1 SWAP2 POP POP SWAP3 SWAP2 POP POP JUMP JUMPDEST PUSH1 0x0 DUP1 PUSH2 0xD30 DUP4 PUSH2 0x1C2E JUMP JUMPDEST GT SWAP1 POP SWAP2 SWAP1 POP JUMP JUMPDEST PUSH2 0xD40 PUSH2 0x20C9 JUMP JUMPDEST PUSH20 0xFFFFFFFFFFFFFFFFFFFFFFFFFFFFFFFFFFFFFFFF AND PUSH2 0xD5E PUSH2 0x1B93 JUMP JUMPDEST PUSH20 0xFFFFFFFFFFFFFFFFFFFFFFFFFFFFFFFFFFFFFFFF AND EQ PUSH2 0xDB4 JUMPI PUSH1 0x40 MLOAD PUSH32 0x8C379A000000000000000000000000000000000000000000000000000000000 DUP2 MSTORE PUSH1 0x4 ADD PUSH2 0xDAB SWAP1 PUSH2 0x4F69 JUMP JUMPDEST PUSH1 0x40 MLOAD DUP1 SWAP2 SUB SWAP1 REVERT JUMPDEST PUSH2 0xDBF DUP6 DUP6 DUP6 PUSH2 0x2487 JUMP JUMPDEST PUSH2 0xDDA DUP6 DUP4 DUP4 PUSH1 0x40 MLOAD DUP1 PUSH1 0x20 ADD PUSH1 0x40 MSTORE DUP1 PUSH1 0x0 DUP2 MSTORE POP PUSH2 0x2738 JUMP JUMPDEST POP POP POP POP POP JUMP JUMPDEST PUSH1 0x0 PUSH1 0x3 PUSH1 0x14 SWAP1 SLOAD SWAP1 PUSH2 0x100 EXP SWAP1 DIV PUSH1 0xFF AND SWAP1 POP SWAP1 JUMP JUMPDEST PUSH2 0xE00 PUSH2 0x20C9 JUMP JUMPDEST PUSH20 0xFFFFFFFFFFFFFFFFFFFFFFFFFFFFFFFFFFFFFFFF AND PUSH2 0xE1E PUSH2 0x1B93 JUMP JUMPDEST PUSH20 0xFFFFFFFFFFFFFFFFFFFFFFFFFFFFFFFFFFFFFFFF AND EQ PUSH2 0xE74 JUMPI PUSH1 0x40 MLOAD PUSH32 0x8C379A000000000000000000000000000000000000000000000000000000000 DUP2 MSTORE PUSH1 0x4 ADD PUSH2 0xE6B SWAP1 PUSH2 0x4F69 JUMP JUMPDEST PUSH1 0x40 MLOAD DUP1 SWAP2 SUB SWAP1 REVERT JUMPDEST PUSH2 0xE7C PUSH2 0xDE1 JUMP JUMPDEST ISZERO PUSH2 0xEBC JUMPI PUSH1 0x40 MLOAD PUSH32 0x8C379A000000000000000000000000000000000000000000000000000000000 DUP2 MSTORE PUSH1 0x4 ADD PUSH2 0xEB3 SWAP1 PUSH2 0x4E7F JUMP JUMPDEST PUSH1 0x40 MLOAD DUP1 SWAP2 SUB SWAP1 REVERT JUMPDEST DUP1 PUSH32 0xA2455EC11F160D321516C021994881E7678C0B5870CD7AAE50107098770E2C28 CALLER PUSH1 0x0 PUSH1 0xB PUSH1 0x0 CALLER PUSH20 0xFFFFFFFFFFFFFFFFFFFFFFFFFFFFFFFFFFFFFFFF AND PUSH20 0xFFFFFFFFFFFFFFFFFFFFFFFFFFFFFFFFFFFFFFFF AND DUP2 MSTORE PUSH1 0x20 ADD SWAP1 DUP2 MSTORE PUSH1 0x20 ADD PUSH1 0x0 KECCAK256 SLOAD PUSH1 0x40 MLOAD PUSH2 0xF30 SWAP4 SWAP3 SWAP2 SWAP1 PUSH2 0x4D8B JUMP JUMPDEST PUSH1 0x40 MLOAD DUP1 SWAP2 SUB SWAP1 LOG1 PUSH1 0x0 PUSH1 0xB PUSH1 0x0 DUP4 PUSH20 0xFFFFFFFFFFFFFFFFFFFFFFFFFFFFFFFFFFFFFFFF AND PUSH20 0xFFFFFFFFFFFFFFFFFFFFFFFFFFFFFFFFFFFFFFFF AND DUP2 MSTORE PUSH1 0x20 ADD SWAP1 DUP2 MSTORE PUSH1 0x20 ADD PUSH1 0x0 KECCAK256 SLOAD EQ ISZERO PUSH2 0xFBB JUMPI PUSH1 0x40 MLOAD PUSH32 0x8C379A000000000000000000000000000000000000000000000000000000000 DUP2 MSTORE PUSH1 0x4 ADD PUSH2 0xFB2 SWAP1 PUSH2 0x4F89 JUMP JUMPDEST PUSH1 0x40 MLOAD DUP1 SWAP2 SUB SWAP1 REVERT JUMPDEST PUSH1 0x0 PUSH2 0xFC6 DUP4 PUSH2 0xA9B JUMP JUMPDEST SWAP1 POP PUSH1 0x6 DUP1 SLOAD SWAP1 POP DUP2 GT ISZERO DUP1 ISZERO PUSH2 0xFDD JUMPI POP PUSH1 0x0 DUP2 GT JUMPDEST PUSH2 0x101C JUMPI PUSH1 0x40 MLOAD PUSH32 0x8C379A000000000000000000000000000000000000000000000000000000000 DUP2 MSTORE PUSH1 0x4 ADD PUSH2 0x1013 SWAP1 PUSH2 0x4C37 JUMP JUMPDEST PUSH1 0x40 MLOAD DUP1 SWAP2 SUB SWAP1 REVERT JUMPDEST PUSH1 0x0 PUSH1 0x1 DUP3 PUSH2 0x102B SWAP2 SWAP1 PUSH2 0x5233 JUMP JUMPDEST SWAP1 POP PUSH1 0x6 DUP2 DUP2 SLOAD DUP2 LT PUSH2 0x1041 JUMPI PUSH2 0x1040 PUSH2 0x5439 JUMP JUMPDEST JUMPDEST SWAP1 PUSH1 0x0 MSTORE PUSH1 0x20 PUSH1 0x0 KECCAK256 ADD SLOAD PUSH1 0x1 PUSH1 0x7 DUP4 DUP2 SLOAD DUP2 LT PUSH2 0x1062 JUMPI PUSH2 0x1061 PUSH2 0x5439 JUMP JUMPDEST JUMPDEST SWAP1 PUSH1 0x0 MSTORE PUSH1 0x20 PUSH1 0x0 KECCAK256 ADD SLOAD PUSH2 0x1077 SWAP2 SWAP1 PUSH2 0x51DD JUMP JUMPDEST GT ISZERO PUSH2 0x10B8 JUMPI PUSH1 0x40 MLOAD PUSH32 0x8C379A000000000000000000000000000000000000000000000000000000000 DUP2 MSTORE PUSH1 0x4 ADD PUSH2 0x10AF SWAP1 PUSH2 0x4D2B JUMP JUMPDEST PUSH1 0x40 MLOAD DUP1 SWAP2 SUB SWAP1 REVERT JUMPDEST PUSH1 0x8 DUP2 DUP2 SLOAD DUP2 LT PUSH2 0x10CC JUMPI PUSH2 0x10CB PUSH2 0x5439 JUMP JUMPDEST JUMPDEST SWAP1 PUSH1 0x0 MSTORE PUSH1 0x20 PUSH1 0x0 KECCAK256 ADD SLOAD CALLVALUE LT ISZERO PUSH2 0x1119 JUMPI PUSH1 0x40 MLOAD PUSH32 0x8C379A000000000000000000000000000000000000000000000000000000000 DUP2 MSTORE PUSH1 0x4 ADD PUSH2 0x1110 SWAP1 PUSH2 0x4FA9 JUMP JUMPDEST PUSH1 0x40 MLOAD DUP1 SWAP2 SUB SWAP1 REVERT JUMPDEST PUSH2 0x1135 DUP5 DUP4 PUSH1 0x1 PUSH1 0x40 MLOAD DUP1 PUSH1 0x20 ADD PUSH1 0x40 MSTORE DUP1 PUSH1 0x0 DUP2 MSTORE POP PUSH2 0x2956 JUMP JUMPDEST PUSH1 0x7 DUP2 DUP2 SLOAD DUP2 LT PUSH2 0x1149 JUMPI PUSH2 0x1148 PUSH2 0x5439 JUMP JUMPDEST JUMPDEST SWAP1 PUSH1 0x0 MSTORE PUSH1 0x20 PUSH1 0x0 KECCAK256 ADD PUSH1 0x0 DUP2 SLOAD DUP1 SWAP3 SWAP2 SWAP1 PUSH2 0x1164 SWAP1 PUSH2 0x5392 JUMP JUMPDEST SWAP2 SWAP1 POP SSTORE POP PUSH1 0x1 DUP3 EQ PUSH2 0x12F9 JUMPI PUSH1 0x0 PUSH1 0x1 SWAP1 POP PUSH1 0x6 DUP1 SLOAD SWAP1 POP DUP2 GT ISZERO DUP1 ISZERO PUSH2 0x118C JUMPI POP PUSH1 0x0 DUP2 GT JUMPDEST PUSH2 0x11CB JUMPI PUSH1 0x40 MLOAD PUSH32 0x8C379A000000000000000000000000000000000000000000000000000000000 DUP2 MSTORE PUSH1 0x4 ADD PUSH2 0x11C2 SWAP1 PUSH2 0x4C37 JUMP JUMPDEST PUSH1 0x40 MLOAD DUP1 SWAP2 SUB SWAP1 REVERT JUMPDEST PUSH1 0x6 PUSH1 0x1 DUP3 PUSH2 0x11DA SWAP2 SWAP1 PUSH2 0x5233 JUMP JUMPDEST DUP2 SLOAD DUP2 LT PUSH2 0x11EB JUMPI PUSH2 0x11EA PUSH2 0x5439 JUMP JUMPDEST JUMPDEST SWAP1 PUSH1 0x0 MSTORE PUSH1 0x20 PUSH1 0x0 KECCAK256 ADD SLOAD PUSH1 0x1 PUSH1 0x7 PUSH1 0x1 DUP5 PUSH2 0x1207 SWAP2 SWAP1 PUSH2 0x5233 JUMP JUMPDEST DUP2 SLOAD DUP2 LT PUSH2 0x1218 JUMPI PUSH2 0x1217 PUSH2 0x5439 JUMP JUMPDEST JUMPDEST SWAP1 PUSH1 0x0 MSTORE PUSH1 0x20 PUSH1 0x0 KECCAK256 ADD SLOAD PUSH2 0x122D SWAP2 SWAP1 PUSH2 0x51DD JUMP JUMPDEST GT ISZERO PUSH2 0x126E JUMPI PUSH1 0x40 MLOAD PUSH32 0x8C379A000000000000000000000000000000000000000000000000000000000 DUP2 MSTORE PUSH1 0x4 ADD PUSH2 0x1265 SWAP1 PUSH2 0x4D2B JUMP JUMPDEST PUSH1 0x40 MLOAD DUP1 SWAP2 SUB SWAP1 REVERT JUMPDEST PUSH1 0x8 PUSH1 0x1 DUP3 PUSH2 0x127D SWAP2 SWAP1 PUSH2 0x5233 JUMP JUMPDEST DUP2 SLOAD DUP2 LT PUSH2 0x128E JUMPI PUSH2 0x128D PUSH2 0x5439 JUMP JUMPDEST JUMPDEST SWAP1 PUSH1 0x0 MSTORE PUSH1 0x20 PUSH1 0x0 KECCAK256 ADD SLOAD CALLVALUE LT ISZERO PUSH2 0x12DB JUMPI PUSH1 0x40 MLOAD PUSH32 0x8C379A000000000000000000000000000000000000000000000000000000000 DUP2 MSTORE PUSH1 0x4 ADD PUSH2 0x12D2 SWAP1 PUSH2 0x4FA9 JUMP JUMPDEST PUSH1 0x40 MLOAD DUP1 SWAP2 SUB SWAP1 REVERT JUMPDEST PUSH2 0x12F7 DUP6 DUP3 PUSH1 0x1 PUSH1 0x40 MLOAD DUP1 PUSH1 0x20 ADD PUSH1 0x40 MSTORE DUP1 PUSH1 0x0 DUP2 MSTORE POP PUSH2 0x2956 JUMP JUMPDEST POP JUMPDEST POP POP POP POP JUMP JUMPDEST PUSH2 0x1307 PUSH2 0x20C9 JUMP JUMPDEST PUSH20 0xFFFFFFFFFFFFFFFFFFFFFFFFFFFFFFFFFFFFFFFF AND PUSH2 0x1325 PUSH2 0x1B93 JUMP JUMPDEST PUSH20 0xFFFFFFFFFFFFFFFFFFFFFFFFFFFFFFFFFFFFFFFF AND EQ PUSH2 0x137B JUMPI PUSH1 0x40 MLOAD PUSH32 0x8C379A000000000000000000000000000000000000000000000000000000000 DUP2 MSTORE PUSH1 0x4 ADD PUSH2 0x1372 SWAP1 PUSH2 0x4F69 JUMP JUMPDEST PUSH1 0x40 MLOAD DUP1 SWAP2 SUB SWAP1 REVERT JUMPDEST DUP1 PUSH32 0xA2455EC11F160D321516C021994881E7678C0B5870CD7AAE50107098770E2C28 CALLER PUSH1 0x0 PUSH1 0xB PUSH1 0x0 CALLER PUSH20 0xFFFFFFFFFFFFFFFFFFFFFFFFFFFFFFFFFFFFFFFF AND PUSH20 0xFFFFFFFFFFFFFFFFFFFFFFFFFFFFFFFFFFFFFFFF AND DUP2 MSTORE PUSH1 0x20 ADD SWAP1 DUP2 MSTORE PUSH1 0x20 ADD PUSH1 0x0 KECCAK256 SLOAD PUSH1 0x40 MLOAD PUSH2 0x13EF SWAP4 SWAP3 SWAP2 SWAP1 PUSH2 0x4CE1 JUMP JUMPDEST PUSH1 0x40 MLOAD DUP1 SWAP2 SUB SWAP1 LOG1 PUSH1 0x6 DUP1 SLOAD SWAP1 POP DUP2 GT ISZERO DUP1 ISZERO PUSH2 0x140C JUMPI POP PUSH1 0x0 DUP2 GT JUMPDEST PUSH2 0x144B JUMPI PUSH1 0x40 MLOAD PUSH32 0x8C379A000000000000000000000000000000000000000000000000000000000 DUP2 MSTORE PUSH1 0x4 ADD PUSH2 0x1442 SWAP1 PUSH2 0x4C37 JUMP JUMPDEST PUSH1 0x40 MLOAD DUP1 SWAP2 SUB SWAP1 REVERT JUMPDEST PUSH1 0x0 DUP1 JUMPDEST DUP5 MLOAD DUP2 LT ISZERO PUSH2 0x16C6 JUMPI PUSH32 0xA2455EC11F160D321516C021994881E7678C0B5870CD7AAE50107098770E2C28 DUP6 DUP3 DUP2 MLOAD DUP2 LT PUSH2 0x148C JUMPI PUSH2 0x148B PUSH2 0x5439 JUMP JUMPDEST JUMPDEST PUSH1 0x20 MUL PUSH1 0x20 ADD ADD MLOAD DUP4 PUSH1 0xB PUSH1 0x0 DUP10 DUP7 DUP2 MLOAD DUP2 LT PUSH2 0x14AC JUMPI PUSH2 0x14AB PUSH2 0x5439 JUMP JUMPDEST JUMPDEST PUSH1 0x20 MUL PUSH1 0x20 ADD ADD MLOAD PUSH20 0xFFFFFFFFFFFFFFFFFFFFFFFFFFFFFFFFFFFFFFFF AND PUSH20 0xFFFFFFFFFFFFFFFFFFFFFFFFFFFFFFFFFFFFFFFF AND DUP2 MSTORE PUSH1 0x20 ADD SWAP1 DUP2 MSTORE PUSH1 0x20 ADD PUSH1 0x0 KECCAK256 SLOAD PUSH1 0x40 MLOAD PUSH2 0x14FE SWAP4 SWAP3 SWAP2 SWAP1 PUSH2 0x4C77 JUMP JUMPDEST PUSH1 0x40 MLOAD DUP1 SWAP2 SUB SWAP1 LOG1 PUSH1 0x0 PUSH1 0xB PUSH1 0x0 DUP8 DUP5 DUP2 MLOAD DUP2 LT PUSH2 0x151F JUMPI PUSH2 0x151E PUSH2 0x5439 JUMP JUMPDEST JUMPDEST PUSH1 0x20 MUL PUSH1 0x20 ADD ADD MLOAD PUSH20 0xFFFFFFFFFFFFFFFFFFFFFFFFFFFFFFFFFFFFFFFF AND PUSH20 0xFFFFFFFFFFFFFFFFFFFFFFFFFFFFFFFFFFFFFFFF AND DUP2 MSTORE PUSH1 0x20 ADD SWAP1 DUP2 MSTORE PUSH1 0x20 ADD PUSH1 0x0 KECCAK256 SLOAD EQ ISZERO PUSH2 0x15DA JUMPI DUP4 PUSH1 0xB PUSH1 0x0 DUP8 DUP5 DUP2 MLOAD DUP2 LT PUSH2 0x1580 JUMPI PUSH2 0x157F PUSH2 0x5439 JUMP JUMPDEST JUMPDEST PUSH1 0x20 MUL PUSH1 0x20 ADD ADD MLOAD PUSH20 0xFFFFFFFFFFFFFFFFFFFFFFFFFFFFFFFFFFFFFFFF AND PUSH20 0xFFFFFFFFFFFFFFFFFFFFFFFFFFFFFFFFFFFFFFFF AND DUP2 MSTORE PUSH1 0x20 ADD SWAP1 DUP2 MSTORE PUSH1 0x20 ADD PUSH1 0x0 KECCAK256 DUP2 SWAP1 SSTORE POP PUSH1 0x1 DUP3 PUSH2 0x15D3 SWAP2 SWAP1 PUSH2 0x51DD JUMP JUMPDEST SWAP2 POP PUSH2 0x16B3 JUMP JUMPDEST PUSH32 0xA2455EC11F160D321516C021994881E7678C0B5870CD7AAE50107098770E2C28 DUP6 DUP3 DUP2 MLOAD DUP2 LT PUSH2 0x160E JUMPI PUSH2 0x160D PUSH2 0x5439 JUMP JUMPDEST JUMPDEST PUSH1 0x20 MUL PUSH1 0x20 ADD ADD MLOAD PUSH1 0x9 PUSH1 0x1 DUP8 PUSH2 0x1625 SWAP2 SWAP1 PUSH2 0x5233 JUMP JUMPDEST DUP2 SLOAD DUP2 LT PUSH2 0x1636 JUMPI PUSH2 0x1635 PUSH2 0x5439 JUMP JUMPDEST JUMPDEST SWAP1 PUSH1 0x0 MSTORE PUSH1 0x20 PUSH1 0x0 KECCAK256 ADD SLOAD PUSH1 0xB PUSH1 0x0 DUP10 DUP7 DUP2 MLOAD DUP2 LT PUSH2 0x1658 JUMPI PUSH2 0x1657 PUSH2 0x5439 JUMP JUMPDEST JUMPDEST PUSH1 0x20 MUL PUSH1 0x20 ADD ADD MLOAD PUSH20 0xFFFFFFFFFFFFFFFFFFFFFFFFFFFFFFFFFFFFFFFF AND PUSH20 0xFFFFFFFFFFFFFFFFFFFFFFFFFFFFFFFFFFFFFFFF AND DUP2 MSTORE PUSH1 0x20 ADD SWAP1 DUP2 MSTORE PUSH1 0x20 ADD PUSH1 0x0 KECCAK256 SLOAD PUSH1 0x40 MLOAD PUSH2 0x16AA SWAP4 SWAP3 SWAP2 SWAP1 PUSH2 0x4DF5 JUMP JUMPDEST PUSH1 0x40 MLOAD DUP1 SWAP2 SUB SWAP1 LOG1 JUMPDEST DUP1 DUP1 PUSH2 0x16BE SWAP1 PUSH2 0x5392 JUMP JUMPDEST SWAP2 POP POP PUSH2 0x144F JUMP JUMPDEST POP PUSH1 0x6 PUSH1 0x1 DUP5 PUSH2 0x16D6 SWAP2 SWAP1 PUSH2 0x5233 JUMP JUMPDEST DUP2 SLOAD DUP2 LT PUSH2 0x16E7 JUMPI PUSH2 0x16E6 PUSH2 0x5439 JUMP JUMPDEST JUMPDEST SWAP1 PUSH1 0x0 MSTORE PUSH1 0x20 PUSH1 0x0 KECCAK256 ADD SLOAD DUP2 PUSH1 0x9 PUSH1 0x1 DUP7 PUSH2 0x1702 SWAP2 SWAP1 PUSH2 0x5233 JUMP JUMPDEST DUP2 SLOAD DUP2 LT PUSH2 0x1713 JUMPI PUSH2 0x1712 PUSH2 0x5439 JUMP JUMPDEST JUMPDEST SWAP1 PUSH1 0x0 MSTORE PUSH1 0x20 PUSH1 0x0 KECCAK256 ADD SLOAD PUSH2 0x1728 SWAP2 SWAP1 PUSH2 0x51DD JUMP JUMPDEST GT ISZERO PUSH2 0x1769 JUMPI PUSH1 0x40 MLOAD PUSH32 0x8C379A000000000000000000000000000000000000000000000000000000000 DUP2 MSTORE PUSH1 0x4 ADD PUSH2 0x1760 SWAP1 PUSH2 0x4E5F JUMP JUMPDEST PUSH1 0x40 MLOAD DUP1 SWAP2 SUB SWAP1 REVERT JUMPDEST DUP1 PUSH1 0x9 PUSH1 0x1 DUP6 PUSH2 0x1779 SWAP2 SWAP1 PUSH2 0x5233 JUMP JUMPDEST DUP2 SLOAD DUP2 LT PUSH2 0x178A JUMPI PUSH2 0x1789 PUSH2 0x5439 JUMP JUMPDEST JUMPDEST SWAP1 PUSH1 0x0 MSTORE PUSH1 0x20 PUSH1 0x0 KECCAK256 ADD PUSH1 0x0 DUP3 DUP3 SLOAD PUSH2 0x17A3 SWAP2 SWAP1 PUSH2 0x51DD JUMP JUMPDEST SWAP3 POP POP DUP2 SWAP1 SSTORE POP POP POP POP POP JUMP JUMPDEST PUSH2 0x17B8 PUSH2 0x20C9 JUMP JUMPDEST PUSH20 0xFFFFFFFFFFFFFFFFFFFFFFFFFFFFFFFFFFFFFFFF AND DUP4 PUSH20 0xFFFFFFFFFFFFFFFFFFFFFFFFFFFFFFFFFFFFFFFF AND EQ DUP1 PUSH2 0x17FE JUMPI POP PUSH2 0x17FD DUP4 PUSH2 0x17F8 PUSH2 0x20C9 JUMP JUMPDEST PUSH2 0x1D87 JUMP JUMPDEST JUMPDEST PUSH2 0x183D JUMPI PUSH1 0x40 MLOAD PUSH32 0x8C379A000000000000000000000000000000000000000000000000000000000 DUP2 MSTORE PUSH1 0x4 ADD PUSH2 0x1834 SWAP1 PUSH2 0x4E3F JUMP JUMPDEST PUSH1 0x40 MLOAD DUP1 SWAP2 SUB SWAP1 REVERT JUMPDEST PUSH2 0x1848 DUP4 DUP4 DUP4 PUSH2 0x2487 JUMP JUMPDEST POP POP POP JUMP JUMPDEST PUSH2 0x1855 PUSH2 0x20C9 JUMP JUMPDEST PUSH20 0xFFFFFFFFFFFFFFFFFFFFFFFFFFFFFFFFFFFFFFFF AND PUSH2 0x1873 PUSH2 0x1B93 JUMP JUMPDEST PUSH20 0xFFFFFFFFFFFFFFFFFFFFFFFFFFFFFFFFFFFFFFFF AND EQ PUSH2 0x18C9 JUMPI PUSH1 0x40 MLOAD PUSH32 0x8C379A000000000000000000000000000000000000000000000000000000000 DUP2 MSTORE PUSH1 0x4 ADD PUSH2 0x18C0 SWAP1 PUSH2 0x4F69 JUMP JUMPDEST PUSH1 0x40 MLOAD DUP1 SWAP2 SUB SWAP1 REVERT JUMPDEST PUSH2 0x18D3 PUSH1 0x0 PUSH2 0x2AEC JUMP JUMPDEST JUMP JUMPDEST PUSH2 0x18E0 CALLER DUP4 DUP4 PUSH2 0x2487 JUMP JUMPDEST POP POP JUMP JUMPDEST PUSH2 0x18EC PUSH2 0x20C9 JUMP JUMPDEST PUSH20 0xFFFFFFFFFFFFFFFFFFFFFFFFFFFFFFFFFFFFFFFF AND PUSH2 0x190A PUSH2 0x1B93 JUMP JUMPDEST PUSH20 0xFFFFFFFFFFFFFFFFFFFFFFFFFFFFFFFFFFFFFFFF AND EQ PUSH2 0x1960 JUMPI PUSH1 0x40 MLOAD PUSH32 0x8C379A000000000000000000000000000000000000000000000000000000000 DUP2 MSTORE PUSH1 0x4 ADD PUSH2 0x1957 SWAP1 PUSH2 0x4F69 JUMP JUMPDEST PUSH1 0x40 MLOAD DUP1 SWAP2 SUB SWAP1 REVERT JUMPDEST PUSH2 0x1968 PUSH2 0x2BB2 JUMP JUMPDEST JUMP JUMPDEST PUSH2 0x1972 PUSH2 0x20C9 JUMP JUMPDEST PUSH20 0xFFFFFFFFFFFFFFFFFFFFFFFFFFFFFFFFFFFFFFFF AND PUSH2 0x1990 PUSH2 0x1B93 JUMP JUMPDEST PUSH20 0xFFFFFFFFFFFFFFFFFFFFFFFFFFFFFFFFFFFFFFFF AND EQ PUSH2 0x19E6 JUMPI PUSH1 0x40 MLOAD PUSH32 0x8C379A000000000000000000000000000000000000000000000000000000000 DUP2 MSTORE PUSH1 0x4 ADD PUSH2 0x19DD SWAP1 PUSH2 0x4F69 JUMP JUMPDEST PUSH1 0x40 MLOAD DUP1 SWAP2 SUB SWAP1 REVERT JUMPDEST CALLER PUSH20 0xFFFFFFFFFFFFFFFFFFFFFFFFFFFFFFFFFFFFFFFF AND PUSH2 0x8FC SELFBALANCE SWAP1 DUP2 ISZERO MUL SWAP1 PUSH1 0x40 MLOAD PUSH1 0x0 PUSH1 0x40 MLOAD DUP1 DUP4 SUB DUP2 DUP6 DUP9 DUP9 CALL SWAP4 POP POP POP POP ISZERO DUP1 ISZERO PUSH2 0x1A2C JUMPI RETURNDATASIZE PUSH1 0x0 DUP1 RETURNDATACOPY RETURNDATASIZE PUSH1 0x0 REVERT JUMPDEST POP JUMP JUMPDEST PUSH2 0x1A37 PUSH2 0x20C9 JUMP JUMPDEST PUSH20 0xFFFFFFFFFFFFFFFFFFFFFFFFFFFFFFFFFFFFFFFF AND PUSH2 0x1A55 PUSH2 0x1B93 JUMP JUMPDEST PUSH20 0xFFFFFFFFFFFFFFFFFFFFFFFFFFFFFFFFFFFFFFFF AND EQ PUSH2 0x1AAB JUMPI PUSH1 0x40 MLOAD PUSH32 0x8C379A000000000000000000000000000000000000000000000000000000000 DUP2 MSTORE PUSH1 0x4 ADD PUSH2 0x1AA2 SWAP1 PUSH2 0x4F69 JUMP JUMPDEST PUSH1 0x40 MLOAD DUP1 SWAP2 SUB SWAP1 REVERT JUMPDEST DUP1 PUSH1 0xA PUSH1 0x0 DUP5 DUP2 MSTORE PUSH1 0x20 ADD SWAP1 DUP2 MSTORE PUSH1 0x20 ADD PUSH1 0x0 KECCAK256 SWAP1 DUP1 MLOAD SWAP1 PUSH1 0x20 ADD SWAP1 PUSH2 0x1AD2 SWAP3 SWAP2 SWAP1 PUSH2 0x3C0D JUMP JUMPDEST POP DUP2 PUSH32 0x6BB7FF708619BA0610CBA295A58592E0451DEE2622938C8755667688DAF3529B DUP3 PUSH1 0x40 MLOAD PUSH2 0x1B03 SWAP2 SWAP1 PUSH2 0x4BF5 JUMP JUMPDEST PUSH1 0x40 MLOAD DUP1 SWAP2 SUB SWAP1 LOG2 POP POP JUMP JUMPDEST PUSH1 0x0 PUSH2 0x1B19 PUSH2 0x20C9 JUMP JUMPDEST PUSH20 0xFFFFFFFFFFFFFFFFFFFFFFFFFFFFFFFFFFFFFFFF AND PUSH2 0x1B37 PUSH2 0x1B93 JUMP JUMPDEST PUSH20 0xFFFFFFFFFFFFFFFFFFFFFFFFFFFFFFFFFFFFFFFF AND EQ PUSH2 0x1B8D JUMPI PUSH1 0x40 MLOAD PUSH32 0x8C379A000000000000000000000000000000000000000000000000000000000 DUP2 MSTORE PUSH1 0x4 ADD PUSH2 0x1B84 SWAP1 PUSH2 0x4F69 JUMP JUMPDEST PUSH1 0x40 MLOAD DUP1 SWAP2 SUB SWAP1 REVERT JUMPDEST SELFBALANCE SWAP1 POP SWAP1 JUMP JUMPDEST PUSH1 0x0 PUSH1 0x3 PUSH1 0x0 SWAP1 SLOAD SWAP1 PUSH2 0x100 EXP SWAP1 DIV PUSH20 0xFFFFFFFFFFFFFFFFFFFFFFFFFFFFFFFFFFFFFFFF AND SWAP1 POP SWAP1 JUMP JUMPDEST PUSH1 0xB PUSH1 0x20 MSTORE DUP1 PUSH1 0x0 MSTORE PUSH1 0x40 PUSH1 0x0 KECCAK256 PUSH1 0x0 SWAP2 POP SWAP1 POP SLOAD DUP2 JUMP JUMPDEST PUSH2 0x1BE7 PUSH2 0x1BE0 PUSH2 0x20C9 JUMP JUMPDEST DUP4 DUP4 PUSH2 0x2C55 JUMP JUMPDEST POP POP JUMP JUMPDEST PUSH1 0x0 PUSH1 0x9 PUSH1 0x1 DUP4 PUSH2 0x1BFC SWAP2 SWAP1 PUSH2 0x5233 JUMP JUMPDEST DUP2 SLOAD DUP2 LT PUSH2 0x1C0D JUMPI PUSH2 0x1C0C PUSH2 0x5439 JUMP JUMPDEST JUMPDEST SWAP1 PUSH1 0x0 MSTORE PUSH1 0x20 PUSH1 0x0 KECCAK256 ADD SLOAD SWAP1 POP SWAP2 SWAP1 POP JUMP JUMPDEST PUSH2 0x1C2A CALLER DUP4 DUP4 PUSH2 0x2DC2 JUMP JUMPDEST POP POP JUMP JUMPDEST PUSH1 0x0 PUSH1 0x4 PUSH1 0x0 DUP4 DUP2 MSTORE PUSH1 0x20 ADD SWAP1 DUP2 MSTORE PUSH1 0x20 ADD PUSH1 0x0 KECCAK256 SLOAD SWAP1 POP SWAP2 SWAP1 POP JUMP JUMPDEST PUSH1 0xA PUSH1 0x20 MSTORE DUP1 PUSH1 0x0 MSTORE PUSH1 0x40 PUSH1 0x0 KECCAK256 PUSH1 0x0 SWAP2 POP SWAP1 POP DUP1 SLOAD PUSH2 0x1C6A SWAP1 PUSH2 0x532F JUMP JUMPDEST DUP1 PUSH1 0x1F ADD PUSH1 0x20 DUP1 SWAP2 DIV MUL PUSH1 0x20 ADD PUSH1 0x40 MLOAD SWAP1 DUP2 ADD PUSH1 0x40 MSTORE DUP1 SWAP3 SWAP2 SWAP1 DUP2 DUP2 MSTORE PUSH1 0x20 ADD DUP3 DUP1 SLOAD PUSH2 0x1C96 SWAP1 PUSH2 0x532F JUMP JUMPDEST DUP1 ISZERO PUSH2 0x1CE3 JUMPI DUP1 PUSH1 0x1F LT PUSH2 0x1CB8 JUMPI PUSH2 0x100 DUP1 DUP4 SLOAD DIV MUL DUP4 MSTORE SWAP2 PUSH1 0x20 ADD SWAP2 PUSH2 0x1CE3 JUMP JUMPDEST DUP3 ADD SWAP2 SWAP1 PUSH1 0x0 MSTORE PUSH1 0x20 PUSH1 0x0 KECCAK256 SWAP1 JUMPDEST DUP2 SLOAD DUP2 MSTORE SWAP1 PUSH1 0x1 ADD SWAP1 PUSH1 0x20 ADD DUP1 DUP4 GT PUSH2 0x1CC6 JUMPI DUP3 SWAP1 SUB PUSH1 0x1F AND DUP3 ADD SWAP2 JUMPDEST POP POP POP POP POP DUP2 JUMP JUMPDEST PUSH2 0x1CF3 PUSH2 0x20C9 JUMP JUMPDEST PUSH20 0xFFFFFFFFFFFFFFFFFFFFFFFFFFFFFFFFFFFFFFFF AND PUSH2 0x1D11 PUSH2 0x1B93 JUMP JUMPDEST PUSH20 0xFFFFFFFFFFFFFFFFFFFFFFFFFFFFFFFFFFFFFFFF AND EQ PUSH2 0x1D67 JUMPI PUSH1 0x40 MLOAD PUSH32 0x8C379A000000000000000000000000000000000000000000000000000000000 DUP2 MSTORE PUSH1 0x4 ADD PUSH2 0x1D5E SWAP1 PUSH2 0x4F69 JUMP JUMPDEST PUSH1 0x40 MLOAD DUP1 SWAP2 SUB SWAP1 REVERT JUMPDEST PUSH2 0x1D82 DUP4 DUP4 DUP4 PUSH1 0x40 MLOAD DUP1 PUSH1 0x20 ADD PUSH1 0x40 MSTORE DUP1 PUSH1 0x0 DUP2 MSTORE POP PUSH2 0x2738 JUMP JUMPDEST POP POP POP JUMP JUMPDEST PUSH1 0x0 PUSH1 0x1 PUSH1 0x0 DUP5 PUSH20 0xFFFFFFFFFFFFFFFFFFFFFFFFFFFFFFFFFFFFFFFF AND PUSH20 0xFFFFFFFFFFFFFFFFFFFFFFFFFFFFFFFFFFFFFFFF AND DUP2 MSTORE PUSH1 0x20 ADD SWAP1 DUP2 MSTORE PUSH1 0x20 ADD PUSH1 0x0 KECCAK256 PUSH1 0x0 DUP4 PUSH20 0xFFFFFFFFFFFFFFFFFFFFFFFFFFFFFFFFFFFFFFFF AND PUSH20 0xFFFFFFFFFFFFFFFFFFFFFFFFFFFFFFFFFFFFFFFF AND DUP2 MSTORE PUSH1 0x20 ADD SWAP1 DUP2 MSTORE PUSH1 0x20 ADD PUSH1 0x0 KECCAK256 PUSH1 0x0 SWAP1 SLOAD SWAP1 PUSH2 0x100 EXP SWAP1 DIV PUSH1 0xFF AND SWAP1 POP SWAP3 SWAP2 POP POP JUMP JUMPDEST PUSH2 0x1E23 PUSH2 0x20C9 JUMP JUMPDEST PUSH20 0xFFFFFFFFFFFFFFFFFFFFFFFFFFFFFFFFFFFFFFFF AND DUP6 PUSH20 0xFFFFFFFFFFFFFFFFFFFFFFFFFFFFFFFFFFFFFFFF AND EQ DUP1 PUSH2 0x1E69 JUMPI POP PUSH2 0x1E68 DUP6 PUSH2 0x1E63 PUSH2 0x20C9 JUMP JUMPDEST PUSH2 0x1D87 JUMP JUMPDEST JUMPDEST PUSH2 0x1EA8 JUMPI PUSH1 0x40 MLOAD PUSH32 0x8C379A000000000000000000000000000000000000000000000000000000000 DUP2 MSTORE PUSH1 0x4 ADD PUSH2 0x1E9F SWAP1 PUSH2 0x4E3F JUMP JUMPDEST PUSH1 0x40 MLOAD DUP1 SWAP2 SUB SWAP1 REVERT JUMPDEST PUSH2 0x1EB5 DUP6 DUP6 DUP6 DUP6 DUP6 PUSH2 0x2FDF JUMP JUMPDEST POP POP POP POP POP JUMP JUMPDEST PUSH2 0x1EC6 DUP3 DUP3 PUSH2 0x3261 JUMP JUMPDEST POP POP JUMP JUMPDEST PUSH2 0x1ED2 PUSH2 0x20C9 JUMP JUMPDEST PUSH20 0xFFFFFFFFFFFFFFFFFFFFFFFFFFFFFFFFFFFFFFFF AND PUSH2 0x1EF0 PUSH2 0x1B93 JUMP JUMPDEST PUSH20 0xFFFFFFFFFFFFFFFFFFFFFFFFFFFFFFFFFFFFFFFF AND EQ PUSH2 0x1F46 JUMPI PUSH1 0x40 MLOAD PUSH32 0x8C379A000000000000000000000000000000000000000000000000000000000 DUP2 MSTORE PUSH1 0x4 ADD PUSH2 0x1F3D SWAP1 PUSH2 0x4F69 JUMP JUMPDEST PUSH1 0x40 MLOAD DUP1 SWAP2 SUB SWAP1 REVERT JUMPDEST PUSH1 0x0 PUSH20 0xFFFFFFFFFFFFFFFFFFFFFFFFFFFFFFFFFFFFFFFF AND DUP2 PUSH20 0xFFFFFFFFFFFFFFFFFFFFFFFFFFFFFFFFFFFFFFFF AND EQ ISZERO PUSH2 0x1FB6 JUMPI PUSH1 0x40 MLOAD PUSH32 0x8C379A000000000000000000000000000000000000000000000000000000000 DUP2 MSTORE PUSH1 0x4 ADD PUSH2 0x1FAD SWAP1 PUSH2 0x4D6B JUMP JUMPDEST PUSH1 0x40 MLOAD DUP1 SWAP2 SUB SWAP1 REVERT JUMPDEST PUSH2 0x1FBF DUP2 PUSH2 0x2AEC JUMP JUMPDEST POP JUMP JUMPDEST PUSH2 0x1FCA PUSH2 0x20C9 JUMP JUMPDEST PUSH20 0xFFFFFFFFFFFFFFFFFFFFFFFFFFFFFFFFFFFFFFFF AND DUP4 PUSH20 0xFFFFFFFFFFFFFFFFFFFFFFFFFFFFFFFFFFFFFFFF AND EQ DUP1 PUSH2 0x2010 JUMPI POP PUSH2 0x200F DUP4 PUSH2 0x200A PUSH2 0x20C9 JUMP JUMPDEST PUSH2 0x1D87 JUMP JUMPDEST JUMPDEST PUSH2 0x204F JUMPI PUSH1 0x40 MLOAD PUSH32 0x8C379A000000000000000000000000000000000000000000000000000000000 DUP2 MSTORE PUSH1 0x4 ADD PUSH2 0x2046 SWAP1 PUSH2 0x4E3F JUMP JUMPDEST PUSH1 0x40 MLOAD DUP1 SWAP2 SUB SWAP1 REVERT JUMPDEST PUSH2 0x205A DUP4 DUP4 DUP4 PUSH2 0x2DC2 JUMP JUMPDEST POP POP POP JUMP JUMPDEST PUSH1 0x0 PUSH32 0x1FFC9A700000000000000000000000000000000000000000000000000000000 PUSH28 0xFFFFFFFFFFFFFFFFFFFFFFFFFFFFFFFFFFFFFFFFFFFFFFFFFFFFFFFF NOT AND DUP3 PUSH28 0xFFFFFFFFFFFFFFFFFFFFFFFFFFFFFFFFFFFFFFFFFFFFFFFFFFFFFFFF NOT AND EQ SWAP1 POP SWAP2 SWAP1 POP JUMP JUMPDEST PUSH1 0x0 CALLER SWAP1 POP SWAP1 JUMP JUMPDEST DUP2 MLOAD DUP4 MLOAD EQ PUSH2 0x2115 JUMPI PUSH1 0x40 MLOAD PUSH32 0x8C379A000000000000000000000000000000000000000000000000000000000 DUP2 MSTORE PUSH1 0x4 ADD PUSH2 0x210C SWAP1 PUSH2 0x5009 JUMP JUMPDEST PUSH1 0x40 MLOAD DUP1 SWAP2 SUB SWAP1 REVERT JUMPDEST PUSH1 0x0 PUSH20 0xFFFFFFFFFFFFFFFFFFFFFFFFFFFFFFFFFFFFFFFF AND DUP5 PUSH20 0xFFFFFFFFFFFFFFFFFFFFFFFFFFFFFFFFFFFFFFFF AND EQ ISZERO PUSH2 0x2185 JUMPI PUSH1 0x40 MLOAD PUSH32 0x8C379A000000000000000000000000000000000000000000000000000000000 DUP2 MSTORE PUSH1 0x4 ADD PUSH2 0x217C SWAP1 PUSH2 0x4E9F JUMP JUMPDEST PUSH1 0x40 MLOAD DUP1 SWAP2 SUB SWAP1 REVERT JUMPDEST PUSH1 0x0 PUSH2 0x218F PUSH2 0x20C9 JUMP JUMPDEST SWAP1 POP PUSH2 0x219F DUP2 DUP8 DUP8 DUP8 DUP8 DUP8 PUSH2 0x35C2 JUMP JUMPDEST PUSH1 0x0 JUMPDEST DUP5 MLOAD DUP2 LT ISZERO PUSH2 0x2350 JUMPI PUSH1 0x0 DUP6 DUP3 DUP2 MLOAD DUP2 LT PUSH2 0x21C0 JUMPI PUSH2 0x21BF PUSH2 0x5439 JUMP JUMPDEST JUMPDEST PUSH1 0x20 MUL PUSH1 0x20 ADD ADD MLOAD SWAP1 POP PUSH1 0x0 DUP6 DUP4 DUP2 MLOAD DUP2 LT PUSH2 0x21DF JUMPI PUSH2 0x21DE PUSH2 0x5439 JUMP JUMPDEST JUMPDEST PUSH1 0x20 MUL PUSH1 0x20 ADD ADD MLOAD SWAP1 POP PUSH1 0x0 DUP1 PUSH1 0x0 DUP5 DUP2 MSTORE PUSH1 0x20 ADD SWAP1 DUP2 MSTORE PUSH1 0x20 ADD PUSH1 0x0 KECCAK256 PUSH1 0x0 DUP12 PUSH20 0xFFFFFFFFFFFFFFFFFFFFFFFFFFFFFFFFFFFFFFFF AND PUSH20 0xFFFFFFFFFFFFFFFFFFFFFFFFFFFFFFFFFFFFFFFF AND DUP2 MSTORE PUSH1 0x20 ADD SWAP1 DUP2 MSTORE PUSH1 0x20 ADD PUSH1 0x0 KECCAK256 SLOAD SWAP1 POP DUP2 DUP2 LT ISZERO PUSH2 0x2280 JUMPI PUSH1 0x40 MLOAD PUSH32 0x8C379A000000000000000000000000000000000000000000000000000000000 DUP2 MSTORE PUSH1 0x4 ADD PUSH2 0x2277 SWAP1 PUSH2 0x4EFF JUMP JUMPDEST PUSH1 0x40 MLOAD DUP1 SWAP2 SUB SWAP1 REVERT JUMPDEST DUP2 DUP2 SUB PUSH1 0x0 DUP1 DUP6 DUP2 MSTORE PUSH1 0x20 ADD SWAP1 DUP2 MSTORE PUSH1 0x20 ADD PUSH1 0x0 KECCAK256 PUSH1 0x0 DUP13 PUSH20 0xFFFFFFFFFFFFFFFFFFFFFFFFFFFFFFFFFFFFFFFF AND PUSH20 0xFFFFFFFFFFFFFFFFFFFFFFFFFFFFFFFFFFFFFFFF AND DUP2 MSTORE PUSH1 0x20 ADD SWAP1 DUP2 MSTORE PUSH1 0x20 ADD PUSH1 0x0 KECCAK256 DUP2 SWAP1 SSTORE POP DUP2 PUSH1 0x0 DUP1 DUP6 DUP2 MSTORE PUSH1 0x20 ADD SWAP1 DUP2 MSTORE PUSH1 0x20 ADD PUSH1 0x0 KECCAK256 PUSH1 0x0 DUP12 PUSH20 0xFFFFFFFFFFFFFFFFFFFFFFFFFFFFFFFFFFFFFFFF AND PUSH20 0xFFFFFFFFFFFFFFFFFFFFFFFFFFFFFFFFFFFFFFFF AND DUP2 MSTORE PUSH1 0x20 ADD SWAP1 DUP2 MSTORE PUSH1 0x20 ADD PUSH1 0x0 KECCAK256 PUSH1 0x0 DUP3 DUP3 SLOAD PUSH2 0x2335 SWAP2 SWAP1 PUSH2 0x51DD JUMP JUMPDEST SWAP3 POP POP DUP2 SWAP1 SSTORE POP POP POP POP DUP1 PUSH2 0x2349 SWAP1 PUSH2 0x5392 JUMP JUMPDEST SWAP1 POP PUSH2 0x21A2 JUMP JUMPDEST POP DUP5 PUSH20 0xFFFFFFFFFFFFFFFFFFFFFFFFFFFFFFFFFFFFFFFF AND DUP7 PUSH20 0xFFFFFFFFFFFFFFFFFFFFFFFFFFFFFFFFFFFFFFFF AND DUP3 PUSH20 0xFFFFFFFFFFFFFFFFFFFFFFFFFFFFFFFFFFFFFFFF AND PUSH32 0x4A39DC06D4C0DBC64B70AF90FD698A233A518AA5D07E595D983B8C0526C8F7FB DUP8 DUP8 PUSH1 0x40 MLOAD PUSH2 0x23C7 SWAP3 SWAP2 SWAP1 PUSH2 0x4BA3 JUMP JUMPDEST PUSH1 0x40 MLOAD DUP1 SWAP2 SUB SWAP1 LOG4 PUSH2 0x23DD DUP2 DUP8 DUP8 DUP8 DUP8 DUP8 PUSH2 0x3620 JUMP JUMPDEST POP POP POP POP POP POP JUMP JUMPDEST PUSH2 0x23ED PUSH2 0xDE1 JUMP JUMPDEST PUSH2 0x242C JUMPI PUSH1 0x40 MLOAD PUSH32 0x8C379A000000000000000000000000000000000000000000000000000000000 DUP2 MSTORE PUSH1 0x4 ADD PUSH2 0x2423 SWAP1 PUSH2 0x4CC1 JUMP JUMPDEST PUSH1 0x40 MLOAD DUP1 SWAP2 SUB SWAP1 REVERT JUMPDEST PUSH1 0x0 PUSH1 0x3 PUSH1 0x14 PUSH2 0x100 EXP DUP2 SLOAD DUP2 PUSH1 0xFF MUL NOT AND SWAP1 DUP4 ISZERO ISZERO MUL OR SWAP1 SSTORE POP PUSH32 0x5DB9EE0A495BF2E6FF9C91A7834C1BA4FDD244A5E8AA4E537BD38AEAE4B073AA PUSH2 0x2470 PUSH2 0x20C9 JUMP JUMPDEST PUSH1 0x40 MLOAD PUSH2 0x247D SWAP2 SWAP1 PUSH2 0x4AA4 JUMP JUMPDEST PUSH1 0x40 MLOAD DUP1 SWAP2 SUB SWAP1 LOG1 JUMP JUMPDEST PUSH1 0x0 PUSH20 0xFFFFFFFFFFFFFFFFFFFFFFFFFFFFFFFFFFFFFFFF AND DUP4 PUSH20 0xFFFFFFFFFFFFFFFFFFFFFFFFFFFFFFFFFFFFFFFF AND EQ ISZERO PUSH2 0x24F7 JUMPI PUSH1 0x40 MLOAD PUSH32 0x8C379A000000000000000000000000000000000000000000000000000000000 DUP2 MSTORE PUSH1 0x4 ADD PUSH2 0x24EE SWAP1 PUSH2 0x4EDF JUMP JUMPDEST PUSH1 0x40 MLOAD DUP1 SWAP2 SUB SWAP1 REVERT JUMPDEST DUP1 MLOAD DUP3 MLOAD EQ PUSH2 0x253B JUMPI PUSH1 0x40 MLOAD PUSH32 0x8C379A000000000000000000000000000000000000000000000000000000000 DUP2 MSTORE PUSH1 0x4 ADD PUSH2 0x2532 SWAP1 PUSH2 0x5009 JUMP JUMPDEST PUSH1 0x40 MLOAD DUP1 SWAP2 SUB SWAP1 REVERT JUMPDEST PUSH1 0x0 PUSH2 0x2545 PUSH2 0x20C9 JUMP JUMPDEST SWAP1 POP PUSH2 0x2565 DUP2 DUP6 PUSH1 0x0 DUP7 DUP7 PUSH1 0x40 MLOAD DUP1 PUSH1 0x20 ADD PUSH1 0x40 MSTORE DUP1 PUSH1 0x0 DUP2 MSTORE POP PUSH2 0x35C2 JUMP JUMPDEST PUSH1 0x0 JUMPDEST DUP4 MLOAD DUP2 LT ISZERO PUSH2 0x26B2 JUMPI PUSH1 0x0 DUP5 DUP3 DUP2 MLOAD DUP2 LT PUSH2 0x2586 JUMPI PUSH2 0x2585 PUSH2 0x5439 JUMP JUMPDEST JUMPDEST PUSH1 0x20 MUL PUSH1 0x20 ADD ADD MLOAD SWAP1 POP PUSH1 0x0 DUP5 DUP4 DUP2 MLOAD DUP2 LT PUSH2 0x25A5 JUMPI PUSH2 0x25A4 PUSH2 0x5439 JUMP JUMPDEST JUMPDEST PUSH1 0x20 MUL PUSH1 0x20 ADD ADD MLOAD SWAP1 POP PUSH1 0x0 DUP1 PUSH1 0x0 DUP5 DUP2 MSTORE PUSH1 0x20 ADD SWAP1 DUP2 MSTORE PUSH1 0x20 ADD PUSH1 0x0 KECCAK256 PUSH1 0x0 DUP10 PUSH20 0xFFFFFFFFFFFFFFFFFFFFFFFFFFFFFFFFFFFFFFFF AND PUSH20 0xFFFFFFFFFFFFFFFFFFFFFFFFFFFFFFFFFFFFFFFF AND DUP2 MSTORE PUSH1 0x20 ADD SWAP1 DUP2 MSTORE PUSH1 0x20 ADD PUSH1 0x0 KECCAK256 SLOAD SWAP1 POP DUP2 DUP2 LT ISZERO PUSH2 0x2646 JUMPI PUSH1 0x40 MLOAD PUSH32 0x8C379A000000000000000000000000000000000000000000000000000000000 DUP2 MSTORE PUSH1 0x4 ADD PUSH2 0x263D SWAP1 PUSH2 0x4DD5 JUMP JUMPDEST PUSH1 0x40 MLOAD DUP1 SWAP2 SUB SWAP1 REVERT JUMPDEST DUP2 DUP2 SUB PUSH1 0x0 DUP1 DUP6 DUP2 MSTORE PUSH1 0x20 ADD SWAP1 DUP2 MSTORE PUSH1 0x20 ADD PUSH1 0x0 KECCAK256 PUSH1 0x0 DUP11 PUSH20 0xFFFFFFFFFFFFFFFFFFFFFFFFFFFFFFFFFFFFFFFF AND PUSH20 0xFFFFFFFFFFFFFFFFFFFFFFFFFFFFFFFFFFFFFFFF AND DUP2 MSTORE PUSH1 0x20 ADD SWAP1 DUP2 MSTORE PUSH1 0x20 ADD PUSH1 0x0 KECCAK256 DUP2 SWAP1 SSTORE POP POP POP POP DUP1 DUP1 PUSH2 0x26AA SWAP1 PUSH2 0x5392 JUMP JUMPDEST SWAP2 POP POP PUSH2 0x2568 JUMP JUMPDEST POP PUSH1 0x0 PUSH20 0xFFFFFFFFFFFFFFFFFFFFFFFFFFFFFFFFFFFFFFFF AND DUP5 PUSH20 0xFFFFFFFFFFFFFFFFFFFFFFFFFFFFFFFFFFFFFFFF AND DUP3 PUSH20 0xFFFFFFFFFFFFFFFFFFFFFFFFFFFFFFFFFFFFFFFF AND PUSH32 0x4A39DC06D4C0DBC64B70AF90FD698A233A518AA5D07E595D983B8C0526C8F7FB DUP7 DUP7 PUSH1 0x40 MLOAD PUSH2 0x272A SWAP3 SWAP2 SWAP1 PUSH2 0x4BA3 JUMP JUMPDEST PUSH1 0x40 MLOAD DUP1 SWAP2 SUB SWAP1 LOG4 POP POP POP POP JUMP JUMPDEST PUSH1 0x0 PUSH20 0xFFFFFFFFFFFFFFFFFFFFFFFFFFFFFFFFFFFFFFFF AND DUP5 PUSH20 0xFFFFFFFFFFFFFFFFFFFFFFFFFFFFFFFFFFFFFFFF AND EQ ISZERO PUSH2 0x27A8 JUMPI PUSH1 0x40 MLOAD PUSH32 0x8C379A000000000000000000000000000000000000000000000000000000000 DUP2 MSTORE PUSH1 0x4 ADD PUSH2 0x279F SWAP1 PUSH2 0x5029 JUMP JUMPDEST PUSH1 0x40 MLOAD DUP1 SWAP2 SUB SWAP1 REVERT JUMPDEST DUP2 MLOAD DUP4 MLOAD EQ PUSH2 0x27EC JUMPI PUSH1 0x40 MLOAD PUSH32 0x8C379A000000000000000000000000000000000000000000000000000000000 DUP2 MSTORE PUSH1 0x4 ADD PUSH2 0x27E3 SWAP1 PUSH2 0x5009 JUMP JUMPDEST PUSH1 0x40 MLOAD DUP1 SWAP2 SUB SWAP1 REVERT JUMPDEST PUSH1 0x0 PUSH2 0x27F6 PUSH2 0x20C9 JUMP JUMPDEST SWAP1 POP PUSH2 0x2807 DUP2 PUSH1 0x0 DUP8 DUP8 DUP8 DUP8 PUSH2 0x35C2 JUMP JUMPDEST PUSH1 0x0 JUMPDEST DUP5 MLOAD DUP2 LT ISZERO PUSH2 0x28C0 JUMPI DUP4 DUP2 DUP2 MLOAD DUP2 LT PUSH2 0x2826 JUMPI PUSH2 0x2825 PUSH2 0x5439 JUMP JUMPDEST JUMPDEST PUSH1 0x20 MUL PUSH1 0x20 ADD ADD MLOAD PUSH1 0x0 DUP1 DUP8 DUP5 DUP2 MLOAD DUP2 LT PUSH2 0x2844 JUMPI PUSH2 0x2843 PUSH2 0x5439 JUMP JUMPDEST JUMPDEST PUSH1 0x20 MUL PUSH1 0x20 ADD ADD MLOAD DUP2 MSTORE PUSH1 0x20 ADD SWAP1 DUP2 MSTORE PUSH1 0x20 ADD PUSH1 0x0 KECCAK256 PUSH1 0x0 DUP9 PUSH20 0xFFFFFFFFFFFFFFFFFFFFFFFFFFFFFFFFFFFFFFFF AND PUSH20 0xFFFFFFFFFFFFFFFFFFFFFFFFFFFFFFFFFFFFFFFF AND DUP2 MSTORE PUSH1 0x20 ADD SWAP1 DUP2 MSTORE PUSH1 0x20 ADD PUSH1 0x0 KECCAK256 PUSH1 0x0 DUP3 DUP3 SLOAD PUSH2 0x28A6 SWAP2 SWAP1 PUSH2 0x51DD JUMP JUMPDEST SWAP3 POP POP DUP2 SWAP1 SSTORE POP DUP1 DUP1 PUSH2 0x28B8 SWAP1 PUSH2 0x5392 JUMP JUMPDEST SWAP2 POP POP PUSH2 0x280A JUMP JUMPDEST POP DUP5 PUSH20 0xFFFFFFFFFFFFFFFFFFFFFFFFFFFFFFFFFFFFFFFF AND PUSH1 0x0 PUSH20 0xFFFFFFFFFFFFFFFFFFFFFFFFFFFFFFFFFFFFFFFF AND DUP3 PUSH20 0xFFFFFFFFFFFFFFFFFFFFFFFFFFFFFFFFFFFFFFFF AND PUSH32 0x4A39DC06D4C0DBC64B70AF90FD698A233A518AA5D07E595D983B8C0526C8F7FB DUP8 DUP8 PUSH1 0x40 MLOAD PUSH2 0x2938 SWAP3 SWAP2 SWAP1 PUSH2 0x4BA3 JUMP JUMPDEST PUSH1 0x40 MLOAD DUP1 SWAP2 SUB SWAP1 LOG4 PUSH2 0x294F DUP2 PUSH1 0x0 DUP8 DUP8 DUP8 DUP8 PUSH2 0x3620 JUMP JUMPDEST POP POP POP POP POP JUMP JUMPDEST PUSH1 0x0 PUSH20 0xFFFFFFFFFFFFFFFFFFFFFFFFFFFFFFFFFFFFFFFF AND DUP5 PUSH20 0xFFFFFFFFFFFFFFFFFFFFFFFFFFFFFFFFFFFFFFFF AND EQ ISZERO PUSH2 0x29C6 JUMPI PUSH1 0x40 MLOAD PUSH32 0x8C379A000000000000000000000000000000000000000000000000000000000 DUP2 MSTORE PUSH1 0x4 ADD PUSH2 0x29BD SWAP1 PUSH2 0x5029 JUMP JUMPDEST PUSH1 0x40 MLOAD DUP1 SWAP2 SUB SWAP1 REVERT JUMPDEST PUSH1 0x0 PUSH2 0x29D0 PUSH2 0x20C9 JUMP JUMPDEST SWAP1 POP PUSH2 0x29F1 DUP2 PUSH1 0x0 DUP8 PUSH2 0x29E2 DUP9 PUSH2 0x3807 JUMP JUMPDEST PUSH2 0x29EB DUP9 PUSH2 0x3807 JUMP JUMPDEST DUP8 PUSH2 0x35C2 JUMP JUMPDEST DUP3 PUSH1 0x0 DUP1 DUP7 DUP2 MSTORE PUSH1 0x20 ADD SWAP1 DUP2 MSTORE PUSH1 0x20 ADD PUSH1 0x0 KECCAK256 PUSH1 0x0 DUP8 PUSH20 0xFFFFFFFFFFFFFFFFFFFFFFFFFFFFFFFFFFFFFFFF AND PUSH20 0xFFFFFFFFFFFFFFFFFFFFFFFFFFFFFFFFFFFFFFFF AND DUP2 MSTORE PUSH1 0x20 ADD SWAP1 DUP2 MSTORE PUSH1 0x20 ADD PUSH1 0x0 KECCAK256 PUSH1 0x0 DUP3 DUP3 SLOAD PUSH2 0x2A50 SWAP2 SWAP1 PUSH2 0x51DD JUMP JUMPDEST SWAP3 POP POP DUP2 SWAP1 SSTORE POP DUP5 PUSH20 0xFFFFFFFFFFFFFFFFFFFFFFFFFFFFFFFFFFFFFFFF AND PUSH1 0x0 PUSH20 0xFFFFFFFFFFFFFFFFFFFFFFFFFFFFFFFFFFFFFFFF AND DUP3 PUSH20 0xFFFFFFFFFFFFFFFFFFFFFFFFFFFFFFFFFFFFFFFF AND PUSH32 0xC3D58168C5AE7397731D063D5BBF3D657854427343F4C083240F7AACAA2D0F62 DUP8 DUP8 PUSH1 0x40 MLOAD PUSH2 0x2ACE SWAP3 SWAP2 SWAP1 PUSH2 0x5064 JUMP JUMPDEST PUSH1 0x40 MLOAD DUP1 SWAP2 SUB SWAP1 LOG4 PUSH2 0x2AE5 DUP2 PUSH1 0x0 DUP8 DUP8 DUP8 DUP8 PUSH2 0x3881 JUMP JUMPDEST POP POP POP POP POP JUMP JUMPDEST PUSH1 0x0 PUSH1 0x3 PUSH1 0x0 SWAP1 SLOAD SWAP1 PUSH2 0x100 EXP SWAP1 DIV PUSH20 0xFFFFFFFFFFFFFFFFFFFFFFFFFFFFFFFFFFFFFFFF AND SWAP1 POP DUP2 PUSH1 0x3 PUSH1 0x0 PUSH2 0x100 EXP DUP2 SLOAD DUP2 PUSH20 0xFFFFFFFFFFFFFFFFFFFFFFFFFFFFFFFFFFFFFFFF MUL NOT AND SWAP1 DUP4 PUSH20 0xFFFFFFFFFFFFFFFFFFFFFFFFFFFFFFFFFFFFFFFF AND MUL OR SWAP1 SSTORE POP DUP2 PUSH20 0xFFFFFFFFFFFFFFFFFFFFFFFFFFFFFFFFFFFFFFFF AND DUP2 PUSH20 0xFFFFFFFFFFFFFFFFFFFFFFFFFFFFFFFFFFFFFFFF AND PUSH32 0x8BE0079C531659141344CD1FD0A4F28419497F9722A3DAAFE3B4186F6B6457E0 PUSH1 0x40 MLOAD PUSH1 0x40 MLOAD DUP1 SWAP2 SUB SWAP1 LOG3 POP POP JUMP JUMPDEST PUSH2 0x2BBA PUSH2 0xDE1 JUMP JUMPDEST ISZERO PUSH2 0x2BFA JUMPI PUSH1 0x40 MLOAD PUSH32 0x8C379A000000000000000000000000000000000000000000000000000000000 DUP2 MSTORE PUSH1 0x4 ADD PUSH2 0x2BF1 SWAP1 PUSH2 0x4E7F JUMP JUMPDEST PUSH1 0x40 MLOAD DUP1 SWAP2 SUB SWAP1 REVERT JUMPDEST PUSH1 0x1 PUSH1 0x3 PUSH1 0x14 PUSH2 0x100 EXP DUP2 SLOAD DUP2 PUSH1 0xFF MUL NOT AND SWAP1 DUP4 ISZERO ISZERO MUL OR SWAP1 SSTORE POP PUSH32 0x62E78CEA01BEE320CD4E420270B5EA74000D11B0C9F74754EBDBFC544B05A258 PUSH2 0x2C3E PUSH2 0x20C9 JUMP JUMPDEST PUSH1 0x40 MLOAD PUSH2 0x2C4B SWAP2 SWAP1 PUSH2 0x4AA4 JUMP JUMPDEST PUSH1 0x40 MLOAD DUP1 SWAP2 SUB SWAP1 LOG1 JUMP JUMPDEST DUP2 PUSH20 0xFFFFFFFFFFFFFFFFFFFFFFFFFFFFFFFFFFFFFFFF AND DUP4 PUSH20 0xFFFFFFFFFFFFFFFFFFFFFFFFFFFFFFFFFFFFFFFF AND EQ ISZERO PUSH2 0x2CC4 JUMPI PUSH1 0x40 MLOAD PUSH32 0x8C379A000000000000000000000000000000000000000000000000000000000 DUP2 MSTORE PUSH1 0x4 ADD PUSH2 0x2CBB SWAP1 PUSH2 0x4FC9 JUMP JUMPDEST PUSH1 0x40 MLOAD DUP1 SWAP2 SUB SWAP1 REVERT JUMPDEST DUP1 PUSH1 0x1 PUSH1 0x0 DUP6 PUSH20 0xFFFFFFFFFFFFFFFFFFFFFFFFFFFFFFFFFFFFFFFF AND PUSH20 0xFFFFFFFFFFFFFFFFFFFFFFFFFFFFFFFFFFFFFFFF AND DUP2 MSTORE PUSH1 0x20 ADD SWAP1 DUP2 MSTORE PUSH1 0x20 ADD PUSH1 0x0 KECCAK256 PUSH1 0x0 DUP5 PUSH20 0xFFFFFFFFFFFFFFFFFFFFFFFFFFFFFFFFFFFFFFFF AND PUSH20 0xFFFFFFFFFFFFFFFFFFFFFFFFFFFFFFFFFFFFFFFF AND DUP2 MSTORE PUSH1 0x20 ADD SWAP1 DUP2 MSTORE PUSH1 0x20 ADD PUSH1 0x0 KECCAK256 PUSH1 0x0 PUSH2 0x100 EXP DUP2 SLOAD DUP2 PUSH1 0xFF MUL NOT AND SWAP1 DUP4 ISZERO ISZERO MUL OR SWAP1 SSTORE POP DUP2 PUSH20 0xFFFFFFFFFFFFFFFFFFFFFFFFFFFFFFFFFFFFFFFF AND DUP4 PUSH20 0xFFFFFFFFFFFFFFFFFFFFFFFFFFFFFFFFFFFFFFFF AND PUSH32 0x17307EAB39AB6107E8899845AD3D59BD9653F200F220920489CA2B5937696C31 DUP4 PUSH1 0x40 MLOAD PUSH2 0x2DB5 SWAP2 SWAP1 PUSH2 0x4BDA JUMP JUMPDEST PUSH1 0x40 MLOAD DUP1 SWAP2 SUB SWAP1 LOG3 POP POP POP JUMP JUMPDEST PUSH1 0x0 PUSH20 0xFFFFFFFFFFFFFFFFFFFFFFFFFFFFFFFFFFFFFFFF AND DUP4 PUSH20 0xFFFFFFFFFFFFFFFFFFFFFFFFFFFFFFFFFFFFFFFF AND EQ ISZERO PUSH2 0x2E32 JUMPI PUSH1 0x40 MLOAD PUSH32 0x8C379A000000000000000000000000000000000000000000000000000000000 DUP2 MSTORE PUSH1 0x4 ADD PUSH2 0x2E29 SWAP1 PUSH2 0x4EDF JUMP JUMPDEST PUSH1 0x40 MLOAD DUP1 SWAP2 SUB SWAP1 REVERT JUMPDEST PUSH1 0x0 PUSH2 0x2E3C PUSH2 0x20C9 JUMP JUMPDEST SWAP1 POP PUSH2 0x2E6C DUP2 DUP6 PUSH1 0x0 PUSH2 0x2E4E DUP8 PUSH2 0x3807 JUMP JUMPDEST PUSH2 0x2E57 DUP8 PUSH2 0x3807 JUMP JUMPDEST PUSH1 0x40 MLOAD DUP1 PUSH1 0x20 ADD PUSH1 0x40 MSTORE DUP1 PUSH1 0x0 DUP2 MSTORE POP PUSH2 0x35C2 JUMP JUMPDEST PUSH1 0x0 DUP1 PUSH1 0x0 DUP6 DUP2 MSTORE PUSH1 0x20 ADD SWAP1 DUP2 MSTORE PUSH1 0x20 ADD PUSH1 0x0 KECCAK256 PUSH1 0x0 DUP7 PUSH20 0xFFFFFFFFFFFFFFFFFFFFFFFFFFFFFFFFFFFFFFFF AND PUSH20 0xFFFFFFFFFFFFFFFFFFFFFFFFFFFFFFFFFFFFFFFF AND DUP2 MSTORE PUSH1 0x20 ADD SWAP1 DUP2 MSTORE PUSH1 0x20 ADD PUSH1 0x0 KECCAK256 SLOAD SWAP1 POP DUP3 DUP2 LT ISZERO PUSH2 0x2F03 JUMPI PUSH1 0x40 MLOAD PUSH32 0x8C379A000000000000000000000000000000000000000000000000000000000 DUP2 MSTORE PUSH1 0x4 ADD PUSH2 0x2EFA SWAP1 PUSH2 0x4DD5 JUMP JUMPDEST PUSH1 0x40 MLOAD DUP1 SWAP2 SUB SWAP1 REVERT JUMPDEST DUP3 DUP2 SUB PUSH1 0x0 DUP1 DUP7 DUP2 MSTORE PUSH1 0x20 ADD SWAP1 DUP2 MSTORE PUSH1 0x20 ADD PUSH1 0x0 KECCAK256 PUSH1 0x0 DUP8 PUSH20 0xFFFFFFFFFFFFFFFFFFFFFFFFFFFFFFFFFFFFFFFF AND PUSH20 0xFFFFFFFFFFFFFFFFFFFFFFFFFFFFFFFFFFFFFFFF AND DUP2 MSTORE PUSH1 0x20 ADD SWAP1 DUP2 MSTORE PUSH1 0x20 ADD PUSH1 0x0 KECCAK256 DUP2 SWAP1 SSTORE POP PUSH1 0x0 PUSH20 0xFFFFFFFFFFFFFFFFFFFFFFFFFFFFFFFFFFFFFFFF AND DUP6 PUSH20 0xFFFFFFFFFFFFFFFFFFFFFFFFFFFFFFFFFFFFFFFF AND DUP4 PUSH20 0xFFFFFFFFFFFFFFFFFFFFFFFFFFFFFFFFFFFFFFFF AND PUSH32 0xC3D58168C5AE7397731D063D5BBF3D657854427343F4C083240F7AACAA2D0F62 DUP8 DUP8 PUSH1 0x40 MLOAD PUSH2 0x2FD0 SWAP3 SWAP2 SWAP1 PUSH2 0x5064 JUMP JUMPDEST PUSH1 0x40 MLOAD DUP1 SWAP2 SUB SWAP1 LOG4 POP POP POP POP POP JUMP JUMPDEST PUSH1 0x0 PUSH20 0xFFFFFFFFFFFFFFFFFFFFFFFFFFFFFFFFFFFFFFFF AND DUP5 PUSH20 0xFFFFFFFFFFFFFFFFFFFFFFFFFFFFFFFFFFFFFFFF AND EQ ISZERO PUSH2 0x304F JUMPI PUSH1 0x40 MLOAD PUSH32 0x8C379A000000000000000000000000000000000000000000000000000000000 DUP2 MSTORE PUSH1 0x4 ADD PUSH2 0x3046 SWAP1 PUSH2 0x4E9F JUMP JUMPDEST PUSH1 0x40 MLOAD DUP1 SWAP2 SUB SWAP1 REVERT JUMPDEST PUSH1 0x0 PUSH2 0x3059 PUSH2 0x20C9 JUMP JUMPDEST SWAP1 POP PUSH2 0x3079 DUP2 DUP8 DUP8 PUSH2 0x306A DUP9 PUSH2 0x3807 JUMP JUMPDEST PUSH2 0x3073 DUP9 PUSH2 0x3807 JUMP JUMPDEST DUP8 PUSH2 0x35C2 JUMP JUMPDEST PUSH1 0x0 DUP1 PUSH1 0x0 DUP7 DUP2 MSTORE PUSH1 0x20 ADD SWAP1 DUP2 MSTORE PUSH1 0x20 ADD PUSH1 0x0 KECCAK256 PUSH1 0x0 DUP9 PUSH20 0xFFFFFFFFFFFFFFFFFFFFFFFFFFFFFFFFFFFFFFFF AND PUSH20 0xFFFFFFFFFFFFFFFFFFFFFFFFFFFFFFFFFFFFFFFF AND DUP2 MSTORE PUSH1 0x20 ADD SWAP1 DUP2 MSTORE PUSH1 0x20 ADD PUSH1 0x0 KECCAK256 SLOAD SWAP1 POP DUP4 DUP2 LT ISZERO PUSH2 0x3110 JUMPI PUSH1 0x40 MLOAD PUSH32 0x8C379A000000000000000000000000000000000000000000000000000000000 DUP2 MSTORE PUSH1 0x4 ADD PUSH2 0x3107 SWAP1 PUSH2 0x4EFF JUMP JUMPDEST PUSH1 0x40 MLOAD DUP1 SWAP2 SUB SWAP1 REVERT JUMPDEST DUP4 DUP2 SUB PUSH1 0x0 DUP1 DUP8 DUP2 MSTORE PUSH1 0x20 ADD SWAP1 DUP2 MSTORE PUSH1 0x20 ADD PUSH1 0x0 KECCAK256 PUSH1 0x0 DUP10 PUSH20 0xFFFFFFFFFFFFFFFFFFFFFFFFFFFFFFFFFFFFFFFF AND PUSH20 0xFFFFFFFFFFFFFFFFFFFFFFFFFFFFFFFFFFFFFFFF AND DUP2 MSTORE PUSH1 0x20 ADD SWAP1 DUP2 MSTORE PUSH1 0x20 ADD PUSH1 0x0 KECCAK256 DUP2 SWAP1 SSTORE POP DUP4 PUSH1 0x0 DUP1 DUP8 DUP2 MSTORE PUSH1 0x20 ADD SWAP1 DUP2 MSTORE PUSH1 0x20 ADD PUSH1 0x0 KECCAK256 PUSH1 0x0 DUP9 PUSH20 0xFFFFFFFFFFFFFFFFFFFFFFFFFFFFFFFFFFFFFFFF AND PUSH20 0xFFFFFFFFFFFFFFFFFFFFFFFFFFFFFFFFFFFFFFFF AND DUP2 MSTORE PUSH1 0x20 ADD SWAP1 DUP2 MSTORE PUSH1 0x20 ADD PUSH1 0x0 KECCAK256 PUSH1 0x0 DUP3 DUP3 SLOAD PUSH2 0x31C5 SWAP2 SWAP1 PUSH2 0x51DD JUMP JUMPDEST SWAP3 POP POP DUP2 SWAP1 SSTORE POP DUP6 PUSH20 0xFFFFFFFFFFFFFFFFFFFFFFFFFFFFFFFFFFFFFFFF AND DUP8 PUSH20 0xFFFFFFFFFFFFFFFFFFFFFFFFFFFFFFFFFFFFFFFF AND DUP4 PUSH20 0xFFFFFFFFFFFFFFFFFFFFFFFFFFFFFFFFFFFFFFFF AND PUSH32 0xC3D58168C5AE7397731D063D5BBF3D657854427343F4C083240F7AACAA2D0F62 DUP9 DUP9 PUSH1 0x40 MLOAD PUSH2 0x3242 SWAP3 SWAP2 SWAP1 PUSH2 0x5064 JUMP JUMPDEST PUSH1 0x40 MLOAD DUP1 SWAP2 SUB SWAP1 LOG4 PUSH2 0x3258 DUP3 DUP9 DUP9 DUP9 DUP9 DUP9 PUSH2 0x3881 JUMP JUMPDEST POP POP POP POP POP POP POP JUMP JUMPDEST PUSH2 0x3269 PUSH2 0x20C9 JUMP JUMPDEST PUSH20 0xFFFFFFFFFFFFFFFFFFFFFFFFFFFFFFFFFFFFFFFF AND PUSH2 0x3287 PUSH2 0x1B93 JUMP JUMPDEST PUSH20 0xFFFFFFFFFFFFFFFFFFFFFFFFFFFFFFFFFFFFFFFF AND EQ PUSH2 0x32DD JUMPI PUSH1 0x40 MLOAD PUSH32 0x8C379A000000000000000000000000000000000000000000000000000000000 DUP2 MSTORE PUSH1 0x4 ADD PUSH2 0x32D4 SWAP1 PUSH2 0x4F69 JUMP JUMPDEST PUSH1 0x40 MLOAD DUP1 SWAP2 SUB SWAP1 REVERT JUMPDEST DUP1 PUSH32 0xA2455EC11F160D321516C021994881E7678C0B5870CD7AAE50107098770E2C28 CALLER PUSH1 0x0 PUSH1 0xB PUSH1 0x0 CALLER PUSH20 0xFFFFFFFFFFFFFFFFFFFFFFFFFFFFFFFFFFFFFFFF AND PUSH20 0xFFFFFFFFFFFFFFFFFFFFFFFFFFFFFFFFFFFFFFFF AND DUP2 MSTORE PUSH1 0x20 ADD SWAP1 DUP2 MSTORE PUSH1 0x20 ADD PUSH1 0x0 KECCAK256 SLOAD PUSH1 0x40 MLOAD PUSH2 0x3351 SWAP4 SWAP3 SWAP2 SWAP1 PUSH2 0x4CE1 JUMP JUMPDEST PUSH1 0x40 MLOAD DUP1 SWAP2 SUB SWAP1 LOG1 PUSH1 0x6 DUP1 SLOAD SWAP1 POP DUP2 GT ISZERO DUP1 ISZERO PUSH2 0x336E JUMPI POP PUSH1 0x0 DUP2 GT JUMPDEST PUSH2 0x33AD JUMPI PUSH1 0x40 MLOAD PUSH32 0x8C379A000000000000000000000000000000000000000000000000000000000 DUP2 MSTORE PUSH1 0x4 ADD PUSH2 0x33A4 SWAP1 PUSH2 0x4C37 JUMP JUMPDEST PUSH1 0x40 MLOAD DUP1 SWAP2 SUB SWAP1 REVERT JUMPDEST PUSH1 0x0 DUP1 JUMPDEST DUP5 MLOAD DUP2 LT ISZERO PUSH2 0x357A JUMPI PUSH1 0x0 PUSH1 0xB PUSH1 0x0 DUP8 DUP5 DUP2 MLOAD DUP2 LT PUSH2 0x33D3 JUMPI PUSH2 0x33D2 PUSH2 0x5439 JUMP JUMPDEST JUMPDEST PUSH1 0x20 MUL PUSH1 0x20 ADD ADD MLOAD PUSH20 0xFFFFFFFFFFFFFFFFFFFFFFFFFFFFFFFFFFFFFFFF AND PUSH20 0xFFFFFFFFFFFFFFFFFFFFFFFFFFFFFFFFFFFFFFFF AND DUP2 MSTORE PUSH1 0x20 ADD SWAP1 DUP2 MSTORE PUSH1 0x20 ADD PUSH1 0x0 KECCAK256 SLOAD EQ PUSH2 0x348E JUMPI PUSH1 0x0 PUSH1 0xB PUSH1 0x0 DUP8 DUP5 DUP2 MLOAD DUP2 LT PUSH2 0x3434 JUMPI PUSH2 0x3433 PUSH2 0x5439 JUMP JUMPDEST JUMPDEST PUSH1 0x20 MUL PUSH1 0x20 ADD ADD MLOAD PUSH20 0xFFFFFFFFFFFFFFFFFFFFFFFFFFFFFFFFFFFFFFFF AND PUSH20 0xFFFFFFFFFFFFFFFFFFFFFFFFFFFFFFFFFFFFFFFF AND DUP2 MSTORE PUSH1 0x20 ADD SWAP1 DUP2 MSTORE PUSH1 0x20 ADD PUSH1 0x0 KECCAK256 DUP2 SWAP1 SSTORE POP PUSH1 0x1 DUP3 PUSH2 0x3487 SWAP2 SWAP1 PUSH2 0x51DD JUMP JUMPDEST SWAP2 POP PUSH2 0x3567 JUMP JUMPDEST PUSH32 0xA2455EC11F160D321516C021994881E7678C0B5870CD7AAE50107098770E2C28 DUP6 DUP3 DUP2 MLOAD DUP2 LT PUSH2 0x34C2 JUMPI PUSH2 0x34C1 PUSH2 0x5439 JUMP JUMPDEST JUMPDEST PUSH1 0x20 MUL PUSH1 0x20 ADD ADD MLOAD PUSH1 0x9 PUSH1 0x1 DUP8 PUSH2 0x34D9 SWAP2 SWAP1 PUSH2 0x5233 JUMP JUMPDEST DUP2 SLOAD DUP2 LT PUSH2 0x34EA JUMPI PUSH2 0x34E9 PUSH2 0x5439 JUMP JUMPDEST JUMPDEST SWAP1 PUSH1 0x0 MSTORE PUSH1 0x20 PUSH1 0x0 KECCAK256 ADD SLOAD PUSH1 0xB PUSH1 0x0 DUP10 DUP7 DUP2 MLOAD DUP2 LT PUSH2 0x350C JUMPI PUSH2 0x350B PUSH2 0x5439 JUMP JUMPDEST JUMPDEST PUSH1 0x20 MUL PUSH1 0x20 ADD ADD MLOAD PUSH20 0xFFFFFFFFFFFFFFFFFFFFFFFFFFFFFFFFFFFFFFFF AND PUSH20 0xFFFFFFFFFFFFFFFFFFFFFFFFFFFFFFFFFFFFFFFF AND DUP2 MSTORE PUSH1 0x20 ADD SWAP1 DUP2 MSTORE PUSH1 0x20 ADD PUSH1 0x0 KECCAK256 SLOAD PUSH1 0x40 MLOAD PUSH2 0x355E SWAP4 SWAP3 SWAP2 SWAP1 PUSH2 0x4F1F JUMP JUMPDEST PUSH1 0x40 MLOAD DUP1 SWAP2 SUB SWAP1 LOG1 JUMPDEST DUP1 DUP1 PUSH2 0x3572 SWAP1 PUSH2 0x5392 JUMP JUMPDEST SWAP2 POP POP PUSH2 0x33B1 JUMP JUMPDEST POP DUP1 PUSH1 0x9 PUSH1 0x1 DUP6 PUSH2 0x358B SWAP2 SWAP1 PUSH2 0x5233 JUMP JUMPDEST DUP2 SLOAD DUP2 LT PUSH2 0x359C JUMPI PUSH2 0x359B PUSH2 0x5439 JUMP JUMPDEST JUMPDEST SWAP1 PUSH1 0x0 MSTORE PUSH1 0x20 PUSH1 0x0 KECCAK256 ADD PUSH1 0x0 DUP3 DUP3 SLOAD PUSH2 0x35B5 SWAP2 SWAP1 PUSH2 0x5233 JUMP JUMPDEST SWAP3 POP POP DUP2 SWAP1 SSTORE POP POP POP POP POP JUMP JUMPDEST PUSH2 0x35CA PUSH2 0xDE1 JUMP JUMPDEST ISZERO PUSH2 0x360A JUMPI PUSH1 0x40 MLOAD PUSH32 0x8C379A000000000000000000000000000000000000000000000000000000000 DUP2 MSTORE PUSH1 0x4 ADD PUSH2 0x3601 SWAP1 PUSH2 0x4E7F JUMP JUMPDEST PUSH1 0x40 MLOAD DUP1 SWAP2 SUB SWAP1 REVERT JUMPDEST PUSH2 0x3618 DUP7 DUP7 DUP7 DUP7 DUP7 DUP7 PUSH2 0x3A68 JUMP JUMPDEST POP POP POP POP POP POP JUMP JUMPDEST PUSH2 0x363F DUP5 PUSH20 0xFFFFFFFFFFFFFFFFFFFFFFFFFFFFFFFFFFFFFFFF AND PUSH2 0x3BE2 JUMP JUMPDEST ISZERO PUSH2 0x37FF JUMPI DUP4 PUSH20 0xFFFFFFFFFFFFFFFFFFFFFFFFFFFFFFFFFFFFFFFF AND PUSH4 0xBC197C81 DUP8 DUP8 DUP7 DUP7 DUP7 PUSH1 0x40 MLOAD DUP7 PUSH4 0xFFFFFFFF AND PUSH1 0xE0 SHL DUP2 MSTORE PUSH1 0x4 ADD PUSH2 0x3685 SWAP6 SWAP5 SWAP4 SWAP3 SWAP2 SWAP1 PUSH2 0x4ABF JUMP JUMPDEST PUSH1 0x20 PUSH1 0x40 MLOAD DUP1 DUP4 SUB DUP2 PUSH1 0x0 DUP8 DUP1 EXTCODESIZE ISZERO DUP1 ISZERO PUSH2 0x369F JUMPI PUSH1 0x0 DUP1 REVERT JUMPDEST POP GAS CALL SWAP3 POP POP POP DUP1 ISZERO PUSH2 0x36D0 JUMPI POP PUSH1 0x40 MLOAD RETURNDATASIZE PUSH1 0x1F NOT PUSH1 0x1F DUP3 ADD AND DUP3 ADD DUP1 PUSH1 0x40 MSTORE POP DUP2 ADD SWAP1 PUSH2 0x36CD SWAP2 SWAP1 PUSH2 0x44CA JUMP JUMPDEST PUSH1 0x1 JUMPDEST PUSH2 0x3776 JUMPI PUSH2 0x36DC PUSH2 0x5497 JUMP JUMPDEST DUP1 PUSH4 0x8C379A0 EQ ISZERO PUSH2 0x3739 JUMPI POP PUSH2 0x36F1 PUSH2 0x5BA3 JUMP JUMPDEST DUP1 PUSH2 0x36FC JUMPI POP PUSH2 0x373B JUMP JUMPDEST DUP1 PUSH1 0x40 MLOAD PUSH32 0x8C379A000000000000000000000000000000000000000000000000000000000 DUP2 MSTORE PUSH1 0x4 ADD PUSH2 0x3730 SWAP2 SWAP1 PUSH2 0x4BF5 JUMP JUMPDEST PUSH1 0x40 MLOAD DUP1 SWAP2 SUB SWAP1 REVERT JUMPDEST POP JUMPDEST PUSH1 0x40 MLOAD PUSH32 0x8C379A000000000000000000000000000000000000000000000000000000000 DUP2 MSTORE PUSH1 0x4 ADD PUSH2 0x376D SWAP1 PUSH2 0x4C17 JUMP JUMPDEST PUSH1 0x40 MLOAD DUP1 SWAP2 SUB SWAP1 REVERT JUMPDEST PUSH4 0xBC197C81 PUSH1 0xE0 SHL PUSH28 0xFFFFFFFFFFFFFFFFFFFFFFFFFFFFFFFFFFFFFFFFFFFFFFFFFFFFFFFF NOT AND DUP2 PUSH28 0xFFFFFFFFFFFFFFFFFFFFFFFFFFFFFFFFFFFFFFFFFFFFFFFFFFFFFFFF NOT AND EQ PUSH2 0x37FD JUMPI PUSH1 0x40 MLOAD PUSH32 0x8C379A000000000000000000000000000000000000000000000000000000000 DUP2 MSTORE PUSH1 0x4 ADD PUSH2 0x37F4 SWAP1 PUSH2 0x4C57 JUMP JUMPDEST PUSH1 0x40 MLOAD DUP1 SWAP2 SUB SWAP1 REVERT JUMPDEST POP JUMPDEST POP POP POP POP POP POP JUMP JUMPDEST PUSH1 0x60 PUSH1 0x0 PUSH1 0x1 PUSH8 0xFFFFFFFFFFFFFFFF DUP2 GT ISZERO PUSH2 0x3826 JUMPI PUSH2 0x3825 PUSH2 0x5468 JUMP JUMPDEST JUMPDEST PUSH1 0x40 MLOAD SWAP1 DUP1 DUP3 MSTORE DUP1 PUSH1 0x20 MUL PUSH1 0x20 ADD DUP3 ADD PUSH1 0x40 MSTORE DUP1 ISZERO PUSH2 0x3854 JUMPI DUP2 PUSH1 0x20 ADD PUSH1 0x20 DUP3 MUL DUP1 CALLDATASIZE DUP4 CALLDATACOPY DUP1 DUP3 ADD SWAP2 POP POP SWAP1 POP JUMPDEST POP SWAP1 POP DUP3 DUP2 PUSH1 0x0 DUP2 MLOAD DUP2 LT PUSH2 0x386C JUMPI PUSH2 0x386B PUSH2 0x5439 JUMP JUMPDEST JUMPDEST PUSH1 0x20 MUL PUSH1 0x20 ADD ADD DUP2 DUP2 MSTORE POP POP DUP1 SWAP2 POP POP SWAP2 SWAP1 POP JUMP JUMPDEST PUSH2 0x38A0 DUP5 PUSH20 0xFFFFFFFFFFFFFFFFFFFFFFFFFFFFFFFFFFFFFFFF AND PUSH2 0x3BE2 JUMP JUMPDEST ISZERO PUSH2 0x3A60 JUMPI DUP4 PUSH20 0xFFFFFFFFFFFFFFFFFFFFFFFFFFFFFFFFFFFFFFFF AND PUSH4 0xF23A6E61 DUP8 DUP8 DUP7 DUP7 DUP7 PUSH1 0x40 MLOAD DUP7 PUSH4 0xFFFFFFFF AND PUSH1 0xE0 SHL DUP2 MSTORE PUSH1 0x4 ADD PUSH2 0x38E6 SWAP6 SWAP5 SWAP4 SWAP3 SWAP2 SWAP1 PUSH2 0x4B27 JUMP JUMPDEST PUSH1 0x20 PUSH1 0x40 MLOAD DUP1 DUP4 SUB DUP2 PUSH1 0x0 DUP8 DUP1 EXTCODESIZE ISZERO DUP1 ISZERO PUSH2 0x3900 JUMPI PUSH1 0x0 DUP1 REVERT JUMPDEST POP GAS CALL SWAP3 POP POP POP DUP1 ISZERO PUSH2 0x3931 JUMPI POP PUSH1 0x40 MLOAD RETURNDATASIZE PUSH1 0x1F NOT PUSH1 0x1F DUP3 ADD AND DUP3 ADD DUP1 PUSH1 0x40 MSTORE POP DUP2 ADD SWAP1 PUSH2 0x392E SWAP2 SWAP1 PUSH2 0x44CA JUMP JUMPDEST PUSH1 0x1 JUMPDEST PUSH2 0x39D7 JUMPI PUSH2 0x393D PUSH2 0x5497 JUMP JUMPDEST DUP1 PUSH4 0x8C379A0 EQ ISZERO PUSH2 0x399A JUMPI POP PUSH2 0x3952 PUSH2 0x5BA3 JUMP JUMPDEST DUP1 PUSH2 0x395D JUMPI POP PUSH2 0x399C JUMP JUMPDEST DUP1 PUSH1 0x40 MLOAD PUSH32 0x8C379A000000000000000000000000000000000000000000000000000000000 DUP2 MSTORE PUSH1 0x4 ADD PUSH2 0x3991 SWAP2 SWAP1 PUSH2 0x4BF5 JUMP JUMPDEST PUSH1 0x40 MLOAD DUP1 SWAP2 SUB SWAP1 REVERT JUMPDEST POP JUMPDEST PUSH1 0x40 MLOAD PUSH32 0x8C379A000000000000000000000000000000000000000000000000000000000 DUP2 MSTORE PUSH1 0x4 ADD PUSH2 0x39CE SWAP1 PUSH2 0x4C17 JUMP JUMPDEST PUSH1 0x40 MLOAD DUP1 SWAP2 SUB SWAP1 REVERT JUMPDEST PUSH4 0xF23A6E61 PUSH1 0xE0 SHL PUSH28 0xFFFFFFFFFFFFFFFFFFFFFFFFFFFFFFFFFFFFFFFFFFFFFFFFFFFFFFFF NOT AND DUP2 PUSH28 0xFFFFFFFFFFFFFFFFFFFFFFFFFFFFFFFFFFFFFFFFFFFFFFFFFFFFFFFF NOT AND EQ PUSH2 0x3A5E JUMPI PUSH1 0x40 MLOAD PUSH32 0x8C379A000000000000000000000000000000000000000000000000000000000 DUP2 MSTORE PUSH1 0x4 ADD PUSH2 0x3A55 SWAP1 PUSH2 0x4C57 JUMP JUMPDEST PUSH1 0x40 MLOAD DUP1 SWAP2 SUB SWAP1 REVERT JUMPDEST POP JUMPDEST POP POP POP POP POP POP JUMP JUMPDEST PUSH2 0x3A76 DUP7 DUP7 DUP7 DUP7 DUP7 DUP7 PUSH2 0x3C05 JUMP JUMPDEST PUSH1 0x0 PUSH20 0xFFFFFFFFFFFFFFFFFFFFFFFFFFFFFFFFFFFFFFFF AND DUP6 PUSH20 0xFFFFFFFFFFFFFFFFFFFFFFFFFFFFFFFFFFFFFFFF AND EQ ISZERO PUSH2 0x3B28 JUMPI PUSH1 0x0 JUMPDEST DUP4 MLOAD DUP2 LT ISZERO PUSH2 0x3B26 JUMPI DUP3 DUP2 DUP2 MLOAD DUP2 LT PUSH2 0x3ACA JUMPI PUSH2 0x3AC9 PUSH2 0x5439 JUMP JUMPDEST JUMPDEST PUSH1 0x20 MUL PUSH1 0x20 ADD ADD MLOAD PUSH1 0x4 PUSH1 0x0 DUP7 DUP5 DUP2 MLOAD DUP2 LT PUSH2 0x3AE9 JUMPI PUSH2 0x3AE8 PUSH2 0x5439 JUMP JUMPDEST JUMPDEST PUSH1 0x20 MUL PUSH1 0x20 ADD ADD MLOAD DUP2 MSTORE PUSH1 0x20 ADD SWAP1 DUP2 MSTORE PUSH1 0x20 ADD PUSH1 0x0 KECCAK256 PUSH1 0x0 DUP3 DUP3 SLOAD PUSH2 0x3B0E SWAP2 SWAP1 PUSH2 0x51DD JUMP JUMPDEST SWAP3 POP POP DUP2 SWAP1 SSTORE POP DUP1 PUSH2 0x3B1F SWAP1 PUSH2 0x5392 JUMP JUMPDEST SWAP1 POP PUSH2 0x3AAE JUMP JUMPDEST POP JUMPDEST PUSH1 0x0 PUSH20 0xFFFFFFFFFFFFFFFFFFFFFFFFFFFFFFFFFFFFFFFF AND DUP5 PUSH20 0xFFFFFFFFFFFFFFFFFFFFFFFFFFFFFFFFFFFFFFFF AND EQ ISZERO PUSH2 0x3BDA JUMPI PUSH1 0x0 JUMPDEST DUP4 MLOAD DUP2 LT ISZERO PUSH2 0x3BD8 JUMPI DUP3 DUP2 DUP2 MLOAD DUP2 LT PUSH2 0x3B7C JUMPI PUSH2 0x3B7B PUSH2 0x5439 JUMP JUMPDEST JUMPDEST PUSH1 0x20 MUL PUSH1 0x20 ADD ADD MLOAD PUSH1 0x4 PUSH1 0x0 DUP7 DUP5 DUP2 MLOAD DUP2 LT PUSH2 0x3B9B JUMPI PUSH2 0x3B9A PUSH2 0x5439 JUMP JUMPDEST JUMPDEST PUSH1 0x20 MUL PUSH1 0x20 ADD ADD MLOAD DUP2 MSTORE PUSH1 0x20 ADD SWAP1 DUP2 MSTORE PUSH1 0x20 ADD PUSH1 0x0 KECCAK256 PUSH1 0x0 DUP3 DUP3 SLOAD PUSH2 0x3BC0 SWAP2 SWAP1 PUSH2 0x5233 JUMP JUMPDEST SWAP3 POP POP DUP2 SWAP1 SSTORE POP DUP1 PUSH2 0x3BD1 SWAP1 PUSH2 0x5392 JUMP JUMPDEST SWAP1 POP PUSH2 0x3B60 JUMP JUMPDEST POP JUMPDEST POP POP POP POP POP POP JUMP JUMPDEST PUSH1 0x0 DUP1 DUP3 PUSH20 0xFFFFFFFFFFFFFFFFFFFFFFFFFFFFFFFFFFFFFFFF AND EXTCODESIZE GT SWAP1 POP SWAP2 SWAP1 POP JUMP JUMPDEST POP POP POP POP POP POP JUMP JUMPDEST DUP3 DUP1 SLOAD PUSH2 0x3C19 SWAP1 PUSH2 0x532F JUMP JUMPDEST SWAP1 PUSH1 0x0 MSTORE PUSH1 0x20 PUSH1 0x0 KECCAK256 SWAP1 PUSH1 0x1F ADD PUSH1 0x20 SWAP1 DIV DUP2 ADD SWAP3 DUP3 PUSH2 0x3C3B JUMPI PUSH1 0x0 DUP6 SSTORE PUSH2 0x3C82 JUMP JUMPDEST DUP3 PUSH1 0x1F LT PUSH2 0x3C54 JUMPI DUP1 MLOAD PUSH1 0xFF NOT AND DUP4 DUP1 ADD OR DUP6 SSTORE PUSH2 0x3C82 JUMP JUMPDEST DUP3 DUP1 ADD PUSH1 0x1 ADD DUP6 SSTORE DUP3 ISZERO PUSH2 0x3C82 JUMPI SWAP2 DUP3 ADD JUMPDEST DUP3 DUP2 GT ISZERO PUSH2 0x3C81 JUMPI DUP3 MLOAD DUP3 SSTORE SWAP2 PUSH1 0x20 ADD SWAP2 SWAP1 PUSH1 0x1 ADD SWAP1 PUSH2 0x3C66 JUMP JUMPDEST JUMPDEST POP SWAP1 POP PUSH2 0x3C8F SWAP2 SWAP1 PUSH2 0x3C93 JUMP JUMPDEST POP SWAP1 JUMP JUMPDEST JUMPDEST DUP1 DUP3 GT ISZERO PUSH2 0x3CAC JUMPI PUSH1 0x0 DUP2 PUSH1 0x0 SWAP1 SSTORE POP PUSH1 0x1 ADD PUSH2 0x3C94 JUMP JUMPDEST POP SWAP1 JUMP JUMPDEST PUSH1 0x0 PUSH2 0x3CC3 PUSH2 0x3CBE DUP5 PUSH2 0x50B2 JUMP JUMPDEST PUSH2 0x508D JUMP JUMPDEST SWAP1 POP DUP1 DUP4 DUP3 MSTORE PUSH1 0x20 DUP3 ADD SWAP1 POP DUP3 DUP6 PUSH1 0x20 DUP7 MUL DUP3 ADD GT ISZERO PUSH2 0x3CE6 JUMPI PUSH2 0x3CE5 PUSH2 0x54BE JUMP JUMPDEST JUMPDEST PUSH1 0x0 JUMPDEST DUP6 DUP2 LT ISZERO PUSH2 0x3D16 JUMPI DUP2 PUSH2 0x3CFC DUP9 DUP3 PUSH2 0x3E14 JUMP JUMPDEST DUP5 MSTORE PUSH1 0x20 DUP5 ADD SWAP4 POP PUSH1 0x20 DUP4 ADD SWAP3 POP POP PUSH1 0x1 DUP2 ADD SWAP1 POP PUSH2 0x3CE9 JUMP JUMPDEST POP POP POP SWAP4 SWAP3 POP POP POP JUMP JUMPDEST PUSH1 0x0 PUSH2 0x3D33 PUSH2 0x3D2E DUP5 PUSH2 0x50DE JUMP JUMPDEST PUSH2 0x508D JUMP JUMPDEST SWAP1 POP DUP1 DUP4 DUP3 MSTORE PUSH1 0x20 DUP3 ADD SWAP1 POP DUP3 DUP6 PUSH1 0x20 DUP7 MUL DUP3 ADD GT ISZERO PUSH2 0x3D56 JUMPI PUSH2 0x3D55 PUSH2 0x54BE JUMP JUMPDEST JUMPDEST PUSH1 0x0 JUMPDEST DUP6 DUP2 LT ISZERO PUSH2 0x3D86 JUMPI DUP2 PUSH2 0x3D6C DUP9 DUP3 PUSH2 0x3F20 JUMP JUMPDEST DUP5 MSTORE PUSH1 0x20 DUP5 ADD SWAP4 POP PUSH1 0x20 DUP4 ADD SWAP3 POP POP PUSH1 0x1 DUP2 ADD SWAP1 POP PUSH2 0x3D59 JUMP JUMPDEST POP POP POP SWAP4 SWAP3 POP POP POP JUMP JUMPDEST PUSH1 0x0 PUSH2 0x3DA3 PUSH2 0x3D9E DUP5 PUSH2 0x510A JUMP JUMPDEST PUSH2 0x508D JUMP JUMPDEST SWAP1 POP DUP3 DUP2 MSTORE PUSH1 0x20 DUP2 ADD DUP5 DUP5 DUP5 ADD GT ISZERO PUSH2 0x3DBF JUMPI PUSH2 0x3DBE PUSH2 0x54C3 JUMP JUMPDEST JUMPDEST PUSH2 0x3DCA DUP5 DUP3 DUP6 PUSH2 0x52ED JUMP JUMPDEST POP SWAP4 SWAP3 POP POP POP JUMP JUMPDEST PUSH1 0x0 PUSH2 0x3DE5 PUSH2 0x3DE0 DUP5 PUSH2 0x513B JUMP JUMPDEST PUSH2 0x508D JUMP JUMPDEST SWAP1 POP DUP3 DUP2 MSTORE PUSH1 0x20 DUP2 ADD DUP5 DUP5 DUP5 ADD GT ISZERO PUSH2 0x3E01 JUMPI PUSH2 0x3E00 PUSH2 0x54C3 JUMP JUMPDEST JUMPDEST PUSH2 0x3E0C DUP5 DUP3 DUP6 PUSH2 0x52ED JUMP JUMPDEST POP SWAP4 SWAP3 POP POP POP JUMP JUMPDEST PUSH1 0x0 DUP2 CALLDATALOAD SWAP1 POP PUSH2 0x3E23 DUP2 PUSH2 0x5C39 JUMP JUMPDEST SWAP3 SWAP2 POP POP JUMP JUMPDEST PUSH1 0x0 DUP3 PUSH1 0x1F DUP4 ADD SLT PUSH2 0x3E3E JUMPI PUSH2 0x3E3D PUSH2 0x54B9 JUMP JUMPDEST JUMPDEST DUP2 CALLDATALOAD PUSH2 0x3E4E DUP5 DUP3 PUSH1 0x20 DUP7 ADD PUSH2 0x3CB0 JUMP JUMPDEST SWAP2 POP POP SWAP3 SWAP2 POP POP JUMP JUMPDEST PUSH1 0x0 DUP3 PUSH1 0x1F DUP4 ADD SLT PUSH2 0x3E6C JUMPI PUSH2 0x3E6B PUSH2 0x54B9 JUMP JUMPDEST JUMPDEST DUP2 CALLDATALOAD PUSH2 0x3E7C DUP5 DUP3 PUSH1 0x20 DUP7 ADD PUSH2 0x3D20 JUMP JUMPDEST SWAP2 POP POP SWAP3 SWAP2 POP POP JUMP JUMPDEST PUSH1 0x0 DUP2 CALLDATALOAD SWAP1 POP PUSH2 0x3E94 DUP2 PUSH2 0x5C50 JUMP JUMPDEST SWAP3 SWAP2 POP POP JUMP JUMPDEST PUSH1 0x0 DUP2 CALLDATALOAD SWAP1 POP PUSH2 0x3EA9 DUP2 PUSH2 0x5C67 JUMP JUMPDEST SWAP3 SWAP2 POP POP JUMP JUMPDEST PUSH1 0x0 DUP2 MLOAD SWAP1 POP PUSH2 0x3EBE DUP2 PUSH2 0x5C67 JUMP JUMPDEST SWAP3 SWAP2 POP POP JUMP JUMPDEST PUSH1 0x0 DUP3 PUSH1 0x1F DUP4 ADD SLT PUSH2 0x3ED9 JUMPI PUSH2 0x3ED8 PUSH2 0x54B9 JUMP JUMPDEST JUMPDEST DUP2 CALLDATALOAD PUSH2 0x3EE9 DUP5 DUP3 PUSH1 0x20 DUP7 ADD PUSH2 0x3D90 JUMP JUMPDEST SWAP2 POP POP SWAP3 SWAP2 POP POP JUMP JUMPDEST PUSH1 0x0 DUP3 PUSH1 0x1F DUP4 ADD SLT PUSH2 0x3F07 JUMPI PUSH2 0x3F06 PUSH2 0x54B9 JUMP JUMPDEST JUMPDEST DUP2 CALLDATALOAD PUSH2 0x3F17 DUP5 DUP3 PUSH1 0x20 DUP7 ADD PUSH2 0x3DD2 JUMP JUMPDEST SWAP2 POP POP SWAP3 SWAP2 POP POP JUMP JUMPDEST PUSH1 0x0 DUP2 CALLDATALOAD SWAP1 POP PUSH2 0x3F2F DUP2 PUSH2 0x5C7E JUMP JUMPDEST SWAP3 SWAP2 POP POP JUMP JUMPDEST PUSH1 0x0 PUSH1 0x20 DUP3 DUP5 SUB SLT ISZERO PUSH2 0x3F4B JUMPI PUSH2 0x3F4A PUSH2 0x54CD JUMP JUMPDEST JUMPDEST PUSH1 0x0 PUSH2 0x3F59 DUP5 DUP3 DUP6 ADD PUSH2 0x3E14 JUMP JUMPDEST SWAP2 POP POP SWAP3 SWAP2 POP POP JUMP JUMPDEST PUSH1 0x0 DUP1 PUSH1 0x40 DUP4 DUP6 SUB SLT ISZERO PUSH2 0x3F79 JUMPI PUSH2 0x3F78 PUSH2 0x54CD JUMP JUMPDEST JUMPDEST PUSH1 0x0 PUSH2 0x3F87 DUP6 DUP3 DUP7 ADD PUSH2 0x3E14 JUMP JUMPDEST SWAP3 POP POP PUSH1 0x20 PUSH2 0x3F98 DUP6 DUP3 DUP7 ADD PUSH2 0x3E14 JUMP JUMPDEST SWAP2 POP POP SWAP3 POP SWAP3 SWAP1 POP JUMP JUMPDEST PUSH1 0x0 DUP1 PUSH1 0x0 DUP1 PUSH1 0x0 PUSH1 0xA0 DUP7 DUP9 SUB SLT ISZERO PUSH2 0x3FBE JUMPI PUSH2 0x3FBD PUSH2 0x54CD JUMP JUMPDEST JUMPDEST PUSH1 0x0 PUSH2 0x3FCC DUP9 DUP3 DUP10 ADD PUSH2 0x3E14 JUMP JUMPDEST SWAP6 POP POP PUSH1 0x20 PUSH2 0x3FDD DUP9 DUP3 DUP10 ADD PUSH2 0x3E14 JUMP JUMPDEST SWAP5 POP POP PUSH1 0x40 DUP7 ADD CALLDATALOAD PUSH8 0xFFFFFFFFFFFFFFFF DUP2 GT ISZERO PUSH2 0x3FFE JUMPI PUSH2 0x3FFD PUSH2 0x54C8 JUMP JUMPDEST JUMPDEST PUSH2 0x400A DUP9 DUP3 DUP10 ADD PUSH2 0x3E57 JUMP JUMPDEST SWAP4 POP POP PUSH1 0x60 DUP7 ADD CALLDATALOAD PUSH8 0xFFFFFFFFFFFFFFFF DUP2 GT ISZERO PUSH2 0x402B JUMPI PUSH2 0x402A PUSH2 0x54C8 JUMP JUMPDEST JUMPDEST PUSH2 0x4037 DUP9 DUP3 DUP10 ADD PUSH2 0x3E57 JUMP JUMPDEST SWAP3 POP POP PUSH1 0x80 DUP7 ADD CALLDATALOAD PUSH8 0xFFFFFFFFFFFFFFFF DUP2 GT ISZERO PUSH2 0x4058 JUMPI PUSH2 0x4057 PUSH2 0x54C8 JUMP JUMPDEST JUMPDEST PUSH2 0x4064 DUP9 DUP3 DUP10 ADD PUSH2 0x3EC4 JUMP JUMPDEST SWAP2 POP POP SWAP3 SWAP6 POP SWAP3 SWAP6 SWAP1 SWAP4 POP JUMP JUMPDEST PUSH1 0x0 DUP1 PUSH1 0x0 DUP1 PUSH1 0x0 PUSH1 0xA0 DUP7 DUP9 SUB SLT ISZERO PUSH2 0x408D JUMPI PUSH2 0x408C PUSH2 0x54CD JUMP JUMPDEST JUMPDEST PUSH1 0x0 PUSH2 0x409B DUP9 DUP3 DUP10 ADD PUSH2 0x3E14 JUMP JUMPDEST SWAP6 POP POP PUSH1 0x20 PUSH2 0x40AC DUP9 DUP3 DUP10 ADD PUSH2 0x3E14 JUMP JUMPDEST SWAP5 POP POP PUSH1 0x40 PUSH2 0x40BD DUP9 DUP3 DUP10 ADD PUSH2 0x3F20 JUMP JUMPDEST SWAP4 POP POP PUSH1 0x60 PUSH2 0x40CE DUP9 DUP3 DUP10 ADD PUSH2 0x3F20 JUMP JUMPDEST SWAP3 POP POP PUSH1 0x80 DUP7 ADD CALLDATALOAD PUSH8 0xFFFFFFFFFFFFFFFF DUP2 GT ISZERO PUSH2 0x40EF JUMPI PUSH2 0x40EE PUSH2 0x54C8 JUMP JUMPDEST JUMPDEST PUSH2 0x40FB DUP9 DUP3 DUP10 ADD PUSH2 0x3EC4 JUMP JUMPDEST SWAP2 POP POP SWAP3 SWAP6 POP SWAP3 SWAP6 SWAP1 SWAP4 POP JUMP JUMPDEST PUSH1 0x0 DUP1 PUSH1 0x0 PUSH1 0x60 DUP5 DUP7 SUB SLT ISZERO PUSH2 0x4121 JUMPI PUSH2 0x4120 PUSH2 0x54CD JUMP JUMPDEST JUMPDEST PUSH1 0x0 PUSH2 0x412F DUP7 DUP3 DUP8 ADD PUSH2 0x3E14 JUMP JUMPDEST SWAP4 POP POP PUSH1 0x20 DUP5 ADD CALLDATALOAD PUSH8 0xFFFFFFFFFFFFFFFF DUP2 GT ISZERO PUSH2 0x4150 JUMPI PUSH2 0x414F PUSH2 0x54C8 JUMP JUMPDEST JUMPDEST PUSH2 0x415C DUP7 DUP3 DUP8 ADD PUSH2 0x3E57 JUMP JUMPDEST SWAP3 POP POP PUSH1 0x40 DUP5 ADD CALLDATALOAD PUSH8 0xFFFFFFFFFFFFFFFF DUP2 GT ISZERO PUSH2 0x417D JUMPI PUSH2 0x417C PUSH2 0x54C8 JUMP JUMPDEST JUMPDEST PUSH2 0x4189 DUP7 DUP3 DUP8 ADD PUSH2 0x3E57 JUMP JUMPDEST SWAP2 POP POP SWAP3 POP SWAP3 POP SWAP3 JUMP JUMPDEST PUSH1 0x0 DUP1 PUSH1 0x0 DUP1 PUSH1 0x0 PUSH1 0xA0 DUP7 DUP9 SUB SLT ISZERO PUSH2 0x41AF JUMPI PUSH2 0x41AE PUSH2 0x54CD JUMP JUMPDEST JUMPDEST PUSH1 0x0 PUSH2 0x41BD DUP9 DUP3 DUP10 ADD PUSH2 0x3E14 JUMP JUMPDEST SWAP6 POP POP PUSH1 0x20 DUP7 ADD CALLDATALOAD PUSH8 0xFFFFFFFFFFFFFFFF DUP2 GT ISZERO PUSH2 0x41DE JUMPI PUSH2 0x41DD PUSH2 0x54C8 JUMP JUMPDEST JUMPDEST PUSH2 0x41EA DUP9 DUP3 DUP10 ADD PUSH2 0x3E57 JUMP JUMPDEST SWAP5 POP POP PUSH1 0x40 DUP7 ADD CALLDATALOAD PUSH8 0xFFFFFFFFFFFFFFFF DUP2 GT ISZERO PUSH2 0x420B JUMPI PUSH2 0x420A PUSH2 0x54C8 JUMP JUMPDEST JUMPDEST PUSH2 0x4217 DUP9 DUP3 DUP10 ADD PUSH2 0x3E57 JUMP JUMPDEST SWAP4 POP POP PUSH1 0x60 DUP7 ADD CALLDATALOAD PUSH8 0xFFFFFFFFFFFFFFFF DUP2 GT ISZERO PUSH2 0x4238 JUMPI PUSH2 0x4237 PUSH2 0x54C8 JUMP JUMPDEST JUMPDEST PUSH2 0x4244 DUP9 DUP3 DUP10 ADD PUSH2 0x3E57 JUMP JUMPDEST SWAP3 POP POP PUSH1 0x80 DUP7 ADD CALLDATALOAD PUSH8 0xFFFFFFFFFFFFFFFF DUP2 GT ISZERO PUSH2 0x4265 JUMPI PUSH2 0x4264 PUSH2 0x54C8 JUMP JUMPDEST JUMPDEST PUSH2 0x4271 DUP9 DUP3 DUP10 ADD PUSH2 0x3E57 JUMP JUMPDEST SWAP2 POP POP SWAP3 SWAP6 POP SWAP3 SWAP6 SWAP1 SWAP4 POP JUMP JUMPDEST PUSH1 0x0 DUP1 PUSH1 0x40 DUP4 DUP6 SUB SLT ISZERO PUSH2 0x4295 JUMPI PUSH2 0x4294 PUSH2 0x54CD JUMP JUMPDEST JUMPDEST PUSH1 0x0 PUSH2 0x42A3 DUP6 DUP3 DUP7 ADD PUSH2 0x3E14 JUMP JUMPDEST SWAP3 POP POP PUSH1 0x20 PUSH2 0x42B4 DUP6 DUP3 DUP7 ADD PUSH2 0x3E85 JUMP JUMPDEST SWAP2 POP POP SWAP3 POP SWAP3 SWAP1 POP JUMP JUMPDEST PUSH1 0x0 DUP1 PUSH1 0x40 DUP4 DUP6 SUB SLT ISZERO PUSH2 0x42D5 JUMPI PUSH2 0x42D4 PUSH2 0x54CD JUMP JUMPDEST JUMPDEST PUSH1 0x0 PUSH2 0x42E3 DUP6 DUP3 DUP7 ADD PUSH2 0x3E14 JUMP JUMPDEST SWAP3 POP POP PUSH1 0x20 PUSH2 0x42F4 DUP6 DUP3 DUP7 ADD PUSH2 0x3F20 JUMP JUMPDEST SWAP2 POP POP SWAP3 POP SWAP3 SWAP1 POP JUMP JUMPDEST PUSH1 0x0 DUP1 PUSH1 0x0 PUSH1 0x60 DUP5 DUP7 SUB SLT ISZERO PUSH2 0x4317 JUMPI PUSH2 0x4316 PUSH2 0x54CD JUMP JUMPDEST JUMPDEST PUSH1 0x0 PUSH2 0x4325 DUP7 DUP3 DUP8 ADD PUSH2 0x3E14 JUMP JUMPDEST SWAP4 POP POP PUSH1 0x20 PUSH2 0x4336 DUP7 DUP3 DUP8 ADD PUSH2 0x3F20 JUMP JUMPDEST SWAP3 POP POP PUSH1 0x40 PUSH2 0x4347 DUP7 DUP3 DUP8 ADD PUSH2 0x3F20 JUMP JUMPDEST SWAP2 POP POP SWAP3 POP SWAP3 POP SWAP3 JUMP JUMPDEST PUSH1 0x0 DUP1 PUSH1 0x40 DUP4 DUP6 SUB SLT ISZERO PUSH2 0x4368 JUMPI PUSH2 0x4367 PUSH2 0x54CD JUMP JUMPDEST JUMPDEST PUSH1 0x0 DUP4 ADD CALLDATALOAD PUSH8 0xFFFFFFFFFFFFFFFF DUP2 GT ISZERO PUSH2 0x4386 JUMPI PUSH2 0x4385 PUSH2 0x54C8 JUMP JUMPDEST JUMPDEST PUSH2 0x4392 DUP6 DUP3 DUP7 ADD PUSH2 0x3E29 JUMP JUMPDEST SWAP3 POP POP PUSH1 0x20 DUP4 ADD CALLDATALOAD PUSH8 0xFFFFFFFFFFFFFFFF DUP2 GT ISZERO PUSH2 0x43B3 JUMPI PUSH2 0x43B2 PUSH2 0x54C8 JUMP JUMPDEST JUMPDEST PUSH2 0x43BF DUP6 DUP3 DUP7 ADD PUSH2 0x3E57 JUMP JUMPDEST SWAP2 POP POP SWAP3 POP SWAP3 SWAP1 POP JUMP JUMPDEST PUSH1 0x0 DUP1 PUSH1 0x40 DUP4 DUP6 SUB SLT ISZERO PUSH2 0x43E0 JUMPI PUSH2 0x43DF PUSH2 0x54CD JUMP JUMPDEST JUMPDEST PUSH1 0x0 DUP4 ADD CALLDATALOAD PUSH8 0xFFFFFFFFFFFFFFFF DUP2 GT ISZERO PUSH2 0x43FE JUMPI PUSH2 0x43FD PUSH2 0x54C8 JUMP JUMPDEST JUMPDEST PUSH2 0x440A DUP6 DUP3 DUP7 ADD PUSH2 0x3E29 JUMP JUMPDEST SWAP3 POP POP PUSH1 0x20 PUSH2 0x441B DUP6 DUP3 DUP7 ADD PUSH2 0x3F20 JUMP JUMPDEST SWAP2 POP POP SWAP3 POP SWAP3 SWAP1 POP JUMP JUMPDEST PUSH1 0x0 DUP1 PUSH1 0x40 DUP4 DUP6 SUB SLT ISZERO PUSH2 0x443C JUMPI PUSH2 0x443B PUSH2 0x54CD JUMP JUMPDEST JUMPDEST PUSH1 0x0 DUP4 ADD CALLDATALOAD PUSH8 0xFFFFFFFFFFFFFFFF DUP2 GT ISZERO PUSH2 0x445A JUMPI PUSH2 0x4459 PUSH2 0x54C8 JUMP JUMPDEST JUMPDEST PUSH2 0x4466 DUP6 DUP3 DUP7 ADD PUSH2 0x3E57 JUMP JUMPDEST SWAP3 POP POP PUSH1 0x20 DUP4 ADD CALLDATALOAD PUSH8 0xFFFFFFFFFFFFFFFF DUP2 GT ISZERO PUSH2 0x4487 JUMPI PUSH2 0x4486 PUSH2 0x54C8 JUMP JUMPDEST JUMPDEST PUSH2 0x4493 DUP6 DUP3 DUP7 ADD PUSH2 0x3E57 JUMP JUMPDEST SWAP2 POP POP SWAP3 POP SWAP3 SWAP1 POP JUMP JUMPDEST PUSH1 0x0 PUSH1 0x20 DUP3 DUP5 SUB SLT ISZERO PUSH2 0x44B3 JUMPI PUSH2 0x44B2 PUSH2 0x54CD JUMP JUMPDEST JUMPDEST PUSH1 0x0 PUSH2 0x44C1 DUP5 DUP3 DUP6 ADD PUSH2 0x3E9A JUMP JUMPDEST SWAP2 POP POP SWAP3 SWAP2 POP POP JUMP JUMPDEST PUSH1 0x0 PUSH1 0x20 DUP3 DUP5 SUB SLT ISZERO PUSH2 0x44E0 JUMPI PUSH2 0x44DF PUSH2 0x54CD JUMP JUMPDEST JUMPDEST PUSH1 0x0 PUSH2 0x44EE DUP5 DUP3 DUP6 ADD PUSH2 0x3EAF JUMP JUMPDEST SWAP2 POP POP SWAP3 SWAP2 POP POP JUMP JUMPDEST PUSH1 0x0 PUSH1 0x20 DUP3 DUP5 SUB SLT ISZERO PUSH2 0x450D JUMPI PUSH2 0x450C PUSH2 0x54CD JUMP JUMPDEST JUMPDEST PUSH1 0x0 PUSH2 0x451B DUP5 DUP3 DUP6 ADD PUSH2 0x3F20 JUMP JUMPDEST SWAP2 POP POP SWAP3 SWAP2 POP POP JUMP JUMPDEST PUSH1 0x0 DUP1 PUSH1 0x40 DUP4 DUP6 SUB SLT ISZERO PUSH2 0x453B JUMPI PUSH2 0x453A PUSH2 0x54CD JUMP JUMPDEST JUMPDEST PUSH1 0x0 PUSH2 0x4549 DUP6 DUP3 DUP7 ADD PUSH2 0x3F20 JUMP JUMPDEST SWAP3 POP POP PUSH1 0x20 DUP4 ADD CALLDATALOAD PUSH8 0xFFFFFFFFFFFFFFFF DUP2 GT ISZERO PUSH2 0x456A JUMPI PUSH2 0x4569 PUSH2 0x54C8 JUMP JUMPDEST JUMPDEST PUSH2 0x4576 DUP6 DUP3 DUP7 ADD PUSH2 0x3EF2 JUMP JUMPDEST SWAP2 POP POP SWAP3 POP SWAP3 SWAP1 POP JUMP JUMPDEST PUSH1 0x0 DUP1 PUSH1 0x40 DUP4 DUP6 SUB SLT ISZERO PUSH2 0x4597 JUMPI PUSH2 0x4596 PUSH2 0x54CD JUMP JUMPDEST JUMPDEST PUSH1 0x0 PUSH2 0x45A5 DUP6 DUP3 DUP7 ADD PUSH2 0x3F20 JUMP JUMPDEST SWAP3 POP POP PUSH1 0x20 PUSH2 0x45B6 DUP6 DUP3 DUP7 ADD PUSH2 0x3F20 JUMP JUMPDEST SWAP2 POP POP SWAP3 POP SWAP3 SWAP1 POP JUMP JUMPDEST PUSH1 0x0 PUSH2 0x45CC DUP4 DUP4 PUSH2 0x4A86 JUMP JUMPDEST PUSH1 0x20 DUP4 ADD SWAP1 POP SWAP3 SWAP2 POP POP JUMP JUMPDEST PUSH2 0x45E1 DUP2 PUSH2 0x5267 JUMP JUMPDEST DUP3 MSTORE POP POP JUMP JUMPDEST PUSH1 0x0 PUSH2 0x45F2 DUP3 PUSH2 0x517C JUMP JUMPDEST PUSH2 0x45FC DUP2 DUP6 PUSH2 0x51AA JUMP JUMPDEST SWAP4 POP PUSH2 0x4607 DUP4 PUSH2 0x516C JUMP JUMPDEST DUP1 PUSH1 0x0 JUMPDEST DUP4 DUP2 LT ISZERO PUSH2 0x4638 JUMPI DUP2 MLOAD PUSH2 0x461F DUP9 DUP3 PUSH2 0x45C0 JUMP JUMPDEST SWAP8 POP PUSH2 0x462A DUP4 PUSH2 0x519D JUMP JUMPDEST SWAP3 POP POP PUSH1 0x1 DUP2 ADD SWAP1 POP PUSH2 0x460B JUMP JUMPDEST POP DUP6 SWAP4 POP POP POP POP SWAP3 SWAP2 POP POP JUMP JUMPDEST PUSH2 0x464E DUP2 PUSH2 0x5279 JUMP JUMPDEST DUP3 MSTORE POP POP JUMP JUMPDEST PUSH1 0x0 PUSH2 0x465F DUP3 PUSH2 0x5187 JUMP JUMPDEST PUSH2 0x4669 DUP2 DUP6 PUSH2 0x51BB JUMP JUMPDEST SWAP4 POP PUSH2 0x4679 DUP2 DUP6 PUSH1 0x20 DUP7 ADD PUSH2 0x52FC JUMP JUMPDEST PUSH2 0x4682 DUP2 PUSH2 0x54D2 JUMP JUMPDEST DUP5 ADD SWAP2 POP POP SWAP3 SWAP2 POP POP JUMP JUMPDEST PUSH2 0x4696 DUP2 PUSH2 0x52DB JUMP JUMPDEST DUP3 MSTORE POP POP JUMP JUMPDEST PUSH1 0x0 PUSH2 0x46A7 DUP3 PUSH2 0x5192 JUMP JUMPDEST PUSH2 0x46B1 DUP2 DUP6 PUSH2 0x51CC JUMP JUMPDEST SWAP4 POP PUSH2 0x46C1 DUP2 DUP6 PUSH1 0x20 DUP7 ADD PUSH2 0x52FC JUMP JUMPDEST PUSH2 0x46CA DUP2 PUSH2 0x54D2 JUMP JUMPDEST DUP5 ADD SWAP2 POP POP SWAP3 SWAP2 POP POP JUMP JUMPDEST PUSH1 0x0 PUSH2 0x46E2 PUSH1 0x34 DUP4 PUSH2 0x51CC JUMP JUMPDEST SWAP2 POP PUSH2 0x46ED DUP3 PUSH2 0x54F0 JUMP JUMPDEST PUSH1 0x40 DUP3 ADD SWAP1 POP SWAP2 SWAP1 POP JUMP JUMPDEST PUSH1 0x0 PUSH2 0x4705 PUSH1 0x13 DUP4 PUSH2 0x51CC JUMP JUMPDEST SWAP2 POP PUSH2 0x4710 DUP3 PUSH2 0x553F JUMP JUMPDEST PUSH1 0x20 DUP3 ADD SWAP1 POP SWAP2 SWAP1 POP JUMP JUMPDEST PUSH1 0x0 PUSH2 0x4728 PUSH1 0x28 DUP4 PUSH2 0x51CC JUMP JUMPDEST SWAP2 POP PUSH2 0x4733 DUP3 PUSH2 0x5568 JUMP JUMPDEST PUSH1 0x40 DUP3 ADD SWAP1 POP SWAP2 SWAP1 POP JUMP JUMPDEST PUSH1 0x0 PUSH2 0x474B PUSH1 0xB DUP4 PUSH2 0x51CC JUMP JUMPDEST SWAP2 POP PUSH2 0x4756 DUP3 PUSH2 0x55B7 JUMP JUMPDEST PUSH1 0x20 DUP3 ADD SWAP1 POP SWAP2 SWAP1 POP JUMP JUMPDEST PUSH1 0x0 PUSH2 0x476E PUSH1 0x14 DUP4 PUSH2 0x51CC JUMP JUMPDEST SWAP2 POP PUSH2 0x4779 DUP3 PUSH2 0x55E0 JUMP JUMPDEST PUSH1 0x20 DUP3 ADD SWAP1 POP SWAP2 SWAP1 POP JUMP JUMPDEST PUSH1 0x0 PUSH2 0x4791 PUSH1 0x14 DUP4 PUSH2 0x51CC JUMP JUMPDEST SWAP2 POP PUSH2 0x479C DUP3 PUSH2 0x5609 JUMP JUMPDEST PUSH1 0x20 DUP3 ADD SWAP1 POP SWAP2 SWAP1 POP JUMP JUMPDEST PUSH1 0x0 PUSH2 0x47B4 PUSH1 0x11 DUP4 PUSH2 0x51CC JUMP JUMPDEST SWAP2 POP PUSH2 0x47BF DUP3 PUSH2 0x5632 JUMP JUMPDEST PUSH1 0x20 DUP3 ADD SWAP1 POP SWAP2 SWAP1 POP JUMP JUMPDEST PUSH1 0x0 PUSH2 0x47D7 PUSH1 0x2B DUP4 PUSH2 0x51CC JUMP JUMPDEST SWAP2 POP PUSH2 0x47E2 DUP3 PUSH2 0x565B JUMP JUMPDEST PUSH1 0x40 DUP3 ADD SWAP1 POP SWAP2 SWAP1 POP JUMP JUMPDEST PUSH1 0x0 PUSH2 0x47FA PUSH1 0x26 DUP4 PUSH2 0x51CC JUMP JUMPDEST SWAP2 POP PUSH2 0x4805 DUP3 PUSH2 0x56AA JUMP JUMPDEST PUSH1 0x40 DUP3 ADD SWAP1 POP SWAP2 SWAP1 POP JUMP JUMPDEST PUSH1 0x0 PUSH2 0x481D PUSH1 0x1C DUP4 PUSH2 0x51CC JUMP JUMPDEST SWAP2 POP PUSH2 0x4828 DUP3 PUSH2 0x56F9 JUMP JUMPDEST PUSH1 0x20 DUP3 ADD SWAP1 POP SWAP2 SWAP1 POP JUMP JUMPDEST PUSH1 0x0 PUSH2 0x4840 PUSH1 0x24 DUP4 PUSH2 0x51CC JUMP JUMPDEST SWAP2 POP PUSH2 0x484B DUP3 PUSH2 0x5722 JUMP JUMPDEST PUSH1 0x40 DUP3 ADD SWAP1 POP SWAP2 SWAP1 POP JUMP JUMPDEST PUSH1 0x0 PUSH2 0x4863 PUSH1 0x1E DUP4 PUSH2 0x51CC JUMP JUMPDEST SWAP2 POP PUSH2 0x486E DUP3 PUSH2 0x5771 JUMP JUMPDEST PUSH1 0x20 DUP3 ADD SWAP1 POP SWAP2 SWAP1 POP JUMP JUMPDEST PUSH1 0x0 PUSH2 0x4886 PUSH1 0x29 DUP4 PUSH2 0x51CC JUMP JUMPDEST SWAP2 POP PUSH2 0x4891 DUP3 PUSH2 0x579A JUMP JUMPDEST PUSH1 0x40 DUP3 ADD SWAP1 POP SWAP2 SWAP1 POP JUMP JUMPDEST PUSH1 0x0 PUSH2 0x48A9 PUSH1 0x10 DUP4 PUSH2 0x51CC JUMP JUMPDEST SWAP2 POP PUSH2 0x48B4 DUP3 PUSH2 0x57E9 JUMP JUMPDEST PUSH1 0x20 DUP3 ADD SWAP1 POP SWAP2 SWAP1 POP JUMP JUMPDEST PUSH1 0x0 PUSH2 0x48CC PUSH1 0x10 DUP4 PUSH2 0x51CC JUMP JUMPDEST SWAP2 POP PUSH2 0x48D7 DUP3 PUSH2 0x5812 JUMP JUMPDEST PUSH1 0x20 DUP3 ADD SWAP1 POP SWAP2 SWAP1 POP JUMP JUMPDEST PUSH1 0x0 PUSH2 0x48EF PUSH1 0x25 DUP4 PUSH2 0x51CC JUMP JUMPDEST SWAP2 POP PUSH2 0x48FA DUP3 PUSH2 0x583B JUMP JUMPDEST PUSH1 0x40 DUP3 ADD SWAP1 POP SWAP2 SWAP1 POP JUMP JUMPDEST PUSH1 0x0 PUSH2 0x4912 PUSH1 0x32 DUP4 PUSH2 0x51CC JUMP JUMPDEST SWAP2 POP PUSH2 0x491D DUP3 PUSH2 0x588A JUMP JUMPDEST PUSH1 0x40 DUP3 ADD SWAP1 POP SWAP2 SWAP1 POP JUMP JUMPDEST PUSH1 0x0 PUSH2 0x4935 PUSH1 0x23 DUP4 PUSH2 0x51CC JUMP JUMPDEST SWAP2 POP PUSH2 0x4940 DUP3 PUSH2 0x58D9 JUMP JUMPDEST PUSH1 0x40 DUP3 ADD SWAP1 POP SWAP2 SWAP1 POP JUMP JUMPDEST PUSH1 0x0 PUSH2 0x4958 PUSH1 0x2A DUP4 PUSH2 0x51CC JUMP JUMPDEST SWAP2 POP PUSH2 0x4963 DUP3 PUSH2 0x5928 JUMP JUMPDEST PUSH1 0x40 DUP3 ADD SWAP1 POP SWAP2 SWAP1 POP JUMP JUMPDEST PUSH1 0x0 PUSH2 0x497B PUSH1 0x21 DUP4 PUSH2 0x51CC JUMP JUMPDEST SWAP2 POP PUSH2 0x4986 DUP3 PUSH2 0x5977 JUMP JUMPDEST PUSH1 0x40 DUP3 ADD SWAP1 POP SWAP2 SWAP1 POP JUMP JUMPDEST PUSH1 0x0 PUSH2 0x499E PUSH1 0x20 DUP4 PUSH2 0x51CC JUMP JUMPDEST SWAP2 POP PUSH2 0x49A9 DUP3 PUSH2 0x59C6 JUMP JUMPDEST PUSH1 0x20 DUP3 ADD SWAP1 POP SWAP2 SWAP1 POP JUMP JUMPDEST PUSH1 0x0 PUSH2 0x49C1 PUSH1 0x23 DUP4 PUSH2 0x51CC JUMP JUMPDEST SWAP2 POP PUSH2 0x49CC DUP3 PUSH2 0x59EF JUMP JUMPDEST PUSH1 0x40 DUP3 ADD SWAP1 POP SWAP2 SWAP1 POP JUMP JUMPDEST PUSH1 0x0 PUSH2 0x49E4 PUSH1 0x15 DUP4 PUSH2 0x51CC JUMP JUMPDEST SWAP2 POP PUSH2 0x49EF DUP3 PUSH2 0x5A3E JUMP JUMPDEST PUSH1 0x20 DUP3 ADD SWAP1 POP SWAP2 SWAP1 POP JUMP JUMPDEST PUSH1 0x0 PUSH2 0x4A07 PUSH1 0x29 DUP4 PUSH2 0x51CC JUMP JUMPDEST SWAP2 POP PUSH2 0x4A12 DUP3 PUSH2 0x5A67 JUMP JUMPDEST PUSH1 0x40 DUP3 ADD SWAP1 POP SWAP2 SWAP1 POP JUMP JUMPDEST PUSH1 0x0 PUSH2 0x4A2A PUSH1 0x29 DUP4 PUSH2 0x51CC JUMP JUMPDEST SWAP2 POP PUSH2 0x4A35 DUP3 PUSH2 0x5AB6 JUMP JUMPDEST PUSH1 0x40 DUP3 ADD SWAP1 POP SWAP2 SWAP1 POP JUMP JUMPDEST PUSH1 0x0 PUSH2 0x4A4D PUSH1 0x28 DUP4 PUSH2 0x51CC JUMP JUMPDEST SWAP2 POP PUSH2 0x4A58 DUP3 PUSH2 0x5B05 JUMP JUMPDEST PUSH1 0x40 DUP3 ADD SWAP1 POP SWAP2 SWAP1 POP JUMP JUMPDEST PUSH1 0x0 PUSH2 0x4A70 PUSH1 0x21 DUP4 PUSH2 0x51CC JUMP JUMPDEST SWAP2 POP PUSH2 0x4A7B DUP3 PUSH2 0x5B54 JUMP JUMPDEST PUSH1 0x40 DUP3 ADD SWAP1 POP SWAP2 SWAP1 POP JUMP JUMPDEST PUSH2 0x4A8F DUP2 PUSH2 0x52D1 JUMP JUMPDEST DUP3 MSTORE POP POP JUMP JUMPDEST PUSH2 0x4A9E DUP2 PUSH2 0x52D1 JUMP JUMPDEST DUP3 MSTORE POP POP JUMP JUMPDEST PUSH1 0x0 PUSH1 0x20 DUP3 ADD SWAP1 POP PUSH2 0x4AB9 PUSH1 0x0 DUP4 ADD DUP5 PUSH2 0x45D8 JUMP JUMPDEST SWAP3 SWAP2 POP POP JUMP JUMPDEST PUSH1 0x0 PUSH1 0xA0 DUP3 ADD SWAP1 POP PUSH2 0x4AD4 PUSH1 0x0 DUP4 ADD DUP9 PUSH2 0x45D8 JUMP JUMPDEST PUSH2 0x4AE1 PUSH1 0x20 DUP4 ADD DUP8 PUSH2 0x45D8 JUMP JUMPDEST DUP2 DUP2 SUB PUSH1 0x40 DUP4 ADD MSTORE PUSH2 0x4AF3 DUP2 DUP7 PUSH2 0x45E7 JUMP JUMPDEST SWAP1 POP DUP2 DUP2 SUB PUSH1 0x60 DUP4 ADD MSTORE PUSH2 0x4B07 DUP2 DUP6 PUSH2 0x45E7 JUMP JUMPDEST SWAP1 POP DUP2 DUP2 SUB PUSH1 0x80 DUP4 ADD MSTORE PUSH2 0x4B1B DUP2 DUP5 PUSH2 0x4654 JUMP JUMPDEST SWAP1 POP SWAP7 SWAP6 POP POP POP POP POP POP JUMP JUMPDEST PUSH1 0x0 PUSH1 0xA0 DUP3 ADD SWAP1 POP PUSH2 0x4B3C PUSH1 0x0 DUP4 ADD DUP9 PUSH2 0x45D8 JUMP JUMPDEST PUSH2 0x4B49 PUSH1 0x20 DUP4 ADD DUP8 PUSH2 0x45D8 JUMP JUMPDEST PUSH2 0x4B56 PUSH1 0x40 DUP4 ADD DUP7 PUSH2 0x4A95 JUMP JUMPDEST PUSH2 0x4B63 PUSH1 0x60 DUP4 ADD DUP6 PUSH2 0x4A95 JUMP JUMPDEST DUP2 DUP2 SUB PUSH1 0x80 DUP4 ADD MSTORE PUSH2 0x4B75 DUP2 DUP5 PUSH2 0x4654 JUMP JUMPDEST SWAP1 POP SWAP7 SWAP6 POP POP POP POP POP POP JUMP JUMPDEST PUSH1 0x0 PUSH1 0x20 DUP3 ADD SWAP1 POP DUP2 DUP2 SUB PUSH1 0x0 DUP4 ADD MSTORE PUSH2 0x4B9B DUP2 DUP5 PUSH2 0x45E7 JUMP JUMPDEST SWAP1 POP SWAP3 SWAP2 POP POP JUMP JUMPDEST PUSH1 0x0 PUSH1 0x40 DUP3 ADD SWAP1 POP DUP2 DUP2 SUB PUSH1 0x0 DUP4 ADD MSTORE PUSH2 0x4BBD DUP2 DUP6 PUSH2 0x45E7 JUMP JUMPDEST SWAP1 POP DUP2 DUP2 SUB PUSH1 0x20 DUP4 ADD MSTORE PUSH2 0x4BD1 DUP2 DUP5 PUSH2 0x45E7 JUMP JUMPDEST SWAP1 POP SWAP4 SWAP3 POP POP POP JUMP JUMPDEST PUSH1 0x0 PUSH1 0x20 DUP3 ADD SWAP1 POP PUSH2 0x4BEF PUSH1 0x0 DUP4 ADD DUP5 PUSH2 0x4645 JUMP JUMPDEST SWAP3 SWAP2 POP POP JUMP JUMPDEST PUSH1 0x0 PUSH1 0x20 DUP3 ADD SWAP1 POP DUP2 DUP2 SUB PUSH1 0x0 DUP4 ADD MSTORE PUSH2 0x4C0F DUP2 DUP5 PUSH2 0x469C JUMP JUMPDEST SWAP1 POP SWAP3 SWAP2 POP POP JUMP JUMPDEST PUSH1 0x0 PUSH1 0x20 DUP3 ADD SWAP1 POP DUP2 DUP2 SUB PUSH1 0x0 DUP4 ADD MSTORE PUSH2 0x4C30 DUP2 PUSH2 0x46D5 JUMP JUMPDEST SWAP1 POP SWAP2 SWAP1 POP JUMP JUMPDEST PUSH1 0x0 PUSH1 0x20 DUP3 ADD SWAP1 POP DUP2 DUP2 SUB PUSH1 0x0 DUP4 ADD MSTORE PUSH2 0x4C50 DUP2 PUSH2 0x46F8 JUMP JUMPDEST SWAP1 POP SWAP2 SWAP1 POP JUMP JUMPDEST PUSH1 0x0 PUSH1 0x20 DUP3 ADD SWAP1 POP DUP2 DUP2 SUB PUSH1 0x0 DUP4 ADD MSTORE PUSH2 0x4C70 DUP2 PUSH2 0x471B JUMP JUMPDEST SWAP1 POP SWAP2 SWAP1 POP JUMP JUMPDEST PUSH1 0x0 PUSH1 0x80 DUP3 ADD SWAP1 POP DUP2 DUP2 SUB PUSH1 0x0 DUP4 ADD MSTORE PUSH2 0x4C90 DUP2 PUSH2 0x473E JUMP JUMPDEST SWAP1 POP PUSH2 0x4C9F PUSH1 0x20 DUP4 ADD DUP7 PUSH2 0x45D8 JUMP JUMPDEST PUSH2 0x4CAC PUSH1 0x40 DUP4 ADD DUP6 PUSH2 0x4A95 JUMP JUMPDEST PUSH2 0x4CB9 PUSH1 0x60 DUP4 ADD DUP5 PUSH2 0x4A95 JUMP JUMPDEST SWAP5 SWAP4 POP POP POP POP JUMP JUMPDEST PUSH1 0x0 PUSH1 0x20 DUP3 ADD SWAP1 POP DUP2 DUP2 SUB PUSH1 0x0 DUP4 ADD MSTORE PUSH2 0x4CDA DUP2 PUSH2 0x4761 JUMP JUMPDEST SWAP1 POP SWAP2 SWAP1 POP JUMP JUMPDEST PUSH1 0x0 PUSH1 0x80 DUP3 ADD SWAP1 POP DUP2 DUP2 SUB PUSH1 0x0 DUP4 ADD MSTORE PUSH2 0x4CFA DUP2 PUSH2 0x4784 JUMP JUMPDEST SWAP1 POP PUSH2 0x4D09 PUSH1 0x20 DUP4 ADD DUP7 PUSH2 0x45D8 JUMP JUMPDEST PUSH2 0x4D16 PUSH1 0x40 DUP4 ADD DUP6 PUSH2 0x468D JUMP JUMPDEST PUSH2 0x4D23 PUSH1 0x60 DUP4 ADD DUP5 PUSH2 0x4A95 JUMP JUMPDEST SWAP5 SWAP4 POP POP POP POP JUMP JUMPDEST PUSH1 0x0 PUSH1 0x20 DUP3 ADD SWAP1 POP DUP2 DUP2 SUB PUSH1 0x0 DUP4 ADD MSTORE PUSH2 0x4D44 DUP2 PUSH2 0x47A7 JUMP JUMPDEST SWAP1 POP SWAP2 SWAP1 POP JUMP JUMPDEST PUSH1 0x0 PUSH1 0x20 DUP3 ADD SWAP1 POP DUP2 DUP2 SUB PUSH1 0x0 DUP4 ADD MSTORE PUSH2 0x4D64 DUP2 PUSH2 0x47CA JUMP JUMPDEST SWAP1 POP SWAP2 SWAP1 POP JUMP JUMPDEST PUSH1 0x0 PUSH1 0x20 DUP3 ADD SWAP1 POP DUP2 DUP2 SUB PUSH1 0x0 DUP4 ADD MSTORE PUSH2 0x4D84 DUP2 PUSH2 0x47ED JUMP JUMPDEST SWAP1 POP SWAP2 SWAP1 POP JUMP JUMPDEST PUSH1 0x0 PUSH1 0x80 DUP3 ADD SWAP1 POP DUP2 DUP2 SUB PUSH1 0x0 DUP4 ADD MSTORE PUSH2 0x4DA4 DUP2 PUSH2 0x4810 JUMP JUMPDEST SWAP1 POP PUSH2 0x4DB3 PUSH1 0x20 DUP4 ADD DUP7 PUSH2 0x45D8 JUMP JUMPDEST PUSH2 0x4DC0 PUSH1 0x40 DUP4 ADD DUP6 PUSH2 0x468D JUMP JUMPDEST PUSH2 0x4DCD PUSH1 0x60 DUP4 ADD DUP5 PUSH2 0x4A95 JUMP JUMPDEST SWAP5 SWAP4 POP POP POP POP JUMP JUMPDEST PUSH1 0x0 PUSH1 0x20 DUP3 ADD SWAP1 POP DUP2 DUP2 SUB PUSH1 0x0 DUP4 ADD MSTORE PUSH2 0x4DEE DUP2 PUSH2 0x4833 JUMP JUMPDEST SWAP1 POP SWAP2 SWAP1 POP JUMP JUMPDEST PUSH1 0x0 PUSH1 0x80 DUP3 ADD SWAP1 POP DUP2 DUP2 SUB PUSH1 0x0 DUP4 ADD MSTORE PUSH2 0x4E0E DUP2 PUSH2 0x4856 JUMP JUMPDEST SWAP1 POP PUSH2 0x4E1D PUSH1 0x20 DUP4 ADD DUP7 PUSH2 0x45D8 JUMP JUMPDEST PUSH2 0x4E2A PUSH1 0x40 DUP4 ADD DUP6 PUSH2 0x4A95 JUMP JUMPDEST PUSH2 0x4E37 PUSH1 0x60 DUP4 ADD DUP5 PUSH2 0x4A95 JUMP JUMPDEST SWAP5 SWAP4 POP POP POP POP JUMP JUMPDEST PUSH1 0x0 PUSH1 0x20 DUP3 ADD SWAP1 POP DUP2 DUP2 SUB PUSH1 0x0 DUP4 ADD MSTORE PUSH2 0x4E58 DUP2 PUSH2 0x4879 JUMP JUMPDEST SWAP1 POP SWAP2 SWAP1 POP JUMP JUMPDEST PUSH1 0x0 PUSH1 0x20 DUP3 ADD SWAP1 POP DUP2 DUP2 SUB PUSH1 0x0 DUP4 ADD MSTORE PUSH2 0x4E78 DUP2 PUSH2 0x489C JUMP JUMPDEST SWAP1 POP SWAP2 SWAP1 POP JUMP JUMPDEST PUSH1 0x0 PUSH1 0x20 DUP3 ADD SWAP1 POP DUP2 DUP2 SUB PUSH1 0x0 DUP4 ADD MSTORE PUSH2 0x4E98 DUP2 PUSH2 0x48BF JUMP JUMPDEST SWAP1 POP SWAP2 SWAP1 POP JUMP JUMPDEST PUSH1 0x0 PUSH1 0x20 DUP3 ADD SWAP1 POP DUP2 DUP2 SUB PUSH1 0x0 DUP4 ADD MSTORE PUSH2 0x4EB8 DUP2 PUSH2 0x48E2 JUMP JUMPDEST SWAP1 POP SWAP2 SWAP1 POP JUMP JUMPDEST PUSH1 0x0 PUSH1 0x20 DUP3 ADD SWAP1 POP DUP2 DUP2 SUB PUSH1 0x0 DUP4 ADD MSTORE PUSH2 0x4ED8 DUP2 PUSH2 0x4905 JUMP JUMPDEST SWAP1 POP SWAP2 SWAP1 POP JUMP JUMPDEST PUSH1 0x0 PUSH1 0x20 DUP3 ADD SWAP1 POP DUP2 DUP2 SUB PUSH1 0x0 DUP4 ADD MSTORE PUSH2 0x4EF8 DUP2 PUSH2 0x4928 JUMP JUMPDEST SWAP1 POP SWAP2 SWAP1 POP JUMP JUMPDEST PUSH1 0x0 PUSH1 0x20 DUP3 ADD SWAP1 POP DUP2 DUP2 SUB PUSH1 0x0 DUP4 ADD MSTORE PUSH2 0x4F18 DUP2 PUSH2 0x494B JUMP JUMPDEST SWAP1 POP SWAP2 SWAP1 POP JUMP JUMPDEST PUSH1 0x0 PUSH1 0x80 DUP3 ADD SWAP1 POP DUP2 DUP2 SUB PUSH1 0x0 DUP4 ADD MSTORE PUSH2 0x4F38 DUP2 PUSH2 0x496E JUMP JUMPDEST SWAP1 POP PUSH2 0x4F47 PUSH1 0x20 DUP4 ADD DUP7 PUSH2 0x45D8 JUMP JUMPDEST PUSH2 0x4F54 PUSH1 0x40 DUP4 ADD DUP6 PUSH2 0x4A95 JUMP JUMPDEST PUSH2 0x4F61 PUSH1 0x60 DUP4 ADD DUP5 PUSH2 0x4A95 JUMP JUMPDEST SWAP5 SWAP4 POP POP POP POP JUMP JUMPDEST PUSH1 0x0 PUSH1 0x20 DUP3 ADD SWAP1 POP DUP2 DUP2 SUB PUSH1 0x0 DUP4 ADD MSTORE PUSH2 0x4F82 DUP2 PUSH2 0x4991 JUMP JUMPDEST SWAP1 POP SWAP2 SWAP1 POP JUMP JUMPDEST PUSH1 0x0 PUSH1 0x20 DUP3 ADD SWAP1 POP DUP2 DUP2 SUB PUSH1 0x0 DUP4 ADD MSTORE PUSH2 0x4FA2 DUP2 PUSH2 0x49B4 JUMP JUMPDEST SWAP1 POP SWAP2 SWAP1 POP JUMP JUMPDEST PUSH1 0x0 PUSH1 0x20 DUP3 ADD SWAP1 POP DUP2 DUP2 SUB PUSH1 0x0 DUP4 ADD MSTORE PUSH2 0x4FC2 DUP2 PUSH2 0x49D7 JUMP JUMPDEST SWAP1 POP SWAP2 SWAP1 POP JUMP JUMPDEST PUSH1 0x0 PUSH1 0x20 DUP3 ADD SWAP1 POP DUP2 DUP2 SUB PUSH1 0x0 DUP4 ADD MSTORE PUSH2 0x4FE2 DUP2 PUSH2 0x49FA JUMP JUMPDEST SWAP1 POP SWAP2 SWAP1 POP JUMP JUMPDEST PUSH1 0x0 PUSH1 0x20 DUP3 ADD SWAP1 POP DUP2 DUP2 SUB PUSH1 0x0 DUP4 ADD MSTORE PUSH2 0x5002 DUP2 PUSH2 0x4A1D JUMP JUMPDEST SWAP1 POP SWAP2 SWAP1 POP JUMP JUMPDEST PUSH1 0x0 PUSH1 0x20 DUP3 ADD SWAP1 POP DUP2 DUP2 SUB PUSH1 0x0 DUP4 ADD MSTORE PUSH2 0x5022 DUP2 PUSH2 0x4A40 JUMP JUMPDEST SWAP1 POP SWAP2 SWAP1 POP JUMP JUMPDEST PUSH1 0x0 PUSH1 0x20 DUP3 ADD SWAP1 POP DUP2 DUP2 SUB PUSH1 0x0 DUP4 ADD MSTORE PUSH2 0x5042 DUP2 PUSH2 0x4A63 JUMP JUMPDEST SWAP1 POP SWAP2 SWAP1 POP JUMP JUMPDEST PUSH1 0x0 PUSH1 0x20 DUP3 ADD SWAP1 POP PUSH2 0x505E PUSH1 0x0 DUP4 ADD DUP5 PUSH2 0x4A95 JUMP JUMPDEST SWAP3 SWAP2 POP POP JUMP JUMPDEST PUSH1 0x0 PUSH1 0x40 DUP3 ADD SWAP1 POP PUSH2 0x5079 PUSH1 0x0 DUP4 ADD DUP6 PUSH2 0x4A95 JUMP JUMPDEST PUSH2 0x5086 PUSH1 0x20 DUP4 ADD DUP5 PUSH2 0x4A95 JUMP JUMPDEST SWAP4 SWAP3 POP POP POP JUMP JUMPDEST PUSH1 0x0 PUSH2 0x5097 PUSH2 0x50A8 JUMP JUMPDEST SWAP1 POP PUSH2 0x50A3 DUP3 DUP3 PUSH2 0x5361 JUMP JUMPDEST SWAP2 SWAP1 POP JUMP JUMPDEST PUSH1 0x0 PUSH1 0x40 MLOAD SWAP1 POP SWAP1 JUMP JUMPDEST PUSH1 0x0 PUSH8 0xFFFFFFFFFFFFFFFF DUP3 GT ISZERO PUSH2 0x50CD JUMPI PUSH2 0x50CC PUSH2 0x5468 JUMP JUMPDEST JUMPDEST PUSH1 0x20 DUP3 MUL SWAP1 POP PUSH1 0x20 DUP2 ADD SWAP1 POP SWAP2 SWAP1 POP JUMP JUMPDEST PUSH1 0x0 PUSH8 0xFFFFFFFFFFFFFFFF DUP3 GT ISZERO PUSH2 0x50F9 JUMPI PUSH2 0x50F8 PUSH2 0x5468 JUMP JUMPDEST JUMPDEST PUSH1 0x20 DUP3 MUL SWAP1 POP PUSH1 0x20 DUP2 ADD SWAP1 POP SWAP2 SWAP1 POP JUMP JUMPDEST PUSH1 0x0 PUSH8 0xFFFFFFFFFFFFFFFF DUP3 GT ISZERO PUSH2 0x5125 JUMPI PUSH2 0x5124 PUSH2 0x5468 JUMP JUMPDEST JUMPDEST PUSH2 0x512E DUP3 PUSH2 0x54D2 JUMP JUMPDEST SWAP1 POP PUSH1 0x20 DUP2 ADD SWAP1 POP SWAP2 SWAP1 POP JUMP JUMPDEST PUSH1 0x0 PUSH8 0xFFFFFFFFFFFFFFFF DUP3 GT ISZERO PUSH2 0x5156 JUMPI PUSH2 0x5155 PUSH2 0x5468 JUMP JUMPDEST JUMPDEST PUSH2 0x515F DUP3 PUSH2 0x54D2 JUMP JUMPDEST SWAP1 POP PUSH1 0x20 DUP2 ADD SWAP1 POP SWAP2 SWAP1 POP JUMP JUMPDEST PUSH1 0x0 DUP2 SWAP1 POP PUSH1 0x20 DUP3 ADD SWAP1 POP SWAP2 SWAP1 POP JUMP JUMPDEST PUSH1 0x0 DUP2 MLOAD SWAP1 POP SWAP2 SWAP1 POP JUMP JUMPDEST PUSH1 0x0 DUP2 MLOAD SWAP1 POP SWAP2 SWAP1 POP JUMP JUMPDEST PUSH1 0x0 DUP2 MLOAD SWAP1 POP SWAP2 SWAP1 POP JUMP JUMPDEST PUSH1 0x0 PUSH1 0x20 DUP3 ADD SWAP1 POP SWAP2 SWAP1 POP JUMP JUMPDEST PUSH1 0x0 DUP3 DUP3 MSTORE PUSH1 0x20 DUP3 ADD SWAP1 POP SWAP3 SWAP2 POP POP JUMP JUMPDEST PUSH1 0x0 DUP3 DUP3 MSTORE PUSH1 0x20 DUP3 ADD SWAP1 POP SWAP3 SWAP2 POP POP JUMP JUMPDEST PUSH1 0x0 DUP3 DUP3 MSTORE PUSH1 0x20 DUP3 ADD SWAP1 POP SWAP3 SWAP2 POP POP JUMP JUMPDEST PUSH1 0x0 PUSH2 0x51E8 DUP3 PUSH2 0x52D1 JUMP JUMPDEST SWAP2 POP PUSH2 0x51F3 DUP4 PUSH2 0x52D1 JUMP JUMPDEST SWAP3 POP DUP3 PUSH32 0xFFFFFFFFFFFFFFFFFFFFFFFFFFFFFFFFFFFFFFFFFFFFFFFFFFFFFFFFFFFFFFFF SUB DUP3 GT ISZERO PUSH2 0x5228 JUMPI PUSH2 0x5227 PUSH2 0x53DB JUMP JUMPDEST JUMPDEST DUP3 DUP3 ADD SWAP1 POP SWAP3 SWAP2 POP POP JUMP JUMPDEST PUSH1 0x0 PUSH2 0x523E DUP3 PUSH2 0x52D1 JUMP JUMPDEST SWAP2 POP PUSH2 0x5249 DUP4 PUSH2 0x52D1 JUMP JUMPDEST SWAP3 POP DUP3 DUP3 LT ISZERO PUSH2 0x525C JUMPI PUSH2 0x525B PUSH2 0x53DB JUMP JUMPDEST JUMPDEST DUP3 DUP3 SUB SWAP1 POP SWAP3 SWAP2 POP POP JUMP JUMPDEST PUSH1 0x0 PUSH2 0x5272 DUP3 PUSH2 0x52B1 JUMP JUMPDEST SWAP1 POP SWAP2 SWAP1 POP JUMP JUMPDEST PUSH1 0x0 DUP2 ISZERO ISZERO SWAP1 POP SWAP2 SWAP1 POP JUMP JUMPDEST PUSH1 0x0 PUSH32 0xFFFFFFFF00000000000000000000000000000000000000000000000000000000 DUP3 AND SWAP1 POP SWAP2 SWAP1 POP JUMP JUMPDEST PUSH1 0x0 PUSH20 0xFFFFFFFFFFFFFFFFFFFFFFFFFFFFFFFFFFFFFFFF DUP3 AND SWAP1 POP SWAP2 SWAP1 POP JUMP JUMPDEST PUSH1 0x0 DUP2 SWAP1 POP SWAP2 SWAP1 POP JUMP JUMPDEST PUSH1 0x0 PUSH2 0x52E6 DUP3 PUSH2 0x52D1 JUMP JUMPDEST SWAP1 POP SWAP2 SWAP1 POP JUMP JUMPDEST DUP3 DUP2 DUP4 CALLDATACOPY PUSH1 0x0 DUP4 DUP4 ADD MSTORE POP POP POP JUMP JUMPDEST PUSH1 0x0 JUMPDEST DUP4 DUP2 LT ISZERO PUSH2 0x531A JUMPI DUP1 DUP3 ADD MLOAD DUP2 DUP5 ADD MSTORE PUSH1 0x20 DUP2 ADD SWAP1 POP PUSH2 0x52FF JUMP JUMPDEST DUP4 DUP2 GT ISZERO PUSH2 0x5329 JUMPI PUSH1 0x0 DUP5 DUP5 ADD MSTORE JUMPDEST POP POP POP POP JUMP JUMPDEST PUSH1 0x0 PUSH1 0x2 DUP3 DIV SWAP1 POP PUSH1 0x1 DUP3 AND DUP1 PUSH2 0x5347 JUMPI PUSH1 0x7F DUP3 AND SWAP2 POP JUMPDEST PUSH1 0x20 DUP3 LT DUP2 EQ ISZERO PUSH2 0x535B JUMPI PUSH2 0x535A PUSH2 0x540A JUMP JUMPDEST JUMPDEST POP SWAP2 SWAP1 POP JUMP JUMPDEST PUSH2 0x536A DUP3 PUSH2 0x54D2 JUMP JUMPDEST DUP2 ADD DUP2 DUP2 LT PUSH8 0xFFFFFFFFFFFFFFFF DUP3 GT OR ISZERO PUSH2 0x5389 JUMPI PUSH2 0x5388 PUSH2 0x5468 JUMP JUMPDEST JUMPDEST DUP1 PUSH1 0x40 MSTORE POP POP POP JUMP JUMPDEST PUSH1 0x0 PUSH2 0x539D DUP3 PUSH2 0x52D1 JUMP JUMPDEST SWAP2 POP PUSH32 0xFFFFFFFFFFFFFFFFFFFFFFFFFFFFFFFFFFFFFFFFFFFFFFFFFFFFFFFFFFFFFFFF DUP3 EQ ISZERO PUSH2 0x53D0 JUMPI PUSH2 0x53CF PUSH2 0x53DB JUMP JUMPDEST JUMPDEST PUSH1 0x1 DUP3 ADD SWAP1 POP SWAP2 SWAP1 POP JUMP JUMPDEST PUSH32 0x4E487B7100000000000000000000000000000000000000000000000000000000 PUSH1 0x0 MSTORE PUSH1 0x11 PUSH1 0x4 MSTORE PUSH1 0x24 PUSH1 0x0 REVERT JUMPDEST PUSH32 0x4E487B7100000000000000000000000000000000000000000000000000000000 PUSH1 0x0 MSTORE PUSH1 0x22 PUSH1 0x4 MSTORE PUSH1 0x24 PUSH1 0x0 REVERT JUMPDEST PUSH32 0x4E487B7100000000000000000000000000000000000000000000000000000000 PUSH1 0x0 MSTORE PUSH1 0x32 PUSH1 0x4 MSTORE PUSH1 0x24 PUSH1 0x0 REVERT JUMPDEST PUSH32 0x4E487B7100000000000000000000000000000000000000000000000000000000 PUSH1 0x0 MSTORE PUSH1 0x41 PUSH1 0x4 MSTORE PUSH1 0x24 PUSH1 0x0 REVERT JUMPDEST PUSH1 0x0 PUSH1 0x3 RETURNDATASIZE GT ISZERO PUSH2 0x54B6 JUMPI PUSH1 0x4 PUSH1 0x0 DUP1 RETURNDATACOPY PUSH2 0x54B3 PUSH1 0x0 MLOAD PUSH2 0x54E3 JUMP JUMPDEST SWAP1 POP JUMPDEST SWAP1 JUMP JUMPDEST PUSH1 0x0 DUP1 REVERT JUMPDEST PUSH1 0x0 DUP1 REVERT JUMPDEST PUSH1 0x0 DUP1 REVERT JUMPDEST PUSH1 0x0 DUP1 REVERT JUMPDEST PUSH1 0x0 DUP1 REVERT JUMPDEST PUSH1 0x0 PUSH1 0x1F NOT PUSH1 0x1F DUP4 ADD AND SWAP1 POP SWAP2 SWAP1 POP JUMP JUMPDEST PUSH1 0x0 DUP2 PUSH1 0xE0 SHR SWAP1 POP SWAP2 SWAP1 POP JUMP JUMPDEST PUSH32 0x455243313135353A207472616E7366657220746F206E6F6E2045524331313535 PUSH1 0x0 DUP3 ADD MSTORE PUSH32 0x526563656976657220696D706C656D656E746572000000000000000000000000 PUSH1 0x20 DUP3 ADD MSTORE POP JUMP JUMPDEST PUSH32 0x546F6B656E20646F65736E277420657869737400000000000000000000000000 PUSH1 0x0 DUP3 ADD MSTORE POP JUMP JUMPDEST PUSH32 0x455243313135353A204552433131353552656365697665722072656A65637465 PUSH1 0x0 DUP3 ADD MSTORE PUSH32 0x6420746F6B656E73000000000000000000000000000000000000000000000000 PUSH1 0x20 DUP3 ADD MSTORE POP JUMP JUMPDEST PUSH32 0x696E20666F72206C6F6F70000000000000000000000000000000000000000000 PUSH1 0x0 DUP3 ADD MSTORE POP JUMP JUMPDEST PUSH32 0x5061757361626C653A206E6F7420706175736564000000000000000000000000 PUSH1 0x0 DUP3 ADD MSTORE POP JUMP JUMPDEST PUSH32 0x4D6F64696665722076616C6964546F6B656E4964000000000000000000000000 PUSH1 0x0 DUP3 ADD MSTORE POP JUMP JUMPDEST PUSH32 0x4E6F7420656E6F75676820737570706C79000000000000000000000000000000 PUSH1 0x0 DUP3 ADD MSTORE POP JUMP JUMPDEST PUSH32 0x455243313135353A2062616C616E636520717565727920666F7220746865207A PUSH1 0x0 DUP3 ADD MSTORE PUSH32 0x65726F2061646472657373000000000000000000000000000000000000000000 PUSH1 0x20 DUP3 ADD MSTORE POP JUMP JUMPDEST PUSH32 0x4F776E61626C653A206E6577206F776E657220697320746865207A65726F2061 PUSH1 0x0 DUP3 ADD MSTORE PUSH32 0x6464726573730000000000000000000000000000000000000000000000000000 PUSH1 0x20 DUP3 ADD MSTORE POP JUMP JUMPDEST PUSH32 0x4D6F6469666572206F6E6C7957686974656C6973744164647265737300000000 PUSH1 0x0 DUP3 ADD MSTORE POP JUMP JUMPDEST PUSH32 0x455243313135353A206275726E20616D6F756E7420657863656564732062616C PUSH1 0x0 DUP3 ADD MSTORE PUSH32 0x616E636500000000000000000000000000000000000000000000000000000000 PUSH1 0x20 DUP3 ADD MSTORE POP JUMP JUMPDEST PUSH32 0x6164647265737320697320616C72656164792077686974656C69737465640000 PUSH1 0x0 DUP3 ADD MSTORE POP JUMP JUMPDEST PUSH32 0x455243313135353A2063616C6C6572206973206E6F74206F776E6572206E6F72 PUSH1 0x0 DUP3 ADD MSTORE PUSH32 0x20617070726F7665640000000000000000000000000000000000000000000000 PUSH1 0x20 DUP3 ADD MSTORE POP JUMP JUMPDEST PUSH32 0x457863656564206D6178537570706C7900000000000000000000000000000000 PUSH1 0x0 DUP3 ADD MSTORE POP JUMP JUMPDEST PUSH32 0x5061757361626C653A2070617573656400000000000000000000000000000000 PUSH1 0x0 DUP3 ADD MSTORE POP JUMP JUMPDEST PUSH32 0x455243313135353A207472616E7366657220746F20746865207A65726F206164 PUSH1 0x0 DUP3 ADD MSTORE PUSH32 0x6472657373000000000000000000000000000000000000000000000000000000 PUSH1 0x20 DUP3 ADD MSTORE POP JUMP JUMPDEST PUSH32 0x455243313135353A207472616E736665722063616C6C6572206973206E6F7420 PUSH1 0x0 DUP3 ADD MSTORE PUSH32 0x6F776E6572206E6F7220617070726F7665640000000000000000000000000000 PUSH1 0x20 DUP3 ADD MSTORE POP JUMP JUMPDEST PUSH32 0x455243313135353A206275726E2066726F6D20746865207A65726F2061646472 PUSH1 0x0 DUP3 ADD MSTORE PUSH32 0x6573730000000000000000000000000000000000000000000000000000000000 PUSH1 0x20 DUP3 ADD MSTORE POP JUMP JUMPDEST PUSH32 0x455243313135353A20696E73756666696369656E742062616C616E636520666F PUSH1 0x0 DUP3 ADD MSTORE PUSH32 0x72207472616E7366657200000000000000000000000000000000000000000000 PUSH1 0x20 DUP3 ADD MSTORE POP JUMP JUMPDEST PUSH32 0x416472657373206973206E6F7420616C72656164792077686974656C69737465 PUSH1 0x0 DUP3 ADD MSTORE PUSH32 0x6400000000000000000000000000000000000000000000000000000000000000 PUSH1 0x20 DUP3 ADD MSTORE POP JUMP JUMPDEST PUSH32 0x4F776E61626C653A2063616C6C6572206973206E6F7420746865206F776E6572 PUSH1 0x0 DUP3 ADD MSTORE POP JUMP JUMPDEST PUSH32 0x41646472657373206E6F742077686974656C69737465642E2043616E74206D69 PUSH1 0x0 DUP3 ADD MSTORE PUSH32 0x6E742E0000000000000000000000000000000000000000000000000000000000 PUSH1 0x20 DUP3 ADD MSTORE POP JUMP JUMPDEST PUSH32 0x4E6F7420656E6F7567682065746865722073656E740000000000000000000000 PUSH1 0x0 DUP3 ADD MSTORE POP JUMP JUMPDEST PUSH32 0x455243313135353A2073657474696E6720617070726F76616C20737461747573 PUSH1 0x0 DUP3 ADD MSTORE PUSH32 0x20666F722073656C660000000000000000000000000000000000000000000000 PUSH1 0x20 DUP3 ADD MSTORE POP JUMP JUMPDEST PUSH32 0x455243313135353A206163636F756E747320616E6420696473206C656E677468 PUSH1 0x0 DUP3 ADD MSTORE PUSH32 0x206D69736D617463680000000000000000000000000000000000000000000000 PUSH1 0x20 DUP3 ADD MSTORE POP JUMP JUMPDEST PUSH32 0x455243313135353A2069647320616E6420616D6F756E7473206C656E67746820 PUSH1 0x0 DUP3 ADD MSTORE PUSH32 0x6D69736D61746368000000000000000000000000000000000000000000000000 PUSH1 0x20 DUP3 ADD MSTORE POP JUMP JUMPDEST PUSH32 0x455243313135353A206D696E7420746F20746865207A65726F20616464726573 PUSH1 0x0 DUP3 ADD MSTORE PUSH32 0x7300000000000000000000000000000000000000000000000000000000000000 PUSH1 0x20 DUP3 ADD MSTORE POP JUMP JUMPDEST PUSH1 0x0 PUSH1 0x44 RETURNDATASIZE LT ISZERO PUSH2 0x5BB3 JUMPI PUSH2 0x5C36 JUMP JUMPDEST PUSH2 0x5BBB PUSH2 0x50A8 JUMP JUMPDEST PUSH1 0x4 RETURNDATASIZE SUB PUSH1 0x4 DUP3 RETURNDATACOPY DUP1 MLOAD RETURNDATASIZE PUSH1 0x24 DUP3 ADD GT PUSH8 0xFFFFFFFFFFFFFFFF DUP3 GT OR ISZERO PUSH2 0x5BE3 JUMPI POP POP PUSH2 0x5C36 JUMP JUMPDEST DUP1 DUP3 ADD DUP1 MLOAD PUSH8 0xFFFFFFFFFFFFFFFF DUP2 GT ISZERO PUSH2 0x5C01 JUMPI POP POP POP POP PUSH2 0x5C36 JUMP JUMPDEST DUP1 PUSH1 0x20 DUP4 ADD ADD PUSH1 0x4 RETURNDATASIZE SUB DUP6 ADD DUP2 GT ISZERO PUSH2 0x5C1E JUMPI POP POP POP POP POP PUSH2 0x5C36 JUMP JUMPDEST PUSH2 0x5C2D DUP3 PUSH1 0x20 ADD DUP6 ADD DUP7 PUSH2 0x5361 JUMP JUMPDEST DUP3 SWAP6 POP POP POP POP POP POP JUMPDEST SWAP1 JUMP JUMPDEST PUSH2 0x5C42 DUP2 PUSH2 0x5267 JUMP JUMPDEST DUP2 EQ PUSH2 0x5C4D JUMPI PUSH1 0x0 DUP1 REVERT JUMPDEST POP JUMP JUMPDEST PUSH2 0x5C59 DUP2 PUSH2 0x5279 JUMP JUMPDEST DUP2 EQ PUSH2 0x5C64 JUMPI PUSH1 0x0 DUP1 REVERT JUMPDEST POP JUMP JUMPDEST PUSH2 0x5C70 DUP2 PUSH2 0x5285 JUMP JUMPDEST DUP2 EQ PUSH2 0x5C7B JUMPI PUSH1 0x0 DUP1 REVERT JUMPDEST POP JUMP JUMPDEST PUSH2 0x5C87 DUP2 PUSH2 0x52D1 JUMP JUMPDEST DUP2 EQ PUSH2 0x5C92 JUMPI PUSH1 0x0 DUP1 REVERT JUMPDEST POP JUMP INVALID LOG2 PUSH5 0x6970667358 0x22 SLT KECCAK256 DUP6 LOG3 LOG4 SELFBALANCE PUSH12 0x91DE389D2C43869A5EA6CF38 SELFDESTRUCT PC 0xEE 0x21 PUSH31 0xE8753643994E796A0FF764736F6C6343000807003300000000000000000000 "
		},
		"gasEstimates": {
			"creation": {
				"codeDepositCost": "4751000",
				"executionCost": "infinite",
				"totalCost": "infinite"
			},
			"external": {
				"IsWhitelisted(address)": "2887",
				"RemoveWhitelist(address[],uint256)": "infinite",
				"WhitelistAddresses(address[],uint256)": "infinite",
				"balanceOf(address,uint256)": "infinite",
				"balanceOfBatch(address[],uint256[])": "infinite",
				"burn(address,uint256,uint256)": "infinite",
				"burn(uint256,uint256)": "infinite",
				"burnBatch(address,uint256[],uint256[])": "infinite",
				"burnBatch(uint256[],uint256[])": "infinite",
				"burnForMint(address,uint256[],uint256[],uint256[],uint256[])": "infinite",
				"contractBalance()": "2788",
				"exists(uint256)": "2881",
				"getWhitelistCount(uint256)": "infinite",
				"isApprovedForAll(address,address)": "infinite",
				"mint(address)": "infinite",
				"mintBatch(address,uint256[],uint256[])": "infinite",
				"name()": "infinite",
				"owner()": "2567",
				"pause()": "infinite",
				"paused()": "2619",
				"renounceOwnership()": "30463",
				"safeBatchTransferFrom(address,address,uint256[],uint256[],bytes)": "infinite",
				"safeTransferFrom(address,address,uint256,uint256,bytes)": "infinite",
				"setApprovalForAll(address,bool)": "infinite",
				"setURI(uint256,string)": "infinite",
				"supportsInterface(bytes4)": "842",
				"tokenURI(uint256)": "infinite",
				"totalSupply(uint256)": "infinite",
				"transferOwnership(address)": "30833",
				"unpause()": "infinite",
				"uri(uint256)": "infinite",
				"whitelist(address)": "2881",
				"withdrawAll()": "infinite"
			},
			"internal": {
				"_RemoveWhitelist(address[] memory,uint256)": "infinite",
				"_beforeTokenTransfer(address,address,address,uint256[] memory,uint256[] memory,bytes memory)": "infinite"
			}
		},
		"methodIdentifiers": {
			"IsWhitelisted(address)": "2ae5d2f9",
			"RemoveWhitelist(address[],uint256)": "f2a73fbb",
			"WhitelistAddresses(address[],uint256)": "6ac3274e",
			"balanceOf(address,uint256)": "00fdd58e",
			"balanceOfBatch(address[],uint256[])": "4e1273f4",
			"burn(address,uint256,uint256)": "f5298aca",
			"burn(uint256,uint256)": "b390c0ab",
			"burnBatch(address,uint256[],uint256[])": "6b20c454",
			"burnBatch(uint256[],uint256[])": "83ca4b6f",
			"burnForMint(address,uint256[],uint256[],uint256[],uint256[])": "510f4104",
			"contractBalance()": "8b7afe2e",
			"exists(uint256)": "4f558e79",
			"getWhitelistCount(uint256)": "acb3180f",
			"isApprovedForAll(address,address)": "e985e9c5",
			"mint(address)": "6a627842",
			"mintBatch(address,uint256[],uint256[])": "d81d0a15",
			"name()": "06fdde03",
			"owner()": "8da5cb5b",
			"pause()": "8456cb59",
			"paused()": "5c975abb",
			"renounceOwnership()": "715018a6",
			"safeBatchTransferFrom(address,address,uint256[],uint256[],bytes)": "2eb2c2d6",
			"safeTransferFrom(address,address,uint256,uint256,bytes)": "f242432a",
			"setApprovalForAll(address,bool)": "a22cb465",
			"setURI(uint256,string)": "862440e2",
			"supportsInterface(bytes4)": "01ffc9a7",
			"tokenURI(uint256)": "c87b56dd",
			"totalSupply(uint256)": "bd85b039",
			"transferOwnership(address)": "f2fde38b",
			"unpause()": "3f4ba83a",
			"uri(uint256)": "0e89341c",
			"whitelist(address)": "9b19251a",
			"withdrawAll()": "853828b6"
		}
	},
	"abi": [
		{
			"inputs": [],
			"stateMutability": "nonpayable",
			"type": "constructor"
		},
		{
			"anonymous": false,
			"inputs": [
				{
					"indexed": true,
					"internalType": "address",
					"name": "account",
					"type": "address"
				},
				{
					"indexed": true,
					"internalType": "address",
					"name": "operator",
					"type": "address"
				},
				{
					"indexed": false,
					"internalType": "bool",
					"name": "approved",
					"type": "bool"
				}
			],
			"name": "ApprovalForAll",
			"type": "event"
		},
		{
			"anonymous": false,
			"inputs": [
				{
					"indexed": false,
					"internalType": "string",
					"name": "msg",
					"type": "string"
				},
				{
					"indexed": false,
					"internalType": "address",
					"name": "_id",
					"type": "address"
				},
				{
					"indexed": false,
					"internalType": "uint256",
					"name": "count",
					"type": "uint256"
				},
				{
					"indexed": false,
					"internalType": "uint256",
					"name": "addressvalue",
					"type": "uint256"
				}
			],
			"name": "Log",
			"type": "event"
		},
		{
			"anonymous": false,
			"inputs": [
				{
					"indexed": true,
					"internalType": "address",
					"name": "previousOwner",
					"type": "address"
				},
				{
					"indexed": true,
					"internalType": "address",
					"name": "newOwner",
					"type": "address"
				}
			],
			"name": "OwnershipTransferred",
			"type": "event"
		},
		{
			"anonymous": false,
			"inputs": [
				{
					"indexed": false,
					"internalType": "address",
					"name": "account",
					"type": "address"
				}
			],
			"name": "Paused",
			"type": "event"
		},
		{
			"anonymous": false,
			"inputs": [
				{
					"indexed": true,
					"internalType": "address",
					"name": "operator",
					"type": "address"
				},
				{
					"indexed": true,
					"internalType": "address",
					"name": "from",
					"type": "address"
				},
				{
					"indexed": true,
					"internalType": "address",
					"name": "to",
					"type": "address"
				},
				{
					"indexed": false,
					"internalType": "uint256[]",
					"name": "ids",
					"type": "uint256[]"
				},
				{
					"indexed": false,
					"internalType": "uint256[]",
					"name": "values",
					"type": "uint256[]"
				}
			],
			"name": "TransferBatch",
			"type": "event"
		},
		{
			"anonymous": false,
			"inputs": [
				{
					"indexed": true,
					"internalType": "address",
					"name": "operator",
					"type": "address"
				},
				{
					"indexed": true,
					"internalType": "address",
					"name": "from",
					"type": "address"
				},
				{
					"indexed": true,
					"internalType": "address",
					"name": "to",
					"type": "address"
				},
				{
					"indexed": false,
					"internalType": "uint256",
					"name": "id",
					"type": "uint256"
				},
				{
					"indexed": false,
					"internalType": "uint256",
					"name": "value",
					"type": "uint256"
				}
			],
			"name": "TransferSingle",
			"type": "event"
		},
		{
			"anonymous": false,
			"inputs": [
				{
					"indexed": false,
					"internalType": "string",
					"name": "value",
					"type": "string"
				},
				{
					"indexed": true,
					"internalType": "uint256",
					"name": "id",
					"type": "uint256"
				}
			],
			"name": "URI",
			"type": "event"
		},
		{
			"anonymous": false,
			"inputs": [
				{
					"indexed": false,
					"internalType": "address",
					"name": "account",
					"type": "address"
				}
			],
			"name": "Unpaused",
			"type": "event"
		},
		{
			"inputs": [
				{
					"internalType": "address",
					"name": "_address",
					"type": "address"
				}
			],
			"name": "IsWhitelisted",
			"outputs": [
				{
					"internalType": "uint256",
					"name": "",
					"type": "uint256"
				}
			],
			"stateMutability": "view",
			"type": "function"
		},
		{
			"inputs": [
				{
					"internalType": "address[]",
					"name": "_addresses",
					"type": "address[]"
				},
				{
					"internalType": "uint256",
					"name": "_id",
					"type": "uint256"
				}
			],
			"name": "RemoveWhitelist",
			"outputs": [],
			"stateMutability": "nonpayable",
			"type": "function"
		},
		{
			"inputs": [
				{
					"internalType": "address[]",
					"name": "_addresses",
					"type": "address[]"
				},
				{
					"internalType": "uint256",
					"name": "_id",
					"type": "uint256"
				}
			],
			"name": "WhitelistAddresses",
			"outputs": [],
			"stateMutability": "nonpayable",
			"type": "function"
		},
		{
			"inputs": [
				{
					"internalType": "address",
					"name": "account",
					"type": "address"
				},
				{
					"internalType": "uint256",
					"name": "id",
					"type": "uint256"
				}
			],
			"name": "balanceOf",
			"outputs": [
				{
					"internalType": "uint256",
					"name": "",
					"type": "uint256"
				}
			],
			"stateMutability": "view",
			"type": "function"
		},
		{
			"inputs": [
				{
					"internalType": "address[]",
					"name": "accounts",
					"type": "address[]"
				},
				{
					"internalType": "uint256[]",
					"name": "ids",
					"type": "uint256[]"
				}
			],
			"name": "balanceOfBatch",
			"outputs": [
				{
					"internalType": "uint256[]",
					"name": "",
					"type": "uint256[]"
				}
			],
			"stateMutability": "view",
			"type": "function"
		},
		{
			"inputs": [
				{
					"internalType": "uint256",
					"name": "_id",
					"type": "uint256"
				},
				{
					"internalType": "uint256",
					"name": "_amount",
					"type": "uint256"
				}
			],
			"name": "burn",
			"outputs": [],
			"stateMutability": "nonpayable",
			"type": "function"
		},
		{
			"inputs": [
				{
					"internalType": "address",
					"name": "account",
					"type": "address"
				},
				{
					"internalType": "uint256",
					"name": "id",
					"type": "uint256"
				},
				{
					"internalType": "uint256",
					"name": "value",
					"type": "uint256"
				}
			],
			"name": "burn",
			"outputs": [],
			"stateMutability": "nonpayable",
			"type": "function"
		},
		{
			"inputs": [
				{
					"internalType": "address",
					"name": "account",
					"type": "address"
				},
				{
					"internalType": "uint256[]",
					"name": "ids",
					"type": "uint256[]"
				},
				{
					"internalType": "uint256[]",
					"name": "values",
					"type": "uint256[]"
				}
			],
			"name": "burnBatch",
			"outputs": [],
			"stateMutability": "nonpayable",
			"type": "function"
		},
		{
			"inputs": [
				{
					"internalType": "uint256[]",
					"name": "_ids",
					"type": "uint256[]"
				},
				{
					"internalType": "uint256[]",
					"name": "_amounts",
					"type": "uint256[]"
				}
			],
			"name": "burnBatch",
			"outputs": [],
			"stateMutability": "nonpayable",
			"type": "function"
		},
		{
			"inputs": [
				{
					"internalType": "address",
					"name": "_from",
					"type": "address"
				},
				{
					"internalType": "uint256[]",
					"name": "_burnIds",
					"type": "uint256[]"
				},
				{
					"internalType": "uint256[]",
					"name": "_burnAmounts",
					"type": "uint256[]"
				},
				{
					"internalType": "uint256[]",
					"name": "_mintIds",
					"type": "uint256[]"
				},
				{
					"internalType": "uint256[]",
					"name": "_mintAmounts",
					"type": "uint256[]"
				}
			],
			"name": "burnForMint",
			"outputs": [],
			"stateMutability": "nonpayable",
			"type": "function"
		},
		{
			"inputs": [],
			"name": "contractBalance",
			"outputs": [
				{
					"internalType": "uint256",
					"name": "",
					"type": "uint256"
				}
			],
			"stateMutability": "view",
			"type": "function"
		},
		{
			"inputs": [
				{
					"internalType": "uint256",
					"name": "id",
					"type": "uint256"
				}
			],
			"name": "exists",
			"outputs": [
				{
					"internalType": "bool",
					"name": "",
					"type": "bool"
				}
			],
			"stateMutability": "view",
			"type": "function"
		},
		{
			"inputs": [
				{
					"internalType": "uint256",
					"name": "_id",
					"type": "uint256"
				}
			],
			"name": "getWhitelistCount",
			"outputs": [
				{
					"internalType": "uint256",
					"name": "",
					"type": "uint256"
				}
			],
			"stateMutability": "view",
			"type": "function"
		},
		{
			"inputs": [
				{
					"internalType": "address",
					"name": "account",
					"type": "address"
				},
				{
					"internalType": "address",
					"name": "operator",
					"type": "address"
				}
			],
			"name": "isApprovedForAll",
			"outputs": [
				{
					"internalType": "bool",
					"name": "",
					"type": "bool"
				}
			],
			"stateMutability": "view",
			"type": "function"
		},
		{
			"inputs": [
				{
					"internalType": "address",
					"name": "_to",
					"type": "address"
				}
			],
			"name": "mint",
			"outputs": [],
			"stateMutability": "payable",
			"type": "function"
		},
		{
			"inputs": [
				{
					"internalType": "address",
					"name": "_to",
					"type": "address"
				},
				{
					"internalType": "uint256[]",
					"name": "_ids",
					"type": "uint256[]"
				},
				{
					"internalType": "uint256[]",
					"name": "_amounts",
					"type": "uint256[]"
				}
			],
			"name": "mintBatch",
			"outputs": [],
			"stateMutability": "nonpayable",
			"type": "function"
		},
		{
			"inputs": [],
			"name": "name",
			"outputs": [
				{
					"internalType": "string",
					"name": "",
					"type": "string"
				}
			],
			"stateMutability": "view",
			"type": "function"
		},
		{
			"inputs": [],
			"name": "owner",
			"outputs": [
				{
					"internalType": "address",
					"name": "",
					"type": "address"
				}
			],
			"stateMutability": "view",
			"type": "function"
		},
		{
			"inputs": [],
			"name": "pause",
			"outputs": [],
			"stateMutability": "nonpayable",
			"type": "function"
		},
		{
			"inputs": [],
			"name": "paused",
			"outputs": [
				{
					"internalType": "bool",
					"name": "",
					"type": "bool"
				}
			],
			"stateMutability": "view",
			"type": "function"
		},
		{
			"inputs": [],
			"name": "renounceOwnership",
			"outputs": [],
			"stateMutability": "nonpayable",
			"type": "function"
		},
		{
			"inputs": [
				{
					"internalType": "address",
					"name": "from",
					"type": "address"
				},
				{
					"internalType": "address",
					"name": "to",
					"type": "address"
				},
				{
					"internalType": "uint256[]",
					"name": "ids",
					"type": "uint256[]"
				},
				{
					"internalType": "uint256[]",
					"name": "amounts",
					"type": "uint256[]"
				},
				{
					"internalType": "bytes",
					"name": "data",
					"type": "bytes"
				}
			],
			"name": "safeBatchTransferFrom",
			"outputs": [],
			"stateMutability": "nonpayable",
			"type": "function"
		},
		{
			"inputs": [
				{
					"internalType": "address",
					"name": "from",
					"type": "address"
				},
				{
					"internalType": "address",
					"name": "to",
					"type": "address"
				},
				{
					"internalType": "uint256",
					"name": "id",
					"type": "uint256"
				},
				{
					"internalType": "uint256",
					"name": "amount",
					"type": "uint256"
				},
				{
					"internalType": "bytes",
					"name": "data",
					"type": "bytes"
				}
			],
			"name": "safeTransferFrom",
			"outputs": [],
			"stateMutability": "nonpayable",
			"type": "function"
		},
		{
			"inputs": [
				{
					"internalType": "address",
					"name": "operator",
					"type": "address"
				},
				{
					"internalType": "bool",
					"name": "approved",
					"type": "bool"
				}
			],
			"name": "setApprovalForAll",
			"outputs": [],
			"stateMutability": "nonpayable",
			"type": "function"
		},
		{
			"inputs": [
				{
					"internalType": "uint256",
					"name": "_id",
					"type": "uint256"
				},
				{
					"internalType": "string",
					"name": "_uri",
					"type": "string"
				}
			],
			"name": "setURI",
			"outputs": [],
			"stateMutability": "nonpayable",
			"type": "function"
		},
		{
			"inputs": [
				{
					"internalType": "bytes4",
					"name": "interfaceId",
					"type": "bytes4"
				}
			],
			"name": "supportsInterface",
			"outputs": [
				{
					"internalType": "bool",
					"name": "",
					"type": "bool"
				}
			],
			"stateMutability": "view",
			"type": "function"
		},
		{
			"inputs": [
				{
					"internalType": "uint256",
					"name": "",
					"type": "uint256"
				}
			],
			"name": "tokenURI",
			"outputs": [
				{
					"internalType": "string",
					"name": "",
					"type": "string"
				}
			],
			"stateMutability": "view",
			"type": "function"
		},
		{
			"inputs": [
				{
					"internalType": "uint256",
					"name": "id",
					"type": "uint256"
				}
			],
			"name": "totalSupply",
			"outputs": [
				{
					"internalType": "uint256",
					"name": "",
					"type": "uint256"
				}
			],
			"stateMutability": "view",
			"type": "function"
		},
		{
			"inputs": [
				{
					"internalType": "address",
					"name": "newOwner",
					"type": "address"
				}
			],
			"name": "transferOwnership",
			"outputs": [],
			"stateMutability": "nonpayable",
			"type": "function"
		},
		{
			"inputs": [],
			"name": "unpause",
			"outputs": [],
			"stateMutability": "nonpayable",
			"type": "function"
		},
		{
			"inputs": [
				{
					"internalType": "uint256",
					"name": "_id",
					"type": "uint256"
				}
			],
			"name": "uri",
			"outputs": [
				{
					"internalType": "string",
					"name": "",
					"type": "string"
				}
			],
			"stateMutability": "view",
			"type": "function"
		},
		{
			"inputs": [
				{
					"internalType": "address",
					"name": "",
					"type": "address"
				}
			],
			"name": "whitelist",
			"outputs": [
				{
					"internalType": "uint256",
					"name": "",
					"type": "uint256"
				}
			],
			"stateMutability": "view",
			"type": "function"
		},
		{
			"inputs": [],
			"name": "withdrawAll",
			"outputs": [],
			"stateMutability": "payable",
			"type": "function"
		}
	]
}