{
	"data": {
		"bytecode": {
			"linkReferences": {},
			"object": "60806040526040518060400160405280601881526020017f466f7274756e652054726561737572652048756e74696e67000000000000000081525060059080519060200190620000519291906200030c565b506040518060400160405280600481526020017f464f525400000000000000000000000000000000000000000000000000000000815250600690805190602001906200009f9291906200030c565b506040518060400160405280610fa061ffff16815260200160fa61ffff168152506007906002620000d29291906200039d565b506040518060400160405280600060ff168152602001600060ff16815250600890600262000102929190620003f5565b50604051806040016040528066038d7ea4c6800066ffffffffffffff168152602001600066ffffffffffffff168152506009906002620001449291906200044c565b506040518060400160405280600060ff168152602001600060ff16815250600a90600262000174929190620003f5565b503480156200018257600080fd5b5060405180602001604052806000815250620001a4816200022260201b60201c565b50620001c5620001b96200023e60201b60201c565b6200024660201b60201c565b6000600360146101000a81548160ff0219169083151502179055506005808054620001f09062000560565b620001fd929190620004a9565b5060068080546200020e9062000560565b6200021b929190620004a9565b50620005c5565b80600290805190602001906200023a9291906200030c565b5050565b600033905090565b6000600360009054906101000a900473ffffffffffffffffffffffffffffffffffffffff16905081600360006101000a81548173ffffffffffffffffffffffffffffffffffffffff021916908373ffffffffffffffffffffffffffffffffffffffff1602179055508173ffffffffffffffffffffffffffffffffffffffff168173ffffffffffffffffffffffffffffffffffffffff167f8be0079c531659141344cd1fd0a4f28419497f9722a3daafe3b4186f6b6457e060405160405180910390a35050565b8280546200031a9062000560565b90600052602060002090601f0160209004810192826200033e57600085556200038a565b82601f106200035957805160ff19168380011785556200038a565b828001600101855582156200038a579182015b82811115620003895782518255916020019190600101906200036c565b5b50905062000399919062000541565b5090565b828054828255906000526020600020908101928215620003e2579160200282015b82811115620003e1578251829061ffff16905591602001919060010190620003be565b5b509050620003f1919062000541565b5090565b82805482825590600052602060002090810192821562000439579160200282015b8281111562000438578251829060ff1690559160200191906001019062000416565b5b50905062000448919062000541565b5090565b82805482825590600052602060002090810192821562000496579160200282015b8281111562000495578251829066ffffffffffffff169055916020019190600101906200046d565b5b509050620004a5919062000541565b5090565b828054620004b79062000560565b90600052602060002090601f016020900481019282620004db57600085556200052e565b82601f10620004ee57805485556200052e565b828001600101855582156200052e57600052602060002091601f016020900482015b828111156200052d57825482559160010191906001019062000510565b5b5090506200053d919062000541565b5090565b5b808211156200055c57600081600090555060010162000542565b5090565b600060028204905060018216806200057957607f821691505b6020821081141562000590576200058f62000596565b5b50919050565b7f4e487b7100000000000000000000000000000000000000000000000000000000600052602260045260246000fd5b615ff980620005d56000396000f3fe6080604052600436106101f85760003560e01c80638456cb591161010d578063acb3180f116100a0578063d81d0a151161006f578063d81d0a1514610712578063e985e9c51461073b578063f242432a14610778578063f2fde38b146107a1578063f5298aca146107ca576101f8565b8063acb3180f14610632578063b390c0ab1461066f578063bd85b03914610698578063c87b56dd146106d5576101f8565b80638da5cb5b116100dc5780638da5cb5b1461057657806395d89b41146105a15780639b19251a146105cc578063a22cb46514610609576101f8565b80638456cb5914610501578063853828b614610518578063862440e2146105225780638b7afe2e1461054b576101f8565b80634e1273f4116101905780635c975abb1161015f5780635c975abb146104515780636a6278421461047c5780636b20c45414610498578063715018a6146104c157806383ca4b6f146104d8576101f8565b80634e1273f4146103855780634f558e79146103c257806350f787dc146103ff578063510f410414610428576101f8565b80632ae5d2f9116101cc5780632ae5d2f9146102df5780632eb2c2d61461031c57806336576424146103455780633f4ba83a1461036e576101f8565b8062fdd58e146101fd57806301ffc9a71461023a57806306fdde03146102775780630e89341c146102a2575b600080fd5b34801561020957600080fd5b50610224600480360381019061021f919061464b565b6107f3565b6040516102319190615369565b60405180910390f35b34801561024657600080fd5b50610261600480360381019061025c919061482a565b6108bc565b60405161026e9190614f44565b60405180910390f35b34801561028357600080fd5b5061028c61099e565b6040516102999190614f5f565b60405180910390f35b3480156102ae57600080fd5b506102c960048036038101906102c49190614884565b610a2c565b6040516102d69190614f5f565b60405180910390f35b3480156102eb57600080fd5b50610306600480360381019061030191906142c2565b610ad1565b6040516103139190615369565b60405180910390f35b34801561032857600080fd5b50610343600480360381019061033e919061432f565b610b1a565b005b34801561035157600080fd5b5061036c60048036038101906103679190614756565b610bbb565b005b34801561037a57600080fd5b50610383611187565b005b34801561039157600080fd5b506103ac60048036038101906103a791906146de565b61120d565b6040516103b99190614eeb565b60405180910390f35b3480156103ce57600080fd5b506103e960048036038101906103e49190614884565b611326565b6040516103f69190614f44565b60405180910390f35b34801561040b57600080fd5b5061042660048036038101906104219190614756565b61133a565b005b34801561043457600080fd5b5061044f600480360381019061044a9190614520565b611520565b005b34801561045d57600080fd5b506104666115c9565b6040516104739190614f44565b60405180910390f35b610496600480360381019061049191906142c2565b6115e0565b005b3480156104a457600080fd5b506104bf60048036038101906104ba9190614495565b611af2565b005b3480156104cd57600080fd5b506104d6611b8f565b005b3480156104e457600080fd5b506104ff60048036038101906104fa91906147b2565b611c17565b005b34801561050d57600080fd5b50610516611c26565b005b610520611cac565b005b34801561052e57600080fd5b50610549600480360381019061054491906148b1565b611d71565b005b34801561055757600080fd5b50610560611e51565b60405161056d9190615369565b60405180910390f35b34801561058257600080fd5b5061058b611ed5565b6040516105989190614e0e565b60405180910390f35b3480156105ad57600080fd5b506105b6611eff565b6040516105c39190614f5f565b60405180910390f35b3480156105d857600080fd5b506105f360048036038101906105ee91906142c2565b611f8d565b6040516106009190615369565b60405180910390f35b34801561061557600080fd5b50610630600480360381019061062b919061460b565b611fa5565b005b34801561063e57600080fd5b5061065960048036038101906106549190614884565b611fbb565b6040516106669190615369565b60405180910390f35b34801561067b57600080fd5b506106966004803603810190610691919061490d565b611fef565b005b3480156106a457600080fd5b506106bf60048036038101906106ba9190614884565b611ffe565b6040516106cc9190615369565b60405180910390f35b3480156106e157600080fd5b506106fc60048036038101906106f79190614884565b61201b565b6040516107099190614f5f565b60405180910390f35b34801561071e57600080fd5b5061073960048036038101906107349190614495565b6120bb565b005b34801561074757600080fd5b50610762600480360381019061075d91906142ef565b612157565b60405161076f9190614f44565b60405180910390f35b34801561078457600080fd5b5061079f600480360381019061079a91906143fe565b6121eb565b005b3480156107ad57600080fd5b506107c860048036038101906107c391906142c2565b61228c565b005b3480156107d657600080fd5b506107f160048036038101906107ec919061468b565b612384565b005b60008073ffffffffffffffffffffffffffffffffffffffff168373ffffffffffffffffffffffffffffffffffffffff161415610864576040517f08c379a000000000000000000000000000000000000000000000000000000000815260040161085b9061506b565b60405180910390fd5b60008083815260200190815260200160002060008473ffffffffffffffffffffffffffffffffffffffff1673ffffffffffffffffffffffffffffffffffffffff16815260200190815260200160002054905092915050565b60007fd9b67a26000000000000000000000000000000000000000000000000000000007bffffffffffffffffffffffffffffffffffffffffffffffffffffffff1916827bffffffffffffffffffffffffffffffffffffffffffffffffffffffff1916148061098757507f0e89341c000000000000000000000000000000000000000000000000000000007bffffffffffffffffffffffffffffffffffffffffffffffffffffffff1916827bffffffffffffffffffffffffffffffffffffffffffffffffffffffff1916145b80610997575061099682612421565b5b9050919050565b600580546109ab9061565c565b80601f01602080910402602001604051908101604052809291908181526020018280546109d79061565c565b8015610a245780601f106109f957610100808354040283529160200191610a24565b820191906000526020600020905b815481529060010190602001808311610a0757829003601f168201915b505050505081565b6060600b60008381526020019081526020016000208054610a4c9061565c565b80601f0160208091040260200160405190810160405280929190818152602001828054610a789061565c565b8015610ac55780601f10610a9a57610100808354040283529160200191610ac5565b820191906000526020600020905b815481529060010190602001808311610aa857829003601f168201915b50505050509050919050565b6000600c60008373ffffffffffffffffffffffffffffffffffffffff1673ffffffffffffffffffffffffffffffffffffffff168152602001908152602001600020549050919050565b610b2261248b565b73ffffffffffffffffffffffffffffffffffffffff168573ffffffffffffffffffffffffffffffffffffffff161480610b685750610b6785610b6261248b565b612157565b5b610ba7576040517f08c379a0000000000000000000000000000000000000000000000000000000008152600401610b9e906151df565b60405180910390fd5b610bb48585858585612493565b5050505050565b610bc361248b565b73ffffffffffffffffffffffffffffffffffffffff16610be1611ed5565b73ffffffffffffffffffffffffffffffffffffffff1614610c37576040517f08c379a0000000000000000000000000000000000000000000000000000000008152600401610c2e90615289565b60405180910390fd5b807fa2455ec11f160d321516c021994881e7678c0b5870cd7aae50107098770e2c28336000600c60003373ffffffffffffffffffffffffffffffffffffffff1673ffffffffffffffffffffffffffffffffffffffff16815260200190815260200160002054604051610cab93929190615001565b60405180910390a16007805490508111158015610cc85750600081115b610d07576040517f08c379a0000000000000000000000000000000000000000000000000000000008152600401610cfe90614fa1565b60405180910390fd5b60006040518060400160405280600060ff168152602001600060ff16815250905060005b8451811015610f59576000600c6000878481518110610d4d57610d4c615790565b5b602002602001015173ffffffffffffffffffffffffffffffffffffffff1673ffffffffffffffffffffffffffffffffffffffff168152602001908152602001600020541415610e6d5783600c6000878481518110610dae57610dad615790565b5b602002602001015173ffffffffffffffffffffffffffffffffffffffff1673ffffffffffffffffffffffffffffffffffffffff1681526020019081526020016000208190555081600185610e029190615553565b60028110610e1357610e12615790565b5b602002018051809190610e2590615708565b60ff1660ff168152505060018414610e685781600060028110610e4b57610e4a615790565b5b602002018051809190610e5d90615708565b60ff1660ff16815250505b610f46565b7fa2455ec11f160d321516c021994881e7678c0b5870cd7aae50107098770e2c28858281518110610ea157610ea0615790565b5b6020026020010151600a600187610eb89190615553565b81548110610ec957610ec8615790565b5b9060005260206000200154600c6000898681518110610eeb57610eea615790565b5b602002602001015173ffffffffffffffffffffffffffffffffffffffff1673ffffffffffffffffffffffffffffffffffffffff16815260200190815260200160002054604051610f3d93929190615115565b60405180910390a15b8080610f51906156bf565b915050610d2b565b506007600184610f699190615553565b81548110610f7a57610f79615790565b5b906000526020600020015481600185610f939190615553565b60028110610fa457610fa3615790565b5b602002015160ff16600a600186610fbb9190615553565b81548110610fcc57610fcb615790565b5b9060005260206000200154610fe191906154fd565b1115611022576040517f08c379a00000000000000000000000000000000000000000000000000000000081526004016110199061517f565b60405180910390fd5b600760008154811061103757611036615790565b5b90600052602060002001548160006002811061105657611055615790565b5b602002015160ff16600a60008154811061107357611072615790565b5b906000526020600020015461108891906154fd565b11156110c9576040517f08c379a00000000000000000000000000000000000000000000000000000000081526004016110c09061517f565b60405180910390fd5b806001846110d79190615553565b600281106110e8576110e7615790565b5b602002015160ff16600a6001856110ff9190615553565b815481106111105761110f615790565b5b90600052602060002001600082825461112991906154fd565b925050819055508060006002811061114457611143615790565b5b602002015160ff16600a60008154811061116157611160615790565b5b90600052602060002001600082825461117a91906154fd565b9250508190555050505050565b61118f61248b565b73ffffffffffffffffffffffffffffffffffffffff166111ad611ed5565b73ffffffffffffffffffffffffffffffffffffffff1614611203576040517f08c379a00000000000000000000000000000000000000000000000000000000081526004016111fa90615289565b60405180910390fd5b61120b6127a7565b565b60608151835114611253576040517f08c379a000000000000000000000000000000000000000000000000000000000815260040161124a90615309565b60405180910390fd5b6000835167ffffffffffffffff8111156112705761126f6157bf565b5b60405190808252806020026020018201604052801561129e5781602001602082028036833780820191505090505b50905060005b845181101561131b576112eb8582815181106112c3576112c2615790565b5b60200260200101518583815181106112de576112dd615790565b5b60200260200101516107f3565b8282815181106112fe576112fd615790565b5b60200260200101818152505080611314906156bf565b90506112a4565b508091505092915050565b60008061133283611ffe565b119050919050565b61134261248b565b73ffffffffffffffffffffffffffffffffffffffff16611360611ed5565b73ffffffffffffffffffffffffffffffffffffffff16146113b6576040517f08c379a00000000000000000000000000000000000000000000000000000000081526004016113ad90615289565b60405180910390fd5b807fa2455ec11f160d321516c021994881e7678c0b5870cd7aae50107098770e2c28336000600c60003373ffffffffffffffffffffffffffffffffffffffff1673ffffffffffffffffffffffffffffffffffffffff1681526020019081526020016000205460405161142a93929190615001565b60405180910390a160078054905081111580156114475750600081115b611486576040517f08c379a000000000000000000000000000000000000000000000000000000000815260040161147d90614fa1565b60405180910390fd5b6000805b84518110156114d8576114b78582815181106114a9576114a8615790565b5b602002602001015185612849565b81806114c2906156bf565b92505080806114d0906156bf565b91505061148a565b5080600a6001856114e99190615553565b815481106114fa576114f9615790565b5b9060005260206000200160008282546115139190615553565b9250508190555050505050565b61152861248b565b73ffffffffffffffffffffffffffffffffffffffff16611546611ed5565b73ffffffffffffffffffffffffffffffffffffffff161461159c576040517f08c379a000000000000000000000000000000000000000000000000000000000815260040161159390615289565b60405180910390fd5b6115a7858585612b75565b6115c285838360405180602001604052806000815250612e26565b5050505050565b6000600360149054906101000a900460ff16905090565b6115e861248b565b73ffffffffffffffffffffffffffffffffffffffff16611606611ed5565b73ffffffffffffffffffffffffffffffffffffffff161461165c576040517f08c379a000000000000000000000000000000000000000000000000000000000815260040161165390615289565b60405180910390fd5b6116646115c9565b156116a4576040517f08c379a000000000000000000000000000000000000000000000000000000000815260040161169b9061519f565b60405180910390fd5b807fa2455ec11f160d321516c021994881e7678c0b5870cd7aae50107098770e2c28336000600c60003373ffffffffffffffffffffffffffffffffffffffff1673ffffffffffffffffffffffffffffffffffffffff16815260200190815260200160002054604051611718939291906150ab565b60405180910390a16000600c60008373ffffffffffffffffffffffffffffffffffffffff1673ffffffffffffffffffffffffffffffffffffffff1681526020019081526020016000205414156117a3576040517f08c379a000000000000000000000000000000000000000000000000000000000815260040161179a906152a9565b60405180910390fd5b60006117ae83610ad1565b905060078054905081111580156117c55750600081115b611804576040517f08c379a00000000000000000000000000000000000000000000000000000000081526004016117fb90614fa1565b60405180910390fd5b60006001826118139190615553565b90506007818154811061182957611828615790565b5b906000526020600020015460016008838154811061184a57611849615790565b5b906000526020600020015461185f91906154fd565b11156118a0576040517f08c379a00000000000000000000000000000000000000000000000000000000081526004016118979061504b565b60405180910390fd5b600981815481106118b4576118b3615790565b5b9060005260206000200154341015611901576040517f08c379a00000000000000000000000000000000000000000000000000000000081526004016118f8906152c9565b60405180910390fd5b61191d8483600160405180602001604052806000815250613044565b6008818154811061193157611930615790565b5b90600052602060002001600081548092919061194c906156bf565b919050555060018214611ae15760006001905060078054905081111580156119745750600081115b6119b3576040517f08c379a00000000000000000000000000000000000000000000000000000000081526004016119aa90614fa1565b60405180910390fd5b60076001826119c29190615553565b815481106119d3576119d2615790565b5b9060005260206000200154600160086001846119ef9190615553565b81548110611a00576119ff615790565b5b9060005260206000200154611a1591906154fd565b1115611a56576040517f08c379a0000000000000000000000000000000000000000000000000000000008152600401611a4d9061504b565b60405180910390fd5b6009600182611a659190615553565b81548110611a7657611a75615790565b5b9060005260206000200154341015611ac3576040517f08c379a0000000000000000000000000000000000000000000000000000000008152600401611aba906152c9565b60405180910390fd5b611adf8582600160405180602001604052806000815250613044565b505b611aec846001612849565b50505050565b611afa61248b565b73ffffffffffffffffffffffffffffffffffffffff168373ffffffffffffffffffffffffffffffffffffffff161480611b405750611b3f83611b3a61248b565b612157565b5b611b7f576040517f08c379a0000000000000000000000000000000000000000000000000000000008152600401611b769061515f565b60405180910390fd5b611b8a838383612b75565b505050565b611b9761248b565b73ffffffffffffffffffffffffffffffffffffffff16611bb5611ed5565b73ffffffffffffffffffffffffffffffffffffffff1614611c0b576040517f08c379a0000000000000000000000000000000000000000000000000000000008152600401611c0290615289565b60405180910390fd5b611c1560006131da565b565b611c22338383612b75565b5050565b611c2e61248b565b73ffffffffffffffffffffffffffffffffffffffff16611c4c611ed5565b73ffffffffffffffffffffffffffffffffffffffff1614611ca2576040517f08c379a0000000000000000000000000000000000000000000000000000000008152600401611c9990615289565b60405180910390fd5b611caa6132a0565b565b611cb461248b565b73ffffffffffffffffffffffffffffffffffffffff16611cd2611ed5565b73ffffffffffffffffffffffffffffffffffffffff1614611d28576040517f08c379a0000000000000000000000000000000000000000000000000000000008152600401611d1f90615289565b60405180910390fd5b3373ffffffffffffffffffffffffffffffffffffffff166108fc479081150290604051600060405180830381858888f19350505050158015611d6e573d6000803e3d6000fd5b50565b611d7961248b565b73ffffffffffffffffffffffffffffffffffffffff16611d97611ed5565b73ffffffffffffffffffffffffffffffffffffffff1614611ded576040517f08c379a0000000000000000000000000000000000000000000000000000000008152600401611de490615289565b60405180910390fd5b80600b60008481526020019081526020016000209080519060200190611e14929190613f9a565b50817f6bb7ff708619ba0610cba295a58592e0451dee2622938c8755667688daf3529b82604051611e459190614f5f565b60405180910390a25050565b6000611e5b61248b565b73ffffffffffffffffffffffffffffffffffffffff16611e79611ed5565b73ffffffffffffffffffffffffffffffffffffffff1614611ecf576040517f08c379a0000000000000000000000000000000000000000000000000000000008152600401611ec690615289565b60405180910390fd5b47905090565b6000600360009054906101000a900473ffffffffffffffffffffffffffffffffffffffff16905090565b60068054611f0c9061565c565b80601f0160208091040260200160405190810160405280929190818152602001828054611f389061565c565b8015611f855780601f10611f5a57610100808354040283529160200191611f85565b820191906000526020600020905b815481529060010190602001808311611f6857829003601f168201915b505050505081565b600c6020528060005260406000206000915090505481565b611fb7611fb061248b565b8383613343565b5050565b6000600a600183611fcc9190615553565b81548110611fdd57611fdc615790565b5b90600052602060002001549050919050565b611ffa3383836134b0565b5050565b600060046000838152602001908152602001600020549050919050565b600b602052806000526040600020600091509050805461203a9061565c565b80601f01602080910402602001604051908101604052809291908181526020018280546120669061565c565b80156120b35780601f10612088576101008083540402835291602001916120b3565b820191906000526020600020905b81548152906001019060200180831161209657829003601f168201915b505050505081565b6120c361248b565b73ffffffffffffffffffffffffffffffffffffffff166120e1611ed5565b73ffffffffffffffffffffffffffffffffffffffff1614612137576040517f08c379a000000000000000000000000000000000000000000000000000000000815260040161212e90615289565b60405180910390fd5b61215283838360405180602001604052806000815250612e26565b505050565b6000600160008473ffffffffffffffffffffffffffffffffffffffff1673ffffffffffffffffffffffffffffffffffffffff16815260200190815260200160002060008373ffffffffffffffffffffffffffffffffffffffff1673ffffffffffffffffffffffffffffffffffffffff16815260200190815260200160002060009054906101000a900460ff16905092915050565b6121f361248b565b73ffffffffffffffffffffffffffffffffffffffff168573ffffffffffffffffffffffffffffffffffffffff16148061223957506122388561223361248b565b612157565b5b612278576040517f08c379a000000000000000000000000000000000000000000000000000000000815260040161226f9061515f565b60405180910390fd5b61228585858585856136cd565b5050505050565b61229461248b565b73ffffffffffffffffffffffffffffffffffffffff166122b2611ed5565b73ffffffffffffffffffffffffffffffffffffffff1614612308576040517f08c379a00000000000000000000000000000000000000000000000000000000081526004016122ff90615289565b60405180910390fd5b600073ffffffffffffffffffffffffffffffffffffffff168173ffffffffffffffffffffffffffffffffffffffff161415612378576040517f08c379a000000000000000000000000000000000000000000000000000000000815260040161236f9061508b565b60405180910390fd5b612381816131da565b50565b61238c61248b565b73ffffffffffffffffffffffffffffffffffffffff168373ffffffffffffffffffffffffffffffffffffffff1614806123d257506123d1836123cc61248b565b612157565b5b612411576040517f08c379a00000000000000000000000000000000000000000000000000000000081526004016124089061515f565b60405180910390fd5b61241c8383836134b0565b505050565b60007f01ffc9a7000000000000000000000000000000000000000000000000000000007bffffffffffffffffffffffffffffffffffffffffffffffffffffffff1916827bffffffffffffffffffffffffffffffffffffffffffffffffffffffff1916149050919050565b600033905090565b81518351146124d7576040517f08c379a00000000000000000000000000000000000000000000000000000000081526004016124ce90615329565b60405180910390fd5b600073ffffffffffffffffffffffffffffffffffffffff168473ffffffffffffffffffffffffffffffffffffffff161415612547576040517f08c379a000000000000000000000000000000000000000000000000000000000815260040161253e906151bf565b60405180910390fd5b600061255161248b565b905061256181878787878761394f565b60005b845181101561271257600085828151811061258257612581615790565b5b6020026020010151905060008583815181106125a1576125a0615790565b5b60200260200101519050600080600084815260200190815260200160002060008b73ffffffffffffffffffffffffffffffffffffffff1673ffffffffffffffffffffffffffffffffffffffff16815260200190815260200160002054905081811015612642576040517f08c379a00000000000000000000000000000000000000000000000000000000081526004016126399061521f565b60405180910390fd5b81810360008085815260200190815260200160002060008c73ffffffffffffffffffffffffffffffffffffffff1673ffffffffffffffffffffffffffffffffffffffff168152602001908152602001600020819055508160008085815260200190815260200160002060008b73ffffffffffffffffffffffffffffffffffffffff1673ffffffffffffffffffffffffffffffffffffffff16815260200190815260200160002060008282546126f791906154fd565b925050819055505050508061270b906156bf565b9050612564565b508473ffffffffffffffffffffffffffffffffffffffff168673ffffffffffffffffffffffffffffffffffffffff168273ffffffffffffffffffffffffffffffffffffffff167f4a39dc06d4c0dbc64b70af90fd698a233a518aa5d07e595d983b8c0526c8f7fb8787604051612789929190614f0d565b60405180910390a461279f8187878787876139ad565b505050505050565b6127af6115c9565b6127ee576040517f08c379a00000000000000000000000000000000000000000000000000000000081526004016127e590614fe1565b60405180910390fd5b6000600360146101000a81548160ff0219169083151502179055507f5db9ee0a495bf2e6ff9c91a7834c1ba4fdd244a5e8aa4e537bd38aeae4b073aa61283261248b565b60405161283f9190614e0e565b60405180910390a1565b61285161248b565b73ffffffffffffffffffffffffffffffffffffffff1661286f611ed5565b73ffffffffffffffffffffffffffffffffffffffff16146128c5576040517f08c379a00000000000000000000000000000000000000000000000000000000081526004016128bc90615289565b60405180910390fd5b807fa2455ec11f160d321516c021994881e7678c0b5870cd7aae50107098770e2c28336000600c60003373ffffffffffffffffffffffffffffffffffffffff1673ffffffffffffffffffffffffffffffffffffffff1681526020019081526020016000205460405161293993929190615001565b60405180910390a160078054905081111580156129565750600081115b612995576040517f08c379a000000000000000000000000000000000000000000000000000000000815260040161298c90614fa1565b60405180910390fd5b600080600c60008673ffffffffffffffffffffffffffffffffffffffff1673ffffffffffffffffffffffffffffffffffffffff1681526020019081526020016000205414612a89576001831415612a30576000600c60008673ffffffffffffffffffffffffffffffffffffffff1673ffffffffffffffffffffffffffffffffffffffff16815260200190815260200160002081905550612a76565b6001600c60008673ffffffffffffffffffffffffffffffffffffffff1673ffffffffffffffffffffffffffffffffffffffff168152602001908152602001600020819055505b8080612a81906156bf565b915050612b2e565b7fa2455ec11f160d321516c021994881e7678c0b5870cd7aae50107098770e2c2884600a600186612aba9190615553565b81548110612acb57612aca615790565b5b9060005260206000200154600c60008873ffffffffffffffffffffffffffffffffffffffff1673ffffffffffffffffffffffffffffffffffffffff16815260200190815260200160002054604051612b259392919061523f565b60405180910390a15b80600a600185612b3e9190615553565b81548110612b4f57612b4e615790565b5b906000526020600020016000828254612b689190615553565b9250508190555050505050565b600073ffffffffffffffffffffffffffffffffffffffff168373ffffffffffffffffffffffffffffffffffffffff161415612be5576040517f08c379a0000000000000000000000000000000000000000000000000000000008152600401612bdc906151ff565b60405180910390fd5b8051825114612c29576040517f08c379a0000000000000000000000000000000000000000000000000000000008152600401612c2090615329565b60405180910390fd5b6000612c3361248b565b9050612c538185600086866040518060200160405280600081525061394f565b60005b8351811015612da0576000848281518110612c7457612c73615790565b5b602002602001015190506000848381518110612c9357612c92615790565b5b60200260200101519050600080600084815260200190815260200160002060008973ffffffffffffffffffffffffffffffffffffffff1673ffffffffffffffffffffffffffffffffffffffff16815260200190815260200160002054905081811015612d34576040517f08c379a0000000000000000000000000000000000000000000000000000000008152600401612d2b906150f5565b60405180910390fd5b81810360008085815260200190815260200160002060008a73ffffffffffffffffffffffffffffffffffffffff1673ffffffffffffffffffffffffffffffffffffffff168152602001908152602001600020819055505050508080612d98906156bf565b915050612c56565b50600073ffffffffffffffffffffffffffffffffffffffff168473ffffffffffffffffffffffffffffffffffffffff168273ffffffffffffffffffffffffffffffffffffffff167f4a39dc06d4c0dbc64b70af90fd698a233a518aa5d07e595d983b8c0526c8f7fb8686604051612e18929190614f0d565b60405180910390a450505050565b600073ffffffffffffffffffffffffffffffffffffffff168473ffffffffffffffffffffffffffffffffffffffff161415612e96576040517f08c379a0000000000000000000000000000000000000000000000000000000008152600401612e8d90615349565b60405180910390fd5b8151835114612eda576040517f08c379a0000000000000000000000000000000000000000000000000000000008152600401612ed190615329565b60405180910390fd5b6000612ee461248b565b9050612ef58160008787878761394f565b60005b8451811015612fae57838181518110612f1457612f13615790565b5b6020026020010151600080878481518110612f3257612f31615790565b5b6020026020010151815260200190815260200160002060008873ffffffffffffffffffffffffffffffffffffffff1673ffffffffffffffffffffffffffffffffffffffff1681526020019081526020016000206000828254612f9491906154fd565b925050819055508080612fa6906156bf565b915050612ef8565b508473ffffffffffffffffffffffffffffffffffffffff16600073ffffffffffffffffffffffffffffffffffffffff168273ffffffffffffffffffffffffffffffffffffffff167f4a39dc06d4c0dbc64b70af90fd698a233a518aa5d07e595d983b8c0526c8f7fb8787604051613026929190614f0d565b60405180910390a461303d816000878787876139ad565b5050505050565b600073ffffffffffffffffffffffffffffffffffffffff168473ffffffffffffffffffffffffffffffffffffffff1614156130b4576040517f08c379a00000000000000000000000000000000000000000000000000000000081526004016130ab90615349565b60405180910390fd5b60006130be61248b565b90506130df816000876130d088613b94565b6130d988613b94565b8761394f565b8260008086815260200190815260200160002060008773ffffffffffffffffffffffffffffffffffffffff1673ffffffffffffffffffffffffffffffffffffffff168152602001908152602001600020600082825461313e91906154fd565b925050819055508473ffffffffffffffffffffffffffffffffffffffff16600073ffffffffffffffffffffffffffffffffffffffff168273ffffffffffffffffffffffffffffffffffffffff167fc3d58168c5ae7397731d063d5bbf3d657854427343f4c083240f7aacaa2d0f6287876040516131bc929190615384565b60405180910390a46131d381600087878787613c0e565b5050505050565b6000600360009054906101000a900473ffffffffffffffffffffffffffffffffffffffff16905081600360006101000a81548173ffffffffffffffffffffffffffffffffffffffff021916908373ffffffffffffffffffffffffffffffffffffffff1602179055508173ffffffffffffffffffffffffffffffffffffffff168173ffffffffffffffffffffffffffffffffffffffff167f8be0079c531659141344cd1fd0a4f28419497f9722a3daafe3b4186f6b6457e060405160405180910390a35050565b6132a86115c9565b156132e8576040517f08c379a00000000000000000000000000000000000000000000000000000000081526004016132df9061519f565b60405180910390fd5b6001600360146101000a81548160ff0219169083151502179055507f62e78cea01bee320cd4e420270b5ea74000d11b0c9f74754ebdbfc544b05a25861332c61248b565b6040516133399190614e0e565b60405180910390a1565b8173ffffffffffffffffffffffffffffffffffffffff168373ffffffffffffffffffffffffffffffffffffffff1614156133b2576040517f08c379a00000000000000000000000000000000000000000000000000000000081526004016133a9906152e9565b60405180910390fd5b80600160008573ffffffffffffffffffffffffffffffffffffffff1673ffffffffffffffffffffffffffffffffffffffff16815260200190815260200160002060008473ffffffffffffffffffffffffffffffffffffffff1673ffffffffffffffffffffffffffffffffffffffff16815260200190815260200160002060006101000a81548160ff0219169083151502179055508173ffffffffffffffffffffffffffffffffffffffff168373ffffffffffffffffffffffffffffffffffffffff167f17307eab39ab6107e8899845ad3d59bd9653f200f220920489ca2b5937696c31836040516134a39190614f44565b60405180910390a3505050565b600073ffffffffffffffffffffffffffffffffffffffff168373ffffffffffffffffffffffffffffffffffffffff161415613520576040517f08c379a0000000000000000000000000000000000000000000000000000000008152600401613517906151ff565b60405180910390fd5b600061352a61248b565b905061355a8185600061353c87613b94565b61354587613b94565b6040518060200160405280600081525061394f565b600080600085815260200190815260200160002060008673ffffffffffffffffffffffffffffffffffffffff1673ffffffffffffffffffffffffffffffffffffffff168152602001908152602001600020549050828110156135f1576040517f08c379a00000000000000000000000000000000000000000000000000000000081526004016135e8906150f5565b60405180910390fd5b82810360008086815260200190815260200160002060008773ffffffffffffffffffffffffffffffffffffffff1673ffffffffffffffffffffffffffffffffffffffff16815260200190815260200160002081905550600073ffffffffffffffffffffffffffffffffffffffff168573ffffffffffffffffffffffffffffffffffffffff168373ffffffffffffffffffffffffffffffffffffffff167fc3d58168c5ae7397731d063d5bbf3d657854427343f4c083240f7aacaa2d0f6287876040516136be929190615384565b60405180910390a45050505050565b600073ffffffffffffffffffffffffffffffffffffffff168473ffffffffffffffffffffffffffffffffffffffff16141561373d576040517f08c379a0000000000000000000000000000000000000000000000000000000008152600401613734906151bf565b60405180910390fd5b600061374761248b565b905061376781878761375888613b94565b61376188613b94565b8761394f565b600080600086815260200190815260200160002060008873ffffffffffffffffffffffffffffffffffffffff1673ffffffffffffffffffffffffffffffffffffffff168152602001908152602001600020549050838110156137fe576040517f08c379a00000000000000000000000000000000000000000000000000000000081526004016137f59061521f565b60405180910390fd5b83810360008087815260200190815260200160002060008973ffffffffffffffffffffffffffffffffffffffff1673ffffffffffffffffffffffffffffffffffffffff168152602001908152602001600020819055508360008087815260200190815260200160002060008873ffffffffffffffffffffffffffffffffffffffff1673ffffffffffffffffffffffffffffffffffffffff16815260200190815260200160002060008282546138b391906154fd565b925050819055508573ffffffffffffffffffffffffffffffffffffffff168773ffffffffffffffffffffffffffffffffffffffff168373ffffffffffffffffffffffffffffffffffffffff167fc3d58168c5ae7397731d063d5bbf3d657854427343f4c083240f7aacaa2d0f628888604051613930929190615384565b60405180910390a4613946828888888888613c0e565b50505050505050565b6139576115c9565b15613997576040517f08c379a000000000000000000000000000000000000000000000000000000000815260040161398e9061519f565b60405180910390fd5b6139a5868686868686613df5565b505050505050565b6139cc8473ffffffffffffffffffffffffffffffffffffffff16613f6f565b15613b8c578373ffffffffffffffffffffffffffffffffffffffff1663bc197c8187878686866040518663ffffffff1660e01b8152600401613a12959493929190614e29565b602060405180830381600087803b158015613a2c57600080fd5b505af1925050508015613a5d57506040513d601f19601f82011682018060405250810190613a5a9190614857565b60015b613b0357613a696157ee565b806308c379a01415613ac65750613a7e615ed1565b80613a895750613ac8565b806040517f08c379a0000000000000000000000000000000000000000000000000000000008152600401613abd9190614f5f565b60405180910390fd5b505b6040517f08c379a0000000000000000000000000000000000000000000000000000000008152600401613afa90614f81565b60405180910390fd5b63bc197c8160e01b7bffffffffffffffffffffffffffffffffffffffffffffffffffffffff1916817bffffffffffffffffffffffffffffffffffffffffffffffffffffffff191614613b8a576040517f08c379a0000000000000000000000000000000000000000000000000000000008152600401613b8190614fc1565b60405180910390fd5b505b505050505050565b60606000600167ffffffffffffffff811115613bb357613bb26157bf565b5b604051908082528060200260200182016040528015613be15781602001602082028036833780820191505090505b5090508281600081518110613bf957613bf8615790565b5b60200260200101818152505080915050919050565b613c2d8473ffffffffffffffffffffffffffffffffffffffff16613f6f565b15613ded578373ffffffffffffffffffffffffffffffffffffffff1663f23a6e6187878686866040518663ffffffff1660e01b8152600401613c73959493929190614e91565b602060405180830381600087803b158015613c8d57600080fd5b505af1925050508015613cbe57506040513d601f19601f82011682018060405250810190613cbb9190614857565b60015b613d6457613cca6157ee565b806308c379a01415613d275750613cdf615ed1565b80613cea5750613d29565b806040517f08c379a0000000000000000000000000000000000000000000000000000000008152600401613d1e9190614f5f565b60405180910390fd5b505b6040517f08c379a0000000000000000000000000000000000000000000000000000000008152600401613d5b90614f81565b60405180910390fd5b63f23a6e6160e01b7bffffffffffffffffffffffffffffffffffffffffffffffffffffffff1916817bffffffffffffffffffffffffffffffffffffffffffffffffffffffff191614613deb576040517f08c379a0000000000000000000000000000000000000000000000000000000008152600401613de290614fc1565b60405180910390fd5b505b505050505050565b613e03868686868686613f92565b600073ffffffffffffffffffffffffffffffffffffffff168573ffffffffffffffffffffffffffffffffffffffff161415613eb55760005b8351811015613eb357828181518110613e5757613e56615790565b5b602002602001015160046000868481518110613e7657613e75615790565b5b602002602001015181526020019081526020016000206000828254613e9b91906154fd565b9250508190555080613eac906156bf565b9050613e3b565b505b600073ffffffffffffffffffffffffffffffffffffffff168473ffffffffffffffffffffffffffffffffffffffff161415613f675760005b8351811015613f6557828181518110613f0957613f08615790565b5b602002602001015160046000868481518110613f2857613f27615790565b5b602002602001015181526020019081526020016000206000828254613f4d9190615553565b9250508190555080613f5e906156bf565b9050613eed565b505b505050505050565b6000808273ffffffffffffffffffffffffffffffffffffffff163b119050919050565b505050505050565b828054613fa69061565c565b90600052602060002090601f016020900481019282613fc8576000855561400f565b82601f10613fe157805160ff191683800117855561400f565b8280016001018555821561400f579182015b8281111561400e578251825591602001919060010190613ff3565b5b50905061401c9190614020565b5090565b5b80821115614039576000816000905550600101614021565b5090565b600061405061404b846153d2565b6153ad565b9050808382526020820190508285602086028201111561407357614072615815565b5b60005b858110156140a3578161408988826141a1565b845260208401935060208301925050600181019050614076565b5050509392505050565b60006140c06140bb846153fe565b6153ad565b905080838252602082019050828560208602820111156140e3576140e2615815565b5b60005b8581101561411357816140f988826142ad565b8452602084019350602083019250506001810190506140e6565b5050509392505050565b600061413061412b8461542a565b6153ad565b90508281526020810184848401111561414c5761414b61581a565b5b61415784828561561a565b509392505050565b600061417261416d8461545b565b6153ad565b90508281526020810184848401111561418e5761418d61581a565b5b61419984828561561a565b509392505050565b6000813590506141b081615f67565b92915050565b600082601f8301126141cb576141ca615810565b5b81356141db84826020860161403d565b91505092915050565b600082601f8301126141f9576141f8615810565b5b81356142098482602086016140ad565b91505092915050565b60008135905061422181615f7e565b92915050565b60008135905061423681615f95565b92915050565b60008151905061424b81615f95565b92915050565b600082601f83011261426657614265615810565b5b813561427684826020860161411d565b91505092915050565b600082601f83011261429457614293615810565b5b81356142a484826020860161415f565b91505092915050565b6000813590506142bc81615fac565b92915050565b6000602082840312156142d8576142d7615824565b5b60006142e6848285016141a1565b91505092915050565b6000806040838503121561430657614305615824565b5b6000614314858286016141a1565b9250506020614325858286016141a1565b9150509250929050565b600080600080600060a0868803121561434b5761434a615824565b5b6000614359888289016141a1565b955050602061436a888289016141a1565b945050604086013567ffffffffffffffff81111561438b5761438a61581f565b5b614397888289016141e4565b935050606086013567ffffffffffffffff8111156143b8576143b761581f565b5b6143c4888289016141e4565b925050608086013567ffffffffffffffff8111156143e5576143e461581f565b5b6143f188828901614251565b9150509295509295909350565b600080600080600060a0868803121561441a57614419615824565b5b6000614428888289016141a1565b9550506020614439888289016141a1565b945050604061444a888289016142ad565b935050606061445b888289016142ad565b925050608086013567ffffffffffffffff81111561447c5761447b61581f565b5b61448888828901614251565b9150509295509295909350565b6000806000606084860312156144ae576144ad615824565b5b60006144bc868287016141a1565b935050602084013567ffffffffffffffff8111156144dd576144dc61581f565b5b6144e9868287016141e4565b925050604084013567ffffffffffffffff81111561450a5761450961581f565b5b614516868287016141e4565b9150509250925092565b600080600080600060a0868803121561453c5761453b615824565b5b600061454a888289016141a1565b955050602086013567ffffffffffffffff81111561456b5761456a61581f565b5b614577888289016141e4565b945050604086013567ffffffffffffffff8111156145985761459761581f565b5b6145a4888289016141e4565b935050606086013567ffffffffffffffff8111156145c5576145c461581f565b5b6145d1888289016141e4565b925050608086013567ffffffffffffffff8111156145f2576145f161581f565b5b6145fe888289016141e4565b9150509295509295909350565b6000806040838503121561462257614621615824565b5b6000614630858286016141a1565b925050602061464185828601614212565b9150509250929050565b6000806040838503121561466257614661615824565b5b6000614670858286016141a1565b9250506020614681858286016142ad565b9150509250929050565b6000806000606084860312156146a4576146a3615824565b5b60006146b2868287016141a1565b93505060206146c3868287016142ad565b92505060406146d4868287016142ad565b9150509250925092565b600080604083850312156146f5576146f4615824565b5b600083013567ffffffffffffffff8111156147135761471261581f565b5b61471f858286016141b6565b925050602083013567ffffffffffffffff8111156147405761473f61581f565b5b61474c858286016141e4565b9150509250929050565b6000806040838503121561476d5761476c615824565b5b600083013567ffffffffffffffff81111561478b5761478a61581f565b5b614797858286016141b6565b92505060206147a8858286016142ad565b9150509250929050565b600080604083850312156147c9576147c8615824565b5b600083013567ffffffffffffffff8111156147e7576147e661581f565b5b6147f3858286016141e4565b925050602083013567ffffffffffffffff8111156148145761481361581f565b5b614820858286016141e4565b9150509250929050565b6000602082840312156148405761483f615824565b5b600061484e84828501614227565b91505092915050565b60006020828403121561486d5761486c615824565b5b600061487b8482850161423c565b91505092915050565b60006020828403121561489a57614899615824565b5b60006148a8848285016142ad565b91505092915050565b600080604083850312156148c8576148c7615824565b5b60006148d6858286016142ad565b925050602083013567ffffffffffffffff8111156148f7576148f661581f565b5b6149038582860161427f565b9150509250929050565b6000806040838503121561492457614923615824565b5b6000614932858286016142ad565b9250506020614943858286016142ad565b9150509250929050565b60006149598383614df0565b60208301905092915050565b61496e81615587565b82525050565b600061497f8261549c565b61498981856154ca565b93506149948361548c565b8060005b838110156149c55781516149ac888261494d565b97506149b7836154bd565b925050600181019050614998565b5085935050505092915050565b6149db81615599565b82525050565b60006149ec826154a7565b6149f681856154db565b9350614a06818560208601615629565b614a0f81615829565b840191505092915050565b614a2381615608565b82525050565b6000614a34826154b2565b614a3e81856154ec565b9350614a4e818560208601615629565b614a5781615829565b840191505092915050565b6000614a6f6034836154ec565b9150614a7a82615847565b604082019050919050565b6000614a926013836154ec565b9150614a9d82615896565b602082019050919050565b6000614ab56028836154ec565b9150614ac0826158bf565b604082019050919050565b6000614ad86014836154ec565b9150614ae38261590e565b602082019050919050565b6000614afb6014836154ec565b9150614b0682615937565b602082019050919050565b6000614b1e6011836154ec565b9150614b2982615960565b602082019050919050565b6000614b41602b836154ec565b9150614b4c82615989565b604082019050919050565b6000614b646026836154ec565b9150614b6f826159d8565b604082019050919050565b6000614b87601c836154ec565b9150614b9282615a27565b602082019050919050565b6000614baa6024836154ec565b9150614bb582615a50565b604082019050919050565b6000614bcd601e836154ec565b9150614bd882615a9f565b602082019050919050565b6000614bf06029836154ec565b9150614bfb82615ac8565b604082019050919050565b6000614c136010836154ec565b9150614c1e82615b17565b602082019050919050565b6000614c366010836154ec565b9150614c4182615b40565b602082019050919050565b6000614c596025836154ec565b9150614c6482615b69565b604082019050919050565b6000614c7c6032836154ec565b9150614c8782615bb8565b604082019050919050565b6000614c9f6023836154ec565b9150614caa82615c07565b604082019050919050565b6000614cc2602a836154ec565b9150614ccd82615c56565b604082019050919050565b6000614ce56021836154ec565b9150614cf082615ca5565b604082019050919050565b6000614d086020836154ec565b9150614d1382615cf4565b602082019050919050565b6000614d2b6023836154ec565b9150614d3682615d1d565b604082019050919050565b6000614d4e6015836154ec565b9150614d5982615d6c565b602082019050919050565b6000614d716029836154ec565b9150614d7c82615d95565b604082019050919050565b6000614d946029836154ec565b9150614d9f82615de4565b604082019050919050565b6000614db76028836154ec565b9150614dc282615e33565b604082019050919050565b6000614dda6021836154ec565b9150614de582615e82565b604082019050919050565b614df9816155f1565b82525050565b614e08816155f1565b82525050565b6000602082019050614e236000830184614965565b92915050565b600060a082019050614e3e6000830188614965565b614e4b6020830187614965565b8181036040830152614e5d8186614974565b90508181036060830152614e718185614974565b90508181036080830152614e8581846149e1565b90509695505050505050565b600060a082019050614ea66000830188614965565b614eb36020830187614965565b614ec06040830186614dff565b614ecd6060830185614dff565b8181036080830152614edf81846149e1565b90509695505050505050565b60006020820190508181036000830152614f058184614974565b905092915050565b60006040820190508181036000830152614f278185614974565b90508181036020830152614f3b8184614974565b90509392505050565b6000602082019050614f5960008301846149d2565b92915050565b60006020820190508181036000830152614f798184614a29565b905092915050565b60006020820190508181036000830152614f9a81614a62565b9050919050565b60006020820190508181036000830152614fba81614a85565b9050919050565b60006020820190508181036000830152614fda81614aa8565b9050919050565b60006020820190508181036000830152614ffa81614acb565b9050919050565b6000608082019050818103600083015261501a81614aee565b90506150296020830186614965565b6150366040830185614a1a565b6150436060830184614dff565b949350505050565b6000602082019050818103600083015261506481614b11565b9050919050565b6000602082019050818103600083015261508481614b34565b9050919050565b600060208201905081810360008301526150a481614b57565b9050919050565b600060808201905081810360008301526150c481614b7a565b90506150d36020830186614965565b6150e06040830185614a1a565b6150ed6060830184614dff565b949350505050565b6000602082019050818103600083015261510e81614b9d565b9050919050565b6000608082019050818103600083015261512e81614bc0565b905061513d6020830186614965565b61514a6040830185614dff565b6151576060830184614dff565b949350505050565b6000602082019050818103600083015261517881614be3565b9050919050565b6000602082019050818103600083015261519881614c06565b9050919050565b600060208201905081810360008301526151b881614c29565b9050919050565b600060208201905081810360008301526151d881614c4c565b9050919050565b600060208201905081810360008301526151f881614c6f565b9050919050565b6000602082019050818103600083015261521881614c92565b9050919050565b6000602082019050818103600083015261523881614cb5565b9050919050565b6000608082019050818103600083015261525881614cd8565b90506152676020830186614965565b6152746040830185614dff565b6152816060830184614dff565b949350505050565b600060208201905081810360008301526152a281614cfb565b9050919050565b600060208201905081810360008301526152c281614d1e565b9050919050565b600060208201905081810360008301526152e281614d41565b9050919050565b6000602082019050818103600083015261530281614d64565b9050919050565b6000602082019050818103600083015261532281614d87565b9050919050565b6000602082019050818103600083015261534281614daa565b9050919050565b6000602082019050818103600083015261536281614dcd565b9050919050565b600060208201905061537e6000830184614dff565b92915050565b60006040820190506153996000830185614dff565b6153a66020830184614dff565b9392505050565b60006153b76153c8565b90506153c3828261568e565b919050565b6000604051905090565b600067ffffffffffffffff8211156153ed576153ec6157bf565b5b602082029050602081019050919050565b600067ffffffffffffffff821115615419576154186157bf565b5b602082029050602081019050919050565b600067ffffffffffffffff821115615445576154446157bf565b5b61544e82615829565b9050602081019050919050565b600067ffffffffffffffff821115615476576154756157bf565b5b61547f82615829565b9050602081019050919050565b6000819050602082019050919050565b600081519050919050565b600081519050919050565b600081519050919050565b6000602082019050919050565b600082825260208201905092915050565b600082825260208201905092915050565b600082825260208201905092915050565b6000615508826155f1565b9150615513836155f1565b9250827fffffffffffffffffffffffffffffffffffffffffffffffffffffffffffffffff0382111561554857615547615732565b5b828201905092915050565b600061555e826155f1565b9150615569836155f1565b92508282101561557c5761557b615732565b5b828203905092915050565b6000615592826155d1565b9050919050565b60008115159050919050565b60007fffffffff0000000000000000000000000000000000000000000000000000000082169050919050565b600073ffffffffffffffffffffffffffffffffffffffff82169050919050565b6000819050919050565b600060ff82169050919050565b6000615613826155f1565b9050919050565b82818337600083830152505050565b60005b8381101561564757808201518184015260208101905061562c565b83811115615656576000848401525b50505050565b6000600282049050600182168061567457607f821691505b6020821081141561568857615687615761565b5b50919050565b61569782615829565b810181811067ffffffffffffffff821117156156b6576156b56157bf565b5b80604052505050565b60006156ca826155f1565b91507fffffffffffffffffffffffffffffffffffffffffffffffffffffffffffffffff8214156156fd576156fc615732565b5b600182019050919050565b6000615713826155fb565b915060ff82141561572757615726615732565b5b600182019050919050565b7f4e487b7100000000000000000000000000000000000000000000000000000000600052601160045260246000fd5b7f4e487b7100000000000000000000000000000000000000000000000000000000600052602260045260246000fd5b7f4e487b7100000000000000000000000000000000000000000000000000000000600052603260045260246000fd5b7f4e487b7100000000000000000000000000000000000000000000000000000000600052604160045260246000fd5b600060033d111561580d5760046000803e61580a60005161583a565b90505b90565b600080fd5b600080fd5b600080fd5b600080fd5b600080fd5b6000601f19601f8301169050919050565b60008160e01c9050919050565b7f455243313135353a207472616e7366657220746f206e6f6e204552433131353560008201527f526563656976657220696d706c656d656e746572000000000000000000000000602082015250565b7f546f6b656e20646f65736e277420657869737400000000000000000000000000600082015250565b7f455243313135353a204552433131353552656365697665722072656a6563746560008201527f6420746f6b656e73000000000000000000000000000000000000000000000000602082015250565b7f5061757361626c653a206e6f7420706175736564000000000000000000000000600082015250565b7f4d6f64696665722076616c6964546f6b656e4964000000000000000000000000600082015250565b7f4e6f7420656e6f75676820737570706c79000000000000000000000000000000600082015250565b7f455243313135353a2062616c616e636520717565727920666f7220746865207a60008201527f65726f2061646472657373000000000000000000000000000000000000000000602082015250565b7f4f776e61626c653a206e6577206f776e657220697320746865207a65726f206160008201527f6464726573730000000000000000000000000000000000000000000000000000602082015250565b7f4d6f6469666572206f6e6c7957686974656c6973744164647265737300000000600082015250565b7f455243313135353a206275726e20616d6f756e7420657863656564732062616c60008201527f616e636500000000000000000000000000000000000000000000000000000000602082015250565b7f6164647265737320697320616c72656164792077686974656c69737465640000600082015250565b7f455243313135353a2063616c6c6572206973206e6f74206f776e6572206e6f7260008201527f20617070726f7665640000000000000000000000000000000000000000000000602082015250565b7f457863656564206d6178537570706c7900000000000000000000000000000000600082015250565b7f5061757361626c653a2070617573656400000000000000000000000000000000600082015250565b7f455243313135353a207472616e7366657220746f20746865207a65726f20616460008201527f6472657373000000000000000000000000000000000000000000000000000000602082015250565b7f455243313135353a207472616e736665722063616c6c6572206973206e6f742060008201527f6f776e6572206e6f7220617070726f7665640000000000000000000000000000602082015250565b7f455243313135353a206275726e2066726f6d20746865207a65726f206164647260008201527f6573730000000000000000000000000000000000000000000000000000000000602082015250565b7f455243313135353a20696e73756666696369656e742062616c616e636520666f60008201527f72207472616e7366657200000000000000000000000000000000000000000000602082015250565b7f416472657373206973206e6f7420616c72656164792077686974656c6973746560008201527f6400000000000000000000000000000000000000000000000000000000000000602082015250565b7f4f776e61626c653a2063616c6c6572206973206e6f7420746865206f776e6572600082015250565b7f41646472657373206e6f742077686974656c69737465642e2043616e74206d6960008201527f6e742e0000000000000000000000000000000000000000000000000000000000602082015250565b7f4e6f7420656e6f7567682065746865722073656e740000000000000000000000600082015250565b7f455243313135353a2073657474696e6720617070726f76616c2073746174757360008201527f20666f722073656c660000000000000000000000000000000000000000000000602082015250565b7f455243313135353a206163636f756e747320616e6420696473206c656e67746860008201527f206d69736d617463680000000000000000000000000000000000000000000000602082015250565b7f455243313135353a2069647320616e6420616d6f756e7473206c656e6774682060008201527f6d69736d61746368000000000000000000000000000000000000000000000000602082015250565b7f455243313135353a206d696e7420746f20746865207a65726f2061646472657360008201527f7300000000000000000000000000000000000000000000000000000000000000602082015250565b600060443d1015615ee157615f64565b615ee96153c8565b60043d036004823e80513d602482011167ffffffffffffffff82111715615f11575050615f64565b808201805167ffffffffffffffff811115615f2f5750505050615f64565b80602083010160043d038501811115615f4c575050505050615f64565b615f5b8260200185018661568e565b82955050505050505b90565b615f7081615587565b8114615f7b57600080fd5b50565b615f8781615599565b8114615f9257600080fd5b50565b615f9e816155a5565b8114615fa957600080fd5b50565b615fb5816155f1565b8114615fc057600080fd5b5056fea2646970667358221220c7719c6ea1eb53c2b5c6046f442e2af4d958c0536d4774002173028a6c9a328464736f6c63430008070033",
			"opcodes": "PUSH1 0x80 PUSH1 0x40 MSTORE PUSH1 0x40 MLOAD DUP1 PUSH1 0x40 ADD PUSH1 0x40 MSTORE DUP1 PUSH1 0x18 DUP2 MSTORE PUSH1 0x20 ADD PUSH32 0x466F7274756E652054726561737572652048756E74696E670000000000000000 DUP2 MSTORE POP PUSH1 0x5 SWAP1 DUP1 MLOAD SWAP1 PUSH1 0x20 ADD SWAP1 PUSH3 0x51 SWAP3 SWAP2 SWAP1 PUSH3 0x30C JUMP JUMPDEST POP PUSH1 0x40 MLOAD DUP1 PUSH1 0x40 ADD PUSH1 0x40 MSTORE DUP1 PUSH1 0x4 DUP2 MSTORE PUSH1 0x20 ADD PUSH32 0x464F525400000000000000000000000000000000000000000000000000000000 DUP2 MSTORE POP PUSH1 0x6 SWAP1 DUP1 MLOAD SWAP1 PUSH1 0x20 ADD SWAP1 PUSH3 0x9F SWAP3 SWAP2 SWAP1 PUSH3 0x30C JUMP JUMPDEST POP PUSH1 0x40 MLOAD DUP1 PUSH1 0x40 ADD PUSH1 0x40 MSTORE DUP1 PUSH2 0xFA0 PUSH2 0xFFFF AND DUP2 MSTORE PUSH1 0x20 ADD PUSH1 0xFA PUSH2 0xFFFF AND DUP2 MSTORE POP PUSH1 0x7 SWAP1 PUSH1 0x2 PUSH3 0xD2 SWAP3 SWAP2 SWAP1 PUSH3 0x39D JUMP JUMPDEST POP PUSH1 0x40 MLOAD DUP1 PUSH1 0x40 ADD PUSH1 0x40 MSTORE DUP1 PUSH1 0x0 PUSH1 0xFF AND DUP2 MSTORE PUSH1 0x20 ADD PUSH1 0x0 PUSH1 0xFF AND DUP2 MSTORE POP PUSH1 0x8 SWAP1 PUSH1 0x2 PUSH3 0x102 SWAP3 SWAP2 SWAP1 PUSH3 0x3F5 JUMP JUMPDEST POP PUSH1 0x40 MLOAD DUP1 PUSH1 0x40 ADD PUSH1 0x40 MSTORE DUP1 PUSH7 0x38D7EA4C68000 PUSH7 0xFFFFFFFFFFFFFF AND DUP2 MSTORE PUSH1 0x20 ADD PUSH1 0x0 PUSH7 0xFFFFFFFFFFFFFF AND DUP2 MSTORE POP PUSH1 0x9 SWAP1 PUSH1 0x2 PUSH3 0x144 SWAP3 SWAP2 SWAP1 PUSH3 0x44C JUMP JUMPDEST POP PUSH1 0x40 MLOAD DUP1 PUSH1 0x40 ADD PUSH1 0x40 MSTORE DUP1 PUSH1 0x0 PUSH1 0xFF AND DUP2 MSTORE PUSH1 0x20 ADD PUSH1 0x0 PUSH1 0xFF AND DUP2 MSTORE POP PUSH1 0xA SWAP1 PUSH1 0x2 PUSH3 0x174 SWAP3 SWAP2 SWAP1 PUSH3 0x3F5 JUMP JUMPDEST POP CALLVALUE DUP1 ISZERO PUSH3 0x182 JUMPI PUSH1 0x0 DUP1 REVERT JUMPDEST POP PUSH1 0x40 MLOAD DUP1 PUSH1 0x20 ADD PUSH1 0x40 MSTORE DUP1 PUSH1 0x0 DUP2 MSTORE POP PUSH3 0x1A4 DUP2 PUSH3 0x222 PUSH1 0x20 SHL PUSH1 0x20 SHR JUMP JUMPDEST POP PUSH3 0x1C5 PUSH3 0x1B9 PUSH3 0x23E PUSH1 0x20 SHL PUSH1 0x20 SHR JUMP JUMPDEST PUSH3 0x246 PUSH1 0x20 SHL PUSH1 0x20 SHR JUMP JUMPDEST PUSH1 0x0 PUSH1 0x3 PUSH1 0x14 PUSH2 0x100 EXP DUP2 SLOAD DUP2 PUSH1 0xFF MUL NOT AND SWAP1 DUP4 ISZERO ISZERO MUL OR SWAP1 SSTORE POP PUSH1 0x5 DUP1 DUP1 SLOAD PUSH3 0x1F0 SWAP1 PUSH3 0x560 JUMP JUMPDEST PUSH3 0x1FD SWAP3 SWAP2 SWAP1 PUSH3 0x4A9 JUMP JUMPDEST POP PUSH1 0x6 DUP1 DUP1 SLOAD PUSH3 0x20E SWAP1 PUSH3 0x560 JUMP JUMPDEST PUSH3 0x21B SWAP3 SWAP2 SWAP1 PUSH3 0x4A9 JUMP JUMPDEST POP PUSH3 0x5C5 JUMP JUMPDEST DUP1 PUSH1 0x2 SWAP1 DUP1 MLOAD SWAP1 PUSH1 0x20 ADD SWAP1 PUSH3 0x23A SWAP3 SWAP2 SWAP1 PUSH3 0x30C JUMP JUMPDEST POP POP JUMP JUMPDEST PUSH1 0x0 CALLER SWAP1 POP SWAP1 JUMP JUMPDEST PUSH1 0x0 PUSH1 0x3 PUSH1 0x0 SWAP1 SLOAD SWAP1 PUSH2 0x100 EXP SWAP1 DIV PUSH20 0xFFFFFFFFFFFFFFFFFFFFFFFFFFFFFFFFFFFFFFFF AND SWAP1 POP DUP2 PUSH1 0x3 PUSH1 0x0 PUSH2 0x100 EXP DUP2 SLOAD DUP2 PUSH20 0xFFFFFFFFFFFFFFFFFFFFFFFFFFFFFFFFFFFFFFFF MUL NOT AND SWAP1 DUP4 PUSH20 0xFFFFFFFFFFFFFFFFFFFFFFFFFFFFFFFFFFFFFFFF AND MUL OR SWAP1 SSTORE POP DUP2 PUSH20 0xFFFFFFFFFFFFFFFFFFFFFFFFFFFFFFFFFFFFFFFF AND DUP2 PUSH20 0xFFFFFFFFFFFFFFFFFFFFFFFFFFFFFFFFFFFFFFFF AND PUSH32 0x8BE0079C531659141344CD1FD0A4F28419497F9722A3DAAFE3B4186F6B6457E0 PUSH1 0x40 MLOAD PUSH1 0x40 MLOAD DUP1 SWAP2 SUB SWAP1 LOG3 POP POP JUMP JUMPDEST DUP3 DUP1 SLOAD PUSH3 0x31A SWAP1 PUSH3 0x560 JUMP JUMPDEST SWAP1 PUSH1 0x0 MSTORE PUSH1 0x20 PUSH1 0x0 KECCAK256 SWAP1 PUSH1 0x1F ADD PUSH1 0x20 SWAP1 DIV DUP2 ADD SWAP3 DUP3 PUSH3 0x33E JUMPI PUSH1 0x0 DUP6 SSTORE PUSH3 0x38A JUMP JUMPDEST DUP3 PUSH1 0x1F LT PUSH3 0x359 JUMPI DUP1 MLOAD PUSH1 0xFF NOT AND DUP4 DUP1 ADD OR DUP6 SSTORE PUSH3 0x38A JUMP JUMPDEST DUP3 DUP1 ADD PUSH1 0x1 ADD DUP6 SSTORE DUP3 ISZERO PUSH3 0x38A JUMPI SWAP2 DUP3 ADD JUMPDEST DUP3 DUP2 GT ISZERO PUSH3 0x389 JUMPI DUP3 MLOAD DUP3 SSTORE SWAP2 PUSH1 0x20 ADD SWAP2 SWAP1 PUSH1 0x1 ADD SWAP1 PUSH3 0x36C JUMP JUMPDEST JUMPDEST POP SWAP1 POP PUSH3 0x399 SWAP2 SWAP1 PUSH3 0x541 JUMP JUMPDEST POP SWAP1 JUMP JUMPDEST DUP3 DUP1 SLOAD DUP3 DUP3 SSTORE SWAP1 PUSH1 0x0 MSTORE PUSH1 0x20 PUSH1 0x0 KECCAK256 SWAP1 DUP2 ADD SWAP3 DUP3 ISZERO PUSH3 0x3E2 JUMPI SWAP2 PUSH1 0x20 MUL DUP3 ADD JUMPDEST DUP3 DUP2 GT ISZERO PUSH3 0x3E1 JUMPI DUP3 MLOAD DUP3 SWAP1 PUSH2 0xFFFF AND SWAP1 SSTORE SWAP2 PUSH1 0x20 ADD SWAP2 SWAP1 PUSH1 0x1 ADD SWAP1 PUSH3 0x3BE JUMP JUMPDEST JUMPDEST POP SWAP1 POP PUSH3 0x3F1 SWAP2 SWAP1 PUSH3 0x541 JUMP JUMPDEST POP SWAP1 JUMP JUMPDEST DUP3 DUP1 SLOAD DUP3 DUP3 SSTORE SWAP1 PUSH1 0x0 MSTORE PUSH1 0x20 PUSH1 0x0 KECCAK256 SWAP1 DUP2 ADD SWAP3 DUP3 ISZERO PUSH3 0x439 JUMPI SWAP2 PUSH1 0x20 MUL DUP3 ADD JUMPDEST DUP3 DUP2 GT ISZERO PUSH3 0x438 JUMPI DUP3 MLOAD DUP3 SWAP1 PUSH1 0xFF AND SWAP1 SSTORE SWAP2 PUSH1 0x20 ADD SWAP2 SWAP1 PUSH1 0x1 ADD SWAP1 PUSH3 0x416 JUMP JUMPDEST JUMPDEST POP SWAP1 POP PUSH3 0x448 SWAP2 SWAP1 PUSH3 0x541 JUMP JUMPDEST POP SWAP1 JUMP JUMPDEST DUP3 DUP1 SLOAD DUP3 DUP3 SSTORE SWAP1 PUSH1 0x0 MSTORE PUSH1 0x20 PUSH1 0x0 KECCAK256 SWAP1 DUP2 ADD SWAP3 DUP3 ISZERO PUSH3 0x496 JUMPI SWAP2 PUSH1 0x20 MUL DUP3 ADD JUMPDEST DUP3 DUP2 GT ISZERO PUSH3 0x495 JUMPI DUP3 MLOAD DUP3 SWAP1 PUSH7 0xFFFFFFFFFFFFFF AND SWAP1 SSTORE SWAP2 PUSH1 0x20 ADD SWAP2 SWAP1 PUSH1 0x1 ADD SWAP1 PUSH3 0x46D JUMP JUMPDEST JUMPDEST POP SWAP1 POP PUSH3 0x4A5 SWAP2 SWAP1 PUSH3 0x541 JUMP JUMPDEST POP SWAP1 JUMP JUMPDEST DUP3 DUP1 SLOAD PUSH3 0x4B7 SWAP1 PUSH3 0x560 JUMP JUMPDEST SWAP1 PUSH1 0x0 MSTORE PUSH1 0x20 PUSH1 0x0 KECCAK256 SWAP1 PUSH1 0x1F ADD PUSH1 0x20 SWAP1 DIV DUP2 ADD SWAP3 DUP3 PUSH3 0x4DB JUMPI PUSH1 0x0 DUP6 SSTORE PUSH3 0x52E JUMP JUMPDEST DUP3 PUSH1 0x1F LT PUSH3 0x4EE JUMPI DUP1 SLOAD DUP6 SSTORE PUSH3 0x52E JUMP JUMPDEST DUP3 DUP1 ADD PUSH1 0x1 ADD DUP6 SSTORE DUP3 ISZERO PUSH3 0x52E JUMPI PUSH1 0x0 MSTORE PUSH1 0x20 PUSH1 0x0 KECCAK256 SWAP2 PUSH1 0x1F ADD PUSH1 0x20 SWAP1 DIV DUP3 ADD JUMPDEST DUP3 DUP2 GT ISZERO PUSH3 0x52D JUMPI DUP3 SLOAD DUP3 SSTORE SWAP2 PUSH1 0x1 ADD SWAP2 SWAP1 PUSH1 0x1 ADD SWAP1 PUSH3 0x510 JUMP JUMPDEST JUMPDEST POP SWAP1 POP PUSH3 0x53D SWAP2 SWAP1 PUSH3 0x541 JUMP JUMPDEST POP SWAP1 JUMP JUMPDEST JUMPDEST DUP1 DUP3 GT ISZERO PUSH3 0x55C JUMPI PUSH1 0x0 DUP2 PUSH1 0x0 SWAP1 SSTORE POP PUSH1 0x1 ADD PUSH3 0x542 JUMP JUMPDEST POP SWAP1 JUMP JUMPDEST PUSH1 0x0 PUSH1 0x2 DUP3 DIV SWAP1 POP PUSH1 0x1 DUP3 AND DUP1 PUSH3 0x579 JUMPI PUSH1 0x7F DUP3 AND SWAP2 POP JUMPDEST PUSH1 0x20 DUP3 LT DUP2 EQ ISZERO PUSH3 0x590 JUMPI PUSH3 0x58F PUSH3 0x596 JUMP JUMPDEST JUMPDEST POP SWAP2 SWAP1 POP JUMP JUMPDEST PUSH32 0x4E487B7100000000000000000000000000000000000000000000000000000000 PUSH1 0x0 MSTORE PUSH1 0x22 PUSH1 0x4 MSTORE PUSH1 0x24 PUSH1 0x0 REVERT JUMPDEST PUSH2 0x5FF9 DUP1 PUSH3 0x5D5 PUSH1 0x0 CODECOPY PUSH1 0x0 RETURN INVALID PUSH1 0x80 PUSH1 0x40 MSTORE PUSH1 0x4 CALLDATASIZE LT PUSH2 0x1F8 JUMPI PUSH1 0x0 CALLDATALOAD PUSH1 0xE0 SHR DUP1 PUSH4 0x8456CB59 GT PUSH2 0x10D JUMPI DUP1 PUSH4 0xACB3180F GT PUSH2 0xA0 JUMPI DUP1 PUSH4 0xD81D0A15 GT PUSH2 0x6F JUMPI DUP1 PUSH4 0xD81D0A15 EQ PUSH2 0x712 JUMPI DUP1 PUSH4 0xE985E9C5 EQ PUSH2 0x73B JUMPI DUP1 PUSH4 0xF242432A EQ PUSH2 0x778 JUMPI DUP1 PUSH4 0xF2FDE38B EQ PUSH2 0x7A1 JUMPI DUP1 PUSH4 0xF5298ACA EQ PUSH2 0x7CA JUMPI PUSH2 0x1F8 JUMP JUMPDEST DUP1 PUSH4 0xACB3180F EQ PUSH2 0x632 JUMPI DUP1 PUSH4 0xB390C0AB EQ PUSH2 0x66F JUMPI DUP1 PUSH4 0xBD85B039 EQ PUSH2 0x698 JUMPI DUP1 PUSH4 0xC87B56DD EQ PUSH2 0x6D5 JUMPI PUSH2 0x1F8 JUMP JUMPDEST DUP1 PUSH4 0x8DA5CB5B GT PUSH2 0xDC JUMPI DUP1 PUSH4 0x8DA5CB5B EQ PUSH2 0x576 JUMPI DUP1 PUSH4 0x95D89B41 EQ PUSH2 0x5A1 JUMPI DUP1 PUSH4 0x9B19251A EQ PUSH2 0x5CC JUMPI DUP1 PUSH4 0xA22CB465 EQ PUSH2 0x609 JUMPI PUSH2 0x1F8 JUMP JUMPDEST DUP1 PUSH4 0x8456CB59 EQ PUSH2 0x501 JUMPI DUP1 PUSH4 0x853828B6 EQ PUSH2 0x518 JUMPI DUP1 PUSH4 0x862440E2 EQ PUSH2 0x522 JUMPI DUP1 PUSH4 0x8B7AFE2E EQ PUSH2 0x54B JUMPI PUSH2 0x1F8 JUMP JUMPDEST DUP1 PUSH4 0x4E1273F4 GT PUSH2 0x190 JUMPI DUP1 PUSH4 0x5C975ABB GT PUSH2 0x15F JUMPI DUP1 PUSH4 0x5C975ABB EQ PUSH2 0x451 JUMPI DUP1 PUSH4 0x6A627842 EQ PUSH2 0x47C JUMPI DUP1 PUSH4 0x6B20C454 EQ PUSH2 0x498 JUMPI DUP1 PUSH4 0x715018A6 EQ PUSH2 0x4C1 JUMPI DUP1 PUSH4 0x83CA4B6F EQ PUSH2 0x4D8 JUMPI PUSH2 0x1F8 JUMP JUMPDEST DUP1 PUSH4 0x4E1273F4 EQ PUSH2 0x385 JUMPI DUP1 PUSH4 0x4F558E79 EQ PUSH2 0x3C2 JUMPI DUP1 PUSH4 0x50F787DC EQ PUSH2 0x3FF JUMPI DUP1 PUSH4 0x510F4104 EQ PUSH2 0x428 JUMPI PUSH2 0x1F8 JUMP JUMPDEST DUP1 PUSH4 0x2AE5D2F9 GT PUSH2 0x1CC JUMPI DUP1 PUSH4 0x2AE5D2F9 EQ PUSH2 0x2DF JUMPI DUP1 PUSH4 0x2EB2C2D6 EQ PUSH2 0x31C JUMPI DUP1 PUSH4 0x36576424 EQ PUSH2 0x345 JUMPI DUP1 PUSH4 0x3F4BA83A EQ PUSH2 0x36E JUMPI PUSH2 0x1F8 JUMP JUMPDEST DUP1 PUSH3 0xFDD58E EQ PUSH2 0x1FD JUMPI DUP1 PUSH4 0x1FFC9A7 EQ PUSH2 0x23A JUMPI DUP1 PUSH4 0x6FDDE03 EQ PUSH2 0x277 JUMPI DUP1 PUSH4 0xE89341C EQ PUSH2 0x2A2 JUMPI JUMPDEST PUSH1 0x0 DUP1 REVERT JUMPDEST CALLVALUE DUP1 ISZERO PUSH2 0x209 JUMPI PUSH1 0x0 DUP1 REVERT JUMPDEST POP PUSH2 0x224 PUSH1 0x4 DUP1 CALLDATASIZE SUB DUP2 ADD SWAP1 PUSH2 0x21F SWAP2 SWAP1 PUSH2 0x464B JUMP JUMPDEST PUSH2 0x7F3 JUMP JUMPDEST PUSH1 0x40 MLOAD PUSH2 0x231 SWAP2 SWAP1 PUSH2 0x5369 JUMP JUMPDEST PUSH1 0x40 MLOAD DUP1 SWAP2 SUB SWAP1 RETURN JUMPDEST CALLVALUE DUP1 ISZERO PUSH2 0x246 JUMPI PUSH1 0x0 DUP1 REVERT JUMPDEST POP PUSH2 0x261 PUSH1 0x4 DUP1 CALLDATASIZE SUB DUP2 ADD SWAP1 PUSH2 0x25C SWAP2 SWAP1 PUSH2 0x482A JUMP JUMPDEST PUSH2 0x8BC JUMP JUMPDEST PUSH1 0x40 MLOAD PUSH2 0x26E SWAP2 SWAP1 PUSH2 0x4F44 JUMP JUMPDEST PUSH1 0x40 MLOAD DUP1 SWAP2 SUB SWAP1 RETURN JUMPDEST CALLVALUE DUP1 ISZERO PUSH2 0x283 JUMPI PUSH1 0x0 DUP1 REVERT JUMPDEST POP PUSH2 0x28C PUSH2 0x99E JUMP JUMPDEST PUSH1 0x40 MLOAD PUSH2 0x299 SWAP2 SWAP1 PUSH2 0x4F5F JUMP JUMPDEST PUSH1 0x40 MLOAD DUP1 SWAP2 SUB SWAP1 RETURN JUMPDEST CALLVALUE DUP1 ISZERO PUSH2 0x2AE JUMPI PUSH1 0x0 DUP1 REVERT JUMPDEST POP PUSH2 0x2C9 PUSH1 0x4 DUP1 CALLDATASIZE SUB DUP2 ADD SWAP1 PUSH2 0x2C4 SWAP2 SWAP1 PUSH2 0x4884 JUMP JUMPDEST PUSH2 0xA2C JUMP JUMPDEST PUSH1 0x40 MLOAD PUSH2 0x2D6 SWAP2 SWAP1 PUSH2 0x4F5F JUMP JUMPDEST PUSH1 0x40 MLOAD DUP1 SWAP2 SUB SWAP1 RETURN JUMPDEST CALLVALUE DUP1 ISZERO PUSH2 0x2EB JUMPI PUSH1 0x0 DUP1 REVERT JUMPDEST POP PUSH2 0x306 PUSH1 0x4 DUP1 CALLDATASIZE SUB DUP2 ADD SWAP1 PUSH2 0x301 SWAP2 SWAP1 PUSH2 0x42C2 JUMP JUMPDEST PUSH2 0xAD1 JUMP JUMPDEST PUSH1 0x40 MLOAD PUSH2 0x313 SWAP2 SWAP1 PUSH2 0x5369 JUMP JUMPDEST PUSH1 0x40 MLOAD DUP1 SWAP2 SUB SWAP1 RETURN JUMPDEST CALLVALUE DUP1 ISZERO PUSH2 0x328 JUMPI PUSH1 0x0 DUP1 REVERT JUMPDEST POP PUSH2 0x343 PUSH1 0x4 DUP1 CALLDATASIZE SUB DUP2 ADD SWAP1 PUSH2 0x33E SWAP2 SWAP1 PUSH2 0x432F JUMP JUMPDEST PUSH2 0xB1A JUMP JUMPDEST STOP JUMPDEST CALLVALUE DUP1 ISZERO PUSH2 0x351 JUMPI PUSH1 0x0 DUP1 REVERT JUMPDEST POP PUSH2 0x36C PUSH1 0x4 DUP1 CALLDATASIZE SUB DUP2 ADD SWAP1 PUSH2 0x367 SWAP2 SWAP1 PUSH2 0x4756 JUMP JUMPDEST PUSH2 0xBBB JUMP JUMPDEST STOP JUMPDEST CALLVALUE DUP1 ISZERO PUSH2 0x37A JUMPI PUSH1 0x0 DUP1 REVERT JUMPDEST POP PUSH2 0x383 PUSH2 0x1187 JUMP JUMPDEST STOP JUMPDEST CALLVALUE DUP1 ISZERO PUSH2 0x391 JUMPI PUSH1 0x0 DUP1 REVERT JUMPDEST POP PUSH2 0x3AC PUSH1 0x4 DUP1 CALLDATASIZE SUB DUP2 ADD SWAP1 PUSH2 0x3A7 SWAP2 SWAP1 PUSH2 0x46DE JUMP JUMPDEST PUSH2 0x120D JUMP JUMPDEST PUSH1 0x40 MLOAD PUSH2 0x3B9 SWAP2 SWAP1 PUSH2 0x4EEB JUMP JUMPDEST PUSH1 0x40 MLOAD DUP1 SWAP2 SUB SWAP1 RETURN JUMPDEST CALLVALUE DUP1 ISZERO PUSH2 0x3CE JUMPI PUSH1 0x0 DUP1 REVERT JUMPDEST POP PUSH2 0x3E9 PUSH1 0x4 DUP1 CALLDATASIZE SUB DUP2 ADD SWAP1 PUSH2 0x3E4 SWAP2 SWAP1 PUSH2 0x4884 JUMP JUMPDEST PUSH2 0x1326 JUMP JUMPDEST PUSH1 0x40 MLOAD PUSH2 0x3F6 SWAP2 SWAP1 PUSH2 0x4F44 JUMP JUMPDEST PUSH1 0x40 MLOAD DUP1 SWAP2 SUB SWAP1 RETURN JUMPDEST CALLVALUE DUP1 ISZERO PUSH2 0x40B JUMPI PUSH1 0x0 DUP1 REVERT JUMPDEST POP PUSH2 0x426 PUSH1 0x4 DUP1 CALLDATASIZE SUB DUP2 ADD SWAP1 PUSH2 0x421 SWAP2 SWAP1 PUSH2 0x4756 JUMP JUMPDEST PUSH2 0x133A JUMP JUMPDEST STOP JUMPDEST CALLVALUE DUP1 ISZERO PUSH2 0x434 JUMPI PUSH1 0x0 DUP1 REVERT JUMPDEST POP PUSH2 0x44F PUSH1 0x4 DUP1 CALLDATASIZE SUB DUP2 ADD SWAP1 PUSH2 0x44A SWAP2 SWAP1 PUSH2 0x4520 JUMP JUMPDEST PUSH2 0x1520 JUMP JUMPDEST STOP JUMPDEST CALLVALUE DUP1 ISZERO PUSH2 0x45D JUMPI PUSH1 0x0 DUP1 REVERT JUMPDEST POP PUSH2 0x466 PUSH2 0x15C9 JUMP JUMPDEST PUSH1 0x40 MLOAD PUSH2 0x473 SWAP2 SWAP1 PUSH2 0x4F44 JUMP JUMPDEST PUSH1 0x40 MLOAD DUP1 SWAP2 SUB SWAP1 RETURN JUMPDEST PUSH2 0x496 PUSH1 0x4 DUP1 CALLDATASIZE SUB DUP2 ADD SWAP1 PUSH2 0x491 SWAP2 SWAP1 PUSH2 0x42C2 JUMP JUMPDEST PUSH2 0x15E0 JUMP JUMPDEST STOP JUMPDEST CALLVALUE DUP1 ISZERO PUSH2 0x4A4 JUMPI PUSH1 0x0 DUP1 REVERT JUMPDEST POP PUSH2 0x4BF PUSH1 0x4 DUP1 CALLDATASIZE SUB DUP2 ADD SWAP1 PUSH2 0x4BA SWAP2 SWAP1 PUSH2 0x4495 JUMP JUMPDEST PUSH2 0x1AF2 JUMP JUMPDEST STOP JUMPDEST CALLVALUE DUP1 ISZERO PUSH2 0x4CD JUMPI PUSH1 0x0 DUP1 REVERT JUMPDEST POP PUSH2 0x4D6 PUSH2 0x1B8F JUMP JUMPDEST STOP JUMPDEST CALLVALUE DUP1 ISZERO PUSH2 0x4E4 JUMPI PUSH1 0x0 DUP1 REVERT JUMPDEST POP PUSH2 0x4FF PUSH1 0x4 DUP1 CALLDATASIZE SUB DUP2 ADD SWAP1 PUSH2 0x4FA SWAP2 SWAP1 PUSH2 0x47B2 JUMP JUMPDEST PUSH2 0x1C17 JUMP JUMPDEST STOP JUMPDEST CALLVALUE DUP1 ISZERO PUSH2 0x50D JUMPI PUSH1 0x0 DUP1 REVERT JUMPDEST POP PUSH2 0x516 PUSH2 0x1C26 JUMP JUMPDEST STOP JUMPDEST PUSH2 0x520 PUSH2 0x1CAC JUMP JUMPDEST STOP JUMPDEST CALLVALUE DUP1 ISZERO PUSH2 0x52E JUMPI PUSH1 0x0 DUP1 REVERT JUMPDEST POP PUSH2 0x549 PUSH1 0x4 DUP1 CALLDATASIZE SUB DUP2 ADD SWAP1 PUSH2 0x544 SWAP2 SWAP1 PUSH2 0x48B1 JUMP JUMPDEST PUSH2 0x1D71 JUMP JUMPDEST STOP JUMPDEST CALLVALUE DUP1 ISZERO PUSH2 0x557 JUMPI PUSH1 0x0 DUP1 REVERT JUMPDEST POP PUSH2 0x560 PUSH2 0x1E51 JUMP JUMPDEST PUSH1 0x40 MLOAD PUSH2 0x56D SWAP2 SWAP1 PUSH2 0x5369 JUMP JUMPDEST PUSH1 0x40 MLOAD DUP1 SWAP2 SUB SWAP1 RETURN JUMPDEST CALLVALUE DUP1 ISZERO PUSH2 0x582 JUMPI PUSH1 0x0 DUP1 REVERT JUMPDEST POP PUSH2 0x58B PUSH2 0x1ED5 JUMP JUMPDEST PUSH1 0x40 MLOAD PUSH2 0x598 SWAP2 SWAP1 PUSH2 0x4E0E JUMP JUMPDEST PUSH1 0x40 MLOAD DUP1 SWAP2 SUB SWAP1 RETURN JUMPDEST CALLVALUE DUP1 ISZERO PUSH2 0x5AD JUMPI PUSH1 0x0 DUP1 REVERT JUMPDEST POP PUSH2 0x5B6 PUSH2 0x1EFF JUMP JUMPDEST PUSH1 0x40 MLOAD PUSH2 0x5C3 SWAP2 SWAP1 PUSH2 0x4F5F JUMP JUMPDEST PUSH1 0x40 MLOAD DUP1 SWAP2 SUB SWAP1 RETURN JUMPDEST CALLVALUE DUP1 ISZERO PUSH2 0x5D8 JUMPI PUSH1 0x0 DUP1 REVERT JUMPDEST POP PUSH2 0x5F3 PUSH1 0x4 DUP1 CALLDATASIZE SUB DUP2 ADD SWAP1 PUSH2 0x5EE SWAP2 SWAP1 PUSH2 0x42C2 JUMP JUMPDEST PUSH2 0x1F8D JUMP JUMPDEST PUSH1 0x40 MLOAD PUSH2 0x600 SWAP2 SWAP1 PUSH2 0x5369 JUMP JUMPDEST PUSH1 0x40 MLOAD DUP1 SWAP2 SUB SWAP1 RETURN JUMPDEST CALLVALUE DUP1 ISZERO PUSH2 0x615 JUMPI PUSH1 0x0 DUP1 REVERT JUMPDEST POP PUSH2 0x630 PUSH1 0x4 DUP1 CALLDATASIZE SUB DUP2 ADD SWAP1 PUSH2 0x62B SWAP2 SWAP1 PUSH2 0x460B JUMP JUMPDEST PUSH2 0x1FA5 JUMP JUMPDEST STOP JUMPDEST CALLVALUE DUP1 ISZERO PUSH2 0x63E JUMPI PUSH1 0x0 DUP1 REVERT JUMPDEST POP PUSH2 0x659 PUSH1 0x4 DUP1 CALLDATASIZE SUB DUP2 ADD SWAP1 PUSH2 0x654 SWAP2 SWAP1 PUSH2 0x4884 JUMP JUMPDEST PUSH2 0x1FBB JUMP JUMPDEST PUSH1 0x40 MLOAD PUSH2 0x666 SWAP2 SWAP1 PUSH2 0x5369 JUMP JUMPDEST PUSH1 0x40 MLOAD DUP1 SWAP2 SUB SWAP1 RETURN JUMPDEST CALLVALUE DUP1 ISZERO PUSH2 0x67B JUMPI PUSH1 0x0 DUP1 REVERT JUMPDEST POP PUSH2 0x696 PUSH1 0x4 DUP1 CALLDATASIZE SUB DUP2 ADD SWAP1 PUSH2 0x691 SWAP2 SWAP1 PUSH2 0x490D JUMP JUMPDEST PUSH2 0x1FEF JUMP JUMPDEST STOP JUMPDEST CALLVALUE DUP1 ISZERO PUSH2 0x6A4 JUMPI PUSH1 0x0 DUP1 REVERT JUMPDEST POP PUSH2 0x6BF PUSH1 0x4 DUP1 CALLDATASIZE SUB DUP2 ADD SWAP1 PUSH2 0x6BA SWAP2 SWAP1 PUSH2 0x4884 JUMP JUMPDEST PUSH2 0x1FFE JUMP JUMPDEST PUSH1 0x40 MLOAD PUSH2 0x6CC SWAP2 SWAP1 PUSH2 0x5369 JUMP JUMPDEST PUSH1 0x40 MLOAD DUP1 SWAP2 SUB SWAP1 RETURN JUMPDEST CALLVALUE DUP1 ISZERO PUSH2 0x6E1 JUMPI PUSH1 0x0 DUP1 REVERT JUMPDEST POP PUSH2 0x6FC PUSH1 0x4 DUP1 CALLDATASIZE SUB DUP2 ADD SWAP1 PUSH2 0x6F7 SWAP2 SWAP1 PUSH2 0x4884 JUMP JUMPDEST PUSH2 0x201B JUMP JUMPDEST PUSH1 0x40 MLOAD PUSH2 0x709 SWAP2 SWAP1 PUSH2 0x4F5F JUMP JUMPDEST PUSH1 0x40 MLOAD DUP1 SWAP2 SUB SWAP1 RETURN JUMPDEST CALLVALUE DUP1 ISZERO PUSH2 0x71E JUMPI PUSH1 0x0 DUP1 REVERT JUMPDEST POP PUSH2 0x739 PUSH1 0x4 DUP1 CALLDATASIZE SUB DUP2 ADD SWAP1 PUSH2 0x734 SWAP2 SWAP1 PUSH2 0x4495 JUMP JUMPDEST PUSH2 0x20BB JUMP JUMPDEST STOP JUMPDEST CALLVALUE DUP1 ISZERO PUSH2 0x747 JUMPI PUSH1 0x0 DUP1 REVERT JUMPDEST POP PUSH2 0x762 PUSH1 0x4 DUP1 CALLDATASIZE SUB DUP2 ADD SWAP1 PUSH2 0x75D SWAP2 SWAP1 PUSH2 0x42EF JUMP JUMPDEST PUSH2 0x2157 JUMP JUMPDEST PUSH1 0x40 MLOAD PUSH2 0x76F SWAP2 SWAP1 PUSH2 0x4F44 JUMP JUMPDEST PUSH1 0x40 MLOAD DUP1 SWAP2 SUB SWAP1 RETURN JUMPDEST CALLVALUE DUP1 ISZERO PUSH2 0x784 JUMPI PUSH1 0x0 DUP1 REVERT JUMPDEST POP PUSH2 0x79F PUSH1 0x4 DUP1 CALLDATASIZE SUB DUP2 ADD SWAP1 PUSH2 0x79A SWAP2 SWAP1 PUSH2 0x43FE JUMP JUMPDEST PUSH2 0x21EB JUMP JUMPDEST STOP JUMPDEST CALLVALUE DUP1 ISZERO PUSH2 0x7AD JUMPI PUSH1 0x0 DUP1 REVERT JUMPDEST POP PUSH2 0x7C8 PUSH1 0x4 DUP1 CALLDATASIZE SUB DUP2 ADD SWAP1 PUSH2 0x7C3 SWAP2 SWAP1 PUSH2 0x42C2 JUMP JUMPDEST PUSH2 0x228C JUMP JUMPDEST STOP JUMPDEST CALLVALUE DUP1 ISZERO PUSH2 0x7D6 JUMPI PUSH1 0x0 DUP1 REVERT JUMPDEST POP PUSH2 0x7F1 PUSH1 0x4 DUP1 CALLDATASIZE SUB DUP2 ADD SWAP1 PUSH2 0x7EC SWAP2 SWAP1 PUSH2 0x468B JUMP JUMPDEST PUSH2 0x2384 JUMP JUMPDEST STOP JUMPDEST PUSH1 0x0 DUP1 PUSH20 0xFFFFFFFFFFFFFFFFFFFFFFFFFFFFFFFFFFFFFFFF AND DUP4 PUSH20 0xFFFFFFFFFFFFFFFFFFFFFFFFFFFFFFFFFFFFFFFF AND EQ ISZERO PUSH2 0x864 JUMPI PUSH1 0x40 MLOAD PUSH32 0x8C379A000000000000000000000000000000000000000000000000000000000 DUP2 MSTORE PUSH1 0x4 ADD PUSH2 0x85B SWAP1 PUSH2 0x506B JUMP JUMPDEST PUSH1 0x40 MLOAD DUP1 SWAP2 SUB SWAP1 REVERT JUMPDEST PUSH1 0x0 DUP1 DUP4 DUP2 MSTORE PUSH1 0x20 ADD SWAP1 DUP2 MSTORE PUSH1 0x20 ADD PUSH1 0x0 KECCAK256 PUSH1 0x0 DUP5 PUSH20 0xFFFFFFFFFFFFFFFFFFFFFFFFFFFFFFFFFFFFFFFF AND PUSH20 0xFFFFFFFFFFFFFFFFFFFFFFFFFFFFFFFFFFFFFFFF AND DUP2 MSTORE PUSH1 0x20 ADD SWAP1 DUP2 MSTORE PUSH1 0x20 ADD PUSH1 0x0 KECCAK256 SLOAD SWAP1 POP SWAP3 SWAP2 POP POP JUMP JUMPDEST PUSH1 0x0 PUSH32 0xD9B67A2600000000000000000000000000000000000000000000000000000000 PUSH28 0xFFFFFFFFFFFFFFFFFFFFFFFFFFFFFFFFFFFFFFFFFFFFFFFFFFFFFFFF NOT AND DUP3 PUSH28 0xFFFFFFFFFFFFFFFFFFFFFFFFFFFFFFFFFFFFFFFFFFFFFFFFFFFFFFFF NOT AND EQ DUP1 PUSH2 0x987 JUMPI POP PUSH32 0xE89341C00000000000000000000000000000000000000000000000000000000 PUSH28 0xFFFFFFFFFFFFFFFFFFFFFFFFFFFFFFFFFFFFFFFFFFFFFFFFFFFFFFFF NOT AND DUP3 PUSH28 0xFFFFFFFFFFFFFFFFFFFFFFFFFFFFFFFFFFFFFFFFFFFFFFFFFFFFFFFF NOT AND EQ JUMPDEST DUP1 PUSH2 0x997 JUMPI POP PUSH2 0x996 DUP3 PUSH2 0x2421 JUMP JUMPDEST JUMPDEST SWAP1 POP SWAP2 SWAP1 POP JUMP JUMPDEST PUSH1 0x5 DUP1 SLOAD PUSH2 0x9AB SWAP1 PUSH2 0x565C JUMP JUMPDEST DUP1 PUSH1 0x1F ADD PUSH1 0x20 DUP1 SWAP2 DIV MUL PUSH1 0x20 ADD PUSH1 0x40 MLOAD SWAP1 DUP2 ADD PUSH1 0x40 MSTORE DUP1 SWAP3 SWAP2 SWAP1 DUP2 DUP2 MSTORE PUSH1 0x20 ADD DUP3 DUP1 SLOAD PUSH2 0x9D7 SWAP1 PUSH2 0x565C JUMP JUMPDEST DUP1 ISZERO PUSH2 0xA24 JUMPI DUP1 PUSH1 0x1F LT PUSH2 0x9F9 JUMPI PUSH2 0x100 DUP1 DUP4 SLOAD DIV MUL DUP4 MSTORE SWAP2 PUSH1 0x20 ADD SWAP2 PUSH2 0xA24 JUMP JUMPDEST DUP3 ADD SWAP2 SWAP1 PUSH1 0x0 MSTORE PUSH1 0x20 PUSH1 0x0 KECCAK256 SWAP1 JUMPDEST DUP2 SLOAD DUP2 MSTORE SWAP1 PUSH1 0x1 ADD SWAP1 PUSH1 0x20 ADD DUP1 DUP4 GT PUSH2 0xA07 JUMPI DUP3 SWAP1 SUB PUSH1 0x1F AND DUP3 ADD SWAP2 JUMPDEST POP POP POP POP POP DUP2 JUMP JUMPDEST PUSH1 0x60 PUSH1 0xB PUSH1 0x0 DUP4 DUP2 MSTORE PUSH1 0x20 ADD SWAP1 DUP2 MSTORE PUSH1 0x20 ADD PUSH1 0x0 KECCAK256 DUP1 SLOAD PUSH2 0xA4C SWAP1 PUSH2 0x565C JUMP JUMPDEST DUP1 PUSH1 0x1F ADD PUSH1 0x20 DUP1 SWAP2 DIV MUL PUSH1 0x20 ADD PUSH1 0x40 MLOAD SWAP1 DUP2 ADD PUSH1 0x40 MSTORE DUP1 SWAP3 SWAP2 SWAP1 DUP2 DUP2 MSTORE PUSH1 0x20 ADD DUP3 DUP1 SLOAD PUSH2 0xA78 SWAP1 PUSH2 0x565C JUMP JUMPDEST DUP1 ISZERO PUSH2 0xAC5 JUMPI DUP1 PUSH1 0x1F LT PUSH2 0xA9A JUMPI PUSH2 0x100 DUP1 DUP4 SLOAD DIV MUL DUP4 MSTORE SWAP2 PUSH1 0x20 ADD SWAP2 PUSH2 0xAC5 JUMP JUMPDEST DUP3 ADD SWAP2 SWAP1 PUSH1 0x0 MSTORE PUSH1 0x20 PUSH1 0x0 KECCAK256 SWAP1 JUMPDEST DUP2 SLOAD DUP2 MSTORE SWAP1 PUSH1 0x1 ADD SWAP1 PUSH1 0x20 ADD DUP1 DUP4 GT PUSH2 0xAA8 JUMPI DUP3 SWAP1 SUB PUSH1 0x1F AND DUP3 ADD SWAP2 JUMPDEST POP POP POP POP POP SWAP1 POP SWAP2 SWAP1 POP JUMP JUMPDEST PUSH1 0x0 PUSH1 0xC PUSH1 0x0 DUP4 PUSH20 0xFFFFFFFFFFFFFFFFFFFFFFFFFFFFFFFFFFFFFFFF AND PUSH20 0xFFFFFFFFFFFFFFFFFFFFFFFFFFFFFFFFFFFFFFFF AND DUP2 MSTORE PUSH1 0x20 ADD SWAP1 DUP2 MSTORE PUSH1 0x20 ADD PUSH1 0x0 KECCAK256 SLOAD SWAP1 POP SWAP2 SWAP1 POP JUMP JUMPDEST PUSH2 0xB22 PUSH2 0x248B JUMP JUMPDEST PUSH20 0xFFFFFFFFFFFFFFFFFFFFFFFFFFFFFFFFFFFFFFFF AND DUP6 PUSH20 0xFFFFFFFFFFFFFFFFFFFFFFFFFFFFFFFFFFFFFFFF AND EQ DUP1 PUSH2 0xB68 JUMPI POP PUSH2 0xB67 DUP6 PUSH2 0xB62 PUSH2 0x248B JUMP JUMPDEST PUSH2 0x2157 JUMP JUMPDEST JUMPDEST PUSH2 0xBA7 JUMPI PUSH1 0x40 MLOAD PUSH32 0x8C379A000000000000000000000000000000000000000000000000000000000 DUP2 MSTORE PUSH1 0x4 ADD PUSH2 0xB9E SWAP1 PUSH2 0x51DF JUMP JUMPDEST PUSH1 0x40 MLOAD DUP1 SWAP2 SUB SWAP1 REVERT JUMPDEST PUSH2 0xBB4 DUP6 DUP6 DUP6 DUP6 DUP6 PUSH2 0x2493 JUMP JUMPDEST POP POP POP POP POP JUMP JUMPDEST PUSH2 0xBC3 PUSH2 0x248B JUMP JUMPDEST PUSH20 0xFFFFFFFFFFFFFFFFFFFFFFFFFFFFFFFFFFFFFFFF AND PUSH2 0xBE1 PUSH2 0x1ED5 JUMP JUMPDEST PUSH20 0xFFFFFFFFFFFFFFFFFFFFFFFFFFFFFFFFFFFFFFFF AND EQ PUSH2 0xC37 JUMPI PUSH1 0x40 MLOAD PUSH32 0x8C379A000000000000000000000000000000000000000000000000000000000 DUP2 MSTORE PUSH1 0x4 ADD PUSH2 0xC2E SWAP1 PUSH2 0x5289 JUMP JUMPDEST PUSH1 0x40 MLOAD DUP1 SWAP2 SUB SWAP1 REVERT JUMPDEST DUP1 PUSH32 0xA2455EC11F160D321516C021994881E7678C0B5870CD7AAE50107098770E2C28 CALLER PUSH1 0x0 PUSH1 0xC PUSH1 0x0 CALLER PUSH20 0xFFFFFFFFFFFFFFFFFFFFFFFFFFFFFFFFFFFFFFFF AND PUSH20 0xFFFFFFFFFFFFFFFFFFFFFFFFFFFFFFFFFFFFFFFF AND DUP2 MSTORE PUSH1 0x20 ADD SWAP1 DUP2 MSTORE PUSH1 0x20 ADD PUSH1 0x0 KECCAK256 SLOAD PUSH1 0x40 MLOAD PUSH2 0xCAB SWAP4 SWAP3 SWAP2 SWAP1 PUSH2 0x5001 JUMP JUMPDEST PUSH1 0x40 MLOAD DUP1 SWAP2 SUB SWAP1 LOG1 PUSH1 0x7 DUP1 SLOAD SWAP1 POP DUP2 GT ISZERO DUP1 ISZERO PUSH2 0xCC8 JUMPI POP PUSH1 0x0 DUP2 GT JUMPDEST PUSH2 0xD07 JUMPI PUSH1 0x40 MLOAD PUSH32 0x8C379A000000000000000000000000000000000000000000000000000000000 DUP2 MSTORE PUSH1 0x4 ADD PUSH2 0xCFE SWAP1 PUSH2 0x4FA1 JUMP JUMPDEST PUSH1 0x40 MLOAD DUP1 SWAP2 SUB SWAP1 REVERT JUMPDEST PUSH1 0x0 PUSH1 0x40 MLOAD DUP1 PUSH1 0x40 ADD PUSH1 0x40 MSTORE DUP1 PUSH1 0x0 PUSH1 0xFF AND DUP2 MSTORE PUSH1 0x20 ADD PUSH1 0x0 PUSH1 0xFF AND DUP2 MSTORE POP SWAP1 POP PUSH1 0x0 JUMPDEST DUP5 MLOAD DUP2 LT ISZERO PUSH2 0xF59 JUMPI PUSH1 0x0 PUSH1 0xC PUSH1 0x0 DUP8 DUP5 DUP2 MLOAD DUP2 LT PUSH2 0xD4D JUMPI PUSH2 0xD4C PUSH2 0x5790 JUMP JUMPDEST JUMPDEST PUSH1 0x20 MUL PUSH1 0x20 ADD ADD MLOAD PUSH20 0xFFFFFFFFFFFFFFFFFFFFFFFFFFFFFFFFFFFFFFFF AND PUSH20 0xFFFFFFFFFFFFFFFFFFFFFFFFFFFFFFFFFFFFFFFF AND DUP2 MSTORE PUSH1 0x20 ADD SWAP1 DUP2 MSTORE PUSH1 0x20 ADD PUSH1 0x0 KECCAK256 SLOAD EQ ISZERO PUSH2 0xE6D JUMPI DUP4 PUSH1 0xC PUSH1 0x0 DUP8 DUP5 DUP2 MLOAD DUP2 LT PUSH2 0xDAE JUMPI PUSH2 0xDAD PUSH2 0x5790 JUMP JUMPDEST JUMPDEST PUSH1 0x20 MUL PUSH1 0x20 ADD ADD MLOAD PUSH20 0xFFFFFFFFFFFFFFFFFFFFFFFFFFFFFFFFFFFFFFFF AND PUSH20 0xFFFFFFFFFFFFFFFFFFFFFFFFFFFFFFFFFFFFFFFF AND DUP2 MSTORE PUSH1 0x20 ADD SWAP1 DUP2 MSTORE PUSH1 0x20 ADD PUSH1 0x0 KECCAK256 DUP2 SWAP1 SSTORE POP DUP2 PUSH1 0x1 DUP6 PUSH2 0xE02 SWAP2 SWAP1 PUSH2 0x5553 JUMP JUMPDEST PUSH1 0x2 DUP2 LT PUSH2 0xE13 JUMPI PUSH2 0xE12 PUSH2 0x5790 JUMP JUMPDEST JUMPDEST PUSH1 0x20 MUL ADD DUP1 MLOAD DUP1 SWAP2 SWAP1 PUSH2 0xE25 SWAP1 PUSH2 0x5708 JUMP JUMPDEST PUSH1 0xFF AND PUSH1 0xFF AND DUP2 MSTORE POP POP PUSH1 0x1 DUP5 EQ PUSH2 0xE68 JUMPI DUP2 PUSH1 0x0 PUSH1 0x2 DUP2 LT PUSH2 0xE4B JUMPI PUSH2 0xE4A PUSH2 0x5790 JUMP JUMPDEST JUMPDEST PUSH1 0x20 MUL ADD DUP1 MLOAD DUP1 SWAP2 SWAP1 PUSH2 0xE5D SWAP1 PUSH2 0x5708 JUMP JUMPDEST PUSH1 0xFF AND PUSH1 0xFF AND DUP2 MSTORE POP POP JUMPDEST PUSH2 0xF46 JUMP JUMPDEST PUSH32 0xA2455EC11F160D321516C021994881E7678C0B5870CD7AAE50107098770E2C28 DUP6 DUP3 DUP2 MLOAD DUP2 LT PUSH2 0xEA1 JUMPI PUSH2 0xEA0 PUSH2 0x5790 JUMP JUMPDEST JUMPDEST PUSH1 0x20 MUL PUSH1 0x20 ADD ADD MLOAD PUSH1 0xA PUSH1 0x1 DUP8 PUSH2 0xEB8 SWAP2 SWAP1 PUSH2 0x5553 JUMP JUMPDEST DUP2 SLOAD DUP2 LT PUSH2 0xEC9 JUMPI PUSH2 0xEC8 PUSH2 0x5790 JUMP JUMPDEST JUMPDEST SWAP1 PUSH1 0x0 MSTORE PUSH1 0x20 PUSH1 0x0 KECCAK256 ADD SLOAD PUSH1 0xC PUSH1 0x0 DUP10 DUP7 DUP2 MLOAD DUP2 LT PUSH2 0xEEB JUMPI PUSH2 0xEEA PUSH2 0x5790 JUMP JUMPDEST JUMPDEST PUSH1 0x20 MUL PUSH1 0x20 ADD ADD MLOAD PUSH20 0xFFFFFFFFFFFFFFFFFFFFFFFFFFFFFFFFFFFFFFFF AND PUSH20 0xFFFFFFFFFFFFFFFFFFFFFFFFFFFFFFFFFFFFFFFF AND DUP2 MSTORE PUSH1 0x20 ADD SWAP1 DUP2 MSTORE PUSH1 0x20 ADD PUSH1 0x0 KECCAK256 SLOAD PUSH1 0x40 MLOAD PUSH2 0xF3D SWAP4 SWAP3 SWAP2 SWAP1 PUSH2 0x5115 JUMP JUMPDEST PUSH1 0x40 MLOAD DUP1 SWAP2 SUB SWAP1 LOG1 JUMPDEST DUP1 DUP1 PUSH2 0xF51 SWAP1 PUSH2 0x56BF JUMP JUMPDEST SWAP2 POP POP PUSH2 0xD2B JUMP JUMPDEST POP PUSH1 0x7 PUSH1 0x1 DUP5 PUSH2 0xF69 SWAP2 SWAP1 PUSH2 0x5553 JUMP JUMPDEST DUP2 SLOAD DUP2 LT PUSH2 0xF7A JUMPI PUSH2 0xF79 PUSH2 0x5790 JUMP JUMPDEST JUMPDEST SWAP1 PUSH1 0x0 MSTORE PUSH1 0x20 PUSH1 0x0 KECCAK256 ADD SLOAD DUP2 PUSH1 0x1 DUP6 PUSH2 0xF93 SWAP2 SWAP1 PUSH2 0x5553 JUMP JUMPDEST PUSH1 0x2 DUP2 LT PUSH2 0xFA4 JUMPI PUSH2 0xFA3 PUSH2 0x5790 JUMP JUMPDEST JUMPDEST PUSH1 0x20 MUL ADD MLOAD PUSH1 0xFF AND PUSH1 0xA PUSH1 0x1 DUP7 PUSH2 0xFBB SWAP2 SWAP1 PUSH2 0x5553 JUMP JUMPDEST DUP2 SLOAD DUP2 LT PUSH2 0xFCC JUMPI PUSH2 0xFCB PUSH2 0x5790 JUMP JUMPDEST JUMPDEST SWAP1 PUSH1 0x0 MSTORE PUSH1 0x20 PUSH1 0x0 KECCAK256 ADD SLOAD PUSH2 0xFE1 SWAP2 SWAP1 PUSH2 0x54FD JUMP JUMPDEST GT ISZERO PUSH2 0x1022 JUMPI PUSH1 0x40 MLOAD PUSH32 0x8C379A000000000000000000000000000000000000000000000000000000000 DUP2 MSTORE PUSH1 0x4 ADD PUSH2 0x1019 SWAP1 PUSH2 0x517F JUMP JUMPDEST PUSH1 0x40 MLOAD DUP1 SWAP2 SUB SWAP1 REVERT JUMPDEST PUSH1 0x7 PUSH1 0x0 DUP2 SLOAD DUP2 LT PUSH2 0x1037 JUMPI PUSH2 0x1036 PUSH2 0x5790 JUMP JUMPDEST JUMPDEST SWAP1 PUSH1 0x0 MSTORE PUSH1 0x20 PUSH1 0x0 KECCAK256 ADD SLOAD DUP2 PUSH1 0x0 PUSH1 0x2 DUP2 LT PUSH2 0x1056 JUMPI PUSH2 0x1055 PUSH2 0x5790 JUMP JUMPDEST JUMPDEST PUSH1 0x20 MUL ADD MLOAD PUSH1 0xFF AND PUSH1 0xA PUSH1 0x0 DUP2 SLOAD DUP2 LT PUSH2 0x1073 JUMPI PUSH2 0x1072 PUSH2 0x5790 JUMP JUMPDEST JUMPDEST SWAP1 PUSH1 0x0 MSTORE PUSH1 0x20 PUSH1 0x0 KECCAK256 ADD SLOAD PUSH2 0x1088 SWAP2 SWAP1 PUSH2 0x54FD JUMP JUMPDEST GT ISZERO PUSH2 0x10C9 JUMPI PUSH1 0x40 MLOAD PUSH32 0x8C379A000000000000000000000000000000000000000000000000000000000 DUP2 MSTORE PUSH1 0x4 ADD PUSH2 0x10C0 SWAP1 PUSH2 0x517F JUMP JUMPDEST PUSH1 0x40 MLOAD DUP1 SWAP2 SUB SWAP1 REVERT JUMPDEST DUP1 PUSH1 0x1 DUP5 PUSH2 0x10D7 SWAP2 SWAP1 PUSH2 0x5553 JUMP JUMPDEST PUSH1 0x2 DUP2 LT PUSH2 0x10E8 JUMPI PUSH2 0x10E7 PUSH2 0x5790 JUMP JUMPDEST JUMPDEST PUSH1 0x20 MUL ADD MLOAD PUSH1 0xFF AND PUSH1 0xA PUSH1 0x1 DUP6 PUSH2 0x10FF SWAP2 SWAP1 PUSH2 0x5553 JUMP JUMPDEST DUP2 SLOAD DUP2 LT PUSH2 0x1110 JUMPI PUSH2 0x110F PUSH2 0x5790 JUMP JUMPDEST JUMPDEST SWAP1 PUSH1 0x0 MSTORE PUSH1 0x20 PUSH1 0x0 KECCAK256 ADD PUSH1 0x0 DUP3 DUP3 SLOAD PUSH2 0x1129 SWAP2 SWAP1 PUSH2 0x54FD JUMP JUMPDEST SWAP3 POP POP DUP2 SWAP1 SSTORE POP DUP1 PUSH1 0x0 PUSH1 0x2 DUP2 LT PUSH2 0x1144 JUMPI PUSH2 0x1143 PUSH2 0x5790 JUMP JUMPDEST JUMPDEST PUSH1 0x20 MUL ADD MLOAD PUSH1 0xFF AND PUSH1 0xA PUSH1 0x0 DUP2 SLOAD DUP2 LT PUSH2 0x1161 JUMPI PUSH2 0x1160 PUSH2 0x5790 JUMP JUMPDEST JUMPDEST SWAP1 PUSH1 0x0 MSTORE PUSH1 0x20 PUSH1 0x0 KECCAK256 ADD PUSH1 0x0 DUP3 DUP3 SLOAD PUSH2 0x117A SWAP2 SWAP1 PUSH2 0x54FD JUMP JUMPDEST SWAP3 POP POP DUP2 SWAP1 SSTORE POP POP POP POP POP JUMP JUMPDEST PUSH2 0x118F PUSH2 0x248B JUMP JUMPDEST PUSH20 0xFFFFFFFFFFFFFFFFFFFFFFFFFFFFFFFFFFFFFFFF AND PUSH2 0x11AD PUSH2 0x1ED5 JUMP JUMPDEST PUSH20 0xFFFFFFFFFFFFFFFFFFFFFFFFFFFFFFFFFFFFFFFF AND EQ PUSH2 0x1203 JUMPI PUSH1 0x40 MLOAD PUSH32 0x8C379A000000000000000000000000000000000000000000000000000000000 DUP2 MSTORE PUSH1 0x4 ADD PUSH2 0x11FA SWAP1 PUSH2 0x5289 JUMP JUMPDEST PUSH1 0x40 MLOAD DUP1 SWAP2 SUB SWAP1 REVERT JUMPDEST PUSH2 0x120B PUSH2 0x27A7 JUMP JUMPDEST JUMP JUMPDEST PUSH1 0x60 DUP2 MLOAD DUP4 MLOAD EQ PUSH2 0x1253 JUMPI PUSH1 0x40 MLOAD PUSH32 0x8C379A000000000000000000000000000000000000000000000000000000000 DUP2 MSTORE PUSH1 0x4 ADD PUSH2 0x124A SWAP1 PUSH2 0x5309 JUMP JUMPDEST PUSH1 0x40 MLOAD DUP1 SWAP2 SUB SWAP1 REVERT JUMPDEST PUSH1 0x0 DUP4 MLOAD PUSH8 0xFFFFFFFFFFFFFFFF DUP2 GT ISZERO PUSH2 0x1270 JUMPI PUSH2 0x126F PUSH2 0x57BF JUMP JUMPDEST JUMPDEST PUSH1 0x40 MLOAD SWAP1 DUP1 DUP3 MSTORE DUP1 PUSH1 0x20 MUL PUSH1 0x20 ADD DUP3 ADD PUSH1 0x40 MSTORE DUP1 ISZERO PUSH2 0x129E JUMPI DUP2 PUSH1 0x20 ADD PUSH1 0x20 DUP3 MUL DUP1 CALLDATASIZE DUP4 CALLDATACOPY DUP1 DUP3 ADD SWAP2 POP POP SWAP1 POP JUMPDEST POP SWAP1 POP PUSH1 0x0 JUMPDEST DUP5 MLOAD DUP2 LT ISZERO PUSH2 0x131B JUMPI PUSH2 0x12EB DUP6 DUP3 DUP2 MLOAD DUP2 LT PUSH2 0x12C3 JUMPI PUSH2 0x12C2 PUSH2 0x5790 JUMP JUMPDEST JUMPDEST PUSH1 0x20 MUL PUSH1 0x20 ADD ADD MLOAD DUP6 DUP4 DUP2 MLOAD DUP2 LT PUSH2 0x12DE JUMPI PUSH2 0x12DD PUSH2 0x5790 JUMP JUMPDEST JUMPDEST PUSH1 0x20 MUL PUSH1 0x20 ADD ADD MLOAD PUSH2 0x7F3 JUMP JUMPDEST DUP3 DUP3 DUP2 MLOAD DUP2 LT PUSH2 0x12FE JUMPI PUSH2 0x12FD PUSH2 0x5790 JUMP JUMPDEST JUMPDEST PUSH1 0x20 MUL PUSH1 0x20 ADD ADD DUP2 DUP2 MSTORE POP POP DUP1 PUSH2 0x1314 SWAP1 PUSH2 0x56BF JUMP JUMPDEST SWAP1 POP PUSH2 0x12A4 JUMP JUMPDEST POP DUP1 SWAP2 POP POP SWAP3 SWAP2 POP POP JUMP JUMPDEST PUSH1 0x0 DUP1 PUSH2 0x1332 DUP4 PUSH2 0x1FFE JUMP JUMPDEST GT SWAP1 POP SWAP2 SWAP1 POP JUMP JUMPDEST PUSH2 0x1342 PUSH2 0x248B JUMP JUMPDEST PUSH20 0xFFFFFFFFFFFFFFFFFFFFFFFFFFFFFFFFFFFFFFFF AND PUSH2 0x1360 PUSH2 0x1ED5 JUMP JUMPDEST PUSH20 0xFFFFFFFFFFFFFFFFFFFFFFFFFFFFFFFFFFFFFFFF AND EQ PUSH2 0x13B6 JUMPI PUSH1 0x40 MLOAD PUSH32 0x8C379A000000000000000000000000000000000000000000000000000000000 DUP2 MSTORE PUSH1 0x4 ADD PUSH2 0x13AD SWAP1 PUSH2 0x5289 JUMP JUMPDEST PUSH1 0x40 MLOAD DUP1 SWAP2 SUB SWAP1 REVERT JUMPDEST DUP1 PUSH32 0xA2455EC11F160D321516C021994881E7678C0B5870CD7AAE50107098770E2C28 CALLER PUSH1 0x0 PUSH1 0xC PUSH1 0x0 CALLER PUSH20 0xFFFFFFFFFFFFFFFFFFFFFFFFFFFFFFFFFFFFFFFF AND PUSH20 0xFFFFFFFFFFFFFFFFFFFFFFFFFFFFFFFFFFFFFFFF AND DUP2 MSTORE PUSH1 0x20 ADD SWAP1 DUP2 MSTORE PUSH1 0x20 ADD PUSH1 0x0 KECCAK256 SLOAD PUSH1 0x40 MLOAD PUSH2 0x142A SWAP4 SWAP3 SWAP2 SWAP1 PUSH2 0x5001 JUMP JUMPDEST PUSH1 0x40 MLOAD DUP1 SWAP2 SUB SWAP1 LOG1 PUSH1 0x7 DUP1 SLOAD SWAP1 POP DUP2 GT ISZERO DUP1 ISZERO PUSH2 0x1447 JUMPI POP PUSH1 0x0 DUP2 GT JUMPDEST PUSH2 0x1486 JUMPI PUSH1 0x40 MLOAD PUSH32 0x8C379A000000000000000000000000000000000000000000000000000000000 DUP2 MSTORE PUSH1 0x4 ADD PUSH2 0x147D SWAP1 PUSH2 0x4FA1 JUMP JUMPDEST PUSH1 0x40 MLOAD DUP1 SWAP2 SUB SWAP1 REVERT JUMPDEST PUSH1 0x0 DUP1 JUMPDEST DUP5 MLOAD DUP2 LT ISZERO PUSH2 0x14D8 JUMPI PUSH2 0x14B7 DUP6 DUP3 DUP2 MLOAD DUP2 LT PUSH2 0x14A9 JUMPI PUSH2 0x14A8 PUSH2 0x5790 JUMP JUMPDEST JUMPDEST PUSH1 0x20 MUL PUSH1 0x20 ADD ADD MLOAD DUP6 PUSH2 0x2849 JUMP JUMPDEST DUP2 DUP1 PUSH2 0x14C2 SWAP1 PUSH2 0x56BF JUMP JUMPDEST SWAP3 POP POP DUP1 DUP1 PUSH2 0x14D0 SWAP1 PUSH2 0x56BF JUMP JUMPDEST SWAP2 POP POP PUSH2 0x148A JUMP JUMPDEST POP DUP1 PUSH1 0xA PUSH1 0x1 DUP6 PUSH2 0x14E9 SWAP2 SWAP1 PUSH2 0x5553 JUMP JUMPDEST DUP2 SLOAD DUP2 LT PUSH2 0x14FA JUMPI PUSH2 0x14F9 PUSH2 0x5790 JUMP JUMPDEST JUMPDEST SWAP1 PUSH1 0x0 MSTORE PUSH1 0x20 PUSH1 0x0 KECCAK256 ADD PUSH1 0x0 DUP3 DUP3 SLOAD PUSH2 0x1513 SWAP2 SWAP1 PUSH2 0x5553 JUMP JUMPDEST SWAP3 POP POP DUP2 SWAP1 SSTORE POP POP POP POP POP JUMP JUMPDEST PUSH2 0x1528 PUSH2 0x248B JUMP JUMPDEST PUSH20 0xFFFFFFFFFFFFFFFFFFFFFFFFFFFFFFFFFFFFFFFF AND PUSH2 0x1546 PUSH2 0x1ED5 JUMP JUMPDEST PUSH20 0xFFFFFFFFFFFFFFFFFFFFFFFFFFFFFFFFFFFFFFFF AND EQ PUSH2 0x159C JUMPI PUSH1 0x40 MLOAD PUSH32 0x8C379A000000000000000000000000000000000000000000000000000000000 DUP2 MSTORE PUSH1 0x4 ADD PUSH2 0x1593 SWAP1 PUSH2 0x5289 JUMP JUMPDEST PUSH1 0x40 MLOAD DUP1 SWAP2 SUB SWAP1 REVERT JUMPDEST PUSH2 0x15A7 DUP6 DUP6 DUP6 PUSH2 0x2B75 JUMP JUMPDEST PUSH2 0x15C2 DUP6 DUP4 DUP4 PUSH1 0x40 MLOAD DUP1 PUSH1 0x20 ADD PUSH1 0x40 MSTORE DUP1 PUSH1 0x0 DUP2 MSTORE POP PUSH2 0x2E26 JUMP JUMPDEST POP POP POP POP POP JUMP JUMPDEST PUSH1 0x0 PUSH1 0x3 PUSH1 0x14 SWAP1 SLOAD SWAP1 PUSH2 0x100 EXP SWAP1 DIV PUSH1 0xFF AND SWAP1 POP SWAP1 JUMP JUMPDEST PUSH2 0x15E8 PUSH2 0x248B JUMP JUMPDEST PUSH20 0xFFFFFFFFFFFFFFFFFFFFFFFFFFFFFFFFFFFFFFFF AND PUSH2 0x1606 PUSH2 0x1ED5 JUMP JUMPDEST PUSH20 0xFFFFFFFFFFFFFFFFFFFFFFFFFFFFFFFFFFFFFFFF AND EQ PUSH2 0x165C JUMPI PUSH1 0x40 MLOAD PUSH32 0x8C379A000000000000000000000000000000000000000000000000000000000 DUP2 MSTORE PUSH1 0x4 ADD PUSH2 0x1653 SWAP1 PUSH2 0x5289 JUMP JUMPDEST PUSH1 0x40 MLOAD DUP1 SWAP2 SUB SWAP1 REVERT JUMPDEST PUSH2 0x1664 PUSH2 0x15C9 JUMP JUMPDEST ISZERO PUSH2 0x16A4 JUMPI PUSH1 0x40 MLOAD PUSH32 0x8C379A000000000000000000000000000000000000000000000000000000000 DUP2 MSTORE PUSH1 0x4 ADD PUSH2 0x169B SWAP1 PUSH2 0x519F JUMP JUMPDEST PUSH1 0x40 MLOAD DUP1 SWAP2 SUB SWAP1 REVERT JUMPDEST DUP1 PUSH32 0xA2455EC11F160D321516C021994881E7678C0B5870CD7AAE50107098770E2C28 CALLER PUSH1 0x0 PUSH1 0xC PUSH1 0x0 CALLER PUSH20 0xFFFFFFFFFFFFFFFFFFFFFFFFFFFFFFFFFFFFFFFF AND PUSH20 0xFFFFFFFFFFFFFFFFFFFFFFFFFFFFFFFFFFFFFFFF AND DUP2 MSTORE PUSH1 0x20 ADD SWAP1 DUP2 MSTORE PUSH1 0x20 ADD PUSH1 0x0 KECCAK256 SLOAD PUSH1 0x40 MLOAD PUSH2 0x1718 SWAP4 SWAP3 SWAP2 SWAP1 PUSH2 0x50AB JUMP JUMPDEST PUSH1 0x40 MLOAD DUP1 SWAP2 SUB SWAP1 LOG1 PUSH1 0x0 PUSH1 0xC PUSH1 0x0 DUP4 PUSH20 0xFFFFFFFFFFFFFFFFFFFFFFFFFFFFFFFFFFFFFFFF AND PUSH20 0xFFFFFFFFFFFFFFFFFFFFFFFFFFFFFFFFFFFFFFFF AND DUP2 MSTORE PUSH1 0x20 ADD SWAP1 DUP2 MSTORE PUSH1 0x20 ADD PUSH1 0x0 KECCAK256 SLOAD EQ ISZERO PUSH2 0x17A3 JUMPI PUSH1 0x40 MLOAD PUSH32 0x8C379A000000000000000000000000000000000000000000000000000000000 DUP2 MSTORE PUSH1 0x4 ADD PUSH2 0x179A SWAP1 PUSH2 0x52A9 JUMP JUMPDEST PUSH1 0x40 MLOAD DUP1 SWAP2 SUB SWAP1 REVERT JUMPDEST PUSH1 0x0 PUSH2 0x17AE DUP4 PUSH2 0xAD1 JUMP JUMPDEST SWAP1 POP PUSH1 0x7 DUP1 SLOAD SWAP1 POP DUP2 GT ISZERO DUP1 ISZERO PUSH2 0x17C5 JUMPI POP PUSH1 0x0 DUP2 GT JUMPDEST PUSH2 0x1804 JUMPI PUSH1 0x40 MLOAD PUSH32 0x8C379A000000000000000000000000000000000000000000000000000000000 DUP2 MSTORE PUSH1 0x4 ADD PUSH2 0x17FB SWAP1 PUSH2 0x4FA1 JUMP JUMPDEST PUSH1 0x40 MLOAD DUP1 SWAP2 SUB SWAP1 REVERT JUMPDEST PUSH1 0x0 PUSH1 0x1 DUP3 PUSH2 0x1813 SWAP2 SWAP1 PUSH2 0x5553 JUMP JUMPDEST SWAP1 POP PUSH1 0x7 DUP2 DUP2 SLOAD DUP2 LT PUSH2 0x1829 JUMPI PUSH2 0x1828 PUSH2 0x5790 JUMP JUMPDEST JUMPDEST SWAP1 PUSH1 0x0 MSTORE PUSH1 0x20 PUSH1 0x0 KECCAK256 ADD SLOAD PUSH1 0x1 PUSH1 0x8 DUP4 DUP2 SLOAD DUP2 LT PUSH2 0x184A JUMPI PUSH2 0x1849 PUSH2 0x5790 JUMP JUMPDEST JUMPDEST SWAP1 PUSH1 0x0 MSTORE PUSH1 0x20 PUSH1 0x0 KECCAK256 ADD SLOAD PUSH2 0x185F SWAP2 SWAP1 PUSH2 0x54FD JUMP JUMPDEST GT ISZERO PUSH2 0x18A0 JUMPI PUSH1 0x40 MLOAD PUSH32 0x8C379A000000000000000000000000000000000000000000000000000000000 DUP2 MSTORE PUSH1 0x4 ADD PUSH2 0x1897 SWAP1 PUSH2 0x504B JUMP JUMPDEST PUSH1 0x40 MLOAD DUP1 SWAP2 SUB SWAP1 REVERT JUMPDEST PUSH1 0x9 DUP2 DUP2 SLOAD DUP2 LT PUSH2 0x18B4 JUMPI PUSH2 0x18B3 PUSH2 0x5790 JUMP JUMPDEST JUMPDEST SWAP1 PUSH1 0x0 MSTORE PUSH1 0x20 PUSH1 0x0 KECCAK256 ADD SLOAD CALLVALUE LT ISZERO PUSH2 0x1901 JUMPI PUSH1 0x40 MLOAD PUSH32 0x8C379A000000000000000000000000000000000000000000000000000000000 DUP2 MSTORE PUSH1 0x4 ADD PUSH2 0x18F8 SWAP1 PUSH2 0x52C9 JUMP JUMPDEST PUSH1 0x40 MLOAD DUP1 SWAP2 SUB SWAP1 REVERT JUMPDEST PUSH2 0x191D DUP5 DUP4 PUSH1 0x1 PUSH1 0x40 MLOAD DUP1 PUSH1 0x20 ADD PUSH1 0x40 MSTORE DUP1 PUSH1 0x0 DUP2 MSTORE POP PUSH2 0x3044 JUMP JUMPDEST PUSH1 0x8 DUP2 DUP2 SLOAD DUP2 LT PUSH2 0x1931 JUMPI PUSH2 0x1930 PUSH2 0x5790 JUMP JUMPDEST JUMPDEST SWAP1 PUSH1 0x0 MSTORE PUSH1 0x20 PUSH1 0x0 KECCAK256 ADD PUSH1 0x0 DUP2 SLOAD DUP1 SWAP3 SWAP2 SWAP1 PUSH2 0x194C SWAP1 PUSH2 0x56BF JUMP JUMPDEST SWAP2 SWAP1 POP SSTORE POP PUSH1 0x1 DUP3 EQ PUSH2 0x1AE1 JUMPI PUSH1 0x0 PUSH1 0x1 SWAP1 POP PUSH1 0x7 DUP1 SLOAD SWAP1 POP DUP2 GT ISZERO DUP1 ISZERO PUSH2 0x1974 JUMPI POP PUSH1 0x0 DUP2 GT JUMPDEST PUSH2 0x19B3 JUMPI PUSH1 0x40 MLOAD PUSH32 0x8C379A000000000000000000000000000000000000000000000000000000000 DUP2 MSTORE PUSH1 0x4 ADD PUSH2 0x19AA SWAP1 PUSH2 0x4FA1 JUMP JUMPDEST PUSH1 0x40 MLOAD DUP1 SWAP2 SUB SWAP1 REVERT JUMPDEST PUSH1 0x7 PUSH1 0x1 DUP3 PUSH2 0x19C2 SWAP2 SWAP1 PUSH2 0x5553 JUMP JUMPDEST DUP2 SLOAD DUP2 LT PUSH2 0x19D3 JUMPI PUSH2 0x19D2 PUSH2 0x5790 JUMP JUMPDEST JUMPDEST SWAP1 PUSH1 0x0 MSTORE PUSH1 0x20 PUSH1 0x0 KECCAK256 ADD SLOAD PUSH1 0x1 PUSH1 0x8 PUSH1 0x1 DUP5 PUSH2 0x19EF SWAP2 SWAP1 PUSH2 0x5553 JUMP JUMPDEST DUP2 SLOAD DUP2 LT PUSH2 0x1A00 JUMPI PUSH2 0x19FF PUSH2 0x5790 JUMP JUMPDEST JUMPDEST SWAP1 PUSH1 0x0 MSTORE PUSH1 0x20 PUSH1 0x0 KECCAK256 ADD SLOAD PUSH2 0x1A15 SWAP2 SWAP1 PUSH2 0x54FD JUMP JUMPDEST GT ISZERO PUSH2 0x1A56 JUMPI PUSH1 0x40 MLOAD PUSH32 0x8C379A000000000000000000000000000000000000000000000000000000000 DUP2 MSTORE PUSH1 0x4 ADD PUSH2 0x1A4D SWAP1 PUSH2 0x504B JUMP JUMPDEST PUSH1 0x40 MLOAD DUP1 SWAP2 SUB SWAP1 REVERT JUMPDEST PUSH1 0x9 PUSH1 0x1 DUP3 PUSH2 0x1A65 SWAP2 SWAP1 PUSH2 0x5553 JUMP JUMPDEST DUP2 SLOAD DUP2 LT PUSH2 0x1A76 JUMPI PUSH2 0x1A75 PUSH2 0x5790 JUMP JUMPDEST JUMPDEST SWAP1 PUSH1 0x0 MSTORE PUSH1 0x20 PUSH1 0x0 KECCAK256 ADD SLOAD CALLVALUE LT ISZERO PUSH2 0x1AC3 JUMPI PUSH1 0x40 MLOAD PUSH32 0x8C379A000000000000000000000000000000000000000000000000000000000 DUP2 MSTORE PUSH1 0x4 ADD PUSH2 0x1ABA SWAP1 PUSH2 0x52C9 JUMP JUMPDEST PUSH1 0x40 MLOAD DUP1 SWAP2 SUB SWAP1 REVERT JUMPDEST PUSH2 0x1ADF DUP6 DUP3 PUSH1 0x1 PUSH1 0x40 MLOAD DUP1 PUSH1 0x20 ADD PUSH1 0x40 MSTORE DUP1 PUSH1 0x0 DUP2 MSTORE POP PUSH2 0x3044 JUMP JUMPDEST POP JUMPDEST PUSH2 0x1AEC DUP5 PUSH1 0x1 PUSH2 0x2849 JUMP JUMPDEST POP POP POP POP JUMP JUMPDEST PUSH2 0x1AFA PUSH2 0x248B JUMP JUMPDEST PUSH20 0xFFFFFFFFFFFFFFFFFFFFFFFFFFFFFFFFFFFFFFFF AND DUP4 PUSH20 0xFFFFFFFFFFFFFFFFFFFFFFFFFFFFFFFFFFFFFFFF AND EQ DUP1 PUSH2 0x1B40 JUMPI POP PUSH2 0x1B3F DUP4 PUSH2 0x1B3A PUSH2 0x248B JUMP JUMPDEST PUSH2 0x2157 JUMP JUMPDEST JUMPDEST PUSH2 0x1B7F JUMPI PUSH1 0x40 MLOAD PUSH32 0x8C379A000000000000000000000000000000000000000000000000000000000 DUP2 MSTORE PUSH1 0x4 ADD PUSH2 0x1B76 SWAP1 PUSH2 0x515F JUMP JUMPDEST PUSH1 0x40 MLOAD DUP1 SWAP2 SUB SWAP1 REVERT JUMPDEST PUSH2 0x1B8A DUP4 DUP4 DUP4 PUSH2 0x2B75 JUMP JUMPDEST POP POP POP JUMP JUMPDEST PUSH2 0x1B97 PUSH2 0x248B JUMP JUMPDEST PUSH20 0xFFFFFFFFFFFFFFFFFFFFFFFFFFFFFFFFFFFFFFFF AND PUSH2 0x1BB5 PUSH2 0x1ED5 JUMP JUMPDEST PUSH20 0xFFFFFFFFFFFFFFFFFFFFFFFFFFFFFFFFFFFFFFFF AND EQ PUSH2 0x1C0B JUMPI PUSH1 0x40 MLOAD PUSH32 0x8C379A000000000000000000000000000000000000000000000000000000000 DUP2 MSTORE PUSH1 0x4 ADD PUSH2 0x1C02 SWAP1 PUSH2 0x5289 JUMP JUMPDEST PUSH1 0x40 MLOAD DUP1 SWAP2 SUB SWAP1 REVERT JUMPDEST PUSH2 0x1C15 PUSH1 0x0 PUSH2 0x31DA JUMP JUMPDEST JUMP JUMPDEST PUSH2 0x1C22 CALLER DUP4 DUP4 PUSH2 0x2B75 JUMP JUMPDEST POP POP JUMP JUMPDEST PUSH2 0x1C2E PUSH2 0x248B JUMP JUMPDEST PUSH20 0xFFFFFFFFFFFFFFFFFFFFFFFFFFFFFFFFFFFFFFFF AND PUSH2 0x1C4C PUSH2 0x1ED5 JUMP JUMPDEST PUSH20 0xFFFFFFFFFFFFFFFFFFFFFFFFFFFFFFFFFFFFFFFF AND EQ PUSH2 0x1CA2 JUMPI PUSH1 0x40 MLOAD PUSH32 0x8C379A000000000000000000000000000000000000000000000000000000000 DUP2 MSTORE PUSH1 0x4 ADD PUSH2 0x1C99 SWAP1 PUSH2 0x5289 JUMP JUMPDEST PUSH1 0x40 MLOAD DUP1 SWAP2 SUB SWAP1 REVERT JUMPDEST PUSH2 0x1CAA PUSH2 0x32A0 JUMP JUMPDEST JUMP JUMPDEST PUSH2 0x1CB4 PUSH2 0x248B JUMP JUMPDEST PUSH20 0xFFFFFFFFFFFFFFFFFFFFFFFFFFFFFFFFFFFFFFFF AND PUSH2 0x1CD2 PUSH2 0x1ED5 JUMP JUMPDEST PUSH20 0xFFFFFFFFFFFFFFFFFFFFFFFFFFFFFFFFFFFFFFFF AND EQ PUSH2 0x1D28 JUMPI PUSH1 0x40 MLOAD PUSH32 0x8C379A000000000000000000000000000000000000000000000000000000000 DUP2 MSTORE PUSH1 0x4 ADD PUSH2 0x1D1F SWAP1 PUSH2 0x5289 JUMP JUMPDEST PUSH1 0x40 MLOAD DUP1 SWAP2 SUB SWAP1 REVERT JUMPDEST CALLER PUSH20 0xFFFFFFFFFFFFFFFFFFFFFFFFFFFFFFFFFFFFFFFF AND PUSH2 0x8FC SELFBALANCE SWAP1 DUP2 ISZERO MUL SWAP1 PUSH1 0x40 MLOAD PUSH1 0x0 PUSH1 0x40 MLOAD DUP1 DUP4 SUB DUP2 DUP6 DUP9 DUP9 CALL SWAP4 POP POP POP POP ISZERO DUP1 ISZERO PUSH2 0x1D6E JUMPI RETURNDATASIZE PUSH1 0x0 DUP1 RETURNDATACOPY RETURNDATASIZE PUSH1 0x0 REVERT JUMPDEST POP JUMP JUMPDEST PUSH2 0x1D79 PUSH2 0x248B JUMP JUMPDEST PUSH20 0xFFFFFFFFFFFFFFFFFFFFFFFFFFFFFFFFFFFFFFFF AND PUSH2 0x1D97 PUSH2 0x1ED5 JUMP JUMPDEST PUSH20 0xFFFFFFFFFFFFFFFFFFFFFFFFFFFFFFFFFFFFFFFF AND EQ PUSH2 0x1DED JUMPI PUSH1 0x40 MLOAD PUSH32 0x8C379A000000000000000000000000000000000000000000000000000000000 DUP2 MSTORE PUSH1 0x4 ADD PUSH2 0x1DE4 SWAP1 PUSH2 0x5289 JUMP JUMPDEST PUSH1 0x40 MLOAD DUP1 SWAP2 SUB SWAP1 REVERT JUMPDEST DUP1 PUSH1 0xB PUSH1 0x0 DUP5 DUP2 MSTORE PUSH1 0x20 ADD SWAP1 DUP2 MSTORE PUSH1 0x20 ADD PUSH1 0x0 KECCAK256 SWAP1 DUP1 MLOAD SWAP1 PUSH1 0x20 ADD SWAP1 PUSH2 0x1E14 SWAP3 SWAP2 SWAP1 PUSH2 0x3F9A JUMP JUMPDEST POP DUP2 PUSH32 0x6BB7FF708619BA0610CBA295A58592E0451DEE2622938C8755667688DAF3529B DUP3 PUSH1 0x40 MLOAD PUSH2 0x1E45 SWAP2 SWAP1 PUSH2 0x4F5F JUMP JUMPDEST PUSH1 0x40 MLOAD DUP1 SWAP2 SUB SWAP1 LOG2 POP POP JUMP JUMPDEST PUSH1 0x0 PUSH2 0x1E5B PUSH2 0x248B JUMP JUMPDEST PUSH20 0xFFFFFFFFFFFFFFFFFFFFFFFFFFFFFFFFFFFFFFFF AND PUSH2 0x1E79 PUSH2 0x1ED5 JUMP JUMPDEST PUSH20 0xFFFFFFFFFFFFFFFFFFFFFFFFFFFFFFFFFFFFFFFF AND EQ PUSH2 0x1ECF JUMPI PUSH1 0x40 MLOAD PUSH32 0x8C379A000000000000000000000000000000000000000000000000000000000 DUP2 MSTORE PUSH1 0x4 ADD PUSH2 0x1EC6 SWAP1 PUSH2 0x5289 JUMP JUMPDEST PUSH1 0x40 MLOAD DUP1 SWAP2 SUB SWAP1 REVERT JUMPDEST SELFBALANCE SWAP1 POP SWAP1 JUMP JUMPDEST PUSH1 0x0 PUSH1 0x3 PUSH1 0x0 SWAP1 SLOAD SWAP1 PUSH2 0x100 EXP SWAP1 DIV PUSH20 0xFFFFFFFFFFFFFFFFFFFFFFFFFFFFFFFFFFFFFFFF AND SWAP1 POP SWAP1 JUMP JUMPDEST PUSH1 0x6 DUP1 SLOAD PUSH2 0x1F0C SWAP1 PUSH2 0x565C JUMP JUMPDEST DUP1 PUSH1 0x1F ADD PUSH1 0x20 DUP1 SWAP2 DIV MUL PUSH1 0x20 ADD PUSH1 0x40 MLOAD SWAP1 DUP2 ADD PUSH1 0x40 MSTORE DUP1 SWAP3 SWAP2 SWAP1 DUP2 DUP2 MSTORE PUSH1 0x20 ADD DUP3 DUP1 SLOAD PUSH2 0x1F38 SWAP1 PUSH2 0x565C JUMP JUMPDEST DUP1 ISZERO PUSH2 0x1F85 JUMPI DUP1 PUSH1 0x1F LT PUSH2 0x1F5A JUMPI PUSH2 0x100 DUP1 DUP4 SLOAD DIV MUL DUP4 MSTORE SWAP2 PUSH1 0x20 ADD SWAP2 PUSH2 0x1F85 JUMP JUMPDEST DUP3 ADD SWAP2 SWAP1 PUSH1 0x0 MSTORE PUSH1 0x20 PUSH1 0x0 KECCAK256 SWAP1 JUMPDEST DUP2 SLOAD DUP2 MSTORE SWAP1 PUSH1 0x1 ADD SWAP1 PUSH1 0x20 ADD DUP1 DUP4 GT PUSH2 0x1F68 JUMPI DUP3 SWAP1 SUB PUSH1 0x1F AND DUP3 ADD SWAP2 JUMPDEST POP POP POP POP POP DUP2 JUMP JUMPDEST PUSH1 0xC PUSH1 0x20 MSTORE DUP1 PUSH1 0x0 MSTORE PUSH1 0x40 PUSH1 0x0 KECCAK256 PUSH1 0x0 SWAP2 POP SWAP1 POP SLOAD DUP2 JUMP JUMPDEST PUSH2 0x1FB7 PUSH2 0x1FB0 PUSH2 0x248B JUMP JUMPDEST DUP4 DUP4 PUSH2 0x3343 JUMP JUMPDEST POP POP JUMP JUMPDEST PUSH1 0x0 PUSH1 0xA PUSH1 0x1 DUP4 PUSH2 0x1FCC SWAP2 SWAP1 PUSH2 0x5553 JUMP JUMPDEST DUP2 SLOAD DUP2 LT PUSH2 0x1FDD JUMPI PUSH2 0x1FDC PUSH2 0x5790 JUMP JUMPDEST JUMPDEST SWAP1 PUSH1 0x0 MSTORE PUSH1 0x20 PUSH1 0x0 KECCAK256 ADD SLOAD SWAP1 POP SWAP2 SWAP1 POP JUMP JUMPDEST PUSH2 0x1FFA CALLER DUP4 DUP4 PUSH2 0x34B0 JUMP JUMPDEST POP POP JUMP JUMPDEST PUSH1 0x0 PUSH1 0x4 PUSH1 0x0 DUP4 DUP2 MSTORE PUSH1 0x20 ADD SWAP1 DUP2 MSTORE PUSH1 0x20 ADD PUSH1 0x0 KECCAK256 SLOAD SWAP1 POP SWAP2 SWAP1 POP JUMP JUMPDEST PUSH1 0xB PUSH1 0x20 MSTORE DUP1 PUSH1 0x0 MSTORE PUSH1 0x40 PUSH1 0x0 KECCAK256 PUSH1 0x0 SWAP2 POP SWAP1 POP DUP1 SLOAD PUSH2 0x203A SWAP1 PUSH2 0x565C JUMP JUMPDEST DUP1 PUSH1 0x1F ADD PUSH1 0x20 DUP1 SWAP2 DIV MUL PUSH1 0x20 ADD PUSH1 0x40 MLOAD SWAP1 DUP2 ADD PUSH1 0x40 MSTORE DUP1 SWAP3 SWAP2 SWAP1 DUP2 DUP2 MSTORE PUSH1 0x20 ADD DUP3 DUP1 SLOAD PUSH2 0x2066 SWAP1 PUSH2 0x565C JUMP JUMPDEST DUP1 ISZERO PUSH2 0x20B3 JUMPI DUP1 PUSH1 0x1F LT PUSH2 0x2088 JUMPI PUSH2 0x100 DUP1 DUP4 SLOAD DIV MUL DUP4 MSTORE SWAP2 PUSH1 0x20 ADD SWAP2 PUSH2 0x20B3 JUMP JUMPDEST DUP3 ADD SWAP2 SWAP1 PUSH1 0x0 MSTORE PUSH1 0x20 PUSH1 0x0 KECCAK256 SWAP1 JUMPDEST DUP2 SLOAD DUP2 MSTORE SWAP1 PUSH1 0x1 ADD SWAP1 PUSH1 0x20 ADD DUP1 DUP4 GT PUSH2 0x2096 JUMPI DUP3 SWAP1 SUB PUSH1 0x1F AND DUP3 ADD SWAP2 JUMPDEST POP POP POP POP POP DUP2 JUMP JUMPDEST PUSH2 0x20C3 PUSH2 0x248B JUMP JUMPDEST PUSH20 0xFFFFFFFFFFFFFFFFFFFFFFFFFFFFFFFFFFFFFFFF AND PUSH2 0x20E1 PUSH2 0x1ED5 JUMP JUMPDEST PUSH20 0xFFFFFFFFFFFFFFFFFFFFFFFFFFFFFFFFFFFFFFFF AND EQ PUSH2 0x2137 JUMPI PUSH1 0x40 MLOAD PUSH32 0x8C379A000000000000000000000000000000000000000000000000000000000 DUP2 MSTORE PUSH1 0x4 ADD PUSH2 0x212E SWAP1 PUSH2 0x5289 JUMP JUMPDEST PUSH1 0x40 MLOAD DUP1 SWAP2 SUB SWAP1 REVERT JUMPDEST PUSH2 0x2152 DUP4 DUP4 DUP4 PUSH1 0x40 MLOAD DUP1 PUSH1 0x20 ADD PUSH1 0x40 MSTORE DUP1 PUSH1 0x0 DUP2 MSTORE POP PUSH2 0x2E26 JUMP JUMPDEST POP POP POP JUMP JUMPDEST PUSH1 0x0 PUSH1 0x1 PUSH1 0x0 DUP5 PUSH20 0xFFFFFFFFFFFFFFFFFFFFFFFFFFFFFFFFFFFFFFFF AND PUSH20 0xFFFFFFFFFFFFFFFFFFFFFFFFFFFFFFFFFFFFFFFF AND DUP2 MSTORE PUSH1 0x20 ADD SWAP1 DUP2 MSTORE PUSH1 0x20 ADD PUSH1 0x0 KECCAK256 PUSH1 0x0 DUP4 PUSH20 0xFFFFFFFFFFFFFFFFFFFFFFFFFFFFFFFFFFFFFFFF AND PUSH20 0xFFFFFFFFFFFFFFFFFFFFFFFFFFFFFFFFFFFFFFFF AND DUP2 MSTORE PUSH1 0x20 ADD SWAP1 DUP2 MSTORE PUSH1 0x20 ADD PUSH1 0x0 KECCAK256 PUSH1 0x0 SWAP1 SLOAD SWAP1 PUSH2 0x100 EXP SWAP1 DIV PUSH1 0xFF AND SWAP1 POP SWAP3 SWAP2 POP POP JUMP JUMPDEST PUSH2 0x21F3 PUSH2 0x248B JUMP JUMPDEST PUSH20 0xFFFFFFFFFFFFFFFFFFFFFFFFFFFFFFFFFFFFFFFF AND DUP6 PUSH20 0xFFFFFFFFFFFFFFFFFFFFFFFFFFFFFFFFFFFFFFFF AND EQ DUP1 PUSH2 0x2239 JUMPI POP PUSH2 0x2238 DUP6 PUSH2 0x2233 PUSH2 0x248B JUMP JUMPDEST PUSH2 0x2157 JUMP JUMPDEST JUMPDEST PUSH2 0x2278 JUMPI PUSH1 0x40 MLOAD PUSH32 0x8C379A000000000000000000000000000000000000000000000000000000000 DUP2 MSTORE PUSH1 0x4 ADD PUSH2 0x226F SWAP1 PUSH2 0x515F JUMP JUMPDEST PUSH1 0x40 MLOAD DUP1 SWAP2 SUB SWAP1 REVERT JUMPDEST PUSH2 0x2285 DUP6 DUP6 DUP6 DUP6 DUP6 PUSH2 0x36CD JUMP JUMPDEST POP POP POP POP POP JUMP JUMPDEST PUSH2 0x2294 PUSH2 0x248B JUMP JUMPDEST PUSH20 0xFFFFFFFFFFFFFFFFFFFFFFFFFFFFFFFFFFFFFFFF AND PUSH2 0x22B2 PUSH2 0x1ED5 JUMP JUMPDEST PUSH20 0xFFFFFFFFFFFFFFFFFFFFFFFFFFFFFFFFFFFFFFFF AND EQ PUSH2 0x2308 JUMPI PUSH1 0x40 MLOAD PUSH32 0x8C379A000000000000000000000000000000000000000000000000000000000 DUP2 MSTORE PUSH1 0x4 ADD PUSH2 0x22FF SWAP1 PUSH2 0x5289 JUMP JUMPDEST PUSH1 0x40 MLOAD DUP1 SWAP2 SUB SWAP1 REVERT JUMPDEST PUSH1 0x0 PUSH20 0xFFFFFFFFFFFFFFFFFFFFFFFFFFFFFFFFFFFFFFFF AND DUP2 PUSH20 0xFFFFFFFFFFFFFFFFFFFFFFFFFFFFFFFFFFFFFFFF AND EQ ISZERO PUSH2 0x2378 JUMPI PUSH1 0x40 MLOAD PUSH32 0x8C379A000000000000000000000000000000000000000000000000000000000 DUP2 MSTORE PUSH1 0x4 ADD PUSH2 0x236F SWAP1 PUSH2 0x508B JUMP JUMPDEST PUSH1 0x40 MLOAD DUP1 SWAP2 SUB SWAP1 REVERT JUMPDEST PUSH2 0x2381 DUP2 PUSH2 0x31DA JUMP JUMPDEST POP JUMP JUMPDEST PUSH2 0x238C PUSH2 0x248B JUMP JUMPDEST PUSH20 0xFFFFFFFFFFFFFFFFFFFFFFFFFFFFFFFFFFFFFFFF AND DUP4 PUSH20 0xFFFFFFFFFFFFFFFFFFFFFFFFFFFFFFFFFFFFFFFF AND EQ DUP1 PUSH2 0x23D2 JUMPI POP PUSH2 0x23D1 DUP4 PUSH2 0x23CC PUSH2 0x248B JUMP JUMPDEST PUSH2 0x2157 JUMP JUMPDEST JUMPDEST PUSH2 0x2411 JUMPI PUSH1 0x40 MLOAD PUSH32 0x8C379A000000000000000000000000000000000000000000000000000000000 DUP2 MSTORE PUSH1 0x4 ADD PUSH2 0x2408 SWAP1 PUSH2 0x515F JUMP JUMPDEST PUSH1 0x40 MLOAD DUP1 SWAP2 SUB SWAP1 REVERT JUMPDEST PUSH2 0x241C DUP4 DUP4 DUP4 PUSH2 0x34B0 JUMP JUMPDEST POP POP POP JUMP JUMPDEST PUSH1 0x0 PUSH32 0x1FFC9A700000000000000000000000000000000000000000000000000000000 PUSH28 0xFFFFFFFFFFFFFFFFFFFFFFFFFFFFFFFFFFFFFFFFFFFFFFFFFFFFFFFF NOT AND DUP3 PUSH28 0xFFFFFFFFFFFFFFFFFFFFFFFFFFFFFFFFFFFFFFFFFFFFFFFFFFFFFFFF NOT AND EQ SWAP1 POP SWAP2 SWAP1 POP JUMP JUMPDEST PUSH1 0x0 CALLER SWAP1 POP SWAP1 JUMP JUMPDEST DUP2 MLOAD DUP4 MLOAD EQ PUSH2 0x24D7 JUMPI PUSH1 0x40 MLOAD PUSH32 0x8C379A000000000000000000000000000000000000000000000000000000000 DUP2 MSTORE PUSH1 0x4 ADD PUSH2 0x24CE SWAP1 PUSH2 0x5329 JUMP JUMPDEST PUSH1 0x40 MLOAD DUP1 SWAP2 SUB SWAP1 REVERT JUMPDEST PUSH1 0x0 PUSH20 0xFFFFFFFFFFFFFFFFFFFFFFFFFFFFFFFFFFFFFFFF AND DUP5 PUSH20 0xFFFFFFFFFFFFFFFFFFFFFFFFFFFFFFFFFFFFFFFF AND EQ ISZERO PUSH2 0x2547 JUMPI PUSH1 0x40 MLOAD PUSH32 0x8C379A000000000000000000000000000000000000000000000000000000000 DUP2 MSTORE PUSH1 0x4 ADD PUSH2 0x253E SWAP1 PUSH2 0x51BF JUMP JUMPDEST PUSH1 0x40 MLOAD DUP1 SWAP2 SUB SWAP1 REVERT JUMPDEST PUSH1 0x0 PUSH2 0x2551 PUSH2 0x248B JUMP JUMPDEST SWAP1 POP PUSH2 0x2561 DUP2 DUP8 DUP8 DUP8 DUP8 DUP8 PUSH2 0x394F JUMP JUMPDEST PUSH1 0x0 JUMPDEST DUP5 MLOAD DUP2 LT ISZERO PUSH2 0x2712 JUMPI PUSH1 0x0 DUP6 DUP3 DUP2 MLOAD DUP2 LT PUSH2 0x2582 JUMPI PUSH2 0x2581 PUSH2 0x5790 JUMP JUMPDEST JUMPDEST PUSH1 0x20 MUL PUSH1 0x20 ADD ADD MLOAD SWAP1 POP PUSH1 0x0 DUP6 DUP4 DUP2 MLOAD DUP2 LT PUSH2 0x25A1 JUMPI PUSH2 0x25A0 PUSH2 0x5790 JUMP JUMPDEST JUMPDEST PUSH1 0x20 MUL PUSH1 0x20 ADD ADD MLOAD SWAP1 POP PUSH1 0x0 DUP1 PUSH1 0x0 DUP5 DUP2 MSTORE PUSH1 0x20 ADD SWAP1 DUP2 MSTORE PUSH1 0x20 ADD PUSH1 0x0 KECCAK256 PUSH1 0x0 DUP12 PUSH20 0xFFFFFFFFFFFFFFFFFFFFFFFFFFFFFFFFFFFFFFFF AND PUSH20 0xFFFFFFFFFFFFFFFFFFFFFFFFFFFFFFFFFFFFFFFF AND DUP2 MSTORE PUSH1 0x20 ADD SWAP1 DUP2 MSTORE PUSH1 0x20 ADD PUSH1 0x0 KECCAK256 SLOAD SWAP1 POP DUP2 DUP2 LT ISZERO PUSH2 0x2642 JUMPI PUSH1 0x40 MLOAD PUSH32 0x8C379A000000000000000000000000000000000000000000000000000000000 DUP2 MSTORE PUSH1 0x4 ADD PUSH2 0x2639 SWAP1 PUSH2 0x521F JUMP JUMPDEST PUSH1 0x40 MLOAD DUP1 SWAP2 SUB SWAP1 REVERT JUMPDEST DUP2 DUP2 SUB PUSH1 0x0 DUP1 DUP6 DUP2 MSTORE PUSH1 0x20 ADD SWAP1 DUP2 MSTORE PUSH1 0x20 ADD PUSH1 0x0 KECCAK256 PUSH1 0x0 DUP13 PUSH20 0xFFFFFFFFFFFFFFFFFFFFFFFFFFFFFFFFFFFFFFFF AND PUSH20 0xFFFFFFFFFFFFFFFFFFFFFFFFFFFFFFFFFFFFFFFF AND DUP2 MSTORE PUSH1 0x20 ADD SWAP1 DUP2 MSTORE PUSH1 0x20 ADD PUSH1 0x0 KECCAK256 DUP2 SWAP1 SSTORE POP DUP2 PUSH1 0x0 DUP1 DUP6 DUP2 MSTORE PUSH1 0x20 ADD SWAP1 DUP2 MSTORE PUSH1 0x20 ADD PUSH1 0x0 KECCAK256 PUSH1 0x0 DUP12 PUSH20 0xFFFFFFFFFFFFFFFFFFFFFFFFFFFFFFFFFFFFFFFF AND PUSH20 0xFFFFFFFFFFFFFFFFFFFFFFFFFFFFFFFFFFFFFFFF AND DUP2 MSTORE PUSH1 0x20 ADD SWAP1 DUP2 MSTORE PUSH1 0x20 ADD PUSH1 0x0 KECCAK256 PUSH1 0x0 DUP3 DUP3 SLOAD PUSH2 0x26F7 SWAP2 SWAP1 PUSH2 0x54FD JUMP JUMPDEST SWAP3 POP POP DUP2 SWAP1 SSTORE POP POP POP POP DUP1 PUSH2 0x270B SWAP1 PUSH2 0x56BF JUMP JUMPDEST SWAP1 POP PUSH2 0x2564 JUMP JUMPDEST POP DUP5 PUSH20 0xFFFFFFFFFFFFFFFFFFFFFFFFFFFFFFFFFFFFFFFF AND DUP7 PUSH20 0xFFFFFFFFFFFFFFFFFFFFFFFFFFFFFFFFFFFFFFFF AND DUP3 PUSH20 0xFFFFFFFFFFFFFFFFFFFFFFFFFFFFFFFFFFFFFFFF AND PUSH32 0x4A39DC06D4C0DBC64B70AF90FD698A233A518AA5D07E595D983B8C0526C8F7FB DUP8 DUP8 PUSH1 0x40 MLOAD PUSH2 0x2789 SWAP3 SWAP2 SWAP1 PUSH2 0x4F0D JUMP JUMPDEST PUSH1 0x40 MLOAD DUP1 SWAP2 SUB SWAP1 LOG4 PUSH2 0x279F DUP2 DUP8 DUP8 DUP8 DUP8 DUP8 PUSH2 0x39AD JUMP JUMPDEST POP POP POP POP POP POP JUMP JUMPDEST PUSH2 0x27AF PUSH2 0x15C9 JUMP JUMPDEST PUSH2 0x27EE JUMPI PUSH1 0x40 MLOAD PUSH32 0x8C379A000000000000000000000000000000000000000000000000000000000 DUP2 MSTORE PUSH1 0x4 ADD PUSH2 0x27E5 SWAP1 PUSH2 0x4FE1 JUMP JUMPDEST PUSH1 0x40 MLOAD DUP1 SWAP2 SUB SWAP1 REVERT JUMPDEST PUSH1 0x0 PUSH1 0x3 PUSH1 0x14 PUSH2 0x100 EXP DUP2 SLOAD DUP2 PUSH1 0xFF MUL NOT AND SWAP1 DUP4 ISZERO ISZERO MUL OR SWAP1 SSTORE POP PUSH32 0x5DB9EE0A495BF2E6FF9C91A7834C1BA4FDD244A5E8AA4E537BD38AEAE4B073AA PUSH2 0x2832 PUSH2 0x248B JUMP JUMPDEST PUSH1 0x40 MLOAD PUSH2 0x283F SWAP2 SWAP1 PUSH2 0x4E0E JUMP JUMPDEST PUSH1 0x40 MLOAD DUP1 SWAP2 SUB SWAP1 LOG1 JUMP JUMPDEST PUSH2 0x2851 PUSH2 0x248B JUMP JUMPDEST PUSH20 0xFFFFFFFFFFFFFFFFFFFFFFFFFFFFFFFFFFFFFFFF AND PUSH2 0x286F PUSH2 0x1ED5 JUMP JUMPDEST PUSH20 0xFFFFFFFFFFFFFFFFFFFFFFFFFFFFFFFFFFFFFFFF AND EQ PUSH2 0x28C5 JUMPI PUSH1 0x40 MLOAD PUSH32 0x8C379A000000000000000000000000000000000000000000000000000000000 DUP2 MSTORE PUSH1 0x4 ADD PUSH2 0x28BC SWAP1 PUSH2 0x5289 JUMP JUMPDEST PUSH1 0x40 MLOAD DUP1 SWAP2 SUB SWAP1 REVERT JUMPDEST DUP1 PUSH32 0xA2455EC11F160D321516C021994881E7678C0B5870CD7AAE50107098770E2C28 CALLER PUSH1 0x0 PUSH1 0xC PUSH1 0x0 CALLER PUSH20 0xFFFFFFFFFFFFFFFFFFFFFFFFFFFFFFFFFFFFFFFF AND PUSH20 0xFFFFFFFFFFFFFFFFFFFFFFFFFFFFFFFFFFFFFFFF AND DUP2 MSTORE PUSH1 0x20 ADD SWAP1 DUP2 MSTORE PUSH1 0x20 ADD PUSH1 0x0 KECCAK256 SLOAD PUSH1 0x40 MLOAD PUSH2 0x2939 SWAP4 SWAP3 SWAP2 SWAP1 PUSH2 0x5001 JUMP JUMPDEST PUSH1 0x40 MLOAD DUP1 SWAP2 SUB SWAP1 LOG1 PUSH1 0x7 DUP1 SLOAD SWAP1 POP DUP2 GT ISZERO DUP1 ISZERO PUSH2 0x2956 JUMPI POP PUSH1 0x0 DUP2 GT JUMPDEST PUSH2 0x2995 JUMPI PUSH1 0x40 MLOAD PUSH32 0x8C379A000000000000000000000000000000000000000000000000000000000 DUP2 MSTORE PUSH1 0x4 ADD PUSH2 0x298C SWAP1 PUSH2 0x4FA1 JUMP JUMPDEST PUSH1 0x40 MLOAD DUP1 SWAP2 SUB SWAP1 REVERT JUMPDEST PUSH1 0x0 DUP1 PUSH1 0xC PUSH1 0x0 DUP7 PUSH20 0xFFFFFFFFFFFFFFFFFFFFFFFFFFFFFFFFFFFFFFFF AND PUSH20 0xFFFFFFFFFFFFFFFFFFFFFFFFFFFFFFFFFFFFFFFF AND DUP2 MSTORE PUSH1 0x20 ADD SWAP1 DUP2 MSTORE PUSH1 0x20 ADD PUSH1 0x0 KECCAK256 SLOAD EQ PUSH2 0x2A89 JUMPI PUSH1 0x1 DUP4 EQ ISZERO PUSH2 0x2A30 JUMPI PUSH1 0x0 PUSH1 0xC PUSH1 0x0 DUP7 PUSH20 0xFFFFFFFFFFFFFFFFFFFFFFFFFFFFFFFFFFFFFFFF AND PUSH20 0xFFFFFFFFFFFFFFFFFFFFFFFFFFFFFFFFFFFFFFFF AND DUP2 MSTORE PUSH1 0x20 ADD SWAP1 DUP2 MSTORE PUSH1 0x20 ADD PUSH1 0x0 KECCAK256 DUP2 SWAP1 SSTORE POP PUSH2 0x2A76 JUMP JUMPDEST PUSH1 0x1 PUSH1 0xC PUSH1 0x0 DUP7 PUSH20 0xFFFFFFFFFFFFFFFFFFFFFFFFFFFFFFFFFFFFFFFF AND PUSH20 0xFFFFFFFFFFFFFFFFFFFFFFFFFFFFFFFFFFFFFFFF AND DUP2 MSTORE PUSH1 0x20 ADD SWAP1 DUP2 MSTORE PUSH1 0x20 ADD PUSH1 0x0 KECCAK256 DUP2 SWAP1 SSTORE POP JUMPDEST DUP1 DUP1 PUSH2 0x2A81 SWAP1 PUSH2 0x56BF JUMP JUMPDEST SWAP2 POP POP PUSH2 0x2B2E JUMP JUMPDEST PUSH32 0xA2455EC11F160D321516C021994881E7678C0B5870CD7AAE50107098770E2C28 DUP5 PUSH1 0xA PUSH1 0x1 DUP7 PUSH2 0x2ABA SWAP2 SWAP1 PUSH2 0x5553 JUMP JUMPDEST DUP2 SLOAD DUP2 LT PUSH2 0x2ACB JUMPI PUSH2 0x2ACA PUSH2 0x5790 JUMP JUMPDEST JUMPDEST SWAP1 PUSH1 0x0 MSTORE PUSH1 0x20 PUSH1 0x0 KECCAK256 ADD SLOAD PUSH1 0xC PUSH1 0x0 DUP9 PUSH20 0xFFFFFFFFFFFFFFFFFFFFFFFFFFFFFFFFFFFFFFFF AND PUSH20 0xFFFFFFFFFFFFFFFFFFFFFFFFFFFFFFFFFFFFFFFF AND DUP2 MSTORE PUSH1 0x20 ADD SWAP1 DUP2 MSTORE PUSH1 0x20 ADD PUSH1 0x0 KECCAK256 SLOAD PUSH1 0x40 MLOAD PUSH2 0x2B25 SWAP4 SWAP3 SWAP2 SWAP1 PUSH2 0x523F JUMP JUMPDEST PUSH1 0x40 MLOAD DUP1 SWAP2 SUB SWAP1 LOG1 JUMPDEST DUP1 PUSH1 0xA PUSH1 0x1 DUP6 PUSH2 0x2B3E SWAP2 SWAP1 PUSH2 0x5553 JUMP JUMPDEST DUP2 SLOAD DUP2 LT PUSH2 0x2B4F JUMPI PUSH2 0x2B4E PUSH2 0x5790 JUMP JUMPDEST JUMPDEST SWAP1 PUSH1 0x0 MSTORE PUSH1 0x20 PUSH1 0x0 KECCAK256 ADD PUSH1 0x0 DUP3 DUP3 SLOAD PUSH2 0x2B68 SWAP2 SWAP1 PUSH2 0x5553 JUMP JUMPDEST SWAP3 POP POP DUP2 SWAP1 SSTORE POP POP POP POP POP JUMP JUMPDEST PUSH1 0x0 PUSH20 0xFFFFFFFFFFFFFFFFFFFFFFFFFFFFFFFFFFFFFFFF AND DUP4 PUSH20 0xFFFFFFFFFFFFFFFFFFFFFFFFFFFFFFFFFFFFFFFF AND EQ ISZERO PUSH2 0x2BE5 JUMPI PUSH1 0x40 MLOAD PUSH32 0x8C379A000000000000000000000000000000000000000000000000000000000 DUP2 MSTORE PUSH1 0x4 ADD PUSH2 0x2BDC SWAP1 PUSH2 0x51FF JUMP JUMPDEST PUSH1 0x40 MLOAD DUP1 SWAP2 SUB SWAP1 REVERT JUMPDEST DUP1 MLOAD DUP3 MLOAD EQ PUSH2 0x2C29 JUMPI PUSH1 0x40 MLOAD PUSH32 0x8C379A000000000000000000000000000000000000000000000000000000000 DUP2 MSTORE PUSH1 0x4 ADD PUSH2 0x2C20 SWAP1 PUSH2 0x5329 JUMP JUMPDEST PUSH1 0x40 MLOAD DUP1 SWAP2 SUB SWAP1 REVERT JUMPDEST PUSH1 0x0 PUSH2 0x2C33 PUSH2 0x248B JUMP JUMPDEST SWAP1 POP PUSH2 0x2C53 DUP2 DUP6 PUSH1 0x0 DUP7 DUP7 PUSH1 0x40 MLOAD DUP1 PUSH1 0x20 ADD PUSH1 0x40 MSTORE DUP1 PUSH1 0x0 DUP2 MSTORE POP PUSH2 0x394F JUMP JUMPDEST PUSH1 0x0 JUMPDEST DUP4 MLOAD DUP2 LT ISZERO PUSH2 0x2DA0 JUMPI PUSH1 0x0 DUP5 DUP3 DUP2 MLOAD DUP2 LT PUSH2 0x2C74 JUMPI PUSH2 0x2C73 PUSH2 0x5790 JUMP JUMPDEST JUMPDEST PUSH1 0x20 MUL PUSH1 0x20 ADD ADD MLOAD SWAP1 POP PUSH1 0x0 DUP5 DUP4 DUP2 MLOAD DUP2 LT PUSH2 0x2C93 JUMPI PUSH2 0x2C92 PUSH2 0x5790 JUMP JUMPDEST JUMPDEST PUSH1 0x20 MUL PUSH1 0x20 ADD ADD MLOAD SWAP1 POP PUSH1 0x0 DUP1 PUSH1 0x0 DUP5 DUP2 MSTORE PUSH1 0x20 ADD SWAP1 DUP2 MSTORE PUSH1 0x20 ADD PUSH1 0x0 KECCAK256 PUSH1 0x0 DUP10 PUSH20 0xFFFFFFFFFFFFFFFFFFFFFFFFFFFFFFFFFFFFFFFF AND PUSH20 0xFFFFFFFFFFFFFFFFFFFFFFFFFFFFFFFFFFFFFFFF AND DUP2 MSTORE PUSH1 0x20 ADD SWAP1 DUP2 MSTORE PUSH1 0x20 ADD PUSH1 0x0 KECCAK256 SLOAD SWAP1 POP DUP2 DUP2 LT ISZERO PUSH2 0x2D34 JUMPI PUSH1 0x40 MLOAD PUSH32 0x8C379A000000000000000000000000000000000000000000000000000000000 DUP2 MSTORE PUSH1 0x4 ADD PUSH2 0x2D2B SWAP1 PUSH2 0x50F5 JUMP JUMPDEST PUSH1 0x40 MLOAD DUP1 SWAP2 SUB SWAP1 REVERT JUMPDEST DUP2 DUP2 SUB PUSH1 0x0 DUP1 DUP6 DUP2 MSTORE PUSH1 0x20 ADD SWAP1 DUP2 MSTORE PUSH1 0x20 ADD PUSH1 0x0 KECCAK256 PUSH1 0x0 DUP11 PUSH20 0xFFFFFFFFFFFFFFFFFFFFFFFFFFFFFFFFFFFFFFFF AND PUSH20 0xFFFFFFFFFFFFFFFFFFFFFFFFFFFFFFFFFFFFFFFF AND DUP2 MSTORE PUSH1 0x20 ADD SWAP1 DUP2 MSTORE PUSH1 0x20 ADD PUSH1 0x0 KECCAK256 DUP2 SWAP1 SSTORE POP POP POP POP DUP1 DUP1 PUSH2 0x2D98 SWAP1 PUSH2 0x56BF JUMP JUMPDEST SWAP2 POP POP PUSH2 0x2C56 JUMP JUMPDEST POP PUSH1 0x0 PUSH20 0xFFFFFFFFFFFFFFFFFFFFFFFFFFFFFFFFFFFFFFFF AND DUP5 PUSH20 0xFFFFFFFFFFFFFFFFFFFFFFFFFFFFFFFFFFFFFFFF AND DUP3 PUSH20 0xFFFFFFFFFFFFFFFFFFFFFFFFFFFFFFFFFFFFFFFF AND PUSH32 0x4A39DC06D4C0DBC64B70AF90FD698A233A518AA5D07E595D983B8C0526C8F7FB DUP7 DUP7 PUSH1 0x40 MLOAD PUSH2 0x2E18 SWAP3 SWAP2 SWAP1 PUSH2 0x4F0D JUMP JUMPDEST PUSH1 0x40 MLOAD DUP1 SWAP2 SUB SWAP1 LOG4 POP POP POP POP JUMP JUMPDEST PUSH1 0x0 PUSH20 0xFFFFFFFFFFFFFFFFFFFFFFFFFFFFFFFFFFFFFFFF AND DUP5 PUSH20 0xFFFFFFFFFFFFFFFFFFFFFFFFFFFFFFFFFFFFFFFF AND EQ ISZERO PUSH2 0x2E96 JUMPI PUSH1 0x40 MLOAD PUSH32 0x8C379A000000000000000000000000000000000000000000000000000000000 DUP2 MSTORE PUSH1 0x4 ADD PUSH2 0x2E8D SWAP1 PUSH2 0x5349 JUMP JUMPDEST PUSH1 0x40 MLOAD DUP1 SWAP2 SUB SWAP1 REVERT JUMPDEST DUP2 MLOAD DUP4 MLOAD EQ PUSH2 0x2EDA JUMPI PUSH1 0x40 MLOAD PUSH32 0x8C379A000000000000000000000000000000000000000000000000000000000 DUP2 MSTORE PUSH1 0x4 ADD PUSH2 0x2ED1 SWAP1 PUSH2 0x5329 JUMP JUMPDEST PUSH1 0x40 MLOAD DUP1 SWAP2 SUB SWAP1 REVERT JUMPDEST PUSH1 0x0 PUSH2 0x2EE4 PUSH2 0x248B JUMP JUMPDEST SWAP1 POP PUSH2 0x2EF5 DUP2 PUSH1 0x0 DUP8 DUP8 DUP8 DUP8 PUSH2 0x394F JUMP JUMPDEST PUSH1 0x0 JUMPDEST DUP5 MLOAD DUP2 LT ISZERO PUSH2 0x2FAE JUMPI DUP4 DUP2 DUP2 MLOAD DUP2 LT PUSH2 0x2F14 JUMPI PUSH2 0x2F13 PUSH2 0x5790 JUMP JUMPDEST JUMPDEST PUSH1 0x20 MUL PUSH1 0x20 ADD ADD MLOAD PUSH1 0x0 DUP1 DUP8 DUP5 DUP2 MLOAD DUP2 LT PUSH2 0x2F32 JUMPI PUSH2 0x2F31 PUSH2 0x5790 JUMP JUMPDEST JUMPDEST PUSH1 0x20 MUL PUSH1 0x20 ADD ADD MLOAD DUP2 MSTORE PUSH1 0x20 ADD SWAP1 DUP2 MSTORE PUSH1 0x20 ADD PUSH1 0x0 KECCAK256 PUSH1 0x0 DUP9 PUSH20 0xFFFFFFFFFFFFFFFFFFFFFFFFFFFFFFFFFFFFFFFF AND PUSH20 0xFFFFFFFFFFFFFFFFFFFFFFFFFFFFFFFFFFFFFFFF AND DUP2 MSTORE PUSH1 0x20 ADD SWAP1 DUP2 MSTORE PUSH1 0x20 ADD PUSH1 0x0 KECCAK256 PUSH1 0x0 DUP3 DUP3 SLOAD PUSH2 0x2F94 SWAP2 SWAP1 PUSH2 0x54FD JUMP JUMPDEST SWAP3 POP POP DUP2 SWAP1 SSTORE POP DUP1 DUP1 PUSH2 0x2FA6 SWAP1 PUSH2 0x56BF JUMP JUMPDEST SWAP2 POP POP PUSH2 0x2EF8 JUMP JUMPDEST POP DUP5 PUSH20 0xFFFFFFFFFFFFFFFFFFFFFFFFFFFFFFFFFFFFFFFF AND PUSH1 0x0 PUSH20 0xFFFFFFFFFFFFFFFFFFFFFFFFFFFFFFFFFFFFFFFF AND DUP3 PUSH20 0xFFFFFFFFFFFFFFFFFFFFFFFFFFFFFFFFFFFFFFFF AND PUSH32 0x4A39DC06D4C0DBC64B70AF90FD698A233A518AA5D07E595D983B8C0526C8F7FB DUP8 DUP8 PUSH1 0x40 MLOAD PUSH2 0x3026 SWAP3 SWAP2 SWAP1 PUSH2 0x4F0D JUMP JUMPDEST PUSH1 0x40 MLOAD DUP1 SWAP2 SUB SWAP1 LOG4 PUSH2 0x303D DUP2 PUSH1 0x0 DUP8 DUP8 DUP8 DUP8 PUSH2 0x39AD JUMP JUMPDEST POP POP POP POP POP JUMP JUMPDEST PUSH1 0x0 PUSH20 0xFFFFFFFFFFFFFFFFFFFFFFFFFFFFFFFFFFFFFFFF AND DUP5 PUSH20 0xFFFFFFFFFFFFFFFFFFFFFFFFFFFFFFFFFFFFFFFF AND EQ ISZERO PUSH2 0x30B4 JUMPI PUSH1 0x40 MLOAD PUSH32 0x8C379A000000000000000000000000000000000000000000000000000000000 DUP2 MSTORE PUSH1 0x4 ADD PUSH2 0x30AB SWAP1 PUSH2 0x5349 JUMP JUMPDEST PUSH1 0x40 MLOAD DUP1 SWAP2 SUB SWAP1 REVERT JUMPDEST PUSH1 0x0 PUSH2 0x30BE PUSH2 0x248B JUMP JUMPDEST SWAP1 POP PUSH2 0x30DF DUP2 PUSH1 0x0 DUP8 PUSH2 0x30D0 DUP9 PUSH2 0x3B94 JUMP JUMPDEST PUSH2 0x30D9 DUP9 PUSH2 0x3B94 JUMP JUMPDEST DUP8 PUSH2 0x394F JUMP JUMPDEST DUP3 PUSH1 0x0 DUP1 DUP7 DUP2 MSTORE PUSH1 0x20 ADD SWAP1 DUP2 MSTORE PUSH1 0x20 ADD PUSH1 0x0 KECCAK256 PUSH1 0x0 DUP8 PUSH20 0xFFFFFFFFFFFFFFFFFFFFFFFFFFFFFFFFFFFFFFFF AND PUSH20 0xFFFFFFFFFFFFFFFFFFFFFFFFFFFFFFFFFFFFFFFF AND DUP2 MSTORE PUSH1 0x20 ADD SWAP1 DUP2 MSTORE PUSH1 0x20 ADD PUSH1 0x0 KECCAK256 PUSH1 0x0 DUP3 DUP3 SLOAD PUSH2 0x313E SWAP2 SWAP1 PUSH2 0x54FD JUMP JUMPDEST SWAP3 POP POP DUP2 SWAP1 SSTORE POP DUP5 PUSH20 0xFFFFFFFFFFFFFFFFFFFFFFFFFFFFFFFFFFFFFFFF AND PUSH1 0x0 PUSH20 0xFFFFFFFFFFFFFFFFFFFFFFFFFFFFFFFFFFFFFFFF AND DUP3 PUSH20 0xFFFFFFFFFFFFFFFFFFFFFFFFFFFFFFFFFFFFFFFF AND PUSH32 0xC3D58168C5AE7397731D063D5BBF3D657854427343F4C083240F7AACAA2D0F62 DUP8 DUP8 PUSH1 0x40 MLOAD PUSH2 0x31BC SWAP3 SWAP2 SWAP1 PUSH2 0x5384 JUMP JUMPDEST PUSH1 0x40 MLOAD DUP1 SWAP2 SUB SWAP1 LOG4 PUSH2 0x31D3 DUP2 PUSH1 0x0 DUP8 DUP8 DUP8 DUP8 PUSH2 0x3C0E JUMP JUMPDEST POP POP POP POP POP JUMP JUMPDEST PUSH1 0x0 PUSH1 0x3 PUSH1 0x0 SWAP1 SLOAD SWAP1 PUSH2 0x100 EXP SWAP1 DIV PUSH20 0xFFFFFFFFFFFFFFFFFFFFFFFFFFFFFFFFFFFFFFFF AND SWAP1 POP DUP2 PUSH1 0x3 PUSH1 0x0 PUSH2 0x100 EXP DUP2 SLOAD DUP2 PUSH20 0xFFFFFFFFFFFFFFFFFFFFFFFFFFFFFFFFFFFFFFFF MUL NOT AND SWAP1 DUP4 PUSH20 0xFFFFFFFFFFFFFFFFFFFFFFFFFFFFFFFFFFFFFFFF AND MUL OR SWAP1 SSTORE POP DUP2 PUSH20 0xFFFFFFFFFFFFFFFFFFFFFFFFFFFFFFFFFFFFFFFF AND DUP2 PUSH20 0xFFFFFFFFFFFFFFFFFFFFFFFFFFFFFFFFFFFFFFFF AND PUSH32 0x8BE0079C531659141344CD1FD0A4F28419497F9722A3DAAFE3B4186F6B6457E0 PUSH1 0x40 MLOAD PUSH1 0x40 MLOAD DUP1 SWAP2 SUB SWAP1 LOG3 POP POP JUMP JUMPDEST PUSH2 0x32A8 PUSH2 0x15C9 JUMP JUMPDEST ISZERO PUSH2 0x32E8 JUMPI PUSH1 0x40 MLOAD PUSH32 0x8C379A000000000000000000000000000000000000000000000000000000000 DUP2 MSTORE PUSH1 0x4 ADD PUSH2 0x32DF SWAP1 PUSH2 0x519F JUMP JUMPDEST PUSH1 0x40 MLOAD DUP1 SWAP2 SUB SWAP1 REVERT JUMPDEST PUSH1 0x1 PUSH1 0x3 PUSH1 0x14 PUSH2 0x100 EXP DUP2 SLOAD DUP2 PUSH1 0xFF MUL NOT AND SWAP1 DUP4 ISZERO ISZERO MUL OR SWAP1 SSTORE POP PUSH32 0x62E78CEA01BEE320CD4E420270B5EA74000D11B0C9F74754EBDBFC544B05A258 PUSH2 0x332C PUSH2 0x248B JUMP JUMPDEST PUSH1 0x40 MLOAD PUSH2 0x3339 SWAP2 SWAP1 PUSH2 0x4E0E JUMP JUMPDEST PUSH1 0x40 MLOAD DUP1 SWAP2 SUB SWAP1 LOG1 JUMP JUMPDEST DUP2 PUSH20 0xFFFFFFFFFFFFFFFFFFFFFFFFFFFFFFFFFFFFFFFF AND DUP4 PUSH20 0xFFFFFFFFFFFFFFFFFFFFFFFFFFFFFFFFFFFFFFFF AND EQ ISZERO PUSH2 0x33B2 JUMPI PUSH1 0x40 MLOAD PUSH32 0x8C379A000000000000000000000000000000000000000000000000000000000 DUP2 MSTORE PUSH1 0x4 ADD PUSH2 0x33A9 SWAP1 PUSH2 0x52E9 JUMP JUMPDEST PUSH1 0x40 MLOAD DUP1 SWAP2 SUB SWAP1 REVERT JUMPDEST DUP1 PUSH1 0x1 PUSH1 0x0 DUP6 PUSH20 0xFFFFFFFFFFFFFFFFFFFFFFFFFFFFFFFFFFFFFFFF AND PUSH20 0xFFFFFFFFFFFFFFFFFFFFFFFFFFFFFFFFFFFFFFFF AND DUP2 MSTORE PUSH1 0x20 ADD SWAP1 DUP2 MSTORE PUSH1 0x20 ADD PUSH1 0x0 KECCAK256 PUSH1 0x0 DUP5 PUSH20 0xFFFFFFFFFFFFFFFFFFFFFFFFFFFFFFFFFFFFFFFF AND PUSH20 0xFFFFFFFFFFFFFFFFFFFFFFFFFFFFFFFFFFFFFFFF AND DUP2 MSTORE PUSH1 0x20 ADD SWAP1 DUP2 MSTORE PUSH1 0x20 ADD PUSH1 0x0 KECCAK256 PUSH1 0x0 PUSH2 0x100 EXP DUP2 SLOAD DUP2 PUSH1 0xFF MUL NOT AND SWAP1 DUP4 ISZERO ISZERO MUL OR SWAP1 SSTORE POP DUP2 PUSH20 0xFFFFFFFFFFFFFFFFFFFFFFFFFFFFFFFFFFFFFFFF AND DUP4 PUSH20 0xFFFFFFFFFFFFFFFFFFFFFFFFFFFFFFFFFFFFFFFF AND PUSH32 0x17307EAB39AB6107E8899845AD3D59BD9653F200F220920489CA2B5937696C31 DUP4 PUSH1 0x40 MLOAD PUSH2 0x34A3 SWAP2 SWAP1 PUSH2 0x4F44 JUMP JUMPDEST PUSH1 0x40 MLOAD DUP1 SWAP2 SUB SWAP1 LOG3 POP POP POP JUMP JUMPDEST PUSH1 0x0 PUSH20 0xFFFFFFFFFFFFFFFFFFFFFFFFFFFFFFFFFFFFFFFF AND DUP4 PUSH20 0xFFFFFFFFFFFFFFFFFFFFFFFFFFFFFFFFFFFFFFFF AND EQ ISZERO PUSH2 0x3520 JUMPI PUSH1 0x40 MLOAD PUSH32 0x8C379A000000000000000000000000000000000000000000000000000000000 DUP2 MSTORE PUSH1 0x4 ADD PUSH2 0x3517 SWAP1 PUSH2 0x51FF JUMP JUMPDEST PUSH1 0x40 MLOAD DUP1 SWAP2 SUB SWAP1 REVERT JUMPDEST PUSH1 0x0 PUSH2 0x352A PUSH2 0x248B JUMP JUMPDEST SWAP1 POP PUSH2 0x355A DUP2 DUP6 PUSH1 0x0 PUSH2 0x353C DUP8 PUSH2 0x3B94 JUMP JUMPDEST PUSH2 0x3545 DUP8 PUSH2 0x3B94 JUMP JUMPDEST PUSH1 0x40 MLOAD DUP1 PUSH1 0x20 ADD PUSH1 0x40 MSTORE DUP1 PUSH1 0x0 DUP2 MSTORE POP PUSH2 0x394F JUMP JUMPDEST PUSH1 0x0 DUP1 PUSH1 0x0 DUP6 DUP2 MSTORE PUSH1 0x20 ADD SWAP1 DUP2 MSTORE PUSH1 0x20 ADD PUSH1 0x0 KECCAK256 PUSH1 0x0 DUP7 PUSH20 0xFFFFFFFFFFFFFFFFFFFFFFFFFFFFFFFFFFFFFFFF AND PUSH20 0xFFFFFFFFFFFFFFFFFFFFFFFFFFFFFFFFFFFFFFFF AND DUP2 MSTORE PUSH1 0x20 ADD SWAP1 DUP2 MSTORE PUSH1 0x20 ADD PUSH1 0x0 KECCAK256 SLOAD SWAP1 POP DUP3 DUP2 LT ISZERO PUSH2 0x35F1 JUMPI PUSH1 0x40 MLOAD PUSH32 0x8C379A000000000000000000000000000000000000000000000000000000000 DUP2 MSTORE PUSH1 0x4 ADD PUSH2 0x35E8 SWAP1 PUSH2 0x50F5 JUMP JUMPDEST PUSH1 0x40 MLOAD DUP1 SWAP2 SUB SWAP1 REVERT JUMPDEST DUP3 DUP2 SUB PUSH1 0x0 DUP1 DUP7 DUP2 MSTORE PUSH1 0x20 ADD SWAP1 DUP2 MSTORE PUSH1 0x20 ADD PUSH1 0x0 KECCAK256 PUSH1 0x0 DUP8 PUSH20 0xFFFFFFFFFFFFFFFFFFFFFFFFFFFFFFFFFFFFFFFF AND PUSH20 0xFFFFFFFFFFFFFFFFFFFFFFFFFFFFFFFFFFFFFFFF AND DUP2 MSTORE PUSH1 0x20 ADD SWAP1 DUP2 MSTORE PUSH1 0x20 ADD PUSH1 0x0 KECCAK256 DUP2 SWAP1 SSTORE POP PUSH1 0x0 PUSH20 0xFFFFFFFFFFFFFFFFFFFFFFFFFFFFFFFFFFFFFFFF AND DUP6 PUSH20 0xFFFFFFFFFFFFFFFFFFFFFFFFFFFFFFFFFFFFFFFF AND DUP4 PUSH20 0xFFFFFFFFFFFFFFFFFFFFFFFFFFFFFFFFFFFFFFFF AND PUSH32 0xC3D58168C5AE7397731D063D5BBF3D657854427343F4C083240F7AACAA2D0F62 DUP8 DUP8 PUSH1 0x40 MLOAD PUSH2 0x36BE SWAP3 SWAP2 SWAP1 PUSH2 0x5384 JUMP JUMPDEST PUSH1 0x40 MLOAD DUP1 SWAP2 SUB SWAP1 LOG4 POP POP POP POP POP JUMP JUMPDEST PUSH1 0x0 PUSH20 0xFFFFFFFFFFFFFFFFFFFFFFFFFFFFFFFFFFFFFFFF AND DUP5 PUSH20 0xFFFFFFFFFFFFFFFFFFFFFFFFFFFFFFFFFFFFFFFF AND EQ ISZERO PUSH2 0x373D JUMPI PUSH1 0x40 MLOAD PUSH32 0x8C379A000000000000000000000000000000000000000000000000000000000 DUP2 MSTORE PUSH1 0x4 ADD PUSH2 0x3734 SWAP1 PUSH2 0x51BF JUMP JUMPDEST PUSH1 0x40 MLOAD DUP1 SWAP2 SUB SWAP1 REVERT JUMPDEST PUSH1 0x0 PUSH2 0x3747 PUSH2 0x248B JUMP JUMPDEST SWAP1 POP PUSH2 0x3767 DUP2 DUP8 DUP8 PUSH2 0x3758 DUP9 PUSH2 0x3B94 JUMP JUMPDEST PUSH2 0x3761 DUP9 PUSH2 0x3B94 JUMP JUMPDEST DUP8 PUSH2 0x394F JUMP JUMPDEST PUSH1 0x0 DUP1 PUSH1 0x0 DUP7 DUP2 MSTORE PUSH1 0x20 ADD SWAP1 DUP2 MSTORE PUSH1 0x20 ADD PUSH1 0x0 KECCAK256 PUSH1 0x0 DUP9 PUSH20 0xFFFFFFFFFFFFFFFFFFFFFFFFFFFFFFFFFFFFFFFF AND PUSH20 0xFFFFFFFFFFFFFFFFFFFFFFFFFFFFFFFFFFFFFFFF AND DUP2 MSTORE PUSH1 0x20 ADD SWAP1 DUP2 MSTORE PUSH1 0x20 ADD PUSH1 0x0 KECCAK256 SLOAD SWAP1 POP DUP4 DUP2 LT ISZERO PUSH2 0x37FE JUMPI PUSH1 0x40 MLOAD PUSH32 0x8C379A000000000000000000000000000000000000000000000000000000000 DUP2 MSTORE PUSH1 0x4 ADD PUSH2 0x37F5 SWAP1 PUSH2 0x521F JUMP JUMPDEST PUSH1 0x40 MLOAD DUP1 SWAP2 SUB SWAP1 REVERT JUMPDEST DUP4 DUP2 SUB PUSH1 0x0 DUP1 DUP8 DUP2 MSTORE PUSH1 0x20 ADD SWAP1 DUP2 MSTORE PUSH1 0x20 ADD PUSH1 0x0 KECCAK256 PUSH1 0x0 DUP10 PUSH20 0xFFFFFFFFFFFFFFFFFFFFFFFFFFFFFFFFFFFFFFFF AND PUSH20 0xFFFFFFFFFFFFFFFFFFFFFFFFFFFFFFFFFFFFFFFF AND DUP2 MSTORE PUSH1 0x20 ADD SWAP1 DUP2 MSTORE PUSH1 0x20 ADD PUSH1 0x0 KECCAK256 DUP2 SWAP1 SSTORE POP DUP4 PUSH1 0x0 DUP1 DUP8 DUP2 MSTORE PUSH1 0x20 ADD SWAP1 DUP2 MSTORE PUSH1 0x20 ADD PUSH1 0x0 KECCAK256 PUSH1 0x0 DUP9 PUSH20 0xFFFFFFFFFFFFFFFFFFFFFFFFFFFFFFFFFFFFFFFF AND PUSH20 0xFFFFFFFFFFFFFFFFFFFFFFFFFFFFFFFFFFFFFFFF AND DUP2 MSTORE PUSH1 0x20 ADD SWAP1 DUP2 MSTORE PUSH1 0x20 ADD PUSH1 0x0 KECCAK256 PUSH1 0x0 DUP3 DUP3 SLOAD PUSH2 0x38B3 SWAP2 SWAP1 PUSH2 0x54FD JUMP JUMPDEST SWAP3 POP POP DUP2 SWAP1 SSTORE POP DUP6 PUSH20 0xFFFFFFFFFFFFFFFFFFFFFFFFFFFFFFFFFFFFFFFF AND DUP8 PUSH20 0xFFFFFFFFFFFFFFFFFFFFFFFFFFFFFFFFFFFFFFFF AND DUP4 PUSH20 0xFFFFFFFFFFFFFFFFFFFFFFFFFFFFFFFFFFFFFFFF AND PUSH32 0xC3D58168C5AE7397731D063D5BBF3D657854427343F4C083240F7AACAA2D0F62 DUP9 DUP9 PUSH1 0x40 MLOAD PUSH2 0x3930 SWAP3 SWAP2 SWAP1 PUSH2 0x5384 JUMP JUMPDEST PUSH1 0x40 MLOAD DUP1 SWAP2 SUB SWAP1 LOG4 PUSH2 0x3946 DUP3 DUP9 DUP9 DUP9 DUP9 DUP9 PUSH2 0x3C0E JUMP JUMPDEST POP POP POP POP POP POP POP JUMP JUMPDEST PUSH2 0x3957 PUSH2 0x15C9 JUMP JUMPDEST ISZERO PUSH2 0x3997 JUMPI PUSH1 0x40 MLOAD PUSH32 0x8C379A000000000000000000000000000000000000000000000000000000000 DUP2 MSTORE PUSH1 0x4 ADD PUSH2 0x398E SWAP1 PUSH2 0x519F JUMP JUMPDEST PUSH1 0x40 MLOAD DUP1 SWAP2 SUB SWAP1 REVERT JUMPDEST PUSH2 0x39A5 DUP7 DUP7 DUP7 DUP7 DUP7 DUP7 PUSH2 0x3DF5 JUMP JUMPDEST POP POP POP POP POP POP JUMP JUMPDEST PUSH2 0x39CC DUP5 PUSH20 0xFFFFFFFFFFFFFFFFFFFFFFFFFFFFFFFFFFFFFFFF AND PUSH2 0x3F6F JUMP JUMPDEST ISZERO PUSH2 0x3B8C JUMPI DUP4 PUSH20 0xFFFFFFFFFFFFFFFFFFFFFFFFFFFFFFFFFFFFFFFF AND PUSH4 0xBC197C81 DUP8 DUP8 DUP7 DUP7 DUP7 PUSH1 0x40 MLOAD DUP7 PUSH4 0xFFFFFFFF AND PUSH1 0xE0 SHL DUP2 MSTORE PUSH1 0x4 ADD PUSH2 0x3A12 SWAP6 SWAP5 SWAP4 SWAP3 SWAP2 SWAP1 PUSH2 0x4E29 JUMP JUMPDEST PUSH1 0x20 PUSH1 0x40 MLOAD DUP1 DUP4 SUB DUP2 PUSH1 0x0 DUP8 DUP1 EXTCODESIZE ISZERO DUP1 ISZERO PUSH2 0x3A2C JUMPI PUSH1 0x0 DUP1 REVERT JUMPDEST POP GAS CALL SWAP3 POP POP POP DUP1 ISZERO PUSH2 0x3A5D JUMPI POP PUSH1 0x40 MLOAD RETURNDATASIZE PUSH1 0x1F NOT PUSH1 0x1F DUP3 ADD AND DUP3 ADD DUP1 PUSH1 0x40 MSTORE POP DUP2 ADD SWAP1 PUSH2 0x3A5A SWAP2 SWAP1 PUSH2 0x4857 JUMP JUMPDEST PUSH1 0x1 JUMPDEST PUSH2 0x3B03 JUMPI PUSH2 0x3A69 PUSH2 0x57EE JUMP JUMPDEST DUP1 PUSH4 0x8C379A0 EQ ISZERO PUSH2 0x3AC6 JUMPI POP PUSH2 0x3A7E PUSH2 0x5ED1 JUMP JUMPDEST DUP1 PUSH2 0x3A89 JUMPI POP PUSH2 0x3AC8 JUMP JUMPDEST DUP1 PUSH1 0x40 MLOAD PUSH32 0x8C379A000000000000000000000000000000000000000000000000000000000 DUP2 MSTORE PUSH1 0x4 ADD PUSH2 0x3ABD SWAP2 SWAP1 PUSH2 0x4F5F JUMP JUMPDEST PUSH1 0x40 MLOAD DUP1 SWAP2 SUB SWAP1 REVERT JUMPDEST POP JUMPDEST PUSH1 0x40 MLOAD PUSH32 0x8C379A000000000000000000000000000000000000000000000000000000000 DUP2 MSTORE PUSH1 0x4 ADD PUSH2 0x3AFA SWAP1 PUSH2 0x4F81 JUMP JUMPDEST PUSH1 0x40 MLOAD DUP1 SWAP2 SUB SWAP1 REVERT JUMPDEST PUSH4 0xBC197C81 PUSH1 0xE0 SHL PUSH28 0xFFFFFFFFFFFFFFFFFFFFFFFFFFFFFFFFFFFFFFFFFFFFFFFFFFFFFFFF NOT AND DUP2 PUSH28 0xFFFFFFFFFFFFFFFFFFFFFFFFFFFFFFFFFFFFFFFFFFFFFFFFFFFFFFFF NOT AND EQ PUSH2 0x3B8A JUMPI PUSH1 0x40 MLOAD PUSH32 0x8C379A000000000000000000000000000000000000000000000000000000000 DUP2 MSTORE PUSH1 0x4 ADD PUSH2 0x3B81 SWAP1 PUSH2 0x4FC1 JUMP JUMPDEST PUSH1 0x40 MLOAD DUP1 SWAP2 SUB SWAP1 REVERT JUMPDEST POP JUMPDEST POP POP POP POP POP POP JUMP JUMPDEST PUSH1 0x60 PUSH1 0x0 PUSH1 0x1 PUSH8 0xFFFFFFFFFFFFFFFF DUP2 GT ISZERO PUSH2 0x3BB3 JUMPI PUSH2 0x3BB2 PUSH2 0x57BF JUMP JUMPDEST JUMPDEST PUSH1 0x40 MLOAD SWAP1 DUP1 DUP3 MSTORE DUP1 PUSH1 0x20 MUL PUSH1 0x20 ADD DUP3 ADD PUSH1 0x40 MSTORE DUP1 ISZERO PUSH2 0x3BE1 JUMPI DUP2 PUSH1 0x20 ADD PUSH1 0x20 DUP3 MUL DUP1 CALLDATASIZE DUP4 CALLDATACOPY DUP1 DUP3 ADD SWAP2 POP POP SWAP1 POP JUMPDEST POP SWAP1 POP DUP3 DUP2 PUSH1 0x0 DUP2 MLOAD DUP2 LT PUSH2 0x3BF9 JUMPI PUSH2 0x3BF8 PUSH2 0x5790 JUMP JUMPDEST JUMPDEST PUSH1 0x20 MUL PUSH1 0x20 ADD ADD DUP2 DUP2 MSTORE POP POP DUP1 SWAP2 POP POP SWAP2 SWAP1 POP JUMP JUMPDEST PUSH2 0x3C2D DUP5 PUSH20 0xFFFFFFFFFFFFFFFFFFFFFFFFFFFFFFFFFFFFFFFF AND PUSH2 0x3F6F JUMP JUMPDEST ISZERO PUSH2 0x3DED JUMPI DUP4 PUSH20 0xFFFFFFFFFFFFFFFFFFFFFFFFFFFFFFFFFFFFFFFF AND PUSH4 0xF23A6E61 DUP8 DUP8 DUP7 DUP7 DUP7 PUSH1 0x40 MLOAD DUP7 PUSH4 0xFFFFFFFF AND PUSH1 0xE0 SHL DUP2 MSTORE PUSH1 0x4 ADD PUSH2 0x3C73 SWAP6 SWAP5 SWAP4 SWAP3 SWAP2 SWAP1 PUSH2 0x4E91 JUMP JUMPDEST PUSH1 0x20 PUSH1 0x40 MLOAD DUP1 DUP4 SUB DUP2 PUSH1 0x0 DUP8 DUP1 EXTCODESIZE ISZERO DUP1 ISZERO PUSH2 0x3C8D JUMPI PUSH1 0x0 DUP1 REVERT JUMPDEST POP GAS CALL SWAP3 POP POP POP DUP1 ISZERO PUSH2 0x3CBE JUMPI POP PUSH1 0x40 MLOAD RETURNDATASIZE PUSH1 0x1F NOT PUSH1 0x1F DUP3 ADD AND DUP3 ADD DUP1 PUSH1 0x40 MSTORE POP DUP2 ADD SWAP1 PUSH2 0x3CBB SWAP2 SWAP1 PUSH2 0x4857 JUMP JUMPDEST PUSH1 0x1 JUMPDEST PUSH2 0x3D64 JUMPI PUSH2 0x3CCA PUSH2 0x57EE JUMP JUMPDEST DUP1 PUSH4 0x8C379A0 EQ ISZERO PUSH2 0x3D27 JUMPI POP PUSH2 0x3CDF PUSH2 0x5ED1 JUMP JUMPDEST DUP1 PUSH2 0x3CEA JUMPI POP PUSH2 0x3D29 JUMP JUMPDEST DUP1 PUSH1 0x40 MLOAD PUSH32 0x8C379A000000000000000000000000000000000000000000000000000000000 DUP2 MSTORE PUSH1 0x4 ADD PUSH2 0x3D1E SWAP2 SWAP1 PUSH2 0x4F5F JUMP JUMPDEST PUSH1 0x40 MLOAD DUP1 SWAP2 SUB SWAP1 REVERT JUMPDEST POP JUMPDEST PUSH1 0x40 MLOAD PUSH32 0x8C379A000000000000000000000000000000000000000000000000000000000 DUP2 MSTORE PUSH1 0x4 ADD PUSH2 0x3D5B SWAP1 PUSH2 0x4F81 JUMP JUMPDEST PUSH1 0x40 MLOAD DUP1 SWAP2 SUB SWAP1 REVERT JUMPDEST PUSH4 0xF23A6E61 PUSH1 0xE0 SHL PUSH28 0xFFFFFFFFFFFFFFFFFFFFFFFFFFFFFFFFFFFFFFFFFFFFFFFFFFFFFFFF NOT AND DUP2 PUSH28 0xFFFFFFFFFFFFFFFFFFFFFFFFFFFFFFFFFFFFFFFFFFFFFFFFFFFFFFFF NOT AND EQ PUSH2 0x3DEB JUMPI PUSH1 0x40 MLOAD PUSH32 0x8C379A000000000000000000000000000000000000000000000000000000000 DUP2 MSTORE PUSH1 0x4 ADD PUSH2 0x3DE2 SWAP1 PUSH2 0x4FC1 JUMP JUMPDEST PUSH1 0x40 MLOAD DUP1 SWAP2 SUB SWAP1 REVERT JUMPDEST POP JUMPDEST POP POP POP POP POP POP JUMP JUMPDEST PUSH2 0x3E03 DUP7 DUP7 DUP7 DUP7 DUP7 DUP7 PUSH2 0x3F92 JUMP JUMPDEST PUSH1 0x0 PUSH20 0xFFFFFFFFFFFFFFFFFFFFFFFFFFFFFFFFFFFFFFFF AND DUP6 PUSH20 0xFFFFFFFFFFFFFFFFFFFFFFFFFFFFFFFFFFFFFFFF AND EQ ISZERO PUSH2 0x3EB5 JUMPI PUSH1 0x0 JUMPDEST DUP4 MLOAD DUP2 LT ISZERO PUSH2 0x3EB3 JUMPI DUP3 DUP2 DUP2 MLOAD DUP2 LT PUSH2 0x3E57 JUMPI PUSH2 0x3E56 PUSH2 0x5790 JUMP JUMPDEST JUMPDEST PUSH1 0x20 MUL PUSH1 0x20 ADD ADD MLOAD PUSH1 0x4 PUSH1 0x0 DUP7 DUP5 DUP2 MLOAD DUP2 LT PUSH2 0x3E76 JUMPI PUSH2 0x3E75 PUSH2 0x5790 JUMP JUMPDEST JUMPDEST PUSH1 0x20 MUL PUSH1 0x20 ADD ADD MLOAD DUP2 MSTORE PUSH1 0x20 ADD SWAP1 DUP2 MSTORE PUSH1 0x20 ADD PUSH1 0x0 KECCAK256 PUSH1 0x0 DUP3 DUP3 SLOAD PUSH2 0x3E9B SWAP2 SWAP1 PUSH2 0x54FD JUMP JUMPDEST SWAP3 POP POP DUP2 SWAP1 SSTORE POP DUP1 PUSH2 0x3EAC SWAP1 PUSH2 0x56BF JUMP JUMPDEST SWAP1 POP PUSH2 0x3E3B JUMP JUMPDEST POP JUMPDEST PUSH1 0x0 PUSH20 0xFFFFFFFFFFFFFFFFFFFFFFFFFFFFFFFFFFFFFFFF AND DUP5 PUSH20 0xFFFFFFFFFFFFFFFFFFFFFFFFFFFFFFFFFFFFFFFF AND EQ ISZERO PUSH2 0x3F67 JUMPI PUSH1 0x0 JUMPDEST DUP4 MLOAD DUP2 LT ISZERO PUSH2 0x3F65 JUMPI DUP3 DUP2 DUP2 MLOAD DUP2 LT PUSH2 0x3F09 JUMPI PUSH2 0x3F08 PUSH2 0x5790 JUMP JUMPDEST JUMPDEST PUSH1 0x20 MUL PUSH1 0x20 ADD ADD MLOAD PUSH1 0x4 PUSH1 0x0 DUP7 DUP5 DUP2 MLOAD DUP2 LT PUSH2 0x3F28 JUMPI PUSH2 0x3F27 PUSH2 0x5790 JUMP JUMPDEST JUMPDEST PUSH1 0x20 MUL PUSH1 0x20 ADD ADD MLOAD DUP2 MSTORE PUSH1 0x20 ADD SWAP1 DUP2 MSTORE PUSH1 0x20 ADD PUSH1 0x0 KECCAK256 PUSH1 0x0 DUP3 DUP3 SLOAD PUSH2 0x3F4D SWAP2 SWAP1 PUSH2 0x5553 JUMP JUMPDEST SWAP3 POP POP DUP2 SWAP1 SSTORE POP DUP1 PUSH2 0x3F5E SWAP1 PUSH2 0x56BF JUMP JUMPDEST SWAP1 POP PUSH2 0x3EED JUMP JUMPDEST POP JUMPDEST POP POP POP POP POP POP JUMP JUMPDEST PUSH1 0x0 DUP1 DUP3 PUSH20 0xFFFFFFFFFFFFFFFFFFFFFFFFFFFFFFFFFFFFFFFF AND EXTCODESIZE GT SWAP1 POP SWAP2 SWAP1 POP JUMP JUMPDEST POP POP POP POP POP POP JUMP JUMPDEST DUP3 DUP1 SLOAD PUSH2 0x3FA6 SWAP1 PUSH2 0x565C JUMP JUMPDEST SWAP1 PUSH1 0x0 MSTORE PUSH1 0x20 PUSH1 0x0 KECCAK256 SWAP1 PUSH1 0x1F ADD PUSH1 0x20 SWAP1 DIV DUP2 ADD SWAP3 DUP3 PUSH2 0x3FC8 JUMPI PUSH1 0x0 DUP6 SSTORE PUSH2 0x400F JUMP JUMPDEST DUP3 PUSH1 0x1F LT PUSH2 0x3FE1 JUMPI DUP1 MLOAD PUSH1 0xFF NOT AND DUP4 DUP1 ADD OR DUP6 SSTORE PUSH2 0x400F JUMP JUMPDEST DUP3 DUP1 ADD PUSH1 0x1 ADD DUP6 SSTORE DUP3 ISZERO PUSH2 0x400F JUMPI SWAP2 DUP3 ADD JUMPDEST DUP3 DUP2 GT ISZERO PUSH2 0x400E JUMPI DUP3 MLOAD DUP3 SSTORE SWAP2 PUSH1 0x20 ADD SWAP2 SWAP1 PUSH1 0x1 ADD SWAP1 PUSH2 0x3FF3 JUMP JUMPDEST JUMPDEST POP SWAP1 POP PUSH2 0x401C SWAP2 SWAP1 PUSH2 0x4020 JUMP JUMPDEST POP SWAP1 JUMP JUMPDEST JUMPDEST DUP1 DUP3 GT ISZERO PUSH2 0x4039 JUMPI PUSH1 0x0 DUP2 PUSH1 0x0 SWAP1 SSTORE POP PUSH1 0x1 ADD PUSH2 0x4021 JUMP JUMPDEST POP SWAP1 JUMP JUMPDEST PUSH1 0x0 PUSH2 0x4050 PUSH2 0x404B DUP5 PUSH2 0x53D2 JUMP JUMPDEST PUSH2 0x53AD JUMP JUMPDEST SWAP1 POP DUP1 DUP4 DUP3 MSTORE PUSH1 0x20 DUP3 ADD SWAP1 POP DUP3 DUP6 PUSH1 0x20 DUP7 MUL DUP3 ADD GT ISZERO PUSH2 0x4073 JUMPI PUSH2 0x4072 PUSH2 0x5815 JUMP JUMPDEST JUMPDEST PUSH1 0x0 JUMPDEST DUP6 DUP2 LT ISZERO PUSH2 0x40A3 JUMPI DUP2 PUSH2 0x4089 DUP9 DUP3 PUSH2 0x41A1 JUMP JUMPDEST DUP5 MSTORE PUSH1 0x20 DUP5 ADD SWAP4 POP PUSH1 0x20 DUP4 ADD SWAP3 POP POP PUSH1 0x1 DUP2 ADD SWAP1 POP PUSH2 0x4076 JUMP JUMPDEST POP POP POP SWAP4 SWAP3 POP POP POP JUMP JUMPDEST PUSH1 0x0 PUSH2 0x40C0 PUSH2 0x40BB DUP5 PUSH2 0x53FE JUMP JUMPDEST PUSH2 0x53AD JUMP JUMPDEST SWAP1 POP DUP1 DUP4 DUP3 MSTORE PUSH1 0x20 DUP3 ADD SWAP1 POP DUP3 DUP6 PUSH1 0x20 DUP7 MUL DUP3 ADD GT ISZERO PUSH2 0x40E3 JUMPI PUSH2 0x40E2 PUSH2 0x5815 JUMP JUMPDEST JUMPDEST PUSH1 0x0 JUMPDEST DUP6 DUP2 LT ISZERO PUSH2 0x4113 JUMPI DUP2 PUSH2 0x40F9 DUP9 DUP3 PUSH2 0x42AD JUMP JUMPDEST DUP5 MSTORE PUSH1 0x20 DUP5 ADD SWAP4 POP PUSH1 0x20 DUP4 ADD SWAP3 POP POP PUSH1 0x1 DUP2 ADD SWAP1 POP PUSH2 0x40E6 JUMP JUMPDEST POP POP POP SWAP4 SWAP3 POP POP POP JUMP JUMPDEST PUSH1 0x0 PUSH2 0x4130 PUSH2 0x412B DUP5 PUSH2 0x542A JUMP JUMPDEST PUSH2 0x53AD JUMP JUMPDEST SWAP1 POP DUP3 DUP2 MSTORE PUSH1 0x20 DUP2 ADD DUP5 DUP5 DUP5 ADD GT ISZERO PUSH2 0x414C JUMPI PUSH2 0x414B PUSH2 0x581A JUMP JUMPDEST JUMPDEST PUSH2 0x4157 DUP5 DUP3 DUP6 PUSH2 0x561A JUMP JUMPDEST POP SWAP4 SWAP3 POP POP POP JUMP JUMPDEST PUSH1 0x0 PUSH2 0x4172 PUSH2 0x416D DUP5 PUSH2 0x545B JUMP JUMPDEST PUSH2 0x53AD JUMP JUMPDEST SWAP1 POP DUP3 DUP2 MSTORE PUSH1 0x20 DUP2 ADD DUP5 DUP5 DUP5 ADD GT ISZERO PUSH2 0x418E JUMPI PUSH2 0x418D PUSH2 0x581A JUMP JUMPDEST JUMPDEST PUSH2 0x4199 DUP5 DUP3 DUP6 PUSH2 0x561A JUMP JUMPDEST POP SWAP4 SWAP3 POP POP POP JUMP JUMPDEST PUSH1 0x0 DUP2 CALLDATALOAD SWAP1 POP PUSH2 0x41B0 DUP2 PUSH2 0x5F67 JUMP JUMPDEST SWAP3 SWAP2 POP POP JUMP JUMPDEST PUSH1 0x0 DUP3 PUSH1 0x1F DUP4 ADD SLT PUSH2 0x41CB JUMPI PUSH2 0x41CA PUSH2 0x5810 JUMP JUMPDEST JUMPDEST DUP2 CALLDATALOAD PUSH2 0x41DB DUP5 DUP3 PUSH1 0x20 DUP7 ADD PUSH2 0x403D JUMP JUMPDEST SWAP2 POP POP SWAP3 SWAP2 POP POP JUMP JUMPDEST PUSH1 0x0 DUP3 PUSH1 0x1F DUP4 ADD SLT PUSH2 0x41F9 JUMPI PUSH2 0x41F8 PUSH2 0x5810 JUMP JUMPDEST JUMPDEST DUP2 CALLDATALOAD PUSH2 0x4209 DUP5 DUP3 PUSH1 0x20 DUP7 ADD PUSH2 0x40AD JUMP JUMPDEST SWAP2 POP POP SWAP3 SWAP2 POP POP JUMP JUMPDEST PUSH1 0x0 DUP2 CALLDATALOAD SWAP1 POP PUSH2 0x4221 DUP2 PUSH2 0x5F7E JUMP JUMPDEST SWAP3 SWAP2 POP POP JUMP JUMPDEST PUSH1 0x0 DUP2 CALLDATALOAD SWAP1 POP PUSH2 0x4236 DUP2 PUSH2 0x5F95 JUMP JUMPDEST SWAP3 SWAP2 POP POP JUMP JUMPDEST PUSH1 0x0 DUP2 MLOAD SWAP1 POP PUSH2 0x424B DUP2 PUSH2 0x5F95 JUMP JUMPDEST SWAP3 SWAP2 POP POP JUMP JUMPDEST PUSH1 0x0 DUP3 PUSH1 0x1F DUP4 ADD SLT PUSH2 0x4266 JUMPI PUSH2 0x4265 PUSH2 0x5810 JUMP JUMPDEST JUMPDEST DUP2 CALLDATALOAD PUSH2 0x4276 DUP5 DUP3 PUSH1 0x20 DUP7 ADD PUSH2 0x411D JUMP JUMPDEST SWAP2 POP POP SWAP3 SWAP2 POP POP JUMP JUMPDEST PUSH1 0x0 DUP3 PUSH1 0x1F DUP4 ADD SLT PUSH2 0x4294 JUMPI PUSH2 0x4293 PUSH2 0x5810 JUMP JUMPDEST JUMPDEST DUP2 CALLDATALOAD PUSH2 0x42A4 DUP5 DUP3 PUSH1 0x20 DUP7 ADD PUSH2 0x415F JUMP JUMPDEST SWAP2 POP POP SWAP3 SWAP2 POP POP JUMP JUMPDEST PUSH1 0x0 DUP2 CALLDATALOAD SWAP1 POP PUSH2 0x42BC DUP2 PUSH2 0x5FAC JUMP JUMPDEST SWAP3 SWAP2 POP POP JUMP JUMPDEST PUSH1 0x0 PUSH1 0x20 DUP3 DUP5 SUB SLT ISZERO PUSH2 0x42D8 JUMPI PUSH2 0x42D7 PUSH2 0x5824 JUMP JUMPDEST JUMPDEST PUSH1 0x0 PUSH2 0x42E6 DUP5 DUP3 DUP6 ADD PUSH2 0x41A1 JUMP JUMPDEST SWAP2 POP POP SWAP3 SWAP2 POP POP JUMP JUMPDEST PUSH1 0x0 DUP1 PUSH1 0x40 DUP4 DUP6 SUB SLT ISZERO PUSH2 0x4306 JUMPI PUSH2 0x4305 PUSH2 0x5824 JUMP JUMPDEST JUMPDEST PUSH1 0x0 PUSH2 0x4314 DUP6 DUP3 DUP7 ADD PUSH2 0x41A1 JUMP JUMPDEST SWAP3 POP POP PUSH1 0x20 PUSH2 0x4325 DUP6 DUP3 DUP7 ADD PUSH2 0x41A1 JUMP JUMPDEST SWAP2 POP POP SWAP3 POP SWAP3 SWAP1 POP JUMP JUMPDEST PUSH1 0x0 DUP1 PUSH1 0x0 DUP1 PUSH1 0x0 PUSH1 0xA0 DUP7 DUP9 SUB SLT ISZERO PUSH2 0x434B JUMPI PUSH2 0x434A PUSH2 0x5824 JUMP JUMPDEST JUMPDEST PUSH1 0x0 PUSH2 0x4359 DUP9 DUP3 DUP10 ADD PUSH2 0x41A1 JUMP JUMPDEST SWAP6 POP POP PUSH1 0x20 PUSH2 0x436A DUP9 DUP3 DUP10 ADD PUSH2 0x41A1 JUMP JUMPDEST SWAP5 POP POP PUSH1 0x40 DUP7 ADD CALLDATALOAD PUSH8 0xFFFFFFFFFFFFFFFF DUP2 GT ISZERO PUSH2 0x438B JUMPI PUSH2 0x438A PUSH2 0x581F JUMP JUMPDEST JUMPDEST PUSH2 0x4397 DUP9 DUP3 DUP10 ADD PUSH2 0x41E4 JUMP JUMPDEST SWAP4 POP POP PUSH1 0x60 DUP7 ADD CALLDATALOAD PUSH8 0xFFFFFFFFFFFFFFFF DUP2 GT ISZERO PUSH2 0x43B8 JUMPI PUSH2 0x43B7 PUSH2 0x581F JUMP JUMPDEST JUMPDEST PUSH2 0x43C4 DUP9 DUP3 DUP10 ADD PUSH2 0x41E4 JUMP JUMPDEST SWAP3 POP POP PUSH1 0x80 DUP7 ADD CALLDATALOAD PUSH8 0xFFFFFFFFFFFFFFFF DUP2 GT ISZERO PUSH2 0x43E5 JUMPI PUSH2 0x43E4 PUSH2 0x581F JUMP JUMPDEST JUMPDEST PUSH2 0x43F1 DUP9 DUP3 DUP10 ADD PUSH2 0x4251 JUMP JUMPDEST SWAP2 POP POP SWAP3 SWAP6 POP SWAP3 SWAP6 SWAP1 SWAP4 POP JUMP JUMPDEST PUSH1 0x0 DUP1 PUSH1 0x0 DUP1 PUSH1 0x0 PUSH1 0xA0 DUP7 DUP9 SUB SLT ISZERO PUSH2 0x441A JUMPI PUSH2 0x4419 PUSH2 0x5824 JUMP JUMPDEST JUMPDEST PUSH1 0x0 PUSH2 0x4428 DUP9 DUP3 DUP10 ADD PUSH2 0x41A1 JUMP JUMPDEST SWAP6 POP POP PUSH1 0x20 PUSH2 0x4439 DUP9 DUP3 DUP10 ADD PUSH2 0x41A1 JUMP JUMPDEST SWAP5 POP POP PUSH1 0x40 PUSH2 0x444A DUP9 DUP3 DUP10 ADD PUSH2 0x42AD JUMP JUMPDEST SWAP4 POP POP PUSH1 0x60 PUSH2 0x445B DUP9 DUP3 DUP10 ADD PUSH2 0x42AD JUMP JUMPDEST SWAP3 POP POP PUSH1 0x80 DUP7 ADD CALLDATALOAD PUSH8 0xFFFFFFFFFFFFFFFF DUP2 GT ISZERO PUSH2 0x447C JUMPI PUSH2 0x447B PUSH2 0x581F JUMP JUMPDEST JUMPDEST PUSH2 0x4488 DUP9 DUP3 DUP10 ADD PUSH2 0x4251 JUMP JUMPDEST SWAP2 POP POP SWAP3 SWAP6 POP SWAP3 SWAP6 SWAP1 SWAP4 POP JUMP JUMPDEST PUSH1 0x0 DUP1 PUSH1 0x0 PUSH1 0x60 DUP5 DUP7 SUB SLT ISZERO PUSH2 0x44AE JUMPI PUSH2 0x44AD PUSH2 0x5824 JUMP JUMPDEST JUMPDEST PUSH1 0x0 PUSH2 0x44BC DUP7 DUP3 DUP8 ADD PUSH2 0x41A1 JUMP JUMPDEST SWAP4 POP POP PUSH1 0x20 DUP5 ADD CALLDATALOAD PUSH8 0xFFFFFFFFFFFFFFFF DUP2 GT ISZERO PUSH2 0x44DD JUMPI PUSH2 0x44DC PUSH2 0x581F JUMP JUMPDEST JUMPDEST PUSH2 0x44E9 DUP7 DUP3 DUP8 ADD PUSH2 0x41E4 JUMP JUMPDEST SWAP3 POP POP PUSH1 0x40 DUP5 ADD CALLDATALOAD PUSH8 0xFFFFFFFFFFFFFFFF DUP2 GT ISZERO PUSH2 0x450A JUMPI PUSH2 0x4509 PUSH2 0x581F JUMP JUMPDEST JUMPDEST PUSH2 0x4516 DUP7 DUP3 DUP8 ADD PUSH2 0x41E4 JUMP JUMPDEST SWAP2 POP POP SWAP3 POP SWAP3 POP SWAP3 JUMP JUMPDEST PUSH1 0x0 DUP1 PUSH1 0x0 DUP1 PUSH1 0x0 PUSH1 0xA0 DUP7 DUP9 SUB SLT ISZERO PUSH2 0x453C JUMPI PUSH2 0x453B PUSH2 0x5824 JUMP JUMPDEST JUMPDEST PUSH1 0x0 PUSH2 0x454A DUP9 DUP3 DUP10 ADD PUSH2 0x41A1 JUMP JUMPDEST SWAP6 POP POP PUSH1 0x20 DUP7 ADD CALLDATALOAD PUSH8 0xFFFFFFFFFFFFFFFF DUP2 GT ISZERO PUSH2 0x456B JUMPI PUSH2 0x456A PUSH2 0x581F JUMP JUMPDEST JUMPDEST PUSH2 0x4577 DUP9 DUP3 DUP10 ADD PUSH2 0x41E4 JUMP JUMPDEST SWAP5 POP POP PUSH1 0x40 DUP7 ADD CALLDATALOAD PUSH8 0xFFFFFFFFFFFFFFFF DUP2 GT ISZERO PUSH2 0x4598 JUMPI PUSH2 0x4597 PUSH2 0x581F JUMP JUMPDEST JUMPDEST PUSH2 0x45A4 DUP9 DUP3 DUP10 ADD PUSH2 0x41E4 JUMP JUMPDEST SWAP4 POP POP PUSH1 0x60 DUP7 ADD CALLDATALOAD PUSH8 0xFFFFFFFFFFFFFFFF DUP2 GT ISZERO PUSH2 0x45C5 JUMPI PUSH2 0x45C4 PUSH2 0x581F JUMP JUMPDEST JUMPDEST PUSH2 0x45D1 DUP9 DUP3 DUP10 ADD PUSH2 0x41E4 JUMP JUMPDEST SWAP3 POP POP PUSH1 0x80 DUP7 ADD CALLDATALOAD PUSH8 0xFFFFFFFFFFFFFFFF DUP2 GT ISZERO PUSH2 0x45F2 JUMPI PUSH2 0x45F1 PUSH2 0x581F JUMP JUMPDEST JUMPDEST PUSH2 0x45FE DUP9 DUP3 DUP10 ADD PUSH2 0x41E4 JUMP JUMPDEST SWAP2 POP POP SWAP3 SWAP6 POP SWAP3 SWAP6 SWAP1 SWAP4 POP JUMP JUMPDEST PUSH1 0x0 DUP1 PUSH1 0x40 DUP4 DUP6 SUB SLT ISZERO PUSH2 0x4622 JUMPI PUSH2 0x4621 PUSH2 0x5824 JUMP JUMPDEST JUMPDEST PUSH1 0x0 PUSH2 0x4630 DUP6 DUP3 DUP7 ADD PUSH2 0x41A1 JUMP JUMPDEST SWAP3 POP POP PUSH1 0x20 PUSH2 0x4641 DUP6 DUP3 DUP7 ADD PUSH2 0x4212 JUMP JUMPDEST SWAP2 POP POP SWAP3 POP SWAP3 SWAP1 POP JUMP JUMPDEST PUSH1 0x0 DUP1 PUSH1 0x40 DUP4 DUP6 SUB SLT ISZERO PUSH2 0x4662 JUMPI PUSH2 0x4661 PUSH2 0x5824 JUMP JUMPDEST JUMPDEST PUSH1 0x0 PUSH2 0x4670 DUP6 DUP3 DUP7 ADD PUSH2 0x41A1 JUMP JUMPDEST SWAP3 POP POP PUSH1 0x20 PUSH2 0x4681 DUP6 DUP3 DUP7 ADD PUSH2 0x42AD JUMP JUMPDEST SWAP2 POP POP SWAP3 POP SWAP3 SWAP1 POP JUMP JUMPDEST PUSH1 0x0 DUP1 PUSH1 0x0 PUSH1 0x60 DUP5 DUP7 SUB SLT ISZERO PUSH2 0x46A4 JUMPI PUSH2 0x46A3 PUSH2 0x5824 JUMP JUMPDEST JUMPDEST PUSH1 0x0 PUSH2 0x46B2 DUP7 DUP3 DUP8 ADD PUSH2 0x41A1 JUMP JUMPDEST SWAP4 POP POP PUSH1 0x20 PUSH2 0x46C3 DUP7 DUP3 DUP8 ADD PUSH2 0x42AD JUMP JUMPDEST SWAP3 POP POP PUSH1 0x40 PUSH2 0x46D4 DUP7 DUP3 DUP8 ADD PUSH2 0x42AD JUMP JUMPDEST SWAP2 POP POP SWAP3 POP SWAP3 POP SWAP3 JUMP JUMPDEST PUSH1 0x0 DUP1 PUSH1 0x40 DUP4 DUP6 SUB SLT ISZERO PUSH2 0x46F5 JUMPI PUSH2 0x46F4 PUSH2 0x5824 JUMP JUMPDEST JUMPDEST PUSH1 0x0 DUP4 ADD CALLDATALOAD PUSH8 0xFFFFFFFFFFFFFFFF DUP2 GT ISZERO PUSH2 0x4713 JUMPI PUSH2 0x4712 PUSH2 0x581F JUMP JUMPDEST JUMPDEST PUSH2 0x471F DUP6 DUP3 DUP7 ADD PUSH2 0x41B6 JUMP JUMPDEST SWAP3 POP POP PUSH1 0x20 DUP4 ADD CALLDATALOAD PUSH8 0xFFFFFFFFFFFFFFFF DUP2 GT ISZERO PUSH2 0x4740 JUMPI PUSH2 0x473F PUSH2 0x581F JUMP JUMPDEST JUMPDEST PUSH2 0x474C DUP6 DUP3 DUP7 ADD PUSH2 0x41E4 JUMP JUMPDEST SWAP2 POP POP SWAP3 POP SWAP3 SWAP1 POP JUMP JUMPDEST PUSH1 0x0 DUP1 PUSH1 0x40 DUP4 DUP6 SUB SLT ISZERO PUSH2 0x476D JUMPI PUSH2 0x476C PUSH2 0x5824 JUMP JUMPDEST JUMPDEST PUSH1 0x0 DUP4 ADD CALLDATALOAD PUSH8 0xFFFFFFFFFFFFFFFF DUP2 GT ISZERO PUSH2 0x478B JUMPI PUSH2 0x478A PUSH2 0x581F JUMP JUMPDEST JUMPDEST PUSH2 0x4797 DUP6 DUP3 DUP7 ADD PUSH2 0x41B6 JUMP JUMPDEST SWAP3 POP POP PUSH1 0x20 PUSH2 0x47A8 DUP6 DUP3 DUP7 ADD PUSH2 0x42AD JUMP JUMPDEST SWAP2 POP POP SWAP3 POP SWAP3 SWAP1 POP JUMP JUMPDEST PUSH1 0x0 DUP1 PUSH1 0x40 DUP4 DUP6 SUB SLT ISZERO PUSH2 0x47C9 JUMPI PUSH2 0x47C8 PUSH2 0x5824 JUMP JUMPDEST JUMPDEST PUSH1 0x0 DUP4 ADD CALLDATALOAD PUSH8 0xFFFFFFFFFFFFFFFF DUP2 GT ISZERO PUSH2 0x47E7 JUMPI PUSH2 0x47E6 PUSH2 0x581F JUMP JUMPDEST JUMPDEST PUSH2 0x47F3 DUP6 DUP3 DUP7 ADD PUSH2 0x41E4 JUMP JUMPDEST SWAP3 POP POP PUSH1 0x20 DUP4 ADD CALLDATALOAD PUSH8 0xFFFFFFFFFFFFFFFF DUP2 GT ISZERO PUSH2 0x4814 JUMPI PUSH2 0x4813 PUSH2 0x581F JUMP JUMPDEST JUMPDEST PUSH2 0x4820 DUP6 DUP3 DUP7 ADD PUSH2 0x41E4 JUMP JUMPDEST SWAP2 POP POP SWAP3 POP SWAP3 SWAP1 POP JUMP JUMPDEST PUSH1 0x0 PUSH1 0x20 DUP3 DUP5 SUB SLT ISZERO PUSH2 0x4840 JUMPI PUSH2 0x483F PUSH2 0x5824 JUMP JUMPDEST JUMPDEST PUSH1 0x0 PUSH2 0x484E DUP5 DUP3 DUP6 ADD PUSH2 0x4227 JUMP JUMPDEST SWAP2 POP POP SWAP3 SWAP2 POP POP JUMP JUMPDEST PUSH1 0x0 PUSH1 0x20 DUP3 DUP5 SUB SLT ISZERO PUSH2 0x486D JUMPI PUSH2 0x486C PUSH2 0x5824 JUMP JUMPDEST JUMPDEST PUSH1 0x0 PUSH2 0x487B DUP5 DUP3 DUP6 ADD PUSH2 0x423C JUMP JUMPDEST SWAP2 POP POP SWAP3 SWAP2 POP POP JUMP JUMPDEST PUSH1 0x0 PUSH1 0x20 DUP3 DUP5 SUB SLT ISZERO PUSH2 0x489A JUMPI PUSH2 0x4899 PUSH2 0x5824 JUMP JUMPDEST JUMPDEST PUSH1 0x0 PUSH2 0x48A8 DUP5 DUP3 DUP6 ADD PUSH2 0x42AD JUMP JUMPDEST SWAP2 POP POP SWAP3 SWAP2 POP POP JUMP JUMPDEST PUSH1 0x0 DUP1 PUSH1 0x40 DUP4 DUP6 SUB SLT ISZERO PUSH2 0x48C8 JUMPI PUSH2 0x48C7 PUSH2 0x5824 JUMP JUMPDEST JUMPDEST PUSH1 0x0 PUSH2 0x48D6 DUP6 DUP3 DUP7 ADD PUSH2 0x42AD JUMP JUMPDEST SWAP3 POP POP PUSH1 0x20 DUP4 ADD CALLDATALOAD PUSH8 0xFFFFFFFFFFFFFFFF DUP2 GT ISZERO PUSH2 0x48F7 JUMPI PUSH2 0x48F6 PUSH2 0x581F JUMP JUMPDEST JUMPDEST PUSH2 0x4903 DUP6 DUP3 DUP7 ADD PUSH2 0x427F JUMP JUMPDEST SWAP2 POP POP SWAP3 POP SWAP3 SWAP1 POP JUMP JUMPDEST PUSH1 0x0 DUP1 PUSH1 0x40 DUP4 DUP6 SUB SLT ISZERO PUSH2 0x4924 JUMPI PUSH2 0x4923 PUSH2 0x5824 JUMP JUMPDEST JUMPDEST PUSH1 0x0 PUSH2 0x4932 DUP6 DUP3 DUP7 ADD PUSH2 0x42AD JUMP JUMPDEST SWAP3 POP POP PUSH1 0x20 PUSH2 0x4943 DUP6 DUP3 DUP7 ADD PUSH2 0x42AD JUMP JUMPDEST SWAP2 POP POP SWAP3 POP SWAP3 SWAP1 POP JUMP JUMPDEST PUSH1 0x0 PUSH2 0x4959 DUP4 DUP4 PUSH2 0x4DF0 JUMP JUMPDEST PUSH1 0x20 DUP4 ADD SWAP1 POP SWAP3 SWAP2 POP POP JUMP JUMPDEST PUSH2 0x496E DUP2 PUSH2 0x5587 JUMP JUMPDEST DUP3 MSTORE POP POP JUMP JUMPDEST PUSH1 0x0 PUSH2 0x497F DUP3 PUSH2 0x549C JUMP JUMPDEST PUSH2 0x4989 DUP2 DUP6 PUSH2 0x54CA JUMP JUMPDEST SWAP4 POP PUSH2 0x4994 DUP4 PUSH2 0x548C JUMP JUMPDEST DUP1 PUSH1 0x0 JUMPDEST DUP4 DUP2 LT ISZERO PUSH2 0x49C5 JUMPI DUP2 MLOAD PUSH2 0x49AC DUP9 DUP3 PUSH2 0x494D JUMP JUMPDEST SWAP8 POP PUSH2 0x49B7 DUP4 PUSH2 0x54BD JUMP JUMPDEST SWAP3 POP POP PUSH1 0x1 DUP2 ADD SWAP1 POP PUSH2 0x4998 JUMP JUMPDEST POP DUP6 SWAP4 POP POP POP POP SWAP3 SWAP2 POP POP JUMP JUMPDEST PUSH2 0x49DB DUP2 PUSH2 0x5599 JUMP JUMPDEST DUP3 MSTORE POP POP JUMP JUMPDEST PUSH1 0x0 PUSH2 0x49EC DUP3 PUSH2 0x54A7 JUMP JUMPDEST PUSH2 0x49F6 DUP2 DUP6 PUSH2 0x54DB JUMP JUMPDEST SWAP4 POP PUSH2 0x4A06 DUP2 DUP6 PUSH1 0x20 DUP7 ADD PUSH2 0x5629 JUMP JUMPDEST PUSH2 0x4A0F DUP2 PUSH2 0x5829 JUMP JUMPDEST DUP5 ADD SWAP2 POP POP SWAP3 SWAP2 POP POP JUMP JUMPDEST PUSH2 0x4A23 DUP2 PUSH2 0x5608 JUMP JUMPDEST DUP3 MSTORE POP POP JUMP JUMPDEST PUSH1 0x0 PUSH2 0x4A34 DUP3 PUSH2 0x54B2 JUMP JUMPDEST PUSH2 0x4A3E DUP2 DUP6 PUSH2 0x54EC JUMP JUMPDEST SWAP4 POP PUSH2 0x4A4E DUP2 DUP6 PUSH1 0x20 DUP7 ADD PUSH2 0x5629 JUMP JUMPDEST PUSH2 0x4A57 DUP2 PUSH2 0x5829 JUMP JUMPDEST DUP5 ADD SWAP2 POP POP SWAP3 SWAP2 POP POP JUMP JUMPDEST PUSH1 0x0 PUSH2 0x4A6F PUSH1 0x34 DUP4 PUSH2 0x54EC JUMP JUMPDEST SWAP2 POP PUSH2 0x4A7A DUP3 PUSH2 0x5847 JUMP JUMPDEST PUSH1 0x40 DUP3 ADD SWAP1 POP SWAP2 SWAP1 POP JUMP JUMPDEST PUSH1 0x0 PUSH2 0x4A92 PUSH1 0x13 DUP4 PUSH2 0x54EC JUMP JUMPDEST SWAP2 POP PUSH2 0x4A9D DUP3 PUSH2 0x5896 JUMP JUMPDEST PUSH1 0x20 DUP3 ADD SWAP1 POP SWAP2 SWAP1 POP JUMP JUMPDEST PUSH1 0x0 PUSH2 0x4AB5 PUSH1 0x28 DUP4 PUSH2 0x54EC JUMP JUMPDEST SWAP2 POP PUSH2 0x4AC0 DUP3 PUSH2 0x58BF JUMP JUMPDEST PUSH1 0x40 DUP3 ADD SWAP1 POP SWAP2 SWAP1 POP JUMP JUMPDEST PUSH1 0x0 PUSH2 0x4AD8 PUSH1 0x14 DUP4 PUSH2 0x54EC JUMP JUMPDEST SWAP2 POP PUSH2 0x4AE3 DUP3 PUSH2 0x590E JUMP JUMPDEST PUSH1 0x20 DUP3 ADD SWAP1 POP SWAP2 SWAP1 POP JUMP JUMPDEST PUSH1 0x0 PUSH2 0x4AFB PUSH1 0x14 DUP4 PUSH2 0x54EC JUMP JUMPDEST SWAP2 POP PUSH2 0x4B06 DUP3 PUSH2 0x5937 JUMP JUMPDEST PUSH1 0x20 DUP3 ADD SWAP1 POP SWAP2 SWAP1 POP JUMP JUMPDEST PUSH1 0x0 PUSH2 0x4B1E PUSH1 0x11 DUP4 PUSH2 0x54EC JUMP JUMPDEST SWAP2 POP PUSH2 0x4B29 DUP3 PUSH2 0x5960 JUMP JUMPDEST PUSH1 0x20 DUP3 ADD SWAP1 POP SWAP2 SWAP1 POP JUMP JUMPDEST PUSH1 0x0 PUSH2 0x4B41 PUSH1 0x2B DUP4 PUSH2 0x54EC JUMP JUMPDEST SWAP2 POP PUSH2 0x4B4C DUP3 PUSH2 0x5989 JUMP JUMPDEST PUSH1 0x40 DUP3 ADD SWAP1 POP SWAP2 SWAP1 POP JUMP JUMPDEST PUSH1 0x0 PUSH2 0x4B64 PUSH1 0x26 DUP4 PUSH2 0x54EC JUMP JUMPDEST SWAP2 POP PUSH2 0x4B6F DUP3 PUSH2 0x59D8 JUMP JUMPDEST PUSH1 0x40 DUP3 ADD SWAP1 POP SWAP2 SWAP1 POP JUMP JUMPDEST PUSH1 0x0 PUSH2 0x4B87 PUSH1 0x1C DUP4 PUSH2 0x54EC JUMP JUMPDEST SWAP2 POP PUSH2 0x4B92 DUP3 PUSH2 0x5A27 JUMP JUMPDEST PUSH1 0x20 DUP3 ADD SWAP1 POP SWAP2 SWAP1 POP JUMP JUMPDEST PUSH1 0x0 PUSH2 0x4BAA PUSH1 0x24 DUP4 PUSH2 0x54EC JUMP JUMPDEST SWAP2 POP PUSH2 0x4BB5 DUP3 PUSH2 0x5A50 JUMP JUMPDEST PUSH1 0x40 DUP3 ADD SWAP1 POP SWAP2 SWAP1 POP JUMP JUMPDEST PUSH1 0x0 PUSH2 0x4BCD PUSH1 0x1E DUP4 PUSH2 0x54EC JUMP JUMPDEST SWAP2 POP PUSH2 0x4BD8 DUP3 PUSH2 0x5A9F JUMP JUMPDEST PUSH1 0x20 DUP3 ADD SWAP1 POP SWAP2 SWAP1 POP JUMP JUMPDEST PUSH1 0x0 PUSH2 0x4BF0 PUSH1 0x29 DUP4 PUSH2 0x54EC JUMP JUMPDEST SWAP2 POP PUSH2 0x4BFB DUP3 PUSH2 0x5AC8 JUMP JUMPDEST PUSH1 0x40 DUP3 ADD SWAP1 POP SWAP2 SWAP1 POP JUMP JUMPDEST PUSH1 0x0 PUSH2 0x4C13 PUSH1 0x10 DUP4 PUSH2 0x54EC JUMP JUMPDEST SWAP2 POP PUSH2 0x4C1E DUP3 PUSH2 0x5B17 JUMP JUMPDEST PUSH1 0x20 DUP3 ADD SWAP1 POP SWAP2 SWAP1 POP JUMP JUMPDEST PUSH1 0x0 PUSH2 0x4C36 PUSH1 0x10 DUP4 PUSH2 0x54EC JUMP JUMPDEST SWAP2 POP PUSH2 0x4C41 DUP3 PUSH2 0x5B40 JUMP JUMPDEST PUSH1 0x20 DUP3 ADD SWAP1 POP SWAP2 SWAP1 POP JUMP JUMPDEST PUSH1 0x0 PUSH2 0x4C59 PUSH1 0x25 DUP4 PUSH2 0x54EC JUMP JUMPDEST SWAP2 POP PUSH2 0x4C64 DUP3 PUSH2 0x5B69 JUMP JUMPDEST PUSH1 0x40 DUP3 ADD SWAP1 POP SWAP2 SWAP1 POP JUMP JUMPDEST PUSH1 0x0 PUSH2 0x4C7C PUSH1 0x32 DUP4 PUSH2 0x54EC JUMP JUMPDEST SWAP2 POP PUSH2 0x4C87 DUP3 PUSH2 0x5BB8 JUMP JUMPDEST PUSH1 0x40 DUP3 ADD SWAP1 POP SWAP2 SWAP1 POP JUMP JUMPDEST PUSH1 0x0 PUSH2 0x4C9F PUSH1 0x23 DUP4 PUSH2 0x54EC JUMP JUMPDEST SWAP2 POP PUSH2 0x4CAA DUP3 PUSH2 0x5C07 JUMP JUMPDEST PUSH1 0x40 DUP3 ADD SWAP1 POP SWAP2 SWAP1 POP JUMP JUMPDEST PUSH1 0x0 PUSH2 0x4CC2 PUSH1 0x2A DUP4 PUSH2 0x54EC JUMP JUMPDEST SWAP2 POP PUSH2 0x4CCD DUP3 PUSH2 0x5C56 JUMP JUMPDEST PUSH1 0x40 DUP3 ADD SWAP1 POP SWAP2 SWAP1 POP JUMP JUMPDEST PUSH1 0x0 PUSH2 0x4CE5 PUSH1 0x21 DUP4 PUSH2 0x54EC JUMP JUMPDEST SWAP2 POP PUSH2 0x4CF0 DUP3 PUSH2 0x5CA5 JUMP JUMPDEST PUSH1 0x40 DUP3 ADD SWAP1 POP SWAP2 SWAP1 POP JUMP JUMPDEST PUSH1 0x0 PUSH2 0x4D08 PUSH1 0x20 DUP4 PUSH2 0x54EC JUMP JUMPDEST SWAP2 POP PUSH2 0x4D13 DUP3 PUSH2 0x5CF4 JUMP JUMPDEST PUSH1 0x20 DUP3 ADD SWAP1 POP SWAP2 SWAP1 POP JUMP JUMPDEST PUSH1 0x0 PUSH2 0x4D2B PUSH1 0x23 DUP4 PUSH2 0x54EC JUMP JUMPDEST SWAP2 POP PUSH2 0x4D36 DUP3 PUSH2 0x5D1D JUMP JUMPDEST PUSH1 0x40 DUP3 ADD SWAP1 POP SWAP2 SWAP1 POP JUMP JUMPDEST PUSH1 0x0 PUSH2 0x4D4E PUSH1 0x15 DUP4 PUSH2 0x54EC JUMP JUMPDEST SWAP2 POP PUSH2 0x4D59 DUP3 PUSH2 0x5D6C JUMP JUMPDEST PUSH1 0x20 DUP3 ADD SWAP1 POP SWAP2 SWAP1 POP JUMP JUMPDEST PUSH1 0x0 PUSH2 0x4D71 PUSH1 0x29 DUP4 PUSH2 0x54EC JUMP JUMPDEST SWAP2 POP PUSH2 0x4D7C DUP3 PUSH2 0x5D95 JUMP JUMPDEST PUSH1 0x40 DUP3 ADD SWAP1 POP SWAP2 SWAP1 POP JUMP JUMPDEST PUSH1 0x0 PUSH2 0x4D94 PUSH1 0x29 DUP4 PUSH2 0x54EC JUMP JUMPDEST SWAP2 POP PUSH2 0x4D9F DUP3 PUSH2 0x5DE4 JUMP JUMPDEST PUSH1 0x40 DUP3 ADD SWAP1 POP SWAP2 SWAP1 POP JUMP JUMPDEST PUSH1 0x0 PUSH2 0x4DB7 PUSH1 0x28 DUP4 PUSH2 0x54EC JUMP JUMPDEST SWAP2 POP PUSH2 0x4DC2 DUP3 PUSH2 0x5E33 JUMP JUMPDEST PUSH1 0x40 DUP3 ADD SWAP1 POP SWAP2 SWAP1 POP JUMP JUMPDEST PUSH1 0x0 PUSH2 0x4DDA PUSH1 0x21 DUP4 PUSH2 0x54EC JUMP JUMPDEST SWAP2 POP PUSH2 0x4DE5 DUP3 PUSH2 0x5E82 JUMP JUMPDEST PUSH1 0x40 DUP3 ADD SWAP1 POP SWAP2 SWAP1 POP JUMP JUMPDEST PUSH2 0x4DF9 DUP2 PUSH2 0x55F1 JUMP JUMPDEST DUP3 MSTORE POP POP JUMP JUMPDEST PUSH2 0x4E08 DUP2 PUSH2 0x55F1 JUMP JUMPDEST DUP3 MSTORE POP POP JUMP JUMPDEST PUSH1 0x0 PUSH1 0x20 DUP3 ADD SWAP1 POP PUSH2 0x4E23 PUSH1 0x0 DUP4 ADD DUP5 PUSH2 0x4965 JUMP JUMPDEST SWAP3 SWAP2 POP POP JUMP JUMPDEST PUSH1 0x0 PUSH1 0xA0 DUP3 ADD SWAP1 POP PUSH2 0x4E3E PUSH1 0x0 DUP4 ADD DUP9 PUSH2 0x4965 JUMP JUMPDEST PUSH2 0x4E4B PUSH1 0x20 DUP4 ADD DUP8 PUSH2 0x4965 JUMP JUMPDEST DUP2 DUP2 SUB PUSH1 0x40 DUP4 ADD MSTORE PUSH2 0x4E5D DUP2 DUP7 PUSH2 0x4974 JUMP JUMPDEST SWAP1 POP DUP2 DUP2 SUB PUSH1 0x60 DUP4 ADD MSTORE PUSH2 0x4E71 DUP2 DUP6 PUSH2 0x4974 JUMP JUMPDEST SWAP1 POP DUP2 DUP2 SUB PUSH1 0x80 DUP4 ADD MSTORE PUSH2 0x4E85 DUP2 DUP5 PUSH2 0x49E1 JUMP JUMPDEST SWAP1 POP SWAP7 SWAP6 POP POP POP POP POP POP JUMP JUMPDEST PUSH1 0x0 PUSH1 0xA0 DUP3 ADD SWAP1 POP PUSH2 0x4EA6 PUSH1 0x0 DUP4 ADD DUP9 PUSH2 0x4965 JUMP JUMPDEST PUSH2 0x4EB3 PUSH1 0x20 DUP4 ADD DUP8 PUSH2 0x4965 JUMP JUMPDEST PUSH2 0x4EC0 PUSH1 0x40 DUP4 ADD DUP7 PUSH2 0x4DFF JUMP JUMPDEST PUSH2 0x4ECD PUSH1 0x60 DUP4 ADD DUP6 PUSH2 0x4DFF JUMP JUMPDEST DUP2 DUP2 SUB PUSH1 0x80 DUP4 ADD MSTORE PUSH2 0x4EDF DUP2 DUP5 PUSH2 0x49E1 JUMP JUMPDEST SWAP1 POP SWAP7 SWAP6 POP POP POP POP POP POP JUMP JUMPDEST PUSH1 0x0 PUSH1 0x20 DUP3 ADD SWAP1 POP DUP2 DUP2 SUB PUSH1 0x0 DUP4 ADD MSTORE PUSH2 0x4F05 DUP2 DUP5 PUSH2 0x4974 JUMP JUMPDEST SWAP1 POP SWAP3 SWAP2 POP POP JUMP JUMPDEST PUSH1 0x0 PUSH1 0x40 DUP3 ADD SWAP1 POP DUP2 DUP2 SUB PUSH1 0x0 DUP4 ADD MSTORE PUSH2 0x4F27 DUP2 DUP6 PUSH2 0x4974 JUMP JUMPDEST SWAP1 POP DUP2 DUP2 SUB PUSH1 0x20 DUP4 ADD MSTORE PUSH2 0x4F3B DUP2 DUP5 PUSH2 0x4974 JUMP JUMPDEST SWAP1 POP SWAP4 SWAP3 POP POP POP JUMP JUMPDEST PUSH1 0x0 PUSH1 0x20 DUP3 ADD SWAP1 POP PUSH2 0x4F59 PUSH1 0x0 DUP4 ADD DUP5 PUSH2 0x49D2 JUMP JUMPDEST SWAP3 SWAP2 POP POP JUMP JUMPDEST PUSH1 0x0 PUSH1 0x20 DUP3 ADD SWAP1 POP DUP2 DUP2 SUB PUSH1 0x0 DUP4 ADD MSTORE PUSH2 0x4F79 DUP2 DUP5 PUSH2 0x4A29 JUMP JUMPDEST SWAP1 POP SWAP3 SWAP2 POP POP JUMP JUMPDEST PUSH1 0x0 PUSH1 0x20 DUP3 ADD SWAP1 POP DUP2 DUP2 SUB PUSH1 0x0 DUP4 ADD MSTORE PUSH2 0x4F9A DUP2 PUSH2 0x4A62 JUMP JUMPDEST SWAP1 POP SWAP2 SWAP1 POP JUMP JUMPDEST PUSH1 0x0 PUSH1 0x20 DUP3 ADD SWAP1 POP DUP2 DUP2 SUB PUSH1 0x0 DUP4 ADD MSTORE PUSH2 0x4FBA DUP2 PUSH2 0x4A85 JUMP JUMPDEST SWAP1 POP SWAP2 SWAP1 POP JUMP JUMPDEST PUSH1 0x0 PUSH1 0x20 DUP3 ADD SWAP1 POP DUP2 DUP2 SUB PUSH1 0x0 DUP4 ADD MSTORE PUSH2 0x4FDA DUP2 PUSH2 0x4AA8 JUMP JUMPDEST SWAP1 POP SWAP2 SWAP1 POP JUMP JUMPDEST PUSH1 0x0 PUSH1 0x20 DUP3 ADD SWAP1 POP DUP2 DUP2 SUB PUSH1 0x0 DUP4 ADD MSTORE PUSH2 0x4FFA DUP2 PUSH2 0x4ACB JUMP JUMPDEST SWAP1 POP SWAP2 SWAP1 POP JUMP JUMPDEST PUSH1 0x0 PUSH1 0x80 DUP3 ADD SWAP1 POP DUP2 DUP2 SUB PUSH1 0x0 DUP4 ADD MSTORE PUSH2 0x501A DUP2 PUSH2 0x4AEE JUMP JUMPDEST SWAP1 POP PUSH2 0x5029 PUSH1 0x20 DUP4 ADD DUP7 PUSH2 0x4965 JUMP JUMPDEST PUSH2 0x5036 PUSH1 0x40 DUP4 ADD DUP6 PUSH2 0x4A1A JUMP JUMPDEST PUSH2 0x5043 PUSH1 0x60 DUP4 ADD DUP5 PUSH2 0x4DFF JUMP JUMPDEST SWAP5 SWAP4 POP POP POP POP JUMP JUMPDEST PUSH1 0x0 PUSH1 0x20 DUP3 ADD SWAP1 POP DUP2 DUP2 SUB PUSH1 0x0 DUP4 ADD MSTORE PUSH2 0x5064 DUP2 PUSH2 0x4B11 JUMP JUMPDEST SWAP1 POP SWAP2 SWAP1 POP JUMP JUMPDEST PUSH1 0x0 PUSH1 0x20 DUP3 ADD SWAP1 POP DUP2 DUP2 SUB PUSH1 0x0 DUP4 ADD MSTORE PUSH2 0x5084 DUP2 PUSH2 0x4B34 JUMP JUMPDEST SWAP1 POP SWAP2 SWAP1 POP JUMP JUMPDEST PUSH1 0x0 PUSH1 0x20 DUP3 ADD SWAP1 POP DUP2 DUP2 SUB PUSH1 0x0 DUP4 ADD MSTORE PUSH2 0x50A4 DUP2 PUSH2 0x4B57 JUMP JUMPDEST SWAP1 POP SWAP2 SWAP1 POP JUMP JUMPDEST PUSH1 0x0 PUSH1 0x80 DUP3 ADD SWAP1 POP DUP2 DUP2 SUB PUSH1 0x0 DUP4 ADD MSTORE PUSH2 0x50C4 DUP2 PUSH2 0x4B7A JUMP JUMPDEST SWAP1 POP PUSH2 0x50D3 PUSH1 0x20 DUP4 ADD DUP7 PUSH2 0x4965 JUMP JUMPDEST PUSH2 0x50E0 PUSH1 0x40 DUP4 ADD DUP6 PUSH2 0x4A1A JUMP JUMPDEST PUSH2 0x50ED PUSH1 0x60 DUP4 ADD DUP5 PUSH2 0x4DFF JUMP JUMPDEST SWAP5 SWAP4 POP POP POP POP JUMP JUMPDEST PUSH1 0x0 PUSH1 0x20 DUP3 ADD SWAP1 POP DUP2 DUP2 SUB PUSH1 0x0 DUP4 ADD MSTORE PUSH2 0x510E DUP2 PUSH2 0x4B9D JUMP JUMPDEST SWAP1 POP SWAP2 SWAP1 POP JUMP JUMPDEST PUSH1 0x0 PUSH1 0x80 DUP3 ADD SWAP1 POP DUP2 DUP2 SUB PUSH1 0x0 DUP4 ADD MSTORE PUSH2 0x512E DUP2 PUSH2 0x4BC0 JUMP JUMPDEST SWAP1 POP PUSH2 0x513D PUSH1 0x20 DUP4 ADD DUP7 PUSH2 0x4965 JUMP JUMPDEST PUSH2 0x514A PUSH1 0x40 DUP4 ADD DUP6 PUSH2 0x4DFF JUMP JUMPDEST PUSH2 0x5157 PUSH1 0x60 DUP4 ADD DUP5 PUSH2 0x4DFF JUMP JUMPDEST SWAP5 SWAP4 POP POP POP POP JUMP JUMPDEST PUSH1 0x0 PUSH1 0x20 DUP3 ADD SWAP1 POP DUP2 DUP2 SUB PUSH1 0x0 DUP4 ADD MSTORE PUSH2 0x5178 DUP2 PUSH2 0x4BE3 JUMP JUMPDEST SWAP1 POP SWAP2 SWAP1 POP JUMP JUMPDEST PUSH1 0x0 PUSH1 0x20 DUP3 ADD SWAP1 POP DUP2 DUP2 SUB PUSH1 0x0 DUP4 ADD MSTORE PUSH2 0x5198 DUP2 PUSH2 0x4C06 JUMP JUMPDEST SWAP1 POP SWAP2 SWAP1 POP JUMP JUMPDEST PUSH1 0x0 PUSH1 0x20 DUP3 ADD SWAP1 POP DUP2 DUP2 SUB PUSH1 0x0 DUP4 ADD MSTORE PUSH2 0x51B8 DUP2 PUSH2 0x4C29 JUMP JUMPDEST SWAP1 POP SWAP2 SWAP1 POP JUMP JUMPDEST PUSH1 0x0 PUSH1 0x20 DUP3 ADD SWAP1 POP DUP2 DUP2 SUB PUSH1 0x0 DUP4 ADD MSTORE PUSH2 0x51D8 DUP2 PUSH2 0x4C4C JUMP JUMPDEST SWAP1 POP SWAP2 SWAP1 POP JUMP JUMPDEST PUSH1 0x0 PUSH1 0x20 DUP3 ADD SWAP1 POP DUP2 DUP2 SUB PUSH1 0x0 DUP4 ADD MSTORE PUSH2 0x51F8 DUP2 PUSH2 0x4C6F JUMP JUMPDEST SWAP1 POP SWAP2 SWAP1 POP JUMP JUMPDEST PUSH1 0x0 PUSH1 0x20 DUP3 ADD SWAP1 POP DUP2 DUP2 SUB PUSH1 0x0 DUP4 ADD MSTORE PUSH2 0x5218 DUP2 PUSH2 0x4C92 JUMP JUMPDEST SWAP1 POP SWAP2 SWAP1 POP JUMP JUMPDEST PUSH1 0x0 PUSH1 0x20 DUP3 ADD SWAP1 POP DUP2 DUP2 SUB PUSH1 0x0 DUP4 ADD MSTORE PUSH2 0x5238 DUP2 PUSH2 0x4CB5 JUMP JUMPDEST SWAP1 POP SWAP2 SWAP1 POP JUMP JUMPDEST PUSH1 0x0 PUSH1 0x80 DUP3 ADD SWAP1 POP DUP2 DUP2 SUB PUSH1 0x0 DUP4 ADD MSTORE PUSH2 0x5258 DUP2 PUSH2 0x4CD8 JUMP JUMPDEST SWAP1 POP PUSH2 0x5267 PUSH1 0x20 DUP4 ADD DUP7 PUSH2 0x4965 JUMP JUMPDEST PUSH2 0x5274 PUSH1 0x40 DUP4 ADD DUP6 PUSH2 0x4DFF JUMP JUMPDEST PUSH2 0x5281 PUSH1 0x60 DUP4 ADD DUP5 PUSH2 0x4DFF JUMP JUMPDEST SWAP5 SWAP4 POP POP POP POP JUMP JUMPDEST PUSH1 0x0 PUSH1 0x20 DUP3 ADD SWAP1 POP DUP2 DUP2 SUB PUSH1 0x0 DUP4 ADD MSTORE PUSH2 0x52A2 DUP2 PUSH2 0x4CFB JUMP JUMPDEST SWAP1 POP SWAP2 SWAP1 POP JUMP JUMPDEST PUSH1 0x0 PUSH1 0x20 DUP3 ADD SWAP1 POP DUP2 DUP2 SUB PUSH1 0x0 DUP4 ADD MSTORE PUSH2 0x52C2 DUP2 PUSH2 0x4D1E JUMP JUMPDEST SWAP1 POP SWAP2 SWAP1 POP JUMP JUMPDEST PUSH1 0x0 PUSH1 0x20 DUP3 ADD SWAP1 POP DUP2 DUP2 SUB PUSH1 0x0 DUP4 ADD MSTORE PUSH2 0x52E2 DUP2 PUSH2 0x4D41 JUMP JUMPDEST SWAP1 POP SWAP2 SWAP1 POP JUMP JUMPDEST PUSH1 0x0 PUSH1 0x20 DUP3 ADD SWAP1 POP DUP2 DUP2 SUB PUSH1 0x0 DUP4 ADD MSTORE PUSH2 0x5302 DUP2 PUSH2 0x4D64 JUMP JUMPDEST SWAP1 POP SWAP2 SWAP1 POP JUMP JUMPDEST PUSH1 0x0 PUSH1 0x20 DUP3 ADD SWAP1 POP DUP2 DUP2 SUB PUSH1 0x0 DUP4 ADD MSTORE PUSH2 0x5322 DUP2 PUSH2 0x4D87 JUMP JUMPDEST SWAP1 POP SWAP2 SWAP1 POP JUMP JUMPDEST PUSH1 0x0 PUSH1 0x20 DUP3 ADD SWAP1 POP DUP2 DUP2 SUB PUSH1 0x0 DUP4 ADD MSTORE PUSH2 0x5342 DUP2 PUSH2 0x4DAA JUMP JUMPDEST SWAP1 POP SWAP2 SWAP1 POP JUMP JUMPDEST PUSH1 0x0 PUSH1 0x20 DUP3 ADD SWAP1 POP DUP2 DUP2 SUB PUSH1 0x0 DUP4 ADD MSTORE PUSH2 0x5362 DUP2 PUSH2 0x4DCD JUMP JUMPDEST SWAP1 POP SWAP2 SWAP1 POP JUMP JUMPDEST PUSH1 0x0 PUSH1 0x20 DUP3 ADD SWAP1 POP PUSH2 0x537E PUSH1 0x0 DUP4 ADD DUP5 PUSH2 0x4DFF JUMP JUMPDEST SWAP3 SWAP2 POP POP JUMP JUMPDEST PUSH1 0x0 PUSH1 0x40 DUP3 ADD SWAP1 POP PUSH2 0x5399 PUSH1 0x0 DUP4 ADD DUP6 PUSH2 0x4DFF JUMP JUMPDEST PUSH2 0x53A6 PUSH1 0x20 DUP4 ADD DUP5 PUSH2 0x4DFF JUMP JUMPDEST SWAP4 SWAP3 POP POP POP JUMP JUMPDEST PUSH1 0x0 PUSH2 0x53B7 PUSH2 0x53C8 JUMP JUMPDEST SWAP1 POP PUSH2 0x53C3 DUP3 DUP3 PUSH2 0x568E JUMP JUMPDEST SWAP2 SWAP1 POP JUMP JUMPDEST PUSH1 0x0 PUSH1 0x40 MLOAD SWAP1 POP SWAP1 JUMP JUMPDEST PUSH1 0x0 PUSH8 0xFFFFFFFFFFFFFFFF DUP3 GT ISZERO PUSH2 0x53ED JUMPI PUSH2 0x53EC PUSH2 0x57BF JUMP JUMPDEST JUMPDEST PUSH1 0x20 DUP3 MUL SWAP1 POP PUSH1 0x20 DUP2 ADD SWAP1 POP SWAP2 SWAP1 POP JUMP JUMPDEST PUSH1 0x0 PUSH8 0xFFFFFFFFFFFFFFFF DUP3 GT ISZERO PUSH2 0x5419 JUMPI PUSH2 0x5418 PUSH2 0x57BF JUMP JUMPDEST JUMPDEST PUSH1 0x20 DUP3 MUL SWAP1 POP PUSH1 0x20 DUP2 ADD SWAP1 POP SWAP2 SWAP1 POP JUMP JUMPDEST PUSH1 0x0 PUSH8 0xFFFFFFFFFFFFFFFF DUP3 GT ISZERO PUSH2 0x5445 JUMPI PUSH2 0x5444 PUSH2 0x57BF JUMP JUMPDEST JUMPDEST PUSH2 0x544E DUP3 PUSH2 0x5829 JUMP JUMPDEST SWAP1 POP PUSH1 0x20 DUP2 ADD SWAP1 POP SWAP2 SWAP1 POP JUMP JUMPDEST PUSH1 0x0 PUSH8 0xFFFFFFFFFFFFFFFF DUP3 GT ISZERO PUSH2 0x5476 JUMPI PUSH2 0x5475 PUSH2 0x57BF JUMP JUMPDEST JUMPDEST PUSH2 0x547F DUP3 PUSH2 0x5829 JUMP JUMPDEST SWAP1 POP PUSH1 0x20 DUP2 ADD SWAP1 POP SWAP2 SWAP1 POP JUMP JUMPDEST PUSH1 0x0 DUP2 SWAP1 POP PUSH1 0x20 DUP3 ADD SWAP1 POP SWAP2 SWAP1 POP JUMP JUMPDEST PUSH1 0x0 DUP2 MLOAD SWAP1 POP SWAP2 SWAP1 POP JUMP JUMPDEST PUSH1 0x0 DUP2 MLOAD SWAP1 POP SWAP2 SWAP1 POP JUMP JUMPDEST PUSH1 0x0 DUP2 MLOAD SWAP1 POP SWAP2 SWAP1 POP JUMP JUMPDEST PUSH1 0x0 PUSH1 0x20 DUP3 ADD SWAP1 POP SWAP2 SWAP1 POP JUMP JUMPDEST PUSH1 0x0 DUP3 DUP3 MSTORE PUSH1 0x20 DUP3 ADD SWAP1 POP SWAP3 SWAP2 POP POP JUMP JUMPDEST PUSH1 0x0 DUP3 DUP3 MSTORE PUSH1 0x20 DUP3 ADD SWAP1 POP SWAP3 SWAP2 POP POP JUMP JUMPDEST PUSH1 0x0 DUP3 DUP3 MSTORE PUSH1 0x20 DUP3 ADD SWAP1 POP SWAP3 SWAP2 POP POP JUMP JUMPDEST PUSH1 0x0 PUSH2 0x5508 DUP3 PUSH2 0x55F1 JUMP JUMPDEST SWAP2 POP PUSH2 0x5513 DUP4 PUSH2 0x55F1 JUMP JUMPDEST SWAP3 POP DUP3 PUSH32 0xFFFFFFFFFFFFFFFFFFFFFFFFFFFFFFFFFFFFFFFFFFFFFFFFFFFFFFFFFFFFFFFF SUB DUP3 GT ISZERO PUSH2 0x5548 JUMPI PUSH2 0x5547 PUSH2 0x5732 JUMP JUMPDEST JUMPDEST DUP3 DUP3 ADD SWAP1 POP SWAP3 SWAP2 POP POP JUMP JUMPDEST PUSH1 0x0 PUSH2 0x555E DUP3 PUSH2 0x55F1 JUMP JUMPDEST SWAP2 POP PUSH2 0x5569 DUP4 PUSH2 0x55F1 JUMP JUMPDEST SWAP3 POP DUP3 DUP3 LT ISZERO PUSH2 0x557C JUMPI PUSH2 0x557B PUSH2 0x5732 JUMP JUMPDEST JUMPDEST DUP3 DUP3 SUB SWAP1 POP SWAP3 SWAP2 POP POP JUMP JUMPDEST PUSH1 0x0 PUSH2 0x5592 DUP3 PUSH2 0x55D1 JUMP JUMPDEST SWAP1 POP SWAP2 SWAP1 POP JUMP JUMPDEST PUSH1 0x0 DUP2 ISZERO ISZERO SWAP1 POP SWAP2 SWAP1 POP JUMP JUMPDEST PUSH1 0x0 PUSH32 0xFFFFFFFF00000000000000000000000000000000000000000000000000000000 DUP3 AND SWAP1 POP SWAP2 SWAP1 POP JUMP JUMPDEST PUSH1 0x0 PUSH20 0xFFFFFFFFFFFFFFFFFFFFFFFFFFFFFFFFFFFFFFFF DUP3 AND SWAP1 POP SWAP2 SWAP1 POP JUMP JUMPDEST PUSH1 0x0 DUP2 SWAP1 POP SWAP2 SWAP1 POP JUMP JUMPDEST PUSH1 0x0 PUSH1 0xFF DUP3 AND SWAP1 POP SWAP2 SWAP1 POP JUMP JUMPDEST PUSH1 0x0 PUSH2 0x5613 DUP3 PUSH2 0x55F1 JUMP JUMPDEST SWAP1 POP SWAP2 SWAP1 POP JUMP JUMPDEST DUP3 DUP2 DUP4 CALLDATACOPY PUSH1 0x0 DUP4 DUP4 ADD MSTORE POP POP POP JUMP JUMPDEST PUSH1 0x0 JUMPDEST DUP4 DUP2 LT ISZERO PUSH2 0x5647 JUMPI DUP1 DUP3 ADD MLOAD DUP2 DUP5 ADD MSTORE PUSH1 0x20 DUP2 ADD SWAP1 POP PUSH2 0x562C JUMP JUMPDEST DUP4 DUP2 GT ISZERO PUSH2 0x5656 JUMPI PUSH1 0x0 DUP5 DUP5 ADD MSTORE JUMPDEST POP POP POP POP JUMP JUMPDEST PUSH1 0x0 PUSH1 0x2 DUP3 DIV SWAP1 POP PUSH1 0x1 DUP3 AND DUP1 PUSH2 0x5674 JUMPI PUSH1 0x7F DUP3 AND SWAP2 POP JUMPDEST PUSH1 0x20 DUP3 LT DUP2 EQ ISZERO PUSH2 0x5688 JUMPI PUSH2 0x5687 PUSH2 0x5761 JUMP JUMPDEST JUMPDEST POP SWAP2 SWAP1 POP JUMP JUMPDEST PUSH2 0x5697 DUP3 PUSH2 0x5829 JUMP JUMPDEST DUP2 ADD DUP2 DUP2 LT PUSH8 0xFFFFFFFFFFFFFFFF DUP3 GT OR ISZERO PUSH2 0x56B6 JUMPI PUSH2 0x56B5 PUSH2 0x57BF JUMP JUMPDEST JUMPDEST DUP1 PUSH1 0x40 MSTORE POP POP POP JUMP JUMPDEST PUSH1 0x0 PUSH2 0x56CA DUP3 PUSH2 0x55F1 JUMP JUMPDEST SWAP2 POP PUSH32 0xFFFFFFFFFFFFFFFFFFFFFFFFFFFFFFFFFFFFFFFFFFFFFFFFFFFFFFFFFFFFFFFF DUP3 EQ ISZERO PUSH2 0x56FD JUMPI PUSH2 0x56FC PUSH2 0x5732 JUMP JUMPDEST JUMPDEST PUSH1 0x1 DUP3 ADD SWAP1 POP SWAP2 SWAP1 POP JUMP JUMPDEST PUSH1 0x0 PUSH2 0x5713 DUP3 PUSH2 0x55FB JUMP JUMPDEST SWAP2 POP PUSH1 0xFF DUP3 EQ ISZERO PUSH2 0x5727 JUMPI PUSH2 0x5726 PUSH2 0x5732 JUMP JUMPDEST JUMPDEST PUSH1 0x1 DUP3 ADD SWAP1 POP SWAP2 SWAP1 POP JUMP JUMPDEST PUSH32 0x4E487B7100000000000000000000000000000000000000000000000000000000 PUSH1 0x0 MSTORE PUSH1 0x11 PUSH1 0x4 MSTORE PUSH1 0x24 PUSH1 0x0 REVERT JUMPDEST PUSH32 0x4E487B7100000000000000000000000000000000000000000000000000000000 PUSH1 0x0 MSTORE PUSH1 0x22 PUSH1 0x4 MSTORE PUSH1 0x24 PUSH1 0x0 REVERT JUMPDEST PUSH32 0x4E487B7100000000000000000000000000000000000000000000000000000000 PUSH1 0x0 MSTORE PUSH1 0x32 PUSH1 0x4 MSTORE PUSH1 0x24 PUSH1 0x0 REVERT JUMPDEST PUSH32 0x4E487B7100000000000000000000000000000000000000000000000000000000 PUSH1 0x0 MSTORE PUSH1 0x41 PUSH1 0x4 MSTORE PUSH1 0x24 PUSH1 0x0 REVERT JUMPDEST PUSH1 0x0 PUSH1 0x3 RETURNDATASIZE GT ISZERO PUSH2 0x580D JUMPI PUSH1 0x4 PUSH1 0x0 DUP1 RETURNDATACOPY PUSH2 0x580A PUSH1 0x0 MLOAD PUSH2 0x583A JUMP JUMPDEST SWAP1 POP JUMPDEST SWAP1 JUMP JUMPDEST PUSH1 0x0 DUP1 REVERT JUMPDEST PUSH1 0x0 DUP1 REVERT JUMPDEST PUSH1 0x0 DUP1 REVERT JUMPDEST PUSH1 0x0 DUP1 REVERT JUMPDEST PUSH1 0x0 DUP1 REVERT JUMPDEST PUSH1 0x0 PUSH1 0x1F NOT PUSH1 0x1F DUP4 ADD AND SWAP1 POP SWAP2 SWAP1 POP JUMP JUMPDEST PUSH1 0x0 DUP2 PUSH1 0xE0 SHR SWAP1 POP SWAP2 SWAP1 POP JUMP JUMPDEST PUSH32 0x455243313135353A207472616E7366657220746F206E6F6E2045524331313535 PUSH1 0x0 DUP3 ADD MSTORE PUSH32 0x526563656976657220696D706C656D656E746572000000000000000000000000 PUSH1 0x20 DUP3 ADD MSTORE POP JUMP JUMPDEST PUSH32 0x546F6B656E20646F65736E277420657869737400000000000000000000000000 PUSH1 0x0 DUP3 ADD MSTORE POP JUMP JUMPDEST PUSH32 0x455243313135353A204552433131353552656365697665722072656A65637465 PUSH1 0x0 DUP3 ADD MSTORE PUSH32 0x6420746F6B656E73000000000000000000000000000000000000000000000000 PUSH1 0x20 DUP3 ADD MSTORE POP JUMP JUMPDEST PUSH32 0x5061757361626C653A206E6F7420706175736564000000000000000000000000 PUSH1 0x0 DUP3 ADD MSTORE POP JUMP JUMPDEST PUSH32 0x4D6F64696665722076616C6964546F6B656E4964000000000000000000000000 PUSH1 0x0 DUP3 ADD MSTORE POP JUMP JUMPDEST PUSH32 0x4E6F7420656E6F75676820737570706C79000000000000000000000000000000 PUSH1 0x0 DUP3 ADD MSTORE POP JUMP JUMPDEST PUSH32 0x455243313135353A2062616C616E636520717565727920666F7220746865207A PUSH1 0x0 DUP3 ADD MSTORE PUSH32 0x65726F2061646472657373000000000000000000000000000000000000000000 PUSH1 0x20 DUP3 ADD MSTORE POP JUMP JUMPDEST PUSH32 0x4F776E61626C653A206E6577206F776E657220697320746865207A65726F2061 PUSH1 0x0 DUP3 ADD MSTORE PUSH32 0x6464726573730000000000000000000000000000000000000000000000000000 PUSH1 0x20 DUP3 ADD MSTORE POP JUMP JUMPDEST PUSH32 0x4D6F6469666572206F6E6C7957686974656C6973744164647265737300000000 PUSH1 0x0 DUP3 ADD MSTORE POP JUMP JUMPDEST PUSH32 0x455243313135353A206275726E20616D6F756E7420657863656564732062616C PUSH1 0x0 DUP3 ADD MSTORE PUSH32 0x616E636500000000000000000000000000000000000000000000000000000000 PUSH1 0x20 DUP3 ADD MSTORE POP JUMP JUMPDEST PUSH32 0x6164647265737320697320616C72656164792077686974656C69737465640000 PUSH1 0x0 DUP3 ADD MSTORE POP JUMP JUMPDEST PUSH32 0x455243313135353A2063616C6C6572206973206E6F74206F776E6572206E6F72 PUSH1 0x0 DUP3 ADD MSTORE PUSH32 0x20617070726F7665640000000000000000000000000000000000000000000000 PUSH1 0x20 DUP3 ADD MSTORE POP JUMP JUMPDEST PUSH32 0x457863656564206D6178537570706C7900000000000000000000000000000000 PUSH1 0x0 DUP3 ADD MSTORE POP JUMP JUMPDEST PUSH32 0x5061757361626C653A2070617573656400000000000000000000000000000000 PUSH1 0x0 DUP3 ADD MSTORE POP JUMP JUMPDEST PUSH32 0x455243313135353A207472616E7366657220746F20746865207A65726F206164 PUSH1 0x0 DUP3 ADD MSTORE PUSH32 0x6472657373000000000000000000000000000000000000000000000000000000 PUSH1 0x20 DUP3 ADD MSTORE POP JUMP JUMPDEST PUSH32 0x455243313135353A207472616E736665722063616C6C6572206973206E6F7420 PUSH1 0x0 DUP3 ADD MSTORE PUSH32 0x6F776E6572206E6F7220617070726F7665640000000000000000000000000000 PUSH1 0x20 DUP3 ADD MSTORE POP JUMP JUMPDEST PUSH32 0x455243313135353A206275726E2066726F6D20746865207A65726F2061646472 PUSH1 0x0 DUP3 ADD MSTORE PUSH32 0x6573730000000000000000000000000000000000000000000000000000000000 PUSH1 0x20 DUP3 ADD MSTORE POP JUMP JUMPDEST PUSH32 0x455243313135353A20696E73756666696369656E742062616C616E636520666F PUSH1 0x0 DUP3 ADD MSTORE PUSH32 0x72207472616E7366657200000000000000000000000000000000000000000000 PUSH1 0x20 DUP3 ADD MSTORE POP JUMP JUMPDEST PUSH32 0x416472657373206973206E6F7420616C72656164792077686974656C69737465 PUSH1 0x0 DUP3 ADD MSTORE PUSH32 0x6400000000000000000000000000000000000000000000000000000000000000 PUSH1 0x20 DUP3 ADD MSTORE POP JUMP JUMPDEST PUSH32 0x4F776E61626C653A2063616C6C6572206973206E6F7420746865206F776E6572 PUSH1 0x0 DUP3 ADD MSTORE POP JUMP JUMPDEST PUSH32 0x41646472657373206E6F742077686974656C69737465642E2043616E74206D69 PUSH1 0x0 DUP3 ADD MSTORE PUSH32 0x6E742E0000000000000000000000000000000000000000000000000000000000 PUSH1 0x20 DUP3 ADD MSTORE POP JUMP JUMPDEST PUSH32 0x4E6F7420656E6F7567682065746865722073656E740000000000000000000000 PUSH1 0x0 DUP3 ADD MSTORE POP JUMP JUMPDEST PUSH32 0x455243313135353A2073657474696E6720617070726F76616C20737461747573 PUSH1 0x0 DUP3 ADD MSTORE PUSH32 0x20666F722073656C660000000000000000000000000000000000000000000000 PUSH1 0x20 DUP3 ADD MSTORE POP JUMP JUMPDEST PUSH32 0x455243313135353A206163636F756E747320616E6420696473206C656E677468 PUSH1 0x0 DUP3 ADD MSTORE PUSH32 0x206D69736D617463680000000000000000000000000000000000000000000000 PUSH1 0x20 DUP3 ADD MSTORE POP JUMP JUMPDEST PUSH32 0x455243313135353A2069647320616E6420616D6F756E7473206C656E67746820 PUSH1 0x0 DUP3 ADD MSTORE PUSH32 0x6D69736D61746368000000000000000000000000000000000000000000000000 PUSH1 0x20 DUP3 ADD MSTORE POP JUMP JUMPDEST PUSH32 0x455243313135353A206D696E7420746F20746865207A65726F20616464726573 PUSH1 0x0 DUP3 ADD MSTORE PUSH32 0x7300000000000000000000000000000000000000000000000000000000000000 PUSH1 0x20 DUP3 ADD MSTORE POP JUMP JUMPDEST PUSH1 0x0 PUSH1 0x44 RETURNDATASIZE LT ISZERO PUSH2 0x5EE1 JUMPI PUSH2 0x5F64 JUMP JUMPDEST PUSH2 0x5EE9 PUSH2 0x53C8 JUMP JUMPDEST PUSH1 0x4 RETURNDATASIZE SUB PUSH1 0x4 DUP3 RETURNDATACOPY DUP1 MLOAD RETURNDATASIZE PUSH1 0x24 DUP3 ADD GT PUSH8 0xFFFFFFFFFFFFFFFF DUP3 GT OR ISZERO PUSH2 0x5F11 JUMPI POP POP PUSH2 0x5F64 JUMP JUMPDEST DUP1 DUP3 ADD DUP1 MLOAD PUSH8 0xFFFFFFFFFFFFFFFF DUP2 GT ISZERO PUSH2 0x5F2F JUMPI POP POP POP POP PUSH2 0x5F64 JUMP JUMPDEST DUP1 PUSH1 0x20 DUP4 ADD ADD PUSH1 0x4 RETURNDATASIZE SUB DUP6 ADD DUP2 GT ISZERO PUSH2 0x5F4C JUMPI POP POP POP POP POP PUSH2 0x5F64 JUMP JUMPDEST PUSH2 0x5F5B DUP3 PUSH1 0x20 ADD DUP6 ADD DUP7 PUSH2 0x568E JUMP JUMPDEST DUP3 SWAP6 POP POP POP POP POP POP JUMPDEST SWAP1 JUMP JUMPDEST PUSH2 0x5F70 DUP2 PUSH2 0x5587 JUMP JUMPDEST DUP2 EQ PUSH2 0x5F7B JUMPI PUSH1 0x0 DUP1 REVERT JUMPDEST POP JUMP JUMPDEST PUSH2 0x5F87 DUP2 PUSH2 0x5599 JUMP JUMPDEST DUP2 EQ PUSH2 0x5F92 JUMPI PUSH1 0x0 DUP1 REVERT JUMPDEST POP JUMP JUMPDEST PUSH2 0x5F9E DUP2 PUSH2 0x55A5 JUMP JUMPDEST DUP2 EQ PUSH2 0x5FA9 JUMPI PUSH1 0x0 DUP1 REVERT JUMPDEST POP JUMP JUMPDEST PUSH2 0x5FB5 DUP2 PUSH2 0x55F1 JUMP JUMPDEST DUP2 EQ PUSH2 0x5FC0 JUMPI PUSH1 0x0 DUP1 REVERT JUMPDEST POP JUMP INVALID LOG2 PUSH5 0x6970667358 0x22 SLT KECCAK256 0xC7 PUSH18 0x9C6EA1EB53C2B5C6046F442E2AF4D958C053 PUSH14 0x4774002173028A6C9A328464736F PUSH13 0x63430008070033000000000000 "
		},
		"gasEstimates": {
			"creation": {
				"codeDepositCost": "4913800",
				"executionCost": "infinite",
				"totalCost": "infinite"
			},
			"external": {
				"IsWhitelisted(address)": "2887",
				"balanceOf(address,uint256)": "infinite",
				"balanceOfBatch(address[],uint256[])": "infinite",
				"batchRemoveWhitelist(address[],uint256)": "infinite",
				"batchWhitelistAddress(address[],uint256)": "infinite",
				"burn(address,uint256,uint256)": "infinite",
				"burn(uint256,uint256)": "infinite",
				"burnBatch(address,uint256[],uint256[])": "infinite",
				"burnBatch(uint256[],uint256[])": "infinite",
				"burnForMint(address,uint256[],uint256[],uint256[],uint256[])": "infinite",
				"contractBalance()": "2788",
				"exists(uint256)": "2903",
				"getWhitelistCount(uint256)": "infinite",
				"isApprovedForAll(address,address)": "infinite",
				"mint(address)": "infinite",
				"mintBatch(address,uint256[],uint256[])": "infinite",
				"name()": "infinite",
				"owner()": "2567",
				"pause()": "infinite",
				"paused()": "2574",
				"renounceOwnership()": "30485",
				"safeBatchTransferFrom(address,address,uint256[],uint256[],bytes)": "infinite",
				"safeTransferFrom(address,address,uint256,uint256,bytes)": "infinite",
				"setApprovalForAll(address,bool)": "infinite",
				"setURI(uint256,string)": "infinite",
				"supportsInterface(bytes4)": "842",
				"symbol()": "infinite",
				"tokenURI(uint256)": "infinite",
				"totalSupply(uint256)": "infinite",
				"transferOwnership(address)": "30833",
				"unpause()": "infinite",
				"uri(uint256)": "infinite",
				"whitelist(address)": "2903",
				"withdrawAll()": "infinite"
			},
			"internal": {
				"_RemoveWhitelist(address,uint256)": "infinite",
				"_beforeTokenTransfer(address,address,address,uint256[] memory,uint256[] memory,bytes memory)": "infinite"
			}
		},
		"methodIdentifiers": {
			"IsWhitelisted(address)": "2ae5d2f9",
			"balanceOf(address,uint256)": "00fdd58e",
			"balanceOfBatch(address[],uint256[])": "4e1273f4",
			"batchRemoveWhitelist(address[],uint256)": "50f787dc",
			"batchWhitelistAddress(address[],uint256)": "36576424",
			"burn(address,uint256,uint256)": "f5298aca",
			"burn(uint256,uint256)": "b390c0ab",
			"burnBatch(address,uint256[],uint256[])": "6b20c454",
			"burnBatch(uint256[],uint256[])": "83ca4b6f",
			"burnForMint(address,uint256[],uint256[],uint256[],uint256[])": "510f4104",
			"contractBalance()": "8b7afe2e",
			"exists(uint256)": "4f558e79",
			"getWhitelistCount(uint256)": "acb3180f",
			"isApprovedForAll(address,address)": "e985e9c5",
			"mint(address)": "6a627842",
			"mintBatch(address,uint256[],uint256[])": "d81d0a15",
			"name()": "06fdde03",
			"owner()": "8da5cb5b",
			"pause()": "8456cb59",
			"paused()": "5c975abb",
			"renounceOwnership()": "715018a6",
			"safeBatchTransferFrom(address,address,uint256[],uint256[],bytes)": "2eb2c2d6",
			"safeTransferFrom(address,address,uint256,uint256,bytes)": "f242432a",
			"setApprovalForAll(address,bool)": "a22cb465",
			"setURI(uint256,string)": "862440e2",
			"supportsInterface(bytes4)": "01ffc9a7",
			"symbol()": "95d89b41",
			"tokenURI(uint256)": "c87b56dd",
			"totalSupply(uint256)": "bd85b039",
			"transferOwnership(address)": "f2fde38b",
			"unpause()": "3f4ba83a",
			"uri(uint256)": "0e89341c",
			"whitelist(address)": "9b19251a",
			"withdrawAll()": "853828b6"
		}
	},
	"abi": [
		{
			"inputs": [],
			"stateMutability": "nonpayable",
			"type": "constructor"
		},
		{
			"anonymous": false,
			"inputs": [
				{
					"indexed": true,
					"internalType": "address",
					"name": "account",
					"type": "address"
				},
				{
					"indexed": true,
					"internalType": "address",
					"name": "operator",
					"type": "address"
				},
				{
					"indexed": false,
					"internalType": "bool",
					"name": "approved",
					"type": "bool"
				}
			],
			"name": "ApprovalForAll",
			"type": "event"
		},
		{
			"anonymous": false,
			"inputs": [
				{
					"indexed": false,
					"internalType": "string",
					"name": "msg",
					"type": "string"
				},
				{
					"indexed": false,
					"internalType": "address",
					"name": "_id",
					"type": "address"
				},
				{
					"indexed": false,
					"internalType": "uint256",
					"name": "count",
					"type": "uint256"
				},
				{
					"indexed": false,
					"internalType": "uint256",
					"name": "addressvalue",
					"type": "uint256"
				}
			],
			"name": "Log",
			"type": "event"
		},
		{
			"anonymous": false,
			"inputs": [
				{
					"indexed": true,
					"internalType": "address",
					"name": "previousOwner",
					"type": "address"
				},
				{
					"indexed": true,
					"internalType": "address",
					"name": "newOwner",
					"type": "address"
				}
			],
			"name": "OwnershipTransferred",
			"type": "event"
		},
		{
			"anonymous": false,
			"inputs": [
				{
					"indexed": false,
					"internalType": "address",
					"name": "account",
					"type": "address"
				}
			],
			"name": "Paused",
			"type": "event"
		},
		{
			"anonymous": false,
			"inputs": [
				{
					"indexed": true,
					"internalType": "address",
					"name": "operator",
					"type": "address"
				},
				{
					"indexed": true,
					"internalType": "address",
					"name": "from",
					"type": "address"
				},
				{
					"indexed": true,
					"internalType": "address",
					"name": "to",
					"type": "address"
				},
				{
					"indexed": false,
					"internalType": "uint256[]",
					"name": "ids",
					"type": "uint256[]"
				},
				{
					"indexed": false,
					"internalType": "uint256[]",
					"name": "values",
					"type": "uint256[]"
				}
			],
			"name": "TransferBatch",
			"type": "event"
		},
		{
			"anonymous": false,
			"inputs": [
				{
					"indexed": true,
					"internalType": "address",
					"name": "operator",
					"type": "address"
				},
				{
					"indexed": true,
					"internalType": "address",
					"name": "from",
					"type": "address"
				},
				{
					"indexed": true,
					"internalType": "address",
					"name": "to",
					"type": "address"
				},
				{
					"indexed": false,
					"internalType": "uint256",
					"name": "id",
					"type": "uint256"
				},
				{
					"indexed": false,
					"internalType": "uint256",
					"name": "value",
					"type": "uint256"
				}
			],
			"name": "TransferSingle",
			"type": "event"
		},
		{
			"anonymous": false,
			"inputs": [
				{
					"indexed": false,
					"internalType": "string",
					"name": "value",
					"type": "string"
				},
				{
					"indexed": true,
					"internalType": "uint256",
					"name": "id",
					"type": "uint256"
				}
			],
			"name": "URI",
			"type": "event"
		},
		{
			"anonymous": false,
			"inputs": [
				{
					"indexed": false,
					"internalType": "address",
					"name": "account",
					"type": "address"
				}
			],
			"name": "Unpaused",
			"type": "event"
		},
		{
			"inputs": [
				{
					"internalType": "address",
					"name": "_address",
					"type": "address"
				}
			],
			"name": "IsWhitelisted",
			"outputs": [
				{
					"internalType": "uint256",
					"name": "",
					"type": "uint256"
				}
			],
			"stateMutability": "view",
			"type": "function"
		},
		{
			"inputs": [
				{
					"internalType": "address",
					"name": "account",
					"type": "address"
				},
				{
					"internalType": "uint256",
					"name": "id",
					"type": "uint256"
				}
			],
			"name": "balanceOf",
			"outputs": [
				{
					"internalType": "uint256",
					"name": "",
					"type": "uint256"
				}
			],
			"stateMutability": "view",
			"type": "function"
		},
		{
			"inputs": [
				{
					"internalType": "address[]",
					"name": "accounts",
					"type": "address[]"
				},
				{
					"internalType": "uint256[]",
					"name": "ids",
					"type": "uint256[]"
				}
			],
			"name": "balanceOfBatch",
			"outputs": [
				{
					"internalType": "uint256[]",
					"name": "",
					"type": "uint256[]"
				}
			],
			"stateMutability": "view",
			"type": "function"
		},
		{
			"inputs": [
				{
					"internalType": "address[]",
					"name": "_addresses",
					"type": "address[]"
				},
				{
					"internalType": "uint256",
					"name": "_id",
					"type": "uint256"
				}
			],
			"name": "batchRemoveWhitelist",
			"outputs": [],
			"stateMutability": "nonpayable",
			"type": "function"
		},
		{
			"inputs": [
				{
					"internalType": "address[]",
					"name": "_addresses",
					"type": "address[]"
				},
				{
					"internalType": "uint256",
					"name": "_id",
					"type": "uint256"
				}
			],
			"name": "batchWhitelistAddress",
			"outputs": [],
			"stateMutability": "nonpayable",
			"type": "function"
		},
		{
			"inputs": [
				{
					"internalType": "uint256",
					"name": "_id",
					"type": "uint256"
				},
				{
					"internalType": "uint256",
					"name": "_amount",
					"type": "uint256"
				}
			],
			"name": "burn",
			"outputs": [],
			"stateMutability": "nonpayable",
			"type": "function"
		},
		{
			"inputs": [
				{
					"internalType": "address",
					"name": "account",
					"type": "address"
				},
				{
					"internalType": "uint256",
					"name": "id",
					"type": "uint256"
				},
				{
					"internalType": "uint256",
					"name": "value",
					"type": "uint256"
				}
			],
			"name": "burn",
			"outputs": [],
			"stateMutability": "nonpayable",
			"type": "function"
		},
		{
			"inputs": [
				{
					"internalType": "address",
					"name": "account",
					"type": "address"
				},
				{
					"internalType": "uint256[]",
					"name": "ids",
					"type": "uint256[]"
				},
				{
					"internalType": "uint256[]",
					"name": "values",
					"type": "uint256[]"
				}
			],
			"name": "burnBatch",
			"outputs": [],
			"stateMutability": "nonpayable",
			"type": "function"
		},
		{
			"inputs": [
				{
					"internalType": "uint256[]",
					"name": "_ids",
					"type": "uint256[]"
				},
				{
					"internalType": "uint256[]",
					"name": "_amounts",
					"type": "uint256[]"
				}
			],
			"name": "burnBatch",
			"outputs": [],
			"stateMutability": "nonpayable",
			"type": "function"
		},
		{
			"inputs": [
				{
					"internalType": "address",
					"name": "_from",
					"type": "address"
				},
				{
					"internalType": "uint256[]",
					"name": "_burnIds",
					"type": "uint256[]"
				},
				{
					"internalType": "uint256[]",
					"name": "_burnAmounts",
					"type": "uint256[]"
				},
				{
					"internalType": "uint256[]",
					"name": "_mintIds",
					"type": "uint256[]"
				},
				{
					"internalType": "uint256[]",
					"name": "_mintAmounts",
					"type": "uint256[]"
				}
			],
			"name": "burnForMint",
			"outputs": [],
			"stateMutability": "nonpayable",
			"type": "function"
		},
		{
			"inputs": [],
			"name": "contractBalance",
			"outputs": [
				{
					"internalType": "uint256",
					"name": "",
					"type": "uint256"
				}
			],
			"stateMutability": "view",
			"type": "function"
		},
		{
			"inputs": [
				{
					"internalType": "uint256",
					"name": "id",
					"type": "uint256"
				}
			],
			"name": "exists",
			"outputs": [
				{
					"internalType": "bool",
					"name": "",
					"type": "bool"
				}
			],
			"stateMutability": "view",
			"type": "function"
		},
		{
			"inputs": [
				{
					"internalType": "uint256",
					"name": "_id",
					"type": "uint256"
				}
			],
			"name": "getWhitelistCount",
			"outputs": [
				{
					"internalType": "uint256",
					"name": "",
					"type": "uint256"
				}
			],
			"stateMutability": "view",
			"type": "function"
		},
		{
			"inputs": [
				{
					"internalType": "address",
					"name": "account",
					"type": "address"
				},
				{
					"internalType": "address",
					"name": "operator",
					"type": "address"
				}
			],
			"name": "isApprovedForAll",
			"outputs": [
				{
					"internalType": "bool",
					"name": "",
					"type": "bool"
				}
			],
			"stateMutability": "view",
			"type": "function"
		},
		{
			"inputs": [
				{
					"internalType": "address",
					"name": "_to",
					"type": "address"
				}
			],
			"name": "mint",
			"outputs": [],
			"stateMutability": "payable",
			"type": "function"
		},
		{
			"inputs": [
				{
					"internalType": "address",
					"name": "_to",
					"type": "address"
				},
				{
					"internalType": "uint256[]",
					"name": "_ids",
					"type": "uint256[]"
				},
				{
					"internalType": "uint256[]",
					"name": "_amounts",
					"type": "uint256[]"
				}
			],
			"name": "mintBatch",
			"outputs": [],
			"stateMutability": "nonpayable",
			"type": "function"
		},
		{
			"inputs": [],
			"name": "name",
			"outputs": [
				{
					"internalType": "string",
					"name": "",
					"type": "string"
				}
			],
			"stateMutability": "view",
			"type": "function"
		},
		{
			"inputs": [],
			"name": "owner",
			"outputs": [
				{
					"internalType": "address",
					"name": "",
					"type": "address"
				}
			],
			"stateMutability": "view",
			"type": "function"
		},
		{
			"inputs": [],
			"name": "pause",
			"outputs": [],
			"stateMutability": "nonpayable",
			"type": "function"
		},
		{
			"inputs": [],
			"name": "paused",
			"outputs": [
				{
					"internalType": "bool",
					"name": "",
					"type": "bool"
				}
			],
			"stateMutability": "view",
			"type": "function"
		},
		{
			"inputs": [],
			"name": "renounceOwnership",
			"outputs": [],
			"stateMutability": "nonpayable",
			"type": "function"
		},
		{
			"inputs": [
				{
					"internalType": "address",
					"name": "from",
					"type": "address"
				},
				{
					"internalType": "address",
					"name": "to",
					"type": "address"
				},
				{
					"internalType": "uint256[]",
					"name": "ids",
					"type": "uint256[]"
				},
				{
					"internalType": "uint256[]",
					"name": "amounts",
					"type": "uint256[]"
				},
				{
					"internalType": "bytes",
					"name": "data",
					"type": "bytes"
				}
			],
			"name": "safeBatchTransferFrom",
			"outputs": [],
			"stateMutability": "nonpayable",
			"type": "function"
		},
		{
			"inputs": [
				{
					"internalType": "address",
					"name": "from",
					"type": "address"
				},
				{
					"internalType": "address",
					"name": "to",
					"type": "address"
				},
				{
					"internalType": "uint256",
					"name": "id",
					"type": "uint256"
				},
				{
					"internalType": "uint256",
					"name": "amount",
					"type": "uint256"
				},
				{
					"internalType": "bytes",
					"name": "data",
					"type": "bytes"
				}
			],
			"name": "safeTransferFrom",
			"outputs": [],
			"stateMutability": "nonpayable",
			"type": "function"
		},
		{
			"inputs": [
				{
					"internalType": "address",
					"name": "operator",
					"type": "address"
				},
				{
					"internalType": "bool",
					"name": "approved",
					"type": "bool"
				}
			],
			"name": "setApprovalForAll",
			"outputs": [],
			"stateMutability": "nonpayable",
			"type": "function"
		},
		{
			"inputs": [
				{
					"internalType": "uint256",
					"name": "_id",
					"type": "uint256"
				},
				{
					"internalType": "string",
					"name": "_uri",
					"type": "string"
				}
			],
			"name": "setURI",
			"outputs": [],
			"stateMutability": "nonpayable",
			"type": "function"
		},
		{
			"inputs": [
				{
					"internalType": "bytes4",
					"name": "interfaceId",
					"type": "bytes4"
				}
			],
			"name": "supportsInterface",
			"outputs": [
				{
					"internalType": "bool",
					"name": "",
					"type": "bool"
				}
			],
			"stateMutability": "view",
			"type": "function"
		},
		{
			"inputs": [],
			"name": "symbol",
			"outputs": [
				{
					"internalType": "string",
					"name": "",
					"type": "string"
				}
			],
			"stateMutability": "view",
			"type": "function"
		},
		{
			"inputs": [
				{
					"internalType": "uint256",
					"name": "",
					"type": "uint256"
				}
			],
			"name": "tokenURI",
			"outputs": [
				{
					"internalType": "string",
					"name": "",
					"type": "string"
				}
			],
			"stateMutability": "view",
			"type": "function"
		},
		{
			"inputs": [
				{
					"internalType": "uint256",
					"name": "id",
					"type": "uint256"
				}
			],
			"name": "totalSupply",
			"outputs": [
				{
					"internalType": "uint256",
					"name": "",
					"type": "uint256"
				}
			],
			"stateMutability": "view",
			"type": "function"
		},
		{
			"inputs": [
				{
					"internalType": "address",
					"name": "newOwner",
					"type": "address"
				}
			],
			"name": "transferOwnership",
			"outputs": [],
			"stateMutability": "nonpayable",
			"type": "function"
		},
		{
			"inputs": [],
			"name": "unpause",
			"outputs": [],
			"stateMutability": "nonpayable",
			"type": "function"
		},
		{
			"inputs": [
				{
					"internalType": "uint256",
					"name": "_id",
					"type": "uint256"
				}
			],
			"name": "uri",
			"outputs": [
				{
					"internalType": "string",
					"name": "",
					"type": "string"
				}
			],
			"stateMutability": "view",
			"type": "function"
		},
		{
			"inputs": [
				{
					"internalType": "address",
					"name": "",
					"type": "address"
				}
			],
			"name": "whitelist",
			"outputs": [
				{
					"internalType": "uint256",
					"name": "",
					"type": "uint256"
				}
			],
			"stateMutability": "view",
			"type": "function"
		},
		{
			"inputs": [],
			"name": "withdrawAll",
			"outputs": [],
			"stateMutability": "payable",
			"type": "function"
		}
	]
}