{
	"data": {
		"bytecode": {
			"linkReferences": {},
			"object": "60806040526040518060400160405280601881526020017f466f7274756e652054726561737572652048756e74696e67000000000000000081525060059080519060200190620000519291906200034d565b506040518060400160405280600481526020017f464f525400000000000000000000000000000000000000000000000000000000815250600690805190602001906200009f9291906200034d565b506040518060400160405280610fa061ffff16815260200160fa61ffff168152506008906002620000d2929190620003de565b506040518060400160405280600060ff168152602001600060ff1681525060099060026200010292919062000436565b50604051806040016040528066038d7ea4c6800066ffffffffffffff168152602001600066ffffffffffffff16815250600a906002620001449291906200048d565b506040518060400160405280600060ff168152602001600060ff16815250600b9060026200017492919062000436565b503480156200018257600080fd5b5060405180602001604052806000815250620001a4816200026360201b60201c565b50620001c5620001b96200027f60201b60201c565b6200028760201b60201c565b6000600360146101000a81548160ff0219169083151502179055506005808054620001f090620005a1565b620001fd929190620004ea565b5060068080546200020e90620005a1565b6200021b929190620004ea565b5033600760006101000a81548173ffffffffffffffffffffffffffffffffffffffff021916908373ffffffffffffffffffffffffffffffffffffffff16021790555062000606565b80600290805190602001906200027b9291906200034d565b5050565b600033905090565b6000600360009054906101000a900473ffffffffffffffffffffffffffffffffffffffff16905081600360006101000a81548173ffffffffffffffffffffffffffffffffffffffff021916908373ffffffffffffffffffffffffffffffffffffffff1602179055508173ffffffffffffffffffffffffffffffffffffffff168173ffffffffffffffffffffffffffffffffffffffff167f8be0079c531659141344cd1fd0a4f28419497f9722a3daafe3b4186f6b6457e060405160405180910390a35050565b8280546200035b90620005a1565b90600052602060002090601f0160209004810192826200037f5760008555620003cb565b82601f106200039a57805160ff1916838001178555620003cb565b82800160010185558215620003cb579182015b82811115620003ca578251825591602001919060010190620003ad565b5b509050620003da919062000582565b5090565b82805482825590600052602060002090810192821562000423579160200282015b8281111562000422578251829061ffff16905591602001919060010190620003ff565b5b50905062000432919062000582565b5090565b8280548282559060005260206000209081019282156200047a579160200282015b8281111562000479578251829060ff1690559160200191906001019062000457565b5b50905062000489919062000582565b5090565b828054828255906000526020600020908101928215620004d7579160200282015b82811115620004d6578251829066ffffffffffffff16905591602001919060010190620004ae565b5b509050620004e6919062000582565b5090565b828054620004f890620005a1565b90600052602060002090601f0160209004810192826200051c57600085556200056f565b82601f106200052f57805485556200056f565b828001600101855582156200056f57600052602060002091601f016020900482015b828111156200056e57825482559160010191906001019062000551565b5b5090506200057e919062000582565b5090565b5b808211156200059d57600081600090555060010162000583565b5090565b60006002820490506001821680620005ba57607f821691505b60208210811415620005d157620005d0620005d7565b5b50919050565b7f4e487b7100000000000000000000000000000000000000000000000000000000600052602260045260246000fd5b6160c880620006166000396000f3fe60806040526004361061020e5760003560e01c80638456cb5911610118578063b390c0ab116100a0578063e985e9c51161006f578063e985e9c51461076d578063f242432a146107aa578063f2fde38b146107d3578063f5298aca146107fc578063fda49eb4146108255761020e565b8063b390c0ab146106a1578063bd85b039146106ca578063c87b56dd14610707578063cca87bc8146107445761020e565b80638da5cb5b116100e75780638da5cb5b146105a857806395d89b41146105d35780639b19251a146105fe578063a22cb4651461063b578063acb3180f146106645761020e565b80638456cb5914610533578063853828b61461054a578063862440e2146105545780638b7afe2e1461057d5761020e565b80634f558e791161019b5780635c975abb1161016a5780635c975abb146104835780636b20c454146104ae578063715018a6146104d75780637daf06fd146104ee57806383ca4b6f1461050a5761020e565b80634f558e79146103d857806350f787dc14610415578063510f41041461043e57806356c88f5f146104675761020e565b80632ae5d2f9116101e25780632ae5d2f9146102f55780632eb2c2d614610332578063365764241461035b5780633f4ba83a146103845780634e1273f41461039b5761020e565b8062fdd58e1461021357806301ffc9a71461025057806306fdde031461028d5780630e89341c146102b8575b600080fd5b34801561021f57600080fd5b5061023a60048036038101906102359190614695565b610850565b60405161024791906153f6565b60405180910390f35b34801561025c57600080fd5b5061027760048036038101906102729190614874565b610919565b6040516102849190614fb1565b60405180910390f35b34801561029957600080fd5b506102a26109fb565b6040516102af9190614fcc565b60405180910390f35b3480156102c457600080fd5b506102df60048036038101906102da91906148ce565b610a89565b6040516102ec9190614fcc565b60405180910390f35b34801561030157600080fd5b5061031c6004803603810190610317919061430c565b610b2e565b60405161032991906153f6565b60405180910390f35b34801561033e57600080fd5b5061035960048036038101906103549190614379565b610b77565b005b34801561036757600080fd5b50610382600480360381019061037d91906147a0565b610c18565b005b34801561039057600080fd5b506103996110d5565b005b3480156103a757600080fd5b506103c260048036038101906103bd9190614728565b61115b565b6040516103cf9190614f58565b60405180910390f35b3480156103e457600080fd5b506103ff60048036038101906103fa91906148ce565b611274565b60405161040c9190614fb1565b60405180910390f35b34801561042157600080fd5b5061043c600480360381019061043791906147a0565b611288565b005b34801561044a57600080fd5b506104656004803603810190610460919061456a565b61146e565b005b610481600480360381019061047c919061430c565b611517565b005b34801561048f57600080fd5b506104986116fa565b6040516104a59190614fb1565b60405180910390f35b3480156104ba57600080fd5b506104d560048036038101906104d091906144df565b611711565b005b3480156104e357600080fd5b506104ec6117ae565b005b610508600480360381019061050391906148ce565b611836565b005b34801561051657600080fd5b50610531600480360381019061052c91906147fc565b61191e565b005b34801561053f57600080fd5b5061054861192d565b005b6105526119b3565b005b34801561056057600080fd5b5061057b600480360381019061057691906148fb565b611a9a565b005b34801561058957600080fd5b50610592611b7a565b60405161059f91906153f6565b60405180910390f35b3480156105b457600080fd5b506105bd611bfe565b6040516105ca9190614e7b565b60405180910390f35b3480156105df57600080fd5b506105e8611c28565b6040516105f59190614fcc565b60405180910390f35b34801561060a57600080fd5b506106256004803603810190610620919061430c565b611cb6565b60405161063291906153f6565b60405180910390f35b34801561064757600080fd5b50610662600480360381019061065d9190614655565b611cce565b005b34801561067057600080fd5b5061068b600480360381019061068691906148ce565b611ce4565b60405161069891906153f6565b60405180910390f35b3480156106ad57600080fd5b506106c860048036038101906106c39190614957565b611d18565b005b3480156106d657600080fd5b506106f160048036038101906106ec91906148ce565b611d27565b6040516106fe91906153f6565b60405180910390f35b34801561071357600080fd5b5061072e600480360381019061072991906148ce565b611d44565b60405161073b9190614fcc565b60405180910390f35b34801561075057600080fd5b5061076b6004803603810190610766919061430c565b611de4565b005b34801561077957600080fd5b50610794600480360381019061078f9190614339565b611eb8565b6040516107a19190614fb1565b60405180910390f35b3480156107b657600080fd5b506107d160048036038101906107cc9190614448565b611f4c565b005b3480156107df57600080fd5b506107fa60048036038101906107f5919061430c565b611fed565b005b34801561080857600080fd5b50610823600480360381019061081e91906146d5565b6120e5565b005b34801561083157600080fd5b5061083a612182565b6040516108479190614e7b565b60405180910390f35b60008073ffffffffffffffffffffffffffffffffffffffff168373ffffffffffffffffffffffffffffffffffffffff1614156108c1576040517f08c379a00000000000000000000000000000000000000000000000000000000081526004016108b8906150d8565b60405180910390fd5b60008083815260200190815260200160002060008473ffffffffffffffffffffffffffffffffffffffff1673ffffffffffffffffffffffffffffffffffffffff16815260200190815260200160002054905092915050565b60007fd9b67a26000000000000000000000000000000000000000000000000000000007bffffffffffffffffffffffffffffffffffffffffffffffffffffffff1916827bffffffffffffffffffffffffffffffffffffffffffffffffffffffff191614806109e457507f0e89341c000000000000000000000000000000000000000000000000000000007bffffffffffffffffffffffffffffffffffffffffffffffffffffffff1916827bffffffffffffffffffffffffffffffffffffffffffffffffffffffff1916145b806109f457506109f3826121a8565b5b9050919050565b60058054610a0890615706565b80601f0160208091040260200160405190810160405280929190818152602001828054610a3490615706565b8015610a815780601f10610a5657610100808354040283529160200191610a81565b820191906000526020600020905b815481529060010190602001808311610a6457829003601f168201915b505050505081565b6060600c60008381526020019081526020016000208054610aa990615706565b80601f0160208091040260200160405190810160405280929190818152602001828054610ad590615706565b8015610b225780601f10610af757610100808354040283529160200191610b22565b820191906000526020600020905b815481529060010190602001808311610b0557829003601f168201915b50505050509050919050565b6000600d60008373ffffffffffffffffffffffffffffffffffffffff1673ffffffffffffffffffffffffffffffffffffffff168152602001908152602001600020549050919050565b610b7f612212565b73ffffffffffffffffffffffffffffffffffffffff168573ffffffffffffffffffffffffffffffffffffffff161480610bc55750610bc485610bbf612212565b611eb8565b5b610c04576040517f08c379a0000000000000000000000000000000000000000000000000000000008152600401610bfb9061524c565b60405180910390fd5b610c11858585858561221a565b5050505050565b610c20612212565b73ffffffffffffffffffffffffffffffffffffffff16610c3e611bfe565b73ffffffffffffffffffffffffffffffffffffffff1614610c94576040517f08c379a0000000000000000000000000000000000000000000000000000000008152600401610c8b906152f6565b60405180910390fd5b807fa2455ec11f160d321516c021994881e7678c0b5870cd7aae50107098770e2c28336000600d60003373ffffffffffffffffffffffffffffffffffffffff1673ffffffffffffffffffffffffffffffffffffffff16815260200190815260200160002054604051610d089392919061506e565b60405180910390a16008805490508111158015610d255750600081115b610d64576040517f08c379a0000000000000000000000000000000000000000000000000000000008152600401610d5b9061500e565b60405180910390fd5b60005b83518110156110cf576000600d6000868481518110610d8957610d88615810565b5b602002602001015173ffffffffffffffffffffffffffffffffffffffff1673ffffffffffffffffffffffffffffffffffffffff168152602001908152602001600020541415610fe35782600d6000868481518110610dea57610de9615810565b5b602002602001015173ffffffffffffffffffffffffffffffffffffffff1673ffffffffffffffffffffffffffffffffffffffff168152602001908152602001600020819055506008600184610e3f91906155e0565b81548110610e5057610e4f615810565b5b90600052602060002001546001600b600186610e6c91906155e0565b81548110610e7d57610e7c615810565b5b9060005260206000200154610e92919061558a565b1115610ed3576040517f08c379a0000000000000000000000000000000000000000000000000000000008152600401610eca906151ec565b60405180910390fd5b600b600184610ee291906155e0565b81548110610ef357610ef2615810565b5b906000526020600020016000815480929190610f0e90615769565b919050555060018314610fde576008600081548110610f3057610f2f615810565b5b90600052602060002001546001600b600081548110610f5257610f51615810565b5b9060005260206000200154610f67919061558a565b1115610fa8576040517f08c379a0000000000000000000000000000000000000000000000000000000008152600401610f9f906151ec565b60405180910390fd5b600b600081548110610fbd57610fbc615810565b5b906000526020600020016000815480929190610fd890615769565b91905055505b6110bc565b7fa2455ec11f160d321516c021994881e7678c0b5870cd7aae50107098770e2c2884828151811061101757611016615810565b5b6020026020010151600b60018661102e91906155e0565b8154811061103f5761103e615810565b5b9060005260206000200154600d600088868151811061106157611060615810565b5b602002602001015173ffffffffffffffffffffffffffffffffffffffff1673ffffffffffffffffffffffffffffffffffffffff168152602001908152602001600020546040516110b393929190615182565b60405180910390a15b80806110c790615769565b915050610d67565b50505050565b6110dd612212565b73ffffffffffffffffffffffffffffffffffffffff166110fb611bfe565b73ffffffffffffffffffffffffffffffffffffffff1614611151576040517f08c379a0000000000000000000000000000000000000000000000000000000008152600401611148906152f6565b60405180910390fd5b61115961252e565b565b606081518351146111a1576040517f08c379a000000000000000000000000000000000000000000000000000000000815260040161119890615376565b60405180910390fd5b6000835167ffffffffffffffff8111156111be576111bd61583f565b5b6040519080825280602002602001820160405280156111ec5781602001602082028036833780820191505090505b50905060005b84518110156112695761123985828151811061121157611210615810565b5b602002602001015185838151811061122c5761122b615810565b5b6020026020010151610850565b82828151811061124c5761124b615810565b5b6020026020010181815250508061126290615769565b90506111f2565b508091505092915050565b60008061128083611d27565b119050919050565b611290612212565b73ffffffffffffffffffffffffffffffffffffffff166112ae611bfe565b73ffffffffffffffffffffffffffffffffffffffff1614611304576040517f08c379a00000000000000000000000000000000000000000000000000000000081526004016112fb906152f6565b60405180910390fd5b807fa2455ec11f160d321516c021994881e7678c0b5870cd7aae50107098770e2c28336000600d60003373ffffffffffffffffffffffffffffffffffffffff1673ffffffffffffffffffffffffffffffffffffffff168152602001908152602001600020546040516113789392919061506e565b60405180910390a160088054905081111580156113955750600081115b6113d4576040517f08c379a00000000000000000000000000000000000000000000000000000000081526004016113cb9061500e565b60405180910390fd5b6000805b8451811015611426576114058582815181106113f7576113f6615810565b5b6020026020010151856125d0565b818061141090615769565b925050808061141e90615769565b9150506113d8565b5080600b60018561143791906155e0565b8154811061144857611447615810565b5b90600052602060002001600082825461146191906155e0565b9250508190555050505050565b611476612212565b73ffffffffffffffffffffffffffffffffffffffff16611494611bfe565b73ffffffffffffffffffffffffffffffffffffffff16146114ea576040517f08c379a00000000000000000000000000000000000000000000000000000000081526004016114e1906152f6565b60405180910390fd5b6114f5858585612920565b61151085838360405180602001604052806000815250612bd1565b5050505050565b61151f6116fa565b1561155f576040517f08c379a00000000000000000000000000000000000000000000000000000000081526004016115569061520c565b60405180910390fd5b807fa2455ec11f160d321516c021994881e7678c0b5870cd7aae50107098770e2c28336000600d60003373ffffffffffffffffffffffffffffffffffffffff1673ffffffffffffffffffffffffffffffffffffffff168152602001908152602001600020546040516115d393929190615118565b60405180910390a16000600d60008373ffffffffffffffffffffffffffffffffffffffff1673ffffffffffffffffffffffffffffffffffffffff16815260200190815260200160002054141561165e576040517f08c379a000000000000000000000000000000000000000000000000000000000815260040161165590615316565b60405180910390fd5b600a60008154811061167357611672615810565b5b90600052602060002001543410156116c0576040517f08c379a00000000000000000000000000000000000000000000000000000000081526004016116b790615336565b60405180910390fd5b60006116cb83610b2e565b90506116d78382612def565b600181146116eb576116ea836001612def565b5b6116f583826125d0565b505050565b6000600360149054906101000a900460ff16905090565b611719612212565b73ffffffffffffffffffffffffffffffffffffffff168373ffffffffffffffffffffffffffffffffffffffff16148061175f575061175e83611759612212565b611eb8565b5b61179e576040517f08c379a0000000000000000000000000000000000000000000000000000000008152600401611795906151cc565b60405180910390fd5b6117a9838383612920565b505050565b6117b6612212565b73ffffffffffffffffffffffffffffffffffffffff166117d4611bfe565b73ffffffffffffffffffffffffffffffffffffffff161461182a576040517f08c379a0000000000000000000000000000000000000000000000000000000008152600401611821906152f6565b60405180910390fd5b611834600061308e565b565b61183e612212565b73ffffffffffffffffffffffffffffffffffffffff1661185c611bfe565b73ffffffffffffffffffffffffffffffffffffffff16146118b2576040517f08c379a00000000000000000000000000000000000000000000000000000000081526004016118a9906152f6565b60405180910390fd5b600760009054906101000a900473ffffffffffffffffffffffffffffffffffffffff1673ffffffffffffffffffffffffffffffffffffffff166108fc829081150290604051600060405180830381858888f1935050505015801561191a573d6000803e3d6000fd5b5050565b611929338383612920565b5050565b611935612212565b73ffffffffffffffffffffffffffffffffffffffff16611953611bfe565b73ffffffffffffffffffffffffffffffffffffffff16146119a9576040517f08c379a00000000000000000000000000000000000000000000000000000000081526004016119a0906152f6565b60405180910390fd5b6119b1613154565b565b6119bb612212565b73ffffffffffffffffffffffffffffffffffffffff166119d9611bfe565b73ffffffffffffffffffffffffffffffffffffffff1614611a2f576040517f08c379a0000000000000000000000000000000000000000000000000000000008152600401611a26906152f6565b60405180910390fd5b600760009054906101000a900473ffffffffffffffffffffffffffffffffffffffff1673ffffffffffffffffffffffffffffffffffffffff166108fc479081150290604051600060405180830381858888f19350505050158015611a97573d6000803e3d6000fd5b50565b611aa2612212565b73ffffffffffffffffffffffffffffffffffffffff16611ac0611bfe565b73ffffffffffffffffffffffffffffffffffffffff1614611b16576040517f08c379a0000000000000000000000000000000000000000000000000000000008152600401611b0d906152f6565b60405180910390fd5b80600c60008481526020019081526020016000209080519060200190611b3d929190613fe4565b50817f6bb7ff708619ba0610cba295a58592e0451dee2622938c8755667688daf3529b82604051611b6e9190614fcc565b60405180910390a25050565b6000611b84612212565b73ffffffffffffffffffffffffffffffffffffffff16611ba2611bfe565b73ffffffffffffffffffffffffffffffffffffffff1614611bf8576040517f08c379a0000000000000000000000000000000000000000000000000000000008152600401611bef906152f6565b60405180910390fd5b47905090565b6000600360009054906101000a900473ffffffffffffffffffffffffffffffffffffffff16905090565b60068054611c3590615706565b80601f0160208091040260200160405190810160405280929190818152602001828054611c6190615706565b8015611cae5780601f10611c8357610100808354040283529160200191611cae565b820191906000526020600020905b815481529060010190602001808311611c9157829003601f168201915b505050505081565b600d6020528060005260406000206000915090505481565b611ce0611cd9612212565b83836131f7565b5050565b6000600b600183611cf591906155e0565b81548110611d0657611d05615810565b5b90600052602060002001549050919050565b611d23338383613364565b5050565b600060046000838152602001908152602001600020549050919050565b600c6020528060005260406000206000915090508054611d6390615706565b80601f0160208091040260200160405190810160405280929190818152602001828054611d8f90615706565b8015611ddc5780601f10611db157610100808354040283529160200191611ddc565b820191906000526020600020905b815481529060010190602001808311611dbf57829003601f168201915b505050505081565b600760009054906101000a900473ffffffffffffffffffffffffffffffffffffffff1673ffffffffffffffffffffffffffffffffffffffff163373ffffffffffffffffffffffffffffffffffffffff1614611e74576040517f08c379a0000000000000000000000000000000000000000000000000000000008152600401611e6b906153d6565b60405180910390fd5b80600760006101000a81548173ffffffffffffffffffffffffffffffffffffffff021916908373ffffffffffffffffffffffffffffffffffffffff16021790555050565b6000600160008473ffffffffffffffffffffffffffffffffffffffff1673ffffffffffffffffffffffffffffffffffffffff16815260200190815260200160002060008373ffffffffffffffffffffffffffffffffffffffff1673ffffffffffffffffffffffffffffffffffffffff16815260200190815260200160002060009054906101000a900460ff16905092915050565b611f54612212565b73ffffffffffffffffffffffffffffffffffffffff168573ffffffffffffffffffffffffffffffffffffffff161480611f9a5750611f9985611f94612212565b611eb8565b5b611fd9576040517f08c379a0000000000000000000000000000000000000000000000000000000008152600401611fd0906151cc565b60405180910390fd5b611fe68585858585613581565b5050505050565b611ff5612212565b73ffffffffffffffffffffffffffffffffffffffff16612013611bfe565b73ffffffffffffffffffffffffffffffffffffffff1614612069576040517f08c379a0000000000000000000000000000000000000000000000000000000008152600401612060906152f6565b60405180910390fd5b600073ffffffffffffffffffffffffffffffffffffffff168173ffffffffffffffffffffffffffffffffffffffff1614156120d9576040517f08c379a00000000000000000000000000000000000000000000000000000000081526004016120d0906150f8565b60405180910390fd5b6120e28161308e565b50565b6120ed612212565b73ffffffffffffffffffffffffffffffffffffffff168373ffffffffffffffffffffffffffffffffffffffff16148061213357506121328361212d612212565b611eb8565b5b612172576040517f08c379a0000000000000000000000000000000000000000000000000000000008152600401612169906151cc565b60405180910390fd5b61217d838383613364565b505050565b600760009054906101000a900473ffffffffffffffffffffffffffffffffffffffff1681565b60007f01ffc9a7000000000000000000000000000000000000000000000000000000007bffffffffffffffffffffffffffffffffffffffffffffffffffffffff1916827bffffffffffffffffffffffffffffffffffffffffffffffffffffffff1916149050919050565b600033905090565b815183511461225e576040517f08c379a000000000000000000000000000000000000000000000000000000000815260040161225590615396565b60405180910390fd5b600073ffffffffffffffffffffffffffffffffffffffff168473ffffffffffffffffffffffffffffffffffffffff1614156122ce576040517f08c379a00000000000000000000000000000000000000000000000000000000081526004016122c59061522c565b60405180910390fd5b60006122d8612212565b90506122e8818787878787613803565b60005b845181101561249957600085828151811061230957612308615810565b5b60200260200101519050600085838151811061232857612327615810565b5b60200260200101519050600080600084815260200190815260200160002060008b73ffffffffffffffffffffffffffffffffffffffff1673ffffffffffffffffffffffffffffffffffffffff168152602001908152602001600020549050818110156123c9576040517f08c379a00000000000000000000000000000000000000000000000000000000081526004016123c09061528c565b60405180910390fd5b81810360008085815260200190815260200160002060008c73ffffffffffffffffffffffffffffffffffffffff1673ffffffffffffffffffffffffffffffffffffffff168152602001908152602001600020819055508160008085815260200190815260200160002060008b73ffffffffffffffffffffffffffffffffffffffff1673ffffffffffffffffffffffffffffffffffffffff168152602001908152602001600020600082825461247e919061558a565b925050819055505050508061249290615769565b90506122eb565b508473ffffffffffffffffffffffffffffffffffffffff168673ffffffffffffffffffffffffffffffffffffffff168273ffffffffffffffffffffffffffffffffffffffff167f4a39dc06d4c0dbc64b70af90fd698a233a518aa5d07e595d983b8c0526c8f7fb8787604051612510929190614f7a565b60405180910390a4612526818787878787613861565b505050505050565b6125366116fa565b612575576040517f08c379a000000000000000000000000000000000000000000000000000000000815260040161256c9061504e565b60405180910390fd5b6000600360146101000a81548160ff0219169083151502179055507f5db9ee0a495bf2e6ff9c91a7834c1ba4fdd244a5e8aa4e537bd38aeae4b073aa6125b9612212565b6040516125c69190614e7b565b60405180910390a1565b6125d8612212565b73ffffffffffffffffffffffffffffffffffffffff166125f6611bfe565b73ffffffffffffffffffffffffffffffffffffffff161461264c576040517f08c379a0000000000000000000000000000000000000000000000000000000008152600401612643906152f6565b60405180910390fd5b807fa2455ec11f160d321516c021994881e7678c0b5870cd7aae50107098770e2c28336000600d60003373ffffffffffffffffffffffffffffffffffffffff1673ffffffffffffffffffffffffffffffffffffffff168152602001908152602001600020546040516126c09392919061506e565b60405180910390a160088054905081111580156126dd5750600081115b61271c576040517f08c379a00000000000000000000000000000000000000000000000000000000081526004016127139061500e565b60405180910390fd5b6000600d60008573ffffffffffffffffffffffffffffffffffffffff1673ffffffffffffffffffffffffffffffffffffffff16815260200190815260200160002054146128765760018214156127b6576000600d60008573ffffffffffffffffffffffffffffffffffffffff1673ffffffffffffffffffffffffffffffffffffffff1681526020019081526020016000208190555061283c565b6001600d60008573ffffffffffffffffffffffffffffffffffffffff1673ffffffffffffffffffffffffffffffffffffffff16815260200190815260200160002081905550600b60018361280a91906155e0565b8154811061281b5761281a615810565b5b906000526020600020016000815480929190612836906156dc565b91905055505b600b60008154811061285157612850615810565b5b90600052602060002001600081548092919061286c906156dc565b919050555061291b565b7fa2455ec11f160d321516c021994881e7678c0b5870cd7aae50107098770e2c2883600b6001856128a791906155e0565b815481106128b8576128b7615810565b5b9060005260206000200154600d60008773ffffffffffffffffffffffffffffffffffffffff1673ffffffffffffffffffffffffffffffffffffffff16815260200190815260200160002054604051612912939291906152ac565b60405180910390a15b505050565b600073ffffffffffffffffffffffffffffffffffffffff168373ffffffffffffffffffffffffffffffffffffffff161415612990576040517f08c379a00000000000000000000000000000000000000000000000000000000081526004016129879061526c565b60405180910390fd5b80518251146129d4576040517f08c379a00000000000000000000000000000000000000000000000000000000081526004016129cb90615396565b60405180910390fd5b60006129de612212565b90506129fe81856000868660405180602001604052806000815250613803565b60005b8351811015612b4b576000848281518110612a1f57612a1e615810565b5b602002602001015190506000848381518110612a3e57612a3d615810565b5b60200260200101519050600080600084815260200190815260200160002060008973ffffffffffffffffffffffffffffffffffffffff1673ffffffffffffffffffffffffffffffffffffffff16815260200190815260200160002054905081811015612adf576040517f08c379a0000000000000000000000000000000000000000000000000000000008152600401612ad690615162565b60405180910390fd5b81810360008085815260200190815260200160002060008a73ffffffffffffffffffffffffffffffffffffffff1673ffffffffffffffffffffffffffffffffffffffff168152602001908152602001600020819055505050508080612b4390615769565b915050612a01565b50600073ffffffffffffffffffffffffffffffffffffffff168473ffffffffffffffffffffffffffffffffffffffff168273ffffffffffffffffffffffffffffffffffffffff167f4a39dc06d4c0dbc64b70af90fd698a233a518aa5d07e595d983b8c0526c8f7fb8686604051612bc3929190614f7a565b60405180910390a450505050565b600073ffffffffffffffffffffffffffffffffffffffff168473ffffffffffffffffffffffffffffffffffffffff161415612c41576040517f08c379a0000000000000000000000000000000000000000000000000000000008152600401612c38906153b6565b60405180910390fd5b8151835114612c85576040517f08c379a0000000000000000000000000000000000000000000000000000000008152600401612c7c90615396565b60405180910390fd5b6000612c8f612212565b9050612ca081600087878787613803565b60005b8451811015612d5957838181518110612cbf57612cbe615810565b5b6020026020010151600080878481518110612cdd57612cdc615810565b5b6020026020010151815260200190815260200160002060008873ffffffffffffffffffffffffffffffffffffffff1673ffffffffffffffffffffffffffffffffffffffff1681526020019081526020016000206000828254612d3f919061558a565b925050819055508080612d5190615769565b915050612ca3565b508473ffffffffffffffffffffffffffffffffffffffff16600073ffffffffffffffffffffffffffffffffffffffff168273ffffffffffffffffffffffffffffffffffffffff167f4a39dc06d4c0dbc64b70af90fd698a233a518aa5d07e595d983b8c0526c8f7fb8787604051612dd1929190614f7a565b60405180910390a4612de881600087878787613861565b5050505050565b612df76116fa565b15612e37576040517f08c379a0000000000000000000000000000000000000000000000000000000008152600401612e2e9061520c565b60405180910390fd5b817fa2455ec11f160d321516c021994881e7678c0b5870cd7aae50107098770e2c28336000600d60003373ffffffffffffffffffffffffffffffffffffffff1673ffffffffffffffffffffffffffffffffffffffff16815260200190815260200160002054604051612eab93929190615118565b60405180910390a16000600d60008373ffffffffffffffffffffffffffffffffffffffff1673ffffffffffffffffffffffffffffffffffffffff168152602001908152602001600020541415612f36576040517f08c379a0000000000000000000000000000000000000000000000000000000008152600401612f2d90615316565b60405180910390fd5b6008805490508211158015612f4b5750600082115b612f8a576040517f08c379a0000000000000000000000000000000000000000000000000000000008152600401612f819061500e565b60405180910390fd5b6008600183612f9991906155e0565b81548110612faa57612fa9615810565b5b906000526020600020015460016009600185612fc691906155e0565b81548110612fd757612fd6615810565b5b9060005260206000200154612fec919061558a565b111561302d576040517f08c379a0000000000000000000000000000000000000000000000000000000008152600401613024906150b8565b60405180910390fd5b6130498383600160405180602001604052806000815250613a48565b600960018361305891906155e0565b8154811061306957613068615810565b5b90600052602060002001600081548092919061308490615769565b9190505550505050565b6000600360009054906101000a900473ffffffffffffffffffffffffffffffffffffffff16905081600360006101000a81548173ffffffffffffffffffffffffffffffffffffffff021916908373ffffffffffffffffffffffffffffffffffffffff1602179055508173ffffffffffffffffffffffffffffffffffffffff168173ffffffffffffffffffffffffffffffffffffffff167f8be0079c531659141344cd1fd0a4f28419497f9722a3daafe3b4186f6b6457e060405160405180910390a35050565b61315c6116fa565b1561319c576040517f08c379a00000000000000000000000000000000000000000000000000000000081526004016131939061520c565b60405180910390fd5b6001600360146101000a81548160ff0219169083151502179055507f62e78cea01bee320cd4e420270b5ea74000d11b0c9f74754ebdbfc544b05a2586131e0612212565b6040516131ed9190614e7b565b60405180910390a1565b8173ffffffffffffffffffffffffffffffffffffffff168373ffffffffffffffffffffffffffffffffffffffff161415613266576040517f08c379a000000000000000000000000000000000000000000000000000000000815260040161325d90615356565b60405180910390fd5b80600160008573ffffffffffffffffffffffffffffffffffffffff1673ffffffffffffffffffffffffffffffffffffffff16815260200190815260200160002060008473ffffffffffffffffffffffffffffffffffffffff1673ffffffffffffffffffffffffffffffffffffffff16815260200190815260200160002060006101000a81548160ff0219169083151502179055508173ffffffffffffffffffffffffffffffffffffffff168373ffffffffffffffffffffffffffffffffffffffff167f17307eab39ab6107e8899845ad3d59bd9653f200f220920489ca2b5937696c31836040516133579190614fb1565b60405180910390a3505050565b600073ffffffffffffffffffffffffffffffffffffffff168373ffffffffffffffffffffffffffffffffffffffff1614156133d4576040517f08c379a00000000000000000000000000000000000000000000000000000000081526004016133cb9061526c565b60405180910390fd5b60006133de612212565b905061340e818560006133f087613bde565b6133f987613bde565b60405180602001604052806000815250613803565b600080600085815260200190815260200160002060008673ffffffffffffffffffffffffffffffffffffffff1673ffffffffffffffffffffffffffffffffffffffff168152602001908152602001600020549050828110156134a5576040517f08c379a000000000000000000000000000000000000000000000000000000000815260040161349c90615162565b60405180910390fd5b82810360008086815260200190815260200160002060008773ffffffffffffffffffffffffffffffffffffffff1673ffffffffffffffffffffffffffffffffffffffff16815260200190815260200160002081905550600073ffffffffffffffffffffffffffffffffffffffff168573ffffffffffffffffffffffffffffffffffffffff168373ffffffffffffffffffffffffffffffffffffffff167fc3d58168c5ae7397731d063d5bbf3d657854427343f4c083240f7aacaa2d0f628787604051613572929190615411565b60405180910390a45050505050565b600073ffffffffffffffffffffffffffffffffffffffff168473ffffffffffffffffffffffffffffffffffffffff1614156135f1576040517f08c379a00000000000000000000000000000000000000000000000000000000081526004016135e89061522c565b60405180910390fd5b60006135fb612212565b905061361b81878761360c88613bde565b61361588613bde565b87613803565b600080600086815260200190815260200160002060008873ffffffffffffffffffffffffffffffffffffffff1673ffffffffffffffffffffffffffffffffffffffff168152602001908152602001600020549050838110156136b2576040517f08c379a00000000000000000000000000000000000000000000000000000000081526004016136a99061528c565b60405180910390fd5b83810360008087815260200190815260200160002060008973ffffffffffffffffffffffffffffffffffffffff1673ffffffffffffffffffffffffffffffffffffffff168152602001908152602001600020819055508360008087815260200190815260200160002060008873ffffffffffffffffffffffffffffffffffffffff1673ffffffffffffffffffffffffffffffffffffffff1681526020019081526020016000206000828254613767919061558a565b925050819055508573ffffffffffffffffffffffffffffffffffffffff168773ffffffffffffffffffffffffffffffffffffffff168373ffffffffffffffffffffffffffffffffffffffff167fc3d58168c5ae7397731d063d5bbf3d657854427343f4c083240f7aacaa2d0f6288886040516137e4929190615411565b60405180910390a46137fa828888888888613c58565b50505050505050565b61380b6116fa565b1561384b576040517f08c379a00000000000000000000000000000000000000000000000000000000081526004016138429061520c565b60405180910390fd5b613859868686868686613e3f565b505050505050565b6138808473ffffffffffffffffffffffffffffffffffffffff16613fb9565b15613a40578373ffffffffffffffffffffffffffffffffffffffff1663bc197c8187878686866040518663ffffffff1660e01b81526004016138c6959493929190614e96565b602060405180830381600087803b1580156138e057600080fd5b505af192505050801561391157506040513d601f19601f8201168201806040525081019061390e91906148a1565b60015b6139b75761391d61586e565b806308c379a0141561397a5750613932615fa0565b8061393d575061397c565b806040517f08c379a00000000000000000000000000000000000000000000000000000000081526004016139719190614fcc565b60405180910390fd5b505b6040517f08c379a00000000000000000000000000000000000000000000000000000000081526004016139ae90614fee565b60405180910390fd5b63bc197c8160e01b7bffffffffffffffffffffffffffffffffffffffffffffffffffffffff1916817bffffffffffffffffffffffffffffffffffffffffffffffffffffffff191614613a3e576040517f08c379a0000000000000000000000000000000000000000000000000000000008152600401613a359061502e565b60405180910390fd5b505b505050505050565b600073ffffffffffffffffffffffffffffffffffffffff168473ffffffffffffffffffffffffffffffffffffffff161415613ab8576040517f08c379a0000000000000000000000000000000000000000000000000000000008152600401613aaf906153b6565b60405180910390fd5b6000613ac2612212565b9050613ae381600087613ad488613bde565b613add88613bde565b87613803565b8260008086815260200190815260200160002060008773ffffffffffffffffffffffffffffffffffffffff1673ffffffffffffffffffffffffffffffffffffffff1681526020019081526020016000206000828254613b42919061558a565b925050819055508473ffffffffffffffffffffffffffffffffffffffff16600073ffffffffffffffffffffffffffffffffffffffff168273ffffffffffffffffffffffffffffffffffffffff167fc3d58168c5ae7397731d063d5bbf3d657854427343f4c083240f7aacaa2d0f628787604051613bc0929190615411565b60405180910390a4613bd781600087878787613c58565b5050505050565b60606000600167ffffffffffffffff811115613bfd57613bfc61583f565b5b604051908082528060200260200182016040528015613c2b5781602001602082028036833780820191505090505b5090508281600081518110613c4357613c42615810565b5b60200260200101818152505080915050919050565b613c778473ffffffffffffffffffffffffffffffffffffffff16613fb9565b15613e37578373ffffffffffffffffffffffffffffffffffffffff1663f23a6e6187878686866040518663ffffffff1660e01b8152600401613cbd959493929190614efe565b602060405180830381600087803b158015613cd757600080fd5b505af1925050508015613d0857506040513d601f19601f82011682018060405250810190613d0591906148a1565b60015b613dae57613d1461586e565b806308c379a01415613d715750613d29615fa0565b80613d345750613d73565b806040517f08c379a0000000000000000000000000000000000000000000000000000000008152600401613d689190614fcc565b60405180910390fd5b505b6040517f08c379a0000000000000000000000000000000000000000000000000000000008152600401613da590614fee565b60405180910390fd5b63f23a6e6160e01b7bffffffffffffffffffffffffffffffffffffffffffffffffffffffff1916817bffffffffffffffffffffffffffffffffffffffffffffffffffffffff191614613e35576040517f08c379a0000000000000000000000000000000000000000000000000000000008152600401613e2c9061502e565b60405180910390fd5b505b505050505050565b613e4d868686868686613fdc565b600073ffffffffffffffffffffffffffffffffffffffff168573ffffffffffffffffffffffffffffffffffffffff161415613eff5760005b8351811015613efd57828181518110613ea157613ea0615810565b5b602002602001015160046000868481518110613ec057613ebf615810565b5b602002602001015181526020019081526020016000206000828254613ee5919061558a565b9250508190555080613ef690615769565b9050613e85565b505b600073ffffffffffffffffffffffffffffffffffffffff168473ffffffffffffffffffffffffffffffffffffffff161415613fb15760005b8351811015613faf57828181518110613f5357613f52615810565b5b602002602001015160046000868481518110613f7257613f71615810565b5b602002602001015181526020019081526020016000206000828254613f9791906155e0565b9250508190555080613fa890615769565b9050613f37565b505b505050505050565b6000808273ffffffffffffffffffffffffffffffffffffffff163b119050919050565b505050505050565b828054613ff090615706565b90600052602060002090601f0160209004810192826140125760008555614059565b82601f1061402b57805160ff1916838001178555614059565b82800160010185558215614059579182015b8281111561405857825182559160200191906001019061403d565b5b509050614066919061406a565b5090565b5b8082111561408357600081600090555060010161406b565b5090565b600061409a6140958461545f565b61543a565b905080838252602082019050828560208602820111156140bd576140bc615895565b5b60005b858110156140ed57816140d388826141eb565b8452602084019350602083019250506001810190506140c0565b5050509392505050565b600061410a6141058461548b565b61543a565b9050808382526020820190508285602086028201111561412d5761412c615895565b5b60005b8581101561415d578161414388826142f7565b845260208401935060208301925050600181019050614130565b5050509392505050565b600061417a614175846154b7565b61543a565b9050828152602081018484840111156141965761419561589a565b5b6141a184828561569a565b509392505050565b60006141bc6141b7846154e8565b61543a565b9050828152602081018484840111156141d8576141d761589a565b5b6141e384828561569a565b509392505050565b6000813590506141fa81616036565b92915050565b600082601f83011261421557614214615890565b5b8135614225848260208601614087565b91505092915050565b600082601f83011261424357614242615890565b5b81356142538482602086016140f7565b91505092915050565b60008135905061426b8161604d565b92915050565b60008135905061428081616064565b92915050565b60008151905061429581616064565b92915050565b600082601f8301126142b0576142af615890565b5b81356142c0848260208601614167565b91505092915050565b600082601f8301126142de576142dd615890565b5b81356142ee8482602086016141a9565b91505092915050565b6000813590506143068161607b565b92915050565b600060208284031215614322576143216158a4565b5b6000614330848285016141eb565b91505092915050565b600080604083850312156143505761434f6158a4565b5b600061435e858286016141eb565b925050602061436f858286016141eb565b9150509250929050565b600080600080600060a08688031215614395576143946158a4565b5b60006143a3888289016141eb565b95505060206143b4888289016141eb565b945050604086013567ffffffffffffffff8111156143d5576143d461589f565b5b6143e18882890161422e565b935050606086013567ffffffffffffffff8111156144025761440161589f565b5b61440e8882890161422e565b925050608086013567ffffffffffffffff81111561442f5761442e61589f565b5b61443b8882890161429b565b9150509295509295909350565b600080600080600060a08688031215614464576144636158a4565b5b6000614472888289016141eb565b9550506020614483888289016141eb565b9450506040614494888289016142f7565b93505060606144a5888289016142f7565b925050608086013567ffffffffffffffff8111156144c6576144c561589f565b5b6144d28882890161429b565b9150509295509295909350565b6000806000606084860312156144f8576144f76158a4565b5b6000614506868287016141eb565b935050602084013567ffffffffffffffff8111156145275761452661589f565b5b6145338682870161422e565b925050604084013567ffffffffffffffff8111156145545761455361589f565b5b6145608682870161422e565b9150509250925092565b600080600080600060a08688031215614586576145856158a4565b5b6000614594888289016141eb565b955050602086013567ffffffffffffffff8111156145b5576145b461589f565b5b6145c18882890161422e565b945050604086013567ffffffffffffffff8111156145e2576145e161589f565b5b6145ee8882890161422e565b935050606086013567ffffffffffffffff81111561460f5761460e61589f565b5b61461b8882890161422e565b925050608086013567ffffffffffffffff81111561463c5761463b61589f565b5b6146488882890161422e565b9150509295509295909350565b6000806040838503121561466c5761466b6158a4565b5b600061467a858286016141eb565b925050602061468b8582860161425c565b9150509250929050565b600080604083850312156146ac576146ab6158a4565b5b60006146ba858286016141eb565b92505060206146cb858286016142f7565b9150509250929050565b6000806000606084860312156146ee576146ed6158a4565b5b60006146fc868287016141eb565b935050602061470d868287016142f7565b925050604061471e868287016142f7565b9150509250925092565b6000806040838503121561473f5761473e6158a4565b5b600083013567ffffffffffffffff81111561475d5761475c61589f565b5b61476985828601614200565b925050602083013567ffffffffffffffff81111561478a5761478961589f565b5b6147968582860161422e565b9150509250929050565b600080604083850312156147b7576147b66158a4565b5b600083013567ffffffffffffffff8111156147d5576147d461589f565b5b6147e185828601614200565b92505060206147f2858286016142f7565b9150509250929050565b60008060408385031215614813576148126158a4565b5b600083013567ffffffffffffffff8111156148315761483061589f565b5b61483d8582860161422e565b925050602083013567ffffffffffffffff81111561485e5761485d61589f565b5b61486a8582860161422e565b9150509250929050565b60006020828403121561488a576148896158a4565b5b600061489884828501614271565b91505092915050565b6000602082840312156148b7576148b66158a4565b5b60006148c584828501614286565b91505092915050565b6000602082840312156148e4576148e36158a4565b5b60006148f2848285016142f7565b91505092915050565b60008060408385031215614912576149116158a4565b5b6000614920858286016142f7565b925050602083013567ffffffffffffffff8111156149415761494061589f565b5b61494d858286016142c9565b9150509250929050565b6000806040838503121561496e5761496d6158a4565b5b600061497c858286016142f7565b925050602061498d858286016142f7565b9150509250929050565b60006149a38383614e5d565b60208301905092915050565b6149b881615614565b82525050565b60006149c982615529565b6149d38185615557565b93506149de83615519565b8060005b83811015614a0f5781516149f68882614997565b9750614a018361554a565b9250506001810190506149e2565b5085935050505092915050565b614a2581615626565b82525050565b6000614a3682615534565b614a408185615568565b9350614a508185602086016156a9565b614a59816158a9565b840191505092915050565b614a6d81615688565b82525050565b6000614a7e8261553f565b614a888185615579565b9350614a988185602086016156a9565b614aa1816158a9565b840191505092915050565b6000614ab9603483615579565b9150614ac4826158c7565b604082019050919050565b6000614adc601383615579565b9150614ae782615916565b602082019050919050565b6000614aff602883615579565b9150614b0a8261593f565b604082019050919050565b6000614b22601483615579565b9150614b2d8261598e565b602082019050919050565b6000614b45601483615579565b9150614b50826159b7565b602082019050919050565b6000614b68601183615579565b9150614b73826159e0565b602082019050919050565b6000614b8b602b83615579565b9150614b9682615a09565b604082019050919050565b6000614bae602683615579565b9150614bb982615a58565b604082019050919050565b6000614bd1601c83615579565b9150614bdc82615aa7565b602082019050919050565b6000614bf4602483615579565b9150614bff82615ad0565b604082019050919050565b6000614c17601e83615579565b9150614c2282615b1f565b602082019050919050565b6000614c3a602983615579565b9150614c4582615b48565b604082019050919050565b6000614c5d601083615579565b9150614c6882615b97565b602082019050919050565b6000614c80601083615579565b9150614c8b82615bc0565b602082019050919050565b6000614ca3602583615579565b9150614cae82615be9565b604082019050919050565b6000614cc6603283615579565b9150614cd182615c38565b604082019050919050565b6000614ce9602383615579565b9150614cf482615c87565b604082019050919050565b6000614d0c602a83615579565b9150614d1782615cd6565b604082019050919050565b6000614d2f602183615579565b9150614d3a82615d25565b604082019050919050565b6000614d52602083615579565b9150614d5d82615d74565b602082019050919050565b6000614d75602383615579565b9150614d8082615d9d565b604082019050919050565b6000614d98601583615579565b9150614da382615dec565b602082019050919050565b6000614dbb602983615579565b9150614dc682615e15565b604082019050919050565b6000614dde602983615579565b9150614de982615e64565b604082019050919050565b6000614e01602883615579565b9150614e0c82615eb3565b604082019050919050565b6000614e24602183615579565b9150614e2f82615f02565b604082019050919050565b6000614e47603183615579565b9150614e5282615f51565b604082019050919050565b614e668161567e565b82525050565b614e758161567e565b82525050565b6000602082019050614e9060008301846149af565b92915050565b600060a082019050614eab60008301886149af565b614eb860208301876149af565b8181036040830152614eca81866149be565b90508181036060830152614ede81856149be565b90508181036080830152614ef28184614a2b565b90509695505050505050565b600060a082019050614f1360008301886149af565b614f2060208301876149af565b614f2d6040830186614e6c565b614f3a6060830185614e6c565b8181036080830152614f4c8184614a2b565b90509695505050505050565b60006020820190508181036000830152614f7281846149be565b905092915050565b60006040820190508181036000830152614f9481856149be565b90508181036020830152614fa881846149be565b90509392505050565b6000602082019050614fc66000830184614a1c565b92915050565b60006020820190508181036000830152614fe68184614a73565b905092915050565b6000602082019050818103600083015261500781614aac565b9050919050565b6000602082019050818103600083015261502781614acf565b9050919050565b6000602082019050818103600083015261504781614af2565b9050919050565b6000602082019050818103600083015261506781614b15565b9050919050565b6000608082019050818103600083015261508781614b38565b905061509660208301866149af565b6150a36040830185614a64565b6150b06060830184614e6c565b949350505050565b600060208201905081810360008301526150d181614b5b565b9050919050565b600060208201905081810360008301526150f181614b7e565b9050919050565b6000602082019050818103600083015261511181614ba1565b9050919050565b6000608082019050818103600083015261513181614bc4565b905061514060208301866149af565b61514d6040830185614a64565b61515a6060830184614e6c565b949350505050565b6000602082019050818103600083015261517b81614be7565b9050919050565b6000608082019050818103600083015261519b81614c0a565b90506151aa60208301866149af565b6151b76040830185614e6c565b6151c46060830184614e6c565b949350505050565b600060208201905081810360008301526151e581614c2d565b9050919050565b6000602082019050818103600083015261520581614c50565b9050919050565b6000602082019050818103600083015261522581614c73565b9050919050565b6000602082019050818103600083015261524581614c96565b9050919050565b6000602082019050818103600083015261526581614cb9565b9050919050565b6000602082019050818103600083015261528581614cdc565b9050919050565b600060208201905081810360008301526152a581614cff565b9050919050565b600060808201905081810360008301526152c581614d22565b90506152d460208301866149af565b6152e16040830185614e6c565b6152ee6060830184614e6c565b949350505050565b6000602082019050818103600083015261530f81614d45565b9050919050565b6000602082019050818103600083015261532f81614d68565b9050919050565b6000602082019050818103600083015261534f81614d8b565b9050919050565b6000602082019050818103600083015261536f81614dae565b9050919050565b6000602082019050818103600083015261538f81614dd1565b9050919050565b600060208201905081810360008301526153af81614df4565b9050919050565b600060208201905081810360008301526153cf81614e17565b9050919050565b600060208201905081810360008301526153ef81614e3a565b9050919050565b600060208201905061540b6000830184614e6c565b92915050565b60006040820190506154266000830185614e6c565b6154336020830184614e6c565b9392505050565b6000615444615455565b90506154508282615738565b919050565b6000604051905090565b600067ffffffffffffffff82111561547a5761547961583f565b5b602082029050602081019050919050565b600067ffffffffffffffff8211156154a6576154a561583f565b5b602082029050602081019050919050565b600067ffffffffffffffff8211156154d2576154d161583f565b5b6154db826158a9565b9050602081019050919050565b600067ffffffffffffffff8211156155035761550261583f565b5b61550c826158a9565b9050602081019050919050565b6000819050602082019050919050565b600081519050919050565b600081519050919050565b600081519050919050565b6000602082019050919050565b600082825260208201905092915050565b600082825260208201905092915050565b600082825260208201905092915050565b60006155958261567e565b91506155a08361567e565b9250827fffffffffffffffffffffffffffffffffffffffffffffffffffffffffffffffff038211156155d5576155d46157b2565b5b828201905092915050565b60006155eb8261567e565b91506155f68361567e565b925082821015615609576156086157b2565b5b828203905092915050565b600061561f8261565e565b9050919050565b60008115159050919050565b60007fffffffff0000000000000000000000000000000000000000000000000000000082169050919050565b600073ffffffffffffffffffffffffffffffffffffffff82169050919050565b6000819050919050565b60006156938261567e565b9050919050565b82818337600083830152505050565b60005b838110156156c75780820151818401526020810190506156ac565b838111156156d6576000848401525b50505050565b60006156e78261567e565b915060008214156156fb576156fa6157b2565b5b600182039050919050565b6000600282049050600182168061571e57607f821691505b60208210811415615732576157316157e1565b5b50919050565b615741826158a9565b810181811067ffffffffffffffff821117156157605761575f61583f565b5b80604052505050565b60006157748261567e565b91507fffffffffffffffffffffffffffffffffffffffffffffffffffffffffffffffff8214156157a7576157a66157b2565b5b600182019050919050565b7f4e487b7100000000000000000000000000000000000000000000000000000000600052601160045260246000fd5b7f4e487b7100000000000000000000000000000000000000000000000000000000600052602260045260246000fd5b7f4e487b7100000000000000000000000000000000000000000000000000000000600052603260045260246000fd5b7f4e487b7100000000000000000000000000000000000000000000000000000000600052604160045260246000fd5b600060033d111561588d5760046000803e61588a6000516158ba565b90505b90565b600080fd5b600080fd5b600080fd5b600080fd5b600080fd5b6000601f19601f8301169050919050565b60008160e01c9050919050565b7f455243313135353a207472616e7366657220746f206e6f6e204552433131353560008201527f526563656976657220696d706c656d656e746572000000000000000000000000602082015250565b7f546f6b656e20646f65736e277420657869737400000000000000000000000000600082015250565b7f455243313135353a204552433131353552656365697665722072656a6563746560008201527f6420746f6b656e73000000000000000000000000000000000000000000000000602082015250565b7f5061757361626c653a206e6f7420706175736564000000000000000000000000600082015250565b7f4d6f64696665722076616c6964546f6b656e4964000000000000000000000000600082015250565b7f4e6f7420656e6f75676820737570706c79000000000000000000000000000000600082015250565b7f455243313135353a2062616c616e636520717565727920666f7220746865207a60008201527f65726f2061646472657373000000000000000000000000000000000000000000602082015250565b7f4f776e61626c653a206e6577206f776e657220697320746865207a65726f206160008201527f6464726573730000000000000000000000000000000000000000000000000000602082015250565b7f4d6f6469666572206f6e6c7957686974656c6973744164647265737300000000600082015250565b7f455243313135353a206275726e20616d6f756e7420657863656564732062616c60008201527f616e636500000000000000000000000000000000000000000000000000000000602082015250565b7f6164647265737320697320616c72656164792077686974656c69737465640000600082015250565b7f455243313135353a2063616c6c6572206973206e6f74206f776e6572206e6f7260008201527f20617070726f7665640000000000000000000000000000000000000000000000602082015250565b7f457863656564206d6178537570706c7900000000000000000000000000000000600082015250565b7f5061757361626c653a2070617573656400000000000000000000000000000000600082015250565b7f455243313135353a207472616e7366657220746f20746865207a65726f20616460008201527f6472657373000000000000000000000000000000000000000000000000000000602082015250565b7f455243313135353a207472616e736665722063616c6c6572206973206e6f742060008201527f6f776e6572206e6f7220617070726f7665640000000000000000000000000000602082015250565b7f455243313135353a206275726e2066726f6d20746865207a65726f206164647260008201527f6573730000000000000000000000000000000000000000000000000000000000602082015250565b7f455243313135353a20696e73756666696369656e742062616c616e636520666f60008201527f72207472616e7366657200000000000000000000000000000000000000000000602082015250565b7f416472657373206973206e6f7420616c72656164792077686974656c6973746560008201527f6400000000000000000000000000000000000000000000000000000000000000602082015250565b7f4f776e61626c653a2063616c6c6572206973206e6f7420746865206f776e6572600082015250565b7f41646472657373206e6f742077686974656c69737465642e2043616e74206d6960008201527f6e742e0000000000000000000000000000000000000000000000000000000000602082015250565b7f4e6f7420656e6f7567682065746865722073656e740000000000000000000000600082015250565b7f455243313135353a2073657474696e6720617070726f76616c2073746174757360008201527f20666f722073656c660000000000000000000000000000000000000000000000602082015250565b7f455243313135353a206163636f756e747320616e6420696473206c656e67746860008201527f206d69736d617463680000000000000000000000000000000000000000000000602082015250565b7f455243313135353a2069647320616e6420616d6f756e7473206c656e6774682060008201527f6d69736d61746368000000000000000000000000000000000000000000000000602082015250565b7f455243313135353a206d696e7420746f20746865207a65726f2061646472657360008201527f7300000000000000000000000000000000000000000000000000000000000000602082015250565b7f4f6e6c79207468652063757272656e74207472656173757265722063616e206360008201527f616c6c20746869732066756e6374696f6e000000000000000000000000000000602082015250565b600060443d1015615fb057616033565b615fb8615455565b60043d036004823e80513d602482011167ffffffffffffffff82111715615fe0575050616033565b808201805167ffffffffffffffff811115615ffe5750505050616033565b80602083010160043d03850181111561601b575050505050616033565b61602a82602001850186615738565b82955050505050505b90565b61603f81615614565b811461604a57600080fd5b50565b61605681615626565b811461606157600080fd5b50565b61606d81615632565b811461607857600080fd5b50565b6160848161567e565b811461608f57600080fd5b5056fea26469706673582212208b51b9db06f8bea2e7ca3791866046f8102b2636ead8d836f1f5743eb9044cfc64736f6c63430008070033",
			"opcodes": "PUSH1 0x80 PUSH1 0x40 MSTORE PUSH1 0x40 MLOAD DUP1 PUSH1 0x40 ADD PUSH1 0x40 MSTORE DUP1 PUSH1 0x18 DUP2 MSTORE PUSH1 0x20 ADD PUSH32 0x466F7274756E652054726561737572652048756E74696E670000000000000000 DUP2 MSTORE POP PUSH1 0x5 SWAP1 DUP1 MLOAD SWAP1 PUSH1 0x20 ADD SWAP1 PUSH3 0x51 SWAP3 SWAP2 SWAP1 PUSH3 0x34D JUMP JUMPDEST POP PUSH1 0x40 MLOAD DUP1 PUSH1 0x40 ADD PUSH1 0x40 MSTORE DUP1 PUSH1 0x4 DUP2 MSTORE PUSH1 0x20 ADD PUSH32 0x464F525400000000000000000000000000000000000000000000000000000000 DUP2 MSTORE POP PUSH1 0x6 SWAP1 DUP1 MLOAD SWAP1 PUSH1 0x20 ADD SWAP1 PUSH3 0x9F SWAP3 SWAP2 SWAP1 PUSH3 0x34D JUMP JUMPDEST POP PUSH1 0x40 MLOAD DUP1 PUSH1 0x40 ADD PUSH1 0x40 MSTORE DUP1 PUSH2 0xFA0 PUSH2 0xFFFF AND DUP2 MSTORE PUSH1 0x20 ADD PUSH1 0xFA PUSH2 0xFFFF AND DUP2 MSTORE POP PUSH1 0x8 SWAP1 PUSH1 0x2 PUSH3 0xD2 SWAP3 SWAP2 SWAP1 PUSH3 0x3DE JUMP JUMPDEST POP PUSH1 0x40 MLOAD DUP1 PUSH1 0x40 ADD PUSH1 0x40 MSTORE DUP1 PUSH1 0x0 PUSH1 0xFF AND DUP2 MSTORE PUSH1 0x20 ADD PUSH1 0x0 PUSH1 0xFF AND DUP2 MSTORE POP PUSH1 0x9 SWAP1 PUSH1 0x2 PUSH3 0x102 SWAP3 SWAP2 SWAP1 PUSH3 0x436 JUMP JUMPDEST POP PUSH1 0x40 MLOAD DUP1 PUSH1 0x40 ADD PUSH1 0x40 MSTORE DUP1 PUSH7 0x38D7EA4C68000 PUSH7 0xFFFFFFFFFFFFFF AND DUP2 MSTORE PUSH1 0x20 ADD PUSH1 0x0 PUSH7 0xFFFFFFFFFFFFFF AND DUP2 MSTORE POP PUSH1 0xA SWAP1 PUSH1 0x2 PUSH3 0x144 SWAP3 SWAP2 SWAP1 PUSH3 0x48D JUMP JUMPDEST POP PUSH1 0x40 MLOAD DUP1 PUSH1 0x40 ADD PUSH1 0x40 MSTORE DUP1 PUSH1 0x0 PUSH1 0xFF AND DUP2 MSTORE PUSH1 0x20 ADD PUSH1 0x0 PUSH1 0xFF AND DUP2 MSTORE POP PUSH1 0xB SWAP1 PUSH1 0x2 PUSH3 0x174 SWAP3 SWAP2 SWAP1 PUSH3 0x436 JUMP JUMPDEST POP CALLVALUE DUP1 ISZERO PUSH3 0x182 JUMPI PUSH1 0x0 DUP1 REVERT JUMPDEST POP PUSH1 0x40 MLOAD DUP1 PUSH1 0x20 ADD PUSH1 0x40 MSTORE DUP1 PUSH1 0x0 DUP2 MSTORE POP PUSH3 0x1A4 DUP2 PUSH3 0x263 PUSH1 0x20 SHL PUSH1 0x20 SHR JUMP JUMPDEST POP PUSH3 0x1C5 PUSH3 0x1B9 PUSH3 0x27F PUSH1 0x20 SHL PUSH1 0x20 SHR JUMP JUMPDEST PUSH3 0x287 PUSH1 0x20 SHL PUSH1 0x20 SHR JUMP JUMPDEST PUSH1 0x0 PUSH1 0x3 PUSH1 0x14 PUSH2 0x100 EXP DUP2 SLOAD DUP2 PUSH1 0xFF MUL NOT AND SWAP1 DUP4 ISZERO ISZERO MUL OR SWAP1 SSTORE POP PUSH1 0x5 DUP1 DUP1 SLOAD PUSH3 0x1F0 SWAP1 PUSH3 0x5A1 JUMP JUMPDEST PUSH3 0x1FD SWAP3 SWAP2 SWAP1 PUSH3 0x4EA JUMP JUMPDEST POP PUSH1 0x6 DUP1 DUP1 SLOAD PUSH3 0x20E SWAP1 PUSH3 0x5A1 JUMP JUMPDEST PUSH3 0x21B SWAP3 SWAP2 SWAP1 PUSH3 0x4EA JUMP JUMPDEST POP CALLER PUSH1 0x7 PUSH1 0x0 PUSH2 0x100 EXP DUP2 SLOAD DUP2 PUSH20 0xFFFFFFFFFFFFFFFFFFFFFFFFFFFFFFFFFFFFFFFF MUL NOT AND SWAP1 DUP4 PUSH20 0xFFFFFFFFFFFFFFFFFFFFFFFFFFFFFFFFFFFFFFFF AND MUL OR SWAP1 SSTORE POP PUSH3 0x606 JUMP JUMPDEST DUP1 PUSH1 0x2 SWAP1 DUP1 MLOAD SWAP1 PUSH1 0x20 ADD SWAP1 PUSH3 0x27B SWAP3 SWAP2 SWAP1 PUSH3 0x34D JUMP JUMPDEST POP POP JUMP JUMPDEST PUSH1 0x0 CALLER SWAP1 POP SWAP1 JUMP JUMPDEST PUSH1 0x0 PUSH1 0x3 PUSH1 0x0 SWAP1 SLOAD SWAP1 PUSH2 0x100 EXP SWAP1 DIV PUSH20 0xFFFFFFFFFFFFFFFFFFFFFFFFFFFFFFFFFFFFFFFF AND SWAP1 POP DUP2 PUSH1 0x3 PUSH1 0x0 PUSH2 0x100 EXP DUP2 SLOAD DUP2 PUSH20 0xFFFFFFFFFFFFFFFFFFFFFFFFFFFFFFFFFFFFFFFF MUL NOT AND SWAP1 DUP4 PUSH20 0xFFFFFFFFFFFFFFFFFFFFFFFFFFFFFFFFFFFFFFFF AND MUL OR SWAP1 SSTORE POP DUP2 PUSH20 0xFFFFFFFFFFFFFFFFFFFFFFFFFFFFFFFFFFFFFFFF AND DUP2 PUSH20 0xFFFFFFFFFFFFFFFFFFFFFFFFFFFFFFFFFFFFFFFF AND PUSH32 0x8BE0079C531659141344CD1FD0A4F28419497F9722A3DAAFE3B4186F6B6457E0 PUSH1 0x40 MLOAD PUSH1 0x40 MLOAD DUP1 SWAP2 SUB SWAP1 LOG3 POP POP JUMP JUMPDEST DUP3 DUP1 SLOAD PUSH3 0x35B SWAP1 PUSH3 0x5A1 JUMP JUMPDEST SWAP1 PUSH1 0x0 MSTORE PUSH1 0x20 PUSH1 0x0 KECCAK256 SWAP1 PUSH1 0x1F ADD PUSH1 0x20 SWAP1 DIV DUP2 ADD SWAP3 DUP3 PUSH3 0x37F JUMPI PUSH1 0x0 DUP6 SSTORE PUSH3 0x3CB JUMP JUMPDEST DUP3 PUSH1 0x1F LT PUSH3 0x39A JUMPI DUP1 MLOAD PUSH1 0xFF NOT AND DUP4 DUP1 ADD OR DUP6 SSTORE PUSH3 0x3CB JUMP JUMPDEST DUP3 DUP1 ADD PUSH1 0x1 ADD DUP6 SSTORE DUP3 ISZERO PUSH3 0x3CB JUMPI SWAP2 DUP3 ADD JUMPDEST DUP3 DUP2 GT ISZERO PUSH3 0x3CA JUMPI DUP3 MLOAD DUP3 SSTORE SWAP2 PUSH1 0x20 ADD SWAP2 SWAP1 PUSH1 0x1 ADD SWAP1 PUSH3 0x3AD JUMP JUMPDEST JUMPDEST POP SWAP1 POP PUSH3 0x3DA SWAP2 SWAP1 PUSH3 0x582 JUMP JUMPDEST POP SWAP1 JUMP JUMPDEST DUP3 DUP1 SLOAD DUP3 DUP3 SSTORE SWAP1 PUSH1 0x0 MSTORE PUSH1 0x20 PUSH1 0x0 KECCAK256 SWAP1 DUP2 ADD SWAP3 DUP3 ISZERO PUSH3 0x423 JUMPI SWAP2 PUSH1 0x20 MUL DUP3 ADD JUMPDEST DUP3 DUP2 GT ISZERO PUSH3 0x422 JUMPI DUP3 MLOAD DUP3 SWAP1 PUSH2 0xFFFF AND SWAP1 SSTORE SWAP2 PUSH1 0x20 ADD SWAP2 SWAP1 PUSH1 0x1 ADD SWAP1 PUSH3 0x3FF JUMP JUMPDEST JUMPDEST POP SWAP1 POP PUSH3 0x432 SWAP2 SWAP1 PUSH3 0x582 JUMP JUMPDEST POP SWAP1 JUMP JUMPDEST DUP3 DUP1 SLOAD DUP3 DUP3 SSTORE SWAP1 PUSH1 0x0 MSTORE PUSH1 0x20 PUSH1 0x0 KECCAK256 SWAP1 DUP2 ADD SWAP3 DUP3 ISZERO PUSH3 0x47A JUMPI SWAP2 PUSH1 0x20 MUL DUP3 ADD JUMPDEST DUP3 DUP2 GT ISZERO PUSH3 0x479 JUMPI DUP3 MLOAD DUP3 SWAP1 PUSH1 0xFF AND SWAP1 SSTORE SWAP2 PUSH1 0x20 ADD SWAP2 SWAP1 PUSH1 0x1 ADD SWAP1 PUSH3 0x457 JUMP JUMPDEST JUMPDEST POP SWAP1 POP PUSH3 0x489 SWAP2 SWAP1 PUSH3 0x582 JUMP JUMPDEST POP SWAP1 JUMP JUMPDEST DUP3 DUP1 SLOAD DUP3 DUP3 SSTORE SWAP1 PUSH1 0x0 MSTORE PUSH1 0x20 PUSH1 0x0 KECCAK256 SWAP1 DUP2 ADD SWAP3 DUP3 ISZERO PUSH3 0x4D7 JUMPI SWAP2 PUSH1 0x20 MUL DUP3 ADD JUMPDEST DUP3 DUP2 GT ISZERO PUSH3 0x4D6 JUMPI DUP3 MLOAD DUP3 SWAP1 PUSH7 0xFFFFFFFFFFFFFF AND SWAP1 SSTORE SWAP2 PUSH1 0x20 ADD SWAP2 SWAP1 PUSH1 0x1 ADD SWAP1 PUSH3 0x4AE JUMP JUMPDEST JUMPDEST POP SWAP1 POP PUSH3 0x4E6 SWAP2 SWAP1 PUSH3 0x582 JUMP JUMPDEST POP SWAP1 JUMP JUMPDEST DUP3 DUP1 SLOAD PUSH3 0x4F8 SWAP1 PUSH3 0x5A1 JUMP JUMPDEST SWAP1 PUSH1 0x0 MSTORE PUSH1 0x20 PUSH1 0x0 KECCAK256 SWAP1 PUSH1 0x1F ADD PUSH1 0x20 SWAP1 DIV DUP2 ADD SWAP3 DUP3 PUSH3 0x51C JUMPI PUSH1 0x0 DUP6 SSTORE PUSH3 0x56F JUMP JUMPDEST DUP3 PUSH1 0x1F LT PUSH3 0x52F JUMPI DUP1 SLOAD DUP6 SSTORE PUSH3 0x56F JUMP JUMPDEST DUP3 DUP1 ADD PUSH1 0x1 ADD DUP6 SSTORE DUP3 ISZERO PUSH3 0x56F JUMPI PUSH1 0x0 MSTORE PUSH1 0x20 PUSH1 0x0 KECCAK256 SWAP2 PUSH1 0x1F ADD PUSH1 0x20 SWAP1 DIV DUP3 ADD JUMPDEST DUP3 DUP2 GT ISZERO PUSH3 0x56E JUMPI DUP3 SLOAD DUP3 SSTORE SWAP2 PUSH1 0x1 ADD SWAP2 SWAP1 PUSH1 0x1 ADD SWAP1 PUSH3 0x551 JUMP JUMPDEST JUMPDEST POP SWAP1 POP PUSH3 0x57E SWAP2 SWAP1 PUSH3 0x582 JUMP JUMPDEST POP SWAP1 JUMP JUMPDEST JUMPDEST DUP1 DUP3 GT ISZERO PUSH3 0x59D JUMPI PUSH1 0x0 DUP2 PUSH1 0x0 SWAP1 SSTORE POP PUSH1 0x1 ADD PUSH3 0x583 JUMP JUMPDEST POP SWAP1 JUMP JUMPDEST PUSH1 0x0 PUSH1 0x2 DUP3 DIV SWAP1 POP PUSH1 0x1 DUP3 AND DUP1 PUSH3 0x5BA JUMPI PUSH1 0x7F DUP3 AND SWAP2 POP JUMPDEST PUSH1 0x20 DUP3 LT DUP2 EQ ISZERO PUSH3 0x5D1 JUMPI PUSH3 0x5D0 PUSH3 0x5D7 JUMP JUMPDEST JUMPDEST POP SWAP2 SWAP1 POP JUMP JUMPDEST PUSH32 0x4E487B7100000000000000000000000000000000000000000000000000000000 PUSH1 0x0 MSTORE PUSH1 0x22 PUSH1 0x4 MSTORE PUSH1 0x24 PUSH1 0x0 REVERT JUMPDEST PUSH2 0x60C8 DUP1 PUSH3 0x616 PUSH1 0x0 CODECOPY PUSH1 0x0 RETURN INVALID PUSH1 0x80 PUSH1 0x40 MSTORE PUSH1 0x4 CALLDATASIZE LT PUSH2 0x20E JUMPI PUSH1 0x0 CALLDATALOAD PUSH1 0xE0 SHR DUP1 PUSH4 0x8456CB59 GT PUSH2 0x118 JUMPI DUP1 PUSH4 0xB390C0AB GT PUSH2 0xA0 JUMPI DUP1 PUSH4 0xE985E9C5 GT PUSH2 0x6F JUMPI DUP1 PUSH4 0xE985E9C5 EQ PUSH2 0x76D JUMPI DUP1 PUSH4 0xF242432A EQ PUSH2 0x7AA JUMPI DUP1 PUSH4 0xF2FDE38B EQ PUSH2 0x7D3 JUMPI DUP1 PUSH4 0xF5298ACA EQ PUSH2 0x7FC JUMPI DUP1 PUSH4 0xFDA49EB4 EQ PUSH2 0x825 JUMPI PUSH2 0x20E JUMP JUMPDEST DUP1 PUSH4 0xB390C0AB EQ PUSH2 0x6A1 JUMPI DUP1 PUSH4 0xBD85B039 EQ PUSH2 0x6CA JUMPI DUP1 PUSH4 0xC87B56DD EQ PUSH2 0x707 JUMPI DUP1 PUSH4 0xCCA87BC8 EQ PUSH2 0x744 JUMPI PUSH2 0x20E JUMP JUMPDEST DUP1 PUSH4 0x8DA5CB5B GT PUSH2 0xE7 JUMPI DUP1 PUSH4 0x8DA5CB5B EQ PUSH2 0x5A8 JUMPI DUP1 PUSH4 0x95D89B41 EQ PUSH2 0x5D3 JUMPI DUP1 PUSH4 0x9B19251A EQ PUSH2 0x5FE JUMPI DUP1 PUSH4 0xA22CB465 EQ PUSH2 0x63B JUMPI DUP1 PUSH4 0xACB3180F EQ PUSH2 0x664 JUMPI PUSH2 0x20E JUMP JUMPDEST DUP1 PUSH4 0x8456CB59 EQ PUSH2 0x533 JUMPI DUP1 PUSH4 0x853828B6 EQ PUSH2 0x54A JUMPI DUP1 PUSH4 0x862440E2 EQ PUSH2 0x554 JUMPI DUP1 PUSH4 0x8B7AFE2E EQ PUSH2 0x57D JUMPI PUSH2 0x20E JUMP JUMPDEST DUP1 PUSH4 0x4F558E79 GT PUSH2 0x19B JUMPI DUP1 PUSH4 0x5C975ABB GT PUSH2 0x16A JUMPI DUP1 PUSH4 0x5C975ABB EQ PUSH2 0x483 JUMPI DUP1 PUSH4 0x6B20C454 EQ PUSH2 0x4AE JUMPI DUP1 PUSH4 0x715018A6 EQ PUSH2 0x4D7 JUMPI DUP1 PUSH4 0x7DAF06FD EQ PUSH2 0x4EE JUMPI DUP1 PUSH4 0x83CA4B6F EQ PUSH2 0x50A JUMPI PUSH2 0x20E JUMP JUMPDEST DUP1 PUSH4 0x4F558E79 EQ PUSH2 0x3D8 JUMPI DUP1 PUSH4 0x50F787DC EQ PUSH2 0x415 JUMPI DUP1 PUSH4 0x510F4104 EQ PUSH2 0x43E JUMPI DUP1 PUSH4 0x56C88F5F EQ PUSH2 0x467 JUMPI PUSH2 0x20E JUMP JUMPDEST DUP1 PUSH4 0x2AE5D2F9 GT PUSH2 0x1E2 JUMPI DUP1 PUSH4 0x2AE5D2F9 EQ PUSH2 0x2F5 JUMPI DUP1 PUSH4 0x2EB2C2D6 EQ PUSH2 0x332 JUMPI DUP1 PUSH4 0x36576424 EQ PUSH2 0x35B JUMPI DUP1 PUSH4 0x3F4BA83A EQ PUSH2 0x384 JUMPI DUP1 PUSH4 0x4E1273F4 EQ PUSH2 0x39B JUMPI PUSH2 0x20E JUMP JUMPDEST DUP1 PUSH3 0xFDD58E EQ PUSH2 0x213 JUMPI DUP1 PUSH4 0x1FFC9A7 EQ PUSH2 0x250 JUMPI DUP1 PUSH4 0x6FDDE03 EQ PUSH2 0x28D JUMPI DUP1 PUSH4 0xE89341C EQ PUSH2 0x2B8 JUMPI JUMPDEST PUSH1 0x0 DUP1 REVERT JUMPDEST CALLVALUE DUP1 ISZERO PUSH2 0x21F JUMPI PUSH1 0x0 DUP1 REVERT JUMPDEST POP PUSH2 0x23A PUSH1 0x4 DUP1 CALLDATASIZE SUB DUP2 ADD SWAP1 PUSH2 0x235 SWAP2 SWAP1 PUSH2 0x4695 JUMP JUMPDEST PUSH2 0x850 JUMP JUMPDEST PUSH1 0x40 MLOAD PUSH2 0x247 SWAP2 SWAP1 PUSH2 0x53F6 JUMP JUMPDEST PUSH1 0x40 MLOAD DUP1 SWAP2 SUB SWAP1 RETURN JUMPDEST CALLVALUE DUP1 ISZERO PUSH2 0x25C JUMPI PUSH1 0x0 DUP1 REVERT JUMPDEST POP PUSH2 0x277 PUSH1 0x4 DUP1 CALLDATASIZE SUB DUP2 ADD SWAP1 PUSH2 0x272 SWAP2 SWAP1 PUSH2 0x4874 JUMP JUMPDEST PUSH2 0x919 JUMP JUMPDEST PUSH1 0x40 MLOAD PUSH2 0x284 SWAP2 SWAP1 PUSH2 0x4FB1 JUMP JUMPDEST PUSH1 0x40 MLOAD DUP1 SWAP2 SUB SWAP1 RETURN JUMPDEST CALLVALUE DUP1 ISZERO PUSH2 0x299 JUMPI PUSH1 0x0 DUP1 REVERT JUMPDEST POP PUSH2 0x2A2 PUSH2 0x9FB JUMP JUMPDEST PUSH1 0x40 MLOAD PUSH2 0x2AF SWAP2 SWAP1 PUSH2 0x4FCC JUMP JUMPDEST PUSH1 0x40 MLOAD DUP1 SWAP2 SUB SWAP1 RETURN JUMPDEST CALLVALUE DUP1 ISZERO PUSH2 0x2C4 JUMPI PUSH1 0x0 DUP1 REVERT JUMPDEST POP PUSH2 0x2DF PUSH1 0x4 DUP1 CALLDATASIZE SUB DUP2 ADD SWAP1 PUSH2 0x2DA SWAP2 SWAP1 PUSH2 0x48CE JUMP JUMPDEST PUSH2 0xA89 JUMP JUMPDEST PUSH1 0x40 MLOAD PUSH2 0x2EC SWAP2 SWAP1 PUSH2 0x4FCC JUMP JUMPDEST PUSH1 0x40 MLOAD DUP1 SWAP2 SUB SWAP1 RETURN JUMPDEST CALLVALUE DUP1 ISZERO PUSH2 0x301 JUMPI PUSH1 0x0 DUP1 REVERT JUMPDEST POP PUSH2 0x31C PUSH1 0x4 DUP1 CALLDATASIZE SUB DUP2 ADD SWAP1 PUSH2 0x317 SWAP2 SWAP1 PUSH2 0x430C JUMP JUMPDEST PUSH2 0xB2E JUMP JUMPDEST PUSH1 0x40 MLOAD PUSH2 0x329 SWAP2 SWAP1 PUSH2 0x53F6 JUMP JUMPDEST PUSH1 0x40 MLOAD DUP1 SWAP2 SUB SWAP1 RETURN JUMPDEST CALLVALUE DUP1 ISZERO PUSH2 0x33E JUMPI PUSH1 0x0 DUP1 REVERT JUMPDEST POP PUSH2 0x359 PUSH1 0x4 DUP1 CALLDATASIZE SUB DUP2 ADD SWAP1 PUSH2 0x354 SWAP2 SWAP1 PUSH2 0x4379 JUMP JUMPDEST PUSH2 0xB77 JUMP JUMPDEST STOP JUMPDEST CALLVALUE DUP1 ISZERO PUSH2 0x367 JUMPI PUSH1 0x0 DUP1 REVERT JUMPDEST POP PUSH2 0x382 PUSH1 0x4 DUP1 CALLDATASIZE SUB DUP2 ADD SWAP1 PUSH2 0x37D SWAP2 SWAP1 PUSH2 0x47A0 JUMP JUMPDEST PUSH2 0xC18 JUMP JUMPDEST STOP JUMPDEST CALLVALUE DUP1 ISZERO PUSH2 0x390 JUMPI PUSH1 0x0 DUP1 REVERT JUMPDEST POP PUSH2 0x399 PUSH2 0x10D5 JUMP JUMPDEST STOP JUMPDEST CALLVALUE DUP1 ISZERO PUSH2 0x3A7 JUMPI PUSH1 0x0 DUP1 REVERT JUMPDEST POP PUSH2 0x3C2 PUSH1 0x4 DUP1 CALLDATASIZE SUB DUP2 ADD SWAP1 PUSH2 0x3BD SWAP2 SWAP1 PUSH2 0x4728 JUMP JUMPDEST PUSH2 0x115B JUMP JUMPDEST PUSH1 0x40 MLOAD PUSH2 0x3CF SWAP2 SWAP1 PUSH2 0x4F58 JUMP JUMPDEST PUSH1 0x40 MLOAD DUP1 SWAP2 SUB SWAP1 RETURN JUMPDEST CALLVALUE DUP1 ISZERO PUSH2 0x3E4 JUMPI PUSH1 0x0 DUP1 REVERT JUMPDEST POP PUSH2 0x3FF PUSH1 0x4 DUP1 CALLDATASIZE SUB DUP2 ADD SWAP1 PUSH2 0x3FA SWAP2 SWAP1 PUSH2 0x48CE JUMP JUMPDEST PUSH2 0x1274 JUMP JUMPDEST PUSH1 0x40 MLOAD PUSH2 0x40C SWAP2 SWAP1 PUSH2 0x4FB1 JUMP JUMPDEST PUSH1 0x40 MLOAD DUP1 SWAP2 SUB SWAP1 RETURN JUMPDEST CALLVALUE DUP1 ISZERO PUSH2 0x421 JUMPI PUSH1 0x0 DUP1 REVERT JUMPDEST POP PUSH2 0x43C PUSH1 0x4 DUP1 CALLDATASIZE SUB DUP2 ADD SWAP1 PUSH2 0x437 SWAP2 SWAP1 PUSH2 0x47A0 JUMP JUMPDEST PUSH2 0x1288 JUMP JUMPDEST STOP JUMPDEST CALLVALUE DUP1 ISZERO PUSH2 0x44A JUMPI PUSH1 0x0 DUP1 REVERT JUMPDEST POP PUSH2 0x465 PUSH1 0x4 DUP1 CALLDATASIZE SUB DUP2 ADD SWAP1 PUSH2 0x460 SWAP2 SWAP1 PUSH2 0x456A JUMP JUMPDEST PUSH2 0x146E JUMP JUMPDEST STOP JUMPDEST PUSH2 0x481 PUSH1 0x4 DUP1 CALLDATASIZE SUB DUP2 ADD SWAP1 PUSH2 0x47C SWAP2 SWAP1 PUSH2 0x430C JUMP JUMPDEST PUSH2 0x1517 JUMP JUMPDEST STOP JUMPDEST CALLVALUE DUP1 ISZERO PUSH2 0x48F JUMPI PUSH1 0x0 DUP1 REVERT JUMPDEST POP PUSH2 0x498 PUSH2 0x16FA JUMP JUMPDEST PUSH1 0x40 MLOAD PUSH2 0x4A5 SWAP2 SWAP1 PUSH2 0x4FB1 JUMP JUMPDEST PUSH1 0x40 MLOAD DUP1 SWAP2 SUB SWAP1 RETURN JUMPDEST CALLVALUE DUP1 ISZERO PUSH2 0x4BA JUMPI PUSH1 0x0 DUP1 REVERT JUMPDEST POP PUSH2 0x4D5 PUSH1 0x4 DUP1 CALLDATASIZE SUB DUP2 ADD SWAP1 PUSH2 0x4D0 SWAP2 SWAP1 PUSH2 0x44DF JUMP JUMPDEST PUSH2 0x1711 JUMP JUMPDEST STOP JUMPDEST CALLVALUE DUP1 ISZERO PUSH2 0x4E3 JUMPI PUSH1 0x0 DUP1 REVERT JUMPDEST POP PUSH2 0x4EC PUSH2 0x17AE JUMP JUMPDEST STOP JUMPDEST PUSH2 0x508 PUSH1 0x4 DUP1 CALLDATASIZE SUB DUP2 ADD SWAP1 PUSH2 0x503 SWAP2 SWAP1 PUSH2 0x48CE JUMP JUMPDEST PUSH2 0x1836 JUMP JUMPDEST STOP JUMPDEST CALLVALUE DUP1 ISZERO PUSH2 0x516 JUMPI PUSH1 0x0 DUP1 REVERT JUMPDEST POP PUSH2 0x531 PUSH1 0x4 DUP1 CALLDATASIZE SUB DUP2 ADD SWAP1 PUSH2 0x52C SWAP2 SWAP1 PUSH2 0x47FC JUMP JUMPDEST PUSH2 0x191E JUMP JUMPDEST STOP JUMPDEST CALLVALUE DUP1 ISZERO PUSH2 0x53F JUMPI PUSH1 0x0 DUP1 REVERT JUMPDEST POP PUSH2 0x548 PUSH2 0x192D JUMP JUMPDEST STOP JUMPDEST PUSH2 0x552 PUSH2 0x19B3 JUMP JUMPDEST STOP JUMPDEST CALLVALUE DUP1 ISZERO PUSH2 0x560 JUMPI PUSH1 0x0 DUP1 REVERT JUMPDEST POP PUSH2 0x57B PUSH1 0x4 DUP1 CALLDATASIZE SUB DUP2 ADD SWAP1 PUSH2 0x576 SWAP2 SWAP1 PUSH2 0x48FB JUMP JUMPDEST PUSH2 0x1A9A JUMP JUMPDEST STOP JUMPDEST CALLVALUE DUP1 ISZERO PUSH2 0x589 JUMPI PUSH1 0x0 DUP1 REVERT JUMPDEST POP PUSH2 0x592 PUSH2 0x1B7A JUMP JUMPDEST PUSH1 0x40 MLOAD PUSH2 0x59F SWAP2 SWAP1 PUSH2 0x53F6 JUMP JUMPDEST PUSH1 0x40 MLOAD DUP1 SWAP2 SUB SWAP1 RETURN JUMPDEST CALLVALUE DUP1 ISZERO PUSH2 0x5B4 JUMPI PUSH1 0x0 DUP1 REVERT JUMPDEST POP PUSH2 0x5BD PUSH2 0x1BFE JUMP JUMPDEST PUSH1 0x40 MLOAD PUSH2 0x5CA SWAP2 SWAP1 PUSH2 0x4E7B JUMP JUMPDEST PUSH1 0x40 MLOAD DUP1 SWAP2 SUB SWAP1 RETURN JUMPDEST CALLVALUE DUP1 ISZERO PUSH2 0x5DF JUMPI PUSH1 0x0 DUP1 REVERT JUMPDEST POP PUSH2 0x5E8 PUSH2 0x1C28 JUMP JUMPDEST PUSH1 0x40 MLOAD PUSH2 0x5F5 SWAP2 SWAP1 PUSH2 0x4FCC JUMP JUMPDEST PUSH1 0x40 MLOAD DUP1 SWAP2 SUB SWAP1 RETURN JUMPDEST CALLVALUE DUP1 ISZERO PUSH2 0x60A JUMPI PUSH1 0x0 DUP1 REVERT JUMPDEST POP PUSH2 0x625 PUSH1 0x4 DUP1 CALLDATASIZE SUB DUP2 ADD SWAP1 PUSH2 0x620 SWAP2 SWAP1 PUSH2 0x430C JUMP JUMPDEST PUSH2 0x1CB6 JUMP JUMPDEST PUSH1 0x40 MLOAD PUSH2 0x632 SWAP2 SWAP1 PUSH2 0x53F6 JUMP JUMPDEST PUSH1 0x40 MLOAD DUP1 SWAP2 SUB SWAP1 RETURN JUMPDEST CALLVALUE DUP1 ISZERO PUSH2 0x647 JUMPI PUSH1 0x0 DUP1 REVERT JUMPDEST POP PUSH2 0x662 PUSH1 0x4 DUP1 CALLDATASIZE SUB DUP2 ADD SWAP1 PUSH2 0x65D SWAP2 SWAP1 PUSH2 0x4655 JUMP JUMPDEST PUSH2 0x1CCE JUMP JUMPDEST STOP JUMPDEST CALLVALUE DUP1 ISZERO PUSH2 0x670 JUMPI PUSH1 0x0 DUP1 REVERT JUMPDEST POP PUSH2 0x68B PUSH1 0x4 DUP1 CALLDATASIZE SUB DUP2 ADD SWAP1 PUSH2 0x686 SWAP2 SWAP1 PUSH2 0x48CE JUMP JUMPDEST PUSH2 0x1CE4 JUMP JUMPDEST PUSH1 0x40 MLOAD PUSH2 0x698 SWAP2 SWAP1 PUSH2 0x53F6 JUMP JUMPDEST PUSH1 0x40 MLOAD DUP1 SWAP2 SUB SWAP1 RETURN JUMPDEST CALLVALUE DUP1 ISZERO PUSH2 0x6AD JUMPI PUSH1 0x0 DUP1 REVERT JUMPDEST POP PUSH2 0x6C8 PUSH1 0x4 DUP1 CALLDATASIZE SUB DUP2 ADD SWAP1 PUSH2 0x6C3 SWAP2 SWAP1 PUSH2 0x4957 JUMP JUMPDEST PUSH2 0x1D18 JUMP JUMPDEST STOP JUMPDEST CALLVALUE DUP1 ISZERO PUSH2 0x6D6 JUMPI PUSH1 0x0 DUP1 REVERT JUMPDEST POP PUSH2 0x6F1 PUSH1 0x4 DUP1 CALLDATASIZE SUB DUP2 ADD SWAP1 PUSH2 0x6EC SWAP2 SWAP1 PUSH2 0x48CE JUMP JUMPDEST PUSH2 0x1D27 JUMP JUMPDEST PUSH1 0x40 MLOAD PUSH2 0x6FE SWAP2 SWAP1 PUSH2 0x53F6 JUMP JUMPDEST PUSH1 0x40 MLOAD DUP1 SWAP2 SUB SWAP1 RETURN JUMPDEST CALLVALUE DUP1 ISZERO PUSH2 0x713 JUMPI PUSH1 0x0 DUP1 REVERT JUMPDEST POP PUSH2 0x72E PUSH1 0x4 DUP1 CALLDATASIZE SUB DUP2 ADD SWAP1 PUSH2 0x729 SWAP2 SWAP1 PUSH2 0x48CE JUMP JUMPDEST PUSH2 0x1D44 JUMP JUMPDEST PUSH1 0x40 MLOAD PUSH2 0x73B SWAP2 SWAP1 PUSH2 0x4FCC JUMP JUMPDEST PUSH1 0x40 MLOAD DUP1 SWAP2 SUB SWAP1 RETURN JUMPDEST CALLVALUE DUP1 ISZERO PUSH2 0x750 JUMPI PUSH1 0x0 DUP1 REVERT JUMPDEST POP PUSH2 0x76B PUSH1 0x4 DUP1 CALLDATASIZE SUB DUP2 ADD SWAP1 PUSH2 0x766 SWAP2 SWAP1 PUSH2 0x430C JUMP JUMPDEST PUSH2 0x1DE4 JUMP JUMPDEST STOP JUMPDEST CALLVALUE DUP1 ISZERO PUSH2 0x779 JUMPI PUSH1 0x0 DUP1 REVERT JUMPDEST POP PUSH2 0x794 PUSH1 0x4 DUP1 CALLDATASIZE SUB DUP2 ADD SWAP1 PUSH2 0x78F SWAP2 SWAP1 PUSH2 0x4339 JUMP JUMPDEST PUSH2 0x1EB8 JUMP JUMPDEST PUSH1 0x40 MLOAD PUSH2 0x7A1 SWAP2 SWAP1 PUSH2 0x4FB1 JUMP JUMPDEST PUSH1 0x40 MLOAD DUP1 SWAP2 SUB SWAP1 RETURN JUMPDEST CALLVALUE DUP1 ISZERO PUSH2 0x7B6 JUMPI PUSH1 0x0 DUP1 REVERT JUMPDEST POP PUSH2 0x7D1 PUSH1 0x4 DUP1 CALLDATASIZE SUB DUP2 ADD SWAP1 PUSH2 0x7CC SWAP2 SWAP1 PUSH2 0x4448 JUMP JUMPDEST PUSH2 0x1F4C JUMP JUMPDEST STOP JUMPDEST CALLVALUE DUP1 ISZERO PUSH2 0x7DF JUMPI PUSH1 0x0 DUP1 REVERT JUMPDEST POP PUSH2 0x7FA PUSH1 0x4 DUP1 CALLDATASIZE SUB DUP2 ADD SWAP1 PUSH2 0x7F5 SWAP2 SWAP1 PUSH2 0x430C JUMP JUMPDEST PUSH2 0x1FED JUMP JUMPDEST STOP JUMPDEST CALLVALUE DUP1 ISZERO PUSH2 0x808 JUMPI PUSH1 0x0 DUP1 REVERT JUMPDEST POP PUSH2 0x823 PUSH1 0x4 DUP1 CALLDATASIZE SUB DUP2 ADD SWAP1 PUSH2 0x81E SWAP2 SWAP1 PUSH2 0x46D5 JUMP JUMPDEST PUSH2 0x20E5 JUMP JUMPDEST STOP JUMPDEST CALLVALUE DUP1 ISZERO PUSH2 0x831 JUMPI PUSH1 0x0 DUP1 REVERT JUMPDEST POP PUSH2 0x83A PUSH2 0x2182 JUMP JUMPDEST PUSH1 0x40 MLOAD PUSH2 0x847 SWAP2 SWAP1 PUSH2 0x4E7B JUMP JUMPDEST PUSH1 0x40 MLOAD DUP1 SWAP2 SUB SWAP1 RETURN JUMPDEST PUSH1 0x0 DUP1 PUSH20 0xFFFFFFFFFFFFFFFFFFFFFFFFFFFFFFFFFFFFFFFF AND DUP4 PUSH20 0xFFFFFFFFFFFFFFFFFFFFFFFFFFFFFFFFFFFFFFFF AND EQ ISZERO PUSH2 0x8C1 JUMPI PUSH1 0x40 MLOAD PUSH32 0x8C379A000000000000000000000000000000000000000000000000000000000 DUP2 MSTORE PUSH1 0x4 ADD PUSH2 0x8B8 SWAP1 PUSH2 0x50D8 JUMP JUMPDEST PUSH1 0x40 MLOAD DUP1 SWAP2 SUB SWAP1 REVERT JUMPDEST PUSH1 0x0 DUP1 DUP4 DUP2 MSTORE PUSH1 0x20 ADD SWAP1 DUP2 MSTORE PUSH1 0x20 ADD PUSH1 0x0 KECCAK256 PUSH1 0x0 DUP5 PUSH20 0xFFFFFFFFFFFFFFFFFFFFFFFFFFFFFFFFFFFFFFFF AND PUSH20 0xFFFFFFFFFFFFFFFFFFFFFFFFFFFFFFFFFFFFFFFF AND DUP2 MSTORE PUSH1 0x20 ADD SWAP1 DUP2 MSTORE PUSH1 0x20 ADD PUSH1 0x0 KECCAK256 SLOAD SWAP1 POP SWAP3 SWAP2 POP POP JUMP JUMPDEST PUSH1 0x0 PUSH32 0xD9B67A2600000000000000000000000000000000000000000000000000000000 PUSH28 0xFFFFFFFFFFFFFFFFFFFFFFFFFFFFFFFFFFFFFFFFFFFFFFFFFFFFFFFF NOT AND DUP3 PUSH28 0xFFFFFFFFFFFFFFFFFFFFFFFFFFFFFFFFFFFFFFFFFFFFFFFFFFFFFFFF NOT AND EQ DUP1 PUSH2 0x9E4 JUMPI POP PUSH32 0xE89341C00000000000000000000000000000000000000000000000000000000 PUSH28 0xFFFFFFFFFFFFFFFFFFFFFFFFFFFFFFFFFFFFFFFFFFFFFFFFFFFFFFFF NOT AND DUP3 PUSH28 0xFFFFFFFFFFFFFFFFFFFFFFFFFFFFFFFFFFFFFFFFFFFFFFFFFFFFFFFF NOT AND EQ JUMPDEST DUP1 PUSH2 0x9F4 JUMPI POP PUSH2 0x9F3 DUP3 PUSH2 0x21A8 JUMP JUMPDEST JUMPDEST SWAP1 POP SWAP2 SWAP1 POP JUMP JUMPDEST PUSH1 0x5 DUP1 SLOAD PUSH2 0xA08 SWAP1 PUSH2 0x5706 JUMP JUMPDEST DUP1 PUSH1 0x1F ADD PUSH1 0x20 DUP1 SWAP2 DIV MUL PUSH1 0x20 ADD PUSH1 0x40 MLOAD SWAP1 DUP2 ADD PUSH1 0x40 MSTORE DUP1 SWAP3 SWAP2 SWAP1 DUP2 DUP2 MSTORE PUSH1 0x20 ADD DUP3 DUP1 SLOAD PUSH2 0xA34 SWAP1 PUSH2 0x5706 JUMP JUMPDEST DUP1 ISZERO PUSH2 0xA81 JUMPI DUP1 PUSH1 0x1F LT PUSH2 0xA56 JUMPI PUSH2 0x100 DUP1 DUP4 SLOAD DIV MUL DUP4 MSTORE SWAP2 PUSH1 0x20 ADD SWAP2 PUSH2 0xA81 JUMP JUMPDEST DUP3 ADD SWAP2 SWAP1 PUSH1 0x0 MSTORE PUSH1 0x20 PUSH1 0x0 KECCAK256 SWAP1 JUMPDEST DUP2 SLOAD DUP2 MSTORE SWAP1 PUSH1 0x1 ADD SWAP1 PUSH1 0x20 ADD DUP1 DUP4 GT PUSH2 0xA64 JUMPI DUP3 SWAP1 SUB PUSH1 0x1F AND DUP3 ADD SWAP2 JUMPDEST POP POP POP POP POP DUP2 JUMP JUMPDEST PUSH1 0x60 PUSH1 0xC PUSH1 0x0 DUP4 DUP2 MSTORE PUSH1 0x20 ADD SWAP1 DUP2 MSTORE PUSH1 0x20 ADD PUSH1 0x0 KECCAK256 DUP1 SLOAD PUSH2 0xAA9 SWAP1 PUSH2 0x5706 JUMP JUMPDEST DUP1 PUSH1 0x1F ADD PUSH1 0x20 DUP1 SWAP2 DIV MUL PUSH1 0x20 ADD PUSH1 0x40 MLOAD SWAP1 DUP2 ADD PUSH1 0x40 MSTORE DUP1 SWAP3 SWAP2 SWAP1 DUP2 DUP2 MSTORE PUSH1 0x20 ADD DUP3 DUP1 SLOAD PUSH2 0xAD5 SWAP1 PUSH2 0x5706 JUMP JUMPDEST DUP1 ISZERO PUSH2 0xB22 JUMPI DUP1 PUSH1 0x1F LT PUSH2 0xAF7 JUMPI PUSH2 0x100 DUP1 DUP4 SLOAD DIV MUL DUP4 MSTORE SWAP2 PUSH1 0x20 ADD SWAP2 PUSH2 0xB22 JUMP JUMPDEST DUP3 ADD SWAP2 SWAP1 PUSH1 0x0 MSTORE PUSH1 0x20 PUSH1 0x0 KECCAK256 SWAP1 JUMPDEST DUP2 SLOAD DUP2 MSTORE SWAP1 PUSH1 0x1 ADD SWAP1 PUSH1 0x20 ADD DUP1 DUP4 GT PUSH2 0xB05 JUMPI DUP3 SWAP1 SUB PUSH1 0x1F AND DUP3 ADD SWAP2 JUMPDEST POP POP POP POP POP SWAP1 POP SWAP2 SWAP1 POP JUMP JUMPDEST PUSH1 0x0 PUSH1 0xD PUSH1 0x0 DUP4 PUSH20 0xFFFFFFFFFFFFFFFFFFFFFFFFFFFFFFFFFFFFFFFF AND PUSH20 0xFFFFFFFFFFFFFFFFFFFFFFFFFFFFFFFFFFFFFFFF AND DUP2 MSTORE PUSH1 0x20 ADD SWAP1 DUP2 MSTORE PUSH1 0x20 ADD PUSH1 0x0 KECCAK256 SLOAD SWAP1 POP SWAP2 SWAP1 POP JUMP JUMPDEST PUSH2 0xB7F PUSH2 0x2212 JUMP JUMPDEST PUSH20 0xFFFFFFFFFFFFFFFFFFFFFFFFFFFFFFFFFFFFFFFF AND DUP6 PUSH20 0xFFFFFFFFFFFFFFFFFFFFFFFFFFFFFFFFFFFFFFFF AND EQ DUP1 PUSH2 0xBC5 JUMPI POP PUSH2 0xBC4 DUP6 PUSH2 0xBBF PUSH2 0x2212 JUMP JUMPDEST PUSH2 0x1EB8 JUMP JUMPDEST JUMPDEST PUSH2 0xC04 JUMPI PUSH1 0x40 MLOAD PUSH32 0x8C379A000000000000000000000000000000000000000000000000000000000 DUP2 MSTORE PUSH1 0x4 ADD PUSH2 0xBFB SWAP1 PUSH2 0x524C JUMP JUMPDEST PUSH1 0x40 MLOAD DUP1 SWAP2 SUB SWAP1 REVERT JUMPDEST PUSH2 0xC11 DUP6 DUP6 DUP6 DUP6 DUP6 PUSH2 0x221A JUMP JUMPDEST POP POP POP POP POP JUMP JUMPDEST PUSH2 0xC20 PUSH2 0x2212 JUMP JUMPDEST PUSH20 0xFFFFFFFFFFFFFFFFFFFFFFFFFFFFFFFFFFFFFFFF AND PUSH2 0xC3E PUSH2 0x1BFE JUMP JUMPDEST PUSH20 0xFFFFFFFFFFFFFFFFFFFFFFFFFFFFFFFFFFFFFFFF AND EQ PUSH2 0xC94 JUMPI PUSH1 0x40 MLOAD PUSH32 0x8C379A000000000000000000000000000000000000000000000000000000000 DUP2 MSTORE PUSH1 0x4 ADD PUSH2 0xC8B SWAP1 PUSH2 0x52F6 JUMP JUMPDEST PUSH1 0x40 MLOAD DUP1 SWAP2 SUB SWAP1 REVERT JUMPDEST DUP1 PUSH32 0xA2455EC11F160D321516C021994881E7678C0B5870CD7AAE50107098770E2C28 CALLER PUSH1 0x0 PUSH1 0xD PUSH1 0x0 CALLER PUSH20 0xFFFFFFFFFFFFFFFFFFFFFFFFFFFFFFFFFFFFFFFF AND PUSH20 0xFFFFFFFFFFFFFFFFFFFFFFFFFFFFFFFFFFFFFFFF AND DUP2 MSTORE PUSH1 0x20 ADD SWAP1 DUP2 MSTORE PUSH1 0x20 ADD PUSH1 0x0 KECCAK256 SLOAD PUSH1 0x40 MLOAD PUSH2 0xD08 SWAP4 SWAP3 SWAP2 SWAP1 PUSH2 0x506E JUMP JUMPDEST PUSH1 0x40 MLOAD DUP1 SWAP2 SUB SWAP1 LOG1 PUSH1 0x8 DUP1 SLOAD SWAP1 POP DUP2 GT ISZERO DUP1 ISZERO PUSH2 0xD25 JUMPI POP PUSH1 0x0 DUP2 GT JUMPDEST PUSH2 0xD64 JUMPI PUSH1 0x40 MLOAD PUSH32 0x8C379A000000000000000000000000000000000000000000000000000000000 DUP2 MSTORE PUSH1 0x4 ADD PUSH2 0xD5B SWAP1 PUSH2 0x500E JUMP JUMPDEST PUSH1 0x40 MLOAD DUP1 SWAP2 SUB SWAP1 REVERT JUMPDEST PUSH1 0x0 JUMPDEST DUP4 MLOAD DUP2 LT ISZERO PUSH2 0x10CF JUMPI PUSH1 0x0 PUSH1 0xD PUSH1 0x0 DUP7 DUP5 DUP2 MLOAD DUP2 LT PUSH2 0xD89 JUMPI PUSH2 0xD88 PUSH2 0x5810 JUMP JUMPDEST JUMPDEST PUSH1 0x20 MUL PUSH1 0x20 ADD ADD MLOAD PUSH20 0xFFFFFFFFFFFFFFFFFFFFFFFFFFFFFFFFFFFFFFFF AND PUSH20 0xFFFFFFFFFFFFFFFFFFFFFFFFFFFFFFFFFFFFFFFF AND DUP2 MSTORE PUSH1 0x20 ADD SWAP1 DUP2 MSTORE PUSH1 0x20 ADD PUSH1 0x0 KECCAK256 SLOAD EQ ISZERO PUSH2 0xFE3 JUMPI DUP3 PUSH1 0xD PUSH1 0x0 DUP7 DUP5 DUP2 MLOAD DUP2 LT PUSH2 0xDEA JUMPI PUSH2 0xDE9 PUSH2 0x5810 JUMP JUMPDEST JUMPDEST PUSH1 0x20 MUL PUSH1 0x20 ADD ADD MLOAD PUSH20 0xFFFFFFFFFFFFFFFFFFFFFFFFFFFFFFFFFFFFFFFF AND PUSH20 0xFFFFFFFFFFFFFFFFFFFFFFFFFFFFFFFFFFFFFFFF AND DUP2 MSTORE PUSH1 0x20 ADD SWAP1 DUP2 MSTORE PUSH1 0x20 ADD PUSH1 0x0 KECCAK256 DUP2 SWAP1 SSTORE POP PUSH1 0x8 PUSH1 0x1 DUP5 PUSH2 0xE3F SWAP2 SWAP1 PUSH2 0x55E0 JUMP JUMPDEST DUP2 SLOAD DUP2 LT PUSH2 0xE50 JUMPI PUSH2 0xE4F PUSH2 0x5810 JUMP JUMPDEST JUMPDEST SWAP1 PUSH1 0x0 MSTORE PUSH1 0x20 PUSH1 0x0 KECCAK256 ADD SLOAD PUSH1 0x1 PUSH1 0xB PUSH1 0x1 DUP7 PUSH2 0xE6C SWAP2 SWAP1 PUSH2 0x55E0 JUMP JUMPDEST DUP2 SLOAD DUP2 LT PUSH2 0xE7D JUMPI PUSH2 0xE7C PUSH2 0x5810 JUMP JUMPDEST JUMPDEST SWAP1 PUSH1 0x0 MSTORE PUSH1 0x20 PUSH1 0x0 KECCAK256 ADD SLOAD PUSH2 0xE92 SWAP2 SWAP1 PUSH2 0x558A JUMP JUMPDEST GT ISZERO PUSH2 0xED3 JUMPI PUSH1 0x40 MLOAD PUSH32 0x8C379A000000000000000000000000000000000000000000000000000000000 DUP2 MSTORE PUSH1 0x4 ADD PUSH2 0xECA SWAP1 PUSH2 0x51EC JUMP JUMPDEST PUSH1 0x40 MLOAD DUP1 SWAP2 SUB SWAP1 REVERT JUMPDEST PUSH1 0xB PUSH1 0x1 DUP5 PUSH2 0xEE2 SWAP2 SWAP1 PUSH2 0x55E0 JUMP JUMPDEST DUP2 SLOAD DUP2 LT PUSH2 0xEF3 JUMPI PUSH2 0xEF2 PUSH2 0x5810 JUMP JUMPDEST JUMPDEST SWAP1 PUSH1 0x0 MSTORE PUSH1 0x20 PUSH1 0x0 KECCAK256 ADD PUSH1 0x0 DUP2 SLOAD DUP1 SWAP3 SWAP2 SWAP1 PUSH2 0xF0E SWAP1 PUSH2 0x5769 JUMP JUMPDEST SWAP2 SWAP1 POP SSTORE POP PUSH1 0x1 DUP4 EQ PUSH2 0xFDE JUMPI PUSH1 0x8 PUSH1 0x0 DUP2 SLOAD DUP2 LT PUSH2 0xF30 JUMPI PUSH2 0xF2F PUSH2 0x5810 JUMP JUMPDEST JUMPDEST SWAP1 PUSH1 0x0 MSTORE PUSH1 0x20 PUSH1 0x0 KECCAK256 ADD SLOAD PUSH1 0x1 PUSH1 0xB PUSH1 0x0 DUP2 SLOAD DUP2 LT PUSH2 0xF52 JUMPI PUSH2 0xF51 PUSH2 0x5810 JUMP JUMPDEST JUMPDEST SWAP1 PUSH1 0x0 MSTORE PUSH1 0x20 PUSH1 0x0 KECCAK256 ADD SLOAD PUSH2 0xF67 SWAP2 SWAP1 PUSH2 0x558A JUMP JUMPDEST GT ISZERO PUSH2 0xFA8 JUMPI PUSH1 0x40 MLOAD PUSH32 0x8C379A000000000000000000000000000000000000000000000000000000000 DUP2 MSTORE PUSH1 0x4 ADD PUSH2 0xF9F SWAP1 PUSH2 0x51EC JUMP JUMPDEST PUSH1 0x40 MLOAD DUP1 SWAP2 SUB SWAP1 REVERT JUMPDEST PUSH1 0xB PUSH1 0x0 DUP2 SLOAD DUP2 LT PUSH2 0xFBD JUMPI PUSH2 0xFBC PUSH2 0x5810 JUMP JUMPDEST JUMPDEST SWAP1 PUSH1 0x0 MSTORE PUSH1 0x20 PUSH1 0x0 KECCAK256 ADD PUSH1 0x0 DUP2 SLOAD DUP1 SWAP3 SWAP2 SWAP1 PUSH2 0xFD8 SWAP1 PUSH2 0x5769 JUMP JUMPDEST SWAP2 SWAP1 POP SSTORE POP JUMPDEST PUSH2 0x10BC JUMP JUMPDEST PUSH32 0xA2455EC11F160D321516C021994881E7678C0B5870CD7AAE50107098770E2C28 DUP5 DUP3 DUP2 MLOAD DUP2 LT PUSH2 0x1017 JUMPI PUSH2 0x1016 PUSH2 0x5810 JUMP JUMPDEST JUMPDEST PUSH1 0x20 MUL PUSH1 0x20 ADD ADD MLOAD PUSH1 0xB PUSH1 0x1 DUP7 PUSH2 0x102E SWAP2 SWAP1 PUSH2 0x55E0 JUMP JUMPDEST DUP2 SLOAD DUP2 LT PUSH2 0x103F JUMPI PUSH2 0x103E PUSH2 0x5810 JUMP JUMPDEST JUMPDEST SWAP1 PUSH1 0x0 MSTORE PUSH1 0x20 PUSH1 0x0 KECCAK256 ADD SLOAD PUSH1 0xD PUSH1 0x0 DUP9 DUP7 DUP2 MLOAD DUP2 LT PUSH2 0x1061 JUMPI PUSH2 0x1060 PUSH2 0x5810 JUMP JUMPDEST JUMPDEST PUSH1 0x20 MUL PUSH1 0x20 ADD ADD MLOAD PUSH20 0xFFFFFFFFFFFFFFFFFFFFFFFFFFFFFFFFFFFFFFFF AND PUSH20 0xFFFFFFFFFFFFFFFFFFFFFFFFFFFFFFFFFFFFFFFF AND DUP2 MSTORE PUSH1 0x20 ADD SWAP1 DUP2 MSTORE PUSH1 0x20 ADD PUSH1 0x0 KECCAK256 SLOAD PUSH1 0x40 MLOAD PUSH2 0x10B3 SWAP4 SWAP3 SWAP2 SWAP1 PUSH2 0x5182 JUMP JUMPDEST PUSH1 0x40 MLOAD DUP1 SWAP2 SUB SWAP1 LOG1 JUMPDEST DUP1 DUP1 PUSH2 0x10C7 SWAP1 PUSH2 0x5769 JUMP JUMPDEST SWAP2 POP POP PUSH2 0xD67 JUMP JUMPDEST POP POP POP POP JUMP JUMPDEST PUSH2 0x10DD PUSH2 0x2212 JUMP JUMPDEST PUSH20 0xFFFFFFFFFFFFFFFFFFFFFFFFFFFFFFFFFFFFFFFF AND PUSH2 0x10FB PUSH2 0x1BFE JUMP JUMPDEST PUSH20 0xFFFFFFFFFFFFFFFFFFFFFFFFFFFFFFFFFFFFFFFF AND EQ PUSH2 0x1151 JUMPI PUSH1 0x40 MLOAD PUSH32 0x8C379A000000000000000000000000000000000000000000000000000000000 DUP2 MSTORE PUSH1 0x4 ADD PUSH2 0x1148 SWAP1 PUSH2 0x52F6 JUMP JUMPDEST PUSH1 0x40 MLOAD DUP1 SWAP2 SUB SWAP1 REVERT JUMPDEST PUSH2 0x1159 PUSH2 0x252E JUMP JUMPDEST JUMP JUMPDEST PUSH1 0x60 DUP2 MLOAD DUP4 MLOAD EQ PUSH2 0x11A1 JUMPI PUSH1 0x40 MLOAD PUSH32 0x8C379A000000000000000000000000000000000000000000000000000000000 DUP2 MSTORE PUSH1 0x4 ADD PUSH2 0x1198 SWAP1 PUSH2 0x5376 JUMP JUMPDEST PUSH1 0x40 MLOAD DUP1 SWAP2 SUB SWAP1 REVERT JUMPDEST PUSH1 0x0 DUP4 MLOAD PUSH8 0xFFFFFFFFFFFFFFFF DUP2 GT ISZERO PUSH2 0x11BE JUMPI PUSH2 0x11BD PUSH2 0x583F JUMP JUMPDEST JUMPDEST PUSH1 0x40 MLOAD SWAP1 DUP1 DUP3 MSTORE DUP1 PUSH1 0x20 MUL PUSH1 0x20 ADD DUP3 ADD PUSH1 0x40 MSTORE DUP1 ISZERO PUSH2 0x11EC JUMPI DUP2 PUSH1 0x20 ADD PUSH1 0x20 DUP3 MUL DUP1 CALLDATASIZE DUP4 CALLDATACOPY DUP1 DUP3 ADD SWAP2 POP POP SWAP1 POP JUMPDEST POP SWAP1 POP PUSH1 0x0 JUMPDEST DUP5 MLOAD DUP2 LT ISZERO PUSH2 0x1269 JUMPI PUSH2 0x1239 DUP6 DUP3 DUP2 MLOAD DUP2 LT PUSH2 0x1211 JUMPI PUSH2 0x1210 PUSH2 0x5810 JUMP JUMPDEST JUMPDEST PUSH1 0x20 MUL PUSH1 0x20 ADD ADD MLOAD DUP6 DUP4 DUP2 MLOAD DUP2 LT PUSH2 0x122C JUMPI PUSH2 0x122B PUSH2 0x5810 JUMP JUMPDEST JUMPDEST PUSH1 0x20 MUL PUSH1 0x20 ADD ADD MLOAD PUSH2 0x850 JUMP JUMPDEST DUP3 DUP3 DUP2 MLOAD DUP2 LT PUSH2 0x124C JUMPI PUSH2 0x124B PUSH2 0x5810 JUMP JUMPDEST JUMPDEST PUSH1 0x20 MUL PUSH1 0x20 ADD ADD DUP2 DUP2 MSTORE POP POP DUP1 PUSH2 0x1262 SWAP1 PUSH2 0x5769 JUMP JUMPDEST SWAP1 POP PUSH2 0x11F2 JUMP JUMPDEST POP DUP1 SWAP2 POP POP SWAP3 SWAP2 POP POP JUMP JUMPDEST PUSH1 0x0 DUP1 PUSH2 0x1280 DUP4 PUSH2 0x1D27 JUMP JUMPDEST GT SWAP1 POP SWAP2 SWAP1 POP JUMP JUMPDEST PUSH2 0x1290 PUSH2 0x2212 JUMP JUMPDEST PUSH20 0xFFFFFFFFFFFFFFFFFFFFFFFFFFFFFFFFFFFFFFFF AND PUSH2 0x12AE PUSH2 0x1BFE JUMP JUMPDEST PUSH20 0xFFFFFFFFFFFFFFFFFFFFFFFFFFFFFFFFFFFFFFFF AND EQ PUSH2 0x1304 JUMPI PUSH1 0x40 MLOAD PUSH32 0x8C379A000000000000000000000000000000000000000000000000000000000 DUP2 MSTORE PUSH1 0x4 ADD PUSH2 0x12FB SWAP1 PUSH2 0x52F6 JUMP JUMPDEST PUSH1 0x40 MLOAD DUP1 SWAP2 SUB SWAP1 REVERT JUMPDEST DUP1 PUSH32 0xA2455EC11F160D321516C021994881E7678C0B5870CD7AAE50107098770E2C28 CALLER PUSH1 0x0 PUSH1 0xD PUSH1 0x0 CALLER PUSH20 0xFFFFFFFFFFFFFFFFFFFFFFFFFFFFFFFFFFFFFFFF AND PUSH20 0xFFFFFFFFFFFFFFFFFFFFFFFFFFFFFFFFFFFFFFFF AND DUP2 MSTORE PUSH1 0x20 ADD SWAP1 DUP2 MSTORE PUSH1 0x20 ADD PUSH1 0x0 KECCAK256 SLOAD PUSH1 0x40 MLOAD PUSH2 0x1378 SWAP4 SWAP3 SWAP2 SWAP1 PUSH2 0x506E JUMP JUMPDEST PUSH1 0x40 MLOAD DUP1 SWAP2 SUB SWAP1 LOG1 PUSH1 0x8 DUP1 SLOAD SWAP1 POP DUP2 GT ISZERO DUP1 ISZERO PUSH2 0x1395 JUMPI POP PUSH1 0x0 DUP2 GT JUMPDEST PUSH2 0x13D4 JUMPI PUSH1 0x40 MLOAD PUSH32 0x8C379A000000000000000000000000000000000000000000000000000000000 DUP2 MSTORE PUSH1 0x4 ADD PUSH2 0x13CB SWAP1 PUSH2 0x500E JUMP JUMPDEST PUSH1 0x40 MLOAD DUP1 SWAP2 SUB SWAP1 REVERT JUMPDEST PUSH1 0x0 DUP1 JUMPDEST DUP5 MLOAD DUP2 LT ISZERO PUSH2 0x1426 JUMPI PUSH2 0x1405 DUP6 DUP3 DUP2 MLOAD DUP2 LT PUSH2 0x13F7 JUMPI PUSH2 0x13F6 PUSH2 0x5810 JUMP JUMPDEST JUMPDEST PUSH1 0x20 MUL PUSH1 0x20 ADD ADD MLOAD DUP6 PUSH2 0x25D0 JUMP JUMPDEST DUP2 DUP1 PUSH2 0x1410 SWAP1 PUSH2 0x5769 JUMP JUMPDEST SWAP3 POP POP DUP1 DUP1 PUSH2 0x141E SWAP1 PUSH2 0x5769 JUMP JUMPDEST SWAP2 POP POP PUSH2 0x13D8 JUMP JUMPDEST POP DUP1 PUSH1 0xB PUSH1 0x1 DUP6 PUSH2 0x1437 SWAP2 SWAP1 PUSH2 0x55E0 JUMP JUMPDEST DUP2 SLOAD DUP2 LT PUSH2 0x1448 JUMPI PUSH2 0x1447 PUSH2 0x5810 JUMP JUMPDEST JUMPDEST SWAP1 PUSH1 0x0 MSTORE PUSH1 0x20 PUSH1 0x0 KECCAK256 ADD PUSH1 0x0 DUP3 DUP3 SLOAD PUSH2 0x1461 SWAP2 SWAP1 PUSH2 0x55E0 JUMP JUMPDEST SWAP3 POP POP DUP2 SWAP1 SSTORE POP POP POP POP POP JUMP JUMPDEST PUSH2 0x1476 PUSH2 0x2212 JUMP JUMPDEST PUSH20 0xFFFFFFFFFFFFFFFFFFFFFFFFFFFFFFFFFFFFFFFF AND PUSH2 0x1494 PUSH2 0x1BFE JUMP JUMPDEST PUSH20 0xFFFFFFFFFFFFFFFFFFFFFFFFFFFFFFFFFFFFFFFF AND EQ PUSH2 0x14EA JUMPI PUSH1 0x40 MLOAD PUSH32 0x8C379A000000000000000000000000000000000000000000000000000000000 DUP2 MSTORE PUSH1 0x4 ADD PUSH2 0x14E1 SWAP1 PUSH2 0x52F6 JUMP JUMPDEST PUSH1 0x40 MLOAD DUP1 SWAP2 SUB SWAP1 REVERT JUMPDEST PUSH2 0x14F5 DUP6 DUP6 DUP6 PUSH2 0x2920 JUMP JUMPDEST PUSH2 0x1510 DUP6 DUP4 DUP4 PUSH1 0x40 MLOAD DUP1 PUSH1 0x20 ADD PUSH1 0x40 MSTORE DUP1 PUSH1 0x0 DUP2 MSTORE POP PUSH2 0x2BD1 JUMP JUMPDEST POP POP POP POP POP JUMP JUMPDEST PUSH2 0x151F PUSH2 0x16FA JUMP JUMPDEST ISZERO PUSH2 0x155F JUMPI PUSH1 0x40 MLOAD PUSH32 0x8C379A000000000000000000000000000000000000000000000000000000000 DUP2 MSTORE PUSH1 0x4 ADD PUSH2 0x1556 SWAP1 PUSH2 0x520C JUMP JUMPDEST PUSH1 0x40 MLOAD DUP1 SWAP2 SUB SWAP1 REVERT JUMPDEST DUP1 PUSH32 0xA2455EC11F160D321516C021994881E7678C0B5870CD7AAE50107098770E2C28 CALLER PUSH1 0x0 PUSH1 0xD PUSH1 0x0 CALLER PUSH20 0xFFFFFFFFFFFFFFFFFFFFFFFFFFFFFFFFFFFFFFFF AND PUSH20 0xFFFFFFFFFFFFFFFFFFFFFFFFFFFFFFFFFFFFFFFF AND DUP2 MSTORE PUSH1 0x20 ADD SWAP1 DUP2 MSTORE PUSH1 0x20 ADD PUSH1 0x0 KECCAK256 SLOAD PUSH1 0x40 MLOAD PUSH2 0x15D3 SWAP4 SWAP3 SWAP2 SWAP1 PUSH2 0x5118 JUMP JUMPDEST PUSH1 0x40 MLOAD DUP1 SWAP2 SUB SWAP1 LOG1 PUSH1 0x0 PUSH1 0xD PUSH1 0x0 DUP4 PUSH20 0xFFFFFFFFFFFFFFFFFFFFFFFFFFFFFFFFFFFFFFFF AND PUSH20 0xFFFFFFFFFFFFFFFFFFFFFFFFFFFFFFFFFFFFFFFF AND DUP2 MSTORE PUSH1 0x20 ADD SWAP1 DUP2 MSTORE PUSH1 0x20 ADD PUSH1 0x0 KECCAK256 SLOAD EQ ISZERO PUSH2 0x165E JUMPI PUSH1 0x40 MLOAD PUSH32 0x8C379A000000000000000000000000000000000000000000000000000000000 DUP2 MSTORE PUSH1 0x4 ADD PUSH2 0x1655 SWAP1 PUSH2 0x5316 JUMP JUMPDEST PUSH1 0x40 MLOAD DUP1 SWAP2 SUB SWAP1 REVERT JUMPDEST PUSH1 0xA PUSH1 0x0 DUP2 SLOAD DUP2 LT PUSH2 0x1673 JUMPI PUSH2 0x1672 PUSH2 0x5810 JUMP JUMPDEST JUMPDEST SWAP1 PUSH1 0x0 MSTORE PUSH1 0x20 PUSH1 0x0 KECCAK256 ADD SLOAD CALLVALUE LT ISZERO PUSH2 0x16C0 JUMPI PUSH1 0x40 MLOAD PUSH32 0x8C379A000000000000000000000000000000000000000000000000000000000 DUP2 MSTORE PUSH1 0x4 ADD PUSH2 0x16B7 SWAP1 PUSH2 0x5336 JUMP JUMPDEST PUSH1 0x40 MLOAD DUP1 SWAP2 SUB SWAP1 REVERT JUMPDEST PUSH1 0x0 PUSH2 0x16CB DUP4 PUSH2 0xB2E JUMP JUMPDEST SWAP1 POP PUSH2 0x16D7 DUP4 DUP3 PUSH2 0x2DEF JUMP JUMPDEST PUSH1 0x1 DUP2 EQ PUSH2 0x16EB JUMPI PUSH2 0x16EA DUP4 PUSH1 0x1 PUSH2 0x2DEF JUMP JUMPDEST JUMPDEST PUSH2 0x16F5 DUP4 DUP3 PUSH2 0x25D0 JUMP JUMPDEST POP POP POP JUMP JUMPDEST PUSH1 0x0 PUSH1 0x3 PUSH1 0x14 SWAP1 SLOAD SWAP1 PUSH2 0x100 EXP SWAP1 DIV PUSH1 0xFF AND SWAP1 POP SWAP1 JUMP JUMPDEST PUSH2 0x1719 PUSH2 0x2212 JUMP JUMPDEST PUSH20 0xFFFFFFFFFFFFFFFFFFFFFFFFFFFFFFFFFFFFFFFF AND DUP4 PUSH20 0xFFFFFFFFFFFFFFFFFFFFFFFFFFFFFFFFFFFFFFFF AND EQ DUP1 PUSH2 0x175F JUMPI POP PUSH2 0x175E DUP4 PUSH2 0x1759 PUSH2 0x2212 JUMP JUMPDEST PUSH2 0x1EB8 JUMP JUMPDEST JUMPDEST PUSH2 0x179E JUMPI PUSH1 0x40 MLOAD PUSH32 0x8C379A000000000000000000000000000000000000000000000000000000000 DUP2 MSTORE PUSH1 0x4 ADD PUSH2 0x1795 SWAP1 PUSH2 0x51CC JUMP JUMPDEST PUSH1 0x40 MLOAD DUP1 SWAP2 SUB SWAP1 REVERT JUMPDEST PUSH2 0x17A9 DUP4 DUP4 DUP4 PUSH2 0x2920 JUMP JUMPDEST POP POP POP JUMP JUMPDEST PUSH2 0x17B6 PUSH2 0x2212 JUMP JUMPDEST PUSH20 0xFFFFFFFFFFFFFFFFFFFFFFFFFFFFFFFFFFFFFFFF AND PUSH2 0x17D4 PUSH2 0x1BFE JUMP JUMPDEST PUSH20 0xFFFFFFFFFFFFFFFFFFFFFFFFFFFFFFFFFFFFFFFF AND EQ PUSH2 0x182A JUMPI PUSH1 0x40 MLOAD PUSH32 0x8C379A000000000000000000000000000000000000000000000000000000000 DUP2 MSTORE PUSH1 0x4 ADD PUSH2 0x1821 SWAP1 PUSH2 0x52F6 JUMP JUMPDEST PUSH1 0x40 MLOAD DUP1 SWAP2 SUB SWAP1 REVERT JUMPDEST PUSH2 0x1834 PUSH1 0x0 PUSH2 0x308E JUMP JUMPDEST JUMP JUMPDEST PUSH2 0x183E PUSH2 0x2212 JUMP JUMPDEST PUSH20 0xFFFFFFFFFFFFFFFFFFFFFFFFFFFFFFFFFFFFFFFF AND PUSH2 0x185C PUSH2 0x1BFE JUMP JUMPDEST PUSH20 0xFFFFFFFFFFFFFFFFFFFFFFFFFFFFFFFFFFFFFFFF AND EQ PUSH2 0x18B2 JUMPI PUSH1 0x40 MLOAD PUSH32 0x8C379A000000000000000000000000000000000000000000000000000000000 DUP2 MSTORE PUSH1 0x4 ADD PUSH2 0x18A9 SWAP1 PUSH2 0x52F6 JUMP JUMPDEST PUSH1 0x40 MLOAD DUP1 SWAP2 SUB SWAP1 REVERT JUMPDEST PUSH1 0x7 PUSH1 0x0 SWAP1 SLOAD SWAP1 PUSH2 0x100 EXP SWAP1 DIV PUSH20 0xFFFFFFFFFFFFFFFFFFFFFFFFFFFFFFFFFFFFFFFF AND PUSH20 0xFFFFFFFFFFFFFFFFFFFFFFFFFFFFFFFFFFFFFFFF AND PUSH2 0x8FC DUP3 SWAP1 DUP2 ISZERO MUL SWAP1 PUSH1 0x40 MLOAD PUSH1 0x0 PUSH1 0x40 MLOAD DUP1 DUP4 SUB DUP2 DUP6 DUP9 DUP9 CALL SWAP4 POP POP POP POP ISZERO DUP1 ISZERO PUSH2 0x191A JUMPI RETURNDATASIZE PUSH1 0x0 DUP1 RETURNDATACOPY RETURNDATASIZE PUSH1 0x0 REVERT JUMPDEST POP POP JUMP JUMPDEST PUSH2 0x1929 CALLER DUP4 DUP4 PUSH2 0x2920 JUMP JUMPDEST POP POP JUMP JUMPDEST PUSH2 0x1935 PUSH2 0x2212 JUMP JUMPDEST PUSH20 0xFFFFFFFFFFFFFFFFFFFFFFFFFFFFFFFFFFFFFFFF AND PUSH2 0x1953 PUSH2 0x1BFE JUMP JUMPDEST PUSH20 0xFFFFFFFFFFFFFFFFFFFFFFFFFFFFFFFFFFFFFFFF AND EQ PUSH2 0x19A9 JUMPI PUSH1 0x40 MLOAD PUSH32 0x8C379A000000000000000000000000000000000000000000000000000000000 DUP2 MSTORE PUSH1 0x4 ADD PUSH2 0x19A0 SWAP1 PUSH2 0x52F6 JUMP JUMPDEST PUSH1 0x40 MLOAD DUP1 SWAP2 SUB SWAP1 REVERT JUMPDEST PUSH2 0x19B1 PUSH2 0x3154 JUMP JUMPDEST JUMP JUMPDEST PUSH2 0x19BB PUSH2 0x2212 JUMP JUMPDEST PUSH20 0xFFFFFFFFFFFFFFFFFFFFFFFFFFFFFFFFFFFFFFFF AND PUSH2 0x19D9 PUSH2 0x1BFE JUMP JUMPDEST PUSH20 0xFFFFFFFFFFFFFFFFFFFFFFFFFFFFFFFFFFFFFFFF AND EQ PUSH2 0x1A2F JUMPI PUSH1 0x40 MLOAD PUSH32 0x8C379A000000000000000000000000000000000000000000000000000000000 DUP2 MSTORE PUSH1 0x4 ADD PUSH2 0x1A26 SWAP1 PUSH2 0x52F6 JUMP JUMPDEST PUSH1 0x40 MLOAD DUP1 SWAP2 SUB SWAP1 REVERT JUMPDEST PUSH1 0x7 PUSH1 0x0 SWAP1 SLOAD SWAP1 PUSH2 0x100 EXP SWAP1 DIV PUSH20 0xFFFFFFFFFFFFFFFFFFFFFFFFFFFFFFFFFFFFFFFF AND PUSH20 0xFFFFFFFFFFFFFFFFFFFFFFFFFFFFFFFFFFFFFFFF AND PUSH2 0x8FC SELFBALANCE SWAP1 DUP2 ISZERO MUL SWAP1 PUSH1 0x40 MLOAD PUSH1 0x0 PUSH1 0x40 MLOAD DUP1 DUP4 SUB DUP2 DUP6 DUP9 DUP9 CALL SWAP4 POP POP POP POP ISZERO DUP1 ISZERO PUSH2 0x1A97 JUMPI RETURNDATASIZE PUSH1 0x0 DUP1 RETURNDATACOPY RETURNDATASIZE PUSH1 0x0 REVERT JUMPDEST POP JUMP JUMPDEST PUSH2 0x1AA2 PUSH2 0x2212 JUMP JUMPDEST PUSH20 0xFFFFFFFFFFFFFFFFFFFFFFFFFFFFFFFFFFFFFFFF AND PUSH2 0x1AC0 PUSH2 0x1BFE JUMP JUMPDEST PUSH20 0xFFFFFFFFFFFFFFFFFFFFFFFFFFFFFFFFFFFFFFFF AND EQ PUSH2 0x1B16 JUMPI PUSH1 0x40 MLOAD PUSH32 0x8C379A000000000000000000000000000000000000000000000000000000000 DUP2 MSTORE PUSH1 0x4 ADD PUSH2 0x1B0D SWAP1 PUSH2 0x52F6 JUMP JUMPDEST PUSH1 0x40 MLOAD DUP1 SWAP2 SUB SWAP1 REVERT JUMPDEST DUP1 PUSH1 0xC PUSH1 0x0 DUP5 DUP2 MSTORE PUSH1 0x20 ADD SWAP1 DUP2 MSTORE PUSH1 0x20 ADD PUSH1 0x0 KECCAK256 SWAP1 DUP1 MLOAD SWAP1 PUSH1 0x20 ADD SWAP1 PUSH2 0x1B3D SWAP3 SWAP2 SWAP1 PUSH2 0x3FE4 JUMP JUMPDEST POP DUP2 PUSH32 0x6BB7FF708619BA0610CBA295A58592E0451DEE2622938C8755667688DAF3529B DUP3 PUSH1 0x40 MLOAD PUSH2 0x1B6E SWAP2 SWAP1 PUSH2 0x4FCC JUMP JUMPDEST PUSH1 0x40 MLOAD DUP1 SWAP2 SUB SWAP1 LOG2 POP POP JUMP JUMPDEST PUSH1 0x0 PUSH2 0x1B84 PUSH2 0x2212 JUMP JUMPDEST PUSH20 0xFFFFFFFFFFFFFFFFFFFFFFFFFFFFFFFFFFFFFFFF AND PUSH2 0x1BA2 PUSH2 0x1BFE JUMP JUMPDEST PUSH20 0xFFFFFFFFFFFFFFFFFFFFFFFFFFFFFFFFFFFFFFFF AND EQ PUSH2 0x1BF8 JUMPI PUSH1 0x40 MLOAD PUSH32 0x8C379A000000000000000000000000000000000000000000000000000000000 DUP2 MSTORE PUSH1 0x4 ADD PUSH2 0x1BEF SWAP1 PUSH2 0x52F6 JUMP JUMPDEST PUSH1 0x40 MLOAD DUP1 SWAP2 SUB SWAP1 REVERT JUMPDEST SELFBALANCE SWAP1 POP SWAP1 JUMP JUMPDEST PUSH1 0x0 PUSH1 0x3 PUSH1 0x0 SWAP1 SLOAD SWAP1 PUSH2 0x100 EXP SWAP1 DIV PUSH20 0xFFFFFFFFFFFFFFFFFFFFFFFFFFFFFFFFFFFFFFFF AND SWAP1 POP SWAP1 JUMP JUMPDEST PUSH1 0x6 DUP1 SLOAD PUSH2 0x1C35 SWAP1 PUSH2 0x5706 JUMP JUMPDEST DUP1 PUSH1 0x1F ADD PUSH1 0x20 DUP1 SWAP2 DIV MUL PUSH1 0x20 ADD PUSH1 0x40 MLOAD SWAP1 DUP2 ADD PUSH1 0x40 MSTORE DUP1 SWAP3 SWAP2 SWAP1 DUP2 DUP2 MSTORE PUSH1 0x20 ADD DUP3 DUP1 SLOAD PUSH2 0x1C61 SWAP1 PUSH2 0x5706 JUMP JUMPDEST DUP1 ISZERO PUSH2 0x1CAE JUMPI DUP1 PUSH1 0x1F LT PUSH2 0x1C83 JUMPI PUSH2 0x100 DUP1 DUP4 SLOAD DIV MUL DUP4 MSTORE SWAP2 PUSH1 0x20 ADD SWAP2 PUSH2 0x1CAE JUMP JUMPDEST DUP3 ADD SWAP2 SWAP1 PUSH1 0x0 MSTORE PUSH1 0x20 PUSH1 0x0 KECCAK256 SWAP1 JUMPDEST DUP2 SLOAD DUP2 MSTORE SWAP1 PUSH1 0x1 ADD SWAP1 PUSH1 0x20 ADD DUP1 DUP4 GT PUSH2 0x1C91 JUMPI DUP3 SWAP1 SUB PUSH1 0x1F AND DUP3 ADD SWAP2 JUMPDEST POP POP POP POP POP DUP2 JUMP JUMPDEST PUSH1 0xD PUSH1 0x20 MSTORE DUP1 PUSH1 0x0 MSTORE PUSH1 0x40 PUSH1 0x0 KECCAK256 PUSH1 0x0 SWAP2 POP SWAP1 POP SLOAD DUP2 JUMP JUMPDEST PUSH2 0x1CE0 PUSH2 0x1CD9 PUSH2 0x2212 JUMP JUMPDEST DUP4 DUP4 PUSH2 0x31F7 JUMP JUMPDEST POP POP JUMP JUMPDEST PUSH1 0x0 PUSH1 0xB PUSH1 0x1 DUP4 PUSH2 0x1CF5 SWAP2 SWAP1 PUSH2 0x55E0 JUMP JUMPDEST DUP2 SLOAD DUP2 LT PUSH2 0x1D06 JUMPI PUSH2 0x1D05 PUSH2 0x5810 JUMP JUMPDEST JUMPDEST SWAP1 PUSH1 0x0 MSTORE PUSH1 0x20 PUSH1 0x0 KECCAK256 ADD SLOAD SWAP1 POP SWAP2 SWAP1 POP JUMP JUMPDEST PUSH2 0x1D23 CALLER DUP4 DUP4 PUSH2 0x3364 JUMP JUMPDEST POP POP JUMP JUMPDEST PUSH1 0x0 PUSH1 0x4 PUSH1 0x0 DUP4 DUP2 MSTORE PUSH1 0x20 ADD SWAP1 DUP2 MSTORE PUSH1 0x20 ADD PUSH1 0x0 KECCAK256 SLOAD SWAP1 POP SWAP2 SWAP1 POP JUMP JUMPDEST PUSH1 0xC PUSH1 0x20 MSTORE DUP1 PUSH1 0x0 MSTORE PUSH1 0x40 PUSH1 0x0 KECCAK256 PUSH1 0x0 SWAP2 POP SWAP1 POP DUP1 SLOAD PUSH2 0x1D63 SWAP1 PUSH2 0x5706 JUMP JUMPDEST DUP1 PUSH1 0x1F ADD PUSH1 0x20 DUP1 SWAP2 DIV MUL PUSH1 0x20 ADD PUSH1 0x40 MLOAD SWAP1 DUP2 ADD PUSH1 0x40 MSTORE DUP1 SWAP3 SWAP2 SWAP1 DUP2 DUP2 MSTORE PUSH1 0x20 ADD DUP3 DUP1 SLOAD PUSH2 0x1D8F SWAP1 PUSH2 0x5706 JUMP JUMPDEST DUP1 ISZERO PUSH2 0x1DDC JUMPI DUP1 PUSH1 0x1F LT PUSH2 0x1DB1 JUMPI PUSH2 0x100 DUP1 DUP4 SLOAD DIV MUL DUP4 MSTORE SWAP2 PUSH1 0x20 ADD SWAP2 PUSH2 0x1DDC JUMP JUMPDEST DUP3 ADD SWAP2 SWAP1 PUSH1 0x0 MSTORE PUSH1 0x20 PUSH1 0x0 KECCAK256 SWAP1 JUMPDEST DUP2 SLOAD DUP2 MSTORE SWAP1 PUSH1 0x1 ADD SWAP1 PUSH1 0x20 ADD DUP1 DUP4 GT PUSH2 0x1DBF JUMPI DUP3 SWAP1 SUB PUSH1 0x1F AND DUP3 ADD SWAP2 JUMPDEST POP POP POP POP POP DUP2 JUMP JUMPDEST PUSH1 0x7 PUSH1 0x0 SWAP1 SLOAD SWAP1 PUSH2 0x100 EXP SWAP1 DIV PUSH20 0xFFFFFFFFFFFFFFFFFFFFFFFFFFFFFFFFFFFFFFFF AND PUSH20 0xFFFFFFFFFFFFFFFFFFFFFFFFFFFFFFFFFFFFFFFF AND CALLER PUSH20 0xFFFFFFFFFFFFFFFFFFFFFFFFFFFFFFFFFFFFFFFF AND EQ PUSH2 0x1E74 JUMPI PUSH1 0x40 MLOAD PUSH32 0x8C379A000000000000000000000000000000000000000000000000000000000 DUP2 MSTORE PUSH1 0x4 ADD PUSH2 0x1E6B SWAP1 PUSH2 0x53D6 JUMP JUMPDEST PUSH1 0x40 MLOAD DUP1 SWAP2 SUB SWAP1 REVERT JUMPDEST DUP1 PUSH1 0x7 PUSH1 0x0 PUSH2 0x100 EXP DUP2 SLOAD DUP2 PUSH20 0xFFFFFFFFFFFFFFFFFFFFFFFFFFFFFFFFFFFFFFFF MUL NOT AND SWAP1 DUP4 PUSH20 0xFFFFFFFFFFFFFFFFFFFFFFFFFFFFFFFFFFFFFFFF AND MUL OR SWAP1 SSTORE POP POP JUMP JUMPDEST PUSH1 0x0 PUSH1 0x1 PUSH1 0x0 DUP5 PUSH20 0xFFFFFFFFFFFFFFFFFFFFFFFFFFFFFFFFFFFFFFFF AND PUSH20 0xFFFFFFFFFFFFFFFFFFFFFFFFFFFFFFFFFFFFFFFF AND DUP2 MSTORE PUSH1 0x20 ADD SWAP1 DUP2 MSTORE PUSH1 0x20 ADD PUSH1 0x0 KECCAK256 PUSH1 0x0 DUP4 PUSH20 0xFFFFFFFFFFFFFFFFFFFFFFFFFFFFFFFFFFFFFFFF AND PUSH20 0xFFFFFFFFFFFFFFFFFFFFFFFFFFFFFFFFFFFFFFFF AND DUP2 MSTORE PUSH1 0x20 ADD SWAP1 DUP2 MSTORE PUSH1 0x20 ADD PUSH1 0x0 KECCAK256 PUSH1 0x0 SWAP1 SLOAD SWAP1 PUSH2 0x100 EXP SWAP1 DIV PUSH1 0xFF AND SWAP1 POP SWAP3 SWAP2 POP POP JUMP JUMPDEST PUSH2 0x1F54 PUSH2 0x2212 JUMP JUMPDEST PUSH20 0xFFFFFFFFFFFFFFFFFFFFFFFFFFFFFFFFFFFFFFFF AND DUP6 PUSH20 0xFFFFFFFFFFFFFFFFFFFFFFFFFFFFFFFFFFFFFFFF AND EQ DUP1 PUSH2 0x1F9A JUMPI POP PUSH2 0x1F99 DUP6 PUSH2 0x1F94 PUSH2 0x2212 JUMP JUMPDEST PUSH2 0x1EB8 JUMP JUMPDEST JUMPDEST PUSH2 0x1FD9 JUMPI PUSH1 0x40 MLOAD PUSH32 0x8C379A000000000000000000000000000000000000000000000000000000000 DUP2 MSTORE PUSH1 0x4 ADD PUSH2 0x1FD0 SWAP1 PUSH2 0x51CC JUMP JUMPDEST PUSH1 0x40 MLOAD DUP1 SWAP2 SUB SWAP1 REVERT JUMPDEST PUSH2 0x1FE6 DUP6 DUP6 DUP6 DUP6 DUP6 PUSH2 0x3581 JUMP JUMPDEST POP POP POP POP POP JUMP JUMPDEST PUSH2 0x1FF5 PUSH2 0x2212 JUMP JUMPDEST PUSH20 0xFFFFFFFFFFFFFFFFFFFFFFFFFFFFFFFFFFFFFFFF AND PUSH2 0x2013 PUSH2 0x1BFE JUMP JUMPDEST PUSH20 0xFFFFFFFFFFFFFFFFFFFFFFFFFFFFFFFFFFFFFFFF AND EQ PUSH2 0x2069 JUMPI PUSH1 0x40 MLOAD PUSH32 0x8C379A000000000000000000000000000000000000000000000000000000000 DUP2 MSTORE PUSH1 0x4 ADD PUSH2 0x2060 SWAP1 PUSH2 0x52F6 JUMP JUMPDEST PUSH1 0x40 MLOAD DUP1 SWAP2 SUB SWAP1 REVERT JUMPDEST PUSH1 0x0 PUSH20 0xFFFFFFFFFFFFFFFFFFFFFFFFFFFFFFFFFFFFFFFF AND DUP2 PUSH20 0xFFFFFFFFFFFFFFFFFFFFFFFFFFFFFFFFFFFFFFFF AND EQ ISZERO PUSH2 0x20D9 JUMPI PUSH1 0x40 MLOAD PUSH32 0x8C379A000000000000000000000000000000000000000000000000000000000 DUP2 MSTORE PUSH1 0x4 ADD PUSH2 0x20D0 SWAP1 PUSH2 0x50F8 JUMP JUMPDEST PUSH1 0x40 MLOAD DUP1 SWAP2 SUB SWAP1 REVERT JUMPDEST PUSH2 0x20E2 DUP2 PUSH2 0x308E JUMP JUMPDEST POP JUMP JUMPDEST PUSH2 0x20ED PUSH2 0x2212 JUMP JUMPDEST PUSH20 0xFFFFFFFFFFFFFFFFFFFFFFFFFFFFFFFFFFFFFFFF AND DUP4 PUSH20 0xFFFFFFFFFFFFFFFFFFFFFFFFFFFFFFFFFFFFFFFF AND EQ DUP1 PUSH2 0x2133 JUMPI POP PUSH2 0x2132 DUP4 PUSH2 0x212D PUSH2 0x2212 JUMP JUMPDEST PUSH2 0x1EB8 JUMP JUMPDEST JUMPDEST PUSH2 0x2172 JUMPI PUSH1 0x40 MLOAD PUSH32 0x8C379A000000000000000000000000000000000000000000000000000000000 DUP2 MSTORE PUSH1 0x4 ADD PUSH2 0x2169 SWAP1 PUSH2 0x51CC JUMP JUMPDEST PUSH1 0x40 MLOAD DUP1 SWAP2 SUB SWAP1 REVERT JUMPDEST PUSH2 0x217D DUP4 DUP4 DUP4 PUSH2 0x3364 JUMP JUMPDEST POP POP POP JUMP JUMPDEST PUSH1 0x7 PUSH1 0x0 SWAP1 SLOAD SWAP1 PUSH2 0x100 EXP SWAP1 DIV PUSH20 0xFFFFFFFFFFFFFFFFFFFFFFFFFFFFFFFFFFFFFFFF AND DUP2 JUMP JUMPDEST PUSH1 0x0 PUSH32 0x1FFC9A700000000000000000000000000000000000000000000000000000000 PUSH28 0xFFFFFFFFFFFFFFFFFFFFFFFFFFFFFFFFFFFFFFFFFFFFFFFFFFFFFFFF NOT AND DUP3 PUSH28 0xFFFFFFFFFFFFFFFFFFFFFFFFFFFFFFFFFFFFFFFFFFFFFFFFFFFFFFFF NOT AND EQ SWAP1 POP SWAP2 SWAP1 POP JUMP JUMPDEST PUSH1 0x0 CALLER SWAP1 POP SWAP1 JUMP JUMPDEST DUP2 MLOAD DUP4 MLOAD EQ PUSH2 0x225E JUMPI PUSH1 0x40 MLOAD PUSH32 0x8C379A000000000000000000000000000000000000000000000000000000000 DUP2 MSTORE PUSH1 0x4 ADD PUSH2 0x2255 SWAP1 PUSH2 0x5396 JUMP JUMPDEST PUSH1 0x40 MLOAD DUP1 SWAP2 SUB SWAP1 REVERT JUMPDEST PUSH1 0x0 PUSH20 0xFFFFFFFFFFFFFFFFFFFFFFFFFFFFFFFFFFFFFFFF AND DUP5 PUSH20 0xFFFFFFFFFFFFFFFFFFFFFFFFFFFFFFFFFFFFFFFF AND EQ ISZERO PUSH2 0x22CE JUMPI PUSH1 0x40 MLOAD PUSH32 0x8C379A000000000000000000000000000000000000000000000000000000000 DUP2 MSTORE PUSH1 0x4 ADD PUSH2 0x22C5 SWAP1 PUSH2 0x522C JUMP JUMPDEST PUSH1 0x40 MLOAD DUP1 SWAP2 SUB SWAP1 REVERT JUMPDEST PUSH1 0x0 PUSH2 0x22D8 PUSH2 0x2212 JUMP JUMPDEST SWAP1 POP PUSH2 0x22E8 DUP2 DUP8 DUP8 DUP8 DUP8 DUP8 PUSH2 0x3803 JUMP JUMPDEST PUSH1 0x0 JUMPDEST DUP5 MLOAD DUP2 LT ISZERO PUSH2 0x2499 JUMPI PUSH1 0x0 DUP6 DUP3 DUP2 MLOAD DUP2 LT PUSH2 0x2309 JUMPI PUSH2 0x2308 PUSH2 0x5810 JUMP JUMPDEST JUMPDEST PUSH1 0x20 MUL PUSH1 0x20 ADD ADD MLOAD SWAP1 POP PUSH1 0x0 DUP6 DUP4 DUP2 MLOAD DUP2 LT PUSH2 0x2328 JUMPI PUSH2 0x2327 PUSH2 0x5810 JUMP JUMPDEST JUMPDEST PUSH1 0x20 MUL PUSH1 0x20 ADD ADD MLOAD SWAP1 POP PUSH1 0x0 DUP1 PUSH1 0x0 DUP5 DUP2 MSTORE PUSH1 0x20 ADD SWAP1 DUP2 MSTORE PUSH1 0x20 ADD PUSH1 0x0 KECCAK256 PUSH1 0x0 DUP12 PUSH20 0xFFFFFFFFFFFFFFFFFFFFFFFFFFFFFFFFFFFFFFFF AND PUSH20 0xFFFFFFFFFFFFFFFFFFFFFFFFFFFFFFFFFFFFFFFF AND DUP2 MSTORE PUSH1 0x20 ADD SWAP1 DUP2 MSTORE PUSH1 0x20 ADD PUSH1 0x0 KECCAK256 SLOAD SWAP1 POP DUP2 DUP2 LT ISZERO PUSH2 0x23C9 JUMPI PUSH1 0x40 MLOAD PUSH32 0x8C379A000000000000000000000000000000000000000000000000000000000 DUP2 MSTORE PUSH1 0x4 ADD PUSH2 0x23C0 SWAP1 PUSH2 0x528C JUMP JUMPDEST PUSH1 0x40 MLOAD DUP1 SWAP2 SUB SWAP1 REVERT JUMPDEST DUP2 DUP2 SUB PUSH1 0x0 DUP1 DUP6 DUP2 MSTORE PUSH1 0x20 ADD SWAP1 DUP2 MSTORE PUSH1 0x20 ADD PUSH1 0x0 KECCAK256 PUSH1 0x0 DUP13 PUSH20 0xFFFFFFFFFFFFFFFFFFFFFFFFFFFFFFFFFFFFFFFF AND PUSH20 0xFFFFFFFFFFFFFFFFFFFFFFFFFFFFFFFFFFFFFFFF AND DUP2 MSTORE PUSH1 0x20 ADD SWAP1 DUP2 MSTORE PUSH1 0x20 ADD PUSH1 0x0 KECCAK256 DUP2 SWAP1 SSTORE POP DUP2 PUSH1 0x0 DUP1 DUP6 DUP2 MSTORE PUSH1 0x20 ADD SWAP1 DUP2 MSTORE PUSH1 0x20 ADD PUSH1 0x0 KECCAK256 PUSH1 0x0 DUP12 PUSH20 0xFFFFFFFFFFFFFFFFFFFFFFFFFFFFFFFFFFFFFFFF AND PUSH20 0xFFFFFFFFFFFFFFFFFFFFFFFFFFFFFFFFFFFFFFFF AND DUP2 MSTORE PUSH1 0x20 ADD SWAP1 DUP2 MSTORE PUSH1 0x20 ADD PUSH1 0x0 KECCAK256 PUSH1 0x0 DUP3 DUP3 SLOAD PUSH2 0x247E SWAP2 SWAP1 PUSH2 0x558A JUMP JUMPDEST SWAP3 POP POP DUP2 SWAP1 SSTORE POP POP POP POP DUP1 PUSH2 0x2492 SWAP1 PUSH2 0x5769 JUMP JUMPDEST SWAP1 POP PUSH2 0x22EB JUMP JUMPDEST POP DUP5 PUSH20 0xFFFFFFFFFFFFFFFFFFFFFFFFFFFFFFFFFFFFFFFF AND DUP7 PUSH20 0xFFFFFFFFFFFFFFFFFFFFFFFFFFFFFFFFFFFFFFFF AND DUP3 PUSH20 0xFFFFFFFFFFFFFFFFFFFFFFFFFFFFFFFFFFFFFFFF AND PUSH32 0x4A39DC06D4C0DBC64B70AF90FD698A233A518AA5D07E595D983B8C0526C8F7FB DUP8 DUP8 PUSH1 0x40 MLOAD PUSH2 0x2510 SWAP3 SWAP2 SWAP1 PUSH2 0x4F7A JUMP JUMPDEST PUSH1 0x40 MLOAD DUP1 SWAP2 SUB SWAP1 LOG4 PUSH2 0x2526 DUP2 DUP8 DUP8 DUP8 DUP8 DUP8 PUSH2 0x3861 JUMP JUMPDEST POP POP POP POP POP POP JUMP JUMPDEST PUSH2 0x2536 PUSH2 0x16FA JUMP JUMPDEST PUSH2 0x2575 JUMPI PUSH1 0x40 MLOAD PUSH32 0x8C379A000000000000000000000000000000000000000000000000000000000 DUP2 MSTORE PUSH1 0x4 ADD PUSH2 0x256C SWAP1 PUSH2 0x504E JUMP JUMPDEST PUSH1 0x40 MLOAD DUP1 SWAP2 SUB SWAP1 REVERT JUMPDEST PUSH1 0x0 PUSH1 0x3 PUSH1 0x14 PUSH2 0x100 EXP DUP2 SLOAD DUP2 PUSH1 0xFF MUL NOT AND SWAP1 DUP4 ISZERO ISZERO MUL OR SWAP1 SSTORE POP PUSH32 0x5DB9EE0A495BF2E6FF9C91A7834C1BA4FDD244A5E8AA4E537BD38AEAE4B073AA PUSH2 0x25B9 PUSH2 0x2212 JUMP JUMPDEST PUSH1 0x40 MLOAD PUSH2 0x25C6 SWAP2 SWAP1 PUSH2 0x4E7B JUMP JUMPDEST PUSH1 0x40 MLOAD DUP1 SWAP2 SUB SWAP1 LOG1 JUMP JUMPDEST PUSH2 0x25D8 PUSH2 0x2212 JUMP JUMPDEST PUSH20 0xFFFFFFFFFFFFFFFFFFFFFFFFFFFFFFFFFFFFFFFF AND PUSH2 0x25F6 PUSH2 0x1BFE JUMP JUMPDEST PUSH20 0xFFFFFFFFFFFFFFFFFFFFFFFFFFFFFFFFFFFFFFFF AND EQ PUSH2 0x264C JUMPI PUSH1 0x40 MLOAD PUSH32 0x8C379A000000000000000000000000000000000000000000000000000000000 DUP2 MSTORE PUSH1 0x4 ADD PUSH2 0x2643 SWAP1 PUSH2 0x52F6 JUMP JUMPDEST PUSH1 0x40 MLOAD DUP1 SWAP2 SUB SWAP1 REVERT JUMPDEST DUP1 PUSH32 0xA2455EC11F160D321516C021994881E7678C0B5870CD7AAE50107098770E2C28 CALLER PUSH1 0x0 PUSH1 0xD PUSH1 0x0 CALLER PUSH20 0xFFFFFFFFFFFFFFFFFFFFFFFFFFFFFFFFFFFFFFFF AND PUSH20 0xFFFFFFFFFFFFFFFFFFFFFFFFFFFFFFFFFFFFFFFF AND DUP2 MSTORE PUSH1 0x20 ADD SWAP1 DUP2 MSTORE PUSH1 0x20 ADD PUSH1 0x0 KECCAK256 SLOAD PUSH1 0x40 MLOAD PUSH2 0x26C0 SWAP4 SWAP3 SWAP2 SWAP1 PUSH2 0x506E JUMP JUMPDEST PUSH1 0x40 MLOAD DUP1 SWAP2 SUB SWAP1 LOG1 PUSH1 0x8 DUP1 SLOAD SWAP1 POP DUP2 GT ISZERO DUP1 ISZERO PUSH2 0x26DD JUMPI POP PUSH1 0x0 DUP2 GT JUMPDEST PUSH2 0x271C JUMPI PUSH1 0x40 MLOAD PUSH32 0x8C379A000000000000000000000000000000000000000000000000000000000 DUP2 MSTORE PUSH1 0x4 ADD PUSH2 0x2713 SWAP1 PUSH2 0x500E JUMP JUMPDEST PUSH1 0x40 MLOAD DUP1 SWAP2 SUB SWAP1 REVERT JUMPDEST PUSH1 0x0 PUSH1 0xD PUSH1 0x0 DUP6 PUSH20 0xFFFFFFFFFFFFFFFFFFFFFFFFFFFFFFFFFFFFFFFF AND PUSH20 0xFFFFFFFFFFFFFFFFFFFFFFFFFFFFFFFFFFFFFFFF AND DUP2 MSTORE PUSH1 0x20 ADD SWAP1 DUP2 MSTORE PUSH1 0x20 ADD PUSH1 0x0 KECCAK256 SLOAD EQ PUSH2 0x2876 JUMPI PUSH1 0x1 DUP3 EQ ISZERO PUSH2 0x27B6 JUMPI PUSH1 0x0 PUSH1 0xD PUSH1 0x0 DUP6 PUSH20 0xFFFFFFFFFFFFFFFFFFFFFFFFFFFFFFFFFFFFFFFF AND PUSH20 0xFFFFFFFFFFFFFFFFFFFFFFFFFFFFFFFFFFFFFFFF AND DUP2 MSTORE PUSH1 0x20 ADD SWAP1 DUP2 MSTORE PUSH1 0x20 ADD PUSH1 0x0 KECCAK256 DUP2 SWAP1 SSTORE POP PUSH2 0x283C JUMP JUMPDEST PUSH1 0x1 PUSH1 0xD PUSH1 0x0 DUP6 PUSH20 0xFFFFFFFFFFFFFFFFFFFFFFFFFFFFFFFFFFFFFFFF AND PUSH20 0xFFFFFFFFFFFFFFFFFFFFFFFFFFFFFFFFFFFFFFFF AND DUP2 MSTORE PUSH1 0x20 ADD SWAP1 DUP2 MSTORE PUSH1 0x20 ADD PUSH1 0x0 KECCAK256 DUP2 SWAP1 SSTORE POP PUSH1 0xB PUSH1 0x1 DUP4 PUSH2 0x280A SWAP2 SWAP1 PUSH2 0x55E0 JUMP JUMPDEST DUP2 SLOAD DUP2 LT PUSH2 0x281B JUMPI PUSH2 0x281A PUSH2 0x5810 JUMP JUMPDEST JUMPDEST SWAP1 PUSH1 0x0 MSTORE PUSH1 0x20 PUSH1 0x0 KECCAK256 ADD PUSH1 0x0 DUP2 SLOAD DUP1 SWAP3 SWAP2 SWAP1 PUSH2 0x2836 SWAP1 PUSH2 0x56DC JUMP JUMPDEST SWAP2 SWAP1 POP SSTORE POP JUMPDEST PUSH1 0xB PUSH1 0x0 DUP2 SLOAD DUP2 LT PUSH2 0x2851 JUMPI PUSH2 0x2850 PUSH2 0x5810 JUMP JUMPDEST JUMPDEST SWAP1 PUSH1 0x0 MSTORE PUSH1 0x20 PUSH1 0x0 KECCAK256 ADD PUSH1 0x0 DUP2 SLOAD DUP1 SWAP3 SWAP2 SWAP1 PUSH2 0x286C SWAP1 PUSH2 0x56DC JUMP JUMPDEST SWAP2 SWAP1 POP SSTORE POP PUSH2 0x291B JUMP JUMPDEST PUSH32 0xA2455EC11F160D321516C021994881E7678C0B5870CD7AAE50107098770E2C28 DUP4 PUSH1 0xB PUSH1 0x1 DUP6 PUSH2 0x28A7 SWAP2 SWAP1 PUSH2 0x55E0 JUMP JUMPDEST DUP2 SLOAD DUP2 LT PUSH2 0x28B8 JUMPI PUSH2 0x28B7 PUSH2 0x5810 JUMP JUMPDEST JUMPDEST SWAP1 PUSH1 0x0 MSTORE PUSH1 0x20 PUSH1 0x0 KECCAK256 ADD SLOAD PUSH1 0xD PUSH1 0x0 DUP8 PUSH20 0xFFFFFFFFFFFFFFFFFFFFFFFFFFFFFFFFFFFFFFFF AND PUSH20 0xFFFFFFFFFFFFFFFFFFFFFFFFFFFFFFFFFFFFFFFF AND DUP2 MSTORE PUSH1 0x20 ADD SWAP1 DUP2 MSTORE PUSH1 0x20 ADD PUSH1 0x0 KECCAK256 SLOAD PUSH1 0x40 MLOAD PUSH2 0x2912 SWAP4 SWAP3 SWAP2 SWAP1 PUSH2 0x52AC JUMP JUMPDEST PUSH1 0x40 MLOAD DUP1 SWAP2 SUB SWAP1 LOG1 JUMPDEST POP POP POP JUMP JUMPDEST PUSH1 0x0 PUSH20 0xFFFFFFFFFFFFFFFFFFFFFFFFFFFFFFFFFFFFFFFF AND DUP4 PUSH20 0xFFFFFFFFFFFFFFFFFFFFFFFFFFFFFFFFFFFFFFFF AND EQ ISZERO PUSH2 0x2990 JUMPI PUSH1 0x40 MLOAD PUSH32 0x8C379A000000000000000000000000000000000000000000000000000000000 DUP2 MSTORE PUSH1 0x4 ADD PUSH2 0x2987 SWAP1 PUSH2 0x526C JUMP JUMPDEST PUSH1 0x40 MLOAD DUP1 SWAP2 SUB SWAP1 REVERT JUMPDEST DUP1 MLOAD DUP3 MLOAD EQ PUSH2 0x29D4 JUMPI PUSH1 0x40 MLOAD PUSH32 0x8C379A000000000000000000000000000000000000000000000000000000000 DUP2 MSTORE PUSH1 0x4 ADD PUSH2 0x29CB SWAP1 PUSH2 0x5396 JUMP JUMPDEST PUSH1 0x40 MLOAD DUP1 SWAP2 SUB SWAP1 REVERT JUMPDEST PUSH1 0x0 PUSH2 0x29DE PUSH2 0x2212 JUMP JUMPDEST SWAP1 POP PUSH2 0x29FE DUP2 DUP6 PUSH1 0x0 DUP7 DUP7 PUSH1 0x40 MLOAD DUP1 PUSH1 0x20 ADD PUSH1 0x40 MSTORE DUP1 PUSH1 0x0 DUP2 MSTORE POP PUSH2 0x3803 JUMP JUMPDEST PUSH1 0x0 JUMPDEST DUP4 MLOAD DUP2 LT ISZERO PUSH2 0x2B4B JUMPI PUSH1 0x0 DUP5 DUP3 DUP2 MLOAD DUP2 LT PUSH2 0x2A1F JUMPI PUSH2 0x2A1E PUSH2 0x5810 JUMP JUMPDEST JUMPDEST PUSH1 0x20 MUL PUSH1 0x20 ADD ADD MLOAD SWAP1 POP PUSH1 0x0 DUP5 DUP4 DUP2 MLOAD DUP2 LT PUSH2 0x2A3E JUMPI PUSH2 0x2A3D PUSH2 0x5810 JUMP JUMPDEST JUMPDEST PUSH1 0x20 MUL PUSH1 0x20 ADD ADD MLOAD SWAP1 POP PUSH1 0x0 DUP1 PUSH1 0x0 DUP5 DUP2 MSTORE PUSH1 0x20 ADD SWAP1 DUP2 MSTORE PUSH1 0x20 ADD PUSH1 0x0 KECCAK256 PUSH1 0x0 DUP10 PUSH20 0xFFFFFFFFFFFFFFFFFFFFFFFFFFFFFFFFFFFFFFFF AND PUSH20 0xFFFFFFFFFFFFFFFFFFFFFFFFFFFFFFFFFFFFFFFF AND DUP2 MSTORE PUSH1 0x20 ADD SWAP1 DUP2 MSTORE PUSH1 0x20 ADD PUSH1 0x0 KECCAK256 SLOAD SWAP1 POP DUP2 DUP2 LT ISZERO PUSH2 0x2ADF JUMPI PUSH1 0x40 MLOAD PUSH32 0x8C379A000000000000000000000000000000000000000000000000000000000 DUP2 MSTORE PUSH1 0x4 ADD PUSH2 0x2AD6 SWAP1 PUSH2 0x5162 JUMP JUMPDEST PUSH1 0x40 MLOAD DUP1 SWAP2 SUB SWAP1 REVERT JUMPDEST DUP2 DUP2 SUB PUSH1 0x0 DUP1 DUP6 DUP2 MSTORE PUSH1 0x20 ADD SWAP1 DUP2 MSTORE PUSH1 0x20 ADD PUSH1 0x0 KECCAK256 PUSH1 0x0 DUP11 PUSH20 0xFFFFFFFFFFFFFFFFFFFFFFFFFFFFFFFFFFFFFFFF AND PUSH20 0xFFFFFFFFFFFFFFFFFFFFFFFFFFFFFFFFFFFFFFFF AND DUP2 MSTORE PUSH1 0x20 ADD SWAP1 DUP2 MSTORE PUSH1 0x20 ADD PUSH1 0x0 KECCAK256 DUP2 SWAP1 SSTORE POP POP POP POP DUP1 DUP1 PUSH2 0x2B43 SWAP1 PUSH2 0x5769 JUMP JUMPDEST SWAP2 POP POP PUSH2 0x2A01 JUMP JUMPDEST POP PUSH1 0x0 PUSH20 0xFFFFFFFFFFFFFFFFFFFFFFFFFFFFFFFFFFFFFFFF AND DUP5 PUSH20 0xFFFFFFFFFFFFFFFFFFFFFFFFFFFFFFFFFFFFFFFF AND DUP3 PUSH20 0xFFFFFFFFFFFFFFFFFFFFFFFFFFFFFFFFFFFFFFFF AND PUSH32 0x4A39DC06D4C0DBC64B70AF90FD698A233A518AA5D07E595D983B8C0526C8F7FB DUP7 DUP7 PUSH1 0x40 MLOAD PUSH2 0x2BC3 SWAP3 SWAP2 SWAP1 PUSH2 0x4F7A JUMP JUMPDEST PUSH1 0x40 MLOAD DUP1 SWAP2 SUB SWAP1 LOG4 POP POP POP POP JUMP JUMPDEST PUSH1 0x0 PUSH20 0xFFFFFFFFFFFFFFFFFFFFFFFFFFFFFFFFFFFFFFFF AND DUP5 PUSH20 0xFFFFFFFFFFFFFFFFFFFFFFFFFFFFFFFFFFFFFFFF AND EQ ISZERO PUSH2 0x2C41 JUMPI PUSH1 0x40 MLOAD PUSH32 0x8C379A000000000000000000000000000000000000000000000000000000000 DUP2 MSTORE PUSH1 0x4 ADD PUSH2 0x2C38 SWAP1 PUSH2 0x53B6 JUMP JUMPDEST PUSH1 0x40 MLOAD DUP1 SWAP2 SUB SWAP1 REVERT JUMPDEST DUP2 MLOAD DUP4 MLOAD EQ PUSH2 0x2C85 JUMPI PUSH1 0x40 MLOAD PUSH32 0x8C379A000000000000000000000000000000000000000000000000000000000 DUP2 MSTORE PUSH1 0x4 ADD PUSH2 0x2C7C SWAP1 PUSH2 0x5396 JUMP JUMPDEST PUSH1 0x40 MLOAD DUP1 SWAP2 SUB SWAP1 REVERT JUMPDEST PUSH1 0x0 PUSH2 0x2C8F PUSH2 0x2212 JUMP JUMPDEST SWAP1 POP PUSH2 0x2CA0 DUP2 PUSH1 0x0 DUP8 DUP8 DUP8 DUP8 PUSH2 0x3803 JUMP JUMPDEST PUSH1 0x0 JUMPDEST DUP5 MLOAD DUP2 LT ISZERO PUSH2 0x2D59 JUMPI DUP4 DUP2 DUP2 MLOAD DUP2 LT PUSH2 0x2CBF JUMPI PUSH2 0x2CBE PUSH2 0x5810 JUMP JUMPDEST JUMPDEST PUSH1 0x20 MUL PUSH1 0x20 ADD ADD MLOAD PUSH1 0x0 DUP1 DUP8 DUP5 DUP2 MLOAD DUP2 LT PUSH2 0x2CDD JUMPI PUSH2 0x2CDC PUSH2 0x5810 JUMP JUMPDEST JUMPDEST PUSH1 0x20 MUL PUSH1 0x20 ADD ADD MLOAD DUP2 MSTORE PUSH1 0x20 ADD SWAP1 DUP2 MSTORE PUSH1 0x20 ADD PUSH1 0x0 KECCAK256 PUSH1 0x0 DUP9 PUSH20 0xFFFFFFFFFFFFFFFFFFFFFFFFFFFFFFFFFFFFFFFF AND PUSH20 0xFFFFFFFFFFFFFFFFFFFFFFFFFFFFFFFFFFFFFFFF AND DUP2 MSTORE PUSH1 0x20 ADD SWAP1 DUP2 MSTORE PUSH1 0x20 ADD PUSH1 0x0 KECCAK256 PUSH1 0x0 DUP3 DUP3 SLOAD PUSH2 0x2D3F SWAP2 SWAP1 PUSH2 0x558A JUMP JUMPDEST SWAP3 POP POP DUP2 SWAP1 SSTORE POP DUP1 DUP1 PUSH2 0x2D51 SWAP1 PUSH2 0x5769 JUMP JUMPDEST SWAP2 POP POP PUSH2 0x2CA3 JUMP JUMPDEST POP DUP5 PUSH20 0xFFFFFFFFFFFFFFFFFFFFFFFFFFFFFFFFFFFFFFFF AND PUSH1 0x0 PUSH20 0xFFFFFFFFFFFFFFFFFFFFFFFFFFFFFFFFFFFFFFFF AND DUP3 PUSH20 0xFFFFFFFFFFFFFFFFFFFFFFFFFFFFFFFFFFFFFFFF AND PUSH32 0x4A39DC06D4C0DBC64B70AF90FD698A233A518AA5D07E595D983B8C0526C8F7FB DUP8 DUP8 PUSH1 0x40 MLOAD PUSH2 0x2DD1 SWAP3 SWAP2 SWAP1 PUSH2 0x4F7A JUMP JUMPDEST PUSH1 0x40 MLOAD DUP1 SWAP2 SUB SWAP1 LOG4 PUSH2 0x2DE8 DUP2 PUSH1 0x0 DUP8 DUP8 DUP8 DUP8 PUSH2 0x3861 JUMP JUMPDEST POP POP POP POP POP JUMP JUMPDEST PUSH2 0x2DF7 PUSH2 0x16FA JUMP JUMPDEST ISZERO PUSH2 0x2E37 JUMPI PUSH1 0x40 MLOAD PUSH32 0x8C379A000000000000000000000000000000000000000000000000000000000 DUP2 MSTORE PUSH1 0x4 ADD PUSH2 0x2E2E SWAP1 PUSH2 0x520C JUMP JUMPDEST PUSH1 0x40 MLOAD DUP1 SWAP2 SUB SWAP1 REVERT JUMPDEST DUP2 PUSH32 0xA2455EC11F160D321516C021994881E7678C0B5870CD7AAE50107098770E2C28 CALLER PUSH1 0x0 PUSH1 0xD PUSH1 0x0 CALLER PUSH20 0xFFFFFFFFFFFFFFFFFFFFFFFFFFFFFFFFFFFFFFFF AND PUSH20 0xFFFFFFFFFFFFFFFFFFFFFFFFFFFFFFFFFFFFFFFF AND DUP2 MSTORE PUSH1 0x20 ADD SWAP1 DUP2 MSTORE PUSH1 0x20 ADD PUSH1 0x0 KECCAK256 SLOAD PUSH1 0x40 MLOAD PUSH2 0x2EAB SWAP4 SWAP3 SWAP2 SWAP1 PUSH2 0x5118 JUMP JUMPDEST PUSH1 0x40 MLOAD DUP1 SWAP2 SUB SWAP1 LOG1 PUSH1 0x0 PUSH1 0xD PUSH1 0x0 DUP4 PUSH20 0xFFFFFFFFFFFFFFFFFFFFFFFFFFFFFFFFFFFFFFFF AND PUSH20 0xFFFFFFFFFFFFFFFFFFFFFFFFFFFFFFFFFFFFFFFF AND DUP2 MSTORE PUSH1 0x20 ADD SWAP1 DUP2 MSTORE PUSH1 0x20 ADD PUSH1 0x0 KECCAK256 SLOAD EQ ISZERO PUSH2 0x2F36 JUMPI PUSH1 0x40 MLOAD PUSH32 0x8C379A000000000000000000000000000000000000000000000000000000000 DUP2 MSTORE PUSH1 0x4 ADD PUSH2 0x2F2D SWAP1 PUSH2 0x5316 JUMP JUMPDEST PUSH1 0x40 MLOAD DUP1 SWAP2 SUB SWAP1 REVERT JUMPDEST PUSH1 0x8 DUP1 SLOAD SWAP1 POP DUP3 GT ISZERO DUP1 ISZERO PUSH2 0x2F4B JUMPI POP PUSH1 0x0 DUP3 GT JUMPDEST PUSH2 0x2F8A JUMPI PUSH1 0x40 MLOAD PUSH32 0x8C379A000000000000000000000000000000000000000000000000000000000 DUP2 MSTORE PUSH1 0x4 ADD PUSH2 0x2F81 SWAP1 PUSH2 0x500E JUMP JUMPDEST PUSH1 0x40 MLOAD DUP1 SWAP2 SUB SWAP1 REVERT JUMPDEST PUSH1 0x8 PUSH1 0x1 DUP4 PUSH2 0x2F99 SWAP2 SWAP1 PUSH2 0x55E0 JUMP JUMPDEST DUP2 SLOAD DUP2 LT PUSH2 0x2FAA JUMPI PUSH2 0x2FA9 PUSH2 0x5810 JUMP JUMPDEST JUMPDEST SWAP1 PUSH1 0x0 MSTORE PUSH1 0x20 PUSH1 0x0 KECCAK256 ADD SLOAD PUSH1 0x1 PUSH1 0x9 PUSH1 0x1 DUP6 PUSH2 0x2FC6 SWAP2 SWAP1 PUSH2 0x55E0 JUMP JUMPDEST DUP2 SLOAD DUP2 LT PUSH2 0x2FD7 JUMPI PUSH2 0x2FD6 PUSH2 0x5810 JUMP JUMPDEST JUMPDEST SWAP1 PUSH1 0x0 MSTORE PUSH1 0x20 PUSH1 0x0 KECCAK256 ADD SLOAD PUSH2 0x2FEC SWAP2 SWAP1 PUSH2 0x558A JUMP JUMPDEST GT ISZERO PUSH2 0x302D JUMPI PUSH1 0x40 MLOAD PUSH32 0x8C379A000000000000000000000000000000000000000000000000000000000 DUP2 MSTORE PUSH1 0x4 ADD PUSH2 0x3024 SWAP1 PUSH2 0x50B8 JUMP JUMPDEST PUSH1 0x40 MLOAD DUP1 SWAP2 SUB SWAP1 REVERT JUMPDEST PUSH2 0x3049 DUP4 DUP4 PUSH1 0x1 PUSH1 0x40 MLOAD DUP1 PUSH1 0x20 ADD PUSH1 0x40 MSTORE DUP1 PUSH1 0x0 DUP2 MSTORE POP PUSH2 0x3A48 JUMP JUMPDEST PUSH1 0x9 PUSH1 0x1 DUP4 PUSH2 0x3058 SWAP2 SWAP1 PUSH2 0x55E0 JUMP JUMPDEST DUP2 SLOAD DUP2 LT PUSH2 0x3069 JUMPI PUSH2 0x3068 PUSH2 0x5810 JUMP JUMPDEST JUMPDEST SWAP1 PUSH1 0x0 MSTORE PUSH1 0x20 PUSH1 0x0 KECCAK256 ADD PUSH1 0x0 DUP2 SLOAD DUP1 SWAP3 SWAP2 SWAP1 PUSH2 0x3084 SWAP1 PUSH2 0x5769 JUMP JUMPDEST SWAP2 SWAP1 POP SSTORE POP POP POP POP JUMP JUMPDEST PUSH1 0x0 PUSH1 0x3 PUSH1 0x0 SWAP1 SLOAD SWAP1 PUSH2 0x100 EXP SWAP1 DIV PUSH20 0xFFFFFFFFFFFFFFFFFFFFFFFFFFFFFFFFFFFFFFFF AND SWAP1 POP DUP2 PUSH1 0x3 PUSH1 0x0 PUSH2 0x100 EXP DUP2 SLOAD DUP2 PUSH20 0xFFFFFFFFFFFFFFFFFFFFFFFFFFFFFFFFFFFFFFFF MUL NOT AND SWAP1 DUP4 PUSH20 0xFFFFFFFFFFFFFFFFFFFFFFFFFFFFFFFFFFFFFFFF AND MUL OR SWAP1 SSTORE POP DUP2 PUSH20 0xFFFFFFFFFFFFFFFFFFFFFFFFFFFFFFFFFFFFFFFF AND DUP2 PUSH20 0xFFFFFFFFFFFFFFFFFFFFFFFFFFFFFFFFFFFFFFFF AND PUSH32 0x8BE0079C531659141344CD1FD0A4F28419497F9722A3DAAFE3B4186F6B6457E0 PUSH1 0x40 MLOAD PUSH1 0x40 MLOAD DUP1 SWAP2 SUB SWAP1 LOG3 POP POP JUMP JUMPDEST PUSH2 0x315C PUSH2 0x16FA JUMP JUMPDEST ISZERO PUSH2 0x319C JUMPI PUSH1 0x40 MLOAD PUSH32 0x8C379A000000000000000000000000000000000000000000000000000000000 DUP2 MSTORE PUSH1 0x4 ADD PUSH2 0x3193 SWAP1 PUSH2 0x520C JUMP JUMPDEST PUSH1 0x40 MLOAD DUP1 SWAP2 SUB SWAP1 REVERT JUMPDEST PUSH1 0x1 PUSH1 0x3 PUSH1 0x14 PUSH2 0x100 EXP DUP2 SLOAD DUP2 PUSH1 0xFF MUL NOT AND SWAP1 DUP4 ISZERO ISZERO MUL OR SWAP1 SSTORE POP PUSH32 0x62E78CEA01BEE320CD4E420270B5EA74000D11B0C9F74754EBDBFC544B05A258 PUSH2 0x31E0 PUSH2 0x2212 JUMP JUMPDEST PUSH1 0x40 MLOAD PUSH2 0x31ED SWAP2 SWAP1 PUSH2 0x4E7B JUMP JUMPDEST PUSH1 0x40 MLOAD DUP1 SWAP2 SUB SWAP1 LOG1 JUMP JUMPDEST DUP2 PUSH20 0xFFFFFFFFFFFFFFFFFFFFFFFFFFFFFFFFFFFFFFFF AND DUP4 PUSH20 0xFFFFFFFFFFFFFFFFFFFFFFFFFFFFFFFFFFFFFFFF AND EQ ISZERO PUSH2 0x3266 JUMPI PUSH1 0x40 MLOAD PUSH32 0x8C379A000000000000000000000000000000000000000000000000000000000 DUP2 MSTORE PUSH1 0x4 ADD PUSH2 0x325D SWAP1 PUSH2 0x5356 JUMP JUMPDEST PUSH1 0x40 MLOAD DUP1 SWAP2 SUB SWAP1 REVERT JUMPDEST DUP1 PUSH1 0x1 PUSH1 0x0 DUP6 PUSH20 0xFFFFFFFFFFFFFFFFFFFFFFFFFFFFFFFFFFFFFFFF AND PUSH20 0xFFFFFFFFFFFFFFFFFFFFFFFFFFFFFFFFFFFFFFFF AND DUP2 MSTORE PUSH1 0x20 ADD SWAP1 DUP2 MSTORE PUSH1 0x20 ADD PUSH1 0x0 KECCAK256 PUSH1 0x0 DUP5 PUSH20 0xFFFFFFFFFFFFFFFFFFFFFFFFFFFFFFFFFFFFFFFF AND PUSH20 0xFFFFFFFFFFFFFFFFFFFFFFFFFFFFFFFFFFFFFFFF AND DUP2 MSTORE PUSH1 0x20 ADD SWAP1 DUP2 MSTORE PUSH1 0x20 ADD PUSH1 0x0 KECCAK256 PUSH1 0x0 PUSH2 0x100 EXP DUP2 SLOAD DUP2 PUSH1 0xFF MUL NOT AND SWAP1 DUP4 ISZERO ISZERO MUL OR SWAP1 SSTORE POP DUP2 PUSH20 0xFFFFFFFFFFFFFFFFFFFFFFFFFFFFFFFFFFFFFFFF AND DUP4 PUSH20 0xFFFFFFFFFFFFFFFFFFFFFFFFFFFFFFFFFFFFFFFF AND PUSH32 0x17307EAB39AB6107E8899845AD3D59BD9653F200F220920489CA2B5937696C31 DUP4 PUSH1 0x40 MLOAD PUSH2 0x3357 SWAP2 SWAP1 PUSH2 0x4FB1 JUMP JUMPDEST PUSH1 0x40 MLOAD DUP1 SWAP2 SUB SWAP1 LOG3 POP POP POP JUMP JUMPDEST PUSH1 0x0 PUSH20 0xFFFFFFFFFFFFFFFFFFFFFFFFFFFFFFFFFFFFFFFF AND DUP4 PUSH20 0xFFFFFFFFFFFFFFFFFFFFFFFFFFFFFFFFFFFFFFFF AND EQ ISZERO PUSH2 0x33D4 JUMPI PUSH1 0x40 MLOAD PUSH32 0x8C379A000000000000000000000000000000000000000000000000000000000 DUP2 MSTORE PUSH1 0x4 ADD PUSH2 0x33CB SWAP1 PUSH2 0x526C JUMP JUMPDEST PUSH1 0x40 MLOAD DUP1 SWAP2 SUB SWAP1 REVERT JUMPDEST PUSH1 0x0 PUSH2 0x33DE PUSH2 0x2212 JUMP JUMPDEST SWAP1 POP PUSH2 0x340E DUP2 DUP6 PUSH1 0x0 PUSH2 0x33F0 DUP8 PUSH2 0x3BDE JUMP JUMPDEST PUSH2 0x33F9 DUP8 PUSH2 0x3BDE JUMP JUMPDEST PUSH1 0x40 MLOAD DUP1 PUSH1 0x20 ADD PUSH1 0x40 MSTORE DUP1 PUSH1 0x0 DUP2 MSTORE POP PUSH2 0x3803 JUMP JUMPDEST PUSH1 0x0 DUP1 PUSH1 0x0 DUP6 DUP2 MSTORE PUSH1 0x20 ADD SWAP1 DUP2 MSTORE PUSH1 0x20 ADD PUSH1 0x0 KECCAK256 PUSH1 0x0 DUP7 PUSH20 0xFFFFFFFFFFFFFFFFFFFFFFFFFFFFFFFFFFFFFFFF AND PUSH20 0xFFFFFFFFFFFFFFFFFFFFFFFFFFFFFFFFFFFFFFFF AND DUP2 MSTORE PUSH1 0x20 ADD SWAP1 DUP2 MSTORE PUSH1 0x20 ADD PUSH1 0x0 KECCAK256 SLOAD SWAP1 POP DUP3 DUP2 LT ISZERO PUSH2 0x34A5 JUMPI PUSH1 0x40 MLOAD PUSH32 0x8C379A000000000000000000000000000000000000000000000000000000000 DUP2 MSTORE PUSH1 0x4 ADD PUSH2 0x349C SWAP1 PUSH2 0x5162 JUMP JUMPDEST PUSH1 0x40 MLOAD DUP1 SWAP2 SUB SWAP1 REVERT JUMPDEST DUP3 DUP2 SUB PUSH1 0x0 DUP1 DUP7 DUP2 MSTORE PUSH1 0x20 ADD SWAP1 DUP2 MSTORE PUSH1 0x20 ADD PUSH1 0x0 KECCAK256 PUSH1 0x0 DUP8 PUSH20 0xFFFFFFFFFFFFFFFFFFFFFFFFFFFFFFFFFFFFFFFF AND PUSH20 0xFFFFFFFFFFFFFFFFFFFFFFFFFFFFFFFFFFFFFFFF AND DUP2 MSTORE PUSH1 0x20 ADD SWAP1 DUP2 MSTORE PUSH1 0x20 ADD PUSH1 0x0 KECCAK256 DUP2 SWAP1 SSTORE POP PUSH1 0x0 PUSH20 0xFFFFFFFFFFFFFFFFFFFFFFFFFFFFFFFFFFFFFFFF AND DUP6 PUSH20 0xFFFFFFFFFFFFFFFFFFFFFFFFFFFFFFFFFFFFFFFF AND DUP4 PUSH20 0xFFFFFFFFFFFFFFFFFFFFFFFFFFFFFFFFFFFFFFFF AND PUSH32 0xC3D58168C5AE7397731D063D5BBF3D657854427343F4C083240F7AACAA2D0F62 DUP8 DUP8 PUSH1 0x40 MLOAD PUSH2 0x3572 SWAP3 SWAP2 SWAP1 PUSH2 0x5411 JUMP JUMPDEST PUSH1 0x40 MLOAD DUP1 SWAP2 SUB SWAP1 LOG4 POP POP POP POP POP JUMP JUMPDEST PUSH1 0x0 PUSH20 0xFFFFFFFFFFFFFFFFFFFFFFFFFFFFFFFFFFFFFFFF AND DUP5 PUSH20 0xFFFFFFFFFFFFFFFFFFFFFFFFFFFFFFFFFFFFFFFF AND EQ ISZERO PUSH2 0x35F1 JUMPI PUSH1 0x40 MLOAD PUSH32 0x8C379A000000000000000000000000000000000000000000000000000000000 DUP2 MSTORE PUSH1 0x4 ADD PUSH2 0x35E8 SWAP1 PUSH2 0x522C JUMP JUMPDEST PUSH1 0x40 MLOAD DUP1 SWAP2 SUB SWAP1 REVERT JUMPDEST PUSH1 0x0 PUSH2 0x35FB PUSH2 0x2212 JUMP JUMPDEST SWAP1 POP PUSH2 0x361B DUP2 DUP8 DUP8 PUSH2 0x360C DUP9 PUSH2 0x3BDE JUMP JUMPDEST PUSH2 0x3615 DUP9 PUSH2 0x3BDE JUMP JUMPDEST DUP8 PUSH2 0x3803 JUMP JUMPDEST PUSH1 0x0 DUP1 PUSH1 0x0 DUP7 DUP2 MSTORE PUSH1 0x20 ADD SWAP1 DUP2 MSTORE PUSH1 0x20 ADD PUSH1 0x0 KECCAK256 PUSH1 0x0 DUP9 PUSH20 0xFFFFFFFFFFFFFFFFFFFFFFFFFFFFFFFFFFFFFFFF AND PUSH20 0xFFFFFFFFFFFFFFFFFFFFFFFFFFFFFFFFFFFFFFFF AND DUP2 MSTORE PUSH1 0x20 ADD SWAP1 DUP2 MSTORE PUSH1 0x20 ADD PUSH1 0x0 KECCAK256 SLOAD SWAP1 POP DUP4 DUP2 LT ISZERO PUSH2 0x36B2 JUMPI PUSH1 0x40 MLOAD PUSH32 0x8C379A000000000000000000000000000000000000000000000000000000000 DUP2 MSTORE PUSH1 0x4 ADD PUSH2 0x36A9 SWAP1 PUSH2 0x528C JUMP JUMPDEST PUSH1 0x40 MLOAD DUP1 SWAP2 SUB SWAP1 REVERT JUMPDEST DUP4 DUP2 SUB PUSH1 0x0 DUP1 DUP8 DUP2 MSTORE PUSH1 0x20 ADD SWAP1 DUP2 MSTORE PUSH1 0x20 ADD PUSH1 0x0 KECCAK256 PUSH1 0x0 DUP10 PUSH20 0xFFFFFFFFFFFFFFFFFFFFFFFFFFFFFFFFFFFFFFFF AND PUSH20 0xFFFFFFFFFFFFFFFFFFFFFFFFFFFFFFFFFFFFFFFF AND DUP2 MSTORE PUSH1 0x20 ADD SWAP1 DUP2 MSTORE PUSH1 0x20 ADD PUSH1 0x0 KECCAK256 DUP2 SWAP1 SSTORE POP DUP4 PUSH1 0x0 DUP1 DUP8 DUP2 MSTORE PUSH1 0x20 ADD SWAP1 DUP2 MSTORE PUSH1 0x20 ADD PUSH1 0x0 KECCAK256 PUSH1 0x0 DUP9 PUSH20 0xFFFFFFFFFFFFFFFFFFFFFFFFFFFFFFFFFFFFFFFF AND PUSH20 0xFFFFFFFFFFFFFFFFFFFFFFFFFFFFFFFFFFFFFFFF AND DUP2 MSTORE PUSH1 0x20 ADD SWAP1 DUP2 MSTORE PUSH1 0x20 ADD PUSH1 0x0 KECCAK256 PUSH1 0x0 DUP3 DUP3 SLOAD PUSH2 0x3767 SWAP2 SWAP1 PUSH2 0x558A JUMP JUMPDEST SWAP3 POP POP DUP2 SWAP1 SSTORE POP DUP6 PUSH20 0xFFFFFFFFFFFFFFFFFFFFFFFFFFFFFFFFFFFFFFFF AND DUP8 PUSH20 0xFFFFFFFFFFFFFFFFFFFFFFFFFFFFFFFFFFFFFFFF AND DUP4 PUSH20 0xFFFFFFFFFFFFFFFFFFFFFFFFFFFFFFFFFFFFFFFF AND PUSH32 0xC3D58168C5AE7397731D063D5BBF3D657854427343F4C083240F7AACAA2D0F62 DUP9 DUP9 PUSH1 0x40 MLOAD PUSH2 0x37E4 SWAP3 SWAP2 SWAP1 PUSH2 0x5411 JUMP JUMPDEST PUSH1 0x40 MLOAD DUP1 SWAP2 SUB SWAP1 LOG4 PUSH2 0x37FA DUP3 DUP9 DUP9 DUP9 DUP9 DUP9 PUSH2 0x3C58 JUMP JUMPDEST POP POP POP POP POP POP POP JUMP JUMPDEST PUSH2 0x380B PUSH2 0x16FA JUMP JUMPDEST ISZERO PUSH2 0x384B JUMPI PUSH1 0x40 MLOAD PUSH32 0x8C379A000000000000000000000000000000000000000000000000000000000 DUP2 MSTORE PUSH1 0x4 ADD PUSH2 0x3842 SWAP1 PUSH2 0x520C JUMP JUMPDEST PUSH1 0x40 MLOAD DUP1 SWAP2 SUB SWAP1 REVERT JUMPDEST PUSH2 0x3859 DUP7 DUP7 DUP7 DUP7 DUP7 DUP7 PUSH2 0x3E3F JUMP JUMPDEST POP POP POP POP POP POP JUMP JUMPDEST PUSH2 0x3880 DUP5 PUSH20 0xFFFFFFFFFFFFFFFFFFFFFFFFFFFFFFFFFFFFFFFF AND PUSH2 0x3FB9 JUMP JUMPDEST ISZERO PUSH2 0x3A40 JUMPI DUP4 PUSH20 0xFFFFFFFFFFFFFFFFFFFFFFFFFFFFFFFFFFFFFFFF AND PUSH4 0xBC197C81 DUP8 DUP8 DUP7 DUP7 DUP7 PUSH1 0x40 MLOAD DUP7 PUSH4 0xFFFFFFFF AND PUSH1 0xE0 SHL DUP2 MSTORE PUSH1 0x4 ADD PUSH2 0x38C6 SWAP6 SWAP5 SWAP4 SWAP3 SWAP2 SWAP1 PUSH2 0x4E96 JUMP JUMPDEST PUSH1 0x20 PUSH1 0x40 MLOAD DUP1 DUP4 SUB DUP2 PUSH1 0x0 DUP8 DUP1 EXTCODESIZE ISZERO DUP1 ISZERO PUSH2 0x38E0 JUMPI PUSH1 0x0 DUP1 REVERT JUMPDEST POP GAS CALL SWAP3 POP POP POP DUP1 ISZERO PUSH2 0x3911 JUMPI POP PUSH1 0x40 MLOAD RETURNDATASIZE PUSH1 0x1F NOT PUSH1 0x1F DUP3 ADD AND DUP3 ADD DUP1 PUSH1 0x40 MSTORE POP DUP2 ADD SWAP1 PUSH2 0x390E SWAP2 SWAP1 PUSH2 0x48A1 JUMP JUMPDEST PUSH1 0x1 JUMPDEST PUSH2 0x39B7 JUMPI PUSH2 0x391D PUSH2 0x586E JUMP JUMPDEST DUP1 PUSH4 0x8C379A0 EQ ISZERO PUSH2 0x397A JUMPI POP PUSH2 0x3932 PUSH2 0x5FA0 JUMP JUMPDEST DUP1 PUSH2 0x393D JUMPI POP PUSH2 0x397C JUMP JUMPDEST DUP1 PUSH1 0x40 MLOAD PUSH32 0x8C379A000000000000000000000000000000000000000000000000000000000 DUP2 MSTORE PUSH1 0x4 ADD PUSH2 0x3971 SWAP2 SWAP1 PUSH2 0x4FCC JUMP JUMPDEST PUSH1 0x40 MLOAD DUP1 SWAP2 SUB SWAP1 REVERT JUMPDEST POP JUMPDEST PUSH1 0x40 MLOAD PUSH32 0x8C379A000000000000000000000000000000000000000000000000000000000 DUP2 MSTORE PUSH1 0x4 ADD PUSH2 0x39AE SWAP1 PUSH2 0x4FEE JUMP JUMPDEST PUSH1 0x40 MLOAD DUP1 SWAP2 SUB SWAP1 REVERT JUMPDEST PUSH4 0xBC197C81 PUSH1 0xE0 SHL PUSH28 0xFFFFFFFFFFFFFFFFFFFFFFFFFFFFFFFFFFFFFFFFFFFFFFFFFFFFFFFF NOT AND DUP2 PUSH28 0xFFFFFFFFFFFFFFFFFFFFFFFFFFFFFFFFFFFFFFFFFFFFFFFFFFFFFFFF NOT AND EQ PUSH2 0x3A3E JUMPI PUSH1 0x40 MLOAD PUSH32 0x8C379A000000000000000000000000000000000000000000000000000000000 DUP2 MSTORE PUSH1 0x4 ADD PUSH2 0x3A35 SWAP1 PUSH2 0x502E JUMP JUMPDEST PUSH1 0x40 MLOAD DUP1 SWAP2 SUB SWAP1 REVERT JUMPDEST POP JUMPDEST POP POP POP POP POP POP JUMP JUMPDEST PUSH1 0x0 PUSH20 0xFFFFFFFFFFFFFFFFFFFFFFFFFFFFFFFFFFFFFFFF AND DUP5 PUSH20 0xFFFFFFFFFFFFFFFFFFFFFFFFFFFFFFFFFFFFFFFF AND EQ ISZERO PUSH2 0x3AB8 JUMPI PUSH1 0x40 MLOAD PUSH32 0x8C379A000000000000000000000000000000000000000000000000000000000 DUP2 MSTORE PUSH1 0x4 ADD PUSH2 0x3AAF SWAP1 PUSH2 0x53B6 JUMP JUMPDEST PUSH1 0x40 MLOAD DUP1 SWAP2 SUB SWAP1 REVERT JUMPDEST PUSH1 0x0 PUSH2 0x3AC2 PUSH2 0x2212 JUMP JUMPDEST SWAP1 POP PUSH2 0x3AE3 DUP2 PUSH1 0x0 DUP8 PUSH2 0x3AD4 DUP9 PUSH2 0x3BDE JUMP JUMPDEST PUSH2 0x3ADD DUP9 PUSH2 0x3BDE JUMP JUMPDEST DUP8 PUSH2 0x3803 JUMP JUMPDEST DUP3 PUSH1 0x0 DUP1 DUP7 DUP2 MSTORE PUSH1 0x20 ADD SWAP1 DUP2 MSTORE PUSH1 0x20 ADD PUSH1 0x0 KECCAK256 PUSH1 0x0 DUP8 PUSH20 0xFFFFFFFFFFFFFFFFFFFFFFFFFFFFFFFFFFFFFFFF AND PUSH20 0xFFFFFFFFFFFFFFFFFFFFFFFFFFFFFFFFFFFFFFFF AND DUP2 MSTORE PUSH1 0x20 ADD SWAP1 DUP2 MSTORE PUSH1 0x20 ADD PUSH1 0x0 KECCAK256 PUSH1 0x0 DUP3 DUP3 SLOAD PUSH2 0x3B42 SWAP2 SWAP1 PUSH2 0x558A JUMP JUMPDEST SWAP3 POP POP DUP2 SWAP1 SSTORE POP DUP5 PUSH20 0xFFFFFFFFFFFFFFFFFFFFFFFFFFFFFFFFFFFFFFFF AND PUSH1 0x0 PUSH20 0xFFFFFFFFFFFFFFFFFFFFFFFFFFFFFFFFFFFFFFFF AND DUP3 PUSH20 0xFFFFFFFFFFFFFFFFFFFFFFFFFFFFFFFFFFFFFFFF AND PUSH32 0xC3D58168C5AE7397731D063D5BBF3D657854427343F4C083240F7AACAA2D0F62 DUP8 DUP8 PUSH1 0x40 MLOAD PUSH2 0x3BC0 SWAP3 SWAP2 SWAP1 PUSH2 0x5411 JUMP JUMPDEST PUSH1 0x40 MLOAD DUP1 SWAP2 SUB SWAP1 LOG4 PUSH2 0x3BD7 DUP2 PUSH1 0x0 DUP8 DUP8 DUP8 DUP8 PUSH2 0x3C58 JUMP JUMPDEST POP POP POP POP POP JUMP JUMPDEST PUSH1 0x60 PUSH1 0x0 PUSH1 0x1 PUSH8 0xFFFFFFFFFFFFFFFF DUP2 GT ISZERO PUSH2 0x3BFD JUMPI PUSH2 0x3BFC PUSH2 0x583F JUMP JUMPDEST JUMPDEST PUSH1 0x40 MLOAD SWAP1 DUP1 DUP3 MSTORE DUP1 PUSH1 0x20 MUL PUSH1 0x20 ADD DUP3 ADD PUSH1 0x40 MSTORE DUP1 ISZERO PUSH2 0x3C2B JUMPI DUP2 PUSH1 0x20 ADD PUSH1 0x20 DUP3 MUL DUP1 CALLDATASIZE DUP4 CALLDATACOPY DUP1 DUP3 ADD SWAP2 POP POP SWAP1 POP JUMPDEST POP SWAP1 POP DUP3 DUP2 PUSH1 0x0 DUP2 MLOAD DUP2 LT PUSH2 0x3C43 JUMPI PUSH2 0x3C42 PUSH2 0x5810 JUMP JUMPDEST JUMPDEST PUSH1 0x20 MUL PUSH1 0x20 ADD ADD DUP2 DUP2 MSTORE POP POP DUP1 SWAP2 POP POP SWAP2 SWAP1 POP JUMP JUMPDEST PUSH2 0x3C77 DUP5 PUSH20 0xFFFFFFFFFFFFFFFFFFFFFFFFFFFFFFFFFFFFFFFF AND PUSH2 0x3FB9 JUMP JUMPDEST ISZERO PUSH2 0x3E37 JUMPI DUP4 PUSH20 0xFFFFFFFFFFFFFFFFFFFFFFFFFFFFFFFFFFFFFFFF AND PUSH4 0xF23A6E61 DUP8 DUP8 DUP7 DUP7 DUP7 PUSH1 0x40 MLOAD DUP7 PUSH4 0xFFFFFFFF AND PUSH1 0xE0 SHL DUP2 MSTORE PUSH1 0x4 ADD PUSH2 0x3CBD SWAP6 SWAP5 SWAP4 SWAP3 SWAP2 SWAP1 PUSH2 0x4EFE JUMP JUMPDEST PUSH1 0x20 PUSH1 0x40 MLOAD DUP1 DUP4 SUB DUP2 PUSH1 0x0 DUP8 DUP1 EXTCODESIZE ISZERO DUP1 ISZERO PUSH2 0x3CD7 JUMPI PUSH1 0x0 DUP1 REVERT JUMPDEST POP GAS CALL SWAP3 POP POP POP DUP1 ISZERO PUSH2 0x3D08 JUMPI POP PUSH1 0x40 MLOAD RETURNDATASIZE PUSH1 0x1F NOT PUSH1 0x1F DUP3 ADD AND DUP3 ADD DUP1 PUSH1 0x40 MSTORE POP DUP2 ADD SWAP1 PUSH2 0x3D05 SWAP2 SWAP1 PUSH2 0x48A1 JUMP JUMPDEST PUSH1 0x1 JUMPDEST PUSH2 0x3DAE JUMPI PUSH2 0x3D14 PUSH2 0x586E JUMP JUMPDEST DUP1 PUSH4 0x8C379A0 EQ ISZERO PUSH2 0x3D71 JUMPI POP PUSH2 0x3D29 PUSH2 0x5FA0 JUMP JUMPDEST DUP1 PUSH2 0x3D34 JUMPI POP PUSH2 0x3D73 JUMP JUMPDEST DUP1 PUSH1 0x40 MLOAD PUSH32 0x8C379A000000000000000000000000000000000000000000000000000000000 DUP2 MSTORE PUSH1 0x4 ADD PUSH2 0x3D68 SWAP2 SWAP1 PUSH2 0x4FCC JUMP JUMPDEST PUSH1 0x40 MLOAD DUP1 SWAP2 SUB SWAP1 REVERT JUMPDEST POP JUMPDEST PUSH1 0x40 MLOAD PUSH32 0x8C379A000000000000000000000000000000000000000000000000000000000 DUP2 MSTORE PUSH1 0x4 ADD PUSH2 0x3DA5 SWAP1 PUSH2 0x4FEE JUMP JUMPDEST PUSH1 0x40 MLOAD DUP1 SWAP2 SUB SWAP1 REVERT JUMPDEST PUSH4 0xF23A6E61 PUSH1 0xE0 SHL PUSH28 0xFFFFFFFFFFFFFFFFFFFFFFFFFFFFFFFFFFFFFFFFFFFFFFFFFFFFFFFF NOT AND DUP2 PUSH28 0xFFFFFFFFFFFFFFFFFFFFFFFFFFFFFFFFFFFFFFFFFFFFFFFFFFFFFFFF NOT AND EQ PUSH2 0x3E35 JUMPI PUSH1 0x40 MLOAD PUSH32 0x8C379A000000000000000000000000000000000000000000000000000000000 DUP2 MSTORE PUSH1 0x4 ADD PUSH2 0x3E2C SWAP1 PUSH2 0x502E JUMP JUMPDEST PUSH1 0x40 MLOAD DUP1 SWAP2 SUB SWAP1 REVERT JUMPDEST POP JUMPDEST POP POP POP POP POP POP JUMP JUMPDEST PUSH2 0x3E4D DUP7 DUP7 DUP7 DUP7 DUP7 DUP7 PUSH2 0x3FDC JUMP JUMPDEST PUSH1 0x0 PUSH20 0xFFFFFFFFFFFFFFFFFFFFFFFFFFFFFFFFFFFFFFFF AND DUP6 PUSH20 0xFFFFFFFFFFFFFFFFFFFFFFFFFFFFFFFFFFFFFFFF AND EQ ISZERO PUSH2 0x3EFF JUMPI PUSH1 0x0 JUMPDEST DUP4 MLOAD DUP2 LT ISZERO PUSH2 0x3EFD JUMPI DUP3 DUP2 DUP2 MLOAD DUP2 LT PUSH2 0x3EA1 JUMPI PUSH2 0x3EA0 PUSH2 0x5810 JUMP JUMPDEST JUMPDEST PUSH1 0x20 MUL PUSH1 0x20 ADD ADD MLOAD PUSH1 0x4 PUSH1 0x0 DUP7 DUP5 DUP2 MLOAD DUP2 LT PUSH2 0x3EC0 JUMPI PUSH2 0x3EBF PUSH2 0x5810 JUMP JUMPDEST JUMPDEST PUSH1 0x20 MUL PUSH1 0x20 ADD ADD MLOAD DUP2 MSTORE PUSH1 0x20 ADD SWAP1 DUP2 MSTORE PUSH1 0x20 ADD PUSH1 0x0 KECCAK256 PUSH1 0x0 DUP3 DUP3 SLOAD PUSH2 0x3EE5 SWAP2 SWAP1 PUSH2 0x558A JUMP JUMPDEST SWAP3 POP POP DUP2 SWAP1 SSTORE POP DUP1 PUSH2 0x3EF6 SWAP1 PUSH2 0x5769 JUMP JUMPDEST SWAP1 POP PUSH2 0x3E85 JUMP JUMPDEST POP JUMPDEST PUSH1 0x0 PUSH20 0xFFFFFFFFFFFFFFFFFFFFFFFFFFFFFFFFFFFFFFFF AND DUP5 PUSH20 0xFFFFFFFFFFFFFFFFFFFFFFFFFFFFFFFFFFFFFFFF AND EQ ISZERO PUSH2 0x3FB1 JUMPI PUSH1 0x0 JUMPDEST DUP4 MLOAD DUP2 LT ISZERO PUSH2 0x3FAF JUMPI DUP3 DUP2 DUP2 MLOAD DUP2 LT PUSH2 0x3F53 JUMPI PUSH2 0x3F52 PUSH2 0x5810 JUMP JUMPDEST JUMPDEST PUSH1 0x20 MUL PUSH1 0x20 ADD ADD MLOAD PUSH1 0x4 PUSH1 0x0 DUP7 DUP5 DUP2 MLOAD DUP2 LT PUSH2 0x3F72 JUMPI PUSH2 0x3F71 PUSH2 0x5810 JUMP JUMPDEST JUMPDEST PUSH1 0x20 MUL PUSH1 0x20 ADD ADD MLOAD DUP2 MSTORE PUSH1 0x20 ADD SWAP1 DUP2 MSTORE PUSH1 0x20 ADD PUSH1 0x0 KECCAK256 PUSH1 0x0 DUP3 DUP3 SLOAD PUSH2 0x3F97 SWAP2 SWAP1 PUSH2 0x55E0 JUMP JUMPDEST SWAP3 POP POP DUP2 SWAP1 SSTORE POP DUP1 PUSH2 0x3FA8 SWAP1 PUSH2 0x5769 JUMP JUMPDEST SWAP1 POP PUSH2 0x3F37 JUMP JUMPDEST POP JUMPDEST POP POP POP POP POP POP JUMP JUMPDEST PUSH1 0x0 DUP1 DUP3 PUSH20 0xFFFFFFFFFFFFFFFFFFFFFFFFFFFFFFFFFFFFFFFF AND EXTCODESIZE GT SWAP1 POP SWAP2 SWAP1 POP JUMP JUMPDEST POP POP POP POP POP POP JUMP JUMPDEST DUP3 DUP1 SLOAD PUSH2 0x3FF0 SWAP1 PUSH2 0x5706 JUMP JUMPDEST SWAP1 PUSH1 0x0 MSTORE PUSH1 0x20 PUSH1 0x0 KECCAK256 SWAP1 PUSH1 0x1F ADD PUSH1 0x20 SWAP1 DIV DUP2 ADD SWAP3 DUP3 PUSH2 0x4012 JUMPI PUSH1 0x0 DUP6 SSTORE PUSH2 0x4059 JUMP JUMPDEST DUP3 PUSH1 0x1F LT PUSH2 0x402B JUMPI DUP1 MLOAD PUSH1 0xFF NOT AND DUP4 DUP1 ADD OR DUP6 SSTORE PUSH2 0x4059 JUMP JUMPDEST DUP3 DUP1 ADD PUSH1 0x1 ADD DUP6 SSTORE DUP3 ISZERO PUSH2 0x4059 JUMPI SWAP2 DUP3 ADD JUMPDEST DUP3 DUP2 GT ISZERO PUSH2 0x4058 JUMPI DUP3 MLOAD DUP3 SSTORE SWAP2 PUSH1 0x20 ADD SWAP2 SWAP1 PUSH1 0x1 ADD SWAP1 PUSH2 0x403D JUMP JUMPDEST JUMPDEST POP SWAP1 POP PUSH2 0x4066 SWAP2 SWAP1 PUSH2 0x406A JUMP JUMPDEST POP SWAP1 JUMP JUMPDEST JUMPDEST DUP1 DUP3 GT ISZERO PUSH2 0x4083 JUMPI PUSH1 0x0 DUP2 PUSH1 0x0 SWAP1 SSTORE POP PUSH1 0x1 ADD PUSH2 0x406B JUMP JUMPDEST POP SWAP1 JUMP JUMPDEST PUSH1 0x0 PUSH2 0x409A PUSH2 0x4095 DUP5 PUSH2 0x545F JUMP JUMPDEST PUSH2 0x543A JUMP JUMPDEST SWAP1 POP DUP1 DUP4 DUP3 MSTORE PUSH1 0x20 DUP3 ADD SWAP1 POP DUP3 DUP6 PUSH1 0x20 DUP7 MUL DUP3 ADD GT ISZERO PUSH2 0x40BD JUMPI PUSH2 0x40BC PUSH2 0x5895 JUMP JUMPDEST JUMPDEST PUSH1 0x0 JUMPDEST DUP6 DUP2 LT ISZERO PUSH2 0x40ED JUMPI DUP2 PUSH2 0x40D3 DUP9 DUP3 PUSH2 0x41EB JUMP JUMPDEST DUP5 MSTORE PUSH1 0x20 DUP5 ADD SWAP4 POP PUSH1 0x20 DUP4 ADD SWAP3 POP POP PUSH1 0x1 DUP2 ADD SWAP1 POP PUSH2 0x40C0 JUMP JUMPDEST POP POP POP SWAP4 SWAP3 POP POP POP JUMP JUMPDEST PUSH1 0x0 PUSH2 0x410A PUSH2 0x4105 DUP5 PUSH2 0x548B JUMP JUMPDEST PUSH2 0x543A JUMP JUMPDEST SWAP1 POP DUP1 DUP4 DUP3 MSTORE PUSH1 0x20 DUP3 ADD SWAP1 POP DUP3 DUP6 PUSH1 0x20 DUP7 MUL DUP3 ADD GT ISZERO PUSH2 0x412D JUMPI PUSH2 0x412C PUSH2 0x5895 JUMP JUMPDEST JUMPDEST PUSH1 0x0 JUMPDEST DUP6 DUP2 LT ISZERO PUSH2 0x415D JUMPI DUP2 PUSH2 0x4143 DUP9 DUP3 PUSH2 0x42F7 JUMP JUMPDEST DUP5 MSTORE PUSH1 0x20 DUP5 ADD SWAP4 POP PUSH1 0x20 DUP4 ADD SWAP3 POP POP PUSH1 0x1 DUP2 ADD SWAP1 POP PUSH2 0x4130 JUMP JUMPDEST POP POP POP SWAP4 SWAP3 POP POP POP JUMP JUMPDEST PUSH1 0x0 PUSH2 0x417A PUSH2 0x4175 DUP5 PUSH2 0x54B7 JUMP JUMPDEST PUSH2 0x543A JUMP JUMPDEST SWAP1 POP DUP3 DUP2 MSTORE PUSH1 0x20 DUP2 ADD DUP5 DUP5 DUP5 ADD GT ISZERO PUSH2 0x4196 JUMPI PUSH2 0x4195 PUSH2 0x589A JUMP JUMPDEST JUMPDEST PUSH2 0x41A1 DUP5 DUP3 DUP6 PUSH2 0x569A JUMP JUMPDEST POP SWAP4 SWAP3 POP POP POP JUMP JUMPDEST PUSH1 0x0 PUSH2 0x41BC PUSH2 0x41B7 DUP5 PUSH2 0x54E8 JUMP JUMPDEST PUSH2 0x543A JUMP JUMPDEST SWAP1 POP DUP3 DUP2 MSTORE PUSH1 0x20 DUP2 ADD DUP5 DUP5 DUP5 ADD GT ISZERO PUSH2 0x41D8 JUMPI PUSH2 0x41D7 PUSH2 0x589A JUMP JUMPDEST JUMPDEST PUSH2 0x41E3 DUP5 DUP3 DUP6 PUSH2 0x569A JUMP JUMPDEST POP SWAP4 SWAP3 POP POP POP JUMP JUMPDEST PUSH1 0x0 DUP2 CALLDATALOAD SWAP1 POP PUSH2 0x41FA DUP2 PUSH2 0x6036 JUMP JUMPDEST SWAP3 SWAP2 POP POP JUMP JUMPDEST PUSH1 0x0 DUP3 PUSH1 0x1F DUP4 ADD SLT PUSH2 0x4215 JUMPI PUSH2 0x4214 PUSH2 0x5890 JUMP JUMPDEST JUMPDEST DUP2 CALLDATALOAD PUSH2 0x4225 DUP5 DUP3 PUSH1 0x20 DUP7 ADD PUSH2 0x4087 JUMP JUMPDEST SWAP2 POP POP SWAP3 SWAP2 POP POP JUMP JUMPDEST PUSH1 0x0 DUP3 PUSH1 0x1F DUP4 ADD SLT PUSH2 0x4243 JUMPI PUSH2 0x4242 PUSH2 0x5890 JUMP JUMPDEST JUMPDEST DUP2 CALLDATALOAD PUSH2 0x4253 DUP5 DUP3 PUSH1 0x20 DUP7 ADD PUSH2 0x40F7 JUMP JUMPDEST SWAP2 POP POP SWAP3 SWAP2 POP POP JUMP JUMPDEST PUSH1 0x0 DUP2 CALLDATALOAD SWAP1 POP PUSH2 0x426B DUP2 PUSH2 0x604D JUMP JUMPDEST SWAP3 SWAP2 POP POP JUMP JUMPDEST PUSH1 0x0 DUP2 CALLDATALOAD SWAP1 POP PUSH2 0x4280 DUP2 PUSH2 0x6064 JUMP JUMPDEST SWAP3 SWAP2 POP POP JUMP JUMPDEST PUSH1 0x0 DUP2 MLOAD SWAP1 POP PUSH2 0x4295 DUP2 PUSH2 0x6064 JUMP JUMPDEST SWAP3 SWAP2 POP POP JUMP JUMPDEST PUSH1 0x0 DUP3 PUSH1 0x1F DUP4 ADD SLT PUSH2 0x42B0 JUMPI PUSH2 0x42AF PUSH2 0x5890 JUMP JUMPDEST JUMPDEST DUP2 CALLDATALOAD PUSH2 0x42C0 DUP5 DUP3 PUSH1 0x20 DUP7 ADD PUSH2 0x4167 JUMP JUMPDEST SWAP2 POP POP SWAP3 SWAP2 POP POP JUMP JUMPDEST PUSH1 0x0 DUP3 PUSH1 0x1F DUP4 ADD SLT PUSH2 0x42DE JUMPI PUSH2 0x42DD PUSH2 0x5890 JUMP JUMPDEST JUMPDEST DUP2 CALLDATALOAD PUSH2 0x42EE DUP5 DUP3 PUSH1 0x20 DUP7 ADD PUSH2 0x41A9 JUMP JUMPDEST SWAP2 POP POP SWAP3 SWAP2 POP POP JUMP JUMPDEST PUSH1 0x0 DUP2 CALLDATALOAD SWAP1 POP PUSH2 0x4306 DUP2 PUSH2 0x607B JUMP JUMPDEST SWAP3 SWAP2 POP POP JUMP JUMPDEST PUSH1 0x0 PUSH1 0x20 DUP3 DUP5 SUB SLT ISZERO PUSH2 0x4322 JUMPI PUSH2 0x4321 PUSH2 0x58A4 JUMP JUMPDEST JUMPDEST PUSH1 0x0 PUSH2 0x4330 DUP5 DUP3 DUP6 ADD PUSH2 0x41EB JUMP JUMPDEST SWAP2 POP POP SWAP3 SWAP2 POP POP JUMP JUMPDEST PUSH1 0x0 DUP1 PUSH1 0x40 DUP4 DUP6 SUB SLT ISZERO PUSH2 0x4350 JUMPI PUSH2 0x434F PUSH2 0x58A4 JUMP JUMPDEST JUMPDEST PUSH1 0x0 PUSH2 0x435E DUP6 DUP3 DUP7 ADD PUSH2 0x41EB JUMP JUMPDEST SWAP3 POP POP PUSH1 0x20 PUSH2 0x436F DUP6 DUP3 DUP7 ADD PUSH2 0x41EB JUMP JUMPDEST SWAP2 POP POP SWAP3 POP SWAP3 SWAP1 POP JUMP JUMPDEST PUSH1 0x0 DUP1 PUSH1 0x0 DUP1 PUSH1 0x0 PUSH1 0xA0 DUP7 DUP9 SUB SLT ISZERO PUSH2 0x4395 JUMPI PUSH2 0x4394 PUSH2 0x58A4 JUMP JUMPDEST JUMPDEST PUSH1 0x0 PUSH2 0x43A3 DUP9 DUP3 DUP10 ADD PUSH2 0x41EB JUMP JUMPDEST SWAP6 POP POP PUSH1 0x20 PUSH2 0x43B4 DUP9 DUP3 DUP10 ADD PUSH2 0x41EB JUMP JUMPDEST SWAP5 POP POP PUSH1 0x40 DUP7 ADD CALLDATALOAD PUSH8 0xFFFFFFFFFFFFFFFF DUP2 GT ISZERO PUSH2 0x43D5 JUMPI PUSH2 0x43D4 PUSH2 0x589F JUMP JUMPDEST JUMPDEST PUSH2 0x43E1 DUP9 DUP3 DUP10 ADD PUSH2 0x422E JUMP JUMPDEST SWAP4 POP POP PUSH1 0x60 DUP7 ADD CALLDATALOAD PUSH8 0xFFFFFFFFFFFFFFFF DUP2 GT ISZERO PUSH2 0x4402 JUMPI PUSH2 0x4401 PUSH2 0x589F JUMP JUMPDEST JUMPDEST PUSH2 0x440E DUP9 DUP3 DUP10 ADD PUSH2 0x422E JUMP JUMPDEST SWAP3 POP POP PUSH1 0x80 DUP7 ADD CALLDATALOAD PUSH8 0xFFFFFFFFFFFFFFFF DUP2 GT ISZERO PUSH2 0x442F JUMPI PUSH2 0x442E PUSH2 0x589F JUMP JUMPDEST JUMPDEST PUSH2 0x443B DUP9 DUP3 DUP10 ADD PUSH2 0x429B JUMP JUMPDEST SWAP2 POP POP SWAP3 SWAP6 POP SWAP3 SWAP6 SWAP1 SWAP4 POP JUMP JUMPDEST PUSH1 0x0 DUP1 PUSH1 0x0 DUP1 PUSH1 0x0 PUSH1 0xA0 DUP7 DUP9 SUB SLT ISZERO PUSH2 0x4464 JUMPI PUSH2 0x4463 PUSH2 0x58A4 JUMP JUMPDEST JUMPDEST PUSH1 0x0 PUSH2 0x4472 DUP9 DUP3 DUP10 ADD PUSH2 0x41EB JUMP JUMPDEST SWAP6 POP POP PUSH1 0x20 PUSH2 0x4483 DUP9 DUP3 DUP10 ADD PUSH2 0x41EB JUMP JUMPDEST SWAP5 POP POP PUSH1 0x40 PUSH2 0x4494 DUP9 DUP3 DUP10 ADD PUSH2 0x42F7 JUMP JUMPDEST SWAP4 POP POP PUSH1 0x60 PUSH2 0x44A5 DUP9 DUP3 DUP10 ADD PUSH2 0x42F7 JUMP JUMPDEST SWAP3 POP POP PUSH1 0x80 DUP7 ADD CALLDATALOAD PUSH8 0xFFFFFFFFFFFFFFFF DUP2 GT ISZERO PUSH2 0x44C6 JUMPI PUSH2 0x44C5 PUSH2 0x589F JUMP JUMPDEST JUMPDEST PUSH2 0x44D2 DUP9 DUP3 DUP10 ADD PUSH2 0x429B JUMP JUMPDEST SWAP2 POP POP SWAP3 SWAP6 POP SWAP3 SWAP6 SWAP1 SWAP4 POP JUMP JUMPDEST PUSH1 0x0 DUP1 PUSH1 0x0 PUSH1 0x60 DUP5 DUP7 SUB SLT ISZERO PUSH2 0x44F8 JUMPI PUSH2 0x44F7 PUSH2 0x58A4 JUMP JUMPDEST JUMPDEST PUSH1 0x0 PUSH2 0x4506 DUP7 DUP3 DUP8 ADD PUSH2 0x41EB JUMP JUMPDEST SWAP4 POP POP PUSH1 0x20 DUP5 ADD CALLDATALOAD PUSH8 0xFFFFFFFFFFFFFFFF DUP2 GT ISZERO PUSH2 0x4527 JUMPI PUSH2 0x4526 PUSH2 0x589F JUMP JUMPDEST JUMPDEST PUSH2 0x4533 DUP7 DUP3 DUP8 ADD PUSH2 0x422E JUMP JUMPDEST SWAP3 POP POP PUSH1 0x40 DUP5 ADD CALLDATALOAD PUSH8 0xFFFFFFFFFFFFFFFF DUP2 GT ISZERO PUSH2 0x4554 JUMPI PUSH2 0x4553 PUSH2 0x589F JUMP JUMPDEST JUMPDEST PUSH2 0x4560 DUP7 DUP3 DUP8 ADD PUSH2 0x422E JUMP JUMPDEST SWAP2 POP POP SWAP3 POP SWAP3 POP SWAP3 JUMP JUMPDEST PUSH1 0x0 DUP1 PUSH1 0x0 DUP1 PUSH1 0x0 PUSH1 0xA0 DUP7 DUP9 SUB SLT ISZERO PUSH2 0x4586 JUMPI PUSH2 0x4585 PUSH2 0x58A4 JUMP JUMPDEST JUMPDEST PUSH1 0x0 PUSH2 0x4594 DUP9 DUP3 DUP10 ADD PUSH2 0x41EB JUMP JUMPDEST SWAP6 POP POP PUSH1 0x20 DUP7 ADD CALLDATALOAD PUSH8 0xFFFFFFFFFFFFFFFF DUP2 GT ISZERO PUSH2 0x45B5 JUMPI PUSH2 0x45B4 PUSH2 0x589F JUMP JUMPDEST JUMPDEST PUSH2 0x45C1 DUP9 DUP3 DUP10 ADD PUSH2 0x422E JUMP JUMPDEST SWAP5 POP POP PUSH1 0x40 DUP7 ADD CALLDATALOAD PUSH8 0xFFFFFFFFFFFFFFFF DUP2 GT ISZERO PUSH2 0x45E2 JUMPI PUSH2 0x45E1 PUSH2 0x589F JUMP JUMPDEST JUMPDEST PUSH2 0x45EE DUP9 DUP3 DUP10 ADD PUSH2 0x422E JUMP JUMPDEST SWAP4 POP POP PUSH1 0x60 DUP7 ADD CALLDATALOAD PUSH8 0xFFFFFFFFFFFFFFFF DUP2 GT ISZERO PUSH2 0x460F JUMPI PUSH2 0x460E PUSH2 0x589F JUMP JUMPDEST JUMPDEST PUSH2 0x461B DUP9 DUP3 DUP10 ADD PUSH2 0x422E JUMP JUMPDEST SWAP3 POP POP PUSH1 0x80 DUP7 ADD CALLDATALOAD PUSH8 0xFFFFFFFFFFFFFFFF DUP2 GT ISZERO PUSH2 0x463C JUMPI PUSH2 0x463B PUSH2 0x589F JUMP JUMPDEST JUMPDEST PUSH2 0x4648 DUP9 DUP3 DUP10 ADD PUSH2 0x422E JUMP JUMPDEST SWAP2 POP POP SWAP3 SWAP6 POP SWAP3 SWAP6 SWAP1 SWAP4 POP JUMP JUMPDEST PUSH1 0x0 DUP1 PUSH1 0x40 DUP4 DUP6 SUB SLT ISZERO PUSH2 0x466C JUMPI PUSH2 0x466B PUSH2 0x58A4 JUMP JUMPDEST JUMPDEST PUSH1 0x0 PUSH2 0x467A DUP6 DUP3 DUP7 ADD PUSH2 0x41EB JUMP JUMPDEST SWAP3 POP POP PUSH1 0x20 PUSH2 0x468B DUP6 DUP3 DUP7 ADD PUSH2 0x425C JUMP JUMPDEST SWAP2 POP POP SWAP3 POP SWAP3 SWAP1 POP JUMP JUMPDEST PUSH1 0x0 DUP1 PUSH1 0x40 DUP4 DUP6 SUB SLT ISZERO PUSH2 0x46AC JUMPI PUSH2 0x46AB PUSH2 0x58A4 JUMP JUMPDEST JUMPDEST PUSH1 0x0 PUSH2 0x46BA DUP6 DUP3 DUP7 ADD PUSH2 0x41EB JUMP JUMPDEST SWAP3 POP POP PUSH1 0x20 PUSH2 0x46CB DUP6 DUP3 DUP7 ADD PUSH2 0x42F7 JUMP JUMPDEST SWAP2 POP POP SWAP3 POP SWAP3 SWAP1 POP JUMP JUMPDEST PUSH1 0x0 DUP1 PUSH1 0x0 PUSH1 0x60 DUP5 DUP7 SUB SLT ISZERO PUSH2 0x46EE JUMPI PUSH2 0x46ED PUSH2 0x58A4 JUMP JUMPDEST JUMPDEST PUSH1 0x0 PUSH2 0x46FC DUP7 DUP3 DUP8 ADD PUSH2 0x41EB JUMP JUMPDEST SWAP4 POP POP PUSH1 0x20 PUSH2 0x470D DUP7 DUP3 DUP8 ADD PUSH2 0x42F7 JUMP JUMPDEST SWAP3 POP POP PUSH1 0x40 PUSH2 0x471E DUP7 DUP3 DUP8 ADD PUSH2 0x42F7 JUMP JUMPDEST SWAP2 POP POP SWAP3 POP SWAP3 POP SWAP3 JUMP JUMPDEST PUSH1 0x0 DUP1 PUSH1 0x40 DUP4 DUP6 SUB SLT ISZERO PUSH2 0x473F JUMPI PUSH2 0x473E PUSH2 0x58A4 JUMP JUMPDEST JUMPDEST PUSH1 0x0 DUP4 ADD CALLDATALOAD PUSH8 0xFFFFFFFFFFFFFFFF DUP2 GT ISZERO PUSH2 0x475D JUMPI PUSH2 0x475C PUSH2 0x589F JUMP JUMPDEST JUMPDEST PUSH2 0x4769 DUP6 DUP3 DUP7 ADD PUSH2 0x4200 JUMP JUMPDEST SWAP3 POP POP PUSH1 0x20 DUP4 ADD CALLDATALOAD PUSH8 0xFFFFFFFFFFFFFFFF DUP2 GT ISZERO PUSH2 0x478A JUMPI PUSH2 0x4789 PUSH2 0x589F JUMP JUMPDEST JUMPDEST PUSH2 0x4796 DUP6 DUP3 DUP7 ADD PUSH2 0x422E JUMP JUMPDEST SWAP2 POP POP SWAP3 POP SWAP3 SWAP1 POP JUMP JUMPDEST PUSH1 0x0 DUP1 PUSH1 0x40 DUP4 DUP6 SUB SLT ISZERO PUSH2 0x47B7 JUMPI PUSH2 0x47B6 PUSH2 0x58A4 JUMP JUMPDEST JUMPDEST PUSH1 0x0 DUP4 ADD CALLDATALOAD PUSH8 0xFFFFFFFFFFFFFFFF DUP2 GT ISZERO PUSH2 0x47D5 JUMPI PUSH2 0x47D4 PUSH2 0x589F JUMP JUMPDEST JUMPDEST PUSH2 0x47E1 DUP6 DUP3 DUP7 ADD PUSH2 0x4200 JUMP JUMPDEST SWAP3 POP POP PUSH1 0x20 PUSH2 0x47F2 DUP6 DUP3 DUP7 ADD PUSH2 0x42F7 JUMP JUMPDEST SWAP2 POP POP SWAP3 POP SWAP3 SWAP1 POP JUMP JUMPDEST PUSH1 0x0 DUP1 PUSH1 0x40 DUP4 DUP6 SUB SLT ISZERO PUSH2 0x4813 JUMPI PUSH2 0x4812 PUSH2 0x58A4 JUMP JUMPDEST JUMPDEST PUSH1 0x0 DUP4 ADD CALLDATALOAD PUSH8 0xFFFFFFFFFFFFFFFF DUP2 GT ISZERO PUSH2 0x4831 JUMPI PUSH2 0x4830 PUSH2 0x589F JUMP JUMPDEST JUMPDEST PUSH2 0x483D DUP6 DUP3 DUP7 ADD PUSH2 0x422E JUMP JUMPDEST SWAP3 POP POP PUSH1 0x20 DUP4 ADD CALLDATALOAD PUSH8 0xFFFFFFFFFFFFFFFF DUP2 GT ISZERO PUSH2 0x485E JUMPI PUSH2 0x485D PUSH2 0x589F JUMP JUMPDEST JUMPDEST PUSH2 0x486A DUP6 DUP3 DUP7 ADD PUSH2 0x422E JUMP JUMPDEST SWAP2 POP POP SWAP3 POP SWAP3 SWAP1 POP JUMP JUMPDEST PUSH1 0x0 PUSH1 0x20 DUP3 DUP5 SUB SLT ISZERO PUSH2 0x488A JUMPI PUSH2 0x4889 PUSH2 0x58A4 JUMP JUMPDEST JUMPDEST PUSH1 0x0 PUSH2 0x4898 DUP5 DUP3 DUP6 ADD PUSH2 0x4271 JUMP JUMPDEST SWAP2 POP POP SWAP3 SWAP2 POP POP JUMP JUMPDEST PUSH1 0x0 PUSH1 0x20 DUP3 DUP5 SUB SLT ISZERO PUSH2 0x48B7 JUMPI PUSH2 0x48B6 PUSH2 0x58A4 JUMP JUMPDEST JUMPDEST PUSH1 0x0 PUSH2 0x48C5 DUP5 DUP3 DUP6 ADD PUSH2 0x4286 JUMP JUMPDEST SWAP2 POP POP SWAP3 SWAP2 POP POP JUMP JUMPDEST PUSH1 0x0 PUSH1 0x20 DUP3 DUP5 SUB SLT ISZERO PUSH2 0x48E4 JUMPI PUSH2 0x48E3 PUSH2 0x58A4 JUMP JUMPDEST JUMPDEST PUSH1 0x0 PUSH2 0x48F2 DUP5 DUP3 DUP6 ADD PUSH2 0x42F7 JUMP JUMPDEST SWAP2 POP POP SWAP3 SWAP2 POP POP JUMP JUMPDEST PUSH1 0x0 DUP1 PUSH1 0x40 DUP4 DUP6 SUB SLT ISZERO PUSH2 0x4912 JUMPI PUSH2 0x4911 PUSH2 0x58A4 JUMP JUMPDEST JUMPDEST PUSH1 0x0 PUSH2 0x4920 DUP6 DUP3 DUP7 ADD PUSH2 0x42F7 JUMP JUMPDEST SWAP3 POP POP PUSH1 0x20 DUP4 ADD CALLDATALOAD PUSH8 0xFFFFFFFFFFFFFFFF DUP2 GT ISZERO PUSH2 0x4941 JUMPI PUSH2 0x4940 PUSH2 0x589F JUMP JUMPDEST JUMPDEST PUSH2 0x494D DUP6 DUP3 DUP7 ADD PUSH2 0x42C9 JUMP JUMPDEST SWAP2 POP POP SWAP3 POP SWAP3 SWAP1 POP JUMP JUMPDEST PUSH1 0x0 DUP1 PUSH1 0x40 DUP4 DUP6 SUB SLT ISZERO PUSH2 0x496E JUMPI PUSH2 0x496D PUSH2 0x58A4 JUMP JUMPDEST JUMPDEST PUSH1 0x0 PUSH2 0x497C DUP6 DUP3 DUP7 ADD PUSH2 0x42F7 JUMP JUMPDEST SWAP3 POP POP PUSH1 0x20 PUSH2 0x498D DUP6 DUP3 DUP7 ADD PUSH2 0x42F7 JUMP JUMPDEST SWAP2 POP POP SWAP3 POP SWAP3 SWAP1 POP JUMP JUMPDEST PUSH1 0x0 PUSH2 0x49A3 DUP4 DUP4 PUSH2 0x4E5D JUMP JUMPDEST PUSH1 0x20 DUP4 ADD SWAP1 POP SWAP3 SWAP2 POP POP JUMP JUMPDEST PUSH2 0x49B8 DUP2 PUSH2 0x5614 JUMP JUMPDEST DUP3 MSTORE POP POP JUMP JUMPDEST PUSH1 0x0 PUSH2 0x49C9 DUP3 PUSH2 0x5529 JUMP JUMPDEST PUSH2 0x49D3 DUP2 DUP6 PUSH2 0x5557 JUMP JUMPDEST SWAP4 POP PUSH2 0x49DE DUP4 PUSH2 0x5519 JUMP JUMPDEST DUP1 PUSH1 0x0 JUMPDEST DUP4 DUP2 LT ISZERO PUSH2 0x4A0F JUMPI DUP2 MLOAD PUSH2 0x49F6 DUP9 DUP3 PUSH2 0x4997 JUMP JUMPDEST SWAP8 POP PUSH2 0x4A01 DUP4 PUSH2 0x554A JUMP JUMPDEST SWAP3 POP POP PUSH1 0x1 DUP2 ADD SWAP1 POP PUSH2 0x49E2 JUMP JUMPDEST POP DUP6 SWAP4 POP POP POP POP SWAP3 SWAP2 POP POP JUMP JUMPDEST PUSH2 0x4A25 DUP2 PUSH2 0x5626 JUMP JUMPDEST DUP3 MSTORE POP POP JUMP JUMPDEST PUSH1 0x0 PUSH2 0x4A36 DUP3 PUSH2 0x5534 JUMP JUMPDEST PUSH2 0x4A40 DUP2 DUP6 PUSH2 0x5568 JUMP JUMPDEST SWAP4 POP PUSH2 0x4A50 DUP2 DUP6 PUSH1 0x20 DUP7 ADD PUSH2 0x56A9 JUMP JUMPDEST PUSH2 0x4A59 DUP2 PUSH2 0x58A9 JUMP JUMPDEST DUP5 ADD SWAP2 POP POP SWAP3 SWAP2 POP POP JUMP JUMPDEST PUSH2 0x4A6D DUP2 PUSH2 0x5688 JUMP JUMPDEST DUP3 MSTORE POP POP JUMP JUMPDEST PUSH1 0x0 PUSH2 0x4A7E DUP3 PUSH2 0x553F JUMP JUMPDEST PUSH2 0x4A88 DUP2 DUP6 PUSH2 0x5579 JUMP JUMPDEST SWAP4 POP PUSH2 0x4A98 DUP2 DUP6 PUSH1 0x20 DUP7 ADD PUSH2 0x56A9 JUMP JUMPDEST PUSH2 0x4AA1 DUP2 PUSH2 0x58A9 JUMP JUMPDEST DUP5 ADD SWAP2 POP POP SWAP3 SWAP2 POP POP JUMP JUMPDEST PUSH1 0x0 PUSH2 0x4AB9 PUSH1 0x34 DUP4 PUSH2 0x5579 JUMP JUMPDEST SWAP2 POP PUSH2 0x4AC4 DUP3 PUSH2 0x58C7 JUMP JUMPDEST PUSH1 0x40 DUP3 ADD SWAP1 POP SWAP2 SWAP1 POP JUMP JUMPDEST PUSH1 0x0 PUSH2 0x4ADC PUSH1 0x13 DUP4 PUSH2 0x5579 JUMP JUMPDEST SWAP2 POP PUSH2 0x4AE7 DUP3 PUSH2 0x5916 JUMP JUMPDEST PUSH1 0x20 DUP3 ADD SWAP1 POP SWAP2 SWAP1 POP JUMP JUMPDEST PUSH1 0x0 PUSH2 0x4AFF PUSH1 0x28 DUP4 PUSH2 0x5579 JUMP JUMPDEST SWAP2 POP PUSH2 0x4B0A DUP3 PUSH2 0x593F JUMP JUMPDEST PUSH1 0x40 DUP3 ADD SWAP1 POP SWAP2 SWAP1 POP JUMP JUMPDEST PUSH1 0x0 PUSH2 0x4B22 PUSH1 0x14 DUP4 PUSH2 0x5579 JUMP JUMPDEST SWAP2 POP PUSH2 0x4B2D DUP3 PUSH2 0x598E JUMP JUMPDEST PUSH1 0x20 DUP3 ADD SWAP1 POP SWAP2 SWAP1 POP JUMP JUMPDEST PUSH1 0x0 PUSH2 0x4B45 PUSH1 0x14 DUP4 PUSH2 0x5579 JUMP JUMPDEST SWAP2 POP PUSH2 0x4B50 DUP3 PUSH2 0x59B7 JUMP JUMPDEST PUSH1 0x20 DUP3 ADD SWAP1 POP SWAP2 SWAP1 POP JUMP JUMPDEST PUSH1 0x0 PUSH2 0x4B68 PUSH1 0x11 DUP4 PUSH2 0x5579 JUMP JUMPDEST SWAP2 POP PUSH2 0x4B73 DUP3 PUSH2 0x59E0 JUMP JUMPDEST PUSH1 0x20 DUP3 ADD SWAP1 POP SWAP2 SWAP1 POP JUMP JUMPDEST PUSH1 0x0 PUSH2 0x4B8B PUSH1 0x2B DUP4 PUSH2 0x5579 JUMP JUMPDEST SWAP2 POP PUSH2 0x4B96 DUP3 PUSH2 0x5A09 JUMP JUMPDEST PUSH1 0x40 DUP3 ADD SWAP1 POP SWAP2 SWAP1 POP JUMP JUMPDEST PUSH1 0x0 PUSH2 0x4BAE PUSH1 0x26 DUP4 PUSH2 0x5579 JUMP JUMPDEST SWAP2 POP PUSH2 0x4BB9 DUP3 PUSH2 0x5A58 JUMP JUMPDEST PUSH1 0x40 DUP3 ADD SWAP1 POP SWAP2 SWAP1 POP JUMP JUMPDEST PUSH1 0x0 PUSH2 0x4BD1 PUSH1 0x1C DUP4 PUSH2 0x5579 JUMP JUMPDEST SWAP2 POP PUSH2 0x4BDC DUP3 PUSH2 0x5AA7 JUMP JUMPDEST PUSH1 0x20 DUP3 ADD SWAP1 POP SWAP2 SWAP1 POP JUMP JUMPDEST PUSH1 0x0 PUSH2 0x4BF4 PUSH1 0x24 DUP4 PUSH2 0x5579 JUMP JUMPDEST SWAP2 POP PUSH2 0x4BFF DUP3 PUSH2 0x5AD0 JUMP JUMPDEST PUSH1 0x40 DUP3 ADD SWAP1 POP SWAP2 SWAP1 POP JUMP JUMPDEST PUSH1 0x0 PUSH2 0x4C17 PUSH1 0x1E DUP4 PUSH2 0x5579 JUMP JUMPDEST SWAP2 POP PUSH2 0x4C22 DUP3 PUSH2 0x5B1F JUMP JUMPDEST PUSH1 0x20 DUP3 ADD SWAP1 POP SWAP2 SWAP1 POP JUMP JUMPDEST PUSH1 0x0 PUSH2 0x4C3A PUSH1 0x29 DUP4 PUSH2 0x5579 JUMP JUMPDEST SWAP2 POP PUSH2 0x4C45 DUP3 PUSH2 0x5B48 JUMP JUMPDEST PUSH1 0x40 DUP3 ADD SWAP1 POP SWAP2 SWAP1 POP JUMP JUMPDEST PUSH1 0x0 PUSH2 0x4C5D PUSH1 0x10 DUP4 PUSH2 0x5579 JUMP JUMPDEST SWAP2 POP PUSH2 0x4C68 DUP3 PUSH2 0x5B97 JUMP JUMPDEST PUSH1 0x20 DUP3 ADD SWAP1 POP SWAP2 SWAP1 POP JUMP JUMPDEST PUSH1 0x0 PUSH2 0x4C80 PUSH1 0x10 DUP4 PUSH2 0x5579 JUMP JUMPDEST SWAP2 POP PUSH2 0x4C8B DUP3 PUSH2 0x5BC0 JUMP JUMPDEST PUSH1 0x20 DUP3 ADD SWAP1 POP SWAP2 SWAP1 POP JUMP JUMPDEST PUSH1 0x0 PUSH2 0x4CA3 PUSH1 0x25 DUP4 PUSH2 0x5579 JUMP JUMPDEST SWAP2 POP PUSH2 0x4CAE DUP3 PUSH2 0x5BE9 JUMP JUMPDEST PUSH1 0x40 DUP3 ADD SWAP1 POP SWAP2 SWAP1 POP JUMP JUMPDEST PUSH1 0x0 PUSH2 0x4CC6 PUSH1 0x32 DUP4 PUSH2 0x5579 JUMP JUMPDEST SWAP2 POP PUSH2 0x4CD1 DUP3 PUSH2 0x5C38 JUMP JUMPDEST PUSH1 0x40 DUP3 ADD SWAP1 POP SWAP2 SWAP1 POP JUMP JUMPDEST PUSH1 0x0 PUSH2 0x4CE9 PUSH1 0x23 DUP4 PUSH2 0x5579 JUMP JUMPDEST SWAP2 POP PUSH2 0x4CF4 DUP3 PUSH2 0x5C87 JUMP JUMPDEST PUSH1 0x40 DUP3 ADD SWAP1 POP SWAP2 SWAP1 POP JUMP JUMPDEST PUSH1 0x0 PUSH2 0x4D0C PUSH1 0x2A DUP4 PUSH2 0x5579 JUMP JUMPDEST SWAP2 POP PUSH2 0x4D17 DUP3 PUSH2 0x5CD6 JUMP JUMPDEST PUSH1 0x40 DUP3 ADD SWAP1 POP SWAP2 SWAP1 POP JUMP JUMPDEST PUSH1 0x0 PUSH2 0x4D2F PUSH1 0x21 DUP4 PUSH2 0x5579 JUMP JUMPDEST SWAP2 POP PUSH2 0x4D3A DUP3 PUSH2 0x5D25 JUMP JUMPDEST PUSH1 0x40 DUP3 ADD SWAP1 POP SWAP2 SWAP1 POP JUMP JUMPDEST PUSH1 0x0 PUSH2 0x4D52 PUSH1 0x20 DUP4 PUSH2 0x5579 JUMP JUMPDEST SWAP2 POP PUSH2 0x4D5D DUP3 PUSH2 0x5D74 JUMP JUMPDEST PUSH1 0x20 DUP3 ADD SWAP1 POP SWAP2 SWAP1 POP JUMP JUMPDEST PUSH1 0x0 PUSH2 0x4D75 PUSH1 0x23 DUP4 PUSH2 0x5579 JUMP JUMPDEST SWAP2 POP PUSH2 0x4D80 DUP3 PUSH2 0x5D9D JUMP JUMPDEST PUSH1 0x40 DUP3 ADD SWAP1 POP SWAP2 SWAP1 POP JUMP JUMPDEST PUSH1 0x0 PUSH2 0x4D98 PUSH1 0x15 DUP4 PUSH2 0x5579 JUMP JUMPDEST SWAP2 POP PUSH2 0x4DA3 DUP3 PUSH2 0x5DEC JUMP JUMPDEST PUSH1 0x20 DUP3 ADD SWAP1 POP SWAP2 SWAP1 POP JUMP JUMPDEST PUSH1 0x0 PUSH2 0x4DBB PUSH1 0x29 DUP4 PUSH2 0x5579 JUMP JUMPDEST SWAP2 POP PUSH2 0x4DC6 DUP3 PUSH2 0x5E15 JUMP JUMPDEST PUSH1 0x40 DUP3 ADD SWAP1 POP SWAP2 SWAP1 POP JUMP JUMPDEST PUSH1 0x0 PUSH2 0x4DDE PUSH1 0x29 DUP4 PUSH2 0x5579 JUMP JUMPDEST SWAP2 POP PUSH2 0x4DE9 DUP3 PUSH2 0x5E64 JUMP JUMPDEST PUSH1 0x40 DUP3 ADD SWAP1 POP SWAP2 SWAP1 POP JUMP JUMPDEST PUSH1 0x0 PUSH2 0x4E01 PUSH1 0x28 DUP4 PUSH2 0x5579 JUMP JUMPDEST SWAP2 POP PUSH2 0x4E0C DUP3 PUSH2 0x5EB3 JUMP JUMPDEST PUSH1 0x40 DUP3 ADD SWAP1 POP SWAP2 SWAP1 POP JUMP JUMPDEST PUSH1 0x0 PUSH2 0x4E24 PUSH1 0x21 DUP4 PUSH2 0x5579 JUMP JUMPDEST SWAP2 POP PUSH2 0x4E2F DUP3 PUSH2 0x5F02 JUMP JUMPDEST PUSH1 0x40 DUP3 ADD SWAP1 POP SWAP2 SWAP1 POP JUMP JUMPDEST PUSH1 0x0 PUSH2 0x4E47 PUSH1 0x31 DUP4 PUSH2 0x5579 JUMP JUMPDEST SWAP2 POP PUSH2 0x4E52 DUP3 PUSH2 0x5F51 JUMP JUMPDEST PUSH1 0x40 DUP3 ADD SWAP1 POP SWAP2 SWAP1 POP JUMP JUMPDEST PUSH2 0x4E66 DUP2 PUSH2 0x567E JUMP JUMPDEST DUP3 MSTORE POP POP JUMP JUMPDEST PUSH2 0x4E75 DUP2 PUSH2 0x567E JUMP JUMPDEST DUP3 MSTORE POP POP JUMP JUMPDEST PUSH1 0x0 PUSH1 0x20 DUP3 ADD SWAP1 POP PUSH2 0x4E90 PUSH1 0x0 DUP4 ADD DUP5 PUSH2 0x49AF JUMP JUMPDEST SWAP3 SWAP2 POP POP JUMP JUMPDEST PUSH1 0x0 PUSH1 0xA0 DUP3 ADD SWAP1 POP PUSH2 0x4EAB PUSH1 0x0 DUP4 ADD DUP9 PUSH2 0x49AF JUMP JUMPDEST PUSH2 0x4EB8 PUSH1 0x20 DUP4 ADD DUP8 PUSH2 0x49AF JUMP JUMPDEST DUP2 DUP2 SUB PUSH1 0x40 DUP4 ADD MSTORE PUSH2 0x4ECA DUP2 DUP7 PUSH2 0x49BE JUMP JUMPDEST SWAP1 POP DUP2 DUP2 SUB PUSH1 0x60 DUP4 ADD MSTORE PUSH2 0x4EDE DUP2 DUP6 PUSH2 0x49BE JUMP JUMPDEST SWAP1 POP DUP2 DUP2 SUB PUSH1 0x80 DUP4 ADD MSTORE PUSH2 0x4EF2 DUP2 DUP5 PUSH2 0x4A2B JUMP JUMPDEST SWAP1 POP SWAP7 SWAP6 POP POP POP POP POP POP JUMP JUMPDEST PUSH1 0x0 PUSH1 0xA0 DUP3 ADD SWAP1 POP PUSH2 0x4F13 PUSH1 0x0 DUP4 ADD DUP9 PUSH2 0x49AF JUMP JUMPDEST PUSH2 0x4F20 PUSH1 0x20 DUP4 ADD DUP8 PUSH2 0x49AF JUMP JUMPDEST PUSH2 0x4F2D PUSH1 0x40 DUP4 ADD DUP7 PUSH2 0x4E6C JUMP JUMPDEST PUSH2 0x4F3A PUSH1 0x60 DUP4 ADD DUP6 PUSH2 0x4E6C JUMP JUMPDEST DUP2 DUP2 SUB PUSH1 0x80 DUP4 ADD MSTORE PUSH2 0x4F4C DUP2 DUP5 PUSH2 0x4A2B JUMP JUMPDEST SWAP1 POP SWAP7 SWAP6 POP POP POP POP POP POP JUMP JUMPDEST PUSH1 0x0 PUSH1 0x20 DUP3 ADD SWAP1 POP DUP2 DUP2 SUB PUSH1 0x0 DUP4 ADD MSTORE PUSH2 0x4F72 DUP2 DUP5 PUSH2 0x49BE JUMP JUMPDEST SWAP1 POP SWAP3 SWAP2 POP POP JUMP JUMPDEST PUSH1 0x0 PUSH1 0x40 DUP3 ADD SWAP1 POP DUP2 DUP2 SUB PUSH1 0x0 DUP4 ADD MSTORE PUSH2 0x4F94 DUP2 DUP6 PUSH2 0x49BE JUMP JUMPDEST SWAP1 POP DUP2 DUP2 SUB PUSH1 0x20 DUP4 ADD MSTORE PUSH2 0x4FA8 DUP2 DUP5 PUSH2 0x49BE JUMP JUMPDEST SWAP1 POP SWAP4 SWAP3 POP POP POP JUMP JUMPDEST PUSH1 0x0 PUSH1 0x20 DUP3 ADD SWAP1 POP PUSH2 0x4FC6 PUSH1 0x0 DUP4 ADD DUP5 PUSH2 0x4A1C JUMP JUMPDEST SWAP3 SWAP2 POP POP JUMP JUMPDEST PUSH1 0x0 PUSH1 0x20 DUP3 ADD SWAP1 POP DUP2 DUP2 SUB PUSH1 0x0 DUP4 ADD MSTORE PUSH2 0x4FE6 DUP2 DUP5 PUSH2 0x4A73 JUMP JUMPDEST SWAP1 POP SWAP3 SWAP2 POP POP JUMP JUMPDEST PUSH1 0x0 PUSH1 0x20 DUP3 ADD SWAP1 POP DUP2 DUP2 SUB PUSH1 0x0 DUP4 ADD MSTORE PUSH2 0x5007 DUP2 PUSH2 0x4AAC JUMP JUMPDEST SWAP1 POP SWAP2 SWAP1 POP JUMP JUMPDEST PUSH1 0x0 PUSH1 0x20 DUP3 ADD SWAP1 POP DUP2 DUP2 SUB PUSH1 0x0 DUP4 ADD MSTORE PUSH2 0x5027 DUP2 PUSH2 0x4ACF JUMP JUMPDEST SWAP1 POP SWAP2 SWAP1 POP JUMP JUMPDEST PUSH1 0x0 PUSH1 0x20 DUP3 ADD SWAP1 POP DUP2 DUP2 SUB PUSH1 0x0 DUP4 ADD MSTORE PUSH2 0x5047 DUP2 PUSH2 0x4AF2 JUMP JUMPDEST SWAP1 POP SWAP2 SWAP1 POP JUMP JUMPDEST PUSH1 0x0 PUSH1 0x20 DUP3 ADD SWAP1 POP DUP2 DUP2 SUB PUSH1 0x0 DUP4 ADD MSTORE PUSH2 0x5067 DUP2 PUSH2 0x4B15 JUMP JUMPDEST SWAP1 POP SWAP2 SWAP1 POP JUMP JUMPDEST PUSH1 0x0 PUSH1 0x80 DUP3 ADD SWAP1 POP DUP2 DUP2 SUB PUSH1 0x0 DUP4 ADD MSTORE PUSH2 0x5087 DUP2 PUSH2 0x4B38 JUMP JUMPDEST SWAP1 POP PUSH2 0x5096 PUSH1 0x20 DUP4 ADD DUP7 PUSH2 0x49AF JUMP JUMPDEST PUSH2 0x50A3 PUSH1 0x40 DUP4 ADD DUP6 PUSH2 0x4A64 JUMP JUMPDEST PUSH2 0x50B0 PUSH1 0x60 DUP4 ADD DUP5 PUSH2 0x4E6C JUMP JUMPDEST SWAP5 SWAP4 POP POP POP POP JUMP JUMPDEST PUSH1 0x0 PUSH1 0x20 DUP3 ADD SWAP1 POP DUP2 DUP2 SUB PUSH1 0x0 DUP4 ADD MSTORE PUSH2 0x50D1 DUP2 PUSH2 0x4B5B JUMP JUMPDEST SWAP1 POP SWAP2 SWAP1 POP JUMP JUMPDEST PUSH1 0x0 PUSH1 0x20 DUP3 ADD SWAP1 POP DUP2 DUP2 SUB PUSH1 0x0 DUP4 ADD MSTORE PUSH2 0x50F1 DUP2 PUSH2 0x4B7E JUMP JUMPDEST SWAP1 POP SWAP2 SWAP1 POP JUMP JUMPDEST PUSH1 0x0 PUSH1 0x20 DUP3 ADD SWAP1 POP DUP2 DUP2 SUB PUSH1 0x0 DUP4 ADD MSTORE PUSH2 0x5111 DUP2 PUSH2 0x4BA1 JUMP JUMPDEST SWAP1 POP SWAP2 SWAP1 POP JUMP JUMPDEST PUSH1 0x0 PUSH1 0x80 DUP3 ADD SWAP1 POP DUP2 DUP2 SUB PUSH1 0x0 DUP4 ADD MSTORE PUSH2 0x5131 DUP2 PUSH2 0x4BC4 JUMP JUMPDEST SWAP1 POP PUSH2 0x5140 PUSH1 0x20 DUP4 ADD DUP7 PUSH2 0x49AF JUMP JUMPDEST PUSH2 0x514D PUSH1 0x40 DUP4 ADD DUP6 PUSH2 0x4A64 JUMP JUMPDEST PUSH2 0x515A PUSH1 0x60 DUP4 ADD DUP5 PUSH2 0x4E6C JUMP JUMPDEST SWAP5 SWAP4 POP POP POP POP JUMP JUMPDEST PUSH1 0x0 PUSH1 0x20 DUP3 ADD SWAP1 POP DUP2 DUP2 SUB PUSH1 0x0 DUP4 ADD MSTORE PUSH2 0x517B DUP2 PUSH2 0x4BE7 JUMP JUMPDEST SWAP1 POP SWAP2 SWAP1 POP JUMP JUMPDEST PUSH1 0x0 PUSH1 0x80 DUP3 ADD SWAP1 POP DUP2 DUP2 SUB PUSH1 0x0 DUP4 ADD MSTORE PUSH2 0x519B DUP2 PUSH2 0x4C0A JUMP JUMPDEST SWAP1 POP PUSH2 0x51AA PUSH1 0x20 DUP4 ADD DUP7 PUSH2 0x49AF JUMP JUMPDEST PUSH2 0x51B7 PUSH1 0x40 DUP4 ADD DUP6 PUSH2 0x4E6C JUMP JUMPDEST PUSH2 0x51C4 PUSH1 0x60 DUP4 ADD DUP5 PUSH2 0x4E6C JUMP JUMPDEST SWAP5 SWAP4 POP POP POP POP JUMP JUMPDEST PUSH1 0x0 PUSH1 0x20 DUP3 ADD SWAP1 POP DUP2 DUP2 SUB PUSH1 0x0 DUP4 ADD MSTORE PUSH2 0x51E5 DUP2 PUSH2 0x4C2D JUMP JUMPDEST SWAP1 POP SWAP2 SWAP1 POP JUMP JUMPDEST PUSH1 0x0 PUSH1 0x20 DUP3 ADD SWAP1 POP DUP2 DUP2 SUB PUSH1 0x0 DUP4 ADD MSTORE PUSH2 0x5205 DUP2 PUSH2 0x4C50 JUMP JUMPDEST SWAP1 POP SWAP2 SWAP1 POP JUMP JUMPDEST PUSH1 0x0 PUSH1 0x20 DUP3 ADD SWAP1 POP DUP2 DUP2 SUB PUSH1 0x0 DUP4 ADD MSTORE PUSH2 0x5225 DUP2 PUSH2 0x4C73 JUMP JUMPDEST SWAP1 POP SWAP2 SWAP1 POP JUMP JUMPDEST PUSH1 0x0 PUSH1 0x20 DUP3 ADD SWAP1 POP DUP2 DUP2 SUB PUSH1 0x0 DUP4 ADD MSTORE PUSH2 0x5245 DUP2 PUSH2 0x4C96 JUMP JUMPDEST SWAP1 POP SWAP2 SWAP1 POP JUMP JUMPDEST PUSH1 0x0 PUSH1 0x20 DUP3 ADD SWAP1 POP DUP2 DUP2 SUB PUSH1 0x0 DUP4 ADD MSTORE PUSH2 0x5265 DUP2 PUSH2 0x4CB9 JUMP JUMPDEST SWAP1 POP SWAP2 SWAP1 POP JUMP JUMPDEST PUSH1 0x0 PUSH1 0x20 DUP3 ADD SWAP1 POP DUP2 DUP2 SUB PUSH1 0x0 DUP4 ADD MSTORE PUSH2 0x5285 DUP2 PUSH2 0x4CDC JUMP JUMPDEST SWAP1 POP SWAP2 SWAP1 POP JUMP JUMPDEST PUSH1 0x0 PUSH1 0x20 DUP3 ADD SWAP1 POP DUP2 DUP2 SUB PUSH1 0x0 DUP4 ADD MSTORE PUSH2 0x52A5 DUP2 PUSH2 0x4CFF JUMP JUMPDEST SWAP1 POP SWAP2 SWAP1 POP JUMP JUMPDEST PUSH1 0x0 PUSH1 0x80 DUP3 ADD SWAP1 POP DUP2 DUP2 SUB PUSH1 0x0 DUP4 ADD MSTORE PUSH2 0x52C5 DUP2 PUSH2 0x4D22 JUMP JUMPDEST SWAP1 POP PUSH2 0x52D4 PUSH1 0x20 DUP4 ADD DUP7 PUSH2 0x49AF JUMP JUMPDEST PUSH2 0x52E1 PUSH1 0x40 DUP4 ADD DUP6 PUSH2 0x4E6C JUMP JUMPDEST PUSH2 0x52EE PUSH1 0x60 DUP4 ADD DUP5 PUSH2 0x4E6C JUMP JUMPDEST SWAP5 SWAP4 POP POP POP POP JUMP JUMPDEST PUSH1 0x0 PUSH1 0x20 DUP3 ADD SWAP1 POP DUP2 DUP2 SUB PUSH1 0x0 DUP4 ADD MSTORE PUSH2 0x530F DUP2 PUSH2 0x4D45 JUMP JUMPDEST SWAP1 POP SWAP2 SWAP1 POP JUMP JUMPDEST PUSH1 0x0 PUSH1 0x20 DUP3 ADD SWAP1 POP DUP2 DUP2 SUB PUSH1 0x0 DUP4 ADD MSTORE PUSH2 0x532F DUP2 PUSH2 0x4D68 JUMP JUMPDEST SWAP1 POP SWAP2 SWAP1 POP JUMP JUMPDEST PUSH1 0x0 PUSH1 0x20 DUP3 ADD SWAP1 POP DUP2 DUP2 SUB PUSH1 0x0 DUP4 ADD MSTORE PUSH2 0x534F DUP2 PUSH2 0x4D8B JUMP JUMPDEST SWAP1 POP SWAP2 SWAP1 POP JUMP JUMPDEST PUSH1 0x0 PUSH1 0x20 DUP3 ADD SWAP1 POP DUP2 DUP2 SUB PUSH1 0x0 DUP4 ADD MSTORE PUSH2 0x536F DUP2 PUSH2 0x4DAE JUMP JUMPDEST SWAP1 POP SWAP2 SWAP1 POP JUMP JUMPDEST PUSH1 0x0 PUSH1 0x20 DUP3 ADD SWAP1 POP DUP2 DUP2 SUB PUSH1 0x0 DUP4 ADD MSTORE PUSH2 0x538F DUP2 PUSH2 0x4DD1 JUMP JUMPDEST SWAP1 POP SWAP2 SWAP1 POP JUMP JUMPDEST PUSH1 0x0 PUSH1 0x20 DUP3 ADD SWAP1 POP DUP2 DUP2 SUB PUSH1 0x0 DUP4 ADD MSTORE PUSH2 0x53AF DUP2 PUSH2 0x4DF4 JUMP JUMPDEST SWAP1 POP SWAP2 SWAP1 POP JUMP JUMPDEST PUSH1 0x0 PUSH1 0x20 DUP3 ADD SWAP1 POP DUP2 DUP2 SUB PUSH1 0x0 DUP4 ADD MSTORE PUSH2 0x53CF DUP2 PUSH2 0x4E17 JUMP JUMPDEST SWAP1 POP SWAP2 SWAP1 POP JUMP JUMPDEST PUSH1 0x0 PUSH1 0x20 DUP3 ADD SWAP1 POP DUP2 DUP2 SUB PUSH1 0x0 DUP4 ADD MSTORE PUSH2 0x53EF DUP2 PUSH2 0x4E3A JUMP JUMPDEST SWAP1 POP SWAP2 SWAP1 POP JUMP JUMPDEST PUSH1 0x0 PUSH1 0x20 DUP3 ADD SWAP1 POP PUSH2 0x540B PUSH1 0x0 DUP4 ADD DUP5 PUSH2 0x4E6C JUMP JUMPDEST SWAP3 SWAP2 POP POP JUMP JUMPDEST PUSH1 0x0 PUSH1 0x40 DUP3 ADD SWAP1 POP PUSH2 0x5426 PUSH1 0x0 DUP4 ADD DUP6 PUSH2 0x4E6C JUMP JUMPDEST PUSH2 0x5433 PUSH1 0x20 DUP4 ADD DUP5 PUSH2 0x4E6C JUMP JUMPDEST SWAP4 SWAP3 POP POP POP JUMP JUMPDEST PUSH1 0x0 PUSH2 0x5444 PUSH2 0x5455 JUMP JUMPDEST SWAP1 POP PUSH2 0x5450 DUP3 DUP3 PUSH2 0x5738 JUMP JUMPDEST SWAP2 SWAP1 POP JUMP JUMPDEST PUSH1 0x0 PUSH1 0x40 MLOAD SWAP1 POP SWAP1 JUMP JUMPDEST PUSH1 0x0 PUSH8 0xFFFFFFFFFFFFFFFF DUP3 GT ISZERO PUSH2 0x547A JUMPI PUSH2 0x5479 PUSH2 0x583F JUMP JUMPDEST JUMPDEST PUSH1 0x20 DUP3 MUL SWAP1 POP PUSH1 0x20 DUP2 ADD SWAP1 POP SWAP2 SWAP1 POP JUMP JUMPDEST PUSH1 0x0 PUSH8 0xFFFFFFFFFFFFFFFF DUP3 GT ISZERO PUSH2 0x54A6 JUMPI PUSH2 0x54A5 PUSH2 0x583F JUMP JUMPDEST JUMPDEST PUSH1 0x20 DUP3 MUL SWAP1 POP PUSH1 0x20 DUP2 ADD SWAP1 POP SWAP2 SWAP1 POP JUMP JUMPDEST PUSH1 0x0 PUSH8 0xFFFFFFFFFFFFFFFF DUP3 GT ISZERO PUSH2 0x54D2 JUMPI PUSH2 0x54D1 PUSH2 0x583F JUMP JUMPDEST JUMPDEST PUSH2 0x54DB DUP3 PUSH2 0x58A9 JUMP JUMPDEST SWAP1 POP PUSH1 0x20 DUP2 ADD SWAP1 POP SWAP2 SWAP1 POP JUMP JUMPDEST PUSH1 0x0 PUSH8 0xFFFFFFFFFFFFFFFF DUP3 GT ISZERO PUSH2 0x5503 JUMPI PUSH2 0x5502 PUSH2 0x583F JUMP JUMPDEST JUMPDEST PUSH2 0x550C DUP3 PUSH2 0x58A9 JUMP JUMPDEST SWAP1 POP PUSH1 0x20 DUP2 ADD SWAP1 POP SWAP2 SWAP1 POP JUMP JUMPDEST PUSH1 0x0 DUP2 SWAP1 POP PUSH1 0x20 DUP3 ADD SWAP1 POP SWAP2 SWAP1 POP JUMP JUMPDEST PUSH1 0x0 DUP2 MLOAD SWAP1 POP SWAP2 SWAP1 POP JUMP JUMPDEST PUSH1 0x0 DUP2 MLOAD SWAP1 POP SWAP2 SWAP1 POP JUMP JUMPDEST PUSH1 0x0 DUP2 MLOAD SWAP1 POP SWAP2 SWAP1 POP JUMP JUMPDEST PUSH1 0x0 PUSH1 0x20 DUP3 ADD SWAP1 POP SWAP2 SWAP1 POP JUMP JUMPDEST PUSH1 0x0 DUP3 DUP3 MSTORE PUSH1 0x20 DUP3 ADD SWAP1 POP SWAP3 SWAP2 POP POP JUMP JUMPDEST PUSH1 0x0 DUP3 DUP3 MSTORE PUSH1 0x20 DUP3 ADD SWAP1 POP SWAP3 SWAP2 POP POP JUMP JUMPDEST PUSH1 0x0 DUP3 DUP3 MSTORE PUSH1 0x20 DUP3 ADD SWAP1 POP SWAP3 SWAP2 POP POP JUMP JUMPDEST PUSH1 0x0 PUSH2 0x5595 DUP3 PUSH2 0x567E JUMP JUMPDEST SWAP2 POP PUSH2 0x55A0 DUP4 PUSH2 0x567E JUMP JUMPDEST SWAP3 POP DUP3 PUSH32 0xFFFFFFFFFFFFFFFFFFFFFFFFFFFFFFFFFFFFFFFFFFFFFFFFFFFFFFFFFFFFFFFF SUB DUP3 GT ISZERO PUSH2 0x55D5 JUMPI PUSH2 0x55D4 PUSH2 0x57B2 JUMP JUMPDEST JUMPDEST DUP3 DUP3 ADD SWAP1 POP SWAP3 SWAP2 POP POP JUMP JUMPDEST PUSH1 0x0 PUSH2 0x55EB DUP3 PUSH2 0x567E JUMP JUMPDEST SWAP2 POP PUSH2 0x55F6 DUP4 PUSH2 0x567E JUMP JUMPDEST SWAP3 POP DUP3 DUP3 LT ISZERO PUSH2 0x5609 JUMPI PUSH2 0x5608 PUSH2 0x57B2 JUMP JUMPDEST JUMPDEST DUP3 DUP3 SUB SWAP1 POP SWAP3 SWAP2 POP POP JUMP JUMPDEST PUSH1 0x0 PUSH2 0x561F DUP3 PUSH2 0x565E JUMP JUMPDEST SWAP1 POP SWAP2 SWAP1 POP JUMP JUMPDEST PUSH1 0x0 DUP2 ISZERO ISZERO SWAP1 POP SWAP2 SWAP1 POP JUMP JUMPDEST PUSH1 0x0 PUSH32 0xFFFFFFFF00000000000000000000000000000000000000000000000000000000 DUP3 AND SWAP1 POP SWAP2 SWAP1 POP JUMP JUMPDEST PUSH1 0x0 PUSH20 0xFFFFFFFFFFFFFFFFFFFFFFFFFFFFFFFFFFFFFFFF DUP3 AND SWAP1 POP SWAP2 SWAP1 POP JUMP JUMPDEST PUSH1 0x0 DUP2 SWAP1 POP SWAP2 SWAP1 POP JUMP JUMPDEST PUSH1 0x0 PUSH2 0x5693 DUP3 PUSH2 0x567E JUMP JUMPDEST SWAP1 POP SWAP2 SWAP1 POP JUMP JUMPDEST DUP3 DUP2 DUP4 CALLDATACOPY PUSH1 0x0 DUP4 DUP4 ADD MSTORE POP POP POP JUMP JUMPDEST PUSH1 0x0 JUMPDEST DUP4 DUP2 LT ISZERO PUSH2 0x56C7 JUMPI DUP1 DUP3 ADD MLOAD DUP2 DUP5 ADD MSTORE PUSH1 0x20 DUP2 ADD SWAP1 POP PUSH2 0x56AC JUMP JUMPDEST DUP4 DUP2 GT ISZERO PUSH2 0x56D6 JUMPI PUSH1 0x0 DUP5 DUP5 ADD MSTORE JUMPDEST POP POP POP POP JUMP JUMPDEST PUSH1 0x0 PUSH2 0x56E7 DUP3 PUSH2 0x567E JUMP JUMPDEST SWAP2 POP PUSH1 0x0 DUP3 EQ ISZERO PUSH2 0x56FB JUMPI PUSH2 0x56FA PUSH2 0x57B2 JUMP JUMPDEST JUMPDEST PUSH1 0x1 DUP3 SUB SWAP1 POP SWAP2 SWAP1 POP JUMP JUMPDEST PUSH1 0x0 PUSH1 0x2 DUP3 DIV SWAP1 POP PUSH1 0x1 DUP3 AND DUP1 PUSH2 0x571E JUMPI PUSH1 0x7F DUP3 AND SWAP2 POP JUMPDEST PUSH1 0x20 DUP3 LT DUP2 EQ ISZERO PUSH2 0x5732 JUMPI PUSH2 0x5731 PUSH2 0x57E1 JUMP JUMPDEST JUMPDEST POP SWAP2 SWAP1 POP JUMP JUMPDEST PUSH2 0x5741 DUP3 PUSH2 0x58A9 JUMP JUMPDEST DUP2 ADD DUP2 DUP2 LT PUSH8 0xFFFFFFFFFFFFFFFF DUP3 GT OR ISZERO PUSH2 0x5760 JUMPI PUSH2 0x575F PUSH2 0x583F JUMP JUMPDEST JUMPDEST DUP1 PUSH1 0x40 MSTORE POP POP POP JUMP JUMPDEST PUSH1 0x0 PUSH2 0x5774 DUP3 PUSH2 0x567E JUMP JUMPDEST SWAP2 POP PUSH32 0xFFFFFFFFFFFFFFFFFFFFFFFFFFFFFFFFFFFFFFFFFFFFFFFFFFFFFFFFFFFFFFFF DUP3 EQ ISZERO PUSH2 0x57A7 JUMPI PUSH2 0x57A6 PUSH2 0x57B2 JUMP JUMPDEST JUMPDEST PUSH1 0x1 DUP3 ADD SWAP1 POP SWAP2 SWAP1 POP JUMP JUMPDEST PUSH32 0x4E487B7100000000000000000000000000000000000000000000000000000000 PUSH1 0x0 MSTORE PUSH1 0x11 PUSH1 0x4 MSTORE PUSH1 0x24 PUSH1 0x0 REVERT JUMPDEST PUSH32 0x4E487B7100000000000000000000000000000000000000000000000000000000 PUSH1 0x0 MSTORE PUSH1 0x22 PUSH1 0x4 MSTORE PUSH1 0x24 PUSH1 0x0 REVERT JUMPDEST PUSH32 0x4E487B7100000000000000000000000000000000000000000000000000000000 PUSH1 0x0 MSTORE PUSH1 0x32 PUSH1 0x4 MSTORE PUSH1 0x24 PUSH1 0x0 REVERT JUMPDEST PUSH32 0x4E487B7100000000000000000000000000000000000000000000000000000000 PUSH1 0x0 MSTORE PUSH1 0x41 PUSH1 0x4 MSTORE PUSH1 0x24 PUSH1 0x0 REVERT JUMPDEST PUSH1 0x0 PUSH1 0x3 RETURNDATASIZE GT ISZERO PUSH2 0x588D JUMPI PUSH1 0x4 PUSH1 0x0 DUP1 RETURNDATACOPY PUSH2 0x588A PUSH1 0x0 MLOAD PUSH2 0x58BA JUMP JUMPDEST SWAP1 POP JUMPDEST SWAP1 JUMP JUMPDEST PUSH1 0x0 DUP1 REVERT JUMPDEST PUSH1 0x0 DUP1 REVERT JUMPDEST PUSH1 0x0 DUP1 REVERT JUMPDEST PUSH1 0x0 DUP1 REVERT JUMPDEST PUSH1 0x0 DUP1 REVERT JUMPDEST PUSH1 0x0 PUSH1 0x1F NOT PUSH1 0x1F DUP4 ADD AND SWAP1 POP SWAP2 SWAP1 POP JUMP JUMPDEST PUSH1 0x0 DUP2 PUSH1 0xE0 SHR SWAP1 POP SWAP2 SWAP1 POP JUMP JUMPDEST PUSH32 0x455243313135353A207472616E7366657220746F206E6F6E2045524331313535 PUSH1 0x0 DUP3 ADD MSTORE PUSH32 0x526563656976657220696D706C656D656E746572000000000000000000000000 PUSH1 0x20 DUP3 ADD MSTORE POP JUMP JUMPDEST PUSH32 0x546F6B656E20646F65736E277420657869737400000000000000000000000000 PUSH1 0x0 DUP3 ADD MSTORE POP JUMP JUMPDEST PUSH32 0x455243313135353A204552433131353552656365697665722072656A65637465 PUSH1 0x0 DUP3 ADD MSTORE PUSH32 0x6420746F6B656E73000000000000000000000000000000000000000000000000 PUSH1 0x20 DUP3 ADD MSTORE POP JUMP JUMPDEST PUSH32 0x5061757361626C653A206E6F7420706175736564000000000000000000000000 PUSH1 0x0 DUP3 ADD MSTORE POP JUMP JUMPDEST PUSH32 0x4D6F64696665722076616C6964546F6B656E4964000000000000000000000000 PUSH1 0x0 DUP3 ADD MSTORE POP JUMP JUMPDEST PUSH32 0x4E6F7420656E6F75676820737570706C79000000000000000000000000000000 PUSH1 0x0 DUP3 ADD MSTORE POP JUMP JUMPDEST PUSH32 0x455243313135353A2062616C616E636520717565727920666F7220746865207A PUSH1 0x0 DUP3 ADD MSTORE PUSH32 0x65726F2061646472657373000000000000000000000000000000000000000000 PUSH1 0x20 DUP3 ADD MSTORE POP JUMP JUMPDEST PUSH32 0x4F776E61626C653A206E6577206F776E657220697320746865207A65726F2061 PUSH1 0x0 DUP3 ADD MSTORE PUSH32 0x6464726573730000000000000000000000000000000000000000000000000000 PUSH1 0x20 DUP3 ADD MSTORE POP JUMP JUMPDEST PUSH32 0x4D6F6469666572206F6E6C7957686974656C6973744164647265737300000000 PUSH1 0x0 DUP3 ADD MSTORE POP JUMP JUMPDEST PUSH32 0x455243313135353A206275726E20616D6F756E7420657863656564732062616C PUSH1 0x0 DUP3 ADD MSTORE PUSH32 0x616E636500000000000000000000000000000000000000000000000000000000 PUSH1 0x20 DUP3 ADD MSTORE POP JUMP JUMPDEST PUSH32 0x6164647265737320697320616C72656164792077686974656C69737465640000 PUSH1 0x0 DUP3 ADD MSTORE POP JUMP JUMPDEST PUSH32 0x455243313135353A2063616C6C6572206973206E6F74206F776E6572206E6F72 PUSH1 0x0 DUP3 ADD MSTORE PUSH32 0x20617070726F7665640000000000000000000000000000000000000000000000 PUSH1 0x20 DUP3 ADD MSTORE POP JUMP JUMPDEST PUSH32 0x457863656564206D6178537570706C7900000000000000000000000000000000 PUSH1 0x0 DUP3 ADD MSTORE POP JUMP JUMPDEST PUSH32 0x5061757361626C653A2070617573656400000000000000000000000000000000 PUSH1 0x0 DUP3 ADD MSTORE POP JUMP JUMPDEST PUSH32 0x455243313135353A207472616E7366657220746F20746865207A65726F206164 PUSH1 0x0 DUP3 ADD MSTORE PUSH32 0x6472657373000000000000000000000000000000000000000000000000000000 PUSH1 0x20 DUP3 ADD MSTORE POP JUMP JUMPDEST PUSH32 0x455243313135353A207472616E736665722063616C6C6572206973206E6F7420 PUSH1 0x0 DUP3 ADD MSTORE PUSH32 0x6F776E6572206E6F7220617070726F7665640000000000000000000000000000 PUSH1 0x20 DUP3 ADD MSTORE POP JUMP JUMPDEST PUSH32 0x455243313135353A206275726E2066726F6D20746865207A65726F2061646472 PUSH1 0x0 DUP3 ADD MSTORE PUSH32 0x6573730000000000000000000000000000000000000000000000000000000000 PUSH1 0x20 DUP3 ADD MSTORE POP JUMP JUMPDEST PUSH32 0x455243313135353A20696E73756666696369656E742062616C616E636520666F PUSH1 0x0 DUP3 ADD MSTORE PUSH32 0x72207472616E7366657200000000000000000000000000000000000000000000 PUSH1 0x20 DUP3 ADD MSTORE POP JUMP JUMPDEST PUSH32 0x416472657373206973206E6F7420616C72656164792077686974656C69737465 PUSH1 0x0 DUP3 ADD MSTORE PUSH32 0x6400000000000000000000000000000000000000000000000000000000000000 PUSH1 0x20 DUP3 ADD MSTORE POP JUMP JUMPDEST PUSH32 0x4F776E61626C653A2063616C6C6572206973206E6F7420746865206F776E6572 PUSH1 0x0 DUP3 ADD MSTORE POP JUMP JUMPDEST PUSH32 0x41646472657373206E6F742077686974656C69737465642E2043616E74206D69 PUSH1 0x0 DUP3 ADD MSTORE PUSH32 0x6E742E0000000000000000000000000000000000000000000000000000000000 PUSH1 0x20 DUP3 ADD MSTORE POP JUMP JUMPDEST PUSH32 0x4E6F7420656E6F7567682065746865722073656E740000000000000000000000 PUSH1 0x0 DUP3 ADD MSTORE POP JUMP JUMPDEST PUSH32 0x455243313135353A2073657474696E6720617070726F76616C20737461747573 PUSH1 0x0 DUP3 ADD MSTORE PUSH32 0x20666F722073656C660000000000000000000000000000000000000000000000 PUSH1 0x20 DUP3 ADD MSTORE POP JUMP JUMPDEST PUSH32 0x455243313135353A206163636F756E747320616E6420696473206C656E677468 PUSH1 0x0 DUP3 ADD MSTORE PUSH32 0x206D69736D617463680000000000000000000000000000000000000000000000 PUSH1 0x20 DUP3 ADD MSTORE POP JUMP JUMPDEST PUSH32 0x455243313135353A2069647320616E6420616D6F756E7473206C656E67746820 PUSH1 0x0 DUP3 ADD MSTORE PUSH32 0x6D69736D61746368000000000000000000000000000000000000000000000000 PUSH1 0x20 DUP3 ADD MSTORE POP JUMP JUMPDEST PUSH32 0x455243313135353A206D696E7420746F20746865207A65726F20616464726573 PUSH1 0x0 DUP3 ADD MSTORE PUSH32 0x7300000000000000000000000000000000000000000000000000000000000000 PUSH1 0x20 DUP3 ADD MSTORE POP JUMP JUMPDEST PUSH32 0x4F6E6C79207468652063757272656E74207472656173757265722063616E2063 PUSH1 0x0 DUP3 ADD MSTORE PUSH32 0x616C6C20746869732066756E6374696F6E000000000000000000000000000000 PUSH1 0x20 DUP3 ADD MSTORE POP JUMP JUMPDEST PUSH1 0x0 PUSH1 0x44 RETURNDATASIZE LT ISZERO PUSH2 0x5FB0 JUMPI PUSH2 0x6033 JUMP JUMPDEST PUSH2 0x5FB8 PUSH2 0x5455 JUMP JUMPDEST PUSH1 0x4 RETURNDATASIZE SUB PUSH1 0x4 DUP3 RETURNDATACOPY DUP1 MLOAD RETURNDATASIZE PUSH1 0x24 DUP3 ADD GT PUSH8 0xFFFFFFFFFFFFFFFF DUP3 GT OR ISZERO PUSH2 0x5FE0 JUMPI POP POP PUSH2 0x6033 JUMP JUMPDEST DUP1 DUP3 ADD DUP1 MLOAD PUSH8 0xFFFFFFFFFFFFFFFF DUP2 GT ISZERO PUSH2 0x5FFE JUMPI POP POP POP POP PUSH2 0x6033 JUMP JUMPDEST DUP1 PUSH1 0x20 DUP4 ADD ADD PUSH1 0x4 RETURNDATASIZE SUB DUP6 ADD DUP2 GT ISZERO PUSH2 0x601B JUMPI POP POP POP POP POP PUSH2 0x6033 JUMP JUMPDEST PUSH2 0x602A DUP3 PUSH1 0x20 ADD DUP6 ADD DUP7 PUSH2 0x5738 JUMP JUMPDEST DUP3 SWAP6 POP POP POP POP POP POP JUMPDEST SWAP1 JUMP JUMPDEST PUSH2 0x603F DUP2 PUSH2 0x5614 JUMP JUMPDEST DUP2 EQ PUSH2 0x604A JUMPI PUSH1 0x0 DUP1 REVERT JUMPDEST POP JUMP JUMPDEST PUSH2 0x6056 DUP2 PUSH2 0x5626 JUMP JUMPDEST DUP2 EQ PUSH2 0x6061 JUMPI PUSH1 0x0 DUP1 REVERT JUMPDEST POP JUMP JUMPDEST PUSH2 0x606D DUP2 PUSH2 0x5632 JUMP JUMPDEST DUP2 EQ PUSH2 0x6078 JUMPI PUSH1 0x0 DUP1 REVERT JUMPDEST POP JUMP JUMPDEST PUSH2 0x6084 DUP2 PUSH2 0x567E JUMP JUMPDEST DUP2 EQ PUSH2 0x608F JUMPI PUSH1 0x0 DUP1 REVERT JUMPDEST POP JUMP INVALID LOG2 PUSH5 0x6970667358 0x22 SLT KECCAK256 DUP12 MLOAD 0xB9 0xDB MOD 0xF8 0xBE LOG2 0xE7 0xCA CALLDATACOPY SWAP2 DUP7 PUSH1 0x46 0xF8 LT 0x2B 0x26 CALLDATASIZE 0xEA 0xD8 0xD8 CALLDATASIZE CALL CREATE2 PUSH21 0x3EB9044CFC64736F6C634300080700330000000000 "
		},
		"gasEstimates": {
			"creation": {
				"codeDepositCost": "4955200",
				"executionCost": "infinite",
				"totalCost": "infinite"
			},
			"external": {
				"IsWhitelisted(address)": "2887",
				"balanceOf(address,uint256)": "infinite",
				"balanceOfBatch(address[],uint256[])": "infinite",
				"batchRemoveWhitelist(address[],uint256)": "infinite",
				"batchWhitelistAddress(address[],uint256)": "infinite",
				"burn(address,uint256,uint256)": "infinite",
				"burn(uint256,uint256)": "infinite",
				"burnBatch(address,uint256[],uint256[])": "infinite",
				"burnBatch(uint256[],uint256[])": "infinite",
				"burnForMint(address,uint256[],uint256[],uint256[],uint256[])": "infinite",
				"changeTreasurer(address)": "27003",
				"contractBalance()": "2788",
				"exists(uint256)": "2881",
				"getWhitelistCount(uint256)": "infinite",
				"isApprovedForAll(address,address)": "infinite",
				"mintAll(address)": "infinite",
				"name()": "infinite",
				"owner()": "2567",
				"pause()": "infinite",
				"paused()": "2574",
				"renounceOwnership()": "30463",
				"safeBatchTransferFrom(address,address,uint256[],uint256[],bytes)": "infinite",
				"safeTransferFrom(address,address,uint256,uint256,bytes)": "infinite",
				"setApprovalForAll(address,bool)": "infinite",
				"setURI(uint256,string)": "infinite",
				"supportsInterface(bytes4)": "842",
				"symbol()": "infinite",
				"tokenURI(uint256)": "infinite",
				"totalSupply(uint256)": "infinite",
				"transferOwnership(address)": "30811",
				"treasurer()": "2646",
				"unpause()": "infinite",
				"uri(uint256)": "infinite",
				"whitelist(address)": "2903",
				"withdrawAll()": "infinite",
				"withdrawPart(uint256)": "infinite"
			},
			"internal": {
				"_RemoveWhitelist(address,uint256)": "infinite",
				"_beforeTokenTransfer(address,address,address,uint256[] memory,uint256[] memory,bytes memory)": "infinite",
				"mint(address,uint256)": "infinite"
			}
		},
		"methodIdentifiers": {
			"IsWhitelisted(address)": "2ae5d2f9",
			"balanceOf(address,uint256)": "00fdd58e",
			"balanceOfBatch(address[],uint256[])": "4e1273f4",
			"batchRemoveWhitelist(address[],uint256)": "50f787dc",
			"batchWhitelistAddress(address[],uint256)": "36576424",
			"burn(address,uint256,uint256)": "f5298aca",
			"burn(uint256,uint256)": "b390c0ab",
			"burnBatch(address,uint256[],uint256[])": "6b20c454",
			"burnBatch(uint256[],uint256[])": "83ca4b6f",
			"burnForMint(address,uint256[],uint256[],uint256[],uint256[])": "510f4104",
			"changeTreasurer(address)": "cca87bc8",
			"contractBalance()": "8b7afe2e",
			"exists(uint256)": "4f558e79",
			"getWhitelistCount(uint256)": "acb3180f",
			"isApprovedForAll(address,address)": "e985e9c5",
			"mintAll(address)": "56c88f5f",
			"name()": "06fdde03",
			"owner()": "8da5cb5b",
			"pause()": "8456cb59",
			"paused()": "5c975abb",
			"renounceOwnership()": "715018a6",
			"safeBatchTransferFrom(address,address,uint256[],uint256[],bytes)": "2eb2c2d6",
			"safeTransferFrom(address,address,uint256,uint256,bytes)": "f242432a",
			"setApprovalForAll(address,bool)": "a22cb465",
			"setURI(uint256,string)": "862440e2",
			"supportsInterface(bytes4)": "01ffc9a7",
			"symbol()": "95d89b41",
			"tokenURI(uint256)": "c87b56dd",
			"totalSupply(uint256)": "bd85b039",
			"transferOwnership(address)": "f2fde38b",
			"treasurer()": "fda49eb4",
			"unpause()": "3f4ba83a",
			"uri(uint256)": "0e89341c",
			"whitelist(address)": "9b19251a",
			"withdrawAll()": "853828b6",
			"withdrawPart(uint256)": "7daf06fd"
		}
	},
	"abi": [
		{
			"inputs": [],
			"stateMutability": "nonpayable",
			"type": "constructor"
		},
		{
			"anonymous": false,
			"inputs": [
				{
					"indexed": true,
					"internalType": "address",
					"name": "account",
					"type": "address"
				},
				{
					"indexed": true,
					"internalType": "address",
					"name": "operator",
					"type": "address"
				},
				{
					"indexed": false,
					"internalType": "bool",
					"name": "approved",
					"type": "bool"
				}
			],
			"name": "ApprovalForAll",
			"type": "event"
		},
		{
			"anonymous": false,
			"inputs": [
				{
					"indexed": false,
					"internalType": "string",
					"name": "msg",
					"type": "string"
				},
				{
					"indexed": false,
					"internalType": "address",
					"name": "_id",
					"type": "address"
				},
				{
					"indexed": false,
					"internalType": "uint256",
					"name": "count",
					"type": "uint256"
				},
				{
					"indexed": false,
					"internalType": "uint256",
					"name": "addressvalue",
					"type": "uint256"
				}
			],
			"name": "Log",
			"type": "event"
		},
		{
			"anonymous": false,
			"inputs": [
				{
					"indexed": true,
					"internalType": "address",
					"name": "previousOwner",
					"type": "address"
				},
				{
					"indexed": true,
					"internalType": "address",
					"name": "newOwner",
					"type": "address"
				}
			],
			"name": "OwnershipTransferred",
			"type": "event"
		},
		{
			"anonymous": false,
			"inputs": [
				{
					"indexed": false,
					"internalType": "address",
					"name": "account",
					"type": "address"
				}
			],
			"name": "Paused",
			"type": "event"
		},
		{
			"anonymous": false,
			"inputs": [
				{
					"indexed": true,
					"internalType": "address",
					"name": "operator",
					"type": "address"
				},
				{
					"indexed": true,
					"internalType": "address",
					"name": "from",
					"type": "address"
				},
				{
					"indexed": true,
					"internalType": "address",
					"name": "to",
					"type": "address"
				},
				{
					"indexed": false,
					"internalType": "uint256[]",
					"name": "ids",
					"type": "uint256[]"
				},
				{
					"indexed": false,
					"internalType": "uint256[]",
					"name": "values",
					"type": "uint256[]"
				}
			],
			"name": "TransferBatch",
			"type": "event"
		},
		{
			"anonymous": false,
			"inputs": [
				{
					"indexed": true,
					"internalType": "address",
					"name": "operator",
					"type": "address"
				},
				{
					"indexed": true,
					"internalType": "address",
					"name": "from",
					"type": "address"
				},
				{
					"indexed": true,
					"internalType": "address",
					"name": "to",
					"type": "address"
				},
				{
					"indexed": false,
					"internalType": "uint256",
					"name": "id",
					"type": "uint256"
				},
				{
					"indexed": false,
					"internalType": "uint256",
					"name": "value",
					"type": "uint256"
				}
			],
			"name": "TransferSingle",
			"type": "event"
		},
		{
			"anonymous": false,
			"inputs": [
				{
					"indexed": false,
					"internalType": "string",
					"name": "value",
					"type": "string"
				},
				{
					"indexed": true,
					"internalType": "uint256",
					"name": "id",
					"type": "uint256"
				}
			],
			"name": "URI",
			"type": "event"
		},
		{
			"anonymous": false,
			"inputs": [
				{
					"indexed": false,
					"internalType": "address",
					"name": "account",
					"type": "address"
				}
			],
			"name": "Unpaused",
			"type": "event"
		},
		{
			"inputs": [
				{
					"internalType": "address",
					"name": "_address",
					"type": "address"
				}
			],
			"name": "IsWhitelisted",
			"outputs": [
				{
					"internalType": "uint256",
					"name": "",
					"type": "uint256"
				}
			],
			"stateMutability": "view",
			"type": "function"
		},
		{
			"inputs": [
				{
					"internalType": "address",
					"name": "account",
					"type": "address"
				},
				{
					"internalType": "uint256",
					"name": "id",
					"type": "uint256"
				}
			],
			"name": "balanceOf",
			"outputs": [
				{
					"internalType": "uint256",
					"name": "",
					"type": "uint256"
				}
			],
			"stateMutability": "view",
			"type": "function"
		},
		{
			"inputs": [
				{
					"internalType": "address[]",
					"name": "accounts",
					"type": "address[]"
				},
				{
					"internalType": "uint256[]",
					"name": "ids",
					"type": "uint256[]"
				}
			],
			"name": "balanceOfBatch",
			"outputs": [
				{
					"internalType": "uint256[]",
					"name": "",
					"type": "uint256[]"
				}
			],
			"stateMutability": "view",
			"type": "function"
		},
		{
			"inputs": [
				{
					"internalType": "address[]",
					"name": "_addresses",
					"type": "address[]"
				},
				{
					"internalType": "uint256",
					"name": "_id",
					"type": "uint256"
				}
			],
			"name": "batchRemoveWhitelist",
			"outputs": [],
			"stateMutability": "nonpayable",
			"type": "function"
		},
		{
			"inputs": [
				{
					"internalType": "address[]",
					"name": "_addresses",
					"type": "address[]"
				},
				{
					"internalType": "uint256",
					"name": "_id",
					"type": "uint256"
				}
			],
			"name": "batchWhitelistAddress",
			"outputs": [],
			"stateMutability": "nonpayable",
			"type": "function"
		},
		{
			"inputs": [
				{
					"internalType": "uint256",
					"name": "_id",
					"type": "uint256"
				},
				{
					"internalType": "uint256",
					"name": "_amount",
					"type": "uint256"
				}
			],
			"name": "burn",
			"outputs": [],
			"stateMutability": "nonpayable",
			"type": "function"
		},
		{
			"inputs": [
				{
					"internalType": "address",
					"name": "account",
					"type": "address"
				},
				{
					"internalType": "uint256",
					"name": "id",
					"type": "uint256"
				},
				{
					"internalType": "uint256",
					"name": "value",
					"type": "uint256"
				}
			],
			"name": "burn",
			"outputs": [],
			"stateMutability": "nonpayable",
			"type": "function"
		},
		{
			"inputs": [
				{
					"internalType": "address",
					"name": "account",
					"type": "address"
				},
				{
					"internalType": "uint256[]",
					"name": "ids",
					"type": "uint256[]"
				},
				{
					"internalType": "uint256[]",
					"name": "values",
					"type": "uint256[]"
				}
			],
			"name": "burnBatch",
			"outputs": [],
			"stateMutability": "nonpayable",
			"type": "function"
		},
		{
			"inputs": [
				{
					"internalType": "uint256[]",
					"name": "_ids",
					"type": "uint256[]"
				},
				{
					"internalType": "uint256[]",
					"name": "_amounts",
					"type": "uint256[]"
				}
			],
			"name": "burnBatch",
			"outputs": [],
			"stateMutability": "nonpayable",
			"type": "function"
		},
		{
			"inputs": [
				{
					"internalType": "address",
					"name": "_from",
					"type": "address"
				},
				{
					"internalType": "uint256[]",
					"name": "_burnIds",
					"type": "uint256[]"
				},
				{
					"internalType": "uint256[]",
					"name": "_burnAmounts",
					"type": "uint256[]"
				},
				{
					"internalType": "uint256[]",
					"name": "_mintIds",
					"type": "uint256[]"
				},
				{
					"internalType": "uint256[]",
					"name": "_mintAmounts",
					"type": "uint256[]"
				}
			],
			"name": "burnForMint",
			"outputs": [],
			"stateMutability": "nonpayable",
			"type": "function"
		},
		{
			"inputs": [
				{
					"internalType": "address",
					"name": "_treasurer",
					"type": "address"
				}
			],
			"name": "changeTreasurer",
			"outputs": [],
			"stateMutability": "nonpayable",
			"type": "function"
		},
		{
			"inputs": [],
			"name": "contractBalance",
			"outputs": [
				{
					"internalType": "uint256",
					"name": "",
					"type": "uint256"
				}
			],
			"stateMutability": "view",
			"type": "function"
		},
		{
			"inputs": [
				{
					"internalType": "uint256",
					"name": "id",
					"type": "uint256"
				}
			],
			"name": "exists",
			"outputs": [
				{
					"internalType": "bool",
					"name": "",
					"type": "bool"
				}
			],
			"stateMutability": "view",
			"type": "function"
		},
		{
			"inputs": [
				{
					"internalType": "uint256",
					"name": "_id",
					"type": "uint256"
				}
			],
			"name": "getWhitelistCount",
			"outputs": [
				{
					"internalType": "uint256",
					"name": "",
					"type": "uint256"
				}
			],
			"stateMutability": "view",
			"type": "function"
		},
		{
			"inputs": [
				{
					"internalType": "address",
					"name": "account",
					"type": "address"
				},
				{
					"internalType": "address",
					"name": "operator",
					"type": "address"
				}
			],
			"name": "isApprovedForAll",
			"outputs": [
				{
					"internalType": "bool",
					"name": "",
					"type": "bool"
				}
			],
			"stateMutability": "view",
			"type": "function"
		},
		{
			"inputs": [
				{
					"internalType": "address",
					"name": "_to",
					"type": "address"
				}
			],
			"name": "mintAll",
			"outputs": [],
			"stateMutability": "payable",
			"type": "function"
		},
		{
			"inputs": [],
			"name": "name",
			"outputs": [
				{
					"internalType": "string",
					"name": "",
					"type": "string"
				}
			],
			"stateMutability": "view",
			"type": "function"
		},
		{
			"inputs": [],
			"name": "owner",
			"outputs": [
				{
					"internalType": "address",
					"name": "",
					"type": "address"
				}
			],
			"stateMutability": "view",
			"type": "function"
		},
		{
			"inputs": [],
			"name": "pause",
			"outputs": [],
			"stateMutability": "nonpayable",
			"type": "function"
		},
		{
			"inputs": [],
			"name": "paused",
			"outputs": [
				{
					"internalType": "bool",
					"name": "",
					"type": "bool"
				}
			],
			"stateMutability": "view",
			"type": "function"
		},
		{
			"inputs": [],
			"name": "renounceOwnership",
			"outputs": [],
			"stateMutability": "nonpayable",
			"type": "function"
		},
		{
			"inputs": [
				{
					"internalType": "address",
					"name": "from",
					"type": "address"
				},
				{
					"internalType": "address",
					"name": "to",
					"type": "address"
				},
				{
					"internalType": "uint256[]",
					"name": "ids",
					"type": "uint256[]"
				},
				{
					"internalType": "uint256[]",
					"name": "amounts",
					"type": "uint256[]"
				},
				{
					"internalType": "bytes",
					"name": "data",
					"type": "bytes"
				}
			],
			"name": "safeBatchTransferFrom",
			"outputs": [],
			"stateMutability": "nonpayable",
			"type": "function"
		},
		{
			"inputs": [
				{
					"internalType": "address",
					"name": "from",
					"type": "address"
				},
				{
					"internalType": "address",
					"name": "to",
					"type": "address"
				},
				{
					"internalType": "uint256",
					"name": "id",
					"type": "uint256"
				},
				{
					"internalType": "uint256",
					"name": "amount",
					"type": "uint256"
				},
				{
					"internalType": "bytes",
					"name": "data",
					"type": "bytes"
				}
			],
			"name": "safeTransferFrom",
			"outputs": [],
			"stateMutability": "nonpayable",
			"type": "function"
		},
		{
			"inputs": [
				{
					"internalType": "address",
					"name": "operator",
					"type": "address"
				},
				{
					"internalType": "bool",
					"name": "approved",
					"type": "bool"
				}
			],
			"name": "setApprovalForAll",
			"outputs": [],
			"stateMutability": "nonpayable",
			"type": "function"
		},
		{
			"inputs": [
				{
					"internalType": "uint256",
					"name": "_id",
					"type": "uint256"
				},
				{
					"internalType": "string",
					"name": "_uri",
					"type": "string"
				}
			],
			"name": "setURI",
			"outputs": [],
			"stateMutability": "nonpayable",
			"type": "function"
		},
		{
			"inputs": [
				{
					"internalType": "bytes4",
					"name": "interfaceId",
					"type": "bytes4"
				}
			],
			"name": "supportsInterface",
			"outputs": [
				{
					"internalType": "bool",
					"name": "",
					"type": "bool"
				}
			],
			"stateMutability": "view",
			"type": "function"
		},
		{
			"inputs": [],
			"name": "symbol",
			"outputs": [
				{
					"internalType": "string",
					"name": "",
					"type": "string"
				}
			],
			"stateMutability": "view",
			"type": "function"
		},
		{
			"inputs": [
				{
					"internalType": "uint256",
					"name": "",
					"type": "uint256"
				}
			],
			"name": "tokenURI",
			"outputs": [
				{
					"internalType": "string",
					"name": "",
					"type": "string"
				}
			],
			"stateMutability": "view",
			"type": "function"
		},
		{
			"inputs": [
				{
					"internalType": "uint256",
					"name": "id",
					"type": "uint256"
				}
			],
			"name": "totalSupply",
			"outputs": [
				{
					"internalType": "uint256",
					"name": "",
					"type": "uint256"
				}
			],
			"stateMutability": "view",
			"type": "function"
		},
		{
			"inputs": [
				{
					"internalType": "address",
					"name": "newOwner",
					"type": "address"
				}
			],
			"name": "transferOwnership",
			"outputs": [],
			"stateMutability": "nonpayable",
			"type": "function"
		},
		{
			"inputs": [],
			"name": "treasurer",
			"outputs": [
				{
					"internalType": "address",
					"name": "",
					"type": "address"
				}
			],
			"stateMutability": "view",
			"type": "function"
		},
		{
			"inputs": [],
			"name": "unpause",
			"outputs": [],
			"stateMutability": "nonpayable",
			"type": "function"
		},
		{
			"inputs": [
				{
					"internalType": "uint256",
					"name": "_id",
					"type": "uint256"
				}
			],
			"name": "uri",
			"outputs": [
				{
					"internalType": "string",
					"name": "",
					"type": "string"
				}
			],
			"stateMutability": "view",
			"type": "function"
		},
		{
			"inputs": [
				{
					"internalType": "address",
					"name": "",
					"type": "address"
				}
			],
			"name": "whitelist",
			"outputs": [
				{
					"internalType": "uint256",
					"name": "",
					"type": "uint256"
				}
			],
			"stateMutability": "view",
			"type": "function"
		},
		{
			"inputs": [],
			"name": "withdrawAll",
			"outputs": [],
			"stateMutability": "payable",
			"type": "function"
		},
		{
			"inputs": [
				{
					"internalType": "uint256",
					"name": "amount",
					"type": "uint256"
				}
			],
			"name": "withdrawPart",
			"outputs": [],
			"stateMutability": "payable",
			"type": "function"
		}
	]
}