{
	"data": {
		"bytecode": {
			"linkReferences": {},
			"object": "60806040526040518060400160405280601881526020017f466f7274756e652054726561737572652048756e74696e67000000000000000081525060059080519060200190620000519291906200030c565b506040518060400160405280600481526020017f464f525400000000000000000000000000000000000000000000000000000000815250600690805190602001906200009f9291906200030c565b506040518060400160405280610fa061ffff16815260200160fa61ffff168152506007906002620000d29291906200039d565b506040518060400160405280600060ff168152602001600060ff16815250600890600262000102929190620003f5565b50604051806040016040528066038d7ea4c6800066ffffffffffffff168152602001600066ffffffffffffff168152506009906002620001449291906200044c565b506040518060400160405280600060ff168152602001600060ff16815250600a90600262000174929190620003f5565b503480156200018257600080fd5b5060405180602001604052806000815250620001a4816200022260201b60201c565b50620001c5620001b96200023e60201b60201c565b6200024660201b60201c565b6000600360146101000a81548160ff0219169083151502179055506005808054620001f09062000560565b620001fd929190620004a9565b5060068080546200020e9062000560565b6200021b929190620004a9565b50620005c5565b80600290805190602001906200023a9291906200030c565b5050565b600033905090565b6000600360009054906101000a900473ffffffffffffffffffffffffffffffffffffffff16905081600360006101000a81548173ffffffffffffffffffffffffffffffffffffffff021916908373ffffffffffffffffffffffffffffffffffffffff1602179055508173ffffffffffffffffffffffffffffffffffffffff168173ffffffffffffffffffffffffffffffffffffffff167f8be0079c531659141344cd1fd0a4f28419497f9722a3daafe3b4186f6b6457e060405160405180910390a35050565b8280546200031a9062000560565b90600052602060002090601f0160209004810192826200033e57600085556200038a565b82601f106200035957805160ff19168380011785556200038a565b828001600101855582156200038a579182015b82811115620003895782518255916020019190600101906200036c565b5b50905062000399919062000541565b5090565b828054828255906000526020600020908101928215620003e2579160200282015b82811115620003e1578251829061ffff16905591602001919060010190620003be565b5b509050620003f1919062000541565b5090565b82805482825590600052602060002090810192821562000439579160200282015b8281111562000438578251829060ff1690559160200191906001019062000416565b5b50905062000448919062000541565b5090565b82805482825590600052602060002090810192821562000496579160200282015b8281111562000495578251829066ffffffffffffff169055916020019190600101906200046d565b5b509050620004a5919062000541565b5090565b828054620004b79062000560565b90600052602060002090601f016020900481019282620004db57600085556200052e565b82601f10620004ee57805485556200052e565b828001600101855582156200052e57600052602060002091601f016020900482015b828111156200052d57825482559160010191906001019062000510565b5b5090506200053d919062000541565b5090565b5b808211156200055c57600081600090555060010162000542565b5090565b600060028204905060018216806200057957607f821691505b6020821081141562000590576200058f62000596565b5b50919050565b7f4e487b7100000000000000000000000000000000000000000000000000000000600052602260045260246000fd5b615e7180620005d56000396000f3fe6080604052600436106101f85760003560e01c80638456cb591161010d578063acb3180f116100a0578063d81d0a151161006f578063d81d0a1514610712578063e985e9c51461073b578063f242432a14610778578063f2fde38b146107a1578063f5298aca146107ca576101f8565b8063acb3180f14610632578063b390c0ab1461066f578063bd85b03914610698578063c87b56dd146106d5576101f8565b80638da5cb5b116100dc5780638da5cb5b1461057657806395d89b41146105a15780639b19251a146105cc578063a22cb46514610609576101f8565b80638456cb5914610501578063853828b614610518578063862440e2146105225780638b7afe2e1461054b576101f8565b80634e1273f41161019057806356c88f5f1161015f57806356c88f5f146104515780635c975abb1461046d5780636b20c45414610498578063715018a6146104c157806383ca4b6f146104d8576101f8565b80634e1273f4146103855780634f558e79146103c257806350f787dc146103ff578063510f410414610428576101f8565b80632ae5d2f9116101cc5780632ae5d2f9146102df5780632eb2c2d61461031c57806336576424146103455780633f4ba83a1461036e576101f8565b8062fdd58e146101fd57806301ffc9a71461023a57806306fdde03146102775780630e89341c146102a2575b600080fd5b34801561020957600080fd5b50610224600480360381019061021f91906144d0565b6107f3565b60405161023191906151ee565b60405180910390f35b34801561024657600080fd5b50610261600480360381019061025c91906146af565b6108bc565b60405161026e9190614dc9565b60405180910390f35b34801561028357600080fd5b5061028c61099e565b6040516102999190614de4565b60405180910390f35b3480156102ae57600080fd5b506102c960048036038101906102c49190614709565b610a2c565b6040516102d69190614de4565b60405180910390f35b3480156102eb57600080fd5b5061030660048036038101906103019190614147565b610ad1565b60405161031391906151ee565b60405180910390f35b34801561032857600080fd5b50610343600480360381019061033e91906141b4565b610b1a565b005b34801561035157600080fd5b5061036c600480360381019061036791906145db565b610bbb565b005b34801561037a57600080fd5b50610383611078565b005b34801561039157600080fd5b506103ac60048036038101906103a79190614563565b6110fe565b6040516103b99190614d70565b60405180910390f35b3480156103ce57600080fd5b506103e960048036038101906103e49190614709565b611217565b6040516103f69190614dc9565b60405180910390f35b34801561040b57600080fd5b50610426600480360381019061042191906145db565b61122b565b005b34801561043457600080fd5b5061044f600480360381019061044a91906143a5565b611411565b005b61046b60048036038101906104669190614147565b6114ba565b005b34801561047957600080fd5b5061048261169d565b60405161048f9190614dc9565b60405180910390f35b3480156104a457600080fd5b506104bf60048036038101906104ba919061431a565b6116b4565b005b3480156104cd57600080fd5b506104d6611751565b005b3480156104e457600080fd5b506104ff60048036038101906104fa9190614637565b6117d9565b005b34801561050d57600080fd5b506105166117e8565b005b61052061186e565b005b34801561052e57600080fd5b5061054960048036038101906105449190614736565b611933565b005b34801561055757600080fd5b50610560611a13565b60405161056d91906151ee565b60405180910390f35b34801561058257600080fd5b5061058b611a97565b6040516105989190614c93565b60405180910390f35b3480156105ad57600080fd5b506105b6611ac1565b6040516105c39190614de4565b60405180910390f35b3480156105d857600080fd5b506105f360048036038101906105ee9190614147565b611b4f565b60405161060091906151ee565b60405180910390f35b34801561061557600080fd5b50610630600480360381019061062b9190614490565b611b67565b005b34801561063e57600080fd5b5061065960048036038101906106549190614709565b611b7d565b60405161066691906151ee565b60405180910390f35b34801561067b57600080fd5b5061069660048036038101906106919190614792565b611bb1565b005b3480156106a457600080fd5b506106bf60048036038101906106ba9190614709565b611bc0565b6040516106cc91906151ee565b60405180910390f35b3480156106e157600080fd5b506106fc60048036038101906106f79190614709565b611bdd565b6040516107099190614de4565b60405180910390f35b34801561071e57600080fd5b506107396004803603810190610734919061431a565b611c7d565b005b34801561074757600080fd5b50610762600480360381019061075d9190614174565b611d19565b60405161076f9190614dc9565b60405180910390f35b34801561078457600080fd5b5061079f600480360381019061079a9190614283565b611dad565b005b3480156107ad57600080fd5b506107c860048036038101906107c39190614147565b611e4e565b005b3480156107d657600080fd5b506107f160048036038101906107ec9190614510565b611f46565b005b60008073ffffffffffffffffffffffffffffffffffffffff168373ffffffffffffffffffffffffffffffffffffffff161415610864576040517f08c379a000000000000000000000000000000000000000000000000000000000815260040161085b90614ef0565b60405180910390fd5b60008083815260200190815260200160002060008473ffffffffffffffffffffffffffffffffffffffff1673ffffffffffffffffffffffffffffffffffffffff16815260200190815260200160002054905092915050565b60007fd9b67a26000000000000000000000000000000000000000000000000000000007bffffffffffffffffffffffffffffffffffffffffffffffffffffffff1916827bffffffffffffffffffffffffffffffffffffffffffffffffffffffff1916148061098757507f0e89341c000000000000000000000000000000000000000000000000000000007bffffffffffffffffffffffffffffffffffffffffffffffffffffffff1916827bffffffffffffffffffffffffffffffffffffffffffffffffffffffff1916145b80610997575061099682611fe3565b5b9050919050565b600580546109ab906154fe565b80601f01602080910402602001604051908101604052809291908181526020018280546109d7906154fe565b8015610a245780601f106109f957610100808354040283529160200191610a24565b820191906000526020600020905b815481529060010190602001808311610a0757829003601f168201915b505050505081565b6060600b60008381526020019081526020016000208054610a4c906154fe565b80601f0160208091040260200160405190810160405280929190818152602001828054610a78906154fe565b8015610ac55780601f10610a9a57610100808354040283529160200191610ac5565b820191906000526020600020905b815481529060010190602001808311610aa857829003601f168201915b50505050509050919050565b6000600c60008373ffffffffffffffffffffffffffffffffffffffff1673ffffffffffffffffffffffffffffffffffffffff168152602001908152602001600020549050919050565b610b2261204d565b73ffffffffffffffffffffffffffffffffffffffff168573ffffffffffffffffffffffffffffffffffffffff161480610b685750610b6785610b6261204d565b611d19565b5b610ba7576040517f08c379a0000000000000000000000000000000000000000000000000000000008152600401610b9e90615064565b60405180910390fd5b610bb48585858585612055565b5050505050565b610bc361204d565b73ffffffffffffffffffffffffffffffffffffffff16610be1611a97565b73ffffffffffffffffffffffffffffffffffffffff1614610c37576040517f08c379a0000000000000000000000000000000000000000000000000000000008152600401610c2e9061510e565b60405180910390fd5b807fa2455ec11f160d321516c021994881e7678c0b5870cd7aae50107098770e2c28336000600c60003373ffffffffffffffffffffffffffffffffffffffff1673ffffffffffffffffffffffffffffffffffffffff16815260200190815260200160002054604051610cab93929190614e86565b60405180910390a16007805490508111158015610cc85750600081115b610d07576040517f08c379a0000000000000000000000000000000000000000000000000000000008152600401610cfe90614e26565b60405180910390fd5b60005b8351811015611072576000600c6000868481518110610d2c57610d2b615608565b5b602002602001015173ffffffffffffffffffffffffffffffffffffffff1673ffffffffffffffffffffffffffffffffffffffff168152602001908152602001600020541415610f865782600c6000868481518110610d8d57610d8c615608565b5b602002602001015173ffffffffffffffffffffffffffffffffffffffff1673ffffffffffffffffffffffffffffffffffffffff168152602001908152602001600020819055506007600184610de291906153d8565b81548110610df357610df2615608565b5b90600052602060002001546001600a600186610e0f91906153d8565b81548110610e2057610e1f615608565b5b9060005260206000200154610e359190615382565b1115610e76576040517f08c379a0000000000000000000000000000000000000000000000000000000008152600401610e6d90615004565b60405180910390fd5b600a600184610e8591906153d8565b81548110610e9657610e95615608565b5b906000526020600020016000815480929190610eb190615561565b919050555060018314610f81576007600081548110610ed357610ed2615608565b5b90600052602060002001546001600a600081548110610ef557610ef4615608565b5b9060005260206000200154610f0a9190615382565b1115610f4b576040517f08c379a0000000000000000000000000000000000000000000000000000000008152600401610f4290615004565b60405180910390fd5b600a600081548110610f6057610f5f615608565b5b906000526020600020016000815480929190610f7b90615561565b91905055505b61105f565b7fa2455ec11f160d321516c021994881e7678c0b5870cd7aae50107098770e2c28848281518110610fba57610fb9615608565b5b6020026020010151600a600186610fd191906153d8565b81548110610fe257610fe1615608565b5b9060005260206000200154600c600088868151811061100457611003615608565b5b602002602001015173ffffffffffffffffffffffffffffffffffffffff1673ffffffffffffffffffffffffffffffffffffffff1681526020019081526020016000205460405161105693929190614f9a565b60405180910390a15b808061106a90615561565b915050610d0a565b50505050565b61108061204d565b73ffffffffffffffffffffffffffffffffffffffff1661109e611a97565b73ffffffffffffffffffffffffffffffffffffffff16146110f4576040517f08c379a00000000000000000000000000000000000000000000000000000000081526004016110eb9061510e565b60405180910390fd5b6110fc612369565b565b60608151835114611144576040517f08c379a000000000000000000000000000000000000000000000000000000000815260040161113b9061518e565b60405180910390fd5b6000835167ffffffffffffffff81111561116157611160615637565b5b60405190808252806020026020018201604052801561118f5781602001602082028036833780820191505090505b50905060005b845181101561120c576111dc8582815181106111b4576111b3615608565b5b60200260200101518583815181106111cf576111ce615608565b5b60200260200101516107f3565b8282815181106111ef576111ee615608565b5b6020026020010181815250508061120590615561565b9050611195565b508091505092915050565b60008061122383611bc0565b119050919050565b61123361204d565b73ffffffffffffffffffffffffffffffffffffffff16611251611a97565b73ffffffffffffffffffffffffffffffffffffffff16146112a7576040517f08c379a000000000000000000000000000000000000000000000000000000000815260040161129e9061510e565b60405180910390fd5b807fa2455ec11f160d321516c021994881e7678c0b5870cd7aae50107098770e2c28336000600c60003373ffffffffffffffffffffffffffffffffffffffff1673ffffffffffffffffffffffffffffffffffffffff1681526020019081526020016000205460405161131b93929190614e86565b60405180910390a160078054905081111580156113385750600081115b611377576040517f08c379a000000000000000000000000000000000000000000000000000000000815260040161136e90614e26565b60405180910390fd5b6000805b84518110156113c9576113a885828151811061139a57611399615608565b5b60200260200101518561240b565b81806113b390615561565b92505080806113c190615561565b91505061137b565b5080600a6001856113da91906153d8565b815481106113eb576113ea615608565b5b90600052602060002001600082825461140491906153d8565b9250508190555050505050565b61141961204d565b73ffffffffffffffffffffffffffffffffffffffff16611437611a97565b73ffffffffffffffffffffffffffffffffffffffff161461148d576040517f08c379a00000000000000000000000000000000000000000000000000000000081526004016114849061510e565b60405180910390fd5b61149885858561275b565b6114b385838360405180602001604052806000815250612a0c565b5050505050565b6114c261169d565b15611502576040517f08c379a00000000000000000000000000000000000000000000000000000000081526004016114f990615024565b60405180910390fd5b807fa2455ec11f160d321516c021994881e7678c0b5870cd7aae50107098770e2c28336000600c60003373ffffffffffffffffffffffffffffffffffffffff1673ffffffffffffffffffffffffffffffffffffffff1681526020019081526020016000205460405161157693929190614f30565b60405180910390a16000600c60008373ffffffffffffffffffffffffffffffffffffffff1673ffffffffffffffffffffffffffffffffffffffff168152602001908152602001600020541415611601576040517f08c379a00000000000000000000000000000000000000000000000000000000081526004016115f89061512e565b60405180910390fd5b600960008154811061161657611615615608565b5b9060005260206000200154341015611663576040517f08c379a000000000000000000000000000000000000000000000000000000000815260040161165a9061514e565b60405180910390fd5b600061166e83610ad1565b905061167a8382612c2a565b6001811461168e5761168d836001612c2a565b5b611698838261240b565b505050565b6000600360149054906101000a900460ff16905090565b6116bc61204d565b73ffffffffffffffffffffffffffffffffffffffff168373ffffffffffffffffffffffffffffffffffffffff1614806117025750611701836116fc61204d565b611d19565b5b611741576040517f08c379a000000000000000000000000000000000000000000000000000000000815260040161173890614fe4565b60405180910390fd5b61174c83838361275b565b505050565b61175961204d565b73ffffffffffffffffffffffffffffffffffffffff16611777611a97565b73ffffffffffffffffffffffffffffffffffffffff16146117cd576040517f08c379a00000000000000000000000000000000000000000000000000000000081526004016117c49061510e565b60405180910390fd5b6117d76000612ec9565b565b6117e433838361275b565b5050565b6117f061204d565b73ffffffffffffffffffffffffffffffffffffffff1661180e611a97565b73ffffffffffffffffffffffffffffffffffffffff1614611864576040517f08c379a000000000000000000000000000000000000000000000000000000000815260040161185b9061510e565b60405180910390fd5b61186c612f8f565b565b61187661204d565b73ffffffffffffffffffffffffffffffffffffffff16611894611a97565b73ffffffffffffffffffffffffffffffffffffffff16146118ea576040517f08c379a00000000000000000000000000000000000000000000000000000000081526004016118e19061510e565b60405180910390fd5b3373ffffffffffffffffffffffffffffffffffffffff166108fc479081150290604051600060405180830381858888f19350505050158015611930573d6000803e3d6000fd5b50565b61193b61204d565b73ffffffffffffffffffffffffffffffffffffffff16611959611a97565b73ffffffffffffffffffffffffffffffffffffffff16146119af576040517f08c379a00000000000000000000000000000000000000000000000000000000081526004016119a69061510e565b60405180910390fd5b80600b600084815260200190815260200160002090805190602001906119d6929190613e1f565b50817f6bb7ff708619ba0610cba295a58592e0451dee2622938c8755667688daf3529b82604051611a079190614de4565b60405180910390a25050565b6000611a1d61204d565b73ffffffffffffffffffffffffffffffffffffffff16611a3b611a97565b73ffffffffffffffffffffffffffffffffffffffff1614611a91576040517f08c379a0000000000000000000000000000000000000000000000000000000008152600401611a889061510e565b60405180910390fd5b47905090565b6000600360009054906101000a900473ffffffffffffffffffffffffffffffffffffffff16905090565b60068054611ace906154fe565b80601f0160208091040260200160405190810160405280929190818152602001828054611afa906154fe565b8015611b475780601f10611b1c57610100808354040283529160200191611b47565b820191906000526020600020905b815481529060010190602001808311611b2a57829003601f168201915b505050505081565b600c6020528060005260406000206000915090505481565b611b79611b7261204d565b8383613032565b5050565b6000600a600183611b8e91906153d8565b81548110611b9f57611b9e615608565b5b90600052602060002001549050919050565b611bbc33838361319f565b5050565b600060046000838152602001908152602001600020549050919050565b600b6020528060005260406000206000915090508054611bfc906154fe565b80601f0160208091040260200160405190810160405280929190818152602001828054611c28906154fe565b8015611c755780601f10611c4a57610100808354040283529160200191611c75565b820191906000526020600020905b815481529060010190602001808311611c5857829003601f168201915b505050505081565b611c8561204d565b73ffffffffffffffffffffffffffffffffffffffff16611ca3611a97565b73ffffffffffffffffffffffffffffffffffffffff1614611cf9576040517f08c379a0000000000000000000000000000000000000000000000000000000008152600401611cf09061510e565b60405180910390fd5b611d1483838360405180602001604052806000815250612a0c565b505050565b6000600160008473ffffffffffffffffffffffffffffffffffffffff1673ffffffffffffffffffffffffffffffffffffffff16815260200190815260200160002060008373ffffffffffffffffffffffffffffffffffffffff1673ffffffffffffffffffffffffffffffffffffffff16815260200190815260200160002060009054906101000a900460ff16905092915050565b611db561204d565b73ffffffffffffffffffffffffffffffffffffffff168573ffffffffffffffffffffffffffffffffffffffff161480611dfb5750611dfa85611df561204d565b611d19565b5b611e3a576040517f08c379a0000000000000000000000000000000000000000000000000000000008152600401611e3190614fe4565b60405180910390fd5b611e4785858585856133bc565b5050505050565b611e5661204d565b73ffffffffffffffffffffffffffffffffffffffff16611e74611a97565b73ffffffffffffffffffffffffffffffffffffffff1614611eca576040517f08c379a0000000000000000000000000000000000000000000000000000000008152600401611ec19061510e565b60405180910390fd5b600073ffffffffffffffffffffffffffffffffffffffff168173ffffffffffffffffffffffffffffffffffffffff161415611f3a576040517f08c379a0000000000000000000000000000000000000000000000000000000008152600401611f3190614f10565b60405180910390fd5b611f4381612ec9565b50565b611f4e61204d565b73ffffffffffffffffffffffffffffffffffffffff168373ffffffffffffffffffffffffffffffffffffffff161480611f945750611f9383611f8e61204d565b611d19565b5b611fd3576040517f08c379a0000000000000000000000000000000000000000000000000000000008152600401611fca90614fe4565b60405180910390fd5b611fde83838361319f565b505050565b60007f01ffc9a7000000000000000000000000000000000000000000000000000000007bffffffffffffffffffffffffffffffffffffffffffffffffffffffff1916827bffffffffffffffffffffffffffffffffffffffffffffffffffffffff1916149050919050565b600033905090565b8151835114612099576040517f08c379a0000000000000000000000000000000000000000000000000000000008152600401612090906151ae565b60405180910390fd5b600073ffffffffffffffffffffffffffffffffffffffff168473ffffffffffffffffffffffffffffffffffffffff161415612109576040517f08c379a000000000000000000000000000000000000000000000000000000000815260040161210090615044565b60405180910390fd5b600061211361204d565b905061212381878787878761363e565b60005b84518110156122d457600085828151811061214457612143615608565b5b60200260200101519050600085838151811061216357612162615608565b5b60200260200101519050600080600084815260200190815260200160002060008b73ffffffffffffffffffffffffffffffffffffffff1673ffffffffffffffffffffffffffffffffffffffff16815260200190815260200160002054905081811015612204576040517f08c379a00000000000000000000000000000000000000000000000000000000081526004016121fb906150a4565b60405180910390fd5b81810360008085815260200190815260200160002060008c73ffffffffffffffffffffffffffffffffffffffff1673ffffffffffffffffffffffffffffffffffffffff168152602001908152602001600020819055508160008085815260200190815260200160002060008b73ffffffffffffffffffffffffffffffffffffffff1673ffffffffffffffffffffffffffffffffffffffff16815260200190815260200160002060008282546122b99190615382565b92505081905550505050806122cd90615561565b9050612126565b508473ffffffffffffffffffffffffffffffffffffffff168673ffffffffffffffffffffffffffffffffffffffff168273ffffffffffffffffffffffffffffffffffffffff167f4a39dc06d4c0dbc64b70af90fd698a233a518aa5d07e595d983b8c0526c8f7fb878760405161234b929190614d92565b60405180910390a461236181878787878761369c565b505050505050565b61237161169d565b6123b0576040517f08c379a00000000000000000000000000000000000000000000000000000000081526004016123a790614e66565b60405180910390fd5b6000600360146101000a81548160ff0219169083151502179055507f5db9ee0a495bf2e6ff9c91a7834c1ba4fdd244a5e8aa4e537bd38aeae4b073aa6123f461204d565b6040516124019190614c93565b60405180910390a1565b61241361204d565b73ffffffffffffffffffffffffffffffffffffffff16612431611a97565b73ffffffffffffffffffffffffffffffffffffffff1614612487576040517f08c379a000000000000000000000000000000000000000000000000000000000815260040161247e9061510e565b60405180910390fd5b807fa2455ec11f160d321516c021994881e7678c0b5870cd7aae50107098770e2c28336000600c60003373ffffffffffffffffffffffffffffffffffffffff1673ffffffffffffffffffffffffffffffffffffffff168152602001908152602001600020546040516124fb93929190614e86565b60405180910390a160078054905081111580156125185750600081115b612557576040517f08c379a000000000000000000000000000000000000000000000000000000000815260040161254e90614e26565b60405180910390fd5b6000600c60008573ffffffffffffffffffffffffffffffffffffffff1673ffffffffffffffffffffffffffffffffffffffff16815260200190815260200160002054146126b15760018214156125f1576000600c60008573ffffffffffffffffffffffffffffffffffffffff1673ffffffffffffffffffffffffffffffffffffffff16815260200190815260200160002081905550612677565b6001600c60008573ffffffffffffffffffffffffffffffffffffffff1673ffffffffffffffffffffffffffffffffffffffff16815260200190815260200160002081905550600a60018361264591906153d8565b8154811061265657612655615608565b5b906000526020600020016000815480929190612671906154d4565b91905055505b600a60008154811061268c5761268b615608565b5b9060005260206000200160008154809291906126a7906154d4565b9190505550612756565b7fa2455ec11f160d321516c021994881e7678c0b5870cd7aae50107098770e2c2883600a6001856126e291906153d8565b815481106126f3576126f2615608565b5b9060005260206000200154600c60008773ffffffffffffffffffffffffffffffffffffffff1673ffffffffffffffffffffffffffffffffffffffff1681526020019081526020016000205460405161274d939291906150c4565b60405180910390a15b505050565b600073ffffffffffffffffffffffffffffffffffffffff168373ffffffffffffffffffffffffffffffffffffffff1614156127cb576040517f08c379a00000000000000000000000000000000000000000000000000000000081526004016127c290615084565b60405180910390fd5b805182511461280f576040517f08c379a0000000000000000000000000000000000000000000000000000000008152600401612806906151ae565b60405180910390fd5b600061281961204d565b90506128398185600086866040518060200160405280600081525061363e565b60005b835181101561298657600084828151811061285a57612859615608565b5b60200260200101519050600084838151811061287957612878615608565b5b60200260200101519050600080600084815260200190815260200160002060008973ffffffffffffffffffffffffffffffffffffffff1673ffffffffffffffffffffffffffffffffffffffff1681526020019081526020016000205490508181101561291a576040517f08c379a000000000000000000000000000000000000000000000000000000000815260040161291190614f7a565b60405180910390fd5b81810360008085815260200190815260200160002060008a73ffffffffffffffffffffffffffffffffffffffff1673ffffffffffffffffffffffffffffffffffffffff16815260200190815260200160002081905550505050808061297e90615561565b91505061283c565b50600073ffffffffffffffffffffffffffffffffffffffff168473ffffffffffffffffffffffffffffffffffffffff168273ffffffffffffffffffffffffffffffffffffffff167f4a39dc06d4c0dbc64b70af90fd698a233a518aa5d07e595d983b8c0526c8f7fb86866040516129fe929190614d92565b60405180910390a450505050565b600073ffffffffffffffffffffffffffffffffffffffff168473ffffffffffffffffffffffffffffffffffffffff161415612a7c576040517f08c379a0000000000000000000000000000000000000000000000000000000008152600401612a73906151ce565b60405180910390fd5b8151835114612ac0576040517f08c379a0000000000000000000000000000000000000000000000000000000008152600401612ab7906151ae565b60405180910390fd5b6000612aca61204d565b9050612adb8160008787878761363e565b60005b8451811015612b9457838181518110612afa57612af9615608565b5b6020026020010151600080878481518110612b1857612b17615608565b5b6020026020010151815260200190815260200160002060008873ffffffffffffffffffffffffffffffffffffffff1673ffffffffffffffffffffffffffffffffffffffff1681526020019081526020016000206000828254612b7a9190615382565b925050819055508080612b8c90615561565b915050612ade565b508473ffffffffffffffffffffffffffffffffffffffff16600073ffffffffffffffffffffffffffffffffffffffff168273ffffffffffffffffffffffffffffffffffffffff167f4a39dc06d4c0dbc64b70af90fd698a233a518aa5d07e595d983b8c0526c8f7fb8787604051612c0c929190614d92565b60405180910390a4612c238160008787878761369c565b5050505050565b612c3261169d565b15612c72576040517f08c379a0000000000000000000000000000000000000000000000000000000008152600401612c6990615024565b60405180910390fd5b817fa2455ec11f160d321516c021994881e7678c0b5870cd7aae50107098770e2c28336000600c60003373ffffffffffffffffffffffffffffffffffffffff1673ffffffffffffffffffffffffffffffffffffffff16815260200190815260200160002054604051612ce693929190614f30565b60405180910390a16000600c60008373ffffffffffffffffffffffffffffffffffffffff1673ffffffffffffffffffffffffffffffffffffffff168152602001908152602001600020541415612d71576040517f08c379a0000000000000000000000000000000000000000000000000000000008152600401612d689061512e565b60405180910390fd5b6007805490508211158015612d865750600082115b612dc5576040517f08c379a0000000000000000000000000000000000000000000000000000000008152600401612dbc90614e26565b60405180910390fd5b6007600183612dd491906153d8565b81548110612de557612de4615608565b5b906000526020600020015460016008600185612e0191906153d8565b81548110612e1257612e11615608565b5b9060005260206000200154612e279190615382565b1115612e68576040517f08c379a0000000000000000000000000000000000000000000000000000000008152600401612e5f90614ed0565b60405180910390fd5b612e848383600160405180602001604052806000815250613883565b6008600183612e9391906153d8565b81548110612ea457612ea3615608565b5b906000526020600020016000815480929190612ebf90615561565b9190505550505050565b6000600360009054906101000a900473ffffffffffffffffffffffffffffffffffffffff16905081600360006101000a81548173ffffffffffffffffffffffffffffffffffffffff021916908373ffffffffffffffffffffffffffffffffffffffff1602179055508173ffffffffffffffffffffffffffffffffffffffff168173ffffffffffffffffffffffffffffffffffffffff167f8be0079c531659141344cd1fd0a4f28419497f9722a3daafe3b4186f6b6457e060405160405180910390a35050565b612f9761169d565b15612fd7576040517f08c379a0000000000000000000000000000000000000000000000000000000008152600401612fce90615024565b60405180910390fd5b6001600360146101000a81548160ff0219169083151502179055507f62e78cea01bee320cd4e420270b5ea74000d11b0c9f74754ebdbfc544b05a25861301b61204d565b6040516130289190614c93565b60405180910390a1565b8173ffffffffffffffffffffffffffffffffffffffff168373ffffffffffffffffffffffffffffffffffffffff1614156130a1576040517f08c379a00000000000000000000000000000000000000000000000000000000081526004016130989061516e565b60405180910390fd5b80600160008573ffffffffffffffffffffffffffffffffffffffff1673ffffffffffffffffffffffffffffffffffffffff16815260200190815260200160002060008473ffffffffffffffffffffffffffffffffffffffff1673ffffffffffffffffffffffffffffffffffffffff16815260200190815260200160002060006101000a81548160ff0219169083151502179055508173ffffffffffffffffffffffffffffffffffffffff168373ffffffffffffffffffffffffffffffffffffffff167f17307eab39ab6107e8899845ad3d59bd9653f200f220920489ca2b5937696c31836040516131929190614dc9565b60405180910390a3505050565b600073ffffffffffffffffffffffffffffffffffffffff168373ffffffffffffffffffffffffffffffffffffffff16141561320f576040517f08c379a000000000000000000000000000000000000000000000000000000000815260040161320690615084565b60405180910390fd5b600061321961204d565b90506132498185600061322b87613a19565b61323487613a19565b6040518060200160405280600081525061363e565b600080600085815260200190815260200160002060008673ffffffffffffffffffffffffffffffffffffffff1673ffffffffffffffffffffffffffffffffffffffff168152602001908152602001600020549050828110156132e0576040517f08c379a00000000000000000000000000000000000000000000000000000000081526004016132d790614f7a565b60405180910390fd5b82810360008086815260200190815260200160002060008773ffffffffffffffffffffffffffffffffffffffff1673ffffffffffffffffffffffffffffffffffffffff16815260200190815260200160002081905550600073ffffffffffffffffffffffffffffffffffffffff168573ffffffffffffffffffffffffffffffffffffffff168373ffffffffffffffffffffffffffffffffffffffff167fc3d58168c5ae7397731d063d5bbf3d657854427343f4c083240f7aacaa2d0f6287876040516133ad929190615209565b60405180910390a45050505050565b600073ffffffffffffffffffffffffffffffffffffffff168473ffffffffffffffffffffffffffffffffffffffff16141561342c576040517f08c379a000000000000000000000000000000000000000000000000000000000815260040161342390615044565b60405180910390fd5b600061343661204d565b905061345681878761344788613a19565b61345088613a19565b8761363e565b600080600086815260200190815260200160002060008873ffffffffffffffffffffffffffffffffffffffff1673ffffffffffffffffffffffffffffffffffffffff168152602001908152602001600020549050838110156134ed576040517f08c379a00000000000000000000000000000000000000000000000000000000081526004016134e4906150a4565b60405180910390fd5b83810360008087815260200190815260200160002060008973ffffffffffffffffffffffffffffffffffffffff1673ffffffffffffffffffffffffffffffffffffffff168152602001908152602001600020819055508360008087815260200190815260200160002060008873ffffffffffffffffffffffffffffffffffffffff1673ffffffffffffffffffffffffffffffffffffffff16815260200190815260200160002060008282546135a29190615382565b925050819055508573ffffffffffffffffffffffffffffffffffffffff168773ffffffffffffffffffffffffffffffffffffffff168373ffffffffffffffffffffffffffffffffffffffff167fc3d58168c5ae7397731d063d5bbf3d657854427343f4c083240f7aacaa2d0f62888860405161361f929190615209565b60405180910390a4613635828888888888613a93565b50505050505050565b61364661169d565b15613686576040517f08c379a000000000000000000000000000000000000000000000000000000000815260040161367d90615024565b60405180910390fd5b613694868686868686613c7a565b505050505050565b6136bb8473ffffffffffffffffffffffffffffffffffffffff16613df4565b1561387b578373ffffffffffffffffffffffffffffffffffffffff1663bc197c8187878686866040518663ffffffff1660e01b8152600401613701959493929190614cae565b602060405180830381600087803b15801561371b57600080fd5b505af192505050801561374c57506040513d601f19601f8201168201806040525081019061374991906146dc565b60015b6137f257613758615666565b806308c379a014156137b5575061376d615d49565b8061377857506137b7565b806040517f08c379a00000000000000000000000000000000000000000000000000000000081526004016137ac9190614de4565b60405180910390fd5b505b6040517f08c379a00000000000000000000000000000000000000000000000000000000081526004016137e990614e06565b60405180910390fd5b63bc197c8160e01b7bffffffffffffffffffffffffffffffffffffffffffffffffffffffff1916817bffffffffffffffffffffffffffffffffffffffffffffffffffffffff191614613879576040517f08c379a000000000000000000000000000000000000000000000000000000000815260040161387090614e46565b60405180910390fd5b505b505050505050565b600073ffffffffffffffffffffffffffffffffffffffff168473ffffffffffffffffffffffffffffffffffffffff1614156138f3576040517f08c379a00000000000000000000000000000000000000000000000000000000081526004016138ea906151ce565b60405180910390fd5b60006138fd61204d565b905061391e8160008761390f88613a19565b61391888613a19565b8761363e565b8260008086815260200190815260200160002060008773ffffffffffffffffffffffffffffffffffffffff1673ffffffffffffffffffffffffffffffffffffffff168152602001908152602001600020600082825461397d9190615382565b925050819055508473ffffffffffffffffffffffffffffffffffffffff16600073ffffffffffffffffffffffffffffffffffffffff168273ffffffffffffffffffffffffffffffffffffffff167fc3d58168c5ae7397731d063d5bbf3d657854427343f4c083240f7aacaa2d0f6287876040516139fb929190615209565b60405180910390a4613a1281600087878787613a93565b5050505050565b60606000600167ffffffffffffffff811115613a3857613a37615637565b5b604051908082528060200260200182016040528015613a665781602001602082028036833780820191505090505b5090508281600081518110613a7e57613a7d615608565b5b60200260200101818152505080915050919050565b613ab28473ffffffffffffffffffffffffffffffffffffffff16613df4565b15613c72578373ffffffffffffffffffffffffffffffffffffffff1663f23a6e6187878686866040518663ffffffff1660e01b8152600401613af8959493929190614d16565b602060405180830381600087803b158015613b1257600080fd5b505af1925050508015613b4357506040513d601f19601f82011682018060405250810190613b4091906146dc565b60015b613be957613b4f615666565b806308c379a01415613bac5750613b64615d49565b80613b6f5750613bae565b806040517f08c379a0000000000000000000000000000000000000000000000000000000008152600401613ba39190614de4565b60405180910390fd5b505b6040517f08c379a0000000000000000000000000000000000000000000000000000000008152600401613be090614e06565b60405180910390fd5b63f23a6e6160e01b7bffffffffffffffffffffffffffffffffffffffffffffffffffffffff1916817bffffffffffffffffffffffffffffffffffffffffffffffffffffffff191614613c70576040517f08c379a0000000000000000000000000000000000000000000000000000000008152600401613c6790614e46565b60405180910390fd5b505b505050505050565b613c88868686868686613e17565b600073ffffffffffffffffffffffffffffffffffffffff168573ffffffffffffffffffffffffffffffffffffffff161415613d3a5760005b8351811015613d3857828181518110613cdc57613cdb615608565b5b602002602001015160046000868481518110613cfb57613cfa615608565b5b602002602001015181526020019081526020016000206000828254613d209190615382565b9250508190555080613d3190615561565b9050613cc0565b505b600073ffffffffffffffffffffffffffffffffffffffff168473ffffffffffffffffffffffffffffffffffffffff161415613dec5760005b8351811015613dea57828181518110613d8e57613d8d615608565b5b602002602001015160046000868481518110613dad57613dac615608565b5b602002602001015181526020019081526020016000206000828254613dd291906153d8565b9250508190555080613de390615561565b9050613d72565b505b505050505050565b6000808273ffffffffffffffffffffffffffffffffffffffff163b119050919050565b505050505050565b828054613e2b906154fe565b90600052602060002090601f016020900481019282613e4d5760008555613e94565b82601f10613e6657805160ff1916838001178555613e94565b82800160010185558215613e94579182015b82811115613e93578251825591602001919060010190613e78565b5b509050613ea19190613ea5565b5090565b5b80821115613ebe576000816000905550600101613ea6565b5090565b6000613ed5613ed084615257565b615232565b90508083825260208201905082856020860282011115613ef857613ef761568d565b5b60005b85811015613f285781613f0e8882614026565b845260208401935060208301925050600181019050613efb565b5050509392505050565b6000613f45613f4084615283565b615232565b90508083825260208201905082856020860282011115613f6857613f6761568d565b5b60005b85811015613f985781613f7e8882614132565b845260208401935060208301925050600181019050613f6b565b5050509392505050565b6000613fb5613fb0846152af565b615232565b905082815260208101848484011115613fd157613fd0615692565b5b613fdc848285615492565b509392505050565b6000613ff7613ff2846152e0565b615232565b90508281526020810184848401111561401357614012615692565b5b61401e848285615492565b509392505050565b60008135905061403581615ddf565b92915050565b600082601f8301126140505761404f615688565b5b8135614060848260208601613ec2565b91505092915050565b600082601f83011261407e5761407d615688565b5b813561408e848260208601613f32565b91505092915050565b6000813590506140a681615df6565b92915050565b6000813590506140bb81615e0d565b92915050565b6000815190506140d081615e0d565b92915050565b600082601f8301126140eb576140ea615688565b5b81356140fb848260208601613fa2565b91505092915050565b600082601f83011261411957614118615688565b5b8135614129848260208601613fe4565b91505092915050565b60008135905061414181615e24565b92915050565b60006020828403121561415d5761415c61569c565b5b600061416b84828501614026565b91505092915050565b6000806040838503121561418b5761418a61569c565b5b600061419985828601614026565b92505060206141aa85828601614026565b9150509250929050565b600080600080600060a086880312156141d0576141cf61569c565b5b60006141de88828901614026565b95505060206141ef88828901614026565b945050604086013567ffffffffffffffff8111156142105761420f615697565b5b61421c88828901614069565b935050606086013567ffffffffffffffff81111561423d5761423c615697565b5b61424988828901614069565b925050608086013567ffffffffffffffff81111561426a57614269615697565b5b614276888289016140d6565b9150509295509295909350565b600080600080600060a0868803121561429f5761429e61569c565b5b60006142ad88828901614026565b95505060206142be88828901614026565b94505060406142cf88828901614132565b93505060606142e088828901614132565b925050608086013567ffffffffffffffff81111561430157614300615697565b5b61430d888289016140d6565b9150509295509295909350565b6000806000606084860312156143335761433261569c565b5b600061434186828701614026565b935050602084013567ffffffffffffffff81111561436257614361615697565b5b61436e86828701614069565b925050604084013567ffffffffffffffff81111561438f5761438e615697565b5b61439b86828701614069565b9150509250925092565b600080600080600060a086880312156143c1576143c061569c565b5b60006143cf88828901614026565b955050602086013567ffffffffffffffff8111156143f0576143ef615697565b5b6143fc88828901614069565b945050604086013567ffffffffffffffff81111561441d5761441c615697565b5b61442988828901614069565b935050606086013567ffffffffffffffff81111561444a57614449615697565b5b61445688828901614069565b925050608086013567ffffffffffffffff81111561447757614476615697565b5b61448388828901614069565b9150509295509295909350565b600080604083850312156144a7576144a661569c565b5b60006144b585828601614026565b92505060206144c685828601614097565b9150509250929050565b600080604083850312156144e7576144e661569c565b5b60006144f585828601614026565b925050602061450685828601614132565b9150509250929050565b6000806000606084860312156145295761452861569c565b5b600061453786828701614026565b935050602061454886828701614132565b925050604061455986828701614132565b9150509250925092565b6000806040838503121561457a5761457961569c565b5b600083013567ffffffffffffffff81111561459857614597615697565b5b6145a48582860161403b565b925050602083013567ffffffffffffffff8111156145c5576145c4615697565b5b6145d185828601614069565b9150509250929050565b600080604083850312156145f2576145f161569c565b5b600083013567ffffffffffffffff8111156146105761460f615697565b5b61461c8582860161403b565b925050602061462d85828601614132565b9150509250929050565b6000806040838503121561464e5761464d61569c565b5b600083013567ffffffffffffffff81111561466c5761466b615697565b5b61467885828601614069565b925050602083013567ffffffffffffffff81111561469957614698615697565b5b6146a585828601614069565b9150509250929050565b6000602082840312156146c5576146c461569c565b5b60006146d3848285016140ac565b91505092915050565b6000602082840312156146f2576146f161569c565b5b6000614700848285016140c1565b91505092915050565b60006020828403121561471f5761471e61569c565b5b600061472d84828501614132565b91505092915050565b6000806040838503121561474d5761474c61569c565b5b600061475b85828601614132565b925050602083013567ffffffffffffffff81111561477c5761477b615697565b5b61478885828601614104565b9150509250929050565b600080604083850312156147a9576147a861569c565b5b60006147b785828601614132565b92505060206147c885828601614132565b9150509250929050565b60006147de8383614c75565b60208301905092915050565b6147f38161540c565b82525050565b600061480482615321565b61480e818561534f565b935061481983615311565b8060005b8381101561484a57815161483188826147d2565b975061483c83615342565b92505060018101905061481d565b5085935050505092915050565b6148608161541e565b82525050565b60006148718261532c565b61487b8185615360565b935061488b8185602086016154a1565b614894816156a1565b840191505092915050565b6148a881615480565b82525050565b60006148b982615337565b6148c38185615371565b93506148d38185602086016154a1565b6148dc816156a1565b840191505092915050565b60006148f4603483615371565b91506148ff826156bf565b604082019050919050565b6000614917601383615371565b91506149228261570e565b602082019050919050565b600061493a602883615371565b915061494582615737565b604082019050919050565b600061495d601483615371565b915061496882615786565b602082019050919050565b6000614980601483615371565b915061498b826157af565b602082019050919050565b60006149a3601183615371565b91506149ae826157d8565b602082019050919050565b60006149c6602b83615371565b91506149d182615801565b604082019050919050565b60006149e9602683615371565b91506149f482615850565b604082019050919050565b6000614a0c601c83615371565b9150614a178261589f565b602082019050919050565b6000614a2f602483615371565b9150614a3a826158c8565b604082019050919050565b6000614a52601e83615371565b9150614a5d82615917565b602082019050919050565b6000614a75602983615371565b9150614a8082615940565b604082019050919050565b6000614a98601083615371565b9150614aa38261598f565b602082019050919050565b6000614abb601083615371565b9150614ac6826159b8565b602082019050919050565b6000614ade602583615371565b9150614ae9826159e1565b604082019050919050565b6000614b01603283615371565b9150614b0c82615a30565b604082019050919050565b6000614b24602383615371565b9150614b2f82615a7f565b604082019050919050565b6000614b47602a83615371565b9150614b5282615ace565b604082019050919050565b6000614b6a602183615371565b9150614b7582615b1d565b604082019050919050565b6000614b8d602083615371565b9150614b9882615b6c565b602082019050919050565b6000614bb0602383615371565b9150614bbb82615b95565b604082019050919050565b6000614bd3601583615371565b9150614bde82615be4565b602082019050919050565b6000614bf6602983615371565b9150614c0182615c0d565b604082019050919050565b6000614c19602983615371565b9150614c2482615c5c565b604082019050919050565b6000614c3c602883615371565b9150614c4782615cab565b604082019050919050565b6000614c5f602183615371565b9150614c6a82615cfa565b604082019050919050565b614c7e81615476565b82525050565b614c8d81615476565b82525050565b6000602082019050614ca860008301846147ea565b92915050565b600060a082019050614cc360008301886147ea565b614cd060208301876147ea565b8181036040830152614ce281866147f9565b90508181036060830152614cf681856147f9565b90508181036080830152614d0a8184614866565b90509695505050505050565b600060a082019050614d2b60008301886147ea565b614d3860208301876147ea565b614d456040830186614c84565b614d526060830185614c84565b8181036080830152614d648184614866565b90509695505050505050565b60006020820190508181036000830152614d8a81846147f9565b905092915050565b60006040820190508181036000830152614dac81856147f9565b90508181036020830152614dc081846147f9565b90509392505050565b6000602082019050614dde6000830184614857565b92915050565b60006020820190508181036000830152614dfe81846148ae565b905092915050565b60006020820190508181036000830152614e1f816148e7565b9050919050565b60006020820190508181036000830152614e3f8161490a565b9050919050565b60006020820190508181036000830152614e5f8161492d565b9050919050565b60006020820190508181036000830152614e7f81614950565b9050919050565b60006080820190508181036000830152614e9f81614973565b9050614eae60208301866147ea565b614ebb604083018561489f565b614ec86060830184614c84565b949350505050565b60006020820190508181036000830152614ee981614996565b9050919050565b60006020820190508181036000830152614f09816149b9565b9050919050565b60006020820190508181036000830152614f29816149dc565b9050919050565b60006080820190508181036000830152614f49816149ff565b9050614f5860208301866147ea565b614f65604083018561489f565b614f726060830184614c84565b949350505050565b60006020820190508181036000830152614f9381614a22565b9050919050565b60006080820190508181036000830152614fb381614a45565b9050614fc260208301866147ea565b614fcf6040830185614c84565b614fdc6060830184614c84565b949350505050565b60006020820190508181036000830152614ffd81614a68565b9050919050565b6000602082019050818103600083015261501d81614a8b565b9050919050565b6000602082019050818103600083015261503d81614aae565b9050919050565b6000602082019050818103600083015261505d81614ad1565b9050919050565b6000602082019050818103600083015261507d81614af4565b9050919050565b6000602082019050818103600083015261509d81614b17565b9050919050565b600060208201905081810360008301526150bd81614b3a565b9050919050565b600060808201905081810360008301526150dd81614b5d565b90506150ec60208301866147ea565b6150f96040830185614c84565b6151066060830184614c84565b949350505050565b6000602082019050818103600083015261512781614b80565b9050919050565b6000602082019050818103600083015261514781614ba3565b9050919050565b6000602082019050818103600083015261516781614bc6565b9050919050565b6000602082019050818103600083015261518781614be9565b9050919050565b600060208201905081810360008301526151a781614c0c565b9050919050565b600060208201905081810360008301526151c781614c2f565b9050919050565b600060208201905081810360008301526151e781614c52565b9050919050565b60006020820190506152036000830184614c84565b92915050565b600060408201905061521e6000830185614c84565b61522b6020830184614c84565b9392505050565b600061523c61524d565b90506152488282615530565b919050565b6000604051905090565b600067ffffffffffffffff82111561527257615271615637565b5b602082029050602081019050919050565b600067ffffffffffffffff82111561529e5761529d615637565b5b602082029050602081019050919050565b600067ffffffffffffffff8211156152ca576152c9615637565b5b6152d3826156a1565b9050602081019050919050565b600067ffffffffffffffff8211156152fb576152fa615637565b5b615304826156a1565b9050602081019050919050565b6000819050602082019050919050565b600081519050919050565b600081519050919050565b600081519050919050565b6000602082019050919050565b600082825260208201905092915050565b600082825260208201905092915050565b600082825260208201905092915050565b600061538d82615476565b915061539883615476565b9250827fffffffffffffffffffffffffffffffffffffffffffffffffffffffffffffffff038211156153cd576153cc6155aa565b5b828201905092915050565b60006153e382615476565b91506153ee83615476565b925082821015615401576154006155aa565b5b828203905092915050565b600061541782615456565b9050919050565b60008115159050919050565b60007fffffffff0000000000000000000000000000000000000000000000000000000082169050919050565b600073ffffffffffffffffffffffffffffffffffffffff82169050919050565b6000819050919050565b600061548b82615476565b9050919050565b82818337600083830152505050565b60005b838110156154bf5780820151818401526020810190506154a4565b838111156154ce576000848401525b50505050565b60006154df82615476565b915060008214156154f3576154f26155aa565b5b600182039050919050565b6000600282049050600182168061551657607f821691505b6020821081141561552a576155296155d9565b5b50919050565b615539826156a1565b810181811067ffffffffffffffff8211171561555857615557615637565b5b80604052505050565b600061556c82615476565b91507fffffffffffffffffffffffffffffffffffffffffffffffffffffffffffffffff82141561559f5761559e6155aa565b5b600182019050919050565b7f4e487b7100000000000000000000000000000000000000000000000000000000600052601160045260246000fd5b7f4e487b7100000000000000000000000000000000000000000000000000000000600052602260045260246000fd5b7f4e487b7100000000000000000000000000000000000000000000000000000000600052603260045260246000fd5b7f4e487b7100000000000000000000000000000000000000000000000000000000600052604160045260246000fd5b600060033d11156156855760046000803e6156826000516156b2565b90505b90565b600080fd5b600080fd5b600080fd5b600080fd5b600080fd5b6000601f19601f8301169050919050565b60008160e01c9050919050565b7f455243313135353a207472616e7366657220746f206e6f6e204552433131353560008201527f526563656976657220696d706c656d656e746572000000000000000000000000602082015250565b7f546f6b656e20646f65736e277420657869737400000000000000000000000000600082015250565b7f455243313135353a204552433131353552656365697665722072656a6563746560008201527f6420746f6b656e73000000000000000000000000000000000000000000000000602082015250565b7f5061757361626c653a206e6f7420706175736564000000000000000000000000600082015250565b7f4d6f64696665722076616c6964546f6b656e4964000000000000000000000000600082015250565b7f4e6f7420656e6f75676820737570706c79000000000000000000000000000000600082015250565b7f455243313135353a2062616c616e636520717565727920666f7220746865207a60008201527f65726f2061646472657373000000000000000000000000000000000000000000602082015250565b7f4f776e61626c653a206e6577206f776e657220697320746865207a65726f206160008201527f6464726573730000000000000000000000000000000000000000000000000000602082015250565b7f4d6f6469666572206f6e6c7957686974656c6973744164647265737300000000600082015250565b7f455243313135353a206275726e20616d6f756e7420657863656564732062616c60008201527f616e636500000000000000000000000000000000000000000000000000000000602082015250565b7f6164647265737320697320616c72656164792077686974656c69737465640000600082015250565b7f455243313135353a2063616c6c6572206973206e6f74206f776e6572206e6f7260008201527f20617070726f7665640000000000000000000000000000000000000000000000602082015250565b7f457863656564206d6178537570706c7900000000000000000000000000000000600082015250565b7f5061757361626c653a2070617573656400000000000000000000000000000000600082015250565b7f455243313135353a207472616e7366657220746f20746865207a65726f20616460008201527f6472657373000000000000000000000000000000000000000000000000000000602082015250565b7f455243313135353a207472616e736665722063616c6c6572206973206e6f742060008201527f6f776e6572206e6f7220617070726f7665640000000000000000000000000000602082015250565b7f455243313135353a206275726e2066726f6d20746865207a65726f206164647260008201527f6573730000000000000000000000000000000000000000000000000000000000602082015250565b7f455243313135353a20696e73756666696369656e742062616c616e636520666f60008201527f72207472616e7366657200000000000000000000000000000000000000000000602082015250565b7f416472657373206973206e6f7420616c72656164792077686974656c6973746560008201527f6400000000000000000000000000000000000000000000000000000000000000602082015250565b7f4f776e61626c653a2063616c6c6572206973206e6f7420746865206f776e6572600082015250565b7f41646472657373206e6f742077686974656c69737465642e2043616e74206d6960008201527f6e742e0000000000000000000000000000000000000000000000000000000000602082015250565b7f4e6f7420656e6f7567682065746865722073656e740000000000000000000000600082015250565b7f455243313135353a2073657474696e6720617070726f76616c2073746174757360008201527f20666f722073656c660000000000000000000000000000000000000000000000602082015250565b7f455243313135353a206163636f756e747320616e6420696473206c656e67746860008201527f206d69736d617463680000000000000000000000000000000000000000000000602082015250565b7f455243313135353a2069647320616e6420616d6f756e7473206c656e6774682060008201527f6d69736d61746368000000000000000000000000000000000000000000000000602082015250565b7f455243313135353a206d696e7420746f20746865207a65726f2061646472657360008201527f7300000000000000000000000000000000000000000000000000000000000000602082015250565b600060443d1015615d5957615ddc565b615d6161524d565b60043d036004823e80513d602482011167ffffffffffffffff82111715615d89575050615ddc565b808201805167ffffffffffffffff811115615da75750505050615ddc565b80602083010160043d038501811115615dc4575050505050615ddc565b615dd382602001850186615530565b82955050505050505b90565b615de88161540c565b8114615df357600080fd5b50565b615dff8161541e565b8114615e0a57600080fd5b50565b615e168161542a565b8114615e2157600080fd5b50565b615e2d81615476565b8114615e3857600080fd5b5056fea2646970667358221220908d1951ae959d2999ae6c04ff123e0b27a5b5caa37466ab93af346d4cbbc36964736f6c63430008070033",
			"opcodes": "PUSH1 0x80 PUSH1 0x40 MSTORE PUSH1 0x40 MLOAD DUP1 PUSH1 0x40 ADD PUSH1 0x40 MSTORE DUP1 PUSH1 0x18 DUP2 MSTORE PUSH1 0x20 ADD PUSH32 0x466F7274756E652054726561737572652048756E74696E670000000000000000 DUP2 MSTORE POP PUSH1 0x5 SWAP1 DUP1 MLOAD SWAP1 PUSH1 0x20 ADD SWAP1 PUSH3 0x51 SWAP3 SWAP2 SWAP1 PUSH3 0x30C JUMP JUMPDEST POP PUSH1 0x40 MLOAD DUP1 PUSH1 0x40 ADD PUSH1 0x40 MSTORE DUP1 PUSH1 0x4 DUP2 MSTORE PUSH1 0x20 ADD PUSH32 0x464F525400000000000000000000000000000000000000000000000000000000 DUP2 MSTORE POP PUSH1 0x6 SWAP1 DUP1 MLOAD SWAP1 PUSH1 0x20 ADD SWAP1 PUSH3 0x9F SWAP3 SWAP2 SWAP1 PUSH3 0x30C JUMP JUMPDEST POP PUSH1 0x40 MLOAD DUP1 PUSH1 0x40 ADD PUSH1 0x40 MSTORE DUP1 PUSH2 0xFA0 PUSH2 0xFFFF AND DUP2 MSTORE PUSH1 0x20 ADD PUSH1 0xFA PUSH2 0xFFFF AND DUP2 MSTORE POP PUSH1 0x7 SWAP1 PUSH1 0x2 PUSH3 0xD2 SWAP3 SWAP2 SWAP1 PUSH3 0x39D JUMP JUMPDEST POP PUSH1 0x40 MLOAD DUP1 PUSH1 0x40 ADD PUSH1 0x40 MSTORE DUP1 PUSH1 0x0 PUSH1 0xFF AND DUP2 MSTORE PUSH1 0x20 ADD PUSH1 0x0 PUSH1 0xFF AND DUP2 MSTORE POP PUSH1 0x8 SWAP1 PUSH1 0x2 PUSH3 0x102 SWAP3 SWAP2 SWAP1 PUSH3 0x3F5 JUMP JUMPDEST POP PUSH1 0x40 MLOAD DUP1 PUSH1 0x40 ADD PUSH1 0x40 MSTORE DUP1 PUSH7 0x38D7EA4C68000 PUSH7 0xFFFFFFFFFFFFFF AND DUP2 MSTORE PUSH1 0x20 ADD PUSH1 0x0 PUSH7 0xFFFFFFFFFFFFFF AND DUP2 MSTORE POP PUSH1 0x9 SWAP1 PUSH1 0x2 PUSH3 0x144 SWAP3 SWAP2 SWAP1 PUSH3 0x44C JUMP JUMPDEST POP PUSH1 0x40 MLOAD DUP1 PUSH1 0x40 ADD PUSH1 0x40 MSTORE DUP1 PUSH1 0x0 PUSH1 0xFF AND DUP2 MSTORE PUSH1 0x20 ADD PUSH1 0x0 PUSH1 0xFF AND DUP2 MSTORE POP PUSH1 0xA SWAP1 PUSH1 0x2 PUSH3 0x174 SWAP3 SWAP2 SWAP1 PUSH3 0x3F5 JUMP JUMPDEST POP CALLVALUE DUP1 ISZERO PUSH3 0x182 JUMPI PUSH1 0x0 DUP1 REVERT JUMPDEST POP PUSH1 0x40 MLOAD DUP1 PUSH1 0x20 ADD PUSH1 0x40 MSTORE DUP1 PUSH1 0x0 DUP2 MSTORE POP PUSH3 0x1A4 DUP2 PUSH3 0x222 PUSH1 0x20 SHL PUSH1 0x20 SHR JUMP JUMPDEST POP PUSH3 0x1C5 PUSH3 0x1B9 PUSH3 0x23E PUSH1 0x20 SHL PUSH1 0x20 SHR JUMP JUMPDEST PUSH3 0x246 PUSH1 0x20 SHL PUSH1 0x20 SHR JUMP JUMPDEST PUSH1 0x0 PUSH1 0x3 PUSH1 0x14 PUSH2 0x100 EXP DUP2 SLOAD DUP2 PUSH1 0xFF MUL NOT AND SWAP1 DUP4 ISZERO ISZERO MUL OR SWAP1 SSTORE POP PUSH1 0x5 DUP1 DUP1 SLOAD PUSH3 0x1F0 SWAP1 PUSH3 0x560 JUMP JUMPDEST PUSH3 0x1FD SWAP3 SWAP2 SWAP1 PUSH3 0x4A9 JUMP JUMPDEST POP PUSH1 0x6 DUP1 DUP1 SLOAD PUSH3 0x20E SWAP1 PUSH3 0x560 JUMP JUMPDEST PUSH3 0x21B SWAP3 SWAP2 SWAP1 PUSH3 0x4A9 JUMP JUMPDEST POP PUSH3 0x5C5 JUMP JUMPDEST DUP1 PUSH1 0x2 SWAP1 DUP1 MLOAD SWAP1 PUSH1 0x20 ADD SWAP1 PUSH3 0x23A SWAP3 SWAP2 SWAP1 PUSH3 0x30C JUMP JUMPDEST POP POP JUMP JUMPDEST PUSH1 0x0 CALLER SWAP1 POP SWAP1 JUMP JUMPDEST PUSH1 0x0 PUSH1 0x3 PUSH1 0x0 SWAP1 SLOAD SWAP1 PUSH2 0x100 EXP SWAP1 DIV PUSH20 0xFFFFFFFFFFFFFFFFFFFFFFFFFFFFFFFFFFFFFFFF AND SWAP1 POP DUP2 PUSH1 0x3 PUSH1 0x0 PUSH2 0x100 EXP DUP2 SLOAD DUP2 PUSH20 0xFFFFFFFFFFFFFFFFFFFFFFFFFFFFFFFFFFFFFFFF MUL NOT AND SWAP1 DUP4 PUSH20 0xFFFFFFFFFFFFFFFFFFFFFFFFFFFFFFFFFFFFFFFF AND MUL OR SWAP1 SSTORE POP DUP2 PUSH20 0xFFFFFFFFFFFFFFFFFFFFFFFFFFFFFFFFFFFFFFFF AND DUP2 PUSH20 0xFFFFFFFFFFFFFFFFFFFFFFFFFFFFFFFFFFFFFFFF AND PUSH32 0x8BE0079C531659141344CD1FD0A4F28419497F9722A3DAAFE3B4186F6B6457E0 PUSH1 0x40 MLOAD PUSH1 0x40 MLOAD DUP1 SWAP2 SUB SWAP1 LOG3 POP POP JUMP JUMPDEST DUP3 DUP1 SLOAD PUSH3 0x31A SWAP1 PUSH3 0x560 JUMP JUMPDEST SWAP1 PUSH1 0x0 MSTORE PUSH1 0x20 PUSH1 0x0 KECCAK256 SWAP1 PUSH1 0x1F ADD PUSH1 0x20 SWAP1 DIV DUP2 ADD SWAP3 DUP3 PUSH3 0x33E JUMPI PUSH1 0x0 DUP6 SSTORE PUSH3 0x38A JUMP JUMPDEST DUP3 PUSH1 0x1F LT PUSH3 0x359 JUMPI DUP1 MLOAD PUSH1 0xFF NOT AND DUP4 DUP1 ADD OR DUP6 SSTORE PUSH3 0x38A JUMP JUMPDEST DUP3 DUP1 ADD PUSH1 0x1 ADD DUP6 SSTORE DUP3 ISZERO PUSH3 0x38A JUMPI SWAP2 DUP3 ADD JUMPDEST DUP3 DUP2 GT ISZERO PUSH3 0x389 JUMPI DUP3 MLOAD DUP3 SSTORE SWAP2 PUSH1 0x20 ADD SWAP2 SWAP1 PUSH1 0x1 ADD SWAP1 PUSH3 0x36C JUMP JUMPDEST JUMPDEST POP SWAP1 POP PUSH3 0x399 SWAP2 SWAP1 PUSH3 0x541 JUMP JUMPDEST POP SWAP1 JUMP JUMPDEST DUP3 DUP1 SLOAD DUP3 DUP3 SSTORE SWAP1 PUSH1 0x0 MSTORE PUSH1 0x20 PUSH1 0x0 KECCAK256 SWAP1 DUP2 ADD SWAP3 DUP3 ISZERO PUSH3 0x3E2 JUMPI SWAP2 PUSH1 0x20 MUL DUP3 ADD JUMPDEST DUP3 DUP2 GT ISZERO PUSH3 0x3E1 JUMPI DUP3 MLOAD DUP3 SWAP1 PUSH2 0xFFFF AND SWAP1 SSTORE SWAP2 PUSH1 0x20 ADD SWAP2 SWAP1 PUSH1 0x1 ADD SWAP1 PUSH3 0x3BE JUMP JUMPDEST JUMPDEST POP SWAP1 POP PUSH3 0x3F1 SWAP2 SWAP1 PUSH3 0x541 JUMP JUMPDEST POP SWAP1 JUMP JUMPDEST DUP3 DUP1 SLOAD DUP3 DUP3 SSTORE SWAP1 PUSH1 0x0 MSTORE PUSH1 0x20 PUSH1 0x0 KECCAK256 SWAP1 DUP2 ADD SWAP3 DUP3 ISZERO PUSH3 0x439 JUMPI SWAP2 PUSH1 0x20 MUL DUP3 ADD JUMPDEST DUP3 DUP2 GT ISZERO PUSH3 0x438 JUMPI DUP3 MLOAD DUP3 SWAP1 PUSH1 0xFF AND SWAP1 SSTORE SWAP2 PUSH1 0x20 ADD SWAP2 SWAP1 PUSH1 0x1 ADD SWAP1 PUSH3 0x416 JUMP JUMPDEST JUMPDEST POP SWAP1 POP PUSH3 0x448 SWAP2 SWAP1 PUSH3 0x541 JUMP JUMPDEST POP SWAP1 JUMP JUMPDEST DUP3 DUP1 SLOAD DUP3 DUP3 SSTORE SWAP1 PUSH1 0x0 MSTORE PUSH1 0x20 PUSH1 0x0 KECCAK256 SWAP1 DUP2 ADD SWAP3 DUP3 ISZERO PUSH3 0x496 JUMPI SWAP2 PUSH1 0x20 MUL DUP3 ADD JUMPDEST DUP3 DUP2 GT ISZERO PUSH3 0x495 JUMPI DUP3 MLOAD DUP3 SWAP1 PUSH7 0xFFFFFFFFFFFFFF AND SWAP1 SSTORE SWAP2 PUSH1 0x20 ADD SWAP2 SWAP1 PUSH1 0x1 ADD SWAP1 PUSH3 0x46D JUMP JUMPDEST JUMPDEST POP SWAP1 POP PUSH3 0x4A5 SWAP2 SWAP1 PUSH3 0x541 JUMP JUMPDEST POP SWAP1 JUMP JUMPDEST DUP3 DUP1 SLOAD PUSH3 0x4B7 SWAP1 PUSH3 0x560 JUMP JUMPDEST SWAP1 PUSH1 0x0 MSTORE PUSH1 0x20 PUSH1 0x0 KECCAK256 SWAP1 PUSH1 0x1F ADD PUSH1 0x20 SWAP1 DIV DUP2 ADD SWAP3 DUP3 PUSH3 0x4DB JUMPI PUSH1 0x0 DUP6 SSTORE PUSH3 0x52E JUMP JUMPDEST DUP3 PUSH1 0x1F LT PUSH3 0x4EE JUMPI DUP1 SLOAD DUP6 SSTORE PUSH3 0x52E JUMP JUMPDEST DUP3 DUP1 ADD PUSH1 0x1 ADD DUP6 SSTORE DUP3 ISZERO PUSH3 0x52E JUMPI PUSH1 0x0 MSTORE PUSH1 0x20 PUSH1 0x0 KECCAK256 SWAP2 PUSH1 0x1F ADD PUSH1 0x20 SWAP1 DIV DUP3 ADD JUMPDEST DUP3 DUP2 GT ISZERO PUSH3 0x52D JUMPI DUP3 SLOAD DUP3 SSTORE SWAP2 PUSH1 0x1 ADD SWAP2 SWAP1 PUSH1 0x1 ADD SWAP1 PUSH3 0x510 JUMP JUMPDEST JUMPDEST POP SWAP1 POP PUSH3 0x53D SWAP2 SWAP1 PUSH3 0x541 JUMP JUMPDEST POP SWAP1 JUMP JUMPDEST JUMPDEST DUP1 DUP3 GT ISZERO PUSH3 0x55C JUMPI PUSH1 0x0 DUP2 PUSH1 0x0 SWAP1 SSTORE POP PUSH1 0x1 ADD PUSH3 0x542 JUMP JUMPDEST POP SWAP1 JUMP JUMPDEST PUSH1 0x0 PUSH1 0x2 DUP3 DIV SWAP1 POP PUSH1 0x1 DUP3 AND DUP1 PUSH3 0x579 JUMPI PUSH1 0x7F DUP3 AND SWAP2 POP JUMPDEST PUSH1 0x20 DUP3 LT DUP2 EQ ISZERO PUSH3 0x590 JUMPI PUSH3 0x58F PUSH3 0x596 JUMP JUMPDEST JUMPDEST POP SWAP2 SWAP1 POP JUMP JUMPDEST PUSH32 0x4E487B7100000000000000000000000000000000000000000000000000000000 PUSH1 0x0 MSTORE PUSH1 0x22 PUSH1 0x4 MSTORE PUSH1 0x24 PUSH1 0x0 REVERT JUMPDEST PUSH2 0x5E71 DUP1 PUSH3 0x5D5 PUSH1 0x0 CODECOPY PUSH1 0x0 RETURN INVALID PUSH1 0x80 PUSH1 0x40 MSTORE PUSH1 0x4 CALLDATASIZE LT PUSH2 0x1F8 JUMPI PUSH1 0x0 CALLDATALOAD PUSH1 0xE0 SHR DUP1 PUSH4 0x8456CB59 GT PUSH2 0x10D JUMPI DUP1 PUSH4 0xACB3180F GT PUSH2 0xA0 JUMPI DUP1 PUSH4 0xD81D0A15 GT PUSH2 0x6F JUMPI DUP1 PUSH4 0xD81D0A15 EQ PUSH2 0x712 JUMPI DUP1 PUSH4 0xE985E9C5 EQ PUSH2 0x73B JUMPI DUP1 PUSH4 0xF242432A EQ PUSH2 0x778 JUMPI DUP1 PUSH4 0xF2FDE38B EQ PUSH2 0x7A1 JUMPI DUP1 PUSH4 0xF5298ACA EQ PUSH2 0x7CA JUMPI PUSH2 0x1F8 JUMP JUMPDEST DUP1 PUSH4 0xACB3180F EQ PUSH2 0x632 JUMPI DUP1 PUSH4 0xB390C0AB EQ PUSH2 0x66F JUMPI DUP1 PUSH4 0xBD85B039 EQ PUSH2 0x698 JUMPI DUP1 PUSH4 0xC87B56DD EQ PUSH2 0x6D5 JUMPI PUSH2 0x1F8 JUMP JUMPDEST DUP1 PUSH4 0x8DA5CB5B GT PUSH2 0xDC JUMPI DUP1 PUSH4 0x8DA5CB5B EQ PUSH2 0x576 JUMPI DUP1 PUSH4 0x95D89B41 EQ PUSH2 0x5A1 JUMPI DUP1 PUSH4 0x9B19251A EQ PUSH2 0x5CC JUMPI DUP1 PUSH4 0xA22CB465 EQ PUSH2 0x609 JUMPI PUSH2 0x1F8 JUMP JUMPDEST DUP1 PUSH4 0x8456CB59 EQ PUSH2 0x501 JUMPI DUP1 PUSH4 0x853828B6 EQ PUSH2 0x518 JUMPI DUP1 PUSH4 0x862440E2 EQ PUSH2 0x522 JUMPI DUP1 PUSH4 0x8B7AFE2E EQ PUSH2 0x54B JUMPI PUSH2 0x1F8 JUMP JUMPDEST DUP1 PUSH4 0x4E1273F4 GT PUSH2 0x190 JUMPI DUP1 PUSH4 0x56C88F5F GT PUSH2 0x15F JUMPI DUP1 PUSH4 0x56C88F5F EQ PUSH2 0x451 JUMPI DUP1 PUSH4 0x5C975ABB EQ PUSH2 0x46D JUMPI DUP1 PUSH4 0x6B20C454 EQ PUSH2 0x498 JUMPI DUP1 PUSH4 0x715018A6 EQ PUSH2 0x4C1 JUMPI DUP1 PUSH4 0x83CA4B6F EQ PUSH2 0x4D8 JUMPI PUSH2 0x1F8 JUMP JUMPDEST DUP1 PUSH4 0x4E1273F4 EQ PUSH2 0x385 JUMPI DUP1 PUSH4 0x4F558E79 EQ PUSH2 0x3C2 JUMPI DUP1 PUSH4 0x50F787DC EQ PUSH2 0x3FF JUMPI DUP1 PUSH4 0x510F4104 EQ PUSH2 0x428 JUMPI PUSH2 0x1F8 JUMP JUMPDEST DUP1 PUSH4 0x2AE5D2F9 GT PUSH2 0x1CC JUMPI DUP1 PUSH4 0x2AE5D2F9 EQ PUSH2 0x2DF JUMPI DUP1 PUSH4 0x2EB2C2D6 EQ PUSH2 0x31C JUMPI DUP1 PUSH4 0x36576424 EQ PUSH2 0x345 JUMPI DUP1 PUSH4 0x3F4BA83A EQ PUSH2 0x36E JUMPI PUSH2 0x1F8 JUMP JUMPDEST DUP1 PUSH3 0xFDD58E EQ PUSH2 0x1FD JUMPI DUP1 PUSH4 0x1FFC9A7 EQ PUSH2 0x23A JUMPI DUP1 PUSH4 0x6FDDE03 EQ PUSH2 0x277 JUMPI DUP1 PUSH4 0xE89341C EQ PUSH2 0x2A2 JUMPI JUMPDEST PUSH1 0x0 DUP1 REVERT JUMPDEST CALLVALUE DUP1 ISZERO PUSH2 0x209 JUMPI PUSH1 0x0 DUP1 REVERT JUMPDEST POP PUSH2 0x224 PUSH1 0x4 DUP1 CALLDATASIZE SUB DUP2 ADD SWAP1 PUSH2 0x21F SWAP2 SWAP1 PUSH2 0x44D0 JUMP JUMPDEST PUSH2 0x7F3 JUMP JUMPDEST PUSH1 0x40 MLOAD PUSH2 0x231 SWAP2 SWAP1 PUSH2 0x51EE JUMP JUMPDEST PUSH1 0x40 MLOAD DUP1 SWAP2 SUB SWAP1 RETURN JUMPDEST CALLVALUE DUP1 ISZERO PUSH2 0x246 JUMPI PUSH1 0x0 DUP1 REVERT JUMPDEST POP PUSH2 0x261 PUSH1 0x4 DUP1 CALLDATASIZE SUB DUP2 ADD SWAP1 PUSH2 0x25C SWAP2 SWAP1 PUSH2 0x46AF JUMP JUMPDEST PUSH2 0x8BC JUMP JUMPDEST PUSH1 0x40 MLOAD PUSH2 0x26E SWAP2 SWAP1 PUSH2 0x4DC9 JUMP JUMPDEST PUSH1 0x40 MLOAD DUP1 SWAP2 SUB SWAP1 RETURN JUMPDEST CALLVALUE DUP1 ISZERO PUSH2 0x283 JUMPI PUSH1 0x0 DUP1 REVERT JUMPDEST POP PUSH2 0x28C PUSH2 0x99E JUMP JUMPDEST PUSH1 0x40 MLOAD PUSH2 0x299 SWAP2 SWAP1 PUSH2 0x4DE4 JUMP JUMPDEST PUSH1 0x40 MLOAD DUP1 SWAP2 SUB SWAP1 RETURN JUMPDEST CALLVALUE DUP1 ISZERO PUSH2 0x2AE JUMPI PUSH1 0x0 DUP1 REVERT JUMPDEST POP PUSH2 0x2C9 PUSH1 0x4 DUP1 CALLDATASIZE SUB DUP2 ADD SWAP1 PUSH2 0x2C4 SWAP2 SWAP1 PUSH2 0x4709 JUMP JUMPDEST PUSH2 0xA2C JUMP JUMPDEST PUSH1 0x40 MLOAD PUSH2 0x2D6 SWAP2 SWAP1 PUSH2 0x4DE4 JUMP JUMPDEST PUSH1 0x40 MLOAD DUP1 SWAP2 SUB SWAP1 RETURN JUMPDEST CALLVALUE DUP1 ISZERO PUSH2 0x2EB JUMPI PUSH1 0x0 DUP1 REVERT JUMPDEST POP PUSH2 0x306 PUSH1 0x4 DUP1 CALLDATASIZE SUB DUP2 ADD SWAP1 PUSH2 0x301 SWAP2 SWAP1 PUSH2 0x4147 JUMP JUMPDEST PUSH2 0xAD1 JUMP JUMPDEST PUSH1 0x40 MLOAD PUSH2 0x313 SWAP2 SWAP1 PUSH2 0x51EE JUMP JUMPDEST PUSH1 0x40 MLOAD DUP1 SWAP2 SUB SWAP1 RETURN JUMPDEST CALLVALUE DUP1 ISZERO PUSH2 0x328 JUMPI PUSH1 0x0 DUP1 REVERT JUMPDEST POP PUSH2 0x343 PUSH1 0x4 DUP1 CALLDATASIZE SUB DUP2 ADD SWAP1 PUSH2 0x33E SWAP2 SWAP1 PUSH2 0x41B4 JUMP JUMPDEST PUSH2 0xB1A JUMP JUMPDEST STOP JUMPDEST CALLVALUE DUP1 ISZERO PUSH2 0x351 JUMPI PUSH1 0x0 DUP1 REVERT JUMPDEST POP PUSH2 0x36C PUSH1 0x4 DUP1 CALLDATASIZE SUB DUP2 ADD SWAP1 PUSH2 0x367 SWAP2 SWAP1 PUSH2 0x45DB JUMP JUMPDEST PUSH2 0xBBB JUMP JUMPDEST STOP JUMPDEST CALLVALUE DUP1 ISZERO PUSH2 0x37A JUMPI PUSH1 0x0 DUP1 REVERT JUMPDEST POP PUSH2 0x383 PUSH2 0x1078 JUMP JUMPDEST STOP JUMPDEST CALLVALUE DUP1 ISZERO PUSH2 0x391 JUMPI PUSH1 0x0 DUP1 REVERT JUMPDEST POP PUSH2 0x3AC PUSH1 0x4 DUP1 CALLDATASIZE SUB DUP2 ADD SWAP1 PUSH2 0x3A7 SWAP2 SWAP1 PUSH2 0x4563 JUMP JUMPDEST PUSH2 0x10FE JUMP JUMPDEST PUSH1 0x40 MLOAD PUSH2 0x3B9 SWAP2 SWAP1 PUSH2 0x4D70 JUMP JUMPDEST PUSH1 0x40 MLOAD DUP1 SWAP2 SUB SWAP1 RETURN JUMPDEST CALLVALUE DUP1 ISZERO PUSH2 0x3CE JUMPI PUSH1 0x0 DUP1 REVERT JUMPDEST POP PUSH2 0x3E9 PUSH1 0x4 DUP1 CALLDATASIZE SUB DUP2 ADD SWAP1 PUSH2 0x3E4 SWAP2 SWAP1 PUSH2 0x4709 JUMP JUMPDEST PUSH2 0x1217 JUMP JUMPDEST PUSH1 0x40 MLOAD PUSH2 0x3F6 SWAP2 SWAP1 PUSH2 0x4DC9 JUMP JUMPDEST PUSH1 0x40 MLOAD DUP1 SWAP2 SUB SWAP1 RETURN JUMPDEST CALLVALUE DUP1 ISZERO PUSH2 0x40B JUMPI PUSH1 0x0 DUP1 REVERT JUMPDEST POP PUSH2 0x426 PUSH1 0x4 DUP1 CALLDATASIZE SUB DUP2 ADD SWAP1 PUSH2 0x421 SWAP2 SWAP1 PUSH2 0x45DB JUMP JUMPDEST PUSH2 0x122B JUMP JUMPDEST STOP JUMPDEST CALLVALUE DUP1 ISZERO PUSH2 0x434 JUMPI PUSH1 0x0 DUP1 REVERT JUMPDEST POP PUSH2 0x44F PUSH1 0x4 DUP1 CALLDATASIZE SUB DUP2 ADD SWAP1 PUSH2 0x44A SWAP2 SWAP1 PUSH2 0x43A5 JUMP JUMPDEST PUSH2 0x1411 JUMP JUMPDEST STOP JUMPDEST PUSH2 0x46B PUSH1 0x4 DUP1 CALLDATASIZE SUB DUP2 ADD SWAP1 PUSH2 0x466 SWAP2 SWAP1 PUSH2 0x4147 JUMP JUMPDEST PUSH2 0x14BA JUMP JUMPDEST STOP JUMPDEST CALLVALUE DUP1 ISZERO PUSH2 0x479 JUMPI PUSH1 0x0 DUP1 REVERT JUMPDEST POP PUSH2 0x482 PUSH2 0x169D JUMP JUMPDEST PUSH1 0x40 MLOAD PUSH2 0x48F SWAP2 SWAP1 PUSH2 0x4DC9 JUMP JUMPDEST PUSH1 0x40 MLOAD DUP1 SWAP2 SUB SWAP1 RETURN JUMPDEST CALLVALUE DUP1 ISZERO PUSH2 0x4A4 JUMPI PUSH1 0x0 DUP1 REVERT JUMPDEST POP PUSH2 0x4BF PUSH1 0x4 DUP1 CALLDATASIZE SUB DUP2 ADD SWAP1 PUSH2 0x4BA SWAP2 SWAP1 PUSH2 0x431A JUMP JUMPDEST PUSH2 0x16B4 JUMP JUMPDEST STOP JUMPDEST CALLVALUE DUP1 ISZERO PUSH2 0x4CD JUMPI PUSH1 0x0 DUP1 REVERT JUMPDEST POP PUSH2 0x4D6 PUSH2 0x1751 JUMP JUMPDEST STOP JUMPDEST CALLVALUE DUP1 ISZERO PUSH2 0x4E4 JUMPI PUSH1 0x0 DUP1 REVERT JUMPDEST POP PUSH2 0x4FF PUSH1 0x4 DUP1 CALLDATASIZE SUB DUP2 ADD SWAP1 PUSH2 0x4FA SWAP2 SWAP1 PUSH2 0x4637 JUMP JUMPDEST PUSH2 0x17D9 JUMP JUMPDEST STOP JUMPDEST CALLVALUE DUP1 ISZERO PUSH2 0x50D JUMPI PUSH1 0x0 DUP1 REVERT JUMPDEST POP PUSH2 0x516 PUSH2 0x17E8 JUMP JUMPDEST STOP JUMPDEST PUSH2 0x520 PUSH2 0x186E JUMP JUMPDEST STOP JUMPDEST CALLVALUE DUP1 ISZERO PUSH2 0x52E JUMPI PUSH1 0x0 DUP1 REVERT JUMPDEST POP PUSH2 0x549 PUSH1 0x4 DUP1 CALLDATASIZE SUB DUP2 ADD SWAP1 PUSH2 0x544 SWAP2 SWAP1 PUSH2 0x4736 JUMP JUMPDEST PUSH2 0x1933 JUMP JUMPDEST STOP JUMPDEST CALLVALUE DUP1 ISZERO PUSH2 0x557 JUMPI PUSH1 0x0 DUP1 REVERT JUMPDEST POP PUSH2 0x560 PUSH2 0x1A13 JUMP JUMPDEST PUSH1 0x40 MLOAD PUSH2 0x56D SWAP2 SWAP1 PUSH2 0x51EE JUMP JUMPDEST PUSH1 0x40 MLOAD DUP1 SWAP2 SUB SWAP1 RETURN JUMPDEST CALLVALUE DUP1 ISZERO PUSH2 0x582 JUMPI PUSH1 0x0 DUP1 REVERT JUMPDEST POP PUSH2 0x58B PUSH2 0x1A97 JUMP JUMPDEST PUSH1 0x40 MLOAD PUSH2 0x598 SWAP2 SWAP1 PUSH2 0x4C93 JUMP JUMPDEST PUSH1 0x40 MLOAD DUP1 SWAP2 SUB SWAP1 RETURN JUMPDEST CALLVALUE DUP1 ISZERO PUSH2 0x5AD JUMPI PUSH1 0x0 DUP1 REVERT JUMPDEST POP PUSH2 0x5B6 PUSH2 0x1AC1 JUMP JUMPDEST PUSH1 0x40 MLOAD PUSH2 0x5C3 SWAP2 SWAP1 PUSH2 0x4DE4 JUMP JUMPDEST PUSH1 0x40 MLOAD DUP1 SWAP2 SUB SWAP1 RETURN JUMPDEST CALLVALUE DUP1 ISZERO PUSH2 0x5D8 JUMPI PUSH1 0x0 DUP1 REVERT JUMPDEST POP PUSH2 0x5F3 PUSH1 0x4 DUP1 CALLDATASIZE SUB DUP2 ADD SWAP1 PUSH2 0x5EE SWAP2 SWAP1 PUSH2 0x4147 JUMP JUMPDEST PUSH2 0x1B4F JUMP JUMPDEST PUSH1 0x40 MLOAD PUSH2 0x600 SWAP2 SWAP1 PUSH2 0x51EE JUMP JUMPDEST PUSH1 0x40 MLOAD DUP1 SWAP2 SUB SWAP1 RETURN JUMPDEST CALLVALUE DUP1 ISZERO PUSH2 0x615 JUMPI PUSH1 0x0 DUP1 REVERT JUMPDEST POP PUSH2 0x630 PUSH1 0x4 DUP1 CALLDATASIZE SUB DUP2 ADD SWAP1 PUSH2 0x62B SWAP2 SWAP1 PUSH2 0x4490 JUMP JUMPDEST PUSH2 0x1B67 JUMP JUMPDEST STOP JUMPDEST CALLVALUE DUP1 ISZERO PUSH2 0x63E JUMPI PUSH1 0x0 DUP1 REVERT JUMPDEST POP PUSH2 0x659 PUSH1 0x4 DUP1 CALLDATASIZE SUB DUP2 ADD SWAP1 PUSH2 0x654 SWAP2 SWAP1 PUSH2 0x4709 JUMP JUMPDEST PUSH2 0x1B7D JUMP JUMPDEST PUSH1 0x40 MLOAD PUSH2 0x666 SWAP2 SWAP1 PUSH2 0x51EE JUMP JUMPDEST PUSH1 0x40 MLOAD DUP1 SWAP2 SUB SWAP1 RETURN JUMPDEST CALLVALUE DUP1 ISZERO PUSH2 0x67B JUMPI PUSH1 0x0 DUP1 REVERT JUMPDEST POP PUSH2 0x696 PUSH1 0x4 DUP1 CALLDATASIZE SUB DUP2 ADD SWAP1 PUSH2 0x691 SWAP2 SWAP1 PUSH2 0x4792 JUMP JUMPDEST PUSH2 0x1BB1 JUMP JUMPDEST STOP JUMPDEST CALLVALUE DUP1 ISZERO PUSH2 0x6A4 JUMPI PUSH1 0x0 DUP1 REVERT JUMPDEST POP PUSH2 0x6BF PUSH1 0x4 DUP1 CALLDATASIZE SUB DUP2 ADD SWAP1 PUSH2 0x6BA SWAP2 SWAP1 PUSH2 0x4709 JUMP JUMPDEST PUSH2 0x1BC0 JUMP JUMPDEST PUSH1 0x40 MLOAD PUSH2 0x6CC SWAP2 SWAP1 PUSH2 0x51EE JUMP JUMPDEST PUSH1 0x40 MLOAD DUP1 SWAP2 SUB SWAP1 RETURN JUMPDEST CALLVALUE DUP1 ISZERO PUSH2 0x6E1 JUMPI PUSH1 0x0 DUP1 REVERT JUMPDEST POP PUSH2 0x6FC PUSH1 0x4 DUP1 CALLDATASIZE SUB DUP2 ADD SWAP1 PUSH2 0x6F7 SWAP2 SWAP1 PUSH2 0x4709 JUMP JUMPDEST PUSH2 0x1BDD JUMP JUMPDEST PUSH1 0x40 MLOAD PUSH2 0x709 SWAP2 SWAP1 PUSH2 0x4DE4 JUMP JUMPDEST PUSH1 0x40 MLOAD DUP1 SWAP2 SUB SWAP1 RETURN JUMPDEST CALLVALUE DUP1 ISZERO PUSH2 0x71E JUMPI PUSH1 0x0 DUP1 REVERT JUMPDEST POP PUSH2 0x739 PUSH1 0x4 DUP1 CALLDATASIZE SUB DUP2 ADD SWAP1 PUSH2 0x734 SWAP2 SWAP1 PUSH2 0x431A JUMP JUMPDEST PUSH2 0x1C7D JUMP JUMPDEST STOP JUMPDEST CALLVALUE DUP1 ISZERO PUSH2 0x747 JUMPI PUSH1 0x0 DUP1 REVERT JUMPDEST POP PUSH2 0x762 PUSH1 0x4 DUP1 CALLDATASIZE SUB DUP2 ADD SWAP1 PUSH2 0x75D SWAP2 SWAP1 PUSH2 0x4174 JUMP JUMPDEST PUSH2 0x1D19 JUMP JUMPDEST PUSH1 0x40 MLOAD PUSH2 0x76F SWAP2 SWAP1 PUSH2 0x4DC9 JUMP JUMPDEST PUSH1 0x40 MLOAD DUP1 SWAP2 SUB SWAP1 RETURN JUMPDEST CALLVALUE DUP1 ISZERO PUSH2 0x784 JUMPI PUSH1 0x0 DUP1 REVERT JUMPDEST POP PUSH2 0x79F PUSH1 0x4 DUP1 CALLDATASIZE SUB DUP2 ADD SWAP1 PUSH2 0x79A SWAP2 SWAP1 PUSH2 0x4283 JUMP JUMPDEST PUSH2 0x1DAD JUMP JUMPDEST STOP JUMPDEST CALLVALUE DUP1 ISZERO PUSH2 0x7AD JUMPI PUSH1 0x0 DUP1 REVERT JUMPDEST POP PUSH2 0x7C8 PUSH1 0x4 DUP1 CALLDATASIZE SUB DUP2 ADD SWAP1 PUSH2 0x7C3 SWAP2 SWAP1 PUSH2 0x4147 JUMP JUMPDEST PUSH2 0x1E4E JUMP JUMPDEST STOP JUMPDEST CALLVALUE DUP1 ISZERO PUSH2 0x7D6 JUMPI PUSH1 0x0 DUP1 REVERT JUMPDEST POP PUSH2 0x7F1 PUSH1 0x4 DUP1 CALLDATASIZE SUB DUP2 ADD SWAP1 PUSH2 0x7EC SWAP2 SWAP1 PUSH2 0x4510 JUMP JUMPDEST PUSH2 0x1F46 JUMP JUMPDEST STOP JUMPDEST PUSH1 0x0 DUP1 PUSH20 0xFFFFFFFFFFFFFFFFFFFFFFFFFFFFFFFFFFFFFFFF AND DUP4 PUSH20 0xFFFFFFFFFFFFFFFFFFFFFFFFFFFFFFFFFFFFFFFF AND EQ ISZERO PUSH2 0x864 JUMPI PUSH1 0x40 MLOAD PUSH32 0x8C379A000000000000000000000000000000000000000000000000000000000 DUP2 MSTORE PUSH1 0x4 ADD PUSH2 0x85B SWAP1 PUSH2 0x4EF0 JUMP JUMPDEST PUSH1 0x40 MLOAD DUP1 SWAP2 SUB SWAP1 REVERT JUMPDEST PUSH1 0x0 DUP1 DUP4 DUP2 MSTORE PUSH1 0x20 ADD SWAP1 DUP2 MSTORE PUSH1 0x20 ADD PUSH1 0x0 KECCAK256 PUSH1 0x0 DUP5 PUSH20 0xFFFFFFFFFFFFFFFFFFFFFFFFFFFFFFFFFFFFFFFF AND PUSH20 0xFFFFFFFFFFFFFFFFFFFFFFFFFFFFFFFFFFFFFFFF AND DUP2 MSTORE PUSH1 0x20 ADD SWAP1 DUP2 MSTORE PUSH1 0x20 ADD PUSH1 0x0 KECCAK256 SLOAD SWAP1 POP SWAP3 SWAP2 POP POP JUMP JUMPDEST PUSH1 0x0 PUSH32 0xD9B67A2600000000000000000000000000000000000000000000000000000000 PUSH28 0xFFFFFFFFFFFFFFFFFFFFFFFFFFFFFFFFFFFFFFFFFFFFFFFFFFFFFFFF NOT AND DUP3 PUSH28 0xFFFFFFFFFFFFFFFFFFFFFFFFFFFFFFFFFFFFFFFFFFFFFFFFFFFFFFFF NOT AND EQ DUP1 PUSH2 0x987 JUMPI POP PUSH32 0xE89341C00000000000000000000000000000000000000000000000000000000 PUSH28 0xFFFFFFFFFFFFFFFFFFFFFFFFFFFFFFFFFFFFFFFFFFFFFFFFFFFFFFFF NOT AND DUP3 PUSH28 0xFFFFFFFFFFFFFFFFFFFFFFFFFFFFFFFFFFFFFFFFFFFFFFFFFFFFFFFF NOT AND EQ JUMPDEST DUP1 PUSH2 0x997 JUMPI POP PUSH2 0x996 DUP3 PUSH2 0x1FE3 JUMP JUMPDEST JUMPDEST SWAP1 POP SWAP2 SWAP1 POP JUMP JUMPDEST PUSH1 0x5 DUP1 SLOAD PUSH2 0x9AB SWAP1 PUSH2 0x54FE JUMP JUMPDEST DUP1 PUSH1 0x1F ADD PUSH1 0x20 DUP1 SWAP2 DIV MUL PUSH1 0x20 ADD PUSH1 0x40 MLOAD SWAP1 DUP2 ADD PUSH1 0x40 MSTORE DUP1 SWAP3 SWAP2 SWAP1 DUP2 DUP2 MSTORE PUSH1 0x20 ADD DUP3 DUP1 SLOAD PUSH2 0x9D7 SWAP1 PUSH2 0x54FE JUMP JUMPDEST DUP1 ISZERO PUSH2 0xA24 JUMPI DUP1 PUSH1 0x1F LT PUSH2 0x9F9 JUMPI PUSH2 0x100 DUP1 DUP4 SLOAD DIV MUL DUP4 MSTORE SWAP2 PUSH1 0x20 ADD SWAP2 PUSH2 0xA24 JUMP JUMPDEST DUP3 ADD SWAP2 SWAP1 PUSH1 0x0 MSTORE PUSH1 0x20 PUSH1 0x0 KECCAK256 SWAP1 JUMPDEST DUP2 SLOAD DUP2 MSTORE SWAP1 PUSH1 0x1 ADD SWAP1 PUSH1 0x20 ADD DUP1 DUP4 GT PUSH2 0xA07 JUMPI DUP3 SWAP1 SUB PUSH1 0x1F AND DUP3 ADD SWAP2 JUMPDEST POP POP POP POP POP DUP2 JUMP JUMPDEST PUSH1 0x60 PUSH1 0xB PUSH1 0x0 DUP4 DUP2 MSTORE PUSH1 0x20 ADD SWAP1 DUP2 MSTORE PUSH1 0x20 ADD PUSH1 0x0 KECCAK256 DUP1 SLOAD PUSH2 0xA4C SWAP1 PUSH2 0x54FE JUMP JUMPDEST DUP1 PUSH1 0x1F ADD PUSH1 0x20 DUP1 SWAP2 DIV MUL PUSH1 0x20 ADD PUSH1 0x40 MLOAD SWAP1 DUP2 ADD PUSH1 0x40 MSTORE DUP1 SWAP3 SWAP2 SWAP1 DUP2 DUP2 MSTORE PUSH1 0x20 ADD DUP3 DUP1 SLOAD PUSH2 0xA78 SWAP1 PUSH2 0x54FE JUMP JUMPDEST DUP1 ISZERO PUSH2 0xAC5 JUMPI DUP1 PUSH1 0x1F LT PUSH2 0xA9A JUMPI PUSH2 0x100 DUP1 DUP4 SLOAD DIV MUL DUP4 MSTORE SWAP2 PUSH1 0x20 ADD SWAP2 PUSH2 0xAC5 JUMP JUMPDEST DUP3 ADD SWAP2 SWAP1 PUSH1 0x0 MSTORE PUSH1 0x20 PUSH1 0x0 KECCAK256 SWAP1 JUMPDEST DUP2 SLOAD DUP2 MSTORE SWAP1 PUSH1 0x1 ADD SWAP1 PUSH1 0x20 ADD DUP1 DUP4 GT PUSH2 0xAA8 JUMPI DUP3 SWAP1 SUB PUSH1 0x1F AND DUP3 ADD SWAP2 JUMPDEST POP POP POP POP POP SWAP1 POP SWAP2 SWAP1 POP JUMP JUMPDEST PUSH1 0x0 PUSH1 0xC PUSH1 0x0 DUP4 PUSH20 0xFFFFFFFFFFFFFFFFFFFFFFFFFFFFFFFFFFFFFFFF AND PUSH20 0xFFFFFFFFFFFFFFFFFFFFFFFFFFFFFFFFFFFFFFFF AND DUP2 MSTORE PUSH1 0x20 ADD SWAP1 DUP2 MSTORE PUSH1 0x20 ADD PUSH1 0x0 KECCAK256 SLOAD SWAP1 POP SWAP2 SWAP1 POP JUMP JUMPDEST PUSH2 0xB22 PUSH2 0x204D JUMP JUMPDEST PUSH20 0xFFFFFFFFFFFFFFFFFFFFFFFFFFFFFFFFFFFFFFFF AND DUP6 PUSH20 0xFFFFFFFFFFFFFFFFFFFFFFFFFFFFFFFFFFFFFFFF AND EQ DUP1 PUSH2 0xB68 JUMPI POP PUSH2 0xB67 DUP6 PUSH2 0xB62 PUSH2 0x204D JUMP JUMPDEST PUSH2 0x1D19 JUMP JUMPDEST JUMPDEST PUSH2 0xBA7 JUMPI PUSH1 0x40 MLOAD PUSH32 0x8C379A000000000000000000000000000000000000000000000000000000000 DUP2 MSTORE PUSH1 0x4 ADD PUSH2 0xB9E SWAP1 PUSH2 0x5064 JUMP JUMPDEST PUSH1 0x40 MLOAD DUP1 SWAP2 SUB SWAP1 REVERT JUMPDEST PUSH2 0xBB4 DUP6 DUP6 DUP6 DUP6 DUP6 PUSH2 0x2055 JUMP JUMPDEST POP POP POP POP POP JUMP JUMPDEST PUSH2 0xBC3 PUSH2 0x204D JUMP JUMPDEST PUSH20 0xFFFFFFFFFFFFFFFFFFFFFFFFFFFFFFFFFFFFFFFF AND PUSH2 0xBE1 PUSH2 0x1A97 JUMP JUMPDEST PUSH20 0xFFFFFFFFFFFFFFFFFFFFFFFFFFFFFFFFFFFFFFFF AND EQ PUSH2 0xC37 JUMPI PUSH1 0x40 MLOAD PUSH32 0x8C379A000000000000000000000000000000000000000000000000000000000 DUP2 MSTORE PUSH1 0x4 ADD PUSH2 0xC2E SWAP1 PUSH2 0x510E JUMP JUMPDEST PUSH1 0x40 MLOAD DUP1 SWAP2 SUB SWAP1 REVERT JUMPDEST DUP1 PUSH32 0xA2455EC11F160D321516C021994881E7678C0B5870CD7AAE50107098770E2C28 CALLER PUSH1 0x0 PUSH1 0xC PUSH1 0x0 CALLER PUSH20 0xFFFFFFFFFFFFFFFFFFFFFFFFFFFFFFFFFFFFFFFF AND PUSH20 0xFFFFFFFFFFFFFFFFFFFFFFFFFFFFFFFFFFFFFFFF AND DUP2 MSTORE PUSH1 0x20 ADD SWAP1 DUP2 MSTORE PUSH1 0x20 ADD PUSH1 0x0 KECCAK256 SLOAD PUSH1 0x40 MLOAD PUSH2 0xCAB SWAP4 SWAP3 SWAP2 SWAP1 PUSH2 0x4E86 JUMP JUMPDEST PUSH1 0x40 MLOAD DUP1 SWAP2 SUB SWAP1 LOG1 PUSH1 0x7 DUP1 SLOAD SWAP1 POP DUP2 GT ISZERO DUP1 ISZERO PUSH2 0xCC8 JUMPI POP PUSH1 0x0 DUP2 GT JUMPDEST PUSH2 0xD07 JUMPI PUSH1 0x40 MLOAD PUSH32 0x8C379A000000000000000000000000000000000000000000000000000000000 DUP2 MSTORE PUSH1 0x4 ADD PUSH2 0xCFE SWAP1 PUSH2 0x4E26 JUMP JUMPDEST PUSH1 0x40 MLOAD DUP1 SWAP2 SUB SWAP1 REVERT JUMPDEST PUSH1 0x0 JUMPDEST DUP4 MLOAD DUP2 LT ISZERO PUSH2 0x1072 JUMPI PUSH1 0x0 PUSH1 0xC PUSH1 0x0 DUP7 DUP5 DUP2 MLOAD DUP2 LT PUSH2 0xD2C JUMPI PUSH2 0xD2B PUSH2 0x5608 JUMP JUMPDEST JUMPDEST PUSH1 0x20 MUL PUSH1 0x20 ADD ADD MLOAD PUSH20 0xFFFFFFFFFFFFFFFFFFFFFFFFFFFFFFFFFFFFFFFF AND PUSH20 0xFFFFFFFFFFFFFFFFFFFFFFFFFFFFFFFFFFFFFFFF AND DUP2 MSTORE PUSH1 0x20 ADD SWAP1 DUP2 MSTORE PUSH1 0x20 ADD PUSH1 0x0 KECCAK256 SLOAD EQ ISZERO PUSH2 0xF86 JUMPI DUP3 PUSH1 0xC PUSH1 0x0 DUP7 DUP5 DUP2 MLOAD DUP2 LT PUSH2 0xD8D JUMPI PUSH2 0xD8C PUSH2 0x5608 JUMP JUMPDEST JUMPDEST PUSH1 0x20 MUL PUSH1 0x20 ADD ADD MLOAD PUSH20 0xFFFFFFFFFFFFFFFFFFFFFFFFFFFFFFFFFFFFFFFF AND PUSH20 0xFFFFFFFFFFFFFFFFFFFFFFFFFFFFFFFFFFFFFFFF AND DUP2 MSTORE PUSH1 0x20 ADD SWAP1 DUP2 MSTORE PUSH1 0x20 ADD PUSH1 0x0 KECCAK256 DUP2 SWAP1 SSTORE POP PUSH1 0x7 PUSH1 0x1 DUP5 PUSH2 0xDE2 SWAP2 SWAP1 PUSH2 0x53D8 JUMP JUMPDEST DUP2 SLOAD DUP2 LT PUSH2 0xDF3 JUMPI PUSH2 0xDF2 PUSH2 0x5608 JUMP JUMPDEST JUMPDEST SWAP1 PUSH1 0x0 MSTORE PUSH1 0x20 PUSH1 0x0 KECCAK256 ADD SLOAD PUSH1 0x1 PUSH1 0xA PUSH1 0x1 DUP7 PUSH2 0xE0F SWAP2 SWAP1 PUSH2 0x53D8 JUMP JUMPDEST DUP2 SLOAD DUP2 LT PUSH2 0xE20 JUMPI PUSH2 0xE1F PUSH2 0x5608 JUMP JUMPDEST JUMPDEST SWAP1 PUSH1 0x0 MSTORE PUSH1 0x20 PUSH1 0x0 KECCAK256 ADD SLOAD PUSH2 0xE35 SWAP2 SWAP1 PUSH2 0x5382 JUMP JUMPDEST GT ISZERO PUSH2 0xE76 JUMPI PUSH1 0x40 MLOAD PUSH32 0x8C379A000000000000000000000000000000000000000000000000000000000 DUP2 MSTORE PUSH1 0x4 ADD PUSH2 0xE6D SWAP1 PUSH2 0x5004 JUMP JUMPDEST PUSH1 0x40 MLOAD DUP1 SWAP2 SUB SWAP1 REVERT JUMPDEST PUSH1 0xA PUSH1 0x1 DUP5 PUSH2 0xE85 SWAP2 SWAP1 PUSH2 0x53D8 JUMP JUMPDEST DUP2 SLOAD DUP2 LT PUSH2 0xE96 JUMPI PUSH2 0xE95 PUSH2 0x5608 JUMP JUMPDEST JUMPDEST SWAP1 PUSH1 0x0 MSTORE PUSH1 0x20 PUSH1 0x0 KECCAK256 ADD PUSH1 0x0 DUP2 SLOAD DUP1 SWAP3 SWAP2 SWAP1 PUSH2 0xEB1 SWAP1 PUSH2 0x5561 JUMP JUMPDEST SWAP2 SWAP1 POP SSTORE POP PUSH1 0x1 DUP4 EQ PUSH2 0xF81 JUMPI PUSH1 0x7 PUSH1 0x0 DUP2 SLOAD DUP2 LT PUSH2 0xED3 JUMPI PUSH2 0xED2 PUSH2 0x5608 JUMP JUMPDEST JUMPDEST SWAP1 PUSH1 0x0 MSTORE PUSH1 0x20 PUSH1 0x0 KECCAK256 ADD SLOAD PUSH1 0x1 PUSH1 0xA PUSH1 0x0 DUP2 SLOAD DUP2 LT PUSH2 0xEF5 JUMPI PUSH2 0xEF4 PUSH2 0x5608 JUMP JUMPDEST JUMPDEST SWAP1 PUSH1 0x0 MSTORE PUSH1 0x20 PUSH1 0x0 KECCAK256 ADD SLOAD PUSH2 0xF0A SWAP2 SWAP1 PUSH2 0x5382 JUMP JUMPDEST GT ISZERO PUSH2 0xF4B JUMPI PUSH1 0x40 MLOAD PUSH32 0x8C379A000000000000000000000000000000000000000000000000000000000 DUP2 MSTORE PUSH1 0x4 ADD PUSH2 0xF42 SWAP1 PUSH2 0x5004 JUMP JUMPDEST PUSH1 0x40 MLOAD DUP1 SWAP2 SUB SWAP1 REVERT JUMPDEST PUSH1 0xA PUSH1 0x0 DUP2 SLOAD DUP2 LT PUSH2 0xF60 JUMPI PUSH2 0xF5F PUSH2 0x5608 JUMP JUMPDEST JUMPDEST SWAP1 PUSH1 0x0 MSTORE PUSH1 0x20 PUSH1 0x0 KECCAK256 ADD PUSH1 0x0 DUP2 SLOAD DUP1 SWAP3 SWAP2 SWAP1 PUSH2 0xF7B SWAP1 PUSH2 0x5561 JUMP JUMPDEST SWAP2 SWAP1 POP SSTORE POP JUMPDEST PUSH2 0x105F JUMP JUMPDEST PUSH32 0xA2455EC11F160D321516C021994881E7678C0B5870CD7AAE50107098770E2C28 DUP5 DUP3 DUP2 MLOAD DUP2 LT PUSH2 0xFBA JUMPI PUSH2 0xFB9 PUSH2 0x5608 JUMP JUMPDEST JUMPDEST PUSH1 0x20 MUL PUSH1 0x20 ADD ADD MLOAD PUSH1 0xA PUSH1 0x1 DUP7 PUSH2 0xFD1 SWAP2 SWAP1 PUSH2 0x53D8 JUMP JUMPDEST DUP2 SLOAD DUP2 LT PUSH2 0xFE2 JUMPI PUSH2 0xFE1 PUSH2 0x5608 JUMP JUMPDEST JUMPDEST SWAP1 PUSH1 0x0 MSTORE PUSH1 0x20 PUSH1 0x0 KECCAK256 ADD SLOAD PUSH1 0xC PUSH1 0x0 DUP9 DUP7 DUP2 MLOAD DUP2 LT PUSH2 0x1004 JUMPI PUSH2 0x1003 PUSH2 0x5608 JUMP JUMPDEST JUMPDEST PUSH1 0x20 MUL PUSH1 0x20 ADD ADD MLOAD PUSH20 0xFFFFFFFFFFFFFFFFFFFFFFFFFFFFFFFFFFFFFFFF AND PUSH20 0xFFFFFFFFFFFFFFFFFFFFFFFFFFFFFFFFFFFFFFFF AND DUP2 MSTORE PUSH1 0x20 ADD SWAP1 DUP2 MSTORE PUSH1 0x20 ADD PUSH1 0x0 KECCAK256 SLOAD PUSH1 0x40 MLOAD PUSH2 0x1056 SWAP4 SWAP3 SWAP2 SWAP1 PUSH2 0x4F9A JUMP JUMPDEST PUSH1 0x40 MLOAD DUP1 SWAP2 SUB SWAP1 LOG1 JUMPDEST DUP1 DUP1 PUSH2 0x106A SWAP1 PUSH2 0x5561 JUMP JUMPDEST SWAP2 POP POP PUSH2 0xD0A JUMP JUMPDEST POP POP POP POP JUMP JUMPDEST PUSH2 0x1080 PUSH2 0x204D JUMP JUMPDEST PUSH20 0xFFFFFFFFFFFFFFFFFFFFFFFFFFFFFFFFFFFFFFFF AND PUSH2 0x109E PUSH2 0x1A97 JUMP JUMPDEST PUSH20 0xFFFFFFFFFFFFFFFFFFFFFFFFFFFFFFFFFFFFFFFF AND EQ PUSH2 0x10F4 JUMPI PUSH1 0x40 MLOAD PUSH32 0x8C379A000000000000000000000000000000000000000000000000000000000 DUP2 MSTORE PUSH1 0x4 ADD PUSH2 0x10EB SWAP1 PUSH2 0x510E JUMP JUMPDEST PUSH1 0x40 MLOAD DUP1 SWAP2 SUB SWAP1 REVERT JUMPDEST PUSH2 0x10FC PUSH2 0x2369 JUMP JUMPDEST JUMP JUMPDEST PUSH1 0x60 DUP2 MLOAD DUP4 MLOAD EQ PUSH2 0x1144 JUMPI PUSH1 0x40 MLOAD PUSH32 0x8C379A000000000000000000000000000000000000000000000000000000000 DUP2 MSTORE PUSH1 0x4 ADD PUSH2 0x113B SWAP1 PUSH2 0x518E JUMP JUMPDEST PUSH1 0x40 MLOAD DUP1 SWAP2 SUB SWAP1 REVERT JUMPDEST PUSH1 0x0 DUP4 MLOAD PUSH8 0xFFFFFFFFFFFFFFFF DUP2 GT ISZERO PUSH2 0x1161 JUMPI PUSH2 0x1160 PUSH2 0x5637 JUMP JUMPDEST JUMPDEST PUSH1 0x40 MLOAD SWAP1 DUP1 DUP3 MSTORE DUP1 PUSH1 0x20 MUL PUSH1 0x20 ADD DUP3 ADD PUSH1 0x40 MSTORE DUP1 ISZERO PUSH2 0x118F JUMPI DUP2 PUSH1 0x20 ADD PUSH1 0x20 DUP3 MUL DUP1 CALLDATASIZE DUP4 CALLDATACOPY DUP1 DUP3 ADD SWAP2 POP POP SWAP1 POP JUMPDEST POP SWAP1 POP PUSH1 0x0 JUMPDEST DUP5 MLOAD DUP2 LT ISZERO PUSH2 0x120C JUMPI PUSH2 0x11DC DUP6 DUP3 DUP2 MLOAD DUP2 LT PUSH2 0x11B4 JUMPI PUSH2 0x11B3 PUSH2 0x5608 JUMP JUMPDEST JUMPDEST PUSH1 0x20 MUL PUSH1 0x20 ADD ADD MLOAD DUP6 DUP4 DUP2 MLOAD DUP2 LT PUSH2 0x11CF JUMPI PUSH2 0x11CE PUSH2 0x5608 JUMP JUMPDEST JUMPDEST PUSH1 0x20 MUL PUSH1 0x20 ADD ADD MLOAD PUSH2 0x7F3 JUMP JUMPDEST DUP3 DUP3 DUP2 MLOAD DUP2 LT PUSH2 0x11EF JUMPI PUSH2 0x11EE PUSH2 0x5608 JUMP JUMPDEST JUMPDEST PUSH1 0x20 MUL PUSH1 0x20 ADD ADD DUP2 DUP2 MSTORE POP POP DUP1 PUSH2 0x1205 SWAP1 PUSH2 0x5561 JUMP JUMPDEST SWAP1 POP PUSH2 0x1195 JUMP JUMPDEST POP DUP1 SWAP2 POP POP SWAP3 SWAP2 POP POP JUMP JUMPDEST PUSH1 0x0 DUP1 PUSH2 0x1223 DUP4 PUSH2 0x1BC0 JUMP JUMPDEST GT SWAP1 POP SWAP2 SWAP1 POP JUMP JUMPDEST PUSH2 0x1233 PUSH2 0x204D JUMP JUMPDEST PUSH20 0xFFFFFFFFFFFFFFFFFFFFFFFFFFFFFFFFFFFFFFFF AND PUSH2 0x1251 PUSH2 0x1A97 JUMP JUMPDEST PUSH20 0xFFFFFFFFFFFFFFFFFFFFFFFFFFFFFFFFFFFFFFFF AND EQ PUSH2 0x12A7 JUMPI PUSH1 0x40 MLOAD PUSH32 0x8C379A000000000000000000000000000000000000000000000000000000000 DUP2 MSTORE PUSH1 0x4 ADD PUSH2 0x129E SWAP1 PUSH2 0x510E JUMP JUMPDEST PUSH1 0x40 MLOAD DUP1 SWAP2 SUB SWAP1 REVERT JUMPDEST DUP1 PUSH32 0xA2455EC11F160D321516C021994881E7678C0B5870CD7AAE50107098770E2C28 CALLER PUSH1 0x0 PUSH1 0xC PUSH1 0x0 CALLER PUSH20 0xFFFFFFFFFFFFFFFFFFFFFFFFFFFFFFFFFFFFFFFF AND PUSH20 0xFFFFFFFFFFFFFFFFFFFFFFFFFFFFFFFFFFFFFFFF AND DUP2 MSTORE PUSH1 0x20 ADD SWAP1 DUP2 MSTORE PUSH1 0x20 ADD PUSH1 0x0 KECCAK256 SLOAD PUSH1 0x40 MLOAD PUSH2 0x131B SWAP4 SWAP3 SWAP2 SWAP1 PUSH2 0x4E86 JUMP JUMPDEST PUSH1 0x40 MLOAD DUP1 SWAP2 SUB SWAP1 LOG1 PUSH1 0x7 DUP1 SLOAD SWAP1 POP DUP2 GT ISZERO DUP1 ISZERO PUSH2 0x1338 JUMPI POP PUSH1 0x0 DUP2 GT JUMPDEST PUSH2 0x1377 JUMPI PUSH1 0x40 MLOAD PUSH32 0x8C379A000000000000000000000000000000000000000000000000000000000 DUP2 MSTORE PUSH1 0x4 ADD PUSH2 0x136E SWAP1 PUSH2 0x4E26 JUMP JUMPDEST PUSH1 0x40 MLOAD DUP1 SWAP2 SUB SWAP1 REVERT JUMPDEST PUSH1 0x0 DUP1 JUMPDEST DUP5 MLOAD DUP2 LT ISZERO PUSH2 0x13C9 JUMPI PUSH2 0x13A8 DUP6 DUP3 DUP2 MLOAD DUP2 LT PUSH2 0x139A JUMPI PUSH2 0x1399 PUSH2 0x5608 JUMP JUMPDEST JUMPDEST PUSH1 0x20 MUL PUSH1 0x20 ADD ADD MLOAD DUP6 PUSH2 0x240B JUMP JUMPDEST DUP2 DUP1 PUSH2 0x13B3 SWAP1 PUSH2 0x5561 JUMP JUMPDEST SWAP3 POP POP DUP1 DUP1 PUSH2 0x13C1 SWAP1 PUSH2 0x5561 JUMP JUMPDEST SWAP2 POP POP PUSH2 0x137B JUMP JUMPDEST POP DUP1 PUSH1 0xA PUSH1 0x1 DUP6 PUSH2 0x13DA SWAP2 SWAP1 PUSH2 0x53D8 JUMP JUMPDEST DUP2 SLOAD DUP2 LT PUSH2 0x13EB JUMPI PUSH2 0x13EA PUSH2 0x5608 JUMP JUMPDEST JUMPDEST SWAP1 PUSH1 0x0 MSTORE PUSH1 0x20 PUSH1 0x0 KECCAK256 ADD PUSH1 0x0 DUP3 DUP3 SLOAD PUSH2 0x1404 SWAP2 SWAP1 PUSH2 0x53D8 JUMP JUMPDEST SWAP3 POP POP DUP2 SWAP1 SSTORE POP POP POP POP POP JUMP JUMPDEST PUSH2 0x1419 PUSH2 0x204D JUMP JUMPDEST PUSH20 0xFFFFFFFFFFFFFFFFFFFFFFFFFFFFFFFFFFFFFFFF AND PUSH2 0x1437 PUSH2 0x1A97 JUMP JUMPDEST PUSH20 0xFFFFFFFFFFFFFFFFFFFFFFFFFFFFFFFFFFFFFFFF AND EQ PUSH2 0x148D JUMPI PUSH1 0x40 MLOAD PUSH32 0x8C379A000000000000000000000000000000000000000000000000000000000 DUP2 MSTORE PUSH1 0x4 ADD PUSH2 0x1484 SWAP1 PUSH2 0x510E JUMP JUMPDEST PUSH1 0x40 MLOAD DUP1 SWAP2 SUB SWAP1 REVERT JUMPDEST PUSH2 0x1498 DUP6 DUP6 DUP6 PUSH2 0x275B JUMP JUMPDEST PUSH2 0x14B3 DUP6 DUP4 DUP4 PUSH1 0x40 MLOAD DUP1 PUSH1 0x20 ADD PUSH1 0x40 MSTORE DUP1 PUSH1 0x0 DUP2 MSTORE POP PUSH2 0x2A0C JUMP JUMPDEST POP POP POP POP POP JUMP JUMPDEST PUSH2 0x14C2 PUSH2 0x169D JUMP JUMPDEST ISZERO PUSH2 0x1502 JUMPI PUSH1 0x40 MLOAD PUSH32 0x8C379A000000000000000000000000000000000000000000000000000000000 DUP2 MSTORE PUSH1 0x4 ADD PUSH2 0x14F9 SWAP1 PUSH2 0x5024 JUMP JUMPDEST PUSH1 0x40 MLOAD DUP1 SWAP2 SUB SWAP1 REVERT JUMPDEST DUP1 PUSH32 0xA2455EC11F160D321516C021994881E7678C0B5870CD7AAE50107098770E2C28 CALLER PUSH1 0x0 PUSH1 0xC PUSH1 0x0 CALLER PUSH20 0xFFFFFFFFFFFFFFFFFFFFFFFFFFFFFFFFFFFFFFFF AND PUSH20 0xFFFFFFFFFFFFFFFFFFFFFFFFFFFFFFFFFFFFFFFF AND DUP2 MSTORE PUSH1 0x20 ADD SWAP1 DUP2 MSTORE PUSH1 0x20 ADD PUSH1 0x0 KECCAK256 SLOAD PUSH1 0x40 MLOAD PUSH2 0x1576 SWAP4 SWAP3 SWAP2 SWAP1 PUSH2 0x4F30 JUMP JUMPDEST PUSH1 0x40 MLOAD DUP1 SWAP2 SUB SWAP1 LOG1 PUSH1 0x0 PUSH1 0xC PUSH1 0x0 DUP4 PUSH20 0xFFFFFFFFFFFFFFFFFFFFFFFFFFFFFFFFFFFFFFFF AND PUSH20 0xFFFFFFFFFFFFFFFFFFFFFFFFFFFFFFFFFFFFFFFF AND DUP2 MSTORE PUSH1 0x20 ADD SWAP1 DUP2 MSTORE PUSH1 0x20 ADD PUSH1 0x0 KECCAK256 SLOAD EQ ISZERO PUSH2 0x1601 JUMPI PUSH1 0x40 MLOAD PUSH32 0x8C379A000000000000000000000000000000000000000000000000000000000 DUP2 MSTORE PUSH1 0x4 ADD PUSH2 0x15F8 SWAP1 PUSH2 0x512E JUMP JUMPDEST PUSH1 0x40 MLOAD DUP1 SWAP2 SUB SWAP1 REVERT JUMPDEST PUSH1 0x9 PUSH1 0x0 DUP2 SLOAD DUP2 LT PUSH2 0x1616 JUMPI PUSH2 0x1615 PUSH2 0x5608 JUMP JUMPDEST JUMPDEST SWAP1 PUSH1 0x0 MSTORE PUSH1 0x20 PUSH1 0x0 KECCAK256 ADD SLOAD CALLVALUE LT ISZERO PUSH2 0x1663 JUMPI PUSH1 0x40 MLOAD PUSH32 0x8C379A000000000000000000000000000000000000000000000000000000000 DUP2 MSTORE PUSH1 0x4 ADD PUSH2 0x165A SWAP1 PUSH2 0x514E JUMP JUMPDEST PUSH1 0x40 MLOAD DUP1 SWAP2 SUB SWAP1 REVERT JUMPDEST PUSH1 0x0 PUSH2 0x166E DUP4 PUSH2 0xAD1 JUMP JUMPDEST SWAP1 POP PUSH2 0x167A DUP4 DUP3 PUSH2 0x2C2A JUMP JUMPDEST PUSH1 0x1 DUP2 EQ PUSH2 0x168E JUMPI PUSH2 0x168D DUP4 PUSH1 0x1 PUSH2 0x2C2A JUMP JUMPDEST JUMPDEST PUSH2 0x1698 DUP4 DUP3 PUSH2 0x240B JUMP JUMPDEST POP POP POP JUMP JUMPDEST PUSH1 0x0 PUSH1 0x3 PUSH1 0x14 SWAP1 SLOAD SWAP1 PUSH2 0x100 EXP SWAP1 DIV PUSH1 0xFF AND SWAP1 POP SWAP1 JUMP JUMPDEST PUSH2 0x16BC PUSH2 0x204D JUMP JUMPDEST PUSH20 0xFFFFFFFFFFFFFFFFFFFFFFFFFFFFFFFFFFFFFFFF AND DUP4 PUSH20 0xFFFFFFFFFFFFFFFFFFFFFFFFFFFFFFFFFFFFFFFF AND EQ DUP1 PUSH2 0x1702 JUMPI POP PUSH2 0x1701 DUP4 PUSH2 0x16FC PUSH2 0x204D JUMP JUMPDEST PUSH2 0x1D19 JUMP JUMPDEST JUMPDEST PUSH2 0x1741 JUMPI PUSH1 0x40 MLOAD PUSH32 0x8C379A000000000000000000000000000000000000000000000000000000000 DUP2 MSTORE PUSH1 0x4 ADD PUSH2 0x1738 SWAP1 PUSH2 0x4FE4 JUMP JUMPDEST PUSH1 0x40 MLOAD DUP1 SWAP2 SUB SWAP1 REVERT JUMPDEST PUSH2 0x174C DUP4 DUP4 DUP4 PUSH2 0x275B JUMP JUMPDEST POP POP POP JUMP JUMPDEST PUSH2 0x1759 PUSH2 0x204D JUMP JUMPDEST PUSH20 0xFFFFFFFFFFFFFFFFFFFFFFFFFFFFFFFFFFFFFFFF AND PUSH2 0x1777 PUSH2 0x1A97 JUMP JUMPDEST PUSH20 0xFFFFFFFFFFFFFFFFFFFFFFFFFFFFFFFFFFFFFFFF AND EQ PUSH2 0x17CD JUMPI PUSH1 0x40 MLOAD PUSH32 0x8C379A000000000000000000000000000000000000000000000000000000000 DUP2 MSTORE PUSH1 0x4 ADD PUSH2 0x17C4 SWAP1 PUSH2 0x510E JUMP JUMPDEST PUSH1 0x40 MLOAD DUP1 SWAP2 SUB SWAP1 REVERT JUMPDEST PUSH2 0x17D7 PUSH1 0x0 PUSH2 0x2EC9 JUMP JUMPDEST JUMP JUMPDEST PUSH2 0x17E4 CALLER DUP4 DUP4 PUSH2 0x275B JUMP JUMPDEST POP POP JUMP JUMPDEST PUSH2 0x17F0 PUSH2 0x204D JUMP JUMPDEST PUSH20 0xFFFFFFFFFFFFFFFFFFFFFFFFFFFFFFFFFFFFFFFF AND PUSH2 0x180E PUSH2 0x1A97 JUMP JUMPDEST PUSH20 0xFFFFFFFFFFFFFFFFFFFFFFFFFFFFFFFFFFFFFFFF AND EQ PUSH2 0x1864 JUMPI PUSH1 0x40 MLOAD PUSH32 0x8C379A000000000000000000000000000000000000000000000000000000000 DUP2 MSTORE PUSH1 0x4 ADD PUSH2 0x185B SWAP1 PUSH2 0x510E JUMP JUMPDEST PUSH1 0x40 MLOAD DUP1 SWAP2 SUB SWAP1 REVERT JUMPDEST PUSH2 0x186C PUSH2 0x2F8F JUMP JUMPDEST JUMP JUMPDEST PUSH2 0x1876 PUSH2 0x204D JUMP JUMPDEST PUSH20 0xFFFFFFFFFFFFFFFFFFFFFFFFFFFFFFFFFFFFFFFF AND PUSH2 0x1894 PUSH2 0x1A97 JUMP JUMPDEST PUSH20 0xFFFFFFFFFFFFFFFFFFFFFFFFFFFFFFFFFFFFFFFF AND EQ PUSH2 0x18EA JUMPI PUSH1 0x40 MLOAD PUSH32 0x8C379A000000000000000000000000000000000000000000000000000000000 DUP2 MSTORE PUSH1 0x4 ADD PUSH2 0x18E1 SWAP1 PUSH2 0x510E JUMP JUMPDEST PUSH1 0x40 MLOAD DUP1 SWAP2 SUB SWAP1 REVERT JUMPDEST CALLER PUSH20 0xFFFFFFFFFFFFFFFFFFFFFFFFFFFFFFFFFFFFFFFF AND PUSH2 0x8FC SELFBALANCE SWAP1 DUP2 ISZERO MUL SWAP1 PUSH1 0x40 MLOAD PUSH1 0x0 PUSH1 0x40 MLOAD DUP1 DUP4 SUB DUP2 DUP6 DUP9 DUP9 CALL SWAP4 POP POP POP POP ISZERO DUP1 ISZERO PUSH2 0x1930 JUMPI RETURNDATASIZE PUSH1 0x0 DUP1 RETURNDATACOPY RETURNDATASIZE PUSH1 0x0 REVERT JUMPDEST POP JUMP JUMPDEST PUSH2 0x193B PUSH2 0x204D JUMP JUMPDEST PUSH20 0xFFFFFFFFFFFFFFFFFFFFFFFFFFFFFFFFFFFFFFFF AND PUSH2 0x1959 PUSH2 0x1A97 JUMP JUMPDEST PUSH20 0xFFFFFFFFFFFFFFFFFFFFFFFFFFFFFFFFFFFFFFFF AND EQ PUSH2 0x19AF JUMPI PUSH1 0x40 MLOAD PUSH32 0x8C379A000000000000000000000000000000000000000000000000000000000 DUP2 MSTORE PUSH1 0x4 ADD PUSH2 0x19A6 SWAP1 PUSH2 0x510E JUMP JUMPDEST PUSH1 0x40 MLOAD DUP1 SWAP2 SUB SWAP1 REVERT JUMPDEST DUP1 PUSH1 0xB PUSH1 0x0 DUP5 DUP2 MSTORE PUSH1 0x20 ADD SWAP1 DUP2 MSTORE PUSH1 0x20 ADD PUSH1 0x0 KECCAK256 SWAP1 DUP1 MLOAD SWAP1 PUSH1 0x20 ADD SWAP1 PUSH2 0x19D6 SWAP3 SWAP2 SWAP1 PUSH2 0x3E1F JUMP JUMPDEST POP DUP2 PUSH32 0x6BB7FF708619BA0610CBA295A58592E0451DEE2622938C8755667688DAF3529B DUP3 PUSH1 0x40 MLOAD PUSH2 0x1A07 SWAP2 SWAP1 PUSH2 0x4DE4 JUMP JUMPDEST PUSH1 0x40 MLOAD DUP1 SWAP2 SUB SWAP1 LOG2 POP POP JUMP JUMPDEST PUSH1 0x0 PUSH2 0x1A1D PUSH2 0x204D JUMP JUMPDEST PUSH20 0xFFFFFFFFFFFFFFFFFFFFFFFFFFFFFFFFFFFFFFFF AND PUSH2 0x1A3B PUSH2 0x1A97 JUMP JUMPDEST PUSH20 0xFFFFFFFFFFFFFFFFFFFFFFFFFFFFFFFFFFFFFFFF AND EQ PUSH2 0x1A91 JUMPI PUSH1 0x40 MLOAD PUSH32 0x8C379A000000000000000000000000000000000000000000000000000000000 DUP2 MSTORE PUSH1 0x4 ADD PUSH2 0x1A88 SWAP1 PUSH2 0x510E JUMP JUMPDEST PUSH1 0x40 MLOAD DUP1 SWAP2 SUB SWAP1 REVERT JUMPDEST SELFBALANCE SWAP1 POP SWAP1 JUMP JUMPDEST PUSH1 0x0 PUSH1 0x3 PUSH1 0x0 SWAP1 SLOAD SWAP1 PUSH2 0x100 EXP SWAP1 DIV PUSH20 0xFFFFFFFFFFFFFFFFFFFFFFFFFFFFFFFFFFFFFFFF AND SWAP1 POP SWAP1 JUMP JUMPDEST PUSH1 0x6 DUP1 SLOAD PUSH2 0x1ACE SWAP1 PUSH2 0x54FE JUMP JUMPDEST DUP1 PUSH1 0x1F ADD PUSH1 0x20 DUP1 SWAP2 DIV MUL PUSH1 0x20 ADD PUSH1 0x40 MLOAD SWAP1 DUP2 ADD PUSH1 0x40 MSTORE DUP1 SWAP3 SWAP2 SWAP1 DUP2 DUP2 MSTORE PUSH1 0x20 ADD DUP3 DUP1 SLOAD PUSH2 0x1AFA SWAP1 PUSH2 0x54FE JUMP JUMPDEST DUP1 ISZERO PUSH2 0x1B47 JUMPI DUP1 PUSH1 0x1F LT PUSH2 0x1B1C JUMPI PUSH2 0x100 DUP1 DUP4 SLOAD DIV MUL DUP4 MSTORE SWAP2 PUSH1 0x20 ADD SWAP2 PUSH2 0x1B47 JUMP JUMPDEST DUP3 ADD SWAP2 SWAP1 PUSH1 0x0 MSTORE PUSH1 0x20 PUSH1 0x0 KECCAK256 SWAP1 JUMPDEST DUP2 SLOAD DUP2 MSTORE SWAP1 PUSH1 0x1 ADD SWAP1 PUSH1 0x20 ADD DUP1 DUP4 GT PUSH2 0x1B2A JUMPI DUP3 SWAP1 SUB PUSH1 0x1F AND DUP3 ADD SWAP2 JUMPDEST POP POP POP POP POP DUP2 JUMP JUMPDEST PUSH1 0xC PUSH1 0x20 MSTORE DUP1 PUSH1 0x0 MSTORE PUSH1 0x40 PUSH1 0x0 KECCAK256 PUSH1 0x0 SWAP2 POP SWAP1 POP SLOAD DUP2 JUMP JUMPDEST PUSH2 0x1B79 PUSH2 0x1B72 PUSH2 0x204D JUMP JUMPDEST DUP4 DUP4 PUSH2 0x3032 JUMP JUMPDEST POP POP JUMP JUMPDEST PUSH1 0x0 PUSH1 0xA PUSH1 0x1 DUP4 PUSH2 0x1B8E SWAP2 SWAP1 PUSH2 0x53D8 JUMP JUMPDEST DUP2 SLOAD DUP2 LT PUSH2 0x1B9F JUMPI PUSH2 0x1B9E PUSH2 0x5608 JUMP JUMPDEST JUMPDEST SWAP1 PUSH1 0x0 MSTORE PUSH1 0x20 PUSH1 0x0 KECCAK256 ADD SLOAD SWAP1 POP SWAP2 SWAP1 POP JUMP JUMPDEST PUSH2 0x1BBC CALLER DUP4 DUP4 PUSH2 0x319F JUMP JUMPDEST POP POP JUMP JUMPDEST PUSH1 0x0 PUSH1 0x4 PUSH1 0x0 DUP4 DUP2 MSTORE PUSH1 0x20 ADD SWAP1 DUP2 MSTORE PUSH1 0x20 ADD PUSH1 0x0 KECCAK256 SLOAD SWAP1 POP SWAP2 SWAP1 POP JUMP JUMPDEST PUSH1 0xB PUSH1 0x20 MSTORE DUP1 PUSH1 0x0 MSTORE PUSH1 0x40 PUSH1 0x0 KECCAK256 PUSH1 0x0 SWAP2 POP SWAP1 POP DUP1 SLOAD PUSH2 0x1BFC SWAP1 PUSH2 0x54FE JUMP JUMPDEST DUP1 PUSH1 0x1F ADD PUSH1 0x20 DUP1 SWAP2 DIV MUL PUSH1 0x20 ADD PUSH1 0x40 MLOAD SWAP1 DUP2 ADD PUSH1 0x40 MSTORE DUP1 SWAP3 SWAP2 SWAP1 DUP2 DUP2 MSTORE PUSH1 0x20 ADD DUP3 DUP1 SLOAD PUSH2 0x1C28 SWAP1 PUSH2 0x54FE JUMP JUMPDEST DUP1 ISZERO PUSH2 0x1C75 JUMPI DUP1 PUSH1 0x1F LT PUSH2 0x1C4A JUMPI PUSH2 0x100 DUP1 DUP4 SLOAD DIV MUL DUP4 MSTORE SWAP2 PUSH1 0x20 ADD SWAP2 PUSH2 0x1C75 JUMP JUMPDEST DUP3 ADD SWAP2 SWAP1 PUSH1 0x0 MSTORE PUSH1 0x20 PUSH1 0x0 KECCAK256 SWAP1 JUMPDEST DUP2 SLOAD DUP2 MSTORE SWAP1 PUSH1 0x1 ADD SWAP1 PUSH1 0x20 ADD DUP1 DUP4 GT PUSH2 0x1C58 JUMPI DUP3 SWAP1 SUB PUSH1 0x1F AND DUP3 ADD SWAP2 JUMPDEST POP POP POP POP POP DUP2 JUMP JUMPDEST PUSH2 0x1C85 PUSH2 0x204D JUMP JUMPDEST PUSH20 0xFFFFFFFFFFFFFFFFFFFFFFFFFFFFFFFFFFFFFFFF AND PUSH2 0x1CA3 PUSH2 0x1A97 JUMP JUMPDEST PUSH20 0xFFFFFFFFFFFFFFFFFFFFFFFFFFFFFFFFFFFFFFFF AND EQ PUSH2 0x1CF9 JUMPI PUSH1 0x40 MLOAD PUSH32 0x8C379A000000000000000000000000000000000000000000000000000000000 DUP2 MSTORE PUSH1 0x4 ADD PUSH2 0x1CF0 SWAP1 PUSH2 0x510E JUMP JUMPDEST PUSH1 0x40 MLOAD DUP1 SWAP2 SUB SWAP1 REVERT JUMPDEST PUSH2 0x1D14 DUP4 DUP4 DUP4 PUSH1 0x40 MLOAD DUP1 PUSH1 0x20 ADD PUSH1 0x40 MSTORE DUP1 PUSH1 0x0 DUP2 MSTORE POP PUSH2 0x2A0C JUMP JUMPDEST POP POP POP JUMP JUMPDEST PUSH1 0x0 PUSH1 0x1 PUSH1 0x0 DUP5 PUSH20 0xFFFFFFFFFFFFFFFFFFFFFFFFFFFFFFFFFFFFFFFF AND PUSH20 0xFFFFFFFFFFFFFFFFFFFFFFFFFFFFFFFFFFFFFFFF AND DUP2 MSTORE PUSH1 0x20 ADD SWAP1 DUP2 MSTORE PUSH1 0x20 ADD PUSH1 0x0 KECCAK256 PUSH1 0x0 DUP4 PUSH20 0xFFFFFFFFFFFFFFFFFFFFFFFFFFFFFFFFFFFFFFFF AND PUSH20 0xFFFFFFFFFFFFFFFFFFFFFFFFFFFFFFFFFFFFFFFF AND DUP2 MSTORE PUSH1 0x20 ADD SWAP1 DUP2 MSTORE PUSH1 0x20 ADD PUSH1 0x0 KECCAK256 PUSH1 0x0 SWAP1 SLOAD SWAP1 PUSH2 0x100 EXP SWAP1 DIV PUSH1 0xFF AND SWAP1 POP SWAP3 SWAP2 POP POP JUMP JUMPDEST PUSH2 0x1DB5 PUSH2 0x204D JUMP JUMPDEST PUSH20 0xFFFFFFFFFFFFFFFFFFFFFFFFFFFFFFFFFFFFFFFF AND DUP6 PUSH20 0xFFFFFFFFFFFFFFFFFFFFFFFFFFFFFFFFFFFFFFFF AND EQ DUP1 PUSH2 0x1DFB JUMPI POP PUSH2 0x1DFA DUP6 PUSH2 0x1DF5 PUSH2 0x204D JUMP JUMPDEST PUSH2 0x1D19 JUMP JUMPDEST JUMPDEST PUSH2 0x1E3A JUMPI PUSH1 0x40 MLOAD PUSH32 0x8C379A000000000000000000000000000000000000000000000000000000000 DUP2 MSTORE PUSH1 0x4 ADD PUSH2 0x1E31 SWAP1 PUSH2 0x4FE4 JUMP JUMPDEST PUSH1 0x40 MLOAD DUP1 SWAP2 SUB SWAP1 REVERT JUMPDEST PUSH2 0x1E47 DUP6 DUP6 DUP6 DUP6 DUP6 PUSH2 0x33BC JUMP JUMPDEST POP POP POP POP POP JUMP JUMPDEST PUSH2 0x1E56 PUSH2 0x204D JUMP JUMPDEST PUSH20 0xFFFFFFFFFFFFFFFFFFFFFFFFFFFFFFFFFFFFFFFF AND PUSH2 0x1E74 PUSH2 0x1A97 JUMP JUMPDEST PUSH20 0xFFFFFFFFFFFFFFFFFFFFFFFFFFFFFFFFFFFFFFFF AND EQ PUSH2 0x1ECA JUMPI PUSH1 0x40 MLOAD PUSH32 0x8C379A000000000000000000000000000000000000000000000000000000000 DUP2 MSTORE PUSH1 0x4 ADD PUSH2 0x1EC1 SWAP1 PUSH2 0x510E JUMP JUMPDEST PUSH1 0x40 MLOAD DUP1 SWAP2 SUB SWAP1 REVERT JUMPDEST PUSH1 0x0 PUSH20 0xFFFFFFFFFFFFFFFFFFFFFFFFFFFFFFFFFFFFFFFF AND DUP2 PUSH20 0xFFFFFFFFFFFFFFFFFFFFFFFFFFFFFFFFFFFFFFFF AND EQ ISZERO PUSH2 0x1F3A JUMPI PUSH1 0x40 MLOAD PUSH32 0x8C379A000000000000000000000000000000000000000000000000000000000 DUP2 MSTORE PUSH1 0x4 ADD PUSH2 0x1F31 SWAP1 PUSH2 0x4F10 JUMP JUMPDEST PUSH1 0x40 MLOAD DUP1 SWAP2 SUB SWAP1 REVERT JUMPDEST PUSH2 0x1F43 DUP2 PUSH2 0x2EC9 JUMP JUMPDEST POP JUMP JUMPDEST PUSH2 0x1F4E PUSH2 0x204D JUMP JUMPDEST PUSH20 0xFFFFFFFFFFFFFFFFFFFFFFFFFFFFFFFFFFFFFFFF AND DUP4 PUSH20 0xFFFFFFFFFFFFFFFFFFFFFFFFFFFFFFFFFFFFFFFF AND EQ DUP1 PUSH2 0x1F94 JUMPI POP PUSH2 0x1F93 DUP4 PUSH2 0x1F8E PUSH2 0x204D JUMP JUMPDEST PUSH2 0x1D19 JUMP JUMPDEST JUMPDEST PUSH2 0x1FD3 JUMPI PUSH1 0x40 MLOAD PUSH32 0x8C379A000000000000000000000000000000000000000000000000000000000 DUP2 MSTORE PUSH1 0x4 ADD PUSH2 0x1FCA SWAP1 PUSH2 0x4FE4 JUMP JUMPDEST PUSH1 0x40 MLOAD DUP1 SWAP2 SUB SWAP1 REVERT JUMPDEST PUSH2 0x1FDE DUP4 DUP4 DUP4 PUSH2 0x319F JUMP JUMPDEST POP POP POP JUMP JUMPDEST PUSH1 0x0 PUSH32 0x1FFC9A700000000000000000000000000000000000000000000000000000000 PUSH28 0xFFFFFFFFFFFFFFFFFFFFFFFFFFFFFFFFFFFFFFFFFFFFFFFFFFFFFFFF NOT AND DUP3 PUSH28 0xFFFFFFFFFFFFFFFFFFFFFFFFFFFFFFFFFFFFFFFFFFFFFFFFFFFFFFFF NOT AND EQ SWAP1 POP SWAP2 SWAP1 POP JUMP JUMPDEST PUSH1 0x0 CALLER SWAP1 POP SWAP1 JUMP JUMPDEST DUP2 MLOAD DUP4 MLOAD EQ PUSH2 0x2099 JUMPI PUSH1 0x40 MLOAD PUSH32 0x8C379A000000000000000000000000000000000000000000000000000000000 DUP2 MSTORE PUSH1 0x4 ADD PUSH2 0x2090 SWAP1 PUSH2 0x51AE JUMP JUMPDEST PUSH1 0x40 MLOAD DUP1 SWAP2 SUB SWAP1 REVERT JUMPDEST PUSH1 0x0 PUSH20 0xFFFFFFFFFFFFFFFFFFFFFFFFFFFFFFFFFFFFFFFF AND DUP5 PUSH20 0xFFFFFFFFFFFFFFFFFFFFFFFFFFFFFFFFFFFFFFFF AND EQ ISZERO PUSH2 0x2109 JUMPI PUSH1 0x40 MLOAD PUSH32 0x8C379A000000000000000000000000000000000000000000000000000000000 DUP2 MSTORE PUSH1 0x4 ADD PUSH2 0x2100 SWAP1 PUSH2 0x5044 JUMP JUMPDEST PUSH1 0x40 MLOAD DUP1 SWAP2 SUB SWAP1 REVERT JUMPDEST PUSH1 0x0 PUSH2 0x2113 PUSH2 0x204D JUMP JUMPDEST SWAP1 POP PUSH2 0x2123 DUP2 DUP8 DUP8 DUP8 DUP8 DUP8 PUSH2 0x363E JUMP JUMPDEST PUSH1 0x0 JUMPDEST DUP5 MLOAD DUP2 LT ISZERO PUSH2 0x22D4 JUMPI PUSH1 0x0 DUP6 DUP3 DUP2 MLOAD DUP2 LT PUSH2 0x2144 JUMPI PUSH2 0x2143 PUSH2 0x5608 JUMP JUMPDEST JUMPDEST PUSH1 0x20 MUL PUSH1 0x20 ADD ADD MLOAD SWAP1 POP PUSH1 0x0 DUP6 DUP4 DUP2 MLOAD DUP2 LT PUSH2 0x2163 JUMPI PUSH2 0x2162 PUSH2 0x5608 JUMP JUMPDEST JUMPDEST PUSH1 0x20 MUL PUSH1 0x20 ADD ADD MLOAD SWAP1 POP PUSH1 0x0 DUP1 PUSH1 0x0 DUP5 DUP2 MSTORE PUSH1 0x20 ADD SWAP1 DUP2 MSTORE PUSH1 0x20 ADD PUSH1 0x0 KECCAK256 PUSH1 0x0 DUP12 PUSH20 0xFFFFFFFFFFFFFFFFFFFFFFFFFFFFFFFFFFFFFFFF AND PUSH20 0xFFFFFFFFFFFFFFFFFFFFFFFFFFFFFFFFFFFFFFFF AND DUP2 MSTORE PUSH1 0x20 ADD SWAP1 DUP2 MSTORE PUSH1 0x20 ADD PUSH1 0x0 KECCAK256 SLOAD SWAP1 POP DUP2 DUP2 LT ISZERO PUSH2 0x2204 JUMPI PUSH1 0x40 MLOAD PUSH32 0x8C379A000000000000000000000000000000000000000000000000000000000 DUP2 MSTORE PUSH1 0x4 ADD PUSH2 0x21FB SWAP1 PUSH2 0x50A4 JUMP JUMPDEST PUSH1 0x40 MLOAD DUP1 SWAP2 SUB SWAP1 REVERT JUMPDEST DUP2 DUP2 SUB PUSH1 0x0 DUP1 DUP6 DUP2 MSTORE PUSH1 0x20 ADD SWAP1 DUP2 MSTORE PUSH1 0x20 ADD PUSH1 0x0 KECCAK256 PUSH1 0x0 DUP13 PUSH20 0xFFFFFFFFFFFFFFFFFFFFFFFFFFFFFFFFFFFFFFFF AND PUSH20 0xFFFFFFFFFFFFFFFFFFFFFFFFFFFFFFFFFFFFFFFF AND DUP2 MSTORE PUSH1 0x20 ADD SWAP1 DUP2 MSTORE PUSH1 0x20 ADD PUSH1 0x0 KECCAK256 DUP2 SWAP1 SSTORE POP DUP2 PUSH1 0x0 DUP1 DUP6 DUP2 MSTORE PUSH1 0x20 ADD SWAP1 DUP2 MSTORE PUSH1 0x20 ADD PUSH1 0x0 KECCAK256 PUSH1 0x0 DUP12 PUSH20 0xFFFFFFFFFFFFFFFFFFFFFFFFFFFFFFFFFFFFFFFF AND PUSH20 0xFFFFFFFFFFFFFFFFFFFFFFFFFFFFFFFFFFFFFFFF AND DUP2 MSTORE PUSH1 0x20 ADD SWAP1 DUP2 MSTORE PUSH1 0x20 ADD PUSH1 0x0 KECCAK256 PUSH1 0x0 DUP3 DUP3 SLOAD PUSH2 0x22B9 SWAP2 SWAP1 PUSH2 0x5382 JUMP JUMPDEST SWAP3 POP POP DUP2 SWAP1 SSTORE POP POP POP POP DUP1 PUSH2 0x22CD SWAP1 PUSH2 0x5561 JUMP JUMPDEST SWAP1 POP PUSH2 0x2126 JUMP JUMPDEST POP DUP5 PUSH20 0xFFFFFFFFFFFFFFFFFFFFFFFFFFFFFFFFFFFFFFFF AND DUP7 PUSH20 0xFFFFFFFFFFFFFFFFFFFFFFFFFFFFFFFFFFFFFFFF AND DUP3 PUSH20 0xFFFFFFFFFFFFFFFFFFFFFFFFFFFFFFFFFFFFFFFF AND PUSH32 0x4A39DC06D4C0DBC64B70AF90FD698A233A518AA5D07E595D983B8C0526C8F7FB DUP8 DUP8 PUSH1 0x40 MLOAD PUSH2 0x234B SWAP3 SWAP2 SWAP1 PUSH2 0x4D92 JUMP JUMPDEST PUSH1 0x40 MLOAD DUP1 SWAP2 SUB SWAP1 LOG4 PUSH2 0x2361 DUP2 DUP8 DUP8 DUP8 DUP8 DUP8 PUSH2 0x369C JUMP JUMPDEST POP POP POP POP POP POP JUMP JUMPDEST PUSH2 0x2371 PUSH2 0x169D JUMP JUMPDEST PUSH2 0x23B0 JUMPI PUSH1 0x40 MLOAD PUSH32 0x8C379A000000000000000000000000000000000000000000000000000000000 DUP2 MSTORE PUSH1 0x4 ADD PUSH2 0x23A7 SWAP1 PUSH2 0x4E66 JUMP JUMPDEST PUSH1 0x40 MLOAD DUP1 SWAP2 SUB SWAP1 REVERT JUMPDEST PUSH1 0x0 PUSH1 0x3 PUSH1 0x14 PUSH2 0x100 EXP DUP2 SLOAD DUP2 PUSH1 0xFF MUL NOT AND SWAP1 DUP4 ISZERO ISZERO MUL OR SWAP1 SSTORE POP PUSH32 0x5DB9EE0A495BF2E6FF9C91A7834C1BA4FDD244A5E8AA4E537BD38AEAE4B073AA PUSH2 0x23F4 PUSH2 0x204D JUMP JUMPDEST PUSH1 0x40 MLOAD PUSH2 0x2401 SWAP2 SWAP1 PUSH2 0x4C93 JUMP JUMPDEST PUSH1 0x40 MLOAD DUP1 SWAP2 SUB SWAP1 LOG1 JUMP JUMPDEST PUSH2 0x2413 PUSH2 0x204D JUMP JUMPDEST PUSH20 0xFFFFFFFFFFFFFFFFFFFFFFFFFFFFFFFFFFFFFFFF AND PUSH2 0x2431 PUSH2 0x1A97 JUMP JUMPDEST PUSH20 0xFFFFFFFFFFFFFFFFFFFFFFFFFFFFFFFFFFFFFFFF AND EQ PUSH2 0x2487 JUMPI PUSH1 0x40 MLOAD PUSH32 0x8C379A000000000000000000000000000000000000000000000000000000000 DUP2 MSTORE PUSH1 0x4 ADD PUSH2 0x247E SWAP1 PUSH2 0x510E JUMP JUMPDEST PUSH1 0x40 MLOAD DUP1 SWAP2 SUB SWAP1 REVERT JUMPDEST DUP1 PUSH32 0xA2455EC11F160D321516C021994881E7678C0B5870CD7AAE50107098770E2C28 CALLER PUSH1 0x0 PUSH1 0xC PUSH1 0x0 CALLER PUSH20 0xFFFFFFFFFFFFFFFFFFFFFFFFFFFFFFFFFFFFFFFF AND PUSH20 0xFFFFFFFFFFFFFFFFFFFFFFFFFFFFFFFFFFFFFFFF AND DUP2 MSTORE PUSH1 0x20 ADD SWAP1 DUP2 MSTORE PUSH1 0x20 ADD PUSH1 0x0 KECCAK256 SLOAD PUSH1 0x40 MLOAD PUSH2 0x24FB SWAP4 SWAP3 SWAP2 SWAP1 PUSH2 0x4E86 JUMP JUMPDEST PUSH1 0x40 MLOAD DUP1 SWAP2 SUB SWAP1 LOG1 PUSH1 0x7 DUP1 SLOAD SWAP1 POP DUP2 GT ISZERO DUP1 ISZERO PUSH2 0x2518 JUMPI POP PUSH1 0x0 DUP2 GT JUMPDEST PUSH2 0x2557 JUMPI PUSH1 0x40 MLOAD PUSH32 0x8C379A000000000000000000000000000000000000000000000000000000000 DUP2 MSTORE PUSH1 0x4 ADD PUSH2 0x254E SWAP1 PUSH2 0x4E26 JUMP JUMPDEST PUSH1 0x40 MLOAD DUP1 SWAP2 SUB SWAP1 REVERT JUMPDEST PUSH1 0x0 PUSH1 0xC PUSH1 0x0 DUP6 PUSH20 0xFFFFFFFFFFFFFFFFFFFFFFFFFFFFFFFFFFFFFFFF AND PUSH20 0xFFFFFFFFFFFFFFFFFFFFFFFFFFFFFFFFFFFFFFFF AND DUP2 MSTORE PUSH1 0x20 ADD SWAP1 DUP2 MSTORE PUSH1 0x20 ADD PUSH1 0x0 KECCAK256 SLOAD EQ PUSH2 0x26B1 JUMPI PUSH1 0x1 DUP3 EQ ISZERO PUSH2 0x25F1 JUMPI PUSH1 0x0 PUSH1 0xC PUSH1 0x0 DUP6 PUSH20 0xFFFFFFFFFFFFFFFFFFFFFFFFFFFFFFFFFFFFFFFF AND PUSH20 0xFFFFFFFFFFFFFFFFFFFFFFFFFFFFFFFFFFFFFFFF AND DUP2 MSTORE PUSH1 0x20 ADD SWAP1 DUP2 MSTORE PUSH1 0x20 ADD PUSH1 0x0 KECCAK256 DUP2 SWAP1 SSTORE POP PUSH2 0x2677 JUMP JUMPDEST PUSH1 0x1 PUSH1 0xC PUSH1 0x0 DUP6 PUSH20 0xFFFFFFFFFFFFFFFFFFFFFFFFFFFFFFFFFFFFFFFF AND PUSH20 0xFFFFFFFFFFFFFFFFFFFFFFFFFFFFFFFFFFFFFFFF AND DUP2 MSTORE PUSH1 0x20 ADD SWAP1 DUP2 MSTORE PUSH1 0x20 ADD PUSH1 0x0 KECCAK256 DUP2 SWAP1 SSTORE POP PUSH1 0xA PUSH1 0x1 DUP4 PUSH2 0x2645 SWAP2 SWAP1 PUSH2 0x53D8 JUMP JUMPDEST DUP2 SLOAD DUP2 LT PUSH2 0x2656 JUMPI PUSH2 0x2655 PUSH2 0x5608 JUMP JUMPDEST JUMPDEST SWAP1 PUSH1 0x0 MSTORE PUSH1 0x20 PUSH1 0x0 KECCAK256 ADD PUSH1 0x0 DUP2 SLOAD DUP1 SWAP3 SWAP2 SWAP1 PUSH2 0x2671 SWAP1 PUSH2 0x54D4 JUMP JUMPDEST SWAP2 SWAP1 POP SSTORE POP JUMPDEST PUSH1 0xA PUSH1 0x0 DUP2 SLOAD DUP2 LT PUSH2 0x268C JUMPI PUSH2 0x268B PUSH2 0x5608 JUMP JUMPDEST JUMPDEST SWAP1 PUSH1 0x0 MSTORE PUSH1 0x20 PUSH1 0x0 KECCAK256 ADD PUSH1 0x0 DUP2 SLOAD DUP1 SWAP3 SWAP2 SWAP1 PUSH2 0x26A7 SWAP1 PUSH2 0x54D4 JUMP JUMPDEST SWAP2 SWAP1 POP SSTORE POP PUSH2 0x2756 JUMP JUMPDEST PUSH32 0xA2455EC11F160D321516C021994881E7678C0B5870CD7AAE50107098770E2C28 DUP4 PUSH1 0xA PUSH1 0x1 DUP6 PUSH2 0x26E2 SWAP2 SWAP1 PUSH2 0x53D8 JUMP JUMPDEST DUP2 SLOAD DUP2 LT PUSH2 0x26F3 JUMPI PUSH2 0x26F2 PUSH2 0x5608 JUMP JUMPDEST JUMPDEST SWAP1 PUSH1 0x0 MSTORE PUSH1 0x20 PUSH1 0x0 KECCAK256 ADD SLOAD PUSH1 0xC PUSH1 0x0 DUP8 PUSH20 0xFFFFFFFFFFFFFFFFFFFFFFFFFFFFFFFFFFFFFFFF AND PUSH20 0xFFFFFFFFFFFFFFFFFFFFFFFFFFFFFFFFFFFFFFFF AND DUP2 MSTORE PUSH1 0x20 ADD SWAP1 DUP2 MSTORE PUSH1 0x20 ADD PUSH1 0x0 KECCAK256 SLOAD PUSH1 0x40 MLOAD PUSH2 0x274D SWAP4 SWAP3 SWAP2 SWAP1 PUSH2 0x50C4 JUMP JUMPDEST PUSH1 0x40 MLOAD DUP1 SWAP2 SUB SWAP1 LOG1 JUMPDEST POP POP POP JUMP JUMPDEST PUSH1 0x0 PUSH20 0xFFFFFFFFFFFFFFFFFFFFFFFFFFFFFFFFFFFFFFFF AND DUP4 PUSH20 0xFFFFFFFFFFFFFFFFFFFFFFFFFFFFFFFFFFFFFFFF AND EQ ISZERO PUSH2 0x27CB JUMPI PUSH1 0x40 MLOAD PUSH32 0x8C379A000000000000000000000000000000000000000000000000000000000 DUP2 MSTORE PUSH1 0x4 ADD PUSH2 0x27C2 SWAP1 PUSH2 0x5084 JUMP JUMPDEST PUSH1 0x40 MLOAD DUP1 SWAP2 SUB SWAP1 REVERT JUMPDEST DUP1 MLOAD DUP3 MLOAD EQ PUSH2 0x280F JUMPI PUSH1 0x40 MLOAD PUSH32 0x8C379A000000000000000000000000000000000000000000000000000000000 DUP2 MSTORE PUSH1 0x4 ADD PUSH2 0x2806 SWAP1 PUSH2 0x51AE JUMP JUMPDEST PUSH1 0x40 MLOAD DUP1 SWAP2 SUB SWAP1 REVERT JUMPDEST PUSH1 0x0 PUSH2 0x2819 PUSH2 0x204D JUMP JUMPDEST SWAP1 POP PUSH2 0x2839 DUP2 DUP6 PUSH1 0x0 DUP7 DUP7 PUSH1 0x40 MLOAD DUP1 PUSH1 0x20 ADD PUSH1 0x40 MSTORE DUP1 PUSH1 0x0 DUP2 MSTORE POP PUSH2 0x363E JUMP JUMPDEST PUSH1 0x0 JUMPDEST DUP4 MLOAD DUP2 LT ISZERO PUSH2 0x2986 JUMPI PUSH1 0x0 DUP5 DUP3 DUP2 MLOAD DUP2 LT PUSH2 0x285A JUMPI PUSH2 0x2859 PUSH2 0x5608 JUMP JUMPDEST JUMPDEST PUSH1 0x20 MUL PUSH1 0x20 ADD ADD MLOAD SWAP1 POP PUSH1 0x0 DUP5 DUP4 DUP2 MLOAD DUP2 LT PUSH2 0x2879 JUMPI PUSH2 0x2878 PUSH2 0x5608 JUMP JUMPDEST JUMPDEST PUSH1 0x20 MUL PUSH1 0x20 ADD ADD MLOAD SWAP1 POP PUSH1 0x0 DUP1 PUSH1 0x0 DUP5 DUP2 MSTORE PUSH1 0x20 ADD SWAP1 DUP2 MSTORE PUSH1 0x20 ADD PUSH1 0x0 KECCAK256 PUSH1 0x0 DUP10 PUSH20 0xFFFFFFFFFFFFFFFFFFFFFFFFFFFFFFFFFFFFFFFF AND PUSH20 0xFFFFFFFFFFFFFFFFFFFFFFFFFFFFFFFFFFFFFFFF AND DUP2 MSTORE PUSH1 0x20 ADD SWAP1 DUP2 MSTORE PUSH1 0x20 ADD PUSH1 0x0 KECCAK256 SLOAD SWAP1 POP DUP2 DUP2 LT ISZERO PUSH2 0x291A JUMPI PUSH1 0x40 MLOAD PUSH32 0x8C379A000000000000000000000000000000000000000000000000000000000 DUP2 MSTORE PUSH1 0x4 ADD PUSH2 0x2911 SWAP1 PUSH2 0x4F7A JUMP JUMPDEST PUSH1 0x40 MLOAD DUP1 SWAP2 SUB SWAP1 REVERT JUMPDEST DUP2 DUP2 SUB PUSH1 0x0 DUP1 DUP6 DUP2 MSTORE PUSH1 0x20 ADD SWAP1 DUP2 MSTORE PUSH1 0x20 ADD PUSH1 0x0 KECCAK256 PUSH1 0x0 DUP11 PUSH20 0xFFFFFFFFFFFFFFFFFFFFFFFFFFFFFFFFFFFFFFFF AND PUSH20 0xFFFFFFFFFFFFFFFFFFFFFFFFFFFFFFFFFFFFFFFF AND DUP2 MSTORE PUSH1 0x20 ADD SWAP1 DUP2 MSTORE PUSH1 0x20 ADD PUSH1 0x0 KECCAK256 DUP2 SWAP1 SSTORE POP POP POP POP DUP1 DUP1 PUSH2 0x297E SWAP1 PUSH2 0x5561 JUMP JUMPDEST SWAP2 POP POP PUSH2 0x283C JUMP JUMPDEST POP PUSH1 0x0 PUSH20 0xFFFFFFFFFFFFFFFFFFFFFFFFFFFFFFFFFFFFFFFF AND DUP5 PUSH20 0xFFFFFFFFFFFFFFFFFFFFFFFFFFFFFFFFFFFFFFFF AND DUP3 PUSH20 0xFFFFFFFFFFFFFFFFFFFFFFFFFFFFFFFFFFFFFFFF AND PUSH32 0x4A39DC06D4C0DBC64B70AF90FD698A233A518AA5D07E595D983B8C0526C8F7FB DUP7 DUP7 PUSH1 0x40 MLOAD PUSH2 0x29FE SWAP3 SWAP2 SWAP1 PUSH2 0x4D92 JUMP JUMPDEST PUSH1 0x40 MLOAD DUP1 SWAP2 SUB SWAP1 LOG4 POP POP POP POP JUMP JUMPDEST PUSH1 0x0 PUSH20 0xFFFFFFFFFFFFFFFFFFFFFFFFFFFFFFFFFFFFFFFF AND DUP5 PUSH20 0xFFFFFFFFFFFFFFFFFFFFFFFFFFFFFFFFFFFFFFFF AND EQ ISZERO PUSH2 0x2A7C JUMPI PUSH1 0x40 MLOAD PUSH32 0x8C379A000000000000000000000000000000000000000000000000000000000 DUP2 MSTORE PUSH1 0x4 ADD PUSH2 0x2A73 SWAP1 PUSH2 0x51CE JUMP JUMPDEST PUSH1 0x40 MLOAD DUP1 SWAP2 SUB SWAP1 REVERT JUMPDEST DUP2 MLOAD DUP4 MLOAD EQ PUSH2 0x2AC0 JUMPI PUSH1 0x40 MLOAD PUSH32 0x8C379A000000000000000000000000000000000000000000000000000000000 DUP2 MSTORE PUSH1 0x4 ADD PUSH2 0x2AB7 SWAP1 PUSH2 0x51AE JUMP JUMPDEST PUSH1 0x40 MLOAD DUP1 SWAP2 SUB SWAP1 REVERT JUMPDEST PUSH1 0x0 PUSH2 0x2ACA PUSH2 0x204D JUMP JUMPDEST SWAP1 POP PUSH2 0x2ADB DUP2 PUSH1 0x0 DUP8 DUP8 DUP8 DUP8 PUSH2 0x363E JUMP JUMPDEST PUSH1 0x0 JUMPDEST DUP5 MLOAD DUP2 LT ISZERO PUSH2 0x2B94 JUMPI DUP4 DUP2 DUP2 MLOAD DUP2 LT PUSH2 0x2AFA JUMPI PUSH2 0x2AF9 PUSH2 0x5608 JUMP JUMPDEST JUMPDEST PUSH1 0x20 MUL PUSH1 0x20 ADD ADD MLOAD PUSH1 0x0 DUP1 DUP8 DUP5 DUP2 MLOAD DUP2 LT PUSH2 0x2B18 JUMPI PUSH2 0x2B17 PUSH2 0x5608 JUMP JUMPDEST JUMPDEST PUSH1 0x20 MUL PUSH1 0x20 ADD ADD MLOAD DUP2 MSTORE PUSH1 0x20 ADD SWAP1 DUP2 MSTORE PUSH1 0x20 ADD PUSH1 0x0 KECCAK256 PUSH1 0x0 DUP9 PUSH20 0xFFFFFFFFFFFFFFFFFFFFFFFFFFFFFFFFFFFFFFFF AND PUSH20 0xFFFFFFFFFFFFFFFFFFFFFFFFFFFFFFFFFFFFFFFF AND DUP2 MSTORE PUSH1 0x20 ADD SWAP1 DUP2 MSTORE PUSH1 0x20 ADD PUSH1 0x0 KECCAK256 PUSH1 0x0 DUP3 DUP3 SLOAD PUSH2 0x2B7A SWAP2 SWAP1 PUSH2 0x5382 JUMP JUMPDEST SWAP3 POP POP DUP2 SWAP1 SSTORE POP DUP1 DUP1 PUSH2 0x2B8C SWAP1 PUSH2 0x5561 JUMP JUMPDEST SWAP2 POP POP PUSH2 0x2ADE JUMP JUMPDEST POP DUP5 PUSH20 0xFFFFFFFFFFFFFFFFFFFFFFFFFFFFFFFFFFFFFFFF AND PUSH1 0x0 PUSH20 0xFFFFFFFFFFFFFFFFFFFFFFFFFFFFFFFFFFFFFFFF AND DUP3 PUSH20 0xFFFFFFFFFFFFFFFFFFFFFFFFFFFFFFFFFFFFFFFF AND PUSH32 0x4A39DC06D4C0DBC64B70AF90FD698A233A518AA5D07E595D983B8C0526C8F7FB DUP8 DUP8 PUSH1 0x40 MLOAD PUSH2 0x2C0C SWAP3 SWAP2 SWAP1 PUSH2 0x4D92 JUMP JUMPDEST PUSH1 0x40 MLOAD DUP1 SWAP2 SUB SWAP1 LOG4 PUSH2 0x2C23 DUP2 PUSH1 0x0 DUP8 DUP8 DUP8 DUP8 PUSH2 0x369C JUMP JUMPDEST POP POP POP POP POP JUMP JUMPDEST PUSH2 0x2C32 PUSH2 0x169D JUMP JUMPDEST ISZERO PUSH2 0x2C72 JUMPI PUSH1 0x40 MLOAD PUSH32 0x8C379A000000000000000000000000000000000000000000000000000000000 DUP2 MSTORE PUSH1 0x4 ADD PUSH2 0x2C69 SWAP1 PUSH2 0x5024 JUMP JUMPDEST PUSH1 0x40 MLOAD DUP1 SWAP2 SUB SWAP1 REVERT JUMPDEST DUP2 PUSH32 0xA2455EC11F160D321516C021994881E7678C0B5870CD7AAE50107098770E2C28 CALLER PUSH1 0x0 PUSH1 0xC PUSH1 0x0 CALLER PUSH20 0xFFFFFFFFFFFFFFFFFFFFFFFFFFFFFFFFFFFFFFFF AND PUSH20 0xFFFFFFFFFFFFFFFFFFFFFFFFFFFFFFFFFFFFFFFF AND DUP2 MSTORE PUSH1 0x20 ADD SWAP1 DUP2 MSTORE PUSH1 0x20 ADD PUSH1 0x0 KECCAK256 SLOAD PUSH1 0x40 MLOAD PUSH2 0x2CE6 SWAP4 SWAP3 SWAP2 SWAP1 PUSH2 0x4F30 JUMP JUMPDEST PUSH1 0x40 MLOAD DUP1 SWAP2 SUB SWAP1 LOG1 PUSH1 0x0 PUSH1 0xC PUSH1 0x0 DUP4 PUSH20 0xFFFFFFFFFFFFFFFFFFFFFFFFFFFFFFFFFFFFFFFF AND PUSH20 0xFFFFFFFFFFFFFFFFFFFFFFFFFFFFFFFFFFFFFFFF AND DUP2 MSTORE PUSH1 0x20 ADD SWAP1 DUP2 MSTORE PUSH1 0x20 ADD PUSH1 0x0 KECCAK256 SLOAD EQ ISZERO PUSH2 0x2D71 JUMPI PUSH1 0x40 MLOAD PUSH32 0x8C379A000000000000000000000000000000000000000000000000000000000 DUP2 MSTORE PUSH1 0x4 ADD PUSH2 0x2D68 SWAP1 PUSH2 0x512E JUMP JUMPDEST PUSH1 0x40 MLOAD DUP1 SWAP2 SUB SWAP1 REVERT JUMPDEST PUSH1 0x7 DUP1 SLOAD SWAP1 POP DUP3 GT ISZERO DUP1 ISZERO PUSH2 0x2D86 JUMPI POP PUSH1 0x0 DUP3 GT JUMPDEST PUSH2 0x2DC5 JUMPI PUSH1 0x40 MLOAD PUSH32 0x8C379A000000000000000000000000000000000000000000000000000000000 DUP2 MSTORE PUSH1 0x4 ADD PUSH2 0x2DBC SWAP1 PUSH2 0x4E26 JUMP JUMPDEST PUSH1 0x40 MLOAD DUP1 SWAP2 SUB SWAP1 REVERT JUMPDEST PUSH1 0x7 PUSH1 0x1 DUP4 PUSH2 0x2DD4 SWAP2 SWAP1 PUSH2 0x53D8 JUMP JUMPDEST DUP2 SLOAD DUP2 LT PUSH2 0x2DE5 JUMPI PUSH2 0x2DE4 PUSH2 0x5608 JUMP JUMPDEST JUMPDEST SWAP1 PUSH1 0x0 MSTORE PUSH1 0x20 PUSH1 0x0 KECCAK256 ADD SLOAD PUSH1 0x1 PUSH1 0x8 PUSH1 0x1 DUP6 PUSH2 0x2E01 SWAP2 SWAP1 PUSH2 0x53D8 JUMP JUMPDEST DUP2 SLOAD DUP2 LT PUSH2 0x2E12 JUMPI PUSH2 0x2E11 PUSH2 0x5608 JUMP JUMPDEST JUMPDEST SWAP1 PUSH1 0x0 MSTORE PUSH1 0x20 PUSH1 0x0 KECCAK256 ADD SLOAD PUSH2 0x2E27 SWAP2 SWAP1 PUSH2 0x5382 JUMP JUMPDEST GT ISZERO PUSH2 0x2E68 JUMPI PUSH1 0x40 MLOAD PUSH32 0x8C379A000000000000000000000000000000000000000000000000000000000 DUP2 MSTORE PUSH1 0x4 ADD PUSH2 0x2E5F SWAP1 PUSH2 0x4ED0 JUMP JUMPDEST PUSH1 0x40 MLOAD DUP1 SWAP2 SUB SWAP1 REVERT JUMPDEST PUSH2 0x2E84 DUP4 DUP4 PUSH1 0x1 PUSH1 0x40 MLOAD DUP1 PUSH1 0x20 ADD PUSH1 0x40 MSTORE DUP1 PUSH1 0x0 DUP2 MSTORE POP PUSH2 0x3883 JUMP JUMPDEST PUSH1 0x8 PUSH1 0x1 DUP4 PUSH2 0x2E93 SWAP2 SWAP1 PUSH2 0x53D8 JUMP JUMPDEST DUP2 SLOAD DUP2 LT PUSH2 0x2EA4 JUMPI PUSH2 0x2EA3 PUSH2 0x5608 JUMP JUMPDEST JUMPDEST SWAP1 PUSH1 0x0 MSTORE PUSH1 0x20 PUSH1 0x0 KECCAK256 ADD PUSH1 0x0 DUP2 SLOAD DUP1 SWAP3 SWAP2 SWAP1 PUSH2 0x2EBF SWAP1 PUSH2 0x5561 JUMP JUMPDEST SWAP2 SWAP1 POP SSTORE POP POP POP POP JUMP JUMPDEST PUSH1 0x0 PUSH1 0x3 PUSH1 0x0 SWAP1 SLOAD SWAP1 PUSH2 0x100 EXP SWAP1 DIV PUSH20 0xFFFFFFFFFFFFFFFFFFFFFFFFFFFFFFFFFFFFFFFF AND SWAP1 POP DUP2 PUSH1 0x3 PUSH1 0x0 PUSH2 0x100 EXP DUP2 SLOAD DUP2 PUSH20 0xFFFFFFFFFFFFFFFFFFFFFFFFFFFFFFFFFFFFFFFF MUL NOT AND SWAP1 DUP4 PUSH20 0xFFFFFFFFFFFFFFFFFFFFFFFFFFFFFFFFFFFFFFFF AND MUL OR SWAP1 SSTORE POP DUP2 PUSH20 0xFFFFFFFFFFFFFFFFFFFFFFFFFFFFFFFFFFFFFFFF AND DUP2 PUSH20 0xFFFFFFFFFFFFFFFFFFFFFFFFFFFFFFFFFFFFFFFF AND PUSH32 0x8BE0079C531659141344CD1FD0A4F28419497F9722A3DAAFE3B4186F6B6457E0 PUSH1 0x40 MLOAD PUSH1 0x40 MLOAD DUP1 SWAP2 SUB SWAP1 LOG3 POP POP JUMP JUMPDEST PUSH2 0x2F97 PUSH2 0x169D JUMP JUMPDEST ISZERO PUSH2 0x2FD7 JUMPI PUSH1 0x40 MLOAD PUSH32 0x8C379A000000000000000000000000000000000000000000000000000000000 DUP2 MSTORE PUSH1 0x4 ADD PUSH2 0x2FCE SWAP1 PUSH2 0x5024 JUMP JUMPDEST PUSH1 0x40 MLOAD DUP1 SWAP2 SUB SWAP1 REVERT JUMPDEST PUSH1 0x1 PUSH1 0x3 PUSH1 0x14 PUSH2 0x100 EXP DUP2 SLOAD DUP2 PUSH1 0xFF MUL NOT AND SWAP1 DUP4 ISZERO ISZERO MUL OR SWAP1 SSTORE POP PUSH32 0x62E78CEA01BEE320CD4E420270B5EA74000D11B0C9F74754EBDBFC544B05A258 PUSH2 0x301B PUSH2 0x204D JUMP JUMPDEST PUSH1 0x40 MLOAD PUSH2 0x3028 SWAP2 SWAP1 PUSH2 0x4C93 JUMP JUMPDEST PUSH1 0x40 MLOAD DUP1 SWAP2 SUB SWAP1 LOG1 JUMP JUMPDEST DUP2 PUSH20 0xFFFFFFFFFFFFFFFFFFFFFFFFFFFFFFFFFFFFFFFF AND DUP4 PUSH20 0xFFFFFFFFFFFFFFFFFFFFFFFFFFFFFFFFFFFFFFFF AND EQ ISZERO PUSH2 0x30A1 JUMPI PUSH1 0x40 MLOAD PUSH32 0x8C379A000000000000000000000000000000000000000000000000000000000 DUP2 MSTORE PUSH1 0x4 ADD PUSH2 0x3098 SWAP1 PUSH2 0x516E JUMP JUMPDEST PUSH1 0x40 MLOAD DUP1 SWAP2 SUB SWAP1 REVERT JUMPDEST DUP1 PUSH1 0x1 PUSH1 0x0 DUP6 PUSH20 0xFFFFFFFFFFFFFFFFFFFFFFFFFFFFFFFFFFFFFFFF AND PUSH20 0xFFFFFFFFFFFFFFFFFFFFFFFFFFFFFFFFFFFFFFFF AND DUP2 MSTORE PUSH1 0x20 ADD SWAP1 DUP2 MSTORE PUSH1 0x20 ADD PUSH1 0x0 KECCAK256 PUSH1 0x0 DUP5 PUSH20 0xFFFFFFFFFFFFFFFFFFFFFFFFFFFFFFFFFFFFFFFF AND PUSH20 0xFFFFFFFFFFFFFFFFFFFFFFFFFFFFFFFFFFFFFFFF AND DUP2 MSTORE PUSH1 0x20 ADD SWAP1 DUP2 MSTORE PUSH1 0x20 ADD PUSH1 0x0 KECCAK256 PUSH1 0x0 PUSH2 0x100 EXP DUP2 SLOAD DUP2 PUSH1 0xFF MUL NOT AND SWAP1 DUP4 ISZERO ISZERO MUL OR SWAP1 SSTORE POP DUP2 PUSH20 0xFFFFFFFFFFFFFFFFFFFFFFFFFFFFFFFFFFFFFFFF AND DUP4 PUSH20 0xFFFFFFFFFFFFFFFFFFFFFFFFFFFFFFFFFFFFFFFF AND PUSH32 0x17307EAB39AB6107E8899845AD3D59BD9653F200F220920489CA2B5937696C31 DUP4 PUSH1 0x40 MLOAD PUSH2 0x3192 SWAP2 SWAP1 PUSH2 0x4DC9 JUMP JUMPDEST PUSH1 0x40 MLOAD DUP1 SWAP2 SUB SWAP1 LOG3 POP POP POP JUMP JUMPDEST PUSH1 0x0 PUSH20 0xFFFFFFFFFFFFFFFFFFFFFFFFFFFFFFFFFFFFFFFF AND DUP4 PUSH20 0xFFFFFFFFFFFFFFFFFFFFFFFFFFFFFFFFFFFFFFFF AND EQ ISZERO PUSH2 0x320F JUMPI PUSH1 0x40 MLOAD PUSH32 0x8C379A000000000000000000000000000000000000000000000000000000000 DUP2 MSTORE PUSH1 0x4 ADD PUSH2 0x3206 SWAP1 PUSH2 0x5084 JUMP JUMPDEST PUSH1 0x40 MLOAD DUP1 SWAP2 SUB SWAP1 REVERT JUMPDEST PUSH1 0x0 PUSH2 0x3219 PUSH2 0x204D JUMP JUMPDEST SWAP1 POP PUSH2 0x3249 DUP2 DUP6 PUSH1 0x0 PUSH2 0x322B DUP8 PUSH2 0x3A19 JUMP JUMPDEST PUSH2 0x3234 DUP8 PUSH2 0x3A19 JUMP JUMPDEST PUSH1 0x40 MLOAD DUP1 PUSH1 0x20 ADD PUSH1 0x40 MSTORE DUP1 PUSH1 0x0 DUP2 MSTORE POP PUSH2 0x363E JUMP JUMPDEST PUSH1 0x0 DUP1 PUSH1 0x0 DUP6 DUP2 MSTORE PUSH1 0x20 ADD SWAP1 DUP2 MSTORE PUSH1 0x20 ADD PUSH1 0x0 KECCAK256 PUSH1 0x0 DUP7 PUSH20 0xFFFFFFFFFFFFFFFFFFFFFFFFFFFFFFFFFFFFFFFF AND PUSH20 0xFFFFFFFFFFFFFFFFFFFFFFFFFFFFFFFFFFFFFFFF AND DUP2 MSTORE PUSH1 0x20 ADD SWAP1 DUP2 MSTORE PUSH1 0x20 ADD PUSH1 0x0 KECCAK256 SLOAD SWAP1 POP DUP3 DUP2 LT ISZERO PUSH2 0x32E0 JUMPI PUSH1 0x40 MLOAD PUSH32 0x8C379A000000000000000000000000000000000000000000000000000000000 DUP2 MSTORE PUSH1 0x4 ADD PUSH2 0x32D7 SWAP1 PUSH2 0x4F7A JUMP JUMPDEST PUSH1 0x40 MLOAD DUP1 SWAP2 SUB SWAP1 REVERT JUMPDEST DUP3 DUP2 SUB PUSH1 0x0 DUP1 DUP7 DUP2 MSTORE PUSH1 0x20 ADD SWAP1 DUP2 MSTORE PUSH1 0x20 ADD PUSH1 0x0 KECCAK256 PUSH1 0x0 DUP8 PUSH20 0xFFFFFFFFFFFFFFFFFFFFFFFFFFFFFFFFFFFFFFFF AND PUSH20 0xFFFFFFFFFFFFFFFFFFFFFFFFFFFFFFFFFFFFFFFF AND DUP2 MSTORE PUSH1 0x20 ADD SWAP1 DUP2 MSTORE PUSH1 0x20 ADD PUSH1 0x0 KECCAK256 DUP2 SWAP1 SSTORE POP PUSH1 0x0 PUSH20 0xFFFFFFFFFFFFFFFFFFFFFFFFFFFFFFFFFFFFFFFF AND DUP6 PUSH20 0xFFFFFFFFFFFFFFFFFFFFFFFFFFFFFFFFFFFFFFFF AND DUP4 PUSH20 0xFFFFFFFFFFFFFFFFFFFFFFFFFFFFFFFFFFFFFFFF AND PUSH32 0xC3D58168C5AE7397731D063D5BBF3D657854427343F4C083240F7AACAA2D0F62 DUP8 DUP8 PUSH1 0x40 MLOAD PUSH2 0x33AD SWAP3 SWAP2 SWAP1 PUSH2 0x5209 JUMP JUMPDEST PUSH1 0x40 MLOAD DUP1 SWAP2 SUB SWAP1 LOG4 POP POP POP POP POP JUMP JUMPDEST PUSH1 0x0 PUSH20 0xFFFFFFFFFFFFFFFFFFFFFFFFFFFFFFFFFFFFFFFF AND DUP5 PUSH20 0xFFFFFFFFFFFFFFFFFFFFFFFFFFFFFFFFFFFFFFFF AND EQ ISZERO PUSH2 0x342C JUMPI PUSH1 0x40 MLOAD PUSH32 0x8C379A000000000000000000000000000000000000000000000000000000000 DUP2 MSTORE PUSH1 0x4 ADD PUSH2 0x3423 SWAP1 PUSH2 0x5044 JUMP JUMPDEST PUSH1 0x40 MLOAD DUP1 SWAP2 SUB SWAP1 REVERT JUMPDEST PUSH1 0x0 PUSH2 0x3436 PUSH2 0x204D JUMP JUMPDEST SWAP1 POP PUSH2 0x3456 DUP2 DUP8 DUP8 PUSH2 0x3447 DUP9 PUSH2 0x3A19 JUMP JUMPDEST PUSH2 0x3450 DUP9 PUSH2 0x3A19 JUMP JUMPDEST DUP8 PUSH2 0x363E JUMP JUMPDEST PUSH1 0x0 DUP1 PUSH1 0x0 DUP7 DUP2 MSTORE PUSH1 0x20 ADD SWAP1 DUP2 MSTORE PUSH1 0x20 ADD PUSH1 0x0 KECCAK256 PUSH1 0x0 DUP9 PUSH20 0xFFFFFFFFFFFFFFFFFFFFFFFFFFFFFFFFFFFFFFFF AND PUSH20 0xFFFFFFFFFFFFFFFFFFFFFFFFFFFFFFFFFFFFFFFF AND DUP2 MSTORE PUSH1 0x20 ADD SWAP1 DUP2 MSTORE PUSH1 0x20 ADD PUSH1 0x0 KECCAK256 SLOAD SWAP1 POP DUP4 DUP2 LT ISZERO PUSH2 0x34ED JUMPI PUSH1 0x40 MLOAD PUSH32 0x8C379A000000000000000000000000000000000000000000000000000000000 DUP2 MSTORE PUSH1 0x4 ADD PUSH2 0x34E4 SWAP1 PUSH2 0x50A4 JUMP JUMPDEST PUSH1 0x40 MLOAD DUP1 SWAP2 SUB SWAP1 REVERT JUMPDEST DUP4 DUP2 SUB PUSH1 0x0 DUP1 DUP8 DUP2 MSTORE PUSH1 0x20 ADD SWAP1 DUP2 MSTORE PUSH1 0x20 ADD PUSH1 0x0 KECCAK256 PUSH1 0x0 DUP10 PUSH20 0xFFFFFFFFFFFFFFFFFFFFFFFFFFFFFFFFFFFFFFFF AND PUSH20 0xFFFFFFFFFFFFFFFFFFFFFFFFFFFFFFFFFFFFFFFF AND DUP2 MSTORE PUSH1 0x20 ADD SWAP1 DUP2 MSTORE PUSH1 0x20 ADD PUSH1 0x0 KECCAK256 DUP2 SWAP1 SSTORE POP DUP4 PUSH1 0x0 DUP1 DUP8 DUP2 MSTORE PUSH1 0x20 ADD SWAP1 DUP2 MSTORE PUSH1 0x20 ADD PUSH1 0x0 KECCAK256 PUSH1 0x0 DUP9 PUSH20 0xFFFFFFFFFFFFFFFFFFFFFFFFFFFFFFFFFFFFFFFF AND PUSH20 0xFFFFFFFFFFFFFFFFFFFFFFFFFFFFFFFFFFFFFFFF AND DUP2 MSTORE PUSH1 0x20 ADD SWAP1 DUP2 MSTORE PUSH1 0x20 ADD PUSH1 0x0 KECCAK256 PUSH1 0x0 DUP3 DUP3 SLOAD PUSH2 0x35A2 SWAP2 SWAP1 PUSH2 0x5382 JUMP JUMPDEST SWAP3 POP POP DUP2 SWAP1 SSTORE POP DUP6 PUSH20 0xFFFFFFFFFFFFFFFFFFFFFFFFFFFFFFFFFFFFFFFF AND DUP8 PUSH20 0xFFFFFFFFFFFFFFFFFFFFFFFFFFFFFFFFFFFFFFFF AND DUP4 PUSH20 0xFFFFFFFFFFFFFFFFFFFFFFFFFFFFFFFFFFFFFFFF AND PUSH32 0xC3D58168C5AE7397731D063D5BBF3D657854427343F4C083240F7AACAA2D0F62 DUP9 DUP9 PUSH1 0x40 MLOAD PUSH2 0x361F SWAP3 SWAP2 SWAP1 PUSH2 0x5209 JUMP JUMPDEST PUSH1 0x40 MLOAD DUP1 SWAP2 SUB SWAP1 LOG4 PUSH2 0x3635 DUP3 DUP9 DUP9 DUP9 DUP9 DUP9 PUSH2 0x3A93 JUMP JUMPDEST POP POP POP POP POP POP POP JUMP JUMPDEST PUSH2 0x3646 PUSH2 0x169D JUMP JUMPDEST ISZERO PUSH2 0x3686 JUMPI PUSH1 0x40 MLOAD PUSH32 0x8C379A000000000000000000000000000000000000000000000000000000000 DUP2 MSTORE PUSH1 0x4 ADD PUSH2 0x367D SWAP1 PUSH2 0x5024 JUMP JUMPDEST PUSH1 0x40 MLOAD DUP1 SWAP2 SUB SWAP1 REVERT JUMPDEST PUSH2 0x3694 DUP7 DUP7 DUP7 DUP7 DUP7 DUP7 PUSH2 0x3C7A JUMP JUMPDEST POP POP POP POP POP POP JUMP JUMPDEST PUSH2 0x36BB DUP5 PUSH20 0xFFFFFFFFFFFFFFFFFFFFFFFFFFFFFFFFFFFFFFFF AND PUSH2 0x3DF4 JUMP JUMPDEST ISZERO PUSH2 0x387B JUMPI DUP4 PUSH20 0xFFFFFFFFFFFFFFFFFFFFFFFFFFFFFFFFFFFFFFFF AND PUSH4 0xBC197C81 DUP8 DUP8 DUP7 DUP7 DUP7 PUSH1 0x40 MLOAD DUP7 PUSH4 0xFFFFFFFF AND PUSH1 0xE0 SHL DUP2 MSTORE PUSH1 0x4 ADD PUSH2 0x3701 SWAP6 SWAP5 SWAP4 SWAP3 SWAP2 SWAP1 PUSH2 0x4CAE JUMP JUMPDEST PUSH1 0x20 PUSH1 0x40 MLOAD DUP1 DUP4 SUB DUP2 PUSH1 0x0 DUP8 DUP1 EXTCODESIZE ISZERO DUP1 ISZERO PUSH2 0x371B JUMPI PUSH1 0x0 DUP1 REVERT JUMPDEST POP GAS CALL SWAP3 POP POP POP DUP1 ISZERO PUSH2 0x374C JUMPI POP PUSH1 0x40 MLOAD RETURNDATASIZE PUSH1 0x1F NOT PUSH1 0x1F DUP3 ADD AND DUP3 ADD DUP1 PUSH1 0x40 MSTORE POP DUP2 ADD SWAP1 PUSH2 0x3749 SWAP2 SWAP1 PUSH2 0x46DC JUMP JUMPDEST PUSH1 0x1 JUMPDEST PUSH2 0x37F2 JUMPI PUSH2 0x3758 PUSH2 0x5666 JUMP JUMPDEST DUP1 PUSH4 0x8C379A0 EQ ISZERO PUSH2 0x37B5 JUMPI POP PUSH2 0x376D PUSH2 0x5D49 JUMP JUMPDEST DUP1 PUSH2 0x3778 JUMPI POP PUSH2 0x37B7 JUMP JUMPDEST DUP1 PUSH1 0x40 MLOAD PUSH32 0x8C379A000000000000000000000000000000000000000000000000000000000 DUP2 MSTORE PUSH1 0x4 ADD PUSH2 0x37AC SWAP2 SWAP1 PUSH2 0x4DE4 JUMP JUMPDEST PUSH1 0x40 MLOAD DUP1 SWAP2 SUB SWAP1 REVERT JUMPDEST POP JUMPDEST PUSH1 0x40 MLOAD PUSH32 0x8C379A000000000000000000000000000000000000000000000000000000000 DUP2 MSTORE PUSH1 0x4 ADD PUSH2 0x37E9 SWAP1 PUSH2 0x4E06 JUMP JUMPDEST PUSH1 0x40 MLOAD DUP1 SWAP2 SUB SWAP1 REVERT JUMPDEST PUSH4 0xBC197C81 PUSH1 0xE0 SHL PUSH28 0xFFFFFFFFFFFFFFFFFFFFFFFFFFFFFFFFFFFFFFFFFFFFFFFFFFFFFFFF NOT AND DUP2 PUSH28 0xFFFFFFFFFFFFFFFFFFFFFFFFFFFFFFFFFFFFFFFFFFFFFFFFFFFFFFFF NOT AND EQ PUSH2 0x3879 JUMPI PUSH1 0x40 MLOAD PUSH32 0x8C379A000000000000000000000000000000000000000000000000000000000 DUP2 MSTORE PUSH1 0x4 ADD PUSH2 0x3870 SWAP1 PUSH2 0x4E46 JUMP JUMPDEST PUSH1 0x40 MLOAD DUP1 SWAP2 SUB SWAP1 REVERT JUMPDEST POP JUMPDEST POP POP POP POP POP POP JUMP JUMPDEST PUSH1 0x0 PUSH20 0xFFFFFFFFFFFFFFFFFFFFFFFFFFFFFFFFFFFFFFFF AND DUP5 PUSH20 0xFFFFFFFFFFFFFFFFFFFFFFFFFFFFFFFFFFFFFFFF AND EQ ISZERO PUSH2 0x38F3 JUMPI PUSH1 0x40 MLOAD PUSH32 0x8C379A000000000000000000000000000000000000000000000000000000000 DUP2 MSTORE PUSH1 0x4 ADD PUSH2 0x38EA SWAP1 PUSH2 0x51CE JUMP JUMPDEST PUSH1 0x40 MLOAD DUP1 SWAP2 SUB SWAP1 REVERT JUMPDEST PUSH1 0x0 PUSH2 0x38FD PUSH2 0x204D JUMP JUMPDEST SWAP1 POP PUSH2 0x391E DUP2 PUSH1 0x0 DUP8 PUSH2 0x390F DUP9 PUSH2 0x3A19 JUMP JUMPDEST PUSH2 0x3918 DUP9 PUSH2 0x3A19 JUMP JUMPDEST DUP8 PUSH2 0x363E JUMP JUMPDEST DUP3 PUSH1 0x0 DUP1 DUP7 DUP2 MSTORE PUSH1 0x20 ADD SWAP1 DUP2 MSTORE PUSH1 0x20 ADD PUSH1 0x0 KECCAK256 PUSH1 0x0 DUP8 PUSH20 0xFFFFFFFFFFFFFFFFFFFFFFFFFFFFFFFFFFFFFFFF AND PUSH20 0xFFFFFFFFFFFFFFFFFFFFFFFFFFFFFFFFFFFFFFFF AND DUP2 MSTORE PUSH1 0x20 ADD SWAP1 DUP2 MSTORE PUSH1 0x20 ADD PUSH1 0x0 KECCAK256 PUSH1 0x0 DUP3 DUP3 SLOAD PUSH2 0x397D SWAP2 SWAP1 PUSH2 0x5382 JUMP JUMPDEST SWAP3 POP POP DUP2 SWAP1 SSTORE POP DUP5 PUSH20 0xFFFFFFFFFFFFFFFFFFFFFFFFFFFFFFFFFFFFFFFF AND PUSH1 0x0 PUSH20 0xFFFFFFFFFFFFFFFFFFFFFFFFFFFFFFFFFFFFFFFF AND DUP3 PUSH20 0xFFFFFFFFFFFFFFFFFFFFFFFFFFFFFFFFFFFFFFFF AND PUSH32 0xC3D58168C5AE7397731D063D5BBF3D657854427343F4C083240F7AACAA2D0F62 DUP8 DUP8 PUSH1 0x40 MLOAD PUSH2 0x39FB SWAP3 SWAP2 SWAP1 PUSH2 0x5209 JUMP JUMPDEST PUSH1 0x40 MLOAD DUP1 SWAP2 SUB SWAP1 LOG4 PUSH2 0x3A12 DUP2 PUSH1 0x0 DUP8 DUP8 DUP8 DUP8 PUSH2 0x3A93 JUMP JUMPDEST POP POP POP POP POP JUMP JUMPDEST PUSH1 0x60 PUSH1 0x0 PUSH1 0x1 PUSH8 0xFFFFFFFFFFFFFFFF DUP2 GT ISZERO PUSH2 0x3A38 JUMPI PUSH2 0x3A37 PUSH2 0x5637 JUMP JUMPDEST JUMPDEST PUSH1 0x40 MLOAD SWAP1 DUP1 DUP3 MSTORE DUP1 PUSH1 0x20 MUL PUSH1 0x20 ADD DUP3 ADD PUSH1 0x40 MSTORE DUP1 ISZERO PUSH2 0x3A66 JUMPI DUP2 PUSH1 0x20 ADD PUSH1 0x20 DUP3 MUL DUP1 CALLDATASIZE DUP4 CALLDATACOPY DUP1 DUP3 ADD SWAP2 POP POP SWAP1 POP JUMPDEST POP SWAP1 POP DUP3 DUP2 PUSH1 0x0 DUP2 MLOAD DUP2 LT PUSH2 0x3A7E JUMPI PUSH2 0x3A7D PUSH2 0x5608 JUMP JUMPDEST JUMPDEST PUSH1 0x20 MUL PUSH1 0x20 ADD ADD DUP2 DUP2 MSTORE POP POP DUP1 SWAP2 POP POP SWAP2 SWAP1 POP JUMP JUMPDEST PUSH2 0x3AB2 DUP5 PUSH20 0xFFFFFFFFFFFFFFFFFFFFFFFFFFFFFFFFFFFFFFFF AND PUSH2 0x3DF4 JUMP JUMPDEST ISZERO PUSH2 0x3C72 JUMPI DUP4 PUSH20 0xFFFFFFFFFFFFFFFFFFFFFFFFFFFFFFFFFFFFFFFF AND PUSH4 0xF23A6E61 DUP8 DUP8 DUP7 DUP7 DUP7 PUSH1 0x40 MLOAD DUP7 PUSH4 0xFFFFFFFF AND PUSH1 0xE0 SHL DUP2 MSTORE PUSH1 0x4 ADD PUSH2 0x3AF8 SWAP6 SWAP5 SWAP4 SWAP3 SWAP2 SWAP1 PUSH2 0x4D16 JUMP JUMPDEST PUSH1 0x20 PUSH1 0x40 MLOAD DUP1 DUP4 SUB DUP2 PUSH1 0x0 DUP8 DUP1 EXTCODESIZE ISZERO DUP1 ISZERO PUSH2 0x3B12 JUMPI PUSH1 0x0 DUP1 REVERT JUMPDEST POP GAS CALL SWAP3 POP POP POP DUP1 ISZERO PUSH2 0x3B43 JUMPI POP PUSH1 0x40 MLOAD RETURNDATASIZE PUSH1 0x1F NOT PUSH1 0x1F DUP3 ADD AND DUP3 ADD DUP1 PUSH1 0x40 MSTORE POP DUP2 ADD SWAP1 PUSH2 0x3B40 SWAP2 SWAP1 PUSH2 0x46DC JUMP JUMPDEST PUSH1 0x1 JUMPDEST PUSH2 0x3BE9 JUMPI PUSH2 0x3B4F PUSH2 0x5666 JUMP JUMPDEST DUP1 PUSH4 0x8C379A0 EQ ISZERO PUSH2 0x3BAC JUMPI POP PUSH2 0x3B64 PUSH2 0x5D49 JUMP JUMPDEST DUP1 PUSH2 0x3B6F JUMPI POP PUSH2 0x3BAE JUMP JUMPDEST DUP1 PUSH1 0x40 MLOAD PUSH32 0x8C379A000000000000000000000000000000000000000000000000000000000 DUP2 MSTORE PUSH1 0x4 ADD PUSH2 0x3BA3 SWAP2 SWAP1 PUSH2 0x4DE4 JUMP JUMPDEST PUSH1 0x40 MLOAD DUP1 SWAP2 SUB SWAP1 REVERT JUMPDEST POP JUMPDEST PUSH1 0x40 MLOAD PUSH32 0x8C379A000000000000000000000000000000000000000000000000000000000 DUP2 MSTORE PUSH1 0x4 ADD PUSH2 0x3BE0 SWAP1 PUSH2 0x4E06 JUMP JUMPDEST PUSH1 0x40 MLOAD DUP1 SWAP2 SUB SWAP1 REVERT JUMPDEST PUSH4 0xF23A6E61 PUSH1 0xE0 SHL PUSH28 0xFFFFFFFFFFFFFFFFFFFFFFFFFFFFFFFFFFFFFFFFFFFFFFFFFFFFFFFF NOT AND DUP2 PUSH28 0xFFFFFFFFFFFFFFFFFFFFFFFFFFFFFFFFFFFFFFFFFFFFFFFFFFFFFFFF NOT AND EQ PUSH2 0x3C70 JUMPI PUSH1 0x40 MLOAD PUSH32 0x8C379A000000000000000000000000000000000000000000000000000000000 DUP2 MSTORE PUSH1 0x4 ADD PUSH2 0x3C67 SWAP1 PUSH2 0x4E46 JUMP JUMPDEST PUSH1 0x40 MLOAD DUP1 SWAP2 SUB SWAP1 REVERT JUMPDEST POP JUMPDEST POP POP POP POP POP POP JUMP JUMPDEST PUSH2 0x3C88 DUP7 DUP7 DUP7 DUP7 DUP7 DUP7 PUSH2 0x3E17 JUMP JUMPDEST PUSH1 0x0 PUSH20 0xFFFFFFFFFFFFFFFFFFFFFFFFFFFFFFFFFFFFFFFF AND DUP6 PUSH20 0xFFFFFFFFFFFFFFFFFFFFFFFFFFFFFFFFFFFFFFFF AND EQ ISZERO PUSH2 0x3D3A JUMPI PUSH1 0x0 JUMPDEST DUP4 MLOAD DUP2 LT ISZERO PUSH2 0x3D38 JUMPI DUP3 DUP2 DUP2 MLOAD DUP2 LT PUSH2 0x3CDC JUMPI PUSH2 0x3CDB PUSH2 0x5608 JUMP JUMPDEST JUMPDEST PUSH1 0x20 MUL PUSH1 0x20 ADD ADD MLOAD PUSH1 0x4 PUSH1 0x0 DUP7 DUP5 DUP2 MLOAD DUP2 LT PUSH2 0x3CFB JUMPI PUSH2 0x3CFA PUSH2 0x5608 JUMP JUMPDEST JUMPDEST PUSH1 0x20 MUL PUSH1 0x20 ADD ADD MLOAD DUP2 MSTORE PUSH1 0x20 ADD SWAP1 DUP2 MSTORE PUSH1 0x20 ADD PUSH1 0x0 KECCAK256 PUSH1 0x0 DUP3 DUP3 SLOAD PUSH2 0x3D20 SWAP2 SWAP1 PUSH2 0x5382 JUMP JUMPDEST SWAP3 POP POP DUP2 SWAP1 SSTORE POP DUP1 PUSH2 0x3D31 SWAP1 PUSH2 0x5561 JUMP JUMPDEST SWAP1 POP PUSH2 0x3CC0 JUMP JUMPDEST POP JUMPDEST PUSH1 0x0 PUSH20 0xFFFFFFFFFFFFFFFFFFFFFFFFFFFFFFFFFFFFFFFF AND DUP5 PUSH20 0xFFFFFFFFFFFFFFFFFFFFFFFFFFFFFFFFFFFFFFFF AND EQ ISZERO PUSH2 0x3DEC JUMPI PUSH1 0x0 JUMPDEST DUP4 MLOAD DUP2 LT ISZERO PUSH2 0x3DEA JUMPI DUP3 DUP2 DUP2 MLOAD DUP2 LT PUSH2 0x3D8E JUMPI PUSH2 0x3D8D PUSH2 0x5608 JUMP JUMPDEST JUMPDEST PUSH1 0x20 MUL PUSH1 0x20 ADD ADD MLOAD PUSH1 0x4 PUSH1 0x0 DUP7 DUP5 DUP2 MLOAD DUP2 LT PUSH2 0x3DAD JUMPI PUSH2 0x3DAC PUSH2 0x5608 JUMP JUMPDEST JUMPDEST PUSH1 0x20 MUL PUSH1 0x20 ADD ADD MLOAD DUP2 MSTORE PUSH1 0x20 ADD SWAP1 DUP2 MSTORE PUSH1 0x20 ADD PUSH1 0x0 KECCAK256 PUSH1 0x0 DUP3 DUP3 SLOAD PUSH2 0x3DD2 SWAP2 SWAP1 PUSH2 0x53D8 JUMP JUMPDEST SWAP3 POP POP DUP2 SWAP1 SSTORE POP DUP1 PUSH2 0x3DE3 SWAP1 PUSH2 0x5561 JUMP JUMPDEST SWAP1 POP PUSH2 0x3D72 JUMP JUMPDEST POP JUMPDEST POP POP POP POP POP POP JUMP JUMPDEST PUSH1 0x0 DUP1 DUP3 PUSH20 0xFFFFFFFFFFFFFFFFFFFFFFFFFFFFFFFFFFFFFFFF AND EXTCODESIZE GT SWAP1 POP SWAP2 SWAP1 POP JUMP JUMPDEST POP POP POP POP POP POP JUMP JUMPDEST DUP3 DUP1 SLOAD PUSH2 0x3E2B SWAP1 PUSH2 0x54FE JUMP JUMPDEST SWAP1 PUSH1 0x0 MSTORE PUSH1 0x20 PUSH1 0x0 KECCAK256 SWAP1 PUSH1 0x1F ADD PUSH1 0x20 SWAP1 DIV DUP2 ADD SWAP3 DUP3 PUSH2 0x3E4D JUMPI PUSH1 0x0 DUP6 SSTORE PUSH2 0x3E94 JUMP JUMPDEST DUP3 PUSH1 0x1F LT PUSH2 0x3E66 JUMPI DUP1 MLOAD PUSH1 0xFF NOT AND DUP4 DUP1 ADD OR DUP6 SSTORE PUSH2 0x3E94 JUMP JUMPDEST DUP3 DUP1 ADD PUSH1 0x1 ADD DUP6 SSTORE DUP3 ISZERO PUSH2 0x3E94 JUMPI SWAP2 DUP3 ADD JUMPDEST DUP3 DUP2 GT ISZERO PUSH2 0x3E93 JUMPI DUP3 MLOAD DUP3 SSTORE SWAP2 PUSH1 0x20 ADD SWAP2 SWAP1 PUSH1 0x1 ADD SWAP1 PUSH2 0x3E78 JUMP JUMPDEST JUMPDEST POP SWAP1 POP PUSH2 0x3EA1 SWAP2 SWAP1 PUSH2 0x3EA5 JUMP JUMPDEST POP SWAP1 JUMP JUMPDEST JUMPDEST DUP1 DUP3 GT ISZERO PUSH2 0x3EBE JUMPI PUSH1 0x0 DUP2 PUSH1 0x0 SWAP1 SSTORE POP PUSH1 0x1 ADD PUSH2 0x3EA6 JUMP JUMPDEST POP SWAP1 JUMP JUMPDEST PUSH1 0x0 PUSH2 0x3ED5 PUSH2 0x3ED0 DUP5 PUSH2 0x5257 JUMP JUMPDEST PUSH2 0x5232 JUMP JUMPDEST SWAP1 POP DUP1 DUP4 DUP3 MSTORE PUSH1 0x20 DUP3 ADD SWAP1 POP DUP3 DUP6 PUSH1 0x20 DUP7 MUL DUP3 ADD GT ISZERO PUSH2 0x3EF8 JUMPI PUSH2 0x3EF7 PUSH2 0x568D JUMP JUMPDEST JUMPDEST PUSH1 0x0 JUMPDEST DUP6 DUP2 LT ISZERO PUSH2 0x3F28 JUMPI DUP2 PUSH2 0x3F0E DUP9 DUP3 PUSH2 0x4026 JUMP JUMPDEST DUP5 MSTORE PUSH1 0x20 DUP5 ADD SWAP4 POP PUSH1 0x20 DUP4 ADD SWAP3 POP POP PUSH1 0x1 DUP2 ADD SWAP1 POP PUSH2 0x3EFB JUMP JUMPDEST POP POP POP SWAP4 SWAP3 POP POP POP JUMP JUMPDEST PUSH1 0x0 PUSH2 0x3F45 PUSH2 0x3F40 DUP5 PUSH2 0x5283 JUMP JUMPDEST PUSH2 0x5232 JUMP JUMPDEST SWAP1 POP DUP1 DUP4 DUP3 MSTORE PUSH1 0x20 DUP3 ADD SWAP1 POP DUP3 DUP6 PUSH1 0x20 DUP7 MUL DUP3 ADD GT ISZERO PUSH2 0x3F68 JUMPI PUSH2 0x3F67 PUSH2 0x568D JUMP JUMPDEST JUMPDEST PUSH1 0x0 JUMPDEST DUP6 DUP2 LT ISZERO PUSH2 0x3F98 JUMPI DUP2 PUSH2 0x3F7E DUP9 DUP3 PUSH2 0x4132 JUMP JUMPDEST DUP5 MSTORE PUSH1 0x20 DUP5 ADD SWAP4 POP PUSH1 0x20 DUP4 ADD SWAP3 POP POP PUSH1 0x1 DUP2 ADD SWAP1 POP PUSH2 0x3F6B JUMP JUMPDEST POP POP POP SWAP4 SWAP3 POP POP POP JUMP JUMPDEST PUSH1 0x0 PUSH2 0x3FB5 PUSH2 0x3FB0 DUP5 PUSH2 0x52AF JUMP JUMPDEST PUSH2 0x5232 JUMP JUMPDEST SWAP1 POP DUP3 DUP2 MSTORE PUSH1 0x20 DUP2 ADD DUP5 DUP5 DUP5 ADD GT ISZERO PUSH2 0x3FD1 JUMPI PUSH2 0x3FD0 PUSH2 0x5692 JUMP JUMPDEST JUMPDEST PUSH2 0x3FDC DUP5 DUP3 DUP6 PUSH2 0x5492 JUMP JUMPDEST POP SWAP4 SWAP3 POP POP POP JUMP JUMPDEST PUSH1 0x0 PUSH2 0x3FF7 PUSH2 0x3FF2 DUP5 PUSH2 0x52E0 JUMP JUMPDEST PUSH2 0x5232 JUMP JUMPDEST SWAP1 POP DUP3 DUP2 MSTORE PUSH1 0x20 DUP2 ADD DUP5 DUP5 DUP5 ADD GT ISZERO PUSH2 0x4013 JUMPI PUSH2 0x4012 PUSH2 0x5692 JUMP JUMPDEST JUMPDEST PUSH2 0x401E DUP5 DUP3 DUP6 PUSH2 0x5492 JUMP JUMPDEST POP SWAP4 SWAP3 POP POP POP JUMP JUMPDEST PUSH1 0x0 DUP2 CALLDATALOAD SWAP1 POP PUSH2 0x4035 DUP2 PUSH2 0x5DDF JUMP JUMPDEST SWAP3 SWAP2 POP POP JUMP JUMPDEST PUSH1 0x0 DUP3 PUSH1 0x1F DUP4 ADD SLT PUSH2 0x4050 JUMPI PUSH2 0x404F PUSH2 0x5688 JUMP JUMPDEST JUMPDEST DUP2 CALLDATALOAD PUSH2 0x4060 DUP5 DUP3 PUSH1 0x20 DUP7 ADD PUSH2 0x3EC2 JUMP JUMPDEST SWAP2 POP POP SWAP3 SWAP2 POP POP JUMP JUMPDEST PUSH1 0x0 DUP3 PUSH1 0x1F DUP4 ADD SLT PUSH2 0x407E JUMPI PUSH2 0x407D PUSH2 0x5688 JUMP JUMPDEST JUMPDEST DUP2 CALLDATALOAD PUSH2 0x408E DUP5 DUP3 PUSH1 0x20 DUP7 ADD PUSH2 0x3F32 JUMP JUMPDEST SWAP2 POP POP SWAP3 SWAP2 POP POP JUMP JUMPDEST PUSH1 0x0 DUP2 CALLDATALOAD SWAP1 POP PUSH2 0x40A6 DUP2 PUSH2 0x5DF6 JUMP JUMPDEST SWAP3 SWAP2 POP POP JUMP JUMPDEST PUSH1 0x0 DUP2 CALLDATALOAD SWAP1 POP PUSH2 0x40BB DUP2 PUSH2 0x5E0D JUMP JUMPDEST SWAP3 SWAP2 POP POP JUMP JUMPDEST PUSH1 0x0 DUP2 MLOAD SWAP1 POP PUSH2 0x40D0 DUP2 PUSH2 0x5E0D JUMP JUMPDEST SWAP3 SWAP2 POP POP JUMP JUMPDEST PUSH1 0x0 DUP3 PUSH1 0x1F DUP4 ADD SLT PUSH2 0x40EB JUMPI PUSH2 0x40EA PUSH2 0x5688 JUMP JUMPDEST JUMPDEST DUP2 CALLDATALOAD PUSH2 0x40FB DUP5 DUP3 PUSH1 0x20 DUP7 ADD PUSH2 0x3FA2 JUMP JUMPDEST SWAP2 POP POP SWAP3 SWAP2 POP POP JUMP JUMPDEST PUSH1 0x0 DUP3 PUSH1 0x1F DUP4 ADD SLT PUSH2 0x4119 JUMPI PUSH2 0x4118 PUSH2 0x5688 JUMP JUMPDEST JUMPDEST DUP2 CALLDATALOAD PUSH2 0x4129 DUP5 DUP3 PUSH1 0x20 DUP7 ADD PUSH2 0x3FE4 JUMP JUMPDEST SWAP2 POP POP SWAP3 SWAP2 POP POP JUMP JUMPDEST PUSH1 0x0 DUP2 CALLDATALOAD SWAP1 POP PUSH2 0x4141 DUP2 PUSH2 0x5E24 JUMP JUMPDEST SWAP3 SWAP2 POP POP JUMP JUMPDEST PUSH1 0x0 PUSH1 0x20 DUP3 DUP5 SUB SLT ISZERO PUSH2 0x415D JUMPI PUSH2 0x415C PUSH2 0x569C JUMP JUMPDEST JUMPDEST PUSH1 0x0 PUSH2 0x416B DUP5 DUP3 DUP6 ADD PUSH2 0x4026 JUMP JUMPDEST SWAP2 POP POP SWAP3 SWAP2 POP POP JUMP JUMPDEST PUSH1 0x0 DUP1 PUSH1 0x40 DUP4 DUP6 SUB SLT ISZERO PUSH2 0x418B JUMPI PUSH2 0x418A PUSH2 0x569C JUMP JUMPDEST JUMPDEST PUSH1 0x0 PUSH2 0x4199 DUP6 DUP3 DUP7 ADD PUSH2 0x4026 JUMP JUMPDEST SWAP3 POP POP PUSH1 0x20 PUSH2 0x41AA DUP6 DUP3 DUP7 ADD PUSH2 0x4026 JUMP JUMPDEST SWAP2 POP POP SWAP3 POP SWAP3 SWAP1 POP JUMP JUMPDEST PUSH1 0x0 DUP1 PUSH1 0x0 DUP1 PUSH1 0x0 PUSH1 0xA0 DUP7 DUP9 SUB SLT ISZERO PUSH2 0x41D0 JUMPI PUSH2 0x41CF PUSH2 0x569C JUMP JUMPDEST JUMPDEST PUSH1 0x0 PUSH2 0x41DE DUP9 DUP3 DUP10 ADD PUSH2 0x4026 JUMP JUMPDEST SWAP6 POP POP PUSH1 0x20 PUSH2 0x41EF DUP9 DUP3 DUP10 ADD PUSH2 0x4026 JUMP JUMPDEST SWAP5 POP POP PUSH1 0x40 DUP7 ADD CALLDATALOAD PUSH8 0xFFFFFFFFFFFFFFFF DUP2 GT ISZERO PUSH2 0x4210 JUMPI PUSH2 0x420F PUSH2 0x5697 JUMP JUMPDEST JUMPDEST PUSH2 0x421C DUP9 DUP3 DUP10 ADD PUSH2 0x4069 JUMP JUMPDEST SWAP4 POP POP PUSH1 0x60 DUP7 ADD CALLDATALOAD PUSH8 0xFFFFFFFFFFFFFFFF DUP2 GT ISZERO PUSH2 0x423D JUMPI PUSH2 0x423C PUSH2 0x5697 JUMP JUMPDEST JUMPDEST PUSH2 0x4249 DUP9 DUP3 DUP10 ADD PUSH2 0x4069 JUMP JUMPDEST SWAP3 POP POP PUSH1 0x80 DUP7 ADD CALLDATALOAD PUSH8 0xFFFFFFFFFFFFFFFF DUP2 GT ISZERO PUSH2 0x426A JUMPI PUSH2 0x4269 PUSH2 0x5697 JUMP JUMPDEST JUMPDEST PUSH2 0x4276 DUP9 DUP3 DUP10 ADD PUSH2 0x40D6 JUMP JUMPDEST SWAP2 POP POP SWAP3 SWAP6 POP SWAP3 SWAP6 SWAP1 SWAP4 POP JUMP JUMPDEST PUSH1 0x0 DUP1 PUSH1 0x0 DUP1 PUSH1 0x0 PUSH1 0xA0 DUP7 DUP9 SUB SLT ISZERO PUSH2 0x429F JUMPI PUSH2 0x429E PUSH2 0x569C JUMP JUMPDEST JUMPDEST PUSH1 0x0 PUSH2 0x42AD DUP9 DUP3 DUP10 ADD PUSH2 0x4026 JUMP JUMPDEST SWAP6 POP POP PUSH1 0x20 PUSH2 0x42BE DUP9 DUP3 DUP10 ADD PUSH2 0x4026 JUMP JUMPDEST SWAP5 POP POP PUSH1 0x40 PUSH2 0x42CF DUP9 DUP3 DUP10 ADD PUSH2 0x4132 JUMP JUMPDEST SWAP4 POP POP PUSH1 0x60 PUSH2 0x42E0 DUP9 DUP3 DUP10 ADD PUSH2 0x4132 JUMP JUMPDEST SWAP3 POP POP PUSH1 0x80 DUP7 ADD CALLDATALOAD PUSH8 0xFFFFFFFFFFFFFFFF DUP2 GT ISZERO PUSH2 0x4301 JUMPI PUSH2 0x4300 PUSH2 0x5697 JUMP JUMPDEST JUMPDEST PUSH2 0x430D DUP9 DUP3 DUP10 ADD PUSH2 0x40D6 JUMP JUMPDEST SWAP2 POP POP SWAP3 SWAP6 POP SWAP3 SWAP6 SWAP1 SWAP4 POP JUMP JUMPDEST PUSH1 0x0 DUP1 PUSH1 0x0 PUSH1 0x60 DUP5 DUP7 SUB SLT ISZERO PUSH2 0x4333 JUMPI PUSH2 0x4332 PUSH2 0x569C JUMP JUMPDEST JUMPDEST PUSH1 0x0 PUSH2 0x4341 DUP7 DUP3 DUP8 ADD PUSH2 0x4026 JUMP JUMPDEST SWAP4 POP POP PUSH1 0x20 DUP5 ADD CALLDATALOAD PUSH8 0xFFFFFFFFFFFFFFFF DUP2 GT ISZERO PUSH2 0x4362 JUMPI PUSH2 0x4361 PUSH2 0x5697 JUMP JUMPDEST JUMPDEST PUSH2 0x436E DUP7 DUP3 DUP8 ADD PUSH2 0x4069 JUMP JUMPDEST SWAP3 POP POP PUSH1 0x40 DUP5 ADD CALLDATALOAD PUSH8 0xFFFFFFFFFFFFFFFF DUP2 GT ISZERO PUSH2 0x438F JUMPI PUSH2 0x438E PUSH2 0x5697 JUMP JUMPDEST JUMPDEST PUSH2 0x439B DUP7 DUP3 DUP8 ADD PUSH2 0x4069 JUMP JUMPDEST SWAP2 POP POP SWAP3 POP SWAP3 POP SWAP3 JUMP JUMPDEST PUSH1 0x0 DUP1 PUSH1 0x0 DUP1 PUSH1 0x0 PUSH1 0xA0 DUP7 DUP9 SUB SLT ISZERO PUSH2 0x43C1 JUMPI PUSH2 0x43C0 PUSH2 0x569C JUMP JUMPDEST JUMPDEST PUSH1 0x0 PUSH2 0x43CF DUP9 DUP3 DUP10 ADD PUSH2 0x4026 JUMP JUMPDEST SWAP6 POP POP PUSH1 0x20 DUP7 ADD CALLDATALOAD PUSH8 0xFFFFFFFFFFFFFFFF DUP2 GT ISZERO PUSH2 0x43F0 JUMPI PUSH2 0x43EF PUSH2 0x5697 JUMP JUMPDEST JUMPDEST PUSH2 0x43FC DUP9 DUP3 DUP10 ADD PUSH2 0x4069 JUMP JUMPDEST SWAP5 POP POP PUSH1 0x40 DUP7 ADD CALLDATALOAD PUSH8 0xFFFFFFFFFFFFFFFF DUP2 GT ISZERO PUSH2 0x441D JUMPI PUSH2 0x441C PUSH2 0x5697 JUMP JUMPDEST JUMPDEST PUSH2 0x4429 DUP9 DUP3 DUP10 ADD PUSH2 0x4069 JUMP JUMPDEST SWAP4 POP POP PUSH1 0x60 DUP7 ADD CALLDATALOAD PUSH8 0xFFFFFFFFFFFFFFFF DUP2 GT ISZERO PUSH2 0x444A JUMPI PUSH2 0x4449 PUSH2 0x5697 JUMP JUMPDEST JUMPDEST PUSH2 0x4456 DUP9 DUP3 DUP10 ADD PUSH2 0x4069 JUMP JUMPDEST SWAP3 POP POP PUSH1 0x80 DUP7 ADD CALLDATALOAD PUSH8 0xFFFFFFFFFFFFFFFF DUP2 GT ISZERO PUSH2 0x4477 JUMPI PUSH2 0x4476 PUSH2 0x5697 JUMP JUMPDEST JUMPDEST PUSH2 0x4483 DUP9 DUP3 DUP10 ADD PUSH2 0x4069 JUMP JUMPDEST SWAP2 POP POP SWAP3 SWAP6 POP SWAP3 SWAP6 SWAP1 SWAP4 POP JUMP JUMPDEST PUSH1 0x0 DUP1 PUSH1 0x40 DUP4 DUP6 SUB SLT ISZERO PUSH2 0x44A7 JUMPI PUSH2 0x44A6 PUSH2 0x569C JUMP JUMPDEST JUMPDEST PUSH1 0x0 PUSH2 0x44B5 DUP6 DUP3 DUP7 ADD PUSH2 0x4026 JUMP JUMPDEST SWAP3 POP POP PUSH1 0x20 PUSH2 0x44C6 DUP6 DUP3 DUP7 ADD PUSH2 0x4097 JUMP JUMPDEST SWAP2 POP POP SWAP3 POP SWAP3 SWAP1 POP JUMP JUMPDEST PUSH1 0x0 DUP1 PUSH1 0x40 DUP4 DUP6 SUB SLT ISZERO PUSH2 0x44E7 JUMPI PUSH2 0x44E6 PUSH2 0x569C JUMP JUMPDEST JUMPDEST PUSH1 0x0 PUSH2 0x44F5 DUP6 DUP3 DUP7 ADD PUSH2 0x4026 JUMP JUMPDEST SWAP3 POP POP PUSH1 0x20 PUSH2 0x4506 DUP6 DUP3 DUP7 ADD PUSH2 0x4132 JUMP JUMPDEST SWAP2 POP POP SWAP3 POP SWAP3 SWAP1 POP JUMP JUMPDEST PUSH1 0x0 DUP1 PUSH1 0x0 PUSH1 0x60 DUP5 DUP7 SUB SLT ISZERO PUSH2 0x4529 JUMPI PUSH2 0x4528 PUSH2 0x569C JUMP JUMPDEST JUMPDEST PUSH1 0x0 PUSH2 0x4537 DUP7 DUP3 DUP8 ADD PUSH2 0x4026 JUMP JUMPDEST SWAP4 POP POP PUSH1 0x20 PUSH2 0x4548 DUP7 DUP3 DUP8 ADD PUSH2 0x4132 JUMP JUMPDEST SWAP3 POP POP PUSH1 0x40 PUSH2 0x4559 DUP7 DUP3 DUP8 ADD PUSH2 0x4132 JUMP JUMPDEST SWAP2 POP POP SWAP3 POP SWAP3 POP SWAP3 JUMP JUMPDEST PUSH1 0x0 DUP1 PUSH1 0x40 DUP4 DUP6 SUB SLT ISZERO PUSH2 0x457A JUMPI PUSH2 0x4579 PUSH2 0x569C JUMP JUMPDEST JUMPDEST PUSH1 0x0 DUP4 ADD CALLDATALOAD PUSH8 0xFFFFFFFFFFFFFFFF DUP2 GT ISZERO PUSH2 0x4598 JUMPI PUSH2 0x4597 PUSH2 0x5697 JUMP JUMPDEST JUMPDEST PUSH2 0x45A4 DUP6 DUP3 DUP7 ADD PUSH2 0x403B JUMP JUMPDEST SWAP3 POP POP PUSH1 0x20 DUP4 ADD CALLDATALOAD PUSH8 0xFFFFFFFFFFFFFFFF DUP2 GT ISZERO PUSH2 0x45C5 JUMPI PUSH2 0x45C4 PUSH2 0x5697 JUMP JUMPDEST JUMPDEST PUSH2 0x45D1 DUP6 DUP3 DUP7 ADD PUSH2 0x4069 JUMP JUMPDEST SWAP2 POP POP SWAP3 POP SWAP3 SWAP1 POP JUMP JUMPDEST PUSH1 0x0 DUP1 PUSH1 0x40 DUP4 DUP6 SUB SLT ISZERO PUSH2 0x45F2 JUMPI PUSH2 0x45F1 PUSH2 0x569C JUMP JUMPDEST JUMPDEST PUSH1 0x0 DUP4 ADD CALLDATALOAD PUSH8 0xFFFFFFFFFFFFFFFF DUP2 GT ISZERO PUSH2 0x4610 JUMPI PUSH2 0x460F PUSH2 0x5697 JUMP JUMPDEST JUMPDEST PUSH2 0x461C DUP6 DUP3 DUP7 ADD PUSH2 0x403B JUMP JUMPDEST SWAP3 POP POP PUSH1 0x20 PUSH2 0x462D DUP6 DUP3 DUP7 ADD PUSH2 0x4132 JUMP JUMPDEST SWAP2 POP POP SWAP3 POP SWAP3 SWAP1 POP JUMP JUMPDEST PUSH1 0x0 DUP1 PUSH1 0x40 DUP4 DUP6 SUB SLT ISZERO PUSH2 0x464E JUMPI PUSH2 0x464D PUSH2 0x569C JUMP JUMPDEST JUMPDEST PUSH1 0x0 DUP4 ADD CALLDATALOAD PUSH8 0xFFFFFFFFFFFFFFFF DUP2 GT ISZERO PUSH2 0x466C JUMPI PUSH2 0x466B PUSH2 0x5697 JUMP JUMPDEST JUMPDEST PUSH2 0x4678 DUP6 DUP3 DUP7 ADD PUSH2 0x4069 JUMP JUMPDEST SWAP3 POP POP PUSH1 0x20 DUP4 ADD CALLDATALOAD PUSH8 0xFFFFFFFFFFFFFFFF DUP2 GT ISZERO PUSH2 0x4699 JUMPI PUSH2 0x4698 PUSH2 0x5697 JUMP JUMPDEST JUMPDEST PUSH2 0x46A5 DUP6 DUP3 DUP7 ADD PUSH2 0x4069 JUMP JUMPDEST SWAP2 POP POP SWAP3 POP SWAP3 SWAP1 POP JUMP JUMPDEST PUSH1 0x0 PUSH1 0x20 DUP3 DUP5 SUB SLT ISZERO PUSH2 0x46C5 JUMPI PUSH2 0x46C4 PUSH2 0x569C JUMP JUMPDEST JUMPDEST PUSH1 0x0 PUSH2 0x46D3 DUP5 DUP3 DUP6 ADD PUSH2 0x40AC JUMP JUMPDEST SWAP2 POP POP SWAP3 SWAP2 POP POP JUMP JUMPDEST PUSH1 0x0 PUSH1 0x20 DUP3 DUP5 SUB SLT ISZERO PUSH2 0x46F2 JUMPI PUSH2 0x46F1 PUSH2 0x569C JUMP JUMPDEST JUMPDEST PUSH1 0x0 PUSH2 0x4700 DUP5 DUP3 DUP6 ADD PUSH2 0x40C1 JUMP JUMPDEST SWAP2 POP POP SWAP3 SWAP2 POP POP JUMP JUMPDEST PUSH1 0x0 PUSH1 0x20 DUP3 DUP5 SUB SLT ISZERO PUSH2 0x471F JUMPI PUSH2 0x471E PUSH2 0x569C JUMP JUMPDEST JUMPDEST PUSH1 0x0 PUSH2 0x472D DUP5 DUP3 DUP6 ADD PUSH2 0x4132 JUMP JUMPDEST SWAP2 POP POP SWAP3 SWAP2 POP POP JUMP JUMPDEST PUSH1 0x0 DUP1 PUSH1 0x40 DUP4 DUP6 SUB SLT ISZERO PUSH2 0x474D JUMPI PUSH2 0x474C PUSH2 0x569C JUMP JUMPDEST JUMPDEST PUSH1 0x0 PUSH2 0x475B DUP6 DUP3 DUP7 ADD PUSH2 0x4132 JUMP JUMPDEST SWAP3 POP POP PUSH1 0x20 DUP4 ADD CALLDATALOAD PUSH8 0xFFFFFFFFFFFFFFFF DUP2 GT ISZERO PUSH2 0x477C JUMPI PUSH2 0x477B PUSH2 0x5697 JUMP JUMPDEST JUMPDEST PUSH2 0x4788 DUP6 DUP3 DUP7 ADD PUSH2 0x4104 JUMP JUMPDEST SWAP2 POP POP SWAP3 POP SWAP3 SWAP1 POP JUMP JUMPDEST PUSH1 0x0 DUP1 PUSH1 0x40 DUP4 DUP6 SUB SLT ISZERO PUSH2 0x47A9 JUMPI PUSH2 0x47A8 PUSH2 0x569C JUMP JUMPDEST JUMPDEST PUSH1 0x0 PUSH2 0x47B7 DUP6 DUP3 DUP7 ADD PUSH2 0x4132 JUMP JUMPDEST SWAP3 POP POP PUSH1 0x20 PUSH2 0x47C8 DUP6 DUP3 DUP7 ADD PUSH2 0x4132 JUMP JUMPDEST SWAP2 POP POP SWAP3 POP SWAP3 SWAP1 POP JUMP JUMPDEST PUSH1 0x0 PUSH2 0x47DE DUP4 DUP4 PUSH2 0x4C75 JUMP JUMPDEST PUSH1 0x20 DUP4 ADD SWAP1 POP SWAP3 SWAP2 POP POP JUMP JUMPDEST PUSH2 0x47F3 DUP2 PUSH2 0x540C JUMP JUMPDEST DUP3 MSTORE POP POP JUMP JUMPDEST PUSH1 0x0 PUSH2 0x4804 DUP3 PUSH2 0x5321 JUMP JUMPDEST PUSH2 0x480E DUP2 DUP6 PUSH2 0x534F JUMP JUMPDEST SWAP4 POP PUSH2 0x4819 DUP4 PUSH2 0x5311 JUMP JUMPDEST DUP1 PUSH1 0x0 JUMPDEST DUP4 DUP2 LT ISZERO PUSH2 0x484A JUMPI DUP2 MLOAD PUSH2 0x4831 DUP9 DUP3 PUSH2 0x47D2 JUMP JUMPDEST SWAP8 POP PUSH2 0x483C DUP4 PUSH2 0x5342 JUMP JUMPDEST SWAP3 POP POP PUSH1 0x1 DUP2 ADD SWAP1 POP PUSH2 0x481D JUMP JUMPDEST POP DUP6 SWAP4 POP POP POP POP SWAP3 SWAP2 POP POP JUMP JUMPDEST PUSH2 0x4860 DUP2 PUSH2 0x541E JUMP JUMPDEST DUP3 MSTORE POP POP JUMP JUMPDEST PUSH1 0x0 PUSH2 0x4871 DUP3 PUSH2 0x532C JUMP JUMPDEST PUSH2 0x487B DUP2 DUP6 PUSH2 0x5360 JUMP JUMPDEST SWAP4 POP PUSH2 0x488B DUP2 DUP6 PUSH1 0x20 DUP7 ADD PUSH2 0x54A1 JUMP JUMPDEST PUSH2 0x4894 DUP2 PUSH2 0x56A1 JUMP JUMPDEST DUP5 ADD SWAP2 POP POP SWAP3 SWAP2 POP POP JUMP JUMPDEST PUSH2 0x48A8 DUP2 PUSH2 0x5480 JUMP JUMPDEST DUP3 MSTORE POP POP JUMP JUMPDEST PUSH1 0x0 PUSH2 0x48B9 DUP3 PUSH2 0x5337 JUMP JUMPDEST PUSH2 0x48C3 DUP2 DUP6 PUSH2 0x5371 JUMP JUMPDEST SWAP4 POP PUSH2 0x48D3 DUP2 DUP6 PUSH1 0x20 DUP7 ADD PUSH2 0x54A1 JUMP JUMPDEST PUSH2 0x48DC DUP2 PUSH2 0x56A1 JUMP JUMPDEST DUP5 ADD SWAP2 POP POP SWAP3 SWAP2 POP POP JUMP JUMPDEST PUSH1 0x0 PUSH2 0x48F4 PUSH1 0x34 DUP4 PUSH2 0x5371 JUMP JUMPDEST SWAP2 POP PUSH2 0x48FF DUP3 PUSH2 0x56BF JUMP JUMPDEST PUSH1 0x40 DUP3 ADD SWAP1 POP SWAP2 SWAP1 POP JUMP JUMPDEST PUSH1 0x0 PUSH2 0x4917 PUSH1 0x13 DUP4 PUSH2 0x5371 JUMP JUMPDEST SWAP2 POP PUSH2 0x4922 DUP3 PUSH2 0x570E JUMP JUMPDEST PUSH1 0x20 DUP3 ADD SWAP1 POP SWAP2 SWAP1 POP JUMP JUMPDEST PUSH1 0x0 PUSH2 0x493A PUSH1 0x28 DUP4 PUSH2 0x5371 JUMP JUMPDEST SWAP2 POP PUSH2 0x4945 DUP3 PUSH2 0x5737 JUMP JUMPDEST PUSH1 0x40 DUP3 ADD SWAP1 POP SWAP2 SWAP1 POP JUMP JUMPDEST PUSH1 0x0 PUSH2 0x495D PUSH1 0x14 DUP4 PUSH2 0x5371 JUMP JUMPDEST SWAP2 POP PUSH2 0x4968 DUP3 PUSH2 0x5786 JUMP JUMPDEST PUSH1 0x20 DUP3 ADD SWAP1 POP SWAP2 SWAP1 POP JUMP JUMPDEST PUSH1 0x0 PUSH2 0x4980 PUSH1 0x14 DUP4 PUSH2 0x5371 JUMP JUMPDEST SWAP2 POP PUSH2 0x498B DUP3 PUSH2 0x57AF JUMP JUMPDEST PUSH1 0x20 DUP3 ADD SWAP1 POP SWAP2 SWAP1 POP JUMP JUMPDEST PUSH1 0x0 PUSH2 0x49A3 PUSH1 0x11 DUP4 PUSH2 0x5371 JUMP JUMPDEST SWAP2 POP PUSH2 0x49AE DUP3 PUSH2 0x57D8 JUMP JUMPDEST PUSH1 0x20 DUP3 ADD SWAP1 POP SWAP2 SWAP1 POP JUMP JUMPDEST PUSH1 0x0 PUSH2 0x49C6 PUSH1 0x2B DUP4 PUSH2 0x5371 JUMP JUMPDEST SWAP2 POP PUSH2 0x49D1 DUP3 PUSH2 0x5801 JUMP JUMPDEST PUSH1 0x40 DUP3 ADD SWAP1 POP SWAP2 SWAP1 POP JUMP JUMPDEST PUSH1 0x0 PUSH2 0x49E9 PUSH1 0x26 DUP4 PUSH2 0x5371 JUMP JUMPDEST SWAP2 POP PUSH2 0x49F4 DUP3 PUSH2 0x5850 JUMP JUMPDEST PUSH1 0x40 DUP3 ADD SWAP1 POP SWAP2 SWAP1 POP JUMP JUMPDEST PUSH1 0x0 PUSH2 0x4A0C PUSH1 0x1C DUP4 PUSH2 0x5371 JUMP JUMPDEST SWAP2 POP PUSH2 0x4A17 DUP3 PUSH2 0x589F JUMP JUMPDEST PUSH1 0x20 DUP3 ADD SWAP1 POP SWAP2 SWAP1 POP JUMP JUMPDEST PUSH1 0x0 PUSH2 0x4A2F PUSH1 0x24 DUP4 PUSH2 0x5371 JUMP JUMPDEST SWAP2 POP PUSH2 0x4A3A DUP3 PUSH2 0x58C8 JUMP JUMPDEST PUSH1 0x40 DUP3 ADD SWAP1 POP SWAP2 SWAP1 POP JUMP JUMPDEST PUSH1 0x0 PUSH2 0x4A52 PUSH1 0x1E DUP4 PUSH2 0x5371 JUMP JUMPDEST SWAP2 POP PUSH2 0x4A5D DUP3 PUSH2 0x5917 JUMP JUMPDEST PUSH1 0x20 DUP3 ADD SWAP1 POP SWAP2 SWAP1 POP JUMP JUMPDEST PUSH1 0x0 PUSH2 0x4A75 PUSH1 0x29 DUP4 PUSH2 0x5371 JUMP JUMPDEST SWAP2 POP PUSH2 0x4A80 DUP3 PUSH2 0x5940 JUMP JUMPDEST PUSH1 0x40 DUP3 ADD SWAP1 POP SWAP2 SWAP1 POP JUMP JUMPDEST PUSH1 0x0 PUSH2 0x4A98 PUSH1 0x10 DUP4 PUSH2 0x5371 JUMP JUMPDEST SWAP2 POP PUSH2 0x4AA3 DUP3 PUSH2 0x598F JUMP JUMPDEST PUSH1 0x20 DUP3 ADD SWAP1 POP SWAP2 SWAP1 POP JUMP JUMPDEST PUSH1 0x0 PUSH2 0x4ABB PUSH1 0x10 DUP4 PUSH2 0x5371 JUMP JUMPDEST SWAP2 POP PUSH2 0x4AC6 DUP3 PUSH2 0x59B8 JUMP JUMPDEST PUSH1 0x20 DUP3 ADD SWAP1 POP SWAP2 SWAP1 POP JUMP JUMPDEST PUSH1 0x0 PUSH2 0x4ADE PUSH1 0x25 DUP4 PUSH2 0x5371 JUMP JUMPDEST SWAP2 POP PUSH2 0x4AE9 DUP3 PUSH2 0x59E1 JUMP JUMPDEST PUSH1 0x40 DUP3 ADD SWAP1 POP SWAP2 SWAP1 POP JUMP JUMPDEST PUSH1 0x0 PUSH2 0x4B01 PUSH1 0x32 DUP4 PUSH2 0x5371 JUMP JUMPDEST SWAP2 POP PUSH2 0x4B0C DUP3 PUSH2 0x5A30 JUMP JUMPDEST PUSH1 0x40 DUP3 ADD SWAP1 POP SWAP2 SWAP1 POP JUMP JUMPDEST PUSH1 0x0 PUSH2 0x4B24 PUSH1 0x23 DUP4 PUSH2 0x5371 JUMP JUMPDEST SWAP2 POP PUSH2 0x4B2F DUP3 PUSH2 0x5A7F JUMP JUMPDEST PUSH1 0x40 DUP3 ADD SWAP1 POP SWAP2 SWAP1 POP JUMP JUMPDEST PUSH1 0x0 PUSH2 0x4B47 PUSH1 0x2A DUP4 PUSH2 0x5371 JUMP JUMPDEST SWAP2 POP PUSH2 0x4B52 DUP3 PUSH2 0x5ACE JUMP JUMPDEST PUSH1 0x40 DUP3 ADD SWAP1 POP SWAP2 SWAP1 POP JUMP JUMPDEST PUSH1 0x0 PUSH2 0x4B6A PUSH1 0x21 DUP4 PUSH2 0x5371 JUMP JUMPDEST SWAP2 POP PUSH2 0x4B75 DUP3 PUSH2 0x5B1D JUMP JUMPDEST PUSH1 0x40 DUP3 ADD SWAP1 POP SWAP2 SWAP1 POP JUMP JUMPDEST PUSH1 0x0 PUSH2 0x4B8D PUSH1 0x20 DUP4 PUSH2 0x5371 JUMP JUMPDEST SWAP2 POP PUSH2 0x4B98 DUP3 PUSH2 0x5B6C JUMP JUMPDEST PUSH1 0x20 DUP3 ADD SWAP1 POP SWAP2 SWAP1 POP JUMP JUMPDEST PUSH1 0x0 PUSH2 0x4BB0 PUSH1 0x23 DUP4 PUSH2 0x5371 JUMP JUMPDEST SWAP2 POP PUSH2 0x4BBB DUP3 PUSH2 0x5B95 JUMP JUMPDEST PUSH1 0x40 DUP3 ADD SWAP1 POP SWAP2 SWAP1 POP JUMP JUMPDEST PUSH1 0x0 PUSH2 0x4BD3 PUSH1 0x15 DUP4 PUSH2 0x5371 JUMP JUMPDEST SWAP2 POP PUSH2 0x4BDE DUP3 PUSH2 0x5BE4 JUMP JUMPDEST PUSH1 0x20 DUP3 ADD SWAP1 POP SWAP2 SWAP1 POP JUMP JUMPDEST PUSH1 0x0 PUSH2 0x4BF6 PUSH1 0x29 DUP4 PUSH2 0x5371 JUMP JUMPDEST SWAP2 POP PUSH2 0x4C01 DUP3 PUSH2 0x5C0D JUMP JUMPDEST PUSH1 0x40 DUP3 ADD SWAP1 POP SWAP2 SWAP1 POP JUMP JUMPDEST PUSH1 0x0 PUSH2 0x4C19 PUSH1 0x29 DUP4 PUSH2 0x5371 JUMP JUMPDEST SWAP2 POP PUSH2 0x4C24 DUP3 PUSH2 0x5C5C JUMP JUMPDEST PUSH1 0x40 DUP3 ADD SWAP1 POP SWAP2 SWAP1 POP JUMP JUMPDEST PUSH1 0x0 PUSH2 0x4C3C PUSH1 0x28 DUP4 PUSH2 0x5371 JUMP JUMPDEST SWAP2 POP PUSH2 0x4C47 DUP3 PUSH2 0x5CAB JUMP JUMPDEST PUSH1 0x40 DUP3 ADD SWAP1 POP SWAP2 SWAP1 POP JUMP JUMPDEST PUSH1 0x0 PUSH2 0x4C5F PUSH1 0x21 DUP4 PUSH2 0x5371 JUMP JUMPDEST SWAP2 POP PUSH2 0x4C6A DUP3 PUSH2 0x5CFA JUMP JUMPDEST PUSH1 0x40 DUP3 ADD SWAP1 POP SWAP2 SWAP1 POP JUMP JUMPDEST PUSH2 0x4C7E DUP2 PUSH2 0x5476 JUMP JUMPDEST DUP3 MSTORE POP POP JUMP JUMPDEST PUSH2 0x4C8D DUP2 PUSH2 0x5476 JUMP JUMPDEST DUP3 MSTORE POP POP JUMP JUMPDEST PUSH1 0x0 PUSH1 0x20 DUP3 ADD SWAP1 POP PUSH2 0x4CA8 PUSH1 0x0 DUP4 ADD DUP5 PUSH2 0x47EA JUMP JUMPDEST SWAP3 SWAP2 POP POP JUMP JUMPDEST PUSH1 0x0 PUSH1 0xA0 DUP3 ADD SWAP1 POP PUSH2 0x4CC3 PUSH1 0x0 DUP4 ADD DUP9 PUSH2 0x47EA JUMP JUMPDEST PUSH2 0x4CD0 PUSH1 0x20 DUP4 ADD DUP8 PUSH2 0x47EA JUMP JUMPDEST DUP2 DUP2 SUB PUSH1 0x40 DUP4 ADD MSTORE PUSH2 0x4CE2 DUP2 DUP7 PUSH2 0x47F9 JUMP JUMPDEST SWAP1 POP DUP2 DUP2 SUB PUSH1 0x60 DUP4 ADD MSTORE PUSH2 0x4CF6 DUP2 DUP6 PUSH2 0x47F9 JUMP JUMPDEST SWAP1 POP DUP2 DUP2 SUB PUSH1 0x80 DUP4 ADD MSTORE PUSH2 0x4D0A DUP2 DUP5 PUSH2 0x4866 JUMP JUMPDEST SWAP1 POP SWAP7 SWAP6 POP POP POP POP POP POP JUMP JUMPDEST PUSH1 0x0 PUSH1 0xA0 DUP3 ADD SWAP1 POP PUSH2 0x4D2B PUSH1 0x0 DUP4 ADD DUP9 PUSH2 0x47EA JUMP JUMPDEST PUSH2 0x4D38 PUSH1 0x20 DUP4 ADD DUP8 PUSH2 0x47EA JUMP JUMPDEST PUSH2 0x4D45 PUSH1 0x40 DUP4 ADD DUP7 PUSH2 0x4C84 JUMP JUMPDEST PUSH2 0x4D52 PUSH1 0x60 DUP4 ADD DUP6 PUSH2 0x4C84 JUMP JUMPDEST DUP2 DUP2 SUB PUSH1 0x80 DUP4 ADD MSTORE PUSH2 0x4D64 DUP2 DUP5 PUSH2 0x4866 JUMP JUMPDEST SWAP1 POP SWAP7 SWAP6 POP POP POP POP POP POP JUMP JUMPDEST PUSH1 0x0 PUSH1 0x20 DUP3 ADD SWAP1 POP DUP2 DUP2 SUB PUSH1 0x0 DUP4 ADD MSTORE PUSH2 0x4D8A DUP2 DUP5 PUSH2 0x47F9 JUMP JUMPDEST SWAP1 POP SWAP3 SWAP2 POP POP JUMP JUMPDEST PUSH1 0x0 PUSH1 0x40 DUP3 ADD SWAP1 POP DUP2 DUP2 SUB PUSH1 0x0 DUP4 ADD MSTORE PUSH2 0x4DAC DUP2 DUP6 PUSH2 0x47F9 JUMP JUMPDEST SWAP1 POP DUP2 DUP2 SUB PUSH1 0x20 DUP4 ADD MSTORE PUSH2 0x4DC0 DUP2 DUP5 PUSH2 0x47F9 JUMP JUMPDEST SWAP1 POP SWAP4 SWAP3 POP POP POP JUMP JUMPDEST PUSH1 0x0 PUSH1 0x20 DUP3 ADD SWAP1 POP PUSH2 0x4DDE PUSH1 0x0 DUP4 ADD DUP5 PUSH2 0x4857 JUMP JUMPDEST SWAP3 SWAP2 POP POP JUMP JUMPDEST PUSH1 0x0 PUSH1 0x20 DUP3 ADD SWAP1 POP DUP2 DUP2 SUB PUSH1 0x0 DUP4 ADD MSTORE PUSH2 0x4DFE DUP2 DUP5 PUSH2 0x48AE JUMP JUMPDEST SWAP1 POP SWAP3 SWAP2 POP POP JUMP JUMPDEST PUSH1 0x0 PUSH1 0x20 DUP3 ADD SWAP1 POP DUP2 DUP2 SUB PUSH1 0x0 DUP4 ADD MSTORE PUSH2 0x4E1F DUP2 PUSH2 0x48E7 JUMP JUMPDEST SWAP1 POP SWAP2 SWAP1 POP JUMP JUMPDEST PUSH1 0x0 PUSH1 0x20 DUP3 ADD SWAP1 POP DUP2 DUP2 SUB PUSH1 0x0 DUP4 ADD MSTORE PUSH2 0x4E3F DUP2 PUSH2 0x490A JUMP JUMPDEST SWAP1 POP SWAP2 SWAP1 POP JUMP JUMPDEST PUSH1 0x0 PUSH1 0x20 DUP3 ADD SWAP1 POP DUP2 DUP2 SUB PUSH1 0x0 DUP4 ADD MSTORE PUSH2 0x4E5F DUP2 PUSH2 0x492D JUMP JUMPDEST SWAP1 POP SWAP2 SWAP1 POP JUMP JUMPDEST PUSH1 0x0 PUSH1 0x20 DUP3 ADD SWAP1 POP DUP2 DUP2 SUB PUSH1 0x0 DUP4 ADD MSTORE PUSH2 0x4E7F DUP2 PUSH2 0x4950 JUMP JUMPDEST SWAP1 POP SWAP2 SWAP1 POP JUMP JUMPDEST PUSH1 0x0 PUSH1 0x80 DUP3 ADD SWAP1 POP DUP2 DUP2 SUB PUSH1 0x0 DUP4 ADD MSTORE PUSH2 0x4E9F DUP2 PUSH2 0x4973 JUMP JUMPDEST SWAP1 POP PUSH2 0x4EAE PUSH1 0x20 DUP4 ADD DUP7 PUSH2 0x47EA JUMP JUMPDEST PUSH2 0x4EBB PUSH1 0x40 DUP4 ADD DUP6 PUSH2 0x489F JUMP JUMPDEST PUSH2 0x4EC8 PUSH1 0x60 DUP4 ADD DUP5 PUSH2 0x4C84 JUMP JUMPDEST SWAP5 SWAP4 POP POP POP POP JUMP JUMPDEST PUSH1 0x0 PUSH1 0x20 DUP3 ADD SWAP1 POP DUP2 DUP2 SUB PUSH1 0x0 DUP4 ADD MSTORE PUSH2 0x4EE9 DUP2 PUSH2 0x4996 JUMP JUMPDEST SWAP1 POP SWAP2 SWAP1 POP JUMP JUMPDEST PUSH1 0x0 PUSH1 0x20 DUP3 ADD SWAP1 POP DUP2 DUP2 SUB PUSH1 0x0 DUP4 ADD MSTORE PUSH2 0x4F09 DUP2 PUSH2 0x49B9 JUMP JUMPDEST SWAP1 POP SWAP2 SWAP1 POP JUMP JUMPDEST PUSH1 0x0 PUSH1 0x20 DUP3 ADD SWAP1 POP DUP2 DUP2 SUB PUSH1 0x0 DUP4 ADD MSTORE PUSH2 0x4F29 DUP2 PUSH2 0x49DC JUMP JUMPDEST SWAP1 POP SWAP2 SWAP1 POP JUMP JUMPDEST PUSH1 0x0 PUSH1 0x80 DUP3 ADD SWAP1 POP DUP2 DUP2 SUB PUSH1 0x0 DUP4 ADD MSTORE PUSH2 0x4F49 DUP2 PUSH2 0x49FF JUMP JUMPDEST SWAP1 POP PUSH2 0x4F58 PUSH1 0x20 DUP4 ADD DUP7 PUSH2 0x47EA JUMP JUMPDEST PUSH2 0x4F65 PUSH1 0x40 DUP4 ADD DUP6 PUSH2 0x489F JUMP JUMPDEST PUSH2 0x4F72 PUSH1 0x60 DUP4 ADD DUP5 PUSH2 0x4C84 JUMP JUMPDEST SWAP5 SWAP4 POP POP POP POP JUMP JUMPDEST PUSH1 0x0 PUSH1 0x20 DUP3 ADD SWAP1 POP DUP2 DUP2 SUB PUSH1 0x0 DUP4 ADD MSTORE PUSH2 0x4F93 DUP2 PUSH2 0x4A22 JUMP JUMPDEST SWAP1 POP SWAP2 SWAP1 POP JUMP JUMPDEST PUSH1 0x0 PUSH1 0x80 DUP3 ADD SWAP1 POP DUP2 DUP2 SUB PUSH1 0x0 DUP4 ADD MSTORE PUSH2 0x4FB3 DUP2 PUSH2 0x4A45 JUMP JUMPDEST SWAP1 POP PUSH2 0x4FC2 PUSH1 0x20 DUP4 ADD DUP7 PUSH2 0x47EA JUMP JUMPDEST PUSH2 0x4FCF PUSH1 0x40 DUP4 ADD DUP6 PUSH2 0x4C84 JUMP JUMPDEST PUSH2 0x4FDC PUSH1 0x60 DUP4 ADD DUP5 PUSH2 0x4C84 JUMP JUMPDEST SWAP5 SWAP4 POP POP POP POP JUMP JUMPDEST PUSH1 0x0 PUSH1 0x20 DUP3 ADD SWAP1 POP DUP2 DUP2 SUB PUSH1 0x0 DUP4 ADD MSTORE PUSH2 0x4FFD DUP2 PUSH2 0x4A68 JUMP JUMPDEST SWAP1 POP SWAP2 SWAP1 POP JUMP JUMPDEST PUSH1 0x0 PUSH1 0x20 DUP3 ADD SWAP1 POP DUP2 DUP2 SUB PUSH1 0x0 DUP4 ADD MSTORE PUSH2 0x501D DUP2 PUSH2 0x4A8B JUMP JUMPDEST SWAP1 POP SWAP2 SWAP1 POP JUMP JUMPDEST PUSH1 0x0 PUSH1 0x20 DUP3 ADD SWAP1 POP DUP2 DUP2 SUB PUSH1 0x0 DUP4 ADD MSTORE PUSH2 0x503D DUP2 PUSH2 0x4AAE JUMP JUMPDEST SWAP1 POP SWAP2 SWAP1 POP JUMP JUMPDEST PUSH1 0x0 PUSH1 0x20 DUP3 ADD SWAP1 POP DUP2 DUP2 SUB PUSH1 0x0 DUP4 ADD MSTORE PUSH2 0x505D DUP2 PUSH2 0x4AD1 JUMP JUMPDEST SWAP1 POP SWAP2 SWAP1 POP JUMP JUMPDEST PUSH1 0x0 PUSH1 0x20 DUP3 ADD SWAP1 POP DUP2 DUP2 SUB PUSH1 0x0 DUP4 ADD MSTORE PUSH2 0x507D DUP2 PUSH2 0x4AF4 JUMP JUMPDEST SWAP1 POP SWAP2 SWAP1 POP JUMP JUMPDEST PUSH1 0x0 PUSH1 0x20 DUP3 ADD SWAP1 POP DUP2 DUP2 SUB PUSH1 0x0 DUP4 ADD MSTORE PUSH2 0x509D DUP2 PUSH2 0x4B17 JUMP JUMPDEST SWAP1 POP SWAP2 SWAP1 POP JUMP JUMPDEST PUSH1 0x0 PUSH1 0x20 DUP3 ADD SWAP1 POP DUP2 DUP2 SUB PUSH1 0x0 DUP4 ADD MSTORE PUSH2 0x50BD DUP2 PUSH2 0x4B3A JUMP JUMPDEST SWAP1 POP SWAP2 SWAP1 POP JUMP JUMPDEST PUSH1 0x0 PUSH1 0x80 DUP3 ADD SWAP1 POP DUP2 DUP2 SUB PUSH1 0x0 DUP4 ADD MSTORE PUSH2 0x50DD DUP2 PUSH2 0x4B5D JUMP JUMPDEST SWAP1 POP PUSH2 0x50EC PUSH1 0x20 DUP4 ADD DUP7 PUSH2 0x47EA JUMP JUMPDEST PUSH2 0x50F9 PUSH1 0x40 DUP4 ADD DUP6 PUSH2 0x4C84 JUMP JUMPDEST PUSH2 0x5106 PUSH1 0x60 DUP4 ADD DUP5 PUSH2 0x4C84 JUMP JUMPDEST SWAP5 SWAP4 POP POP POP POP JUMP JUMPDEST PUSH1 0x0 PUSH1 0x20 DUP3 ADD SWAP1 POP DUP2 DUP2 SUB PUSH1 0x0 DUP4 ADD MSTORE PUSH2 0x5127 DUP2 PUSH2 0x4B80 JUMP JUMPDEST SWAP1 POP SWAP2 SWAP1 POP JUMP JUMPDEST PUSH1 0x0 PUSH1 0x20 DUP3 ADD SWAP1 POP DUP2 DUP2 SUB PUSH1 0x0 DUP4 ADD MSTORE PUSH2 0x5147 DUP2 PUSH2 0x4BA3 JUMP JUMPDEST SWAP1 POP SWAP2 SWAP1 POP JUMP JUMPDEST PUSH1 0x0 PUSH1 0x20 DUP3 ADD SWAP1 POP DUP2 DUP2 SUB PUSH1 0x0 DUP4 ADD MSTORE PUSH2 0x5167 DUP2 PUSH2 0x4BC6 JUMP JUMPDEST SWAP1 POP SWAP2 SWAP1 POP JUMP JUMPDEST PUSH1 0x0 PUSH1 0x20 DUP3 ADD SWAP1 POP DUP2 DUP2 SUB PUSH1 0x0 DUP4 ADD MSTORE PUSH2 0x5187 DUP2 PUSH2 0x4BE9 JUMP JUMPDEST SWAP1 POP SWAP2 SWAP1 POP JUMP JUMPDEST PUSH1 0x0 PUSH1 0x20 DUP3 ADD SWAP1 POP DUP2 DUP2 SUB PUSH1 0x0 DUP4 ADD MSTORE PUSH2 0x51A7 DUP2 PUSH2 0x4C0C JUMP JUMPDEST SWAP1 POP SWAP2 SWAP1 POP JUMP JUMPDEST PUSH1 0x0 PUSH1 0x20 DUP3 ADD SWAP1 POP DUP2 DUP2 SUB PUSH1 0x0 DUP4 ADD MSTORE PUSH2 0x51C7 DUP2 PUSH2 0x4C2F JUMP JUMPDEST SWAP1 POP SWAP2 SWAP1 POP JUMP JUMPDEST PUSH1 0x0 PUSH1 0x20 DUP3 ADD SWAP1 POP DUP2 DUP2 SUB PUSH1 0x0 DUP4 ADD MSTORE PUSH2 0x51E7 DUP2 PUSH2 0x4C52 JUMP JUMPDEST SWAP1 POP SWAP2 SWAP1 POP JUMP JUMPDEST PUSH1 0x0 PUSH1 0x20 DUP3 ADD SWAP1 POP PUSH2 0x5203 PUSH1 0x0 DUP4 ADD DUP5 PUSH2 0x4C84 JUMP JUMPDEST SWAP3 SWAP2 POP POP JUMP JUMPDEST PUSH1 0x0 PUSH1 0x40 DUP3 ADD SWAP1 POP PUSH2 0x521E PUSH1 0x0 DUP4 ADD DUP6 PUSH2 0x4C84 JUMP JUMPDEST PUSH2 0x522B PUSH1 0x20 DUP4 ADD DUP5 PUSH2 0x4C84 JUMP JUMPDEST SWAP4 SWAP3 POP POP POP JUMP JUMPDEST PUSH1 0x0 PUSH2 0x523C PUSH2 0x524D JUMP JUMPDEST SWAP1 POP PUSH2 0x5248 DUP3 DUP3 PUSH2 0x5530 JUMP JUMPDEST SWAP2 SWAP1 POP JUMP JUMPDEST PUSH1 0x0 PUSH1 0x40 MLOAD SWAP1 POP SWAP1 JUMP JUMPDEST PUSH1 0x0 PUSH8 0xFFFFFFFFFFFFFFFF DUP3 GT ISZERO PUSH2 0x5272 JUMPI PUSH2 0x5271 PUSH2 0x5637 JUMP JUMPDEST JUMPDEST PUSH1 0x20 DUP3 MUL SWAP1 POP PUSH1 0x20 DUP2 ADD SWAP1 POP SWAP2 SWAP1 POP JUMP JUMPDEST PUSH1 0x0 PUSH8 0xFFFFFFFFFFFFFFFF DUP3 GT ISZERO PUSH2 0x529E JUMPI PUSH2 0x529D PUSH2 0x5637 JUMP JUMPDEST JUMPDEST PUSH1 0x20 DUP3 MUL SWAP1 POP PUSH1 0x20 DUP2 ADD SWAP1 POP SWAP2 SWAP1 POP JUMP JUMPDEST PUSH1 0x0 PUSH8 0xFFFFFFFFFFFFFFFF DUP3 GT ISZERO PUSH2 0x52CA JUMPI PUSH2 0x52C9 PUSH2 0x5637 JUMP JUMPDEST JUMPDEST PUSH2 0x52D3 DUP3 PUSH2 0x56A1 JUMP JUMPDEST SWAP1 POP PUSH1 0x20 DUP2 ADD SWAP1 POP SWAP2 SWAP1 POP JUMP JUMPDEST PUSH1 0x0 PUSH8 0xFFFFFFFFFFFFFFFF DUP3 GT ISZERO PUSH2 0x52FB JUMPI PUSH2 0x52FA PUSH2 0x5637 JUMP JUMPDEST JUMPDEST PUSH2 0x5304 DUP3 PUSH2 0x56A1 JUMP JUMPDEST SWAP1 POP PUSH1 0x20 DUP2 ADD SWAP1 POP SWAP2 SWAP1 POP JUMP JUMPDEST PUSH1 0x0 DUP2 SWAP1 POP PUSH1 0x20 DUP3 ADD SWAP1 POP SWAP2 SWAP1 POP JUMP JUMPDEST PUSH1 0x0 DUP2 MLOAD SWAP1 POP SWAP2 SWAP1 POP JUMP JUMPDEST PUSH1 0x0 DUP2 MLOAD SWAP1 POP SWAP2 SWAP1 POP JUMP JUMPDEST PUSH1 0x0 DUP2 MLOAD SWAP1 POP SWAP2 SWAP1 POP JUMP JUMPDEST PUSH1 0x0 PUSH1 0x20 DUP3 ADD SWAP1 POP SWAP2 SWAP1 POP JUMP JUMPDEST PUSH1 0x0 DUP3 DUP3 MSTORE PUSH1 0x20 DUP3 ADD SWAP1 POP SWAP3 SWAP2 POP POP JUMP JUMPDEST PUSH1 0x0 DUP3 DUP3 MSTORE PUSH1 0x20 DUP3 ADD SWAP1 POP SWAP3 SWAP2 POP POP JUMP JUMPDEST PUSH1 0x0 DUP3 DUP3 MSTORE PUSH1 0x20 DUP3 ADD SWAP1 POP SWAP3 SWAP2 POP POP JUMP JUMPDEST PUSH1 0x0 PUSH2 0x538D DUP3 PUSH2 0x5476 JUMP JUMPDEST SWAP2 POP PUSH2 0x5398 DUP4 PUSH2 0x5476 JUMP JUMPDEST SWAP3 POP DUP3 PUSH32 0xFFFFFFFFFFFFFFFFFFFFFFFFFFFFFFFFFFFFFFFFFFFFFFFFFFFFFFFFFFFFFFFF SUB DUP3 GT ISZERO PUSH2 0x53CD JUMPI PUSH2 0x53CC PUSH2 0x55AA JUMP JUMPDEST JUMPDEST DUP3 DUP3 ADD SWAP1 POP SWAP3 SWAP2 POP POP JUMP JUMPDEST PUSH1 0x0 PUSH2 0x53E3 DUP3 PUSH2 0x5476 JUMP JUMPDEST SWAP2 POP PUSH2 0x53EE DUP4 PUSH2 0x5476 JUMP JUMPDEST SWAP3 POP DUP3 DUP3 LT ISZERO PUSH2 0x5401 JUMPI PUSH2 0x5400 PUSH2 0x55AA JUMP JUMPDEST JUMPDEST DUP3 DUP3 SUB SWAP1 POP SWAP3 SWAP2 POP POP JUMP JUMPDEST PUSH1 0x0 PUSH2 0x5417 DUP3 PUSH2 0x5456 JUMP JUMPDEST SWAP1 POP SWAP2 SWAP1 POP JUMP JUMPDEST PUSH1 0x0 DUP2 ISZERO ISZERO SWAP1 POP SWAP2 SWAP1 POP JUMP JUMPDEST PUSH1 0x0 PUSH32 0xFFFFFFFF00000000000000000000000000000000000000000000000000000000 DUP3 AND SWAP1 POP SWAP2 SWAP1 POP JUMP JUMPDEST PUSH1 0x0 PUSH20 0xFFFFFFFFFFFFFFFFFFFFFFFFFFFFFFFFFFFFFFFF DUP3 AND SWAP1 POP SWAP2 SWAP1 POP JUMP JUMPDEST PUSH1 0x0 DUP2 SWAP1 POP SWAP2 SWAP1 POP JUMP JUMPDEST PUSH1 0x0 PUSH2 0x548B DUP3 PUSH2 0x5476 JUMP JUMPDEST SWAP1 POP SWAP2 SWAP1 POP JUMP JUMPDEST DUP3 DUP2 DUP4 CALLDATACOPY PUSH1 0x0 DUP4 DUP4 ADD MSTORE POP POP POP JUMP JUMPDEST PUSH1 0x0 JUMPDEST DUP4 DUP2 LT ISZERO PUSH2 0x54BF JUMPI DUP1 DUP3 ADD MLOAD DUP2 DUP5 ADD MSTORE PUSH1 0x20 DUP2 ADD SWAP1 POP PUSH2 0x54A4 JUMP JUMPDEST DUP4 DUP2 GT ISZERO PUSH2 0x54CE JUMPI PUSH1 0x0 DUP5 DUP5 ADD MSTORE JUMPDEST POP POP POP POP JUMP JUMPDEST PUSH1 0x0 PUSH2 0x54DF DUP3 PUSH2 0x5476 JUMP JUMPDEST SWAP2 POP PUSH1 0x0 DUP3 EQ ISZERO PUSH2 0x54F3 JUMPI PUSH2 0x54F2 PUSH2 0x55AA JUMP JUMPDEST JUMPDEST PUSH1 0x1 DUP3 SUB SWAP1 POP SWAP2 SWAP1 POP JUMP JUMPDEST PUSH1 0x0 PUSH1 0x2 DUP3 DIV SWAP1 POP PUSH1 0x1 DUP3 AND DUP1 PUSH2 0x5516 JUMPI PUSH1 0x7F DUP3 AND SWAP2 POP JUMPDEST PUSH1 0x20 DUP3 LT DUP2 EQ ISZERO PUSH2 0x552A JUMPI PUSH2 0x5529 PUSH2 0x55D9 JUMP JUMPDEST JUMPDEST POP SWAP2 SWAP1 POP JUMP JUMPDEST PUSH2 0x5539 DUP3 PUSH2 0x56A1 JUMP JUMPDEST DUP2 ADD DUP2 DUP2 LT PUSH8 0xFFFFFFFFFFFFFFFF DUP3 GT OR ISZERO PUSH2 0x5558 JUMPI PUSH2 0x5557 PUSH2 0x5637 JUMP JUMPDEST JUMPDEST DUP1 PUSH1 0x40 MSTORE POP POP POP JUMP JUMPDEST PUSH1 0x0 PUSH2 0x556C DUP3 PUSH2 0x5476 JUMP JUMPDEST SWAP2 POP PUSH32 0xFFFFFFFFFFFFFFFFFFFFFFFFFFFFFFFFFFFFFFFFFFFFFFFFFFFFFFFFFFFFFFFF DUP3 EQ ISZERO PUSH2 0x559F JUMPI PUSH2 0x559E PUSH2 0x55AA JUMP JUMPDEST JUMPDEST PUSH1 0x1 DUP3 ADD SWAP1 POP SWAP2 SWAP1 POP JUMP JUMPDEST PUSH32 0x4E487B7100000000000000000000000000000000000000000000000000000000 PUSH1 0x0 MSTORE PUSH1 0x11 PUSH1 0x4 MSTORE PUSH1 0x24 PUSH1 0x0 REVERT JUMPDEST PUSH32 0x4E487B7100000000000000000000000000000000000000000000000000000000 PUSH1 0x0 MSTORE PUSH1 0x22 PUSH1 0x4 MSTORE PUSH1 0x24 PUSH1 0x0 REVERT JUMPDEST PUSH32 0x4E487B7100000000000000000000000000000000000000000000000000000000 PUSH1 0x0 MSTORE PUSH1 0x32 PUSH1 0x4 MSTORE PUSH1 0x24 PUSH1 0x0 REVERT JUMPDEST PUSH32 0x4E487B7100000000000000000000000000000000000000000000000000000000 PUSH1 0x0 MSTORE PUSH1 0x41 PUSH1 0x4 MSTORE PUSH1 0x24 PUSH1 0x0 REVERT JUMPDEST PUSH1 0x0 PUSH1 0x3 RETURNDATASIZE GT ISZERO PUSH2 0x5685 JUMPI PUSH1 0x4 PUSH1 0x0 DUP1 RETURNDATACOPY PUSH2 0x5682 PUSH1 0x0 MLOAD PUSH2 0x56B2 JUMP JUMPDEST SWAP1 POP JUMPDEST SWAP1 JUMP JUMPDEST PUSH1 0x0 DUP1 REVERT JUMPDEST PUSH1 0x0 DUP1 REVERT JUMPDEST PUSH1 0x0 DUP1 REVERT JUMPDEST PUSH1 0x0 DUP1 REVERT JUMPDEST PUSH1 0x0 DUP1 REVERT JUMPDEST PUSH1 0x0 PUSH1 0x1F NOT PUSH1 0x1F DUP4 ADD AND SWAP1 POP SWAP2 SWAP1 POP JUMP JUMPDEST PUSH1 0x0 DUP2 PUSH1 0xE0 SHR SWAP1 POP SWAP2 SWAP1 POP JUMP JUMPDEST PUSH32 0x455243313135353A207472616E7366657220746F206E6F6E2045524331313535 PUSH1 0x0 DUP3 ADD MSTORE PUSH32 0x526563656976657220696D706C656D656E746572000000000000000000000000 PUSH1 0x20 DUP3 ADD MSTORE POP JUMP JUMPDEST PUSH32 0x546F6B656E20646F65736E277420657869737400000000000000000000000000 PUSH1 0x0 DUP3 ADD MSTORE POP JUMP JUMPDEST PUSH32 0x455243313135353A204552433131353552656365697665722072656A65637465 PUSH1 0x0 DUP3 ADD MSTORE PUSH32 0x6420746F6B656E73000000000000000000000000000000000000000000000000 PUSH1 0x20 DUP3 ADD MSTORE POP JUMP JUMPDEST PUSH32 0x5061757361626C653A206E6F7420706175736564000000000000000000000000 PUSH1 0x0 DUP3 ADD MSTORE POP JUMP JUMPDEST PUSH32 0x4D6F64696665722076616C6964546F6B656E4964000000000000000000000000 PUSH1 0x0 DUP3 ADD MSTORE POP JUMP JUMPDEST PUSH32 0x4E6F7420656E6F75676820737570706C79000000000000000000000000000000 PUSH1 0x0 DUP3 ADD MSTORE POP JUMP JUMPDEST PUSH32 0x455243313135353A2062616C616E636520717565727920666F7220746865207A PUSH1 0x0 DUP3 ADD MSTORE PUSH32 0x65726F2061646472657373000000000000000000000000000000000000000000 PUSH1 0x20 DUP3 ADD MSTORE POP JUMP JUMPDEST PUSH32 0x4F776E61626C653A206E6577206F776E657220697320746865207A65726F2061 PUSH1 0x0 DUP3 ADD MSTORE PUSH32 0x6464726573730000000000000000000000000000000000000000000000000000 PUSH1 0x20 DUP3 ADD MSTORE POP JUMP JUMPDEST PUSH32 0x4D6F6469666572206F6E6C7957686974656C6973744164647265737300000000 PUSH1 0x0 DUP3 ADD MSTORE POP JUMP JUMPDEST PUSH32 0x455243313135353A206275726E20616D6F756E7420657863656564732062616C PUSH1 0x0 DUP3 ADD MSTORE PUSH32 0x616E636500000000000000000000000000000000000000000000000000000000 PUSH1 0x20 DUP3 ADD MSTORE POP JUMP JUMPDEST PUSH32 0x6164647265737320697320616C72656164792077686974656C69737465640000 PUSH1 0x0 DUP3 ADD MSTORE POP JUMP JUMPDEST PUSH32 0x455243313135353A2063616C6C6572206973206E6F74206F776E6572206E6F72 PUSH1 0x0 DUP3 ADD MSTORE PUSH32 0x20617070726F7665640000000000000000000000000000000000000000000000 PUSH1 0x20 DUP3 ADD MSTORE POP JUMP JUMPDEST PUSH32 0x457863656564206D6178537570706C7900000000000000000000000000000000 PUSH1 0x0 DUP3 ADD MSTORE POP JUMP JUMPDEST PUSH32 0x5061757361626C653A2070617573656400000000000000000000000000000000 PUSH1 0x0 DUP3 ADD MSTORE POP JUMP JUMPDEST PUSH32 0x455243313135353A207472616E7366657220746F20746865207A65726F206164 PUSH1 0x0 DUP3 ADD MSTORE PUSH32 0x6472657373000000000000000000000000000000000000000000000000000000 PUSH1 0x20 DUP3 ADD MSTORE POP JUMP JUMPDEST PUSH32 0x455243313135353A207472616E736665722063616C6C6572206973206E6F7420 PUSH1 0x0 DUP3 ADD MSTORE PUSH32 0x6F776E6572206E6F7220617070726F7665640000000000000000000000000000 PUSH1 0x20 DUP3 ADD MSTORE POP JUMP JUMPDEST PUSH32 0x455243313135353A206275726E2066726F6D20746865207A65726F2061646472 PUSH1 0x0 DUP3 ADD MSTORE PUSH32 0x6573730000000000000000000000000000000000000000000000000000000000 PUSH1 0x20 DUP3 ADD MSTORE POP JUMP JUMPDEST PUSH32 0x455243313135353A20696E73756666696369656E742062616C616E636520666F PUSH1 0x0 DUP3 ADD MSTORE PUSH32 0x72207472616E7366657200000000000000000000000000000000000000000000 PUSH1 0x20 DUP3 ADD MSTORE POP JUMP JUMPDEST PUSH32 0x416472657373206973206E6F7420616C72656164792077686974656C69737465 PUSH1 0x0 DUP3 ADD MSTORE PUSH32 0x6400000000000000000000000000000000000000000000000000000000000000 PUSH1 0x20 DUP3 ADD MSTORE POP JUMP JUMPDEST PUSH32 0x4F776E61626C653A2063616C6C6572206973206E6F7420746865206F776E6572 PUSH1 0x0 DUP3 ADD MSTORE POP JUMP JUMPDEST PUSH32 0x41646472657373206E6F742077686974656C69737465642E2043616E74206D69 PUSH1 0x0 DUP3 ADD MSTORE PUSH32 0x6E742E0000000000000000000000000000000000000000000000000000000000 PUSH1 0x20 DUP3 ADD MSTORE POP JUMP JUMPDEST PUSH32 0x4E6F7420656E6F7567682065746865722073656E740000000000000000000000 PUSH1 0x0 DUP3 ADD MSTORE POP JUMP JUMPDEST PUSH32 0x455243313135353A2073657474696E6720617070726F76616C20737461747573 PUSH1 0x0 DUP3 ADD MSTORE PUSH32 0x20666F722073656C660000000000000000000000000000000000000000000000 PUSH1 0x20 DUP3 ADD MSTORE POP JUMP JUMPDEST PUSH32 0x455243313135353A206163636F756E747320616E6420696473206C656E677468 PUSH1 0x0 DUP3 ADD MSTORE PUSH32 0x206D69736D617463680000000000000000000000000000000000000000000000 PUSH1 0x20 DUP3 ADD MSTORE POP JUMP JUMPDEST PUSH32 0x455243313135353A2069647320616E6420616D6F756E7473206C656E67746820 PUSH1 0x0 DUP3 ADD MSTORE PUSH32 0x6D69736D61746368000000000000000000000000000000000000000000000000 PUSH1 0x20 DUP3 ADD MSTORE POP JUMP JUMPDEST PUSH32 0x455243313135353A206D696E7420746F20746865207A65726F20616464726573 PUSH1 0x0 DUP3 ADD MSTORE PUSH32 0x7300000000000000000000000000000000000000000000000000000000000000 PUSH1 0x20 DUP3 ADD MSTORE POP JUMP JUMPDEST PUSH1 0x0 PUSH1 0x44 RETURNDATASIZE LT ISZERO PUSH2 0x5D59 JUMPI PUSH2 0x5DDC JUMP JUMPDEST PUSH2 0x5D61 PUSH2 0x524D JUMP JUMPDEST PUSH1 0x4 RETURNDATASIZE SUB PUSH1 0x4 DUP3 RETURNDATACOPY DUP1 MLOAD RETURNDATASIZE PUSH1 0x24 DUP3 ADD GT PUSH8 0xFFFFFFFFFFFFFFFF DUP3 GT OR ISZERO PUSH2 0x5D89 JUMPI POP POP PUSH2 0x5DDC JUMP JUMPDEST DUP1 DUP3 ADD DUP1 MLOAD PUSH8 0xFFFFFFFFFFFFFFFF DUP2 GT ISZERO PUSH2 0x5DA7 JUMPI POP POP POP POP PUSH2 0x5DDC JUMP JUMPDEST DUP1 PUSH1 0x20 DUP4 ADD ADD PUSH1 0x4 RETURNDATASIZE SUB DUP6 ADD DUP2 GT ISZERO PUSH2 0x5DC4 JUMPI POP POP POP POP POP PUSH2 0x5DDC JUMP JUMPDEST PUSH2 0x5DD3 DUP3 PUSH1 0x20 ADD DUP6 ADD DUP7 PUSH2 0x5530 JUMP JUMPDEST DUP3 SWAP6 POP POP POP POP POP POP JUMPDEST SWAP1 JUMP JUMPDEST PUSH2 0x5DE8 DUP2 PUSH2 0x540C JUMP JUMPDEST DUP2 EQ PUSH2 0x5DF3 JUMPI PUSH1 0x0 DUP1 REVERT JUMPDEST POP JUMP JUMPDEST PUSH2 0x5DFF DUP2 PUSH2 0x541E JUMP JUMPDEST DUP2 EQ PUSH2 0x5E0A JUMPI PUSH1 0x0 DUP1 REVERT JUMPDEST POP JUMP JUMPDEST PUSH2 0x5E16 DUP2 PUSH2 0x542A JUMP JUMPDEST DUP2 EQ PUSH2 0x5E21 JUMPI PUSH1 0x0 DUP1 REVERT JUMPDEST POP JUMP JUMPDEST PUSH2 0x5E2D DUP2 PUSH2 0x5476 JUMP JUMPDEST DUP2 EQ PUSH2 0x5E38 JUMPI PUSH1 0x0 DUP1 REVERT JUMPDEST POP JUMP INVALID LOG2 PUSH5 0x6970667358 0x22 SLT KECCAK256 SWAP1 DUP14 NOT MLOAD 0xAE SWAP6 SWAP14 0x29 SWAP10 0xAE PUSH13 0x4FF123E0B27A5B5CAA37466AB SWAP4 0xAF CALLVALUE PUSH14 0x4CBBC36964736F6C634300080700 CALLER "
		},
		"gasEstimates": {
			"creation": {
				"codeDepositCost": "4835400",
				"executionCost": "infinite",
				"totalCost": "infinite"
			},
			"external": {
				"IsWhitelisted(address)": "2887",
				"balanceOf(address,uint256)": "infinite",
				"balanceOfBatch(address[],uint256[])": "infinite",
				"batchRemoveWhitelist(address[],uint256)": "infinite",
				"batchWhitelistAddress(address[],uint256)": "infinite",
				"burn(address,uint256,uint256)": "infinite",
				"burn(uint256,uint256)": "infinite",
				"burnBatch(address,uint256[],uint256[])": "infinite",
				"burnBatch(uint256[],uint256[])": "infinite",
				"burnForMint(address,uint256[],uint256[],uint256[],uint256[])": "infinite",
				"contractBalance()": "2788",
				"exists(uint256)": "2903",
				"getWhitelistCount(uint256)": "infinite",
				"isApprovedForAll(address,address)": "infinite",
				"mintAll(address)": "infinite",
				"mintBatch(address,uint256[],uint256[])": "infinite",
				"name()": "infinite",
				"owner()": "2567",
				"pause()": "infinite",
				"paused()": "2596",
				"renounceOwnership()": "30485",
				"safeBatchTransferFrom(address,address,uint256[],uint256[],bytes)": "infinite",
				"safeTransferFrom(address,address,uint256,uint256,bytes)": "infinite",
				"setApprovalForAll(address,bool)": "infinite",
				"setURI(uint256,string)": "infinite",
				"supportsInterface(bytes4)": "842",
				"symbol()": "infinite",
				"tokenURI(uint256)": "infinite",
				"totalSupply(uint256)": "infinite",
				"transferOwnership(address)": "30833",
				"unpause()": "infinite",
				"uri(uint256)": "infinite",
				"whitelist(address)": "2903",
				"withdrawAll()": "infinite"
			},
			"internal": {
				"_RemoveWhitelist(address,uint256)": "infinite",
				"_beforeTokenTransfer(address,address,address,uint256[] memory,uint256[] memory,bytes memory)": "infinite",
				"mint(address,uint256)": "infinite"
			}
		},
		"methodIdentifiers": {
			"IsWhitelisted(address)": "2ae5d2f9",
			"balanceOf(address,uint256)": "00fdd58e",
			"balanceOfBatch(address[],uint256[])": "4e1273f4",
			"batchRemoveWhitelist(address[],uint256)": "50f787dc",
			"batchWhitelistAddress(address[],uint256)": "36576424",
			"burn(address,uint256,uint256)": "f5298aca",
			"burn(uint256,uint256)": "b390c0ab",
			"burnBatch(address,uint256[],uint256[])": "6b20c454",
			"burnBatch(uint256[],uint256[])": "83ca4b6f",
			"burnForMint(address,uint256[],uint256[],uint256[],uint256[])": "510f4104",
			"contractBalance()": "8b7afe2e",
			"exists(uint256)": "4f558e79",
			"getWhitelistCount(uint256)": "acb3180f",
			"isApprovedForAll(address,address)": "e985e9c5",
			"mintAll(address)": "56c88f5f",
			"mintBatch(address,uint256[],uint256[])": "d81d0a15",
			"name()": "06fdde03",
			"owner()": "8da5cb5b",
			"pause()": "8456cb59",
			"paused()": "5c975abb",
			"renounceOwnership()": "715018a6",
			"safeBatchTransferFrom(address,address,uint256[],uint256[],bytes)": "2eb2c2d6",
			"safeTransferFrom(address,address,uint256,uint256,bytes)": "f242432a",
			"setApprovalForAll(address,bool)": "a22cb465",
			"setURI(uint256,string)": "862440e2",
			"supportsInterface(bytes4)": "01ffc9a7",
			"symbol()": "95d89b41",
			"tokenURI(uint256)": "c87b56dd",
			"totalSupply(uint256)": "bd85b039",
			"transferOwnership(address)": "f2fde38b",
			"unpause()": "3f4ba83a",
			"uri(uint256)": "0e89341c",
			"whitelist(address)": "9b19251a",
			"withdrawAll()": "853828b6"
		}
	},
	"abi": [
		{
			"inputs": [],
			"stateMutability": "nonpayable",
			"type": "constructor"
		},
		{
			"anonymous": false,
			"inputs": [
				{
					"indexed": true,
					"internalType": "address",
					"name": "account",
					"type": "address"
				},
				{
					"indexed": true,
					"internalType": "address",
					"name": "operator",
					"type": "address"
				},
				{
					"indexed": false,
					"internalType": "bool",
					"name": "approved",
					"type": "bool"
				}
			],
			"name": "ApprovalForAll",
			"type": "event"
		},
		{
			"anonymous": false,
			"inputs": [
				{
					"indexed": false,
					"internalType": "string",
					"name": "msg",
					"type": "string"
				},
				{
					"indexed": false,
					"internalType": "address",
					"name": "_id",
					"type": "address"
				},
				{
					"indexed": false,
					"internalType": "uint256",
					"name": "count",
					"type": "uint256"
				},
				{
					"indexed": false,
					"internalType": "uint256",
					"name": "addressvalue",
					"type": "uint256"
				}
			],
			"name": "Log",
			"type": "event"
		},
		{
			"anonymous": false,
			"inputs": [
				{
					"indexed": true,
					"internalType": "address",
					"name": "previousOwner",
					"type": "address"
				},
				{
					"indexed": true,
					"internalType": "address",
					"name": "newOwner",
					"type": "address"
				}
			],
			"name": "OwnershipTransferred",
			"type": "event"
		},
		{
			"anonymous": false,
			"inputs": [
				{
					"indexed": false,
					"internalType": "address",
					"name": "account",
					"type": "address"
				}
			],
			"name": "Paused",
			"type": "event"
		},
		{
			"anonymous": false,
			"inputs": [
				{
					"indexed": true,
					"internalType": "address",
					"name": "operator",
					"type": "address"
				},
				{
					"indexed": true,
					"internalType": "address",
					"name": "from",
					"type": "address"
				},
				{
					"indexed": true,
					"internalType": "address",
					"name": "to",
					"type": "address"
				},
				{
					"indexed": false,
					"internalType": "uint256[]",
					"name": "ids",
					"type": "uint256[]"
				},
				{
					"indexed": false,
					"internalType": "uint256[]",
					"name": "values",
					"type": "uint256[]"
				}
			],
			"name": "TransferBatch",
			"type": "event"
		},
		{
			"anonymous": false,
			"inputs": [
				{
					"indexed": true,
					"internalType": "address",
					"name": "operator",
					"type": "address"
				},
				{
					"indexed": true,
					"internalType": "address",
					"name": "from",
					"type": "address"
				},
				{
					"indexed": true,
					"internalType": "address",
					"name": "to",
					"type": "address"
				},
				{
					"indexed": false,
					"internalType": "uint256",
					"name": "id",
					"type": "uint256"
				},
				{
					"indexed": false,
					"internalType": "uint256",
					"name": "value",
					"type": "uint256"
				}
			],
			"name": "TransferSingle",
			"type": "event"
		},
		{
			"anonymous": false,
			"inputs": [
				{
					"indexed": false,
					"internalType": "string",
					"name": "value",
					"type": "string"
				},
				{
					"indexed": true,
					"internalType": "uint256",
					"name": "id",
					"type": "uint256"
				}
			],
			"name": "URI",
			"type": "event"
		},
		{
			"anonymous": false,
			"inputs": [
				{
					"indexed": false,
					"internalType": "address",
					"name": "account",
					"type": "address"
				}
			],
			"name": "Unpaused",
			"type": "event"
		},
		{
			"inputs": [
				{
					"internalType": "address",
					"name": "_address",
					"type": "address"
				}
			],
			"name": "IsWhitelisted",
			"outputs": [
				{
					"internalType": "uint256",
					"name": "",
					"type": "uint256"
				}
			],
			"stateMutability": "view",
			"type": "function"
		},
		{
			"inputs": [
				{
					"internalType": "address",
					"name": "account",
					"type": "address"
				},
				{
					"internalType": "uint256",
					"name": "id",
					"type": "uint256"
				}
			],
			"name": "balanceOf",
			"outputs": [
				{
					"internalType": "uint256",
					"name": "",
					"type": "uint256"
				}
			],
			"stateMutability": "view",
			"type": "function"
		},
		{
			"inputs": [
				{
					"internalType": "address[]",
					"name": "accounts",
					"type": "address[]"
				},
				{
					"internalType": "uint256[]",
					"name": "ids",
					"type": "uint256[]"
				}
			],
			"name": "balanceOfBatch",
			"outputs": [
				{
					"internalType": "uint256[]",
					"name": "",
					"type": "uint256[]"
				}
			],
			"stateMutability": "view",
			"type": "function"
		},
		{
			"inputs": [
				{
					"internalType": "address[]",
					"name": "_addresses",
					"type": "address[]"
				},
				{
					"internalType": "uint256",
					"name": "_id",
					"type": "uint256"
				}
			],
			"name": "batchRemoveWhitelist",
			"outputs": [],
			"stateMutability": "nonpayable",
			"type": "function"
		},
		{
			"inputs": [
				{
					"internalType": "address[]",
					"name": "_addresses",
					"type": "address[]"
				},
				{
					"internalType": "uint256",
					"name": "_id",
					"type": "uint256"
				}
			],
			"name": "batchWhitelistAddress",
			"outputs": [],
			"stateMutability": "nonpayable",
			"type": "function"
		},
		{
			"inputs": [
				{
					"internalType": "uint256",
					"name": "_id",
					"type": "uint256"
				},
				{
					"internalType": "uint256",
					"name": "_amount",
					"type": "uint256"
				}
			],
			"name": "burn",
			"outputs": [],
			"stateMutability": "nonpayable",
			"type": "function"
		},
		{
			"inputs": [
				{
					"internalType": "address",
					"name": "account",
					"type": "address"
				},
				{
					"internalType": "uint256",
					"name": "id",
					"type": "uint256"
				},
				{
					"internalType": "uint256",
					"name": "value",
					"type": "uint256"
				}
			],
			"name": "burn",
			"outputs": [],
			"stateMutability": "nonpayable",
			"type": "function"
		},
		{
			"inputs": [
				{
					"internalType": "address",
					"name": "account",
					"type": "address"
				},
				{
					"internalType": "uint256[]",
					"name": "ids",
					"type": "uint256[]"
				},
				{
					"internalType": "uint256[]",
					"name": "values",
					"type": "uint256[]"
				}
			],
			"name": "burnBatch",
			"outputs": [],
			"stateMutability": "nonpayable",
			"type": "function"
		},
		{
			"inputs": [
				{
					"internalType": "uint256[]",
					"name": "_ids",
					"type": "uint256[]"
				},
				{
					"internalType": "uint256[]",
					"name": "_amounts",
					"type": "uint256[]"
				}
			],
			"name": "burnBatch",
			"outputs": [],
			"stateMutability": "nonpayable",
			"type": "function"
		},
		{
			"inputs": [
				{
					"internalType": "address",
					"name": "_from",
					"type": "address"
				},
				{
					"internalType": "uint256[]",
					"name": "_burnIds",
					"type": "uint256[]"
				},
				{
					"internalType": "uint256[]",
					"name": "_burnAmounts",
					"type": "uint256[]"
				},
				{
					"internalType": "uint256[]",
					"name": "_mintIds",
					"type": "uint256[]"
				},
				{
					"internalType": "uint256[]",
					"name": "_mintAmounts",
					"type": "uint256[]"
				}
			],
			"name": "burnForMint",
			"outputs": [],
			"stateMutability": "nonpayable",
			"type": "function"
		},
		{
			"inputs": [],
			"name": "contractBalance",
			"outputs": [
				{
					"internalType": "uint256",
					"name": "",
					"type": "uint256"
				}
			],
			"stateMutability": "view",
			"type": "function"
		},
		{
			"inputs": [
				{
					"internalType": "uint256",
					"name": "id",
					"type": "uint256"
				}
			],
			"name": "exists",
			"outputs": [
				{
					"internalType": "bool",
					"name": "",
					"type": "bool"
				}
			],
			"stateMutability": "view",
			"type": "function"
		},
		{
			"inputs": [
				{
					"internalType": "uint256",
					"name": "_id",
					"type": "uint256"
				}
			],
			"name": "getWhitelistCount",
			"outputs": [
				{
					"internalType": "uint256",
					"name": "",
					"type": "uint256"
				}
			],
			"stateMutability": "view",
			"type": "function"
		},
		{
			"inputs": [
				{
					"internalType": "address",
					"name": "account",
					"type": "address"
				},
				{
					"internalType": "address",
					"name": "operator",
					"type": "address"
				}
			],
			"name": "isApprovedForAll",
			"outputs": [
				{
					"internalType": "bool",
					"name": "",
					"type": "bool"
				}
			],
			"stateMutability": "view",
			"type": "function"
		},
		{
			"inputs": [
				{
					"internalType": "address",
					"name": "_to",
					"type": "address"
				}
			],
			"name": "mintAll",
			"outputs": [],
			"stateMutability": "payable",
			"type": "function"
		},
		{
			"inputs": [
				{
					"internalType": "address",
					"name": "_to",
					"type": "address"
				},
				{
					"internalType": "uint256[]",
					"name": "_ids",
					"type": "uint256[]"
				},
				{
					"internalType": "uint256[]",
					"name": "_amounts",
					"type": "uint256[]"
				}
			],
			"name": "mintBatch",
			"outputs": [],
			"stateMutability": "nonpayable",
			"type": "function"
		},
		{
			"inputs": [],
			"name": "name",
			"outputs": [
				{
					"internalType": "string",
					"name": "",
					"type": "string"
				}
			],
			"stateMutability": "view",
			"type": "function"
		},
		{
			"inputs": [],
			"name": "owner",
			"outputs": [
				{
					"internalType": "address",
					"name": "",
					"type": "address"
				}
			],
			"stateMutability": "view",
			"type": "function"
		},
		{
			"inputs": [],
			"name": "pause",
			"outputs": [],
			"stateMutability": "nonpayable",
			"type": "function"
		},
		{
			"inputs": [],
			"name": "paused",
			"outputs": [
				{
					"internalType": "bool",
					"name": "",
					"type": "bool"
				}
			],
			"stateMutability": "view",
			"type": "function"
		},
		{
			"inputs": [],
			"name": "renounceOwnership",
			"outputs": [],
			"stateMutability": "nonpayable",
			"type": "function"
		},
		{
			"inputs": [
				{
					"internalType": "address",
					"name": "from",
					"type": "address"
				},
				{
					"internalType": "address",
					"name": "to",
					"type": "address"
				},
				{
					"internalType": "uint256[]",
					"name": "ids",
					"type": "uint256[]"
				},
				{
					"internalType": "uint256[]",
					"name": "amounts",
					"type": "uint256[]"
				},
				{
					"internalType": "bytes",
					"name": "data",
					"type": "bytes"
				}
			],
			"name": "safeBatchTransferFrom",
			"outputs": [],
			"stateMutability": "nonpayable",
			"type": "function"
		},
		{
			"inputs": [
				{
					"internalType": "address",
					"name": "from",
					"type": "address"
				},
				{
					"internalType": "address",
					"name": "to",
					"type": "address"
				},
				{
					"internalType": "uint256",
					"name": "id",
					"type": "uint256"
				},
				{
					"internalType": "uint256",
					"name": "amount",
					"type": "uint256"
				},
				{
					"internalType": "bytes",
					"name": "data",
					"type": "bytes"
				}
			],
			"name": "safeTransferFrom",
			"outputs": [],
			"stateMutability": "nonpayable",
			"type": "function"
		},
		{
			"inputs": [
				{
					"internalType": "address",
					"name": "operator",
					"type": "address"
				},
				{
					"internalType": "bool",
					"name": "approved",
					"type": "bool"
				}
			],
			"name": "setApprovalForAll",
			"outputs": [],
			"stateMutability": "nonpayable",
			"type": "function"
		},
		{
			"inputs": [
				{
					"internalType": "uint256",
					"name": "_id",
					"type": "uint256"
				},
				{
					"internalType": "string",
					"name": "_uri",
					"type": "string"
				}
			],
			"name": "setURI",
			"outputs": [],
			"stateMutability": "nonpayable",
			"type": "function"
		},
		{
			"inputs": [
				{
					"internalType": "bytes4",
					"name": "interfaceId",
					"type": "bytes4"
				}
			],
			"name": "supportsInterface",
			"outputs": [
				{
					"internalType": "bool",
					"name": "",
					"type": "bool"
				}
			],
			"stateMutability": "view",
			"type": "function"
		},
		{
			"inputs": [],
			"name": "symbol",
			"outputs": [
				{
					"internalType": "string",
					"name": "",
					"type": "string"
				}
			],
			"stateMutability": "view",
			"type": "function"
		},
		{
			"inputs": [
				{
					"internalType": "uint256",
					"name": "",
					"type": "uint256"
				}
			],
			"name": "tokenURI",
			"outputs": [
				{
					"internalType": "string",
					"name": "",
					"type": "string"
				}
			],
			"stateMutability": "view",
			"type": "function"
		},
		{
			"inputs": [
				{
					"internalType": "uint256",
					"name": "id",
					"type": "uint256"
				}
			],
			"name": "totalSupply",
			"outputs": [
				{
					"internalType": "uint256",
					"name": "",
					"type": "uint256"
				}
			],
			"stateMutability": "view",
			"type": "function"
		},
		{
			"inputs": [
				{
					"internalType": "address",
					"name": "newOwner",
					"type": "address"
				}
			],
			"name": "transferOwnership",
			"outputs": [],
			"stateMutability": "nonpayable",
			"type": "function"
		},
		{
			"inputs": [],
			"name": "unpause",
			"outputs": [],
			"stateMutability": "nonpayable",
			"type": "function"
		},
		{
			"inputs": [
				{
					"internalType": "uint256",
					"name": "_id",
					"type": "uint256"
				}
			],
			"name": "uri",
			"outputs": [
				{
					"internalType": "string",
					"name": "",
					"type": "string"
				}
			],
			"stateMutability": "view",
			"type": "function"
		},
		{
			"inputs": [
				{
					"internalType": "address",
					"name": "",
					"type": "address"
				}
			],
			"name": "whitelist",
			"outputs": [
				{
					"internalType": "uint256",
					"name": "",
					"type": "uint256"
				}
			],
			"stateMutability": "view",
			"type": "function"
		},
		{
			"inputs": [],
			"name": "withdrawAll",
			"outputs": [],
			"stateMutability": "payable",
			"type": "function"
		}
	]
}