{
	"data": {
		"bytecode": {
			"linkReferences": {},
			"object": "60806040526040518060400160405280601881526020017f466f7274756e652054726561737572652048756e74696e6700000000000000008152506005908051906020019062000051929190620002a0565b506040518060400160405280610fa061ffff16815260200160fa61ffff1681525060069060026200008492919062000331565b506040518060400160405280600060ff168152602001600060ff168152506007906002620000b492919062000389565b50604051806040016040528066038d7ea4c6800066ffffffffffffff168152602001600066ffffffffffffff168152506008906002620000f6929190620003e0565b506040518060400160405280600060ff168152602001600060ff1681525060099060026200012692919062000389565b503480156200013457600080fd5b50604051806020016040528060008152506200015681620001b660201b60201c565b50620001776200016b620001d260201b60201c565b620001da60201b60201c565b6000600360146101000a81548160ff0219169083151502179055506005808054620001a290620004f4565b620001af9291906200043d565b5062000559565b8060029080519060200190620001ce929190620002a0565b5050565b600033905090565b6000600360009054906101000a900473ffffffffffffffffffffffffffffffffffffffff16905081600360006101000a81548173ffffffffffffffffffffffffffffffffffffffff021916908373ffffffffffffffffffffffffffffffffffffffff1602179055508173ffffffffffffffffffffffffffffffffffffffff168173ffffffffffffffffffffffffffffffffffffffff167f8be0079c531659141344cd1fd0a4f28419497f9722a3daafe3b4186f6b6457e060405160405180910390a35050565b828054620002ae90620004f4565b90600052602060002090601f016020900481019282620002d257600085556200031e565b82601f10620002ed57805160ff19168380011785556200031e565b828001600101855582156200031e579182015b828111156200031d57825182559160200191906001019062000300565b5b5090506200032d9190620004d5565b5090565b82805482825590600052602060002090810192821562000376579160200282015b8281111562000375578251829061ffff1690559160200191906001019062000352565b5b509050620003859190620004d5565b5090565b828054828255906000526020600020908101928215620003cd579160200282015b82811115620003cc578251829060ff16905591602001919060010190620003aa565b5b509050620003dc9190620004d5565b5090565b8280548282559060005260206000209081019282156200042a579160200282015b8281111562000429578251829066ffffffffffffff1690559160200191906001019062000401565b5b509050620004399190620004d5565b5090565b8280546200044b90620004f4565b90600052602060002090601f0160209004810192826200046f5760008555620004c2565b82601f10620004825780548555620004c2565b82800160010185558215620004c257600052602060002091601f016020900482015b82811115620004c1578254825591600101919060010190620004a4565b5b509050620004d19190620004d5565b5090565b5b80821115620004f0576000816000905550600101620004d6565b5090565b600060028204905060018216806200050d57607f821691505b602082108114156200052457620005236200052a565b5b50919050565b7f4e487b7100000000000000000000000000000000000000000000000000000000600052602260045260246000fd5b615f4b80620005696000396000f3fe6080604052600436106101ed5760003560e01c80638456cb591161010d578063b390c0ab116100a0578063d81d0a151161006f578063d81d0a15146106dc578063e985e9c514610705578063f242432a14610742578063f2fde38b1461076b578063f5298aca14610794576101ed565b8063b390c0ab14610610578063bd85b03914610639578063c87b56dd14610676578063ce71047c146106b3576101ed565b80638da5cb5b116100dc5780638da5cb5b146105425780639b19251a1461056d578063a22cb465146105aa578063acb3180f146105d3576101ed565b80638456cb59146104cd578063853828b6146104e4578063862440e2146104ee5780638b7afe2e14610517576101ed565b80634e1273f4116101855780636a627842116101545780636a627842146104485780636b20c45414610464578063715018a61461048d57806383ca4b6f146104a4576101ed565b80634e1273f41461037a5780634f558e79146103b7578063510f4104146103f45780635c975abb1461041d576101ed565b80632ae5d2f9116101c15780632ae5d2f9146102d45780632eb2c2d614610311578063365764241461033a5780633f4ba83a14610363576101ed565b8062fdd58e146101f257806301ffc9a71461022f57806306fdde031461026c5780630e89341c14610297575b600080fd5b3480156101fe57600080fd5b506102196004803603810190610214919061459d565b6107bd565b60405161022691906152bb565b60405180910390f35b34801561023b57600080fd5b506102566004803603810190610251919061477c565b610886565b6040516102639190614e96565b60405180910390f35b34801561027857600080fd5b50610281610968565b60405161028e9190614eb1565b60405180910390f35b3480156102a357600080fd5b506102be60048036038101906102b991906147d6565b6109f6565b6040516102cb9190614eb1565b60405180910390f35b3480156102e057600080fd5b506102fb60048036038101906102f69190614214565b610a9b565b60405161030891906152bb565b60405180910390f35b34801561031d57600080fd5b5061033860048036038101906103339190614281565b610ae4565b005b34801561034657600080fd5b50610361600480360381019061035c91906146a8565b610b85565b005b34801561036f57600080fd5b50610378611167565b005b34801561038657600080fd5b506103a1600480360381019061039c9190614630565b6111ed565b6040516103ae9190614e3d565b60405180910390f35b3480156103c357600080fd5b506103de60048036038101906103d991906147d6565b611306565b6040516103eb9190614e96565b60405180910390f35b34801561040057600080fd5b5061041b60048036038101906104169190614472565b61131a565b005b34801561042957600080fd5b506104326113c3565b60405161043f9190614e96565b60405180910390f35b610462600480360381019061045d9190614214565b6113da565b005b34801561047057600080fd5b5061048b600480360381019061048691906143e7565b6118ec565b005b34801561049957600080fd5b506104a2611989565b005b3480156104b057600080fd5b506104cb60048036038101906104c69190614704565b611a11565b005b3480156104d957600080fd5b506104e2611a20565b005b6104ec611aa6565b005b3480156104fa57600080fd5b5061051560048036038101906105109190614803565b611b6b565b005b34801561052357600080fd5b5061052c611c4b565b60405161053991906152bb565b60405180910390f35b34801561054e57600080fd5b50610557611ccf565b6040516105649190614d60565b60405180910390f35b34801561057957600080fd5b50610594600480360381019061058f9190614214565b611cf9565b6040516105a191906152bb565b60405180910390f35b3480156105b657600080fd5b506105d160048036038101906105cc919061455d565b611d11565b005b3480156105df57600080fd5b506105fa60048036038101906105f591906147d6565b611d27565b60405161060791906152bb565b60405180910390f35b34801561061c57600080fd5b506106376004803603810190610632919061485f565b611d5b565b005b34801561064557600080fd5b50610660600480360381019061065b91906147d6565b611d6a565b60405161066d91906152bb565b60405180910390f35b34801561068257600080fd5b5061069d600480360381019061069891906147d6565b611d87565b6040516106aa9190614eb1565b60405180910390f35b3480156106bf57600080fd5b506106da60048036038101906106d591906146a8565b611e27565b005b3480156106e857600080fd5b5061070360048036038101906106fe91906143e7565b61200d565b005b34801561071157600080fd5b5061072c60048036038101906107279190614241565b6120a9565b6040516107399190614e96565b60405180910390f35b34801561074e57600080fd5b5061076960048036038101906107649190614350565b61213d565b005b34801561077757600080fd5b50610792600480360381019061078d9190614214565b6121de565b005b3480156107a057600080fd5b506107bb60048036038101906107b691906145dd565b6122d6565b005b60008073ffffffffffffffffffffffffffffffffffffffff168373ffffffffffffffffffffffffffffffffffffffff16141561082e576040517f08c379a000000000000000000000000000000000000000000000000000000000815260040161082590614fbd565b60405180910390fd5b60008083815260200190815260200160002060008473ffffffffffffffffffffffffffffffffffffffff1673ffffffffffffffffffffffffffffffffffffffff16815260200190815260200160002054905092915050565b60007fd9b67a26000000000000000000000000000000000000000000000000000000007bffffffffffffffffffffffffffffffffffffffffffffffffffffffff1916827bffffffffffffffffffffffffffffffffffffffffffffffffffffffff1916148061095157507f0e89341c000000000000000000000000000000000000000000000000000000007bffffffffffffffffffffffffffffffffffffffffffffffffffffffff1916827bffffffffffffffffffffffffffffffffffffffffffffffffffffffff1916145b80610961575061096082612373565b5b9050919050565b60058054610975906155ae565b80601f01602080910402602001604051908101604052809291908181526020018280546109a1906155ae565b80156109ee5780601f106109c3576101008083540402835291602001916109ee565b820191906000526020600020905b8154815290600101906020018083116109d157829003601f168201915b505050505081565b6060600a60008381526020019081526020016000208054610a16906155ae565b80601f0160208091040260200160405190810160405280929190818152602001828054610a42906155ae565b8015610a8f5780601f10610a6457610100808354040283529160200191610a8f565b820191906000526020600020905b815481529060010190602001808311610a7257829003601f168201915b50505050509050919050565b6000600b60008373ffffffffffffffffffffffffffffffffffffffff1673ffffffffffffffffffffffffffffffffffffffff168152602001908152602001600020549050919050565b610aec6123dd565b73ffffffffffffffffffffffffffffffffffffffff168573ffffffffffffffffffffffffffffffffffffffff161480610b325750610b3185610b2c6123dd565b6120a9565b5b610b71576040517f08c379a0000000000000000000000000000000000000000000000000000000008152600401610b6890615131565b60405180910390fd5b610b7e85858585856123e5565b5050505050565b610b8d6123dd565b73ffffffffffffffffffffffffffffffffffffffff16610bab611ccf565b73ffffffffffffffffffffffffffffffffffffffff1614610c01576040517f08c379a0000000000000000000000000000000000000000000000000000000008152600401610bf8906151db565b60405180910390fd5b807fa2455ec11f160d321516c021994881e7678c0b5870cd7aae50107098770e2c28336000600b60003373ffffffffffffffffffffffffffffffffffffffff1673ffffffffffffffffffffffffffffffffffffffff16815260200190815260200160002054604051610c7593929190614f53565b60405180910390a16006805490508111158015610c925750600081115b610cd1576040517f08c379a0000000000000000000000000000000000000000000000000000000008152600401610cc890614ef3565b60405180910390fd5b60006040518060400160405280600060ff168152602001600060ff16815250905060005b8451811015610f23576000600b6000878481518110610d1757610d166156e2565b5b602002602001015173ffffffffffffffffffffffffffffffffffffffff1673ffffffffffffffffffffffffffffffffffffffff168152602001908152602001600020541415610e375783600b6000878481518110610d7857610d776156e2565b5b602002602001015173ffffffffffffffffffffffffffffffffffffffff1673ffffffffffffffffffffffffffffffffffffffff1681526020019081526020016000208190555081600185610dcc91906154a5565b60028110610ddd57610ddc6156e2565b5b602002018051809190610def9061565a565b60ff1660ff168152505060018414610e325781600060028110610e1557610e146156e2565b5b602002018051809190610e279061565a565b60ff1660ff16815250505b610f10565b7fa2455ec11f160d321516c021994881e7678c0b5870cd7aae50107098770e2c28858281518110610e6b57610e6a6156e2565b5b60200260200101516009600187610e8291906154a5565b81548110610e9357610e926156e2565b5b9060005260206000200154600b6000898681518110610eb557610eb46156e2565b5b602002602001015173ffffffffffffffffffffffffffffffffffffffff1673ffffffffffffffffffffffffffffffffffffffff16815260200190815260200160002054604051610f0793929190615067565b60405180910390a15b8080610f1b90615611565b915050610cf5565b506006600184610f3391906154a5565b81548110610f4457610f436156e2565b5b906000526020600020015481600185610f5d91906154a5565b60028110610f6e57610f6d6156e2565b5b602002015160ff166009600186610f8591906154a5565b81548110610f9657610f956156e2565b5b9060005260206000200154610fab919061544f565b1115610fec576040517f08c379a0000000000000000000000000000000000000000000000000000000008152600401610fe3906150d1565b60405180910390fd5b6006600184610ffb91906154a5565b8154811061100c5761100b6156e2565b5b90600052602060002001548160006002811061102b5761102a6156e2565b5b602002015160ff16600960018661104291906154a5565b81548110611053576110526156e2565b5b9060005260206000200154611068919061544f565b11156110a9576040517f08c379a00000000000000000000000000000000000000000000000000000000081526004016110a0906150d1565b60405180910390fd5b806001846110b791906154a5565b600281106110c8576110c76156e2565b5b602002015160ff1660096001856110df91906154a5565b815481106110f0576110ef6156e2565b5b906000526020600020016000828254611109919061544f565b9250508190555080600060028110611124576111236156e2565b5b602002015160ff166009600081548110611141576111406156e2565b5b90600052602060002001600082825461115a919061544f565b9250508190555050505050565b61116f6123dd565b73ffffffffffffffffffffffffffffffffffffffff1661118d611ccf565b73ffffffffffffffffffffffffffffffffffffffff16146111e3576040517f08c379a00000000000000000000000000000000000000000000000000000000081526004016111da906151db565b60405180910390fd5b6111eb6126f9565b565b60608151835114611233576040517f08c379a000000000000000000000000000000000000000000000000000000000815260040161122a9061525b565b60405180910390fd5b6000835167ffffffffffffffff8111156112505761124f615711565b5b60405190808252806020026020018201604052801561127e5781602001602082028036833780820191505090505b50905060005b84518110156112fb576112cb8582815181106112a3576112a26156e2565b5b60200260200101518583815181106112be576112bd6156e2565b5b60200260200101516107bd565b8282815181106112de576112dd6156e2565b5b602002602001018181525050806112f490615611565b9050611284565b508091505092915050565b60008061131283611d6a565b119050919050565b6113226123dd565b73ffffffffffffffffffffffffffffffffffffffff16611340611ccf565b73ffffffffffffffffffffffffffffffffffffffff1614611396576040517f08c379a000000000000000000000000000000000000000000000000000000000815260040161138d906151db565b60405180910390fd5b6113a185858561279b565b6113bc85838360405180602001604052806000815250612a4c565b5050505050565b6000600360149054906101000a900460ff16905090565b6113e26123dd565b73ffffffffffffffffffffffffffffffffffffffff16611400611ccf565b73ffffffffffffffffffffffffffffffffffffffff1614611456576040517f08c379a000000000000000000000000000000000000000000000000000000000815260040161144d906151db565b60405180910390fd5b61145e6113c3565b1561149e576040517f08c379a0000000000000000000000000000000000000000000000000000000008152600401611495906150f1565b60405180910390fd5b807fa2455ec11f160d321516c021994881e7678c0b5870cd7aae50107098770e2c28336000600b60003373ffffffffffffffffffffffffffffffffffffffff1673ffffffffffffffffffffffffffffffffffffffff1681526020019081526020016000205460405161151293929190614ffd565b60405180910390a16000600b60008373ffffffffffffffffffffffffffffffffffffffff1673ffffffffffffffffffffffffffffffffffffffff16815260200190815260200160002054141561159d576040517f08c379a0000000000000000000000000000000000000000000000000000000008152600401611594906151fb565b60405180910390fd5b60006115a883610a9b565b905060068054905081111580156115bf5750600081115b6115fe576040517f08c379a00000000000000000000000000000000000000000000000000000000081526004016115f590614ef3565b60405180910390fd5b600060018261160d91906154a5565b905060068181548110611623576116226156e2565b5b9060005260206000200154600160078381548110611644576116436156e2565b5b9060005260206000200154611659919061544f565b111561169a576040517f08c379a000000000000000000000000000000000000000000000000000000000815260040161169190614f9d565b60405180910390fd5b600881815481106116ae576116ad6156e2565b5b90600052602060002001543410156116fb576040517f08c379a00000000000000000000000000000000000000000000000000000000081526004016116f29061521b565b60405180910390fd5b6117178483600160405180602001604052806000815250612c6a565b6007818154811061172b5761172a6156e2565b5b90600052602060002001600081548092919061174690615611565b9190505550600182146118db57600060019050600680549050811115801561176e5750600081115b6117ad576040517f08c379a00000000000000000000000000000000000000000000000000000000081526004016117a490614ef3565b60405180910390fd5b60066001826117bc91906154a5565b815481106117cd576117cc6156e2565b5b9060005260206000200154600160076001846117e991906154a5565b815481106117fa576117f96156e2565b5b906000526020600020015461180f919061544f565b1115611850576040517f08c379a000000000000000000000000000000000000000000000000000000000815260040161184790614f9d565b60405180910390fd5b600860018261185f91906154a5565b815481106118705761186f6156e2565b5b90600052602060002001543410156118bd576040517f08c379a00000000000000000000000000000000000000000000000000000000081526004016118b49061521b565b60405180910390fd5b6118d98582600160405180602001604052806000815250612c6a565b505b6118e6846001612e00565b50505050565b6118f46123dd565b73ffffffffffffffffffffffffffffffffffffffff168373ffffffffffffffffffffffffffffffffffffffff16148061193a5750611939836119346123dd565b6120a9565b5b611979576040517f08c379a0000000000000000000000000000000000000000000000000000000008152600401611970906150b1565b60405180910390fd5b61198483838361279b565b505050565b6119916123dd565b73ffffffffffffffffffffffffffffffffffffffff166119af611ccf565b73ffffffffffffffffffffffffffffffffffffffff1614611a05576040517f08c379a00000000000000000000000000000000000000000000000000000000081526004016119fc906151db565b60405180910390fd5b611a0f600061312c565b565b611a1c33838361279b565b5050565b611a286123dd565b73ffffffffffffffffffffffffffffffffffffffff16611a46611ccf565b73ffffffffffffffffffffffffffffffffffffffff1614611a9c576040517f08c379a0000000000000000000000000000000000000000000000000000000008152600401611a93906151db565b60405180910390fd5b611aa46131f2565b565b611aae6123dd565b73ffffffffffffffffffffffffffffffffffffffff16611acc611ccf565b73ffffffffffffffffffffffffffffffffffffffff1614611b22576040517f08c379a0000000000000000000000000000000000000000000000000000000008152600401611b19906151db565b60405180910390fd5b3373ffffffffffffffffffffffffffffffffffffffff166108fc479081150290604051600060405180830381858888f19350505050158015611b68573d6000803e3d6000fd5b50565b611b736123dd565b73ffffffffffffffffffffffffffffffffffffffff16611b91611ccf565b73ffffffffffffffffffffffffffffffffffffffff1614611be7576040517f08c379a0000000000000000000000000000000000000000000000000000000008152600401611bde906151db565b60405180910390fd5b80600a60008481526020019081526020016000209080519060200190611c0e929190613eec565b50817f6bb7ff708619ba0610cba295a58592e0451dee2622938c8755667688daf3529b82604051611c3f9190614eb1565b60405180910390a25050565b6000611c556123dd565b73ffffffffffffffffffffffffffffffffffffffff16611c73611ccf565b73ffffffffffffffffffffffffffffffffffffffff1614611cc9576040517f08c379a0000000000000000000000000000000000000000000000000000000008152600401611cc0906151db565b60405180910390fd5b47905090565b6000600360009054906101000a900473ffffffffffffffffffffffffffffffffffffffff16905090565b600b6020528060005260406000206000915090505481565b611d23611d1c6123dd565b8383613295565b5050565b60006009600183611d3891906154a5565b81548110611d4957611d486156e2565b5b90600052602060002001549050919050565b611d66338383613402565b5050565b600060046000838152602001908152602001600020549050919050565b600a6020528060005260406000206000915090508054611da6906155ae565b80601f0160208091040260200160405190810160405280929190818152602001828054611dd2906155ae565b8015611e1f5780601f10611df457610100808354040283529160200191611e1f565b820191906000526020600020905b815481529060010190602001808311611e0257829003601f168201915b505050505081565b611e2f6123dd565b73ffffffffffffffffffffffffffffffffffffffff16611e4d611ccf565b73ffffffffffffffffffffffffffffffffffffffff1614611ea3576040517f08c379a0000000000000000000000000000000000000000000000000000000008152600401611e9a906151db565b60405180910390fd5b807fa2455ec11f160d321516c021994881e7678c0b5870cd7aae50107098770e2c28336000600b60003373ffffffffffffffffffffffffffffffffffffffff1673ffffffffffffffffffffffffffffffffffffffff16815260200190815260200160002054604051611f1793929190614f53565b60405180910390a16006805490508111158015611f345750600081115b611f73576040517f08c379a0000000000000000000000000000000000000000000000000000000008152600401611f6a90614ef3565b60405180910390fd5b6000805b8451811015611fc557611fa4858281518110611f9657611f956156e2565b5b602002602001015185612e00565b8180611faf90615611565b9250508080611fbd90615611565b915050611f77565b50806009600185611fd691906154a5565b81548110611fe757611fe66156e2565b5b90600052602060002001600082825461200091906154a5565b9250508190555050505050565b6120156123dd565b73ffffffffffffffffffffffffffffffffffffffff16612033611ccf565b73ffffffffffffffffffffffffffffffffffffffff1614612089576040517f08c379a0000000000000000000000000000000000000000000000000000000008152600401612080906151db565b60405180910390fd5b6120a483838360405180602001604052806000815250612a4c565b505050565b6000600160008473ffffffffffffffffffffffffffffffffffffffff1673ffffffffffffffffffffffffffffffffffffffff16815260200190815260200160002060008373ffffffffffffffffffffffffffffffffffffffff1673ffffffffffffffffffffffffffffffffffffffff16815260200190815260200160002060009054906101000a900460ff16905092915050565b6121456123dd565b73ffffffffffffffffffffffffffffffffffffffff168573ffffffffffffffffffffffffffffffffffffffff16148061218b575061218a856121856123dd565b6120a9565b5b6121ca576040517f08c379a00000000000000000000000000000000000000000000000000000000081526004016121c1906150b1565b60405180910390fd5b6121d7858585858561361f565b5050505050565b6121e66123dd565b73ffffffffffffffffffffffffffffffffffffffff16612204611ccf565b73ffffffffffffffffffffffffffffffffffffffff161461225a576040517f08c379a0000000000000000000000000000000000000000000000000000000008152600401612251906151db565b60405180910390fd5b600073ffffffffffffffffffffffffffffffffffffffff168173ffffffffffffffffffffffffffffffffffffffff1614156122ca576040517f08c379a00000000000000000000000000000000000000000000000000000000081526004016122c190614fdd565b60405180910390fd5b6122d38161312c565b50565b6122de6123dd565b73ffffffffffffffffffffffffffffffffffffffff168373ffffffffffffffffffffffffffffffffffffffff16148061232457506123238361231e6123dd565b6120a9565b5b612363576040517f08c379a000000000000000000000000000000000000000000000000000000000815260040161235a906150b1565b60405180910390fd5b61236e838383613402565b505050565b60007f01ffc9a7000000000000000000000000000000000000000000000000000000007bffffffffffffffffffffffffffffffffffffffffffffffffffffffff1916827bffffffffffffffffffffffffffffffffffffffffffffffffffffffff1916149050919050565b600033905090565b8151835114612429576040517f08c379a00000000000000000000000000000000000000000000000000000000081526004016124209061527b565b60405180910390fd5b600073ffffffffffffffffffffffffffffffffffffffff168473ffffffffffffffffffffffffffffffffffffffff161415612499576040517f08c379a000000000000000000000000000000000000000000000000000000000815260040161249090615111565b60405180910390fd5b60006124a36123dd565b90506124b38187878787876138a1565b60005b84518110156126645760008582815181106124d4576124d36156e2565b5b6020026020010151905060008583815181106124f3576124f26156e2565b5b60200260200101519050600080600084815260200190815260200160002060008b73ffffffffffffffffffffffffffffffffffffffff1673ffffffffffffffffffffffffffffffffffffffff16815260200190815260200160002054905081811015612594576040517f08c379a000000000000000000000000000000000000000000000000000000000815260040161258b90615171565b60405180910390fd5b81810360008085815260200190815260200160002060008c73ffffffffffffffffffffffffffffffffffffffff1673ffffffffffffffffffffffffffffffffffffffff168152602001908152602001600020819055508160008085815260200190815260200160002060008b73ffffffffffffffffffffffffffffffffffffffff1673ffffffffffffffffffffffffffffffffffffffff1681526020019081526020016000206000828254612649919061544f565b925050819055505050508061265d90615611565b90506124b6565b508473ffffffffffffffffffffffffffffffffffffffff168673ffffffffffffffffffffffffffffffffffffffff168273ffffffffffffffffffffffffffffffffffffffff167f4a39dc06d4c0dbc64b70af90fd698a233a518aa5d07e595d983b8c0526c8f7fb87876040516126db929190614e5f565b60405180910390a46126f18187878787876138ff565b505050505050565b6127016113c3565b612740576040517f08c379a000000000000000000000000000000000000000000000000000000000815260040161273790614f33565b60405180910390fd5b6000600360146101000a81548160ff0219169083151502179055507f5db9ee0a495bf2e6ff9c91a7834c1ba4fdd244a5e8aa4e537bd38aeae4b073aa6127846123dd565b6040516127919190614d60565b60405180910390a1565b600073ffffffffffffffffffffffffffffffffffffffff168373ffffffffffffffffffffffffffffffffffffffff16141561280b576040517f08c379a000000000000000000000000000000000000000000000000000000000815260040161280290615151565b60405180910390fd5b805182511461284f576040517f08c379a00000000000000000000000000000000000000000000000000000000081526004016128469061527b565b60405180910390fd5b60006128596123dd565b9050612879818560008686604051806020016040528060008152506138a1565b60005b83518110156129c657600084828151811061289a576128996156e2565b5b6020026020010151905060008483815181106128b9576128b86156e2565b5b60200260200101519050600080600084815260200190815260200160002060008973ffffffffffffffffffffffffffffffffffffffff1673ffffffffffffffffffffffffffffffffffffffff1681526020019081526020016000205490508181101561295a576040517f08c379a000000000000000000000000000000000000000000000000000000000815260040161295190615047565b60405180910390fd5b81810360008085815260200190815260200160002060008a73ffffffffffffffffffffffffffffffffffffffff1673ffffffffffffffffffffffffffffffffffffffff1681526020019081526020016000208190555050505080806129be90615611565b91505061287c565b50600073ffffffffffffffffffffffffffffffffffffffff168473ffffffffffffffffffffffffffffffffffffffff168273ffffffffffffffffffffffffffffffffffffffff167f4a39dc06d4c0dbc64b70af90fd698a233a518aa5d07e595d983b8c0526c8f7fb8686604051612a3e929190614e5f565b60405180910390a450505050565b600073ffffffffffffffffffffffffffffffffffffffff168473ffffffffffffffffffffffffffffffffffffffff161415612abc576040517f08c379a0000000000000000000000000000000000000000000000000000000008152600401612ab39061529b565b60405180910390fd5b8151835114612b00576040517f08c379a0000000000000000000000000000000000000000000000000000000008152600401612af79061527b565b60405180910390fd5b6000612b0a6123dd565b9050612b1b816000878787876138a1565b60005b8451811015612bd457838181518110612b3a57612b396156e2565b5b6020026020010151600080878481518110612b5857612b576156e2565b5b6020026020010151815260200190815260200160002060008873ffffffffffffffffffffffffffffffffffffffff1673ffffffffffffffffffffffffffffffffffffffff1681526020019081526020016000206000828254612bba919061544f565b925050819055508080612bcc90615611565b915050612b1e565b508473ffffffffffffffffffffffffffffffffffffffff16600073ffffffffffffffffffffffffffffffffffffffff168273ffffffffffffffffffffffffffffffffffffffff167f4a39dc06d4c0dbc64b70af90fd698a233a518aa5d07e595d983b8c0526c8f7fb8787604051612c4c929190614e5f565b60405180910390a4612c63816000878787876138ff565b5050505050565b600073ffffffffffffffffffffffffffffffffffffffff168473ffffffffffffffffffffffffffffffffffffffff161415612cda576040517f08c379a0000000000000000000000000000000000000000000000000000000008152600401612cd19061529b565b60405180910390fd5b6000612ce46123dd565b9050612d0581600087612cf688613ae6565b612cff88613ae6565b876138a1565b8260008086815260200190815260200160002060008773ffffffffffffffffffffffffffffffffffffffff1673ffffffffffffffffffffffffffffffffffffffff1681526020019081526020016000206000828254612d64919061544f565b925050819055508473ffffffffffffffffffffffffffffffffffffffff16600073ffffffffffffffffffffffffffffffffffffffff168273ffffffffffffffffffffffffffffffffffffffff167fc3d58168c5ae7397731d063d5bbf3d657854427343f4c083240f7aacaa2d0f628787604051612de29291906152d6565b60405180910390a4612df981600087878787613b60565b5050505050565b612e086123dd565b73ffffffffffffffffffffffffffffffffffffffff16612e26611ccf565b73ffffffffffffffffffffffffffffffffffffffff1614612e7c576040517f08c379a0000000000000000000000000000000000000000000000000000000008152600401612e73906151db565b60405180910390fd5b807fa2455ec11f160d321516c021994881e7678c0b5870cd7aae50107098770e2c28336000600b60003373ffffffffffffffffffffffffffffffffffffffff1673ffffffffffffffffffffffffffffffffffffffff16815260200190815260200160002054604051612ef093929190614f53565b60405180910390a16006805490508111158015612f0d5750600081115b612f4c576040517f08c379a0000000000000000000000000000000000000000000000000000000008152600401612f4390614ef3565b60405180910390fd5b600080600b60008673ffffffffffffffffffffffffffffffffffffffff1673ffffffffffffffffffffffffffffffffffffffff1681526020019081526020016000205414613040576001831415612fe7576000600b60008673ffffffffffffffffffffffffffffffffffffffff1673ffffffffffffffffffffffffffffffffffffffff1681526020019081526020016000208190555061302d565b6001600b60008673ffffffffffffffffffffffffffffffffffffffff1673ffffffffffffffffffffffffffffffffffffffff168152602001908152602001600020819055505b808061303890615611565b9150506130e5565b7fa2455ec11f160d321516c021994881e7678c0b5870cd7aae50107098770e2c2884600960018661307191906154a5565b81548110613082576130816156e2565b5b9060005260206000200154600b60008873ffffffffffffffffffffffffffffffffffffffff1673ffffffffffffffffffffffffffffffffffffffff168152602001908152602001600020546040516130dc93929190615191565b60405180910390a15b8060096001856130f591906154a5565b81548110613106576131056156e2565b5b90600052602060002001600082825461311f91906154a5565b9250508190555050505050565b6000600360009054906101000a900473ffffffffffffffffffffffffffffffffffffffff16905081600360006101000a81548173ffffffffffffffffffffffffffffffffffffffff021916908373ffffffffffffffffffffffffffffffffffffffff1602179055508173ffffffffffffffffffffffffffffffffffffffff168173ffffffffffffffffffffffffffffffffffffffff167f8be0079c531659141344cd1fd0a4f28419497f9722a3daafe3b4186f6b6457e060405160405180910390a35050565b6131fa6113c3565b1561323a576040517f08c379a0000000000000000000000000000000000000000000000000000000008152600401613231906150f1565b60405180910390fd5b6001600360146101000a81548160ff0219169083151502179055507f62e78cea01bee320cd4e420270b5ea74000d11b0c9f74754ebdbfc544b05a25861327e6123dd565b60405161328b9190614d60565b60405180910390a1565b8173ffffffffffffffffffffffffffffffffffffffff168373ffffffffffffffffffffffffffffffffffffffff161415613304576040517f08c379a00000000000000000000000000000000000000000000000000000000081526004016132fb9061523b565b60405180910390fd5b80600160008573ffffffffffffffffffffffffffffffffffffffff1673ffffffffffffffffffffffffffffffffffffffff16815260200190815260200160002060008473ffffffffffffffffffffffffffffffffffffffff1673ffffffffffffffffffffffffffffffffffffffff16815260200190815260200160002060006101000a81548160ff0219169083151502179055508173ffffffffffffffffffffffffffffffffffffffff168373ffffffffffffffffffffffffffffffffffffffff167f17307eab39ab6107e8899845ad3d59bd9653f200f220920489ca2b5937696c31836040516133f59190614e96565b60405180910390a3505050565b600073ffffffffffffffffffffffffffffffffffffffff168373ffffffffffffffffffffffffffffffffffffffff161415613472576040517f08c379a000000000000000000000000000000000000000000000000000000000815260040161346990615151565b60405180910390fd5b600061347c6123dd565b90506134ac8185600061348e87613ae6565b61349787613ae6565b604051806020016040528060008152506138a1565b600080600085815260200190815260200160002060008673ffffffffffffffffffffffffffffffffffffffff1673ffffffffffffffffffffffffffffffffffffffff16815260200190815260200160002054905082811015613543576040517f08c379a000000000000000000000000000000000000000000000000000000000815260040161353a90615047565b60405180910390fd5b82810360008086815260200190815260200160002060008773ffffffffffffffffffffffffffffffffffffffff1673ffffffffffffffffffffffffffffffffffffffff16815260200190815260200160002081905550600073ffffffffffffffffffffffffffffffffffffffff168573ffffffffffffffffffffffffffffffffffffffff168373ffffffffffffffffffffffffffffffffffffffff167fc3d58168c5ae7397731d063d5bbf3d657854427343f4c083240f7aacaa2d0f6287876040516136109291906152d6565b60405180910390a45050505050565b600073ffffffffffffffffffffffffffffffffffffffff168473ffffffffffffffffffffffffffffffffffffffff16141561368f576040517f08c379a000000000000000000000000000000000000000000000000000000000815260040161368690615111565b60405180910390fd5b60006136996123dd565b90506136b98187876136aa88613ae6565b6136b388613ae6565b876138a1565b600080600086815260200190815260200160002060008873ffffffffffffffffffffffffffffffffffffffff1673ffffffffffffffffffffffffffffffffffffffff16815260200190815260200160002054905083811015613750576040517f08c379a000000000000000000000000000000000000000000000000000000000815260040161374790615171565b60405180910390fd5b83810360008087815260200190815260200160002060008973ffffffffffffffffffffffffffffffffffffffff1673ffffffffffffffffffffffffffffffffffffffff168152602001908152602001600020819055508360008087815260200190815260200160002060008873ffffffffffffffffffffffffffffffffffffffff1673ffffffffffffffffffffffffffffffffffffffff1681526020019081526020016000206000828254613805919061544f565b925050819055508573ffffffffffffffffffffffffffffffffffffffff168773ffffffffffffffffffffffffffffffffffffffff168373ffffffffffffffffffffffffffffffffffffffff167fc3d58168c5ae7397731d063d5bbf3d657854427343f4c083240f7aacaa2d0f6288886040516138829291906152d6565b60405180910390a4613898828888888888613b60565b50505050505050565b6138a96113c3565b156138e9576040517f08c379a00000000000000000000000000000000000000000000000000000000081526004016138e0906150f1565b60405180910390fd5b6138f7868686868686613d47565b505050505050565b61391e8473ffffffffffffffffffffffffffffffffffffffff16613ec1565b15613ade578373ffffffffffffffffffffffffffffffffffffffff1663bc197c8187878686866040518663ffffffff1660e01b8152600401613964959493929190614d7b565b602060405180830381600087803b15801561397e57600080fd5b505af19250505080156139af57506040513d601f19601f820116820180604052508101906139ac91906147a9565b60015b613a55576139bb615740565b806308c379a01415613a1857506139d0615e23565b806139db5750613a1a565b806040517f08c379a0000000000000000000000000000000000000000000000000000000008152600401613a0f9190614eb1565b60405180910390fd5b505b6040517f08c379a0000000000000000000000000000000000000000000000000000000008152600401613a4c90614ed3565b60405180910390fd5b63bc197c8160e01b7bffffffffffffffffffffffffffffffffffffffffffffffffffffffff1916817bffffffffffffffffffffffffffffffffffffffffffffffffffffffff191614613adc576040517f08c379a0000000000000000000000000000000000000000000000000000000008152600401613ad390614f13565b60405180910390fd5b505b505050505050565b60606000600167ffffffffffffffff811115613b0557613b04615711565b5b604051908082528060200260200182016040528015613b335781602001602082028036833780820191505090505b5090508281600081518110613b4b57613b4a6156e2565b5b60200260200101818152505080915050919050565b613b7f8473ffffffffffffffffffffffffffffffffffffffff16613ec1565b15613d3f578373ffffffffffffffffffffffffffffffffffffffff1663f23a6e6187878686866040518663ffffffff1660e01b8152600401613bc5959493929190614de3565b602060405180830381600087803b158015613bdf57600080fd5b505af1925050508015613c1057506040513d601f19601f82011682018060405250810190613c0d91906147a9565b60015b613cb657613c1c615740565b806308c379a01415613c795750613c31615e23565b80613c3c5750613c7b565b806040517f08c379a0000000000000000000000000000000000000000000000000000000008152600401613c709190614eb1565b60405180910390fd5b505b6040517f08c379a0000000000000000000000000000000000000000000000000000000008152600401613cad90614ed3565b60405180910390fd5b63f23a6e6160e01b7bffffffffffffffffffffffffffffffffffffffffffffffffffffffff1916817bffffffffffffffffffffffffffffffffffffffffffffffffffffffff191614613d3d576040517f08c379a0000000000000000000000000000000000000000000000000000000008152600401613d3490614f13565b60405180910390fd5b505b505050505050565b613d55868686868686613ee4565b600073ffffffffffffffffffffffffffffffffffffffff168573ffffffffffffffffffffffffffffffffffffffff161415613e075760005b8351811015613e0557828181518110613da957613da86156e2565b5b602002602001015160046000868481518110613dc857613dc76156e2565b5b602002602001015181526020019081526020016000206000828254613ded919061544f565b9250508190555080613dfe90615611565b9050613d8d565b505b600073ffffffffffffffffffffffffffffffffffffffff168473ffffffffffffffffffffffffffffffffffffffff161415613eb95760005b8351811015613eb757828181518110613e5b57613e5a6156e2565b5b602002602001015160046000868481518110613e7a57613e796156e2565b5b602002602001015181526020019081526020016000206000828254613e9f91906154a5565b9250508190555080613eb090615611565b9050613e3f565b505b505050505050565b6000808273ffffffffffffffffffffffffffffffffffffffff163b119050919050565b505050505050565b828054613ef8906155ae565b90600052602060002090601f016020900481019282613f1a5760008555613f61565b82601f10613f3357805160ff1916838001178555613f61565b82800160010185558215613f61579182015b82811115613f60578251825591602001919060010190613f45565b5b509050613f6e9190613f72565b5090565b5b80821115613f8b576000816000905550600101613f73565b5090565b6000613fa2613f9d84615324565b6152ff565b90508083825260208201905082856020860282011115613fc557613fc4615767565b5b60005b85811015613ff55781613fdb88826140f3565b845260208401935060208301925050600181019050613fc8565b5050509392505050565b600061401261400d84615350565b6152ff565b9050808382526020820190508285602086028201111561403557614034615767565b5b60005b85811015614065578161404b88826141ff565b845260208401935060208301925050600181019050614038565b5050509392505050565b600061408261407d8461537c565b6152ff565b90508281526020810184848401111561409e5761409d61576c565b5b6140a984828561556c565b509392505050565b60006140c46140bf846153ad565b6152ff565b9050828152602081018484840111156140e0576140df61576c565b5b6140eb84828561556c565b509392505050565b60008135905061410281615eb9565b92915050565b600082601f83011261411d5761411c615762565b5b813561412d848260208601613f8f565b91505092915050565b600082601f83011261414b5761414a615762565b5b813561415b848260208601613fff565b91505092915050565b60008135905061417381615ed0565b92915050565b60008135905061418881615ee7565b92915050565b60008151905061419d81615ee7565b92915050565b600082601f8301126141b8576141b7615762565b5b81356141c884826020860161406f565b91505092915050565b600082601f8301126141e6576141e5615762565b5b81356141f68482602086016140b1565b91505092915050565b60008135905061420e81615efe565b92915050565b60006020828403121561422a57614229615776565b5b6000614238848285016140f3565b91505092915050565b6000806040838503121561425857614257615776565b5b6000614266858286016140f3565b9250506020614277858286016140f3565b9150509250929050565b600080600080600060a0868803121561429d5761429c615776565b5b60006142ab888289016140f3565b95505060206142bc888289016140f3565b945050604086013567ffffffffffffffff8111156142dd576142dc615771565b5b6142e988828901614136565b935050606086013567ffffffffffffffff81111561430a57614309615771565b5b61431688828901614136565b925050608086013567ffffffffffffffff81111561433757614336615771565b5b614343888289016141a3565b9150509295509295909350565b600080600080600060a0868803121561436c5761436b615776565b5b600061437a888289016140f3565b955050602061438b888289016140f3565b945050604061439c888289016141ff565b93505060606143ad888289016141ff565b925050608086013567ffffffffffffffff8111156143ce576143cd615771565b5b6143da888289016141a3565b9150509295509295909350565b600080600060608486031215614400576143ff615776565b5b600061440e868287016140f3565b935050602084013567ffffffffffffffff81111561442f5761442e615771565b5b61443b86828701614136565b925050604084013567ffffffffffffffff81111561445c5761445b615771565b5b61446886828701614136565b9150509250925092565b600080600080600060a0868803121561448e5761448d615776565b5b600061449c888289016140f3565b955050602086013567ffffffffffffffff8111156144bd576144bc615771565b5b6144c988828901614136565b945050604086013567ffffffffffffffff8111156144ea576144e9615771565b5b6144f688828901614136565b935050606086013567ffffffffffffffff81111561451757614516615771565b5b61452388828901614136565b925050608086013567ffffffffffffffff81111561454457614543615771565b5b61455088828901614136565b9150509295509295909350565b6000806040838503121561457457614573615776565b5b6000614582858286016140f3565b925050602061459385828601614164565b9150509250929050565b600080604083850312156145b4576145b3615776565b5b60006145c2858286016140f3565b92505060206145d3858286016141ff565b9150509250929050565b6000806000606084860312156145f6576145f5615776565b5b6000614604868287016140f3565b9350506020614615868287016141ff565b9250506040614626868287016141ff565b9150509250925092565b6000806040838503121561464757614646615776565b5b600083013567ffffffffffffffff81111561466557614664615771565b5b61467185828601614108565b925050602083013567ffffffffffffffff81111561469257614691615771565b5b61469e85828601614136565b9150509250929050565b600080604083850312156146bf576146be615776565b5b600083013567ffffffffffffffff8111156146dd576146dc615771565b5b6146e985828601614108565b92505060206146fa858286016141ff565b9150509250929050565b6000806040838503121561471b5761471a615776565b5b600083013567ffffffffffffffff81111561473957614738615771565b5b61474585828601614136565b925050602083013567ffffffffffffffff81111561476657614765615771565b5b61477285828601614136565b9150509250929050565b60006020828403121561479257614791615776565b5b60006147a084828501614179565b91505092915050565b6000602082840312156147bf576147be615776565b5b60006147cd8482850161418e565b91505092915050565b6000602082840312156147ec576147eb615776565b5b60006147fa848285016141ff565b91505092915050565b6000806040838503121561481a57614819615776565b5b6000614828858286016141ff565b925050602083013567ffffffffffffffff81111561484957614848615771565b5b614855858286016141d1565b9150509250929050565b6000806040838503121561487657614875615776565b5b6000614884858286016141ff565b9250506020614895858286016141ff565b9150509250929050565b60006148ab8383614d42565b60208301905092915050565b6148c0816154d9565b82525050565b60006148d1826153ee565b6148db818561541c565b93506148e6836153de565b8060005b838110156149175781516148fe888261489f565b97506149098361540f565b9250506001810190506148ea565b5085935050505092915050565b61492d816154eb565b82525050565b600061493e826153f9565b614948818561542d565b935061495881856020860161557b565b6149618161577b565b840191505092915050565b6149758161555a565b82525050565b600061498682615404565b614990818561543e565b93506149a081856020860161557b565b6149a98161577b565b840191505092915050565b60006149c160348361543e565b91506149cc82615799565b604082019050919050565b60006149e460138361543e565b91506149ef826157e8565b602082019050919050565b6000614a0760288361543e565b9150614a1282615811565b604082019050919050565b6000614a2a60148361543e565b9150614a3582615860565b602082019050919050565b6000614a4d60148361543e565b9150614a5882615889565b602082019050919050565b6000614a7060118361543e565b9150614a7b826158b2565b602082019050919050565b6000614a93602b8361543e565b9150614a9e826158db565b604082019050919050565b6000614ab660268361543e565b9150614ac18261592a565b604082019050919050565b6000614ad9601c8361543e565b9150614ae482615979565b602082019050919050565b6000614afc60248361543e565b9150614b07826159a2565b604082019050919050565b6000614b1f601e8361543e565b9150614b2a826159f1565b602082019050919050565b6000614b4260298361543e565b9150614b4d82615a1a565b604082019050919050565b6000614b6560108361543e565b9150614b7082615a69565b602082019050919050565b6000614b8860108361543e565b9150614b9382615a92565b602082019050919050565b6000614bab60258361543e565b9150614bb682615abb565b604082019050919050565b6000614bce60328361543e565b9150614bd982615b0a565b604082019050919050565b6000614bf160238361543e565b9150614bfc82615b59565b604082019050919050565b6000614c14602a8361543e565b9150614c1f82615ba8565b604082019050919050565b6000614c3760218361543e565b9150614c4282615bf7565b604082019050919050565b6000614c5a60208361543e565b9150614c6582615c46565b602082019050919050565b6000614c7d60238361543e565b9150614c8882615c6f565b604082019050919050565b6000614ca060158361543e565b9150614cab82615cbe565b602082019050919050565b6000614cc360298361543e565b9150614cce82615ce7565b604082019050919050565b6000614ce660298361543e565b9150614cf182615d36565b604082019050919050565b6000614d0960288361543e565b9150614d1482615d85565b604082019050919050565b6000614d2c60218361543e565b9150614d3782615dd4565b604082019050919050565b614d4b81615543565b82525050565b614d5a81615543565b82525050565b6000602082019050614d7560008301846148b7565b92915050565b600060a082019050614d9060008301886148b7565b614d9d60208301876148b7565b8181036040830152614daf81866148c6565b90508181036060830152614dc381856148c6565b90508181036080830152614dd78184614933565b90509695505050505050565b600060a082019050614df860008301886148b7565b614e0560208301876148b7565b614e126040830186614d51565b614e1f6060830185614d51565b8181036080830152614e318184614933565b90509695505050505050565b60006020820190508181036000830152614e5781846148c6565b905092915050565b60006040820190508181036000830152614e7981856148c6565b90508181036020830152614e8d81846148c6565b90509392505050565b6000602082019050614eab6000830184614924565b92915050565b60006020820190508181036000830152614ecb818461497b565b905092915050565b60006020820190508181036000830152614eec816149b4565b9050919050565b60006020820190508181036000830152614f0c816149d7565b9050919050565b60006020820190508181036000830152614f2c816149fa565b9050919050565b60006020820190508181036000830152614f4c81614a1d565b9050919050565b60006080820190508181036000830152614f6c81614a40565b9050614f7b60208301866148b7565b614f88604083018561496c565b614f956060830184614d51565b949350505050565b60006020820190508181036000830152614fb681614a63565b9050919050565b60006020820190508181036000830152614fd681614a86565b9050919050565b60006020820190508181036000830152614ff681614aa9565b9050919050565b6000608082019050818103600083015261501681614acc565b905061502560208301866148b7565b615032604083018561496c565b61503f6060830184614d51565b949350505050565b6000602082019050818103600083015261506081614aef565b9050919050565b6000608082019050818103600083015261508081614b12565b905061508f60208301866148b7565b61509c6040830185614d51565b6150a96060830184614d51565b949350505050565b600060208201905081810360008301526150ca81614b35565b9050919050565b600060208201905081810360008301526150ea81614b58565b9050919050565b6000602082019050818103600083015261510a81614b7b565b9050919050565b6000602082019050818103600083015261512a81614b9e565b9050919050565b6000602082019050818103600083015261514a81614bc1565b9050919050565b6000602082019050818103600083015261516a81614be4565b9050919050565b6000602082019050818103600083015261518a81614c07565b9050919050565b600060808201905081810360008301526151aa81614c2a565b90506151b960208301866148b7565b6151c66040830185614d51565b6151d36060830184614d51565b949350505050565b600060208201905081810360008301526151f481614c4d565b9050919050565b6000602082019050818103600083015261521481614c70565b9050919050565b6000602082019050818103600083015261523481614c93565b9050919050565b6000602082019050818103600083015261525481614cb6565b9050919050565b6000602082019050818103600083015261527481614cd9565b9050919050565b6000602082019050818103600083015261529481614cfc565b9050919050565b600060208201905081810360008301526152b481614d1f565b9050919050565b60006020820190506152d06000830184614d51565b92915050565b60006040820190506152eb6000830185614d51565b6152f86020830184614d51565b9392505050565b600061530961531a565b905061531582826155e0565b919050565b6000604051905090565b600067ffffffffffffffff82111561533f5761533e615711565b5b602082029050602081019050919050565b600067ffffffffffffffff82111561536b5761536a615711565b5b602082029050602081019050919050565b600067ffffffffffffffff82111561539757615396615711565b5b6153a08261577b565b9050602081019050919050565b600067ffffffffffffffff8211156153c8576153c7615711565b5b6153d18261577b565b9050602081019050919050565b6000819050602082019050919050565b600081519050919050565b600081519050919050565b600081519050919050565b6000602082019050919050565b600082825260208201905092915050565b600082825260208201905092915050565b600082825260208201905092915050565b600061545a82615543565b915061546583615543565b9250827fffffffffffffffffffffffffffffffffffffffffffffffffffffffffffffffff0382111561549a57615499615684565b5b828201905092915050565b60006154b082615543565b91506154bb83615543565b9250828210156154ce576154cd615684565b5b828203905092915050565b60006154e482615523565b9050919050565b60008115159050919050565b60007fffffffff0000000000000000000000000000000000000000000000000000000082169050919050565b600073ffffffffffffffffffffffffffffffffffffffff82169050919050565b6000819050919050565b600060ff82169050919050565b600061556582615543565b9050919050565b82818337600083830152505050565b60005b8381101561559957808201518184015260208101905061557e565b838111156155a8576000848401525b50505050565b600060028204905060018216806155c657607f821691505b602082108114156155da576155d96156b3565b5b50919050565b6155e98261577b565b810181811067ffffffffffffffff8211171561560857615607615711565b5b80604052505050565b600061561c82615543565b91507fffffffffffffffffffffffffffffffffffffffffffffffffffffffffffffffff82141561564f5761564e615684565b5b600182019050919050565b60006156658261554d565b915060ff82141561567957615678615684565b5b600182019050919050565b7f4e487b7100000000000000000000000000000000000000000000000000000000600052601160045260246000fd5b7f4e487b7100000000000000000000000000000000000000000000000000000000600052602260045260246000fd5b7f4e487b7100000000000000000000000000000000000000000000000000000000600052603260045260246000fd5b7f4e487b7100000000000000000000000000000000000000000000000000000000600052604160045260246000fd5b600060033d111561575f5760046000803e61575c60005161578c565b90505b90565b600080fd5b600080fd5b600080fd5b600080fd5b600080fd5b6000601f19601f8301169050919050565b60008160e01c9050919050565b7f455243313135353a207472616e7366657220746f206e6f6e204552433131353560008201527f526563656976657220696d706c656d656e746572000000000000000000000000602082015250565b7f546f6b656e20646f65736e277420657869737400000000000000000000000000600082015250565b7f455243313135353a204552433131353552656365697665722072656a6563746560008201527f6420746f6b656e73000000000000000000000000000000000000000000000000602082015250565b7f5061757361626c653a206e6f7420706175736564000000000000000000000000600082015250565b7f4d6f64696665722076616c6964546f6b656e4964000000000000000000000000600082015250565b7f4e6f7420656e6f75676820737570706c79000000000000000000000000000000600082015250565b7f455243313135353a2062616c616e636520717565727920666f7220746865207a60008201527f65726f2061646472657373000000000000000000000000000000000000000000602082015250565b7f4f776e61626c653a206e6577206f776e657220697320746865207a65726f206160008201527f6464726573730000000000000000000000000000000000000000000000000000602082015250565b7f4d6f6469666572206f6e6c7957686974656c6973744164647265737300000000600082015250565b7f455243313135353a206275726e20616d6f756e7420657863656564732062616c60008201527f616e636500000000000000000000000000000000000000000000000000000000602082015250565b7f6164647265737320697320616c72656164792077686974656c69737465640000600082015250565b7f455243313135353a2063616c6c6572206973206e6f74206f776e6572206e6f7260008201527f20617070726f7665640000000000000000000000000000000000000000000000602082015250565b7f457863656564206d6178537570706c7900000000000000000000000000000000600082015250565b7f5061757361626c653a2070617573656400000000000000000000000000000000600082015250565b7f455243313135353a207472616e7366657220746f20746865207a65726f20616460008201527f6472657373000000000000000000000000000000000000000000000000000000602082015250565b7f455243313135353a207472616e736665722063616c6c6572206973206e6f742060008201527f6f776e6572206e6f7220617070726f7665640000000000000000000000000000602082015250565b7f455243313135353a206275726e2066726f6d20746865207a65726f206164647260008201527f6573730000000000000000000000000000000000000000000000000000000000602082015250565b7f455243313135353a20696e73756666696369656e742062616c616e636520666f60008201527f72207472616e7366657200000000000000000000000000000000000000000000602082015250565b7f416472657373206973206e6f7420616c72656164792077686974656c6973746560008201527f6400000000000000000000000000000000000000000000000000000000000000602082015250565b7f4f776e61626c653a2063616c6c6572206973206e6f7420746865206f776e6572600082015250565b7f41646472657373206e6f742077686974656c69737465642e2043616e74206d6960008201527f6e742e0000000000000000000000000000000000000000000000000000000000602082015250565b7f4e6f7420656e6f7567682065746865722073656e740000000000000000000000600082015250565b7f455243313135353a2073657474696e6720617070726f76616c2073746174757360008201527f20666f722073656c660000000000000000000000000000000000000000000000602082015250565b7f455243313135353a206163636f756e747320616e6420696473206c656e67746860008201527f206d69736d617463680000000000000000000000000000000000000000000000602082015250565b7f455243313135353a2069647320616e6420616d6f756e7473206c656e6774682060008201527f6d69736d61746368000000000000000000000000000000000000000000000000602082015250565b7f455243313135353a206d696e7420746f20746865207a65726f2061646472657360008201527f7300000000000000000000000000000000000000000000000000000000000000602082015250565b600060443d1015615e3357615eb6565b615e3b61531a565b60043d036004823e80513d602482011167ffffffffffffffff82111715615e63575050615eb6565b808201805167ffffffffffffffff811115615e815750505050615eb6565b80602083010160043d038501811115615e9e575050505050615eb6565b615ead826020018501866155e0565b82955050505050505b90565b615ec2816154d9565b8114615ecd57600080fd5b50565b615ed9816154eb565b8114615ee457600080fd5b50565b615ef0816154f7565b8114615efb57600080fd5b50565b615f0781615543565b8114615f1257600080fd5b5056fea264697066735822122048a1a963c8ffa91eaa016be2c42675917d2f55cf306986be661938e10ce60b4c64736f6c63430008070033",
			"opcodes": "PUSH1 0x80 PUSH1 0x40 MSTORE PUSH1 0x40 MLOAD DUP1 PUSH1 0x40 ADD PUSH1 0x40 MSTORE DUP1 PUSH1 0x18 DUP2 MSTORE PUSH1 0x20 ADD PUSH32 0x466F7274756E652054726561737572652048756E74696E670000000000000000 DUP2 MSTORE POP PUSH1 0x5 SWAP1 DUP1 MLOAD SWAP1 PUSH1 0x20 ADD SWAP1 PUSH3 0x51 SWAP3 SWAP2 SWAP1 PUSH3 0x2A0 JUMP JUMPDEST POP PUSH1 0x40 MLOAD DUP1 PUSH1 0x40 ADD PUSH1 0x40 MSTORE DUP1 PUSH2 0xFA0 PUSH2 0xFFFF AND DUP2 MSTORE PUSH1 0x20 ADD PUSH1 0xFA PUSH2 0xFFFF AND DUP2 MSTORE POP PUSH1 0x6 SWAP1 PUSH1 0x2 PUSH3 0x84 SWAP3 SWAP2 SWAP1 PUSH3 0x331 JUMP JUMPDEST POP PUSH1 0x40 MLOAD DUP1 PUSH1 0x40 ADD PUSH1 0x40 MSTORE DUP1 PUSH1 0x0 PUSH1 0xFF AND DUP2 MSTORE PUSH1 0x20 ADD PUSH1 0x0 PUSH1 0xFF AND DUP2 MSTORE POP PUSH1 0x7 SWAP1 PUSH1 0x2 PUSH3 0xB4 SWAP3 SWAP2 SWAP1 PUSH3 0x389 JUMP JUMPDEST POP PUSH1 0x40 MLOAD DUP1 PUSH1 0x40 ADD PUSH1 0x40 MSTORE DUP1 PUSH7 0x38D7EA4C68000 PUSH7 0xFFFFFFFFFFFFFF AND DUP2 MSTORE PUSH1 0x20 ADD PUSH1 0x0 PUSH7 0xFFFFFFFFFFFFFF AND DUP2 MSTORE POP PUSH1 0x8 SWAP1 PUSH1 0x2 PUSH3 0xF6 SWAP3 SWAP2 SWAP1 PUSH3 0x3E0 JUMP JUMPDEST POP PUSH1 0x40 MLOAD DUP1 PUSH1 0x40 ADD PUSH1 0x40 MSTORE DUP1 PUSH1 0x0 PUSH1 0xFF AND DUP2 MSTORE PUSH1 0x20 ADD PUSH1 0x0 PUSH1 0xFF AND DUP2 MSTORE POP PUSH1 0x9 SWAP1 PUSH1 0x2 PUSH3 0x126 SWAP3 SWAP2 SWAP1 PUSH3 0x389 JUMP JUMPDEST POP CALLVALUE DUP1 ISZERO PUSH3 0x134 JUMPI PUSH1 0x0 DUP1 REVERT JUMPDEST POP PUSH1 0x40 MLOAD DUP1 PUSH1 0x20 ADD PUSH1 0x40 MSTORE DUP1 PUSH1 0x0 DUP2 MSTORE POP PUSH3 0x156 DUP2 PUSH3 0x1B6 PUSH1 0x20 SHL PUSH1 0x20 SHR JUMP JUMPDEST POP PUSH3 0x177 PUSH3 0x16B PUSH3 0x1D2 PUSH1 0x20 SHL PUSH1 0x20 SHR JUMP JUMPDEST PUSH3 0x1DA PUSH1 0x20 SHL PUSH1 0x20 SHR JUMP JUMPDEST PUSH1 0x0 PUSH1 0x3 PUSH1 0x14 PUSH2 0x100 EXP DUP2 SLOAD DUP2 PUSH1 0xFF MUL NOT AND SWAP1 DUP4 ISZERO ISZERO MUL OR SWAP1 SSTORE POP PUSH1 0x5 DUP1 DUP1 SLOAD PUSH3 0x1A2 SWAP1 PUSH3 0x4F4 JUMP JUMPDEST PUSH3 0x1AF SWAP3 SWAP2 SWAP1 PUSH3 0x43D JUMP JUMPDEST POP PUSH3 0x559 JUMP JUMPDEST DUP1 PUSH1 0x2 SWAP1 DUP1 MLOAD SWAP1 PUSH1 0x20 ADD SWAP1 PUSH3 0x1CE SWAP3 SWAP2 SWAP1 PUSH3 0x2A0 JUMP JUMPDEST POP POP JUMP JUMPDEST PUSH1 0x0 CALLER SWAP1 POP SWAP1 JUMP JUMPDEST PUSH1 0x0 PUSH1 0x3 PUSH1 0x0 SWAP1 SLOAD SWAP1 PUSH2 0x100 EXP SWAP1 DIV PUSH20 0xFFFFFFFFFFFFFFFFFFFFFFFFFFFFFFFFFFFFFFFF AND SWAP1 POP DUP2 PUSH1 0x3 PUSH1 0x0 PUSH2 0x100 EXP DUP2 SLOAD DUP2 PUSH20 0xFFFFFFFFFFFFFFFFFFFFFFFFFFFFFFFFFFFFFFFF MUL NOT AND SWAP1 DUP4 PUSH20 0xFFFFFFFFFFFFFFFFFFFFFFFFFFFFFFFFFFFFFFFF AND MUL OR SWAP1 SSTORE POP DUP2 PUSH20 0xFFFFFFFFFFFFFFFFFFFFFFFFFFFFFFFFFFFFFFFF AND DUP2 PUSH20 0xFFFFFFFFFFFFFFFFFFFFFFFFFFFFFFFFFFFFFFFF AND PUSH32 0x8BE0079C531659141344CD1FD0A4F28419497F9722A3DAAFE3B4186F6B6457E0 PUSH1 0x40 MLOAD PUSH1 0x40 MLOAD DUP1 SWAP2 SUB SWAP1 LOG3 POP POP JUMP JUMPDEST DUP3 DUP1 SLOAD PUSH3 0x2AE SWAP1 PUSH3 0x4F4 JUMP JUMPDEST SWAP1 PUSH1 0x0 MSTORE PUSH1 0x20 PUSH1 0x0 KECCAK256 SWAP1 PUSH1 0x1F ADD PUSH1 0x20 SWAP1 DIV DUP2 ADD SWAP3 DUP3 PUSH3 0x2D2 JUMPI PUSH1 0x0 DUP6 SSTORE PUSH3 0x31E JUMP JUMPDEST DUP3 PUSH1 0x1F LT PUSH3 0x2ED JUMPI DUP1 MLOAD PUSH1 0xFF NOT AND DUP4 DUP1 ADD OR DUP6 SSTORE PUSH3 0x31E JUMP JUMPDEST DUP3 DUP1 ADD PUSH1 0x1 ADD DUP6 SSTORE DUP3 ISZERO PUSH3 0x31E JUMPI SWAP2 DUP3 ADD JUMPDEST DUP3 DUP2 GT ISZERO PUSH3 0x31D JUMPI DUP3 MLOAD DUP3 SSTORE SWAP2 PUSH1 0x20 ADD SWAP2 SWAP1 PUSH1 0x1 ADD SWAP1 PUSH3 0x300 JUMP JUMPDEST JUMPDEST POP SWAP1 POP PUSH3 0x32D SWAP2 SWAP1 PUSH3 0x4D5 JUMP JUMPDEST POP SWAP1 JUMP JUMPDEST DUP3 DUP1 SLOAD DUP3 DUP3 SSTORE SWAP1 PUSH1 0x0 MSTORE PUSH1 0x20 PUSH1 0x0 KECCAK256 SWAP1 DUP2 ADD SWAP3 DUP3 ISZERO PUSH3 0x376 JUMPI SWAP2 PUSH1 0x20 MUL DUP3 ADD JUMPDEST DUP3 DUP2 GT ISZERO PUSH3 0x375 JUMPI DUP3 MLOAD DUP3 SWAP1 PUSH2 0xFFFF AND SWAP1 SSTORE SWAP2 PUSH1 0x20 ADD SWAP2 SWAP1 PUSH1 0x1 ADD SWAP1 PUSH3 0x352 JUMP JUMPDEST JUMPDEST POP SWAP1 POP PUSH3 0x385 SWAP2 SWAP1 PUSH3 0x4D5 JUMP JUMPDEST POP SWAP1 JUMP JUMPDEST DUP3 DUP1 SLOAD DUP3 DUP3 SSTORE SWAP1 PUSH1 0x0 MSTORE PUSH1 0x20 PUSH1 0x0 KECCAK256 SWAP1 DUP2 ADD SWAP3 DUP3 ISZERO PUSH3 0x3CD JUMPI SWAP2 PUSH1 0x20 MUL DUP3 ADD JUMPDEST DUP3 DUP2 GT ISZERO PUSH3 0x3CC JUMPI DUP3 MLOAD DUP3 SWAP1 PUSH1 0xFF AND SWAP1 SSTORE SWAP2 PUSH1 0x20 ADD SWAP2 SWAP1 PUSH1 0x1 ADD SWAP1 PUSH3 0x3AA JUMP JUMPDEST JUMPDEST POP SWAP1 POP PUSH3 0x3DC SWAP2 SWAP1 PUSH3 0x4D5 JUMP JUMPDEST POP SWAP1 JUMP JUMPDEST DUP3 DUP1 SLOAD DUP3 DUP3 SSTORE SWAP1 PUSH1 0x0 MSTORE PUSH1 0x20 PUSH1 0x0 KECCAK256 SWAP1 DUP2 ADD SWAP3 DUP3 ISZERO PUSH3 0x42A JUMPI SWAP2 PUSH1 0x20 MUL DUP3 ADD JUMPDEST DUP3 DUP2 GT ISZERO PUSH3 0x429 JUMPI DUP3 MLOAD DUP3 SWAP1 PUSH7 0xFFFFFFFFFFFFFF AND SWAP1 SSTORE SWAP2 PUSH1 0x20 ADD SWAP2 SWAP1 PUSH1 0x1 ADD SWAP1 PUSH3 0x401 JUMP JUMPDEST JUMPDEST POP SWAP1 POP PUSH3 0x439 SWAP2 SWAP1 PUSH3 0x4D5 JUMP JUMPDEST POP SWAP1 JUMP JUMPDEST DUP3 DUP1 SLOAD PUSH3 0x44B SWAP1 PUSH3 0x4F4 JUMP JUMPDEST SWAP1 PUSH1 0x0 MSTORE PUSH1 0x20 PUSH1 0x0 KECCAK256 SWAP1 PUSH1 0x1F ADD PUSH1 0x20 SWAP1 DIV DUP2 ADD SWAP3 DUP3 PUSH3 0x46F JUMPI PUSH1 0x0 DUP6 SSTORE PUSH3 0x4C2 JUMP JUMPDEST DUP3 PUSH1 0x1F LT PUSH3 0x482 JUMPI DUP1 SLOAD DUP6 SSTORE PUSH3 0x4C2 JUMP JUMPDEST DUP3 DUP1 ADD PUSH1 0x1 ADD DUP6 SSTORE DUP3 ISZERO PUSH3 0x4C2 JUMPI PUSH1 0x0 MSTORE PUSH1 0x20 PUSH1 0x0 KECCAK256 SWAP2 PUSH1 0x1F ADD PUSH1 0x20 SWAP1 DIV DUP3 ADD JUMPDEST DUP3 DUP2 GT ISZERO PUSH3 0x4C1 JUMPI DUP3 SLOAD DUP3 SSTORE SWAP2 PUSH1 0x1 ADD SWAP2 SWAP1 PUSH1 0x1 ADD SWAP1 PUSH3 0x4A4 JUMP JUMPDEST JUMPDEST POP SWAP1 POP PUSH3 0x4D1 SWAP2 SWAP1 PUSH3 0x4D5 JUMP JUMPDEST POP SWAP1 JUMP JUMPDEST JUMPDEST DUP1 DUP3 GT ISZERO PUSH3 0x4F0 JUMPI PUSH1 0x0 DUP2 PUSH1 0x0 SWAP1 SSTORE POP PUSH1 0x1 ADD PUSH3 0x4D6 JUMP JUMPDEST POP SWAP1 JUMP JUMPDEST PUSH1 0x0 PUSH1 0x2 DUP3 DIV SWAP1 POP PUSH1 0x1 DUP3 AND DUP1 PUSH3 0x50D JUMPI PUSH1 0x7F DUP3 AND SWAP2 POP JUMPDEST PUSH1 0x20 DUP3 LT DUP2 EQ ISZERO PUSH3 0x524 JUMPI PUSH3 0x523 PUSH3 0x52A JUMP JUMPDEST JUMPDEST POP SWAP2 SWAP1 POP JUMP JUMPDEST PUSH32 0x4E487B7100000000000000000000000000000000000000000000000000000000 PUSH1 0x0 MSTORE PUSH1 0x22 PUSH1 0x4 MSTORE PUSH1 0x24 PUSH1 0x0 REVERT JUMPDEST PUSH2 0x5F4B DUP1 PUSH3 0x569 PUSH1 0x0 CODECOPY PUSH1 0x0 RETURN INVALID PUSH1 0x80 PUSH1 0x40 MSTORE PUSH1 0x4 CALLDATASIZE LT PUSH2 0x1ED JUMPI PUSH1 0x0 CALLDATALOAD PUSH1 0xE0 SHR DUP1 PUSH4 0x8456CB59 GT PUSH2 0x10D JUMPI DUP1 PUSH4 0xB390C0AB GT PUSH2 0xA0 JUMPI DUP1 PUSH4 0xD81D0A15 GT PUSH2 0x6F JUMPI DUP1 PUSH4 0xD81D0A15 EQ PUSH2 0x6DC JUMPI DUP1 PUSH4 0xE985E9C5 EQ PUSH2 0x705 JUMPI DUP1 PUSH4 0xF242432A EQ PUSH2 0x742 JUMPI DUP1 PUSH4 0xF2FDE38B EQ PUSH2 0x76B JUMPI DUP1 PUSH4 0xF5298ACA EQ PUSH2 0x794 JUMPI PUSH2 0x1ED JUMP JUMPDEST DUP1 PUSH4 0xB390C0AB EQ PUSH2 0x610 JUMPI DUP1 PUSH4 0xBD85B039 EQ PUSH2 0x639 JUMPI DUP1 PUSH4 0xC87B56DD EQ PUSH2 0x676 JUMPI DUP1 PUSH4 0xCE71047C EQ PUSH2 0x6B3 JUMPI PUSH2 0x1ED JUMP JUMPDEST DUP1 PUSH4 0x8DA5CB5B GT PUSH2 0xDC JUMPI DUP1 PUSH4 0x8DA5CB5B EQ PUSH2 0x542 JUMPI DUP1 PUSH4 0x9B19251A EQ PUSH2 0x56D JUMPI DUP1 PUSH4 0xA22CB465 EQ PUSH2 0x5AA JUMPI DUP1 PUSH4 0xACB3180F EQ PUSH2 0x5D3 JUMPI PUSH2 0x1ED JUMP JUMPDEST DUP1 PUSH4 0x8456CB59 EQ PUSH2 0x4CD JUMPI DUP1 PUSH4 0x853828B6 EQ PUSH2 0x4E4 JUMPI DUP1 PUSH4 0x862440E2 EQ PUSH2 0x4EE JUMPI DUP1 PUSH4 0x8B7AFE2E EQ PUSH2 0x517 JUMPI PUSH2 0x1ED JUMP JUMPDEST DUP1 PUSH4 0x4E1273F4 GT PUSH2 0x185 JUMPI DUP1 PUSH4 0x6A627842 GT PUSH2 0x154 JUMPI DUP1 PUSH4 0x6A627842 EQ PUSH2 0x448 JUMPI DUP1 PUSH4 0x6B20C454 EQ PUSH2 0x464 JUMPI DUP1 PUSH4 0x715018A6 EQ PUSH2 0x48D JUMPI DUP1 PUSH4 0x83CA4B6F EQ PUSH2 0x4A4 JUMPI PUSH2 0x1ED JUMP JUMPDEST DUP1 PUSH4 0x4E1273F4 EQ PUSH2 0x37A JUMPI DUP1 PUSH4 0x4F558E79 EQ PUSH2 0x3B7 JUMPI DUP1 PUSH4 0x510F4104 EQ PUSH2 0x3F4 JUMPI DUP1 PUSH4 0x5C975ABB EQ PUSH2 0x41D JUMPI PUSH2 0x1ED JUMP JUMPDEST DUP1 PUSH4 0x2AE5D2F9 GT PUSH2 0x1C1 JUMPI DUP1 PUSH4 0x2AE5D2F9 EQ PUSH2 0x2D4 JUMPI DUP1 PUSH4 0x2EB2C2D6 EQ PUSH2 0x311 JUMPI DUP1 PUSH4 0x36576424 EQ PUSH2 0x33A JUMPI DUP1 PUSH4 0x3F4BA83A EQ PUSH2 0x363 JUMPI PUSH2 0x1ED JUMP JUMPDEST DUP1 PUSH3 0xFDD58E EQ PUSH2 0x1F2 JUMPI DUP1 PUSH4 0x1FFC9A7 EQ PUSH2 0x22F JUMPI DUP1 PUSH4 0x6FDDE03 EQ PUSH2 0x26C JUMPI DUP1 PUSH4 0xE89341C EQ PUSH2 0x297 JUMPI JUMPDEST PUSH1 0x0 DUP1 REVERT JUMPDEST CALLVALUE DUP1 ISZERO PUSH2 0x1FE JUMPI PUSH1 0x0 DUP1 REVERT JUMPDEST POP PUSH2 0x219 PUSH1 0x4 DUP1 CALLDATASIZE SUB DUP2 ADD SWAP1 PUSH2 0x214 SWAP2 SWAP1 PUSH2 0x459D JUMP JUMPDEST PUSH2 0x7BD JUMP JUMPDEST PUSH1 0x40 MLOAD PUSH2 0x226 SWAP2 SWAP1 PUSH2 0x52BB JUMP JUMPDEST PUSH1 0x40 MLOAD DUP1 SWAP2 SUB SWAP1 RETURN JUMPDEST CALLVALUE DUP1 ISZERO PUSH2 0x23B JUMPI PUSH1 0x0 DUP1 REVERT JUMPDEST POP PUSH2 0x256 PUSH1 0x4 DUP1 CALLDATASIZE SUB DUP2 ADD SWAP1 PUSH2 0x251 SWAP2 SWAP1 PUSH2 0x477C JUMP JUMPDEST PUSH2 0x886 JUMP JUMPDEST PUSH1 0x40 MLOAD PUSH2 0x263 SWAP2 SWAP1 PUSH2 0x4E96 JUMP JUMPDEST PUSH1 0x40 MLOAD DUP1 SWAP2 SUB SWAP1 RETURN JUMPDEST CALLVALUE DUP1 ISZERO PUSH2 0x278 JUMPI PUSH1 0x0 DUP1 REVERT JUMPDEST POP PUSH2 0x281 PUSH2 0x968 JUMP JUMPDEST PUSH1 0x40 MLOAD PUSH2 0x28E SWAP2 SWAP1 PUSH2 0x4EB1 JUMP JUMPDEST PUSH1 0x40 MLOAD DUP1 SWAP2 SUB SWAP1 RETURN JUMPDEST CALLVALUE DUP1 ISZERO PUSH2 0x2A3 JUMPI PUSH1 0x0 DUP1 REVERT JUMPDEST POP PUSH2 0x2BE PUSH1 0x4 DUP1 CALLDATASIZE SUB DUP2 ADD SWAP1 PUSH2 0x2B9 SWAP2 SWAP1 PUSH2 0x47D6 JUMP JUMPDEST PUSH2 0x9F6 JUMP JUMPDEST PUSH1 0x40 MLOAD PUSH2 0x2CB SWAP2 SWAP1 PUSH2 0x4EB1 JUMP JUMPDEST PUSH1 0x40 MLOAD DUP1 SWAP2 SUB SWAP1 RETURN JUMPDEST CALLVALUE DUP1 ISZERO PUSH2 0x2E0 JUMPI PUSH1 0x0 DUP1 REVERT JUMPDEST POP PUSH2 0x2FB PUSH1 0x4 DUP1 CALLDATASIZE SUB DUP2 ADD SWAP1 PUSH2 0x2F6 SWAP2 SWAP1 PUSH2 0x4214 JUMP JUMPDEST PUSH2 0xA9B JUMP JUMPDEST PUSH1 0x40 MLOAD PUSH2 0x308 SWAP2 SWAP1 PUSH2 0x52BB JUMP JUMPDEST PUSH1 0x40 MLOAD DUP1 SWAP2 SUB SWAP1 RETURN JUMPDEST CALLVALUE DUP1 ISZERO PUSH2 0x31D JUMPI PUSH1 0x0 DUP1 REVERT JUMPDEST POP PUSH2 0x338 PUSH1 0x4 DUP1 CALLDATASIZE SUB DUP2 ADD SWAP1 PUSH2 0x333 SWAP2 SWAP1 PUSH2 0x4281 JUMP JUMPDEST PUSH2 0xAE4 JUMP JUMPDEST STOP JUMPDEST CALLVALUE DUP1 ISZERO PUSH2 0x346 JUMPI PUSH1 0x0 DUP1 REVERT JUMPDEST POP PUSH2 0x361 PUSH1 0x4 DUP1 CALLDATASIZE SUB DUP2 ADD SWAP1 PUSH2 0x35C SWAP2 SWAP1 PUSH2 0x46A8 JUMP JUMPDEST PUSH2 0xB85 JUMP JUMPDEST STOP JUMPDEST CALLVALUE DUP1 ISZERO PUSH2 0x36F JUMPI PUSH1 0x0 DUP1 REVERT JUMPDEST POP PUSH2 0x378 PUSH2 0x1167 JUMP JUMPDEST STOP JUMPDEST CALLVALUE DUP1 ISZERO PUSH2 0x386 JUMPI PUSH1 0x0 DUP1 REVERT JUMPDEST POP PUSH2 0x3A1 PUSH1 0x4 DUP1 CALLDATASIZE SUB DUP2 ADD SWAP1 PUSH2 0x39C SWAP2 SWAP1 PUSH2 0x4630 JUMP JUMPDEST PUSH2 0x11ED JUMP JUMPDEST PUSH1 0x40 MLOAD PUSH2 0x3AE SWAP2 SWAP1 PUSH2 0x4E3D JUMP JUMPDEST PUSH1 0x40 MLOAD DUP1 SWAP2 SUB SWAP1 RETURN JUMPDEST CALLVALUE DUP1 ISZERO PUSH2 0x3C3 JUMPI PUSH1 0x0 DUP1 REVERT JUMPDEST POP PUSH2 0x3DE PUSH1 0x4 DUP1 CALLDATASIZE SUB DUP2 ADD SWAP1 PUSH2 0x3D9 SWAP2 SWAP1 PUSH2 0x47D6 JUMP JUMPDEST PUSH2 0x1306 JUMP JUMPDEST PUSH1 0x40 MLOAD PUSH2 0x3EB SWAP2 SWAP1 PUSH2 0x4E96 JUMP JUMPDEST PUSH1 0x40 MLOAD DUP1 SWAP2 SUB SWAP1 RETURN JUMPDEST CALLVALUE DUP1 ISZERO PUSH2 0x400 JUMPI PUSH1 0x0 DUP1 REVERT JUMPDEST POP PUSH2 0x41B PUSH1 0x4 DUP1 CALLDATASIZE SUB DUP2 ADD SWAP1 PUSH2 0x416 SWAP2 SWAP1 PUSH2 0x4472 JUMP JUMPDEST PUSH2 0x131A JUMP JUMPDEST STOP JUMPDEST CALLVALUE DUP1 ISZERO PUSH2 0x429 JUMPI PUSH1 0x0 DUP1 REVERT JUMPDEST POP PUSH2 0x432 PUSH2 0x13C3 JUMP JUMPDEST PUSH1 0x40 MLOAD PUSH2 0x43F SWAP2 SWAP1 PUSH2 0x4E96 JUMP JUMPDEST PUSH1 0x40 MLOAD DUP1 SWAP2 SUB SWAP1 RETURN JUMPDEST PUSH2 0x462 PUSH1 0x4 DUP1 CALLDATASIZE SUB DUP2 ADD SWAP1 PUSH2 0x45D SWAP2 SWAP1 PUSH2 0x4214 JUMP JUMPDEST PUSH2 0x13DA JUMP JUMPDEST STOP JUMPDEST CALLVALUE DUP1 ISZERO PUSH2 0x470 JUMPI PUSH1 0x0 DUP1 REVERT JUMPDEST POP PUSH2 0x48B PUSH1 0x4 DUP1 CALLDATASIZE SUB DUP2 ADD SWAP1 PUSH2 0x486 SWAP2 SWAP1 PUSH2 0x43E7 JUMP JUMPDEST PUSH2 0x18EC JUMP JUMPDEST STOP JUMPDEST CALLVALUE DUP1 ISZERO PUSH2 0x499 JUMPI PUSH1 0x0 DUP1 REVERT JUMPDEST POP PUSH2 0x4A2 PUSH2 0x1989 JUMP JUMPDEST STOP JUMPDEST CALLVALUE DUP1 ISZERO PUSH2 0x4B0 JUMPI PUSH1 0x0 DUP1 REVERT JUMPDEST POP PUSH2 0x4CB PUSH1 0x4 DUP1 CALLDATASIZE SUB DUP2 ADD SWAP1 PUSH2 0x4C6 SWAP2 SWAP1 PUSH2 0x4704 JUMP JUMPDEST PUSH2 0x1A11 JUMP JUMPDEST STOP JUMPDEST CALLVALUE DUP1 ISZERO PUSH2 0x4D9 JUMPI PUSH1 0x0 DUP1 REVERT JUMPDEST POP PUSH2 0x4E2 PUSH2 0x1A20 JUMP JUMPDEST STOP JUMPDEST PUSH2 0x4EC PUSH2 0x1AA6 JUMP JUMPDEST STOP JUMPDEST CALLVALUE DUP1 ISZERO PUSH2 0x4FA JUMPI PUSH1 0x0 DUP1 REVERT JUMPDEST POP PUSH2 0x515 PUSH1 0x4 DUP1 CALLDATASIZE SUB DUP2 ADD SWAP1 PUSH2 0x510 SWAP2 SWAP1 PUSH2 0x4803 JUMP JUMPDEST PUSH2 0x1B6B JUMP JUMPDEST STOP JUMPDEST CALLVALUE DUP1 ISZERO PUSH2 0x523 JUMPI PUSH1 0x0 DUP1 REVERT JUMPDEST POP PUSH2 0x52C PUSH2 0x1C4B JUMP JUMPDEST PUSH1 0x40 MLOAD PUSH2 0x539 SWAP2 SWAP1 PUSH2 0x52BB JUMP JUMPDEST PUSH1 0x40 MLOAD DUP1 SWAP2 SUB SWAP1 RETURN JUMPDEST CALLVALUE DUP1 ISZERO PUSH2 0x54E JUMPI PUSH1 0x0 DUP1 REVERT JUMPDEST POP PUSH2 0x557 PUSH2 0x1CCF JUMP JUMPDEST PUSH1 0x40 MLOAD PUSH2 0x564 SWAP2 SWAP1 PUSH2 0x4D60 JUMP JUMPDEST PUSH1 0x40 MLOAD DUP1 SWAP2 SUB SWAP1 RETURN JUMPDEST CALLVALUE DUP1 ISZERO PUSH2 0x579 JUMPI PUSH1 0x0 DUP1 REVERT JUMPDEST POP PUSH2 0x594 PUSH1 0x4 DUP1 CALLDATASIZE SUB DUP2 ADD SWAP1 PUSH2 0x58F SWAP2 SWAP1 PUSH2 0x4214 JUMP JUMPDEST PUSH2 0x1CF9 JUMP JUMPDEST PUSH1 0x40 MLOAD PUSH2 0x5A1 SWAP2 SWAP1 PUSH2 0x52BB JUMP JUMPDEST PUSH1 0x40 MLOAD DUP1 SWAP2 SUB SWAP1 RETURN JUMPDEST CALLVALUE DUP1 ISZERO PUSH2 0x5B6 JUMPI PUSH1 0x0 DUP1 REVERT JUMPDEST POP PUSH2 0x5D1 PUSH1 0x4 DUP1 CALLDATASIZE SUB DUP2 ADD SWAP1 PUSH2 0x5CC SWAP2 SWAP1 PUSH2 0x455D JUMP JUMPDEST PUSH2 0x1D11 JUMP JUMPDEST STOP JUMPDEST CALLVALUE DUP1 ISZERO PUSH2 0x5DF JUMPI PUSH1 0x0 DUP1 REVERT JUMPDEST POP PUSH2 0x5FA PUSH1 0x4 DUP1 CALLDATASIZE SUB DUP2 ADD SWAP1 PUSH2 0x5F5 SWAP2 SWAP1 PUSH2 0x47D6 JUMP JUMPDEST PUSH2 0x1D27 JUMP JUMPDEST PUSH1 0x40 MLOAD PUSH2 0x607 SWAP2 SWAP1 PUSH2 0x52BB JUMP JUMPDEST PUSH1 0x40 MLOAD DUP1 SWAP2 SUB SWAP1 RETURN JUMPDEST CALLVALUE DUP1 ISZERO PUSH2 0x61C JUMPI PUSH1 0x0 DUP1 REVERT JUMPDEST POP PUSH2 0x637 PUSH1 0x4 DUP1 CALLDATASIZE SUB DUP2 ADD SWAP1 PUSH2 0x632 SWAP2 SWAP1 PUSH2 0x485F JUMP JUMPDEST PUSH2 0x1D5B JUMP JUMPDEST STOP JUMPDEST CALLVALUE DUP1 ISZERO PUSH2 0x645 JUMPI PUSH1 0x0 DUP1 REVERT JUMPDEST POP PUSH2 0x660 PUSH1 0x4 DUP1 CALLDATASIZE SUB DUP2 ADD SWAP1 PUSH2 0x65B SWAP2 SWAP1 PUSH2 0x47D6 JUMP JUMPDEST PUSH2 0x1D6A JUMP JUMPDEST PUSH1 0x40 MLOAD PUSH2 0x66D SWAP2 SWAP1 PUSH2 0x52BB JUMP JUMPDEST PUSH1 0x40 MLOAD DUP1 SWAP2 SUB SWAP1 RETURN JUMPDEST CALLVALUE DUP1 ISZERO PUSH2 0x682 JUMPI PUSH1 0x0 DUP1 REVERT JUMPDEST POP PUSH2 0x69D PUSH1 0x4 DUP1 CALLDATASIZE SUB DUP2 ADD SWAP1 PUSH2 0x698 SWAP2 SWAP1 PUSH2 0x47D6 JUMP JUMPDEST PUSH2 0x1D87 JUMP JUMPDEST PUSH1 0x40 MLOAD PUSH2 0x6AA SWAP2 SWAP1 PUSH2 0x4EB1 JUMP JUMPDEST PUSH1 0x40 MLOAD DUP1 SWAP2 SUB SWAP1 RETURN JUMPDEST CALLVALUE DUP1 ISZERO PUSH2 0x6BF JUMPI PUSH1 0x0 DUP1 REVERT JUMPDEST POP PUSH2 0x6DA PUSH1 0x4 DUP1 CALLDATASIZE SUB DUP2 ADD SWAP1 PUSH2 0x6D5 SWAP2 SWAP1 PUSH2 0x46A8 JUMP JUMPDEST PUSH2 0x1E27 JUMP JUMPDEST STOP JUMPDEST CALLVALUE DUP1 ISZERO PUSH2 0x6E8 JUMPI PUSH1 0x0 DUP1 REVERT JUMPDEST POP PUSH2 0x703 PUSH1 0x4 DUP1 CALLDATASIZE SUB DUP2 ADD SWAP1 PUSH2 0x6FE SWAP2 SWAP1 PUSH2 0x43E7 JUMP JUMPDEST PUSH2 0x200D JUMP JUMPDEST STOP JUMPDEST CALLVALUE DUP1 ISZERO PUSH2 0x711 JUMPI PUSH1 0x0 DUP1 REVERT JUMPDEST POP PUSH2 0x72C PUSH1 0x4 DUP1 CALLDATASIZE SUB DUP2 ADD SWAP1 PUSH2 0x727 SWAP2 SWAP1 PUSH2 0x4241 JUMP JUMPDEST PUSH2 0x20A9 JUMP JUMPDEST PUSH1 0x40 MLOAD PUSH2 0x739 SWAP2 SWAP1 PUSH2 0x4E96 JUMP JUMPDEST PUSH1 0x40 MLOAD DUP1 SWAP2 SUB SWAP1 RETURN JUMPDEST CALLVALUE DUP1 ISZERO PUSH2 0x74E JUMPI PUSH1 0x0 DUP1 REVERT JUMPDEST POP PUSH2 0x769 PUSH1 0x4 DUP1 CALLDATASIZE SUB DUP2 ADD SWAP1 PUSH2 0x764 SWAP2 SWAP1 PUSH2 0x4350 JUMP JUMPDEST PUSH2 0x213D JUMP JUMPDEST STOP JUMPDEST CALLVALUE DUP1 ISZERO PUSH2 0x777 JUMPI PUSH1 0x0 DUP1 REVERT JUMPDEST POP PUSH2 0x792 PUSH1 0x4 DUP1 CALLDATASIZE SUB DUP2 ADD SWAP1 PUSH2 0x78D SWAP2 SWAP1 PUSH2 0x4214 JUMP JUMPDEST PUSH2 0x21DE JUMP JUMPDEST STOP JUMPDEST CALLVALUE DUP1 ISZERO PUSH2 0x7A0 JUMPI PUSH1 0x0 DUP1 REVERT JUMPDEST POP PUSH2 0x7BB PUSH1 0x4 DUP1 CALLDATASIZE SUB DUP2 ADD SWAP1 PUSH2 0x7B6 SWAP2 SWAP1 PUSH2 0x45DD JUMP JUMPDEST PUSH2 0x22D6 JUMP JUMPDEST STOP JUMPDEST PUSH1 0x0 DUP1 PUSH20 0xFFFFFFFFFFFFFFFFFFFFFFFFFFFFFFFFFFFFFFFF AND DUP4 PUSH20 0xFFFFFFFFFFFFFFFFFFFFFFFFFFFFFFFFFFFFFFFF AND EQ ISZERO PUSH2 0x82E JUMPI PUSH1 0x40 MLOAD PUSH32 0x8C379A000000000000000000000000000000000000000000000000000000000 DUP2 MSTORE PUSH1 0x4 ADD PUSH2 0x825 SWAP1 PUSH2 0x4FBD JUMP JUMPDEST PUSH1 0x40 MLOAD DUP1 SWAP2 SUB SWAP1 REVERT JUMPDEST PUSH1 0x0 DUP1 DUP4 DUP2 MSTORE PUSH1 0x20 ADD SWAP1 DUP2 MSTORE PUSH1 0x20 ADD PUSH1 0x0 KECCAK256 PUSH1 0x0 DUP5 PUSH20 0xFFFFFFFFFFFFFFFFFFFFFFFFFFFFFFFFFFFFFFFF AND PUSH20 0xFFFFFFFFFFFFFFFFFFFFFFFFFFFFFFFFFFFFFFFF AND DUP2 MSTORE PUSH1 0x20 ADD SWAP1 DUP2 MSTORE PUSH1 0x20 ADD PUSH1 0x0 KECCAK256 SLOAD SWAP1 POP SWAP3 SWAP2 POP POP JUMP JUMPDEST PUSH1 0x0 PUSH32 0xD9B67A2600000000000000000000000000000000000000000000000000000000 PUSH28 0xFFFFFFFFFFFFFFFFFFFFFFFFFFFFFFFFFFFFFFFFFFFFFFFFFFFFFFFF NOT AND DUP3 PUSH28 0xFFFFFFFFFFFFFFFFFFFFFFFFFFFFFFFFFFFFFFFFFFFFFFFFFFFFFFFF NOT AND EQ DUP1 PUSH2 0x951 JUMPI POP PUSH32 0xE89341C00000000000000000000000000000000000000000000000000000000 PUSH28 0xFFFFFFFFFFFFFFFFFFFFFFFFFFFFFFFFFFFFFFFFFFFFFFFFFFFFFFFF NOT AND DUP3 PUSH28 0xFFFFFFFFFFFFFFFFFFFFFFFFFFFFFFFFFFFFFFFFFFFFFFFFFFFFFFFF NOT AND EQ JUMPDEST DUP1 PUSH2 0x961 JUMPI POP PUSH2 0x960 DUP3 PUSH2 0x2373 JUMP JUMPDEST JUMPDEST SWAP1 POP SWAP2 SWAP1 POP JUMP JUMPDEST PUSH1 0x5 DUP1 SLOAD PUSH2 0x975 SWAP1 PUSH2 0x55AE JUMP JUMPDEST DUP1 PUSH1 0x1F ADD PUSH1 0x20 DUP1 SWAP2 DIV MUL PUSH1 0x20 ADD PUSH1 0x40 MLOAD SWAP1 DUP2 ADD PUSH1 0x40 MSTORE DUP1 SWAP3 SWAP2 SWAP1 DUP2 DUP2 MSTORE PUSH1 0x20 ADD DUP3 DUP1 SLOAD PUSH2 0x9A1 SWAP1 PUSH2 0x55AE JUMP JUMPDEST DUP1 ISZERO PUSH2 0x9EE JUMPI DUP1 PUSH1 0x1F LT PUSH2 0x9C3 JUMPI PUSH2 0x100 DUP1 DUP4 SLOAD DIV MUL DUP4 MSTORE SWAP2 PUSH1 0x20 ADD SWAP2 PUSH2 0x9EE JUMP JUMPDEST DUP3 ADD SWAP2 SWAP1 PUSH1 0x0 MSTORE PUSH1 0x20 PUSH1 0x0 KECCAK256 SWAP1 JUMPDEST DUP2 SLOAD DUP2 MSTORE SWAP1 PUSH1 0x1 ADD SWAP1 PUSH1 0x20 ADD DUP1 DUP4 GT PUSH2 0x9D1 JUMPI DUP3 SWAP1 SUB PUSH1 0x1F AND DUP3 ADD SWAP2 JUMPDEST POP POP POP POP POP DUP2 JUMP JUMPDEST PUSH1 0x60 PUSH1 0xA PUSH1 0x0 DUP4 DUP2 MSTORE PUSH1 0x20 ADD SWAP1 DUP2 MSTORE PUSH1 0x20 ADD PUSH1 0x0 KECCAK256 DUP1 SLOAD PUSH2 0xA16 SWAP1 PUSH2 0x55AE JUMP JUMPDEST DUP1 PUSH1 0x1F ADD PUSH1 0x20 DUP1 SWAP2 DIV MUL PUSH1 0x20 ADD PUSH1 0x40 MLOAD SWAP1 DUP2 ADD PUSH1 0x40 MSTORE DUP1 SWAP3 SWAP2 SWAP1 DUP2 DUP2 MSTORE PUSH1 0x20 ADD DUP3 DUP1 SLOAD PUSH2 0xA42 SWAP1 PUSH2 0x55AE JUMP JUMPDEST DUP1 ISZERO PUSH2 0xA8F JUMPI DUP1 PUSH1 0x1F LT PUSH2 0xA64 JUMPI PUSH2 0x100 DUP1 DUP4 SLOAD DIV MUL DUP4 MSTORE SWAP2 PUSH1 0x20 ADD SWAP2 PUSH2 0xA8F JUMP JUMPDEST DUP3 ADD SWAP2 SWAP1 PUSH1 0x0 MSTORE PUSH1 0x20 PUSH1 0x0 KECCAK256 SWAP1 JUMPDEST DUP2 SLOAD DUP2 MSTORE SWAP1 PUSH1 0x1 ADD SWAP1 PUSH1 0x20 ADD DUP1 DUP4 GT PUSH2 0xA72 JUMPI DUP3 SWAP1 SUB PUSH1 0x1F AND DUP3 ADD SWAP2 JUMPDEST POP POP POP POP POP SWAP1 POP SWAP2 SWAP1 POP JUMP JUMPDEST PUSH1 0x0 PUSH1 0xB PUSH1 0x0 DUP4 PUSH20 0xFFFFFFFFFFFFFFFFFFFFFFFFFFFFFFFFFFFFFFFF AND PUSH20 0xFFFFFFFFFFFFFFFFFFFFFFFFFFFFFFFFFFFFFFFF AND DUP2 MSTORE PUSH1 0x20 ADD SWAP1 DUP2 MSTORE PUSH1 0x20 ADD PUSH1 0x0 KECCAK256 SLOAD SWAP1 POP SWAP2 SWAP1 POP JUMP JUMPDEST PUSH2 0xAEC PUSH2 0x23DD JUMP JUMPDEST PUSH20 0xFFFFFFFFFFFFFFFFFFFFFFFFFFFFFFFFFFFFFFFF AND DUP6 PUSH20 0xFFFFFFFFFFFFFFFFFFFFFFFFFFFFFFFFFFFFFFFF AND EQ DUP1 PUSH2 0xB32 JUMPI POP PUSH2 0xB31 DUP6 PUSH2 0xB2C PUSH2 0x23DD JUMP JUMPDEST PUSH2 0x20A9 JUMP JUMPDEST JUMPDEST PUSH2 0xB71 JUMPI PUSH1 0x40 MLOAD PUSH32 0x8C379A000000000000000000000000000000000000000000000000000000000 DUP2 MSTORE PUSH1 0x4 ADD PUSH2 0xB68 SWAP1 PUSH2 0x5131 JUMP JUMPDEST PUSH1 0x40 MLOAD DUP1 SWAP2 SUB SWAP1 REVERT JUMPDEST PUSH2 0xB7E DUP6 DUP6 DUP6 DUP6 DUP6 PUSH2 0x23E5 JUMP JUMPDEST POP POP POP POP POP JUMP JUMPDEST PUSH2 0xB8D PUSH2 0x23DD JUMP JUMPDEST PUSH20 0xFFFFFFFFFFFFFFFFFFFFFFFFFFFFFFFFFFFFFFFF AND PUSH2 0xBAB PUSH2 0x1CCF JUMP JUMPDEST PUSH20 0xFFFFFFFFFFFFFFFFFFFFFFFFFFFFFFFFFFFFFFFF AND EQ PUSH2 0xC01 JUMPI PUSH1 0x40 MLOAD PUSH32 0x8C379A000000000000000000000000000000000000000000000000000000000 DUP2 MSTORE PUSH1 0x4 ADD PUSH2 0xBF8 SWAP1 PUSH2 0x51DB JUMP JUMPDEST PUSH1 0x40 MLOAD DUP1 SWAP2 SUB SWAP1 REVERT JUMPDEST DUP1 PUSH32 0xA2455EC11F160D321516C021994881E7678C0B5870CD7AAE50107098770E2C28 CALLER PUSH1 0x0 PUSH1 0xB PUSH1 0x0 CALLER PUSH20 0xFFFFFFFFFFFFFFFFFFFFFFFFFFFFFFFFFFFFFFFF AND PUSH20 0xFFFFFFFFFFFFFFFFFFFFFFFFFFFFFFFFFFFFFFFF AND DUP2 MSTORE PUSH1 0x20 ADD SWAP1 DUP2 MSTORE PUSH1 0x20 ADD PUSH1 0x0 KECCAK256 SLOAD PUSH1 0x40 MLOAD PUSH2 0xC75 SWAP4 SWAP3 SWAP2 SWAP1 PUSH2 0x4F53 JUMP JUMPDEST PUSH1 0x40 MLOAD DUP1 SWAP2 SUB SWAP1 LOG1 PUSH1 0x6 DUP1 SLOAD SWAP1 POP DUP2 GT ISZERO DUP1 ISZERO PUSH2 0xC92 JUMPI POP PUSH1 0x0 DUP2 GT JUMPDEST PUSH2 0xCD1 JUMPI PUSH1 0x40 MLOAD PUSH32 0x8C379A000000000000000000000000000000000000000000000000000000000 DUP2 MSTORE PUSH1 0x4 ADD PUSH2 0xCC8 SWAP1 PUSH2 0x4EF3 JUMP JUMPDEST PUSH1 0x40 MLOAD DUP1 SWAP2 SUB SWAP1 REVERT JUMPDEST PUSH1 0x0 PUSH1 0x40 MLOAD DUP1 PUSH1 0x40 ADD PUSH1 0x40 MSTORE DUP1 PUSH1 0x0 PUSH1 0xFF AND DUP2 MSTORE PUSH1 0x20 ADD PUSH1 0x0 PUSH1 0xFF AND DUP2 MSTORE POP SWAP1 POP PUSH1 0x0 JUMPDEST DUP5 MLOAD DUP2 LT ISZERO PUSH2 0xF23 JUMPI PUSH1 0x0 PUSH1 0xB PUSH1 0x0 DUP8 DUP5 DUP2 MLOAD DUP2 LT PUSH2 0xD17 JUMPI PUSH2 0xD16 PUSH2 0x56E2 JUMP JUMPDEST JUMPDEST PUSH1 0x20 MUL PUSH1 0x20 ADD ADD MLOAD PUSH20 0xFFFFFFFFFFFFFFFFFFFFFFFFFFFFFFFFFFFFFFFF AND PUSH20 0xFFFFFFFFFFFFFFFFFFFFFFFFFFFFFFFFFFFFFFFF AND DUP2 MSTORE PUSH1 0x20 ADD SWAP1 DUP2 MSTORE PUSH1 0x20 ADD PUSH1 0x0 KECCAK256 SLOAD EQ ISZERO PUSH2 0xE37 JUMPI DUP4 PUSH1 0xB PUSH1 0x0 DUP8 DUP5 DUP2 MLOAD DUP2 LT PUSH2 0xD78 JUMPI PUSH2 0xD77 PUSH2 0x56E2 JUMP JUMPDEST JUMPDEST PUSH1 0x20 MUL PUSH1 0x20 ADD ADD MLOAD PUSH20 0xFFFFFFFFFFFFFFFFFFFFFFFFFFFFFFFFFFFFFFFF AND PUSH20 0xFFFFFFFFFFFFFFFFFFFFFFFFFFFFFFFFFFFFFFFF AND DUP2 MSTORE PUSH1 0x20 ADD SWAP1 DUP2 MSTORE PUSH1 0x20 ADD PUSH1 0x0 KECCAK256 DUP2 SWAP1 SSTORE POP DUP2 PUSH1 0x1 DUP6 PUSH2 0xDCC SWAP2 SWAP1 PUSH2 0x54A5 JUMP JUMPDEST PUSH1 0x2 DUP2 LT PUSH2 0xDDD JUMPI PUSH2 0xDDC PUSH2 0x56E2 JUMP JUMPDEST JUMPDEST PUSH1 0x20 MUL ADD DUP1 MLOAD DUP1 SWAP2 SWAP1 PUSH2 0xDEF SWAP1 PUSH2 0x565A JUMP JUMPDEST PUSH1 0xFF AND PUSH1 0xFF AND DUP2 MSTORE POP POP PUSH1 0x1 DUP5 EQ PUSH2 0xE32 JUMPI DUP2 PUSH1 0x0 PUSH1 0x2 DUP2 LT PUSH2 0xE15 JUMPI PUSH2 0xE14 PUSH2 0x56E2 JUMP JUMPDEST JUMPDEST PUSH1 0x20 MUL ADD DUP1 MLOAD DUP1 SWAP2 SWAP1 PUSH2 0xE27 SWAP1 PUSH2 0x565A JUMP JUMPDEST PUSH1 0xFF AND PUSH1 0xFF AND DUP2 MSTORE POP POP JUMPDEST PUSH2 0xF10 JUMP JUMPDEST PUSH32 0xA2455EC11F160D321516C021994881E7678C0B5870CD7AAE50107098770E2C28 DUP6 DUP3 DUP2 MLOAD DUP2 LT PUSH2 0xE6B JUMPI PUSH2 0xE6A PUSH2 0x56E2 JUMP JUMPDEST JUMPDEST PUSH1 0x20 MUL PUSH1 0x20 ADD ADD MLOAD PUSH1 0x9 PUSH1 0x1 DUP8 PUSH2 0xE82 SWAP2 SWAP1 PUSH2 0x54A5 JUMP JUMPDEST DUP2 SLOAD DUP2 LT PUSH2 0xE93 JUMPI PUSH2 0xE92 PUSH2 0x56E2 JUMP JUMPDEST JUMPDEST SWAP1 PUSH1 0x0 MSTORE PUSH1 0x20 PUSH1 0x0 KECCAK256 ADD SLOAD PUSH1 0xB PUSH1 0x0 DUP10 DUP7 DUP2 MLOAD DUP2 LT PUSH2 0xEB5 JUMPI PUSH2 0xEB4 PUSH2 0x56E2 JUMP JUMPDEST JUMPDEST PUSH1 0x20 MUL PUSH1 0x20 ADD ADD MLOAD PUSH20 0xFFFFFFFFFFFFFFFFFFFFFFFFFFFFFFFFFFFFFFFF AND PUSH20 0xFFFFFFFFFFFFFFFFFFFFFFFFFFFFFFFFFFFFFFFF AND DUP2 MSTORE PUSH1 0x20 ADD SWAP1 DUP2 MSTORE PUSH1 0x20 ADD PUSH1 0x0 KECCAK256 SLOAD PUSH1 0x40 MLOAD PUSH2 0xF07 SWAP4 SWAP3 SWAP2 SWAP1 PUSH2 0x5067 JUMP JUMPDEST PUSH1 0x40 MLOAD DUP1 SWAP2 SUB SWAP1 LOG1 JUMPDEST DUP1 DUP1 PUSH2 0xF1B SWAP1 PUSH2 0x5611 JUMP JUMPDEST SWAP2 POP POP PUSH2 0xCF5 JUMP JUMPDEST POP PUSH1 0x6 PUSH1 0x1 DUP5 PUSH2 0xF33 SWAP2 SWAP1 PUSH2 0x54A5 JUMP JUMPDEST DUP2 SLOAD DUP2 LT PUSH2 0xF44 JUMPI PUSH2 0xF43 PUSH2 0x56E2 JUMP JUMPDEST JUMPDEST SWAP1 PUSH1 0x0 MSTORE PUSH1 0x20 PUSH1 0x0 KECCAK256 ADD SLOAD DUP2 PUSH1 0x1 DUP6 PUSH2 0xF5D SWAP2 SWAP1 PUSH2 0x54A5 JUMP JUMPDEST PUSH1 0x2 DUP2 LT PUSH2 0xF6E JUMPI PUSH2 0xF6D PUSH2 0x56E2 JUMP JUMPDEST JUMPDEST PUSH1 0x20 MUL ADD MLOAD PUSH1 0xFF AND PUSH1 0x9 PUSH1 0x1 DUP7 PUSH2 0xF85 SWAP2 SWAP1 PUSH2 0x54A5 JUMP JUMPDEST DUP2 SLOAD DUP2 LT PUSH2 0xF96 JUMPI PUSH2 0xF95 PUSH2 0x56E2 JUMP JUMPDEST JUMPDEST SWAP1 PUSH1 0x0 MSTORE PUSH1 0x20 PUSH1 0x0 KECCAK256 ADD SLOAD PUSH2 0xFAB SWAP2 SWAP1 PUSH2 0x544F JUMP JUMPDEST GT ISZERO PUSH2 0xFEC JUMPI PUSH1 0x40 MLOAD PUSH32 0x8C379A000000000000000000000000000000000000000000000000000000000 DUP2 MSTORE PUSH1 0x4 ADD PUSH2 0xFE3 SWAP1 PUSH2 0x50D1 JUMP JUMPDEST PUSH1 0x40 MLOAD DUP1 SWAP2 SUB SWAP1 REVERT JUMPDEST PUSH1 0x6 PUSH1 0x1 DUP5 PUSH2 0xFFB SWAP2 SWAP1 PUSH2 0x54A5 JUMP JUMPDEST DUP2 SLOAD DUP2 LT PUSH2 0x100C JUMPI PUSH2 0x100B PUSH2 0x56E2 JUMP JUMPDEST JUMPDEST SWAP1 PUSH1 0x0 MSTORE PUSH1 0x20 PUSH1 0x0 KECCAK256 ADD SLOAD DUP2 PUSH1 0x0 PUSH1 0x2 DUP2 LT PUSH2 0x102B JUMPI PUSH2 0x102A PUSH2 0x56E2 JUMP JUMPDEST JUMPDEST PUSH1 0x20 MUL ADD MLOAD PUSH1 0xFF AND PUSH1 0x9 PUSH1 0x1 DUP7 PUSH2 0x1042 SWAP2 SWAP1 PUSH2 0x54A5 JUMP JUMPDEST DUP2 SLOAD DUP2 LT PUSH2 0x1053 JUMPI PUSH2 0x1052 PUSH2 0x56E2 JUMP JUMPDEST JUMPDEST SWAP1 PUSH1 0x0 MSTORE PUSH1 0x20 PUSH1 0x0 KECCAK256 ADD SLOAD PUSH2 0x1068 SWAP2 SWAP1 PUSH2 0x544F JUMP JUMPDEST GT ISZERO PUSH2 0x10A9 JUMPI PUSH1 0x40 MLOAD PUSH32 0x8C379A000000000000000000000000000000000000000000000000000000000 DUP2 MSTORE PUSH1 0x4 ADD PUSH2 0x10A0 SWAP1 PUSH2 0x50D1 JUMP JUMPDEST PUSH1 0x40 MLOAD DUP1 SWAP2 SUB SWAP1 REVERT JUMPDEST DUP1 PUSH1 0x1 DUP5 PUSH2 0x10B7 SWAP2 SWAP1 PUSH2 0x54A5 JUMP JUMPDEST PUSH1 0x2 DUP2 LT PUSH2 0x10C8 JUMPI PUSH2 0x10C7 PUSH2 0x56E2 JUMP JUMPDEST JUMPDEST PUSH1 0x20 MUL ADD MLOAD PUSH1 0xFF AND PUSH1 0x9 PUSH1 0x1 DUP6 PUSH2 0x10DF SWAP2 SWAP1 PUSH2 0x54A5 JUMP JUMPDEST DUP2 SLOAD DUP2 LT PUSH2 0x10F0 JUMPI PUSH2 0x10EF PUSH2 0x56E2 JUMP JUMPDEST JUMPDEST SWAP1 PUSH1 0x0 MSTORE PUSH1 0x20 PUSH1 0x0 KECCAK256 ADD PUSH1 0x0 DUP3 DUP3 SLOAD PUSH2 0x1109 SWAP2 SWAP1 PUSH2 0x544F JUMP JUMPDEST SWAP3 POP POP DUP2 SWAP1 SSTORE POP DUP1 PUSH1 0x0 PUSH1 0x2 DUP2 LT PUSH2 0x1124 JUMPI PUSH2 0x1123 PUSH2 0x56E2 JUMP JUMPDEST JUMPDEST PUSH1 0x20 MUL ADD MLOAD PUSH1 0xFF AND PUSH1 0x9 PUSH1 0x0 DUP2 SLOAD DUP2 LT PUSH2 0x1141 JUMPI PUSH2 0x1140 PUSH2 0x56E2 JUMP JUMPDEST JUMPDEST SWAP1 PUSH1 0x0 MSTORE PUSH1 0x20 PUSH1 0x0 KECCAK256 ADD PUSH1 0x0 DUP3 DUP3 SLOAD PUSH2 0x115A SWAP2 SWAP1 PUSH2 0x544F JUMP JUMPDEST SWAP3 POP POP DUP2 SWAP1 SSTORE POP POP POP POP POP JUMP JUMPDEST PUSH2 0x116F PUSH2 0x23DD JUMP JUMPDEST PUSH20 0xFFFFFFFFFFFFFFFFFFFFFFFFFFFFFFFFFFFFFFFF AND PUSH2 0x118D PUSH2 0x1CCF JUMP JUMPDEST PUSH20 0xFFFFFFFFFFFFFFFFFFFFFFFFFFFFFFFFFFFFFFFF AND EQ PUSH2 0x11E3 JUMPI PUSH1 0x40 MLOAD PUSH32 0x8C379A000000000000000000000000000000000000000000000000000000000 DUP2 MSTORE PUSH1 0x4 ADD PUSH2 0x11DA SWAP1 PUSH2 0x51DB JUMP JUMPDEST PUSH1 0x40 MLOAD DUP1 SWAP2 SUB SWAP1 REVERT JUMPDEST PUSH2 0x11EB PUSH2 0x26F9 JUMP JUMPDEST JUMP JUMPDEST PUSH1 0x60 DUP2 MLOAD DUP4 MLOAD EQ PUSH2 0x1233 JUMPI PUSH1 0x40 MLOAD PUSH32 0x8C379A000000000000000000000000000000000000000000000000000000000 DUP2 MSTORE PUSH1 0x4 ADD PUSH2 0x122A SWAP1 PUSH2 0x525B JUMP JUMPDEST PUSH1 0x40 MLOAD DUP1 SWAP2 SUB SWAP1 REVERT JUMPDEST PUSH1 0x0 DUP4 MLOAD PUSH8 0xFFFFFFFFFFFFFFFF DUP2 GT ISZERO PUSH2 0x1250 JUMPI PUSH2 0x124F PUSH2 0x5711 JUMP JUMPDEST JUMPDEST PUSH1 0x40 MLOAD SWAP1 DUP1 DUP3 MSTORE DUP1 PUSH1 0x20 MUL PUSH1 0x20 ADD DUP3 ADD PUSH1 0x40 MSTORE DUP1 ISZERO PUSH2 0x127E JUMPI DUP2 PUSH1 0x20 ADD PUSH1 0x20 DUP3 MUL DUP1 CALLDATASIZE DUP4 CALLDATACOPY DUP1 DUP3 ADD SWAP2 POP POP SWAP1 POP JUMPDEST POP SWAP1 POP PUSH1 0x0 JUMPDEST DUP5 MLOAD DUP2 LT ISZERO PUSH2 0x12FB JUMPI PUSH2 0x12CB DUP6 DUP3 DUP2 MLOAD DUP2 LT PUSH2 0x12A3 JUMPI PUSH2 0x12A2 PUSH2 0x56E2 JUMP JUMPDEST JUMPDEST PUSH1 0x20 MUL PUSH1 0x20 ADD ADD MLOAD DUP6 DUP4 DUP2 MLOAD DUP2 LT PUSH2 0x12BE JUMPI PUSH2 0x12BD PUSH2 0x56E2 JUMP JUMPDEST JUMPDEST PUSH1 0x20 MUL PUSH1 0x20 ADD ADD MLOAD PUSH2 0x7BD JUMP JUMPDEST DUP3 DUP3 DUP2 MLOAD DUP2 LT PUSH2 0x12DE JUMPI PUSH2 0x12DD PUSH2 0x56E2 JUMP JUMPDEST JUMPDEST PUSH1 0x20 MUL PUSH1 0x20 ADD ADD DUP2 DUP2 MSTORE POP POP DUP1 PUSH2 0x12F4 SWAP1 PUSH2 0x5611 JUMP JUMPDEST SWAP1 POP PUSH2 0x1284 JUMP JUMPDEST POP DUP1 SWAP2 POP POP SWAP3 SWAP2 POP POP JUMP JUMPDEST PUSH1 0x0 DUP1 PUSH2 0x1312 DUP4 PUSH2 0x1D6A JUMP JUMPDEST GT SWAP1 POP SWAP2 SWAP1 POP JUMP JUMPDEST PUSH2 0x1322 PUSH2 0x23DD JUMP JUMPDEST PUSH20 0xFFFFFFFFFFFFFFFFFFFFFFFFFFFFFFFFFFFFFFFF AND PUSH2 0x1340 PUSH2 0x1CCF JUMP JUMPDEST PUSH20 0xFFFFFFFFFFFFFFFFFFFFFFFFFFFFFFFFFFFFFFFF AND EQ PUSH2 0x1396 JUMPI PUSH1 0x40 MLOAD PUSH32 0x8C379A000000000000000000000000000000000000000000000000000000000 DUP2 MSTORE PUSH1 0x4 ADD PUSH2 0x138D SWAP1 PUSH2 0x51DB JUMP JUMPDEST PUSH1 0x40 MLOAD DUP1 SWAP2 SUB SWAP1 REVERT JUMPDEST PUSH2 0x13A1 DUP6 DUP6 DUP6 PUSH2 0x279B JUMP JUMPDEST PUSH2 0x13BC DUP6 DUP4 DUP4 PUSH1 0x40 MLOAD DUP1 PUSH1 0x20 ADD PUSH1 0x40 MSTORE DUP1 PUSH1 0x0 DUP2 MSTORE POP PUSH2 0x2A4C JUMP JUMPDEST POP POP POP POP POP JUMP JUMPDEST PUSH1 0x0 PUSH1 0x3 PUSH1 0x14 SWAP1 SLOAD SWAP1 PUSH2 0x100 EXP SWAP1 DIV PUSH1 0xFF AND SWAP1 POP SWAP1 JUMP JUMPDEST PUSH2 0x13E2 PUSH2 0x23DD JUMP JUMPDEST PUSH20 0xFFFFFFFFFFFFFFFFFFFFFFFFFFFFFFFFFFFFFFFF AND PUSH2 0x1400 PUSH2 0x1CCF JUMP JUMPDEST PUSH20 0xFFFFFFFFFFFFFFFFFFFFFFFFFFFFFFFFFFFFFFFF AND EQ PUSH2 0x1456 JUMPI PUSH1 0x40 MLOAD PUSH32 0x8C379A000000000000000000000000000000000000000000000000000000000 DUP2 MSTORE PUSH1 0x4 ADD PUSH2 0x144D SWAP1 PUSH2 0x51DB JUMP JUMPDEST PUSH1 0x40 MLOAD DUP1 SWAP2 SUB SWAP1 REVERT JUMPDEST PUSH2 0x145E PUSH2 0x13C3 JUMP JUMPDEST ISZERO PUSH2 0x149E JUMPI PUSH1 0x40 MLOAD PUSH32 0x8C379A000000000000000000000000000000000000000000000000000000000 DUP2 MSTORE PUSH1 0x4 ADD PUSH2 0x1495 SWAP1 PUSH2 0x50F1 JUMP JUMPDEST PUSH1 0x40 MLOAD DUP1 SWAP2 SUB SWAP1 REVERT JUMPDEST DUP1 PUSH32 0xA2455EC11F160D321516C021994881E7678C0B5870CD7AAE50107098770E2C28 CALLER PUSH1 0x0 PUSH1 0xB PUSH1 0x0 CALLER PUSH20 0xFFFFFFFFFFFFFFFFFFFFFFFFFFFFFFFFFFFFFFFF AND PUSH20 0xFFFFFFFFFFFFFFFFFFFFFFFFFFFFFFFFFFFFFFFF AND DUP2 MSTORE PUSH1 0x20 ADD SWAP1 DUP2 MSTORE PUSH1 0x20 ADD PUSH1 0x0 KECCAK256 SLOAD PUSH1 0x40 MLOAD PUSH2 0x1512 SWAP4 SWAP3 SWAP2 SWAP1 PUSH2 0x4FFD JUMP JUMPDEST PUSH1 0x40 MLOAD DUP1 SWAP2 SUB SWAP1 LOG1 PUSH1 0x0 PUSH1 0xB PUSH1 0x0 DUP4 PUSH20 0xFFFFFFFFFFFFFFFFFFFFFFFFFFFFFFFFFFFFFFFF AND PUSH20 0xFFFFFFFFFFFFFFFFFFFFFFFFFFFFFFFFFFFFFFFF AND DUP2 MSTORE PUSH1 0x20 ADD SWAP1 DUP2 MSTORE PUSH1 0x20 ADD PUSH1 0x0 KECCAK256 SLOAD EQ ISZERO PUSH2 0x159D JUMPI PUSH1 0x40 MLOAD PUSH32 0x8C379A000000000000000000000000000000000000000000000000000000000 DUP2 MSTORE PUSH1 0x4 ADD PUSH2 0x1594 SWAP1 PUSH2 0x51FB JUMP JUMPDEST PUSH1 0x40 MLOAD DUP1 SWAP2 SUB SWAP1 REVERT JUMPDEST PUSH1 0x0 PUSH2 0x15A8 DUP4 PUSH2 0xA9B JUMP JUMPDEST SWAP1 POP PUSH1 0x6 DUP1 SLOAD SWAP1 POP DUP2 GT ISZERO DUP1 ISZERO PUSH2 0x15BF JUMPI POP PUSH1 0x0 DUP2 GT JUMPDEST PUSH2 0x15FE JUMPI PUSH1 0x40 MLOAD PUSH32 0x8C379A000000000000000000000000000000000000000000000000000000000 DUP2 MSTORE PUSH1 0x4 ADD PUSH2 0x15F5 SWAP1 PUSH2 0x4EF3 JUMP JUMPDEST PUSH1 0x40 MLOAD DUP1 SWAP2 SUB SWAP1 REVERT JUMPDEST PUSH1 0x0 PUSH1 0x1 DUP3 PUSH2 0x160D SWAP2 SWAP1 PUSH2 0x54A5 JUMP JUMPDEST SWAP1 POP PUSH1 0x6 DUP2 DUP2 SLOAD DUP2 LT PUSH2 0x1623 JUMPI PUSH2 0x1622 PUSH2 0x56E2 JUMP JUMPDEST JUMPDEST SWAP1 PUSH1 0x0 MSTORE PUSH1 0x20 PUSH1 0x0 KECCAK256 ADD SLOAD PUSH1 0x1 PUSH1 0x7 DUP4 DUP2 SLOAD DUP2 LT PUSH2 0x1644 JUMPI PUSH2 0x1643 PUSH2 0x56E2 JUMP JUMPDEST JUMPDEST SWAP1 PUSH1 0x0 MSTORE PUSH1 0x20 PUSH1 0x0 KECCAK256 ADD SLOAD PUSH2 0x1659 SWAP2 SWAP1 PUSH2 0x544F JUMP JUMPDEST GT ISZERO PUSH2 0x169A JUMPI PUSH1 0x40 MLOAD PUSH32 0x8C379A000000000000000000000000000000000000000000000000000000000 DUP2 MSTORE PUSH1 0x4 ADD PUSH2 0x1691 SWAP1 PUSH2 0x4F9D JUMP JUMPDEST PUSH1 0x40 MLOAD DUP1 SWAP2 SUB SWAP1 REVERT JUMPDEST PUSH1 0x8 DUP2 DUP2 SLOAD DUP2 LT PUSH2 0x16AE JUMPI PUSH2 0x16AD PUSH2 0x56E2 JUMP JUMPDEST JUMPDEST SWAP1 PUSH1 0x0 MSTORE PUSH1 0x20 PUSH1 0x0 KECCAK256 ADD SLOAD CALLVALUE LT ISZERO PUSH2 0x16FB JUMPI PUSH1 0x40 MLOAD PUSH32 0x8C379A000000000000000000000000000000000000000000000000000000000 DUP2 MSTORE PUSH1 0x4 ADD PUSH2 0x16F2 SWAP1 PUSH2 0x521B JUMP JUMPDEST PUSH1 0x40 MLOAD DUP1 SWAP2 SUB SWAP1 REVERT JUMPDEST PUSH2 0x1717 DUP5 DUP4 PUSH1 0x1 PUSH1 0x40 MLOAD DUP1 PUSH1 0x20 ADD PUSH1 0x40 MSTORE DUP1 PUSH1 0x0 DUP2 MSTORE POP PUSH2 0x2C6A JUMP JUMPDEST PUSH1 0x7 DUP2 DUP2 SLOAD DUP2 LT PUSH2 0x172B JUMPI PUSH2 0x172A PUSH2 0x56E2 JUMP JUMPDEST JUMPDEST SWAP1 PUSH1 0x0 MSTORE PUSH1 0x20 PUSH1 0x0 KECCAK256 ADD PUSH1 0x0 DUP2 SLOAD DUP1 SWAP3 SWAP2 SWAP1 PUSH2 0x1746 SWAP1 PUSH2 0x5611 JUMP JUMPDEST SWAP2 SWAP1 POP SSTORE POP PUSH1 0x1 DUP3 EQ PUSH2 0x18DB JUMPI PUSH1 0x0 PUSH1 0x1 SWAP1 POP PUSH1 0x6 DUP1 SLOAD SWAP1 POP DUP2 GT ISZERO DUP1 ISZERO PUSH2 0x176E JUMPI POP PUSH1 0x0 DUP2 GT JUMPDEST PUSH2 0x17AD JUMPI PUSH1 0x40 MLOAD PUSH32 0x8C379A000000000000000000000000000000000000000000000000000000000 DUP2 MSTORE PUSH1 0x4 ADD PUSH2 0x17A4 SWAP1 PUSH2 0x4EF3 JUMP JUMPDEST PUSH1 0x40 MLOAD DUP1 SWAP2 SUB SWAP1 REVERT JUMPDEST PUSH1 0x6 PUSH1 0x1 DUP3 PUSH2 0x17BC SWAP2 SWAP1 PUSH2 0x54A5 JUMP JUMPDEST DUP2 SLOAD DUP2 LT PUSH2 0x17CD JUMPI PUSH2 0x17CC PUSH2 0x56E2 JUMP JUMPDEST JUMPDEST SWAP1 PUSH1 0x0 MSTORE PUSH1 0x20 PUSH1 0x0 KECCAK256 ADD SLOAD PUSH1 0x1 PUSH1 0x7 PUSH1 0x1 DUP5 PUSH2 0x17E9 SWAP2 SWAP1 PUSH2 0x54A5 JUMP JUMPDEST DUP2 SLOAD DUP2 LT PUSH2 0x17FA JUMPI PUSH2 0x17F9 PUSH2 0x56E2 JUMP JUMPDEST JUMPDEST SWAP1 PUSH1 0x0 MSTORE PUSH1 0x20 PUSH1 0x0 KECCAK256 ADD SLOAD PUSH2 0x180F SWAP2 SWAP1 PUSH2 0x544F JUMP JUMPDEST GT ISZERO PUSH2 0x1850 JUMPI PUSH1 0x40 MLOAD PUSH32 0x8C379A000000000000000000000000000000000000000000000000000000000 DUP2 MSTORE PUSH1 0x4 ADD PUSH2 0x1847 SWAP1 PUSH2 0x4F9D JUMP JUMPDEST PUSH1 0x40 MLOAD DUP1 SWAP2 SUB SWAP1 REVERT JUMPDEST PUSH1 0x8 PUSH1 0x1 DUP3 PUSH2 0x185F SWAP2 SWAP1 PUSH2 0x54A5 JUMP JUMPDEST DUP2 SLOAD DUP2 LT PUSH2 0x1870 JUMPI PUSH2 0x186F PUSH2 0x56E2 JUMP JUMPDEST JUMPDEST SWAP1 PUSH1 0x0 MSTORE PUSH1 0x20 PUSH1 0x0 KECCAK256 ADD SLOAD CALLVALUE LT ISZERO PUSH2 0x18BD JUMPI PUSH1 0x40 MLOAD PUSH32 0x8C379A000000000000000000000000000000000000000000000000000000000 DUP2 MSTORE PUSH1 0x4 ADD PUSH2 0x18B4 SWAP1 PUSH2 0x521B JUMP JUMPDEST PUSH1 0x40 MLOAD DUP1 SWAP2 SUB SWAP1 REVERT JUMPDEST PUSH2 0x18D9 DUP6 DUP3 PUSH1 0x1 PUSH1 0x40 MLOAD DUP1 PUSH1 0x20 ADD PUSH1 0x40 MSTORE DUP1 PUSH1 0x0 DUP2 MSTORE POP PUSH2 0x2C6A JUMP JUMPDEST POP JUMPDEST PUSH2 0x18E6 DUP5 PUSH1 0x1 PUSH2 0x2E00 JUMP JUMPDEST POP POP POP POP JUMP JUMPDEST PUSH2 0x18F4 PUSH2 0x23DD JUMP JUMPDEST PUSH20 0xFFFFFFFFFFFFFFFFFFFFFFFFFFFFFFFFFFFFFFFF AND DUP4 PUSH20 0xFFFFFFFFFFFFFFFFFFFFFFFFFFFFFFFFFFFFFFFF AND EQ DUP1 PUSH2 0x193A JUMPI POP PUSH2 0x1939 DUP4 PUSH2 0x1934 PUSH2 0x23DD JUMP JUMPDEST PUSH2 0x20A9 JUMP JUMPDEST JUMPDEST PUSH2 0x1979 JUMPI PUSH1 0x40 MLOAD PUSH32 0x8C379A000000000000000000000000000000000000000000000000000000000 DUP2 MSTORE PUSH1 0x4 ADD PUSH2 0x1970 SWAP1 PUSH2 0x50B1 JUMP JUMPDEST PUSH1 0x40 MLOAD DUP1 SWAP2 SUB SWAP1 REVERT JUMPDEST PUSH2 0x1984 DUP4 DUP4 DUP4 PUSH2 0x279B JUMP JUMPDEST POP POP POP JUMP JUMPDEST PUSH2 0x1991 PUSH2 0x23DD JUMP JUMPDEST PUSH20 0xFFFFFFFFFFFFFFFFFFFFFFFFFFFFFFFFFFFFFFFF AND PUSH2 0x19AF PUSH2 0x1CCF JUMP JUMPDEST PUSH20 0xFFFFFFFFFFFFFFFFFFFFFFFFFFFFFFFFFFFFFFFF AND EQ PUSH2 0x1A05 JUMPI PUSH1 0x40 MLOAD PUSH32 0x8C379A000000000000000000000000000000000000000000000000000000000 DUP2 MSTORE PUSH1 0x4 ADD PUSH2 0x19FC SWAP1 PUSH2 0x51DB JUMP JUMPDEST PUSH1 0x40 MLOAD DUP1 SWAP2 SUB SWAP1 REVERT JUMPDEST PUSH2 0x1A0F PUSH1 0x0 PUSH2 0x312C JUMP JUMPDEST JUMP JUMPDEST PUSH2 0x1A1C CALLER DUP4 DUP4 PUSH2 0x279B JUMP JUMPDEST POP POP JUMP JUMPDEST PUSH2 0x1A28 PUSH2 0x23DD JUMP JUMPDEST PUSH20 0xFFFFFFFFFFFFFFFFFFFFFFFFFFFFFFFFFFFFFFFF AND PUSH2 0x1A46 PUSH2 0x1CCF JUMP JUMPDEST PUSH20 0xFFFFFFFFFFFFFFFFFFFFFFFFFFFFFFFFFFFFFFFF AND EQ PUSH2 0x1A9C JUMPI PUSH1 0x40 MLOAD PUSH32 0x8C379A000000000000000000000000000000000000000000000000000000000 DUP2 MSTORE PUSH1 0x4 ADD PUSH2 0x1A93 SWAP1 PUSH2 0x51DB JUMP JUMPDEST PUSH1 0x40 MLOAD DUP1 SWAP2 SUB SWAP1 REVERT JUMPDEST PUSH2 0x1AA4 PUSH2 0x31F2 JUMP JUMPDEST JUMP JUMPDEST PUSH2 0x1AAE PUSH2 0x23DD JUMP JUMPDEST PUSH20 0xFFFFFFFFFFFFFFFFFFFFFFFFFFFFFFFFFFFFFFFF AND PUSH2 0x1ACC PUSH2 0x1CCF JUMP JUMPDEST PUSH20 0xFFFFFFFFFFFFFFFFFFFFFFFFFFFFFFFFFFFFFFFF AND EQ PUSH2 0x1B22 JUMPI PUSH1 0x40 MLOAD PUSH32 0x8C379A000000000000000000000000000000000000000000000000000000000 DUP2 MSTORE PUSH1 0x4 ADD PUSH2 0x1B19 SWAP1 PUSH2 0x51DB JUMP JUMPDEST PUSH1 0x40 MLOAD DUP1 SWAP2 SUB SWAP1 REVERT JUMPDEST CALLER PUSH20 0xFFFFFFFFFFFFFFFFFFFFFFFFFFFFFFFFFFFFFFFF AND PUSH2 0x8FC SELFBALANCE SWAP1 DUP2 ISZERO MUL SWAP1 PUSH1 0x40 MLOAD PUSH1 0x0 PUSH1 0x40 MLOAD DUP1 DUP4 SUB DUP2 DUP6 DUP9 DUP9 CALL SWAP4 POP POP POP POP ISZERO DUP1 ISZERO PUSH2 0x1B68 JUMPI RETURNDATASIZE PUSH1 0x0 DUP1 RETURNDATACOPY RETURNDATASIZE PUSH1 0x0 REVERT JUMPDEST POP JUMP JUMPDEST PUSH2 0x1B73 PUSH2 0x23DD JUMP JUMPDEST PUSH20 0xFFFFFFFFFFFFFFFFFFFFFFFFFFFFFFFFFFFFFFFF AND PUSH2 0x1B91 PUSH2 0x1CCF JUMP JUMPDEST PUSH20 0xFFFFFFFFFFFFFFFFFFFFFFFFFFFFFFFFFFFFFFFF AND EQ PUSH2 0x1BE7 JUMPI PUSH1 0x40 MLOAD PUSH32 0x8C379A000000000000000000000000000000000000000000000000000000000 DUP2 MSTORE PUSH1 0x4 ADD PUSH2 0x1BDE SWAP1 PUSH2 0x51DB JUMP JUMPDEST PUSH1 0x40 MLOAD DUP1 SWAP2 SUB SWAP1 REVERT JUMPDEST DUP1 PUSH1 0xA PUSH1 0x0 DUP5 DUP2 MSTORE PUSH1 0x20 ADD SWAP1 DUP2 MSTORE PUSH1 0x20 ADD PUSH1 0x0 KECCAK256 SWAP1 DUP1 MLOAD SWAP1 PUSH1 0x20 ADD SWAP1 PUSH2 0x1C0E SWAP3 SWAP2 SWAP1 PUSH2 0x3EEC JUMP JUMPDEST POP DUP2 PUSH32 0x6BB7FF708619BA0610CBA295A58592E0451DEE2622938C8755667688DAF3529B DUP3 PUSH1 0x40 MLOAD PUSH2 0x1C3F SWAP2 SWAP1 PUSH2 0x4EB1 JUMP JUMPDEST PUSH1 0x40 MLOAD DUP1 SWAP2 SUB SWAP1 LOG2 POP POP JUMP JUMPDEST PUSH1 0x0 PUSH2 0x1C55 PUSH2 0x23DD JUMP JUMPDEST PUSH20 0xFFFFFFFFFFFFFFFFFFFFFFFFFFFFFFFFFFFFFFFF AND PUSH2 0x1C73 PUSH2 0x1CCF JUMP JUMPDEST PUSH20 0xFFFFFFFFFFFFFFFFFFFFFFFFFFFFFFFFFFFFFFFF AND EQ PUSH2 0x1CC9 JUMPI PUSH1 0x40 MLOAD PUSH32 0x8C379A000000000000000000000000000000000000000000000000000000000 DUP2 MSTORE PUSH1 0x4 ADD PUSH2 0x1CC0 SWAP1 PUSH2 0x51DB JUMP JUMPDEST PUSH1 0x40 MLOAD DUP1 SWAP2 SUB SWAP1 REVERT JUMPDEST SELFBALANCE SWAP1 POP SWAP1 JUMP JUMPDEST PUSH1 0x0 PUSH1 0x3 PUSH1 0x0 SWAP1 SLOAD SWAP1 PUSH2 0x100 EXP SWAP1 DIV PUSH20 0xFFFFFFFFFFFFFFFFFFFFFFFFFFFFFFFFFFFFFFFF AND SWAP1 POP SWAP1 JUMP JUMPDEST PUSH1 0xB PUSH1 0x20 MSTORE DUP1 PUSH1 0x0 MSTORE PUSH1 0x40 PUSH1 0x0 KECCAK256 PUSH1 0x0 SWAP2 POP SWAP1 POP SLOAD DUP2 JUMP JUMPDEST PUSH2 0x1D23 PUSH2 0x1D1C PUSH2 0x23DD JUMP JUMPDEST DUP4 DUP4 PUSH2 0x3295 JUMP JUMPDEST POP POP JUMP JUMPDEST PUSH1 0x0 PUSH1 0x9 PUSH1 0x1 DUP4 PUSH2 0x1D38 SWAP2 SWAP1 PUSH2 0x54A5 JUMP JUMPDEST DUP2 SLOAD DUP2 LT PUSH2 0x1D49 JUMPI PUSH2 0x1D48 PUSH2 0x56E2 JUMP JUMPDEST JUMPDEST SWAP1 PUSH1 0x0 MSTORE PUSH1 0x20 PUSH1 0x0 KECCAK256 ADD SLOAD SWAP1 POP SWAP2 SWAP1 POP JUMP JUMPDEST PUSH2 0x1D66 CALLER DUP4 DUP4 PUSH2 0x3402 JUMP JUMPDEST POP POP JUMP JUMPDEST PUSH1 0x0 PUSH1 0x4 PUSH1 0x0 DUP4 DUP2 MSTORE PUSH1 0x20 ADD SWAP1 DUP2 MSTORE PUSH1 0x20 ADD PUSH1 0x0 KECCAK256 SLOAD SWAP1 POP SWAP2 SWAP1 POP JUMP JUMPDEST PUSH1 0xA PUSH1 0x20 MSTORE DUP1 PUSH1 0x0 MSTORE PUSH1 0x40 PUSH1 0x0 KECCAK256 PUSH1 0x0 SWAP2 POP SWAP1 POP DUP1 SLOAD PUSH2 0x1DA6 SWAP1 PUSH2 0x55AE JUMP JUMPDEST DUP1 PUSH1 0x1F ADD PUSH1 0x20 DUP1 SWAP2 DIV MUL PUSH1 0x20 ADD PUSH1 0x40 MLOAD SWAP1 DUP2 ADD PUSH1 0x40 MSTORE DUP1 SWAP3 SWAP2 SWAP1 DUP2 DUP2 MSTORE PUSH1 0x20 ADD DUP3 DUP1 SLOAD PUSH2 0x1DD2 SWAP1 PUSH2 0x55AE JUMP JUMPDEST DUP1 ISZERO PUSH2 0x1E1F JUMPI DUP1 PUSH1 0x1F LT PUSH2 0x1DF4 JUMPI PUSH2 0x100 DUP1 DUP4 SLOAD DIV MUL DUP4 MSTORE SWAP2 PUSH1 0x20 ADD SWAP2 PUSH2 0x1E1F JUMP JUMPDEST DUP3 ADD SWAP2 SWAP1 PUSH1 0x0 MSTORE PUSH1 0x20 PUSH1 0x0 KECCAK256 SWAP1 JUMPDEST DUP2 SLOAD DUP2 MSTORE SWAP1 PUSH1 0x1 ADD SWAP1 PUSH1 0x20 ADD DUP1 DUP4 GT PUSH2 0x1E02 JUMPI DUP3 SWAP1 SUB PUSH1 0x1F AND DUP3 ADD SWAP2 JUMPDEST POP POP POP POP POP DUP2 JUMP JUMPDEST PUSH2 0x1E2F PUSH2 0x23DD JUMP JUMPDEST PUSH20 0xFFFFFFFFFFFFFFFFFFFFFFFFFFFFFFFFFFFFFFFF AND PUSH2 0x1E4D PUSH2 0x1CCF JUMP JUMPDEST PUSH20 0xFFFFFFFFFFFFFFFFFFFFFFFFFFFFFFFFFFFFFFFF AND EQ PUSH2 0x1EA3 JUMPI PUSH1 0x40 MLOAD PUSH32 0x8C379A000000000000000000000000000000000000000000000000000000000 DUP2 MSTORE PUSH1 0x4 ADD PUSH2 0x1E9A SWAP1 PUSH2 0x51DB JUMP JUMPDEST PUSH1 0x40 MLOAD DUP1 SWAP2 SUB SWAP1 REVERT JUMPDEST DUP1 PUSH32 0xA2455EC11F160D321516C021994881E7678C0B5870CD7AAE50107098770E2C28 CALLER PUSH1 0x0 PUSH1 0xB PUSH1 0x0 CALLER PUSH20 0xFFFFFFFFFFFFFFFFFFFFFFFFFFFFFFFFFFFFFFFF AND PUSH20 0xFFFFFFFFFFFFFFFFFFFFFFFFFFFFFFFFFFFFFFFF AND DUP2 MSTORE PUSH1 0x20 ADD SWAP1 DUP2 MSTORE PUSH1 0x20 ADD PUSH1 0x0 KECCAK256 SLOAD PUSH1 0x40 MLOAD PUSH2 0x1F17 SWAP4 SWAP3 SWAP2 SWAP1 PUSH2 0x4F53 JUMP JUMPDEST PUSH1 0x40 MLOAD DUP1 SWAP2 SUB SWAP1 LOG1 PUSH1 0x6 DUP1 SLOAD SWAP1 POP DUP2 GT ISZERO DUP1 ISZERO PUSH2 0x1F34 JUMPI POP PUSH1 0x0 DUP2 GT JUMPDEST PUSH2 0x1F73 JUMPI PUSH1 0x40 MLOAD PUSH32 0x8C379A000000000000000000000000000000000000000000000000000000000 DUP2 MSTORE PUSH1 0x4 ADD PUSH2 0x1F6A SWAP1 PUSH2 0x4EF3 JUMP JUMPDEST PUSH1 0x40 MLOAD DUP1 SWAP2 SUB SWAP1 REVERT JUMPDEST PUSH1 0x0 DUP1 JUMPDEST DUP5 MLOAD DUP2 LT ISZERO PUSH2 0x1FC5 JUMPI PUSH2 0x1FA4 DUP6 DUP3 DUP2 MLOAD DUP2 LT PUSH2 0x1F96 JUMPI PUSH2 0x1F95 PUSH2 0x56E2 JUMP JUMPDEST JUMPDEST PUSH1 0x20 MUL PUSH1 0x20 ADD ADD MLOAD DUP6 PUSH2 0x2E00 JUMP JUMPDEST DUP2 DUP1 PUSH2 0x1FAF SWAP1 PUSH2 0x5611 JUMP JUMPDEST SWAP3 POP POP DUP1 DUP1 PUSH2 0x1FBD SWAP1 PUSH2 0x5611 JUMP JUMPDEST SWAP2 POP POP PUSH2 0x1F77 JUMP JUMPDEST POP DUP1 PUSH1 0x9 PUSH1 0x1 DUP6 PUSH2 0x1FD6 SWAP2 SWAP1 PUSH2 0x54A5 JUMP JUMPDEST DUP2 SLOAD DUP2 LT PUSH2 0x1FE7 JUMPI PUSH2 0x1FE6 PUSH2 0x56E2 JUMP JUMPDEST JUMPDEST SWAP1 PUSH1 0x0 MSTORE PUSH1 0x20 PUSH1 0x0 KECCAK256 ADD PUSH1 0x0 DUP3 DUP3 SLOAD PUSH2 0x2000 SWAP2 SWAP1 PUSH2 0x54A5 JUMP JUMPDEST SWAP3 POP POP DUP2 SWAP1 SSTORE POP POP POP POP POP JUMP JUMPDEST PUSH2 0x2015 PUSH2 0x23DD JUMP JUMPDEST PUSH20 0xFFFFFFFFFFFFFFFFFFFFFFFFFFFFFFFFFFFFFFFF AND PUSH2 0x2033 PUSH2 0x1CCF JUMP JUMPDEST PUSH20 0xFFFFFFFFFFFFFFFFFFFFFFFFFFFFFFFFFFFFFFFF AND EQ PUSH2 0x2089 JUMPI PUSH1 0x40 MLOAD PUSH32 0x8C379A000000000000000000000000000000000000000000000000000000000 DUP2 MSTORE PUSH1 0x4 ADD PUSH2 0x2080 SWAP1 PUSH2 0x51DB JUMP JUMPDEST PUSH1 0x40 MLOAD DUP1 SWAP2 SUB SWAP1 REVERT JUMPDEST PUSH2 0x20A4 DUP4 DUP4 DUP4 PUSH1 0x40 MLOAD DUP1 PUSH1 0x20 ADD PUSH1 0x40 MSTORE DUP1 PUSH1 0x0 DUP2 MSTORE POP PUSH2 0x2A4C JUMP JUMPDEST POP POP POP JUMP JUMPDEST PUSH1 0x0 PUSH1 0x1 PUSH1 0x0 DUP5 PUSH20 0xFFFFFFFFFFFFFFFFFFFFFFFFFFFFFFFFFFFFFFFF AND PUSH20 0xFFFFFFFFFFFFFFFFFFFFFFFFFFFFFFFFFFFFFFFF AND DUP2 MSTORE PUSH1 0x20 ADD SWAP1 DUP2 MSTORE PUSH1 0x20 ADD PUSH1 0x0 KECCAK256 PUSH1 0x0 DUP4 PUSH20 0xFFFFFFFFFFFFFFFFFFFFFFFFFFFFFFFFFFFFFFFF AND PUSH20 0xFFFFFFFFFFFFFFFFFFFFFFFFFFFFFFFFFFFFFFFF AND DUP2 MSTORE PUSH1 0x20 ADD SWAP1 DUP2 MSTORE PUSH1 0x20 ADD PUSH1 0x0 KECCAK256 PUSH1 0x0 SWAP1 SLOAD SWAP1 PUSH2 0x100 EXP SWAP1 DIV PUSH1 0xFF AND SWAP1 POP SWAP3 SWAP2 POP POP JUMP JUMPDEST PUSH2 0x2145 PUSH2 0x23DD JUMP JUMPDEST PUSH20 0xFFFFFFFFFFFFFFFFFFFFFFFFFFFFFFFFFFFFFFFF AND DUP6 PUSH20 0xFFFFFFFFFFFFFFFFFFFFFFFFFFFFFFFFFFFFFFFF AND EQ DUP1 PUSH2 0x218B JUMPI POP PUSH2 0x218A DUP6 PUSH2 0x2185 PUSH2 0x23DD JUMP JUMPDEST PUSH2 0x20A9 JUMP JUMPDEST JUMPDEST PUSH2 0x21CA JUMPI PUSH1 0x40 MLOAD PUSH32 0x8C379A000000000000000000000000000000000000000000000000000000000 DUP2 MSTORE PUSH1 0x4 ADD PUSH2 0x21C1 SWAP1 PUSH2 0x50B1 JUMP JUMPDEST PUSH1 0x40 MLOAD DUP1 SWAP2 SUB SWAP1 REVERT JUMPDEST PUSH2 0x21D7 DUP6 DUP6 DUP6 DUP6 DUP6 PUSH2 0x361F JUMP JUMPDEST POP POP POP POP POP JUMP JUMPDEST PUSH2 0x21E6 PUSH2 0x23DD JUMP JUMPDEST PUSH20 0xFFFFFFFFFFFFFFFFFFFFFFFFFFFFFFFFFFFFFFFF AND PUSH2 0x2204 PUSH2 0x1CCF JUMP JUMPDEST PUSH20 0xFFFFFFFFFFFFFFFFFFFFFFFFFFFFFFFFFFFFFFFF AND EQ PUSH2 0x225A JUMPI PUSH1 0x40 MLOAD PUSH32 0x8C379A000000000000000000000000000000000000000000000000000000000 DUP2 MSTORE PUSH1 0x4 ADD PUSH2 0x2251 SWAP1 PUSH2 0x51DB JUMP JUMPDEST PUSH1 0x40 MLOAD DUP1 SWAP2 SUB SWAP1 REVERT JUMPDEST PUSH1 0x0 PUSH20 0xFFFFFFFFFFFFFFFFFFFFFFFFFFFFFFFFFFFFFFFF AND DUP2 PUSH20 0xFFFFFFFFFFFFFFFFFFFFFFFFFFFFFFFFFFFFFFFF AND EQ ISZERO PUSH2 0x22CA JUMPI PUSH1 0x40 MLOAD PUSH32 0x8C379A000000000000000000000000000000000000000000000000000000000 DUP2 MSTORE PUSH1 0x4 ADD PUSH2 0x22C1 SWAP1 PUSH2 0x4FDD JUMP JUMPDEST PUSH1 0x40 MLOAD DUP1 SWAP2 SUB SWAP1 REVERT JUMPDEST PUSH2 0x22D3 DUP2 PUSH2 0x312C JUMP JUMPDEST POP JUMP JUMPDEST PUSH2 0x22DE PUSH2 0x23DD JUMP JUMPDEST PUSH20 0xFFFFFFFFFFFFFFFFFFFFFFFFFFFFFFFFFFFFFFFF AND DUP4 PUSH20 0xFFFFFFFFFFFFFFFFFFFFFFFFFFFFFFFFFFFFFFFF AND EQ DUP1 PUSH2 0x2324 JUMPI POP PUSH2 0x2323 DUP4 PUSH2 0x231E PUSH2 0x23DD JUMP JUMPDEST PUSH2 0x20A9 JUMP JUMPDEST JUMPDEST PUSH2 0x2363 JUMPI PUSH1 0x40 MLOAD PUSH32 0x8C379A000000000000000000000000000000000000000000000000000000000 DUP2 MSTORE PUSH1 0x4 ADD PUSH2 0x235A SWAP1 PUSH2 0x50B1 JUMP JUMPDEST PUSH1 0x40 MLOAD DUP1 SWAP2 SUB SWAP1 REVERT JUMPDEST PUSH2 0x236E DUP4 DUP4 DUP4 PUSH2 0x3402 JUMP JUMPDEST POP POP POP JUMP JUMPDEST PUSH1 0x0 PUSH32 0x1FFC9A700000000000000000000000000000000000000000000000000000000 PUSH28 0xFFFFFFFFFFFFFFFFFFFFFFFFFFFFFFFFFFFFFFFFFFFFFFFFFFFFFFFF NOT AND DUP3 PUSH28 0xFFFFFFFFFFFFFFFFFFFFFFFFFFFFFFFFFFFFFFFFFFFFFFFFFFFFFFFF NOT AND EQ SWAP1 POP SWAP2 SWAP1 POP JUMP JUMPDEST PUSH1 0x0 CALLER SWAP1 POP SWAP1 JUMP JUMPDEST DUP2 MLOAD DUP4 MLOAD EQ PUSH2 0x2429 JUMPI PUSH1 0x40 MLOAD PUSH32 0x8C379A000000000000000000000000000000000000000000000000000000000 DUP2 MSTORE PUSH1 0x4 ADD PUSH2 0x2420 SWAP1 PUSH2 0x527B JUMP JUMPDEST PUSH1 0x40 MLOAD DUP1 SWAP2 SUB SWAP1 REVERT JUMPDEST PUSH1 0x0 PUSH20 0xFFFFFFFFFFFFFFFFFFFFFFFFFFFFFFFFFFFFFFFF AND DUP5 PUSH20 0xFFFFFFFFFFFFFFFFFFFFFFFFFFFFFFFFFFFFFFFF AND EQ ISZERO PUSH2 0x2499 JUMPI PUSH1 0x40 MLOAD PUSH32 0x8C379A000000000000000000000000000000000000000000000000000000000 DUP2 MSTORE PUSH1 0x4 ADD PUSH2 0x2490 SWAP1 PUSH2 0x5111 JUMP JUMPDEST PUSH1 0x40 MLOAD DUP1 SWAP2 SUB SWAP1 REVERT JUMPDEST PUSH1 0x0 PUSH2 0x24A3 PUSH2 0x23DD JUMP JUMPDEST SWAP1 POP PUSH2 0x24B3 DUP2 DUP8 DUP8 DUP8 DUP8 DUP8 PUSH2 0x38A1 JUMP JUMPDEST PUSH1 0x0 JUMPDEST DUP5 MLOAD DUP2 LT ISZERO PUSH2 0x2664 JUMPI PUSH1 0x0 DUP6 DUP3 DUP2 MLOAD DUP2 LT PUSH2 0x24D4 JUMPI PUSH2 0x24D3 PUSH2 0x56E2 JUMP JUMPDEST JUMPDEST PUSH1 0x20 MUL PUSH1 0x20 ADD ADD MLOAD SWAP1 POP PUSH1 0x0 DUP6 DUP4 DUP2 MLOAD DUP2 LT PUSH2 0x24F3 JUMPI PUSH2 0x24F2 PUSH2 0x56E2 JUMP JUMPDEST JUMPDEST PUSH1 0x20 MUL PUSH1 0x20 ADD ADD MLOAD SWAP1 POP PUSH1 0x0 DUP1 PUSH1 0x0 DUP5 DUP2 MSTORE PUSH1 0x20 ADD SWAP1 DUP2 MSTORE PUSH1 0x20 ADD PUSH1 0x0 KECCAK256 PUSH1 0x0 DUP12 PUSH20 0xFFFFFFFFFFFFFFFFFFFFFFFFFFFFFFFFFFFFFFFF AND PUSH20 0xFFFFFFFFFFFFFFFFFFFFFFFFFFFFFFFFFFFFFFFF AND DUP2 MSTORE PUSH1 0x20 ADD SWAP1 DUP2 MSTORE PUSH1 0x20 ADD PUSH1 0x0 KECCAK256 SLOAD SWAP1 POP DUP2 DUP2 LT ISZERO PUSH2 0x2594 JUMPI PUSH1 0x40 MLOAD PUSH32 0x8C379A000000000000000000000000000000000000000000000000000000000 DUP2 MSTORE PUSH1 0x4 ADD PUSH2 0x258B SWAP1 PUSH2 0x5171 JUMP JUMPDEST PUSH1 0x40 MLOAD DUP1 SWAP2 SUB SWAP1 REVERT JUMPDEST DUP2 DUP2 SUB PUSH1 0x0 DUP1 DUP6 DUP2 MSTORE PUSH1 0x20 ADD SWAP1 DUP2 MSTORE PUSH1 0x20 ADD PUSH1 0x0 KECCAK256 PUSH1 0x0 DUP13 PUSH20 0xFFFFFFFFFFFFFFFFFFFFFFFFFFFFFFFFFFFFFFFF AND PUSH20 0xFFFFFFFFFFFFFFFFFFFFFFFFFFFFFFFFFFFFFFFF AND DUP2 MSTORE PUSH1 0x20 ADD SWAP1 DUP2 MSTORE PUSH1 0x20 ADD PUSH1 0x0 KECCAK256 DUP2 SWAP1 SSTORE POP DUP2 PUSH1 0x0 DUP1 DUP6 DUP2 MSTORE PUSH1 0x20 ADD SWAP1 DUP2 MSTORE PUSH1 0x20 ADD PUSH1 0x0 KECCAK256 PUSH1 0x0 DUP12 PUSH20 0xFFFFFFFFFFFFFFFFFFFFFFFFFFFFFFFFFFFFFFFF AND PUSH20 0xFFFFFFFFFFFFFFFFFFFFFFFFFFFFFFFFFFFFFFFF AND DUP2 MSTORE PUSH1 0x20 ADD SWAP1 DUP2 MSTORE PUSH1 0x20 ADD PUSH1 0x0 KECCAK256 PUSH1 0x0 DUP3 DUP3 SLOAD PUSH2 0x2649 SWAP2 SWAP1 PUSH2 0x544F JUMP JUMPDEST SWAP3 POP POP DUP2 SWAP1 SSTORE POP POP POP POP DUP1 PUSH2 0x265D SWAP1 PUSH2 0x5611 JUMP JUMPDEST SWAP1 POP PUSH2 0x24B6 JUMP JUMPDEST POP DUP5 PUSH20 0xFFFFFFFFFFFFFFFFFFFFFFFFFFFFFFFFFFFFFFFF AND DUP7 PUSH20 0xFFFFFFFFFFFFFFFFFFFFFFFFFFFFFFFFFFFFFFFF AND DUP3 PUSH20 0xFFFFFFFFFFFFFFFFFFFFFFFFFFFFFFFFFFFFFFFF AND PUSH32 0x4A39DC06D4C0DBC64B70AF90FD698A233A518AA5D07E595D983B8C0526C8F7FB DUP8 DUP8 PUSH1 0x40 MLOAD PUSH2 0x26DB SWAP3 SWAP2 SWAP1 PUSH2 0x4E5F JUMP JUMPDEST PUSH1 0x40 MLOAD DUP1 SWAP2 SUB SWAP1 LOG4 PUSH2 0x26F1 DUP2 DUP8 DUP8 DUP8 DUP8 DUP8 PUSH2 0x38FF JUMP JUMPDEST POP POP POP POP POP POP JUMP JUMPDEST PUSH2 0x2701 PUSH2 0x13C3 JUMP JUMPDEST PUSH2 0x2740 JUMPI PUSH1 0x40 MLOAD PUSH32 0x8C379A000000000000000000000000000000000000000000000000000000000 DUP2 MSTORE PUSH1 0x4 ADD PUSH2 0x2737 SWAP1 PUSH2 0x4F33 JUMP JUMPDEST PUSH1 0x40 MLOAD DUP1 SWAP2 SUB SWAP1 REVERT JUMPDEST PUSH1 0x0 PUSH1 0x3 PUSH1 0x14 PUSH2 0x100 EXP DUP2 SLOAD DUP2 PUSH1 0xFF MUL NOT AND SWAP1 DUP4 ISZERO ISZERO MUL OR SWAP1 SSTORE POP PUSH32 0x5DB9EE0A495BF2E6FF9C91A7834C1BA4FDD244A5E8AA4E537BD38AEAE4B073AA PUSH2 0x2784 PUSH2 0x23DD JUMP JUMPDEST PUSH1 0x40 MLOAD PUSH2 0x2791 SWAP2 SWAP1 PUSH2 0x4D60 JUMP JUMPDEST PUSH1 0x40 MLOAD DUP1 SWAP2 SUB SWAP1 LOG1 JUMP JUMPDEST PUSH1 0x0 PUSH20 0xFFFFFFFFFFFFFFFFFFFFFFFFFFFFFFFFFFFFFFFF AND DUP4 PUSH20 0xFFFFFFFFFFFFFFFFFFFFFFFFFFFFFFFFFFFFFFFF AND EQ ISZERO PUSH2 0x280B JUMPI PUSH1 0x40 MLOAD PUSH32 0x8C379A000000000000000000000000000000000000000000000000000000000 DUP2 MSTORE PUSH1 0x4 ADD PUSH2 0x2802 SWAP1 PUSH2 0x5151 JUMP JUMPDEST PUSH1 0x40 MLOAD DUP1 SWAP2 SUB SWAP1 REVERT JUMPDEST DUP1 MLOAD DUP3 MLOAD EQ PUSH2 0x284F JUMPI PUSH1 0x40 MLOAD PUSH32 0x8C379A000000000000000000000000000000000000000000000000000000000 DUP2 MSTORE PUSH1 0x4 ADD PUSH2 0x2846 SWAP1 PUSH2 0x527B JUMP JUMPDEST PUSH1 0x40 MLOAD DUP1 SWAP2 SUB SWAP1 REVERT JUMPDEST PUSH1 0x0 PUSH2 0x2859 PUSH2 0x23DD JUMP JUMPDEST SWAP1 POP PUSH2 0x2879 DUP2 DUP6 PUSH1 0x0 DUP7 DUP7 PUSH1 0x40 MLOAD DUP1 PUSH1 0x20 ADD PUSH1 0x40 MSTORE DUP1 PUSH1 0x0 DUP2 MSTORE POP PUSH2 0x38A1 JUMP JUMPDEST PUSH1 0x0 JUMPDEST DUP4 MLOAD DUP2 LT ISZERO PUSH2 0x29C6 JUMPI PUSH1 0x0 DUP5 DUP3 DUP2 MLOAD DUP2 LT PUSH2 0x289A JUMPI PUSH2 0x2899 PUSH2 0x56E2 JUMP JUMPDEST JUMPDEST PUSH1 0x20 MUL PUSH1 0x20 ADD ADD MLOAD SWAP1 POP PUSH1 0x0 DUP5 DUP4 DUP2 MLOAD DUP2 LT PUSH2 0x28B9 JUMPI PUSH2 0x28B8 PUSH2 0x56E2 JUMP JUMPDEST JUMPDEST PUSH1 0x20 MUL PUSH1 0x20 ADD ADD MLOAD SWAP1 POP PUSH1 0x0 DUP1 PUSH1 0x0 DUP5 DUP2 MSTORE PUSH1 0x20 ADD SWAP1 DUP2 MSTORE PUSH1 0x20 ADD PUSH1 0x0 KECCAK256 PUSH1 0x0 DUP10 PUSH20 0xFFFFFFFFFFFFFFFFFFFFFFFFFFFFFFFFFFFFFFFF AND PUSH20 0xFFFFFFFFFFFFFFFFFFFFFFFFFFFFFFFFFFFFFFFF AND DUP2 MSTORE PUSH1 0x20 ADD SWAP1 DUP2 MSTORE PUSH1 0x20 ADD PUSH1 0x0 KECCAK256 SLOAD SWAP1 POP DUP2 DUP2 LT ISZERO PUSH2 0x295A JUMPI PUSH1 0x40 MLOAD PUSH32 0x8C379A000000000000000000000000000000000000000000000000000000000 DUP2 MSTORE PUSH1 0x4 ADD PUSH2 0x2951 SWAP1 PUSH2 0x5047 JUMP JUMPDEST PUSH1 0x40 MLOAD DUP1 SWAP2 SUB SWAP1 REVERT JUMPDEST DUP2 DUP2 SUB PUSH1 0x0 DUP1 DUP6 DUP2 MSTORE PUSH1 0x20 ADD SWAP1 DUP2 MSTORE PUSH1 0x20 ADD PUSH1 0x0 KECCAK256 PUSH1 0x0 DUP11 PUSH20 0xFFFFFFFFFFFFFFFFFFFFFFFFFFFFFFFFFFFFFFFF AND PUSH20 0xFFFFFFFFFFFFFFFFFFFFFFFFFFFFFFFFFFFFFFFF AND DUP2 MSTORE PUSH1 0x20 ADD SWAP1 DUP2 MSTORE PUSH1 0x20 ADD PUSH1 0x0 KECCAK256 DUP2 SWAP1 SSTORE POP POP POP POP DUP1 DUP1 PUSH2 0x29BE SWAP1 PUSH2 0x5611 JUMP JUMPDEST SWAP2 POP POP PUSH2 0x287C JUMP JUMPDEST POP PUSH1 0x0 PUSH20 0xFFFFFFFFFFFFFFFFFFFFFFFFFFFFFFFFFFFFFFFF AND DUP5 PUSH20 0xFFFFFFFFFFFFFFFFFFFFFFFFFFFFFFFFFFFFFFFF AND DUP3 PUSH20 0xFFFFFFFFFFFFFFFFFFFFFFFFFFFFFFFFFFFFFFFF AND PUSH32 0x4A39DC06D4C0DBC64B70AF90FD698A233A518AA5D07E595D983B8C0526C8F7FB DUP7 DUP7 PUSH1 0x40 MLOAD PUSH2 0x2A3E SWAP3 SWAP2 SWAP1 PUSH2 0x4E5F JUMP JUMPDEST PUSH1 0x40 MLOAD DUP1 SWAP2 SUB SWAP1 LOG4 POP POP POP POP JUMP JUMPDEST PUSH1 0x0 PUSH20 0xFFFFFFFFFFFFFFFFFFFFFFFFFFFFFFFFFFFFFFFF AND DUP5 PUSH20 0xFFFFFFFFFFFFFFFFFFFFFFFFFFFFFFFFFFFFFFFF AND EQ ISZERO PUSH2 0x2ABC JUMPI PUSH1 0x40 MLOAD PUSH32 0x8C379A000000000000000000000000000000000000000000000000000000000 DUP2 MSTORE PUSH1 0x4 ADD PUSH2 0x2AB3 SWAP1 PUSH2 0x529B JUMP JUMPDEST PUSH1 0x40 MLOAD DUP1 SWAP2 SUB SWAP1 REVERT JUMPDEST DUP2 MLOAD DUP4 MLOAD EQ PUSH2 0x2B00 JUMPI PUSH1 0x40 MLOAD PUSH32 0x8C379A000000000000000000000000000000000000000000000000000000000 DUP2 MSTORE PUSH1 0x4 ADD PUSH2 0x2AF7 SWAP1 PUSH2 0x527B JUMP JUMPDEST PUSH1 0x40 MLOAD DUP1 SWAP2 SUB SWAP1 REVERT JUMPDEST PUSH1 0x0 PUSH2 0x2B0A PUSH2 0x23DD JUMP JUMPDEST SWAP1 POP PUSH2 0x2B1B DUP2 PUSH1 0x0 DUP8 DUP8 DUP8 DUP8 PUSH2 0x38A1 JUMP JUMPDEST PUSH1 0x0 JUMPDEST DUP5 MLOAD DUP2 LT ISZERO PUSH2 0x2BD4 JUMPI DUP4 DUP2 DUP2 MLOAD DUP2 LT PUSH2 0x2B3A JUMPI PUSH2 0x2B39 PUSH2 0x56E2 JUMP JUMPDEST JUMPDEST PUSH1 0x20 MUL PUSH1 0x20 ADD ADD MLOAD PUSH1 0x0 DUP1 DUP8 DUP5 DUP2 MLOAD DUP2 LT PUSH2 0x2B58 JUMPI PUSH2 0x2B57 PUSH2 0x56E2 JUMP JUMPDEST JUMPDEST PUSH1 0x20 MUL PUSH1 0x20 ADD ADD MLOAD DUP2 MSTORE PUSH1 0x20 ADD SWAP1 DUP2 MSTORE PUSH1 0x20 ADD PUSH1 0x0 KECCAK256 PUSH1 0x0 DUP9 PUSH20 0xFFFFFFFFFFFFFFFFFFFFFFFFFFFFFFFFFFFFFFFF AND PUSH20 0xFFFFFFFFFFFFFFFFFFFFFFFFFFFFFFFFFFFFFFFF AND DUP2 MSTORE PUSH1 0x20 ADD SWAP1 DUP2 MSTORE PUSH1 0x20 ADD PUSH1 0x0 KECCAK256 PUSH1 0x0 DUP3 DUP3 SLOAD PUSH2 0x2BBA SWAP2 SWAP1 PUSH2 0x544F JUMP JUMPDEST SWAP3 POP POP DUP2 SWAP1 SSTORE POP DUP1 DUP1 PUSH2 0x2BCC SWAP1 PUSH2 0x5611 JUMP JUMPDEST SWAP2 POP POP PUSH2 0x2B1E JUMP JUMPDEST POP DUP5 PUSH20 0xFFFFFFFFFFFFFFFFFFFFFFFFFFFFFFFFFFFFFFFF AND PUSH1 0x0 PUSH20 0xFFFFFFFFFFFFFFFFFFFFFFFFFFFFFFFFFFFFFFFF AND DUP3 PUSH20 0xFFFFFFFFFFFFFFFFFFFFFFFFFFFFFFFFFFFFFFFF AND PUSH32 0x4A39DC06D4C0DBC64B70AF90FD698A233A518AA5D07E595D983B8C0526C8F7FB DUP8 DUP8 PUSH1 0x40 MLOAD PUSH2 0x2C4C SWAP3 SWAP2 SWAP1 PUSH2 0x4E5F JUMP JUMPDEST PUSH1 0x40 MLOAD DUP1 SWAP2 SUB SWAP1 LOG4 PUSH2 0x2C63 DUP2 PUSH1 0x0 DUP8 DUP8 DUP8 DUP8 PUSH2 0x38FF JUMP JUMPDEST POP POP POP POP POP JUMP JUMPDEST PUSH1 0x0 PUSH20 0xFFFFFFFFFFFFFFFFFFFFFFFFFFFFFFFFFFFFFFFF AND DUP5 PUSH20 0xFFFFFFFFFFFFFFFFFFFFFFFFFFFFFFFFFFFFFFFF AND EQ ISZERO PUSH2 0x2CDA JUMPI PUSH1 0x40 MLOAD PUSH32 0x8C379A000000000000000000000000000000000000000000000000000000000 DUP2 MSTORE PUSH1 0x4 ADD PUSH2 0x2CD1 SWAP1 PUSH2 0x529B JUMP JUMPDEST PUSH1 0x40 MLOAD DUP1 SWAP2 SUB SWAP1 REVERT JUMPDEST PUSH1 0x0 PUSH2 0x2CE4 PUSH2 0x23DD JUMP JUMPDEST SWAP1 POP PUSH2 0x2D05 DUP2 PUSH1 0x0 DUP8 PUSH2 0x2CF6 DUP9 PUSH2 0x3AE6 JUMP JUMPDEST PUSH2 0x2CFF DUP9 PUSH2 0x3AE6 JUMP JUMPDEST DUP8 PUSH2 0x38A1 JUMP JUMPDEST DUP3 PUSH1 0x0 DUP1 DUP7 DUP2 MSTORE PUSH1 0x20 ADD SWAP1 DUP2 MSTORE PUSH1 0x20 ADD PUSH1 0x0 KECCAK256 PUSH1 0x0 DUP8 PUSH20 0xFFFFFFFFFFFFFFFFFFFFFFFFFFFFFFFFFFFFFFFF AND PUSH20 0xFFFFFFFFFFFFFFFFFFFFFFFFFFFFFFFFFFFFFFFF AND DUP2 MSTORE PUSH1 0x20 ADD SWAP1 DUP2 MSTORE PUSH1 0x20 ADD PUSH1 0x0 KECCAK256 PUSH1 0x0 DUP3 DUP3 SLOAD PUSH2 0x2D64 SWAP2 SWAP1 PUSH2 0x544F JUMP JUMPDEST SWAP3 POP POP DUP2 SWAP1 SSTORE POP DUP5 PUSH20 0xFFFFFFFFFFFFFFFFFFFFFFFFFFFFFFFFFFFFFFFF AND PUSH1 0x0 PUSH20 0xFFFFFFFFFFFFFFFFFFFFFFFFFFFFFFFFFFFFFFFF AND DUP3 PUSH20 0xFFFFFFFFFFFFFFFFFFFFFFFFFFFFFFFFFFFFFFFF AND PUSH32 0xC3D58168C5AE7397731D063D5BBF3D657854427343F4C083240F7AACAA2D0F62 DUP8 DUP8 PUSH1 0x40 MLOAD PUSH2 0x2DE2 SWAP3 SWAP2 SWAP1 PUSH2 0x52D6 JUMP JUMPDEST PUSH1 0x40 MLOAD DUP1 SWAP2 SUB SWAP1 LOG4 PUSH2 0x2DF9 DUP2 PUSH1 0x0 DUP8 DUP8 DUP8 DUP8 PUSH2 0x3B60 JUMP JUMPDEST POP POP POP POP POP JUMP JUMPDEST PUSH2 0x2E08 PUSH2 0x23DD JUMP JUMPDEST PUSH20 0xFFFFFFFFFFFFFFFFFFFFFFFFFFFFFFFFFFFFFFFF AND PUSH2 0x2E26 PUSH2 0x1CCF JUMP JUMPDEST PUSH20 0xFFFFFFFFFFFFFFFFFFFFFFFFFFFFFFFFFFFFFFFF AND EQ PUSH2 0x2E7C JUMPI PUSH1 0x40 MLOAD PUSH32 0x8C379A000000000000000000000000000000000000000000000000000000000 DUP2 MSTORE PUSH1 0x4 ADD PUSH2 0x2E73 SWAP1 PUSH2 0x51DB JUMP JUMPDEST PUSH1 0x40 MLOAD DUP1 SWAP2 SUB SWAP1 REVERT JUMPDEST DUP1 PUSH32 0xA2455EC11F160D321516C021994881E7678C0B5870CD7AAE50107098770E2C28 CALLER PUSH1 0x0 PUSH1 0xB PUSH1 0x0 CALLER PUSH20 0xFFFFFFFFFFFFFFFFFFFFFFFFFFFFFFFFFFFFFFFF AND PUSH20 0xFFFFFFFFFFFFFFFFFFFFFFFFFFFFFFFFFFFFFFFF AND DUP2 MSTORE PUSH1 0x20 ADD SWAP1 DUP2 MSTORE PUSH1 0x20 ADD PUSH1 0x0 KECCAK256 SLOAD PUSH1 0x40 MLOAD PUSH2 0x2EF0 SWAP4 SWAP3 SWAP2 SWAP1 PUSH2 0x4F53 JUMP JUMPDEST PUSH1 0x40 MLOAD DUP1 SWAP2 SUB SWAP1 LOG1 PUSH1 0x6 DUP1 SLOAD SWAP1 POP DUP2 GT ISZERO DUP1 ISZERO PUSH2 0x2F0D JUMPI POP PUSH1 0x0 DUP2 GT JUMPDEST PUSH2 0x2F4C JUMPI PUSH1 0x40 MLOAD PUSH32 0x8C379A000000000000000000000000000000000000000000000000000000000 DUP2 MSTORE PUSH1 0x4 ADD PUSH2 0x2F43 SWAP1 PUSH2 0x4EF3 JUMP JUMPDEST PUSH1 0x40 MLOAD DUP1 SWAP2 SUB SWAP1 REVERT JUMPDEST PUSH1 0x0 DUP1 PUSH1 0xB PUSH1 0x0 DUP7 PUSH20 0xFFFFFFFFFFFFFFFFFFFFFFFFFFFFFFFFFFFFFFFF AND PUSH20 0xFFFFFFFFFFFFFFFFFFFFFFFFFFFFFFFFFFFFFFFF AND DUP2 MSTORE PUSH1 0x20 ADD SWAP1 DUP2 MSTORE PUSH1 0x20 ADD PUSH1 0x0 KECCAK256 SLOAD EQ PUSH2 0x3040 JUMPI PUSH1 0x1 DUP4 EQ ISZERO PUSH2 0x2FE7 JUMPI PUSH1 0x0 PUSH1 0xB PUSH1 0x0 DUP7 PUSH20 0xFFFFFFFFFFFFFFFFFFFFFFFFFFFFFFFFFFFFFFFF AND PUSH20 0xFFFFFFFFFFFFFFFFFFFFFFFFFFFFFFFFFFFFFFFF AND DUP2 MSTORE PUSH1 0x20 ADD SWAP1 DUP2 MSTORE PUSH1 0x20 ADD PUSH1 0x0 KECCAK256 DUP2 SWAP1 SSTORE POP PUSH2 0x302D JUMP JUMPDEST PUSH1 0x1 PUSH1 0xB PUSH1 0x0 DUP7 PUSH20 0xFFFFFFFFFFFFFFFFFFFFFFFFFFFFFFFFFFFFFFFF AND PUSH20 0xFFFFFFFFFFFFFFFFFFFFFFFFFFFFFFFFFFFFFFFF AND DUP2 MSTORE PUSH1 0x20 ADD SWAP1 DUP2 MSTORE PUSH1 0x20 ADD PUSH1 0x0 KECCAK256 DUP2 SWAP1 SSTORE POP JUMPDEST DUP1 DUP1 PUSH2 0x3038 SWAP1 PUSH2 0x5611 JUMP JUMPDEST SWAP2 POP POP PUSH2 0x30E5 JUMP JUMPDEST PUSH32 0xA2455EC11F160D321516C021994881E7678C0B5870CD7AAE50107098770E2C28 DUP5 PUSH1 0x9 PUSH1 0x1 DUP7 PUSH2 0x3071 SWAP2 SWAP1 PUSH2 0x54A5 JUMP JUMPDEST DUP2 SLOAD DUP2 LT PUSH2 0x3082 JUMPI PUSH2 0x3081 PUSH2 0x56E2 JUMP JUMPDEST JUMPDEST SWAP1 PUSH1 0x0 MSTORE PUSH1 0x20 PUSH1 0x0 KECCAK256 ADD SLOAD PUSH1 0xB PUSH1 0x0 DUP9 PUSH20 0xFFFFFFFFFFFFFFFFFFFFFFFFFFFFFFFFFFFFFFFF AND PUSH20 0xFFFFFFFFFFFFFFFFFFFFFFFFFFFFFFFFFFFFFFFF AND DUP2 MSTORE PUSH1 0x20 ADD SWAP1 DUP2 MSTORE PUSH1 0x20 ADD PUSH1 0x0 KECCAK256 SLOAD PUSH1 0x40 MLOAD PUSH2 0x30DC SWAP4 SWAP3 SWAP2 SWAP1 PUSH2 0x5191 JUMP JUMPDEST PUSH1 0x40 MLOAD DUP1 SWAP2 SUB SWAP1 LOG1 JUMPDEST DUP1 PUSH1 0x9 PUSH1 0x1 DUP6 PUSH2 0x30F5 SWAP2 SWAP1 PUSH2 0x54A5 JUMP JUMPDEST DUP2 SLOAD DUP2 LT PUSH2 0x3106 JUMPI PUSH2 0x3105 PUSH2 0x56E2 JUMP JUMPDEST JUMPDEST SWAP1 PUSH1 0x0 MSTORE PUSH1 0x20 PUSH1 0x0 KECCAK256 ADD PUSH1 0x0 DUP3 DUP3 SLOAD PUSH2 0x311F SWAP2 SWAP1 PUSH2 0x54A5 JUMP JUMPDEST SWAP3 POP POP DUP2 SWAP1 SSTORE POP POP POP POP POP JUMP JUMPDEST PUSH1 0x0 PUSH1 0x3 PUSH1 0x0 SWAP1 SLOAD SWAP1 PUSH2 0x100 EXP SWAP1 DIV PUSH20 0xFFFFFFFFFFFFFFFFFFFFFFFFFFFFFFFFFFFFFFFF AND SWAP1 POP DUP2 PUSH1 0x3 PUSH1 0x0 PUSH2 0x100 EXP DUP2 SLOAD DUP2 PUSH20 0xFFFFFFFFFFFFFFFFFFFFFFFFFFFFFFFFFFFFFFFF MUL NOT AND SWAP1 DUP4 PUSH20 0xFFFFFFFFFFFFFFFFFFFFFFFFFFFFFFFFFFFFFFFF AND MUL OR SWAP1 SSTORE POP DUP2 PUSH20 0xFFFFFFFFFFFFFFFFFFFFFFFFFFFFFFFFFFFFFFFF AND DUP2 PUSH20 0xFFFFFFFFFFFFFFFFFFFFFFFFFFFFFFFFFFFFFFFF AND PUSH32 0x8BE0079C531659141344CD1FD0A4F28419497F9722A3DAAFE3B4186F6B6457E0 PUSH1 0x40 MLOAD PUSH1 0x40 MLOAD DUP1 SWAP2 SUB SWAP1 LOG3 POP POP JUMP JUMPDEST PUSH2 0x31FA PUSH2 0x13C3 JUMP JUMPDEST ISZERO PUSH2 0x323A JUMPI PUSH1 0x40 MLOAD PUSH32 0x8C379A000000000000000000000000000000000000000000000000000000000 DUP2 MSTORE PUSH1 0x4 ADD PUSH2 0x3231 SWAP1 PUSH2 0x50F1 JUMP JUMPDEST PUSH1 0x40 MLOAD DUP1 SWAP2 SUB SWAP1 REVERT JUMPDEST PUSH1 0x1 PUSH1 0x3 PUSH1 0x14 PUSH2 0x100 EXP DUP2 SLOAD DUP2 PUSH1 0xFF MUL NOT AND SWAP1 DUP4 ISZERO ISZERO MUL OR SWAP1 SSTORE POP PUSH32 0x62E78CEA01BEE320CD4E420270B5EA74000D11B0C9F74754EBDBFC544B05A258 PUSH2 0x327E PUSH2 0x23DD JUMP JUMPDEST PUSH1 0x40 MLOAD PUSH2 0x328B SWAP2 SWAP1 PUSH2 0x4D60 JUMP JUMPDEST PUSH1 0x40 MLOAD DUP1 SWAP2 SUB SWAP1 LOG1 JUMP JUMPDEST DUP2 PUSH20 0xFFFFFFFFFFFFFFFFFFFFFFFFFFFFFFFFFFFFFFFF AND DUP4 PUSH20 0xFFFFFFFFFFFFFFFFFFFFFFFFFFFFFFFFFFFFFFFF AND EQ ISZERO PUSH2 0x3304 JUMPI PUSH1 0x40 MLOAD PUSH32 0x8C379A000000000000000000000000000000000000000000000000000000000 DUP2 MSTORE PUSH1 0x4 ADD PUSH2 0x32FB SWAP1 PUSH2 0x523B JUMP JUMPDEST PUSH1 0x40 MLOAD DUP1 SWAP2 SUB SWAP1 REVERT JUMPDEST DUP1 PUSH1 0x1 PUSH1 0x0 DUP6 PUSH20 0xFFFFFFFFFFFFFFFFFFFFFFFFFFFFFFFFFFFFFFFF AND PUSH20 0xFFFFFFFFFFFFFFFFFFFFFFFFFFFFFFFFFFFFFFFF AND DUP2 MSTORE PUSH1 0x20 ADD SWAP1 DUP2 MSTORE PUSH1 0x20 ADD PUSH1 0x0 KECCAK256 PUSH1 0x0 DUP5 PUSH20 0xFFFFFFFFFFFFFFFFFFFFFFFFFFFFFFFFFFFFFFFF AND PUSH20 0xFFFFFFFFFFFFFFFFFFFFFFFFFFFFFFFFFFFFFFFF AND DUP2 MSTORE PUSH1 0x20 ADD SWAP1 DUP2 MSTORE PUSH1 0x20 ADD PUSH1 0x0 KECCAK256 PUSH1 0x0 PUSH2 0x100 EXP DUP2 SLOAD DUP2 PUSH1 0xFF MUL NOT AND SWAP1 DUP4 ISZERO ISZERO MUL OR SWAP1 SSTORE POP DUP2 PUSH20 0xFFFFFFFFFFFFFFFFFFFFFFFFFFFFFFFFFFFFFFFF AND DUP4 PUSH20 0xFFFFFFFFFFFFFFFFFFFFFFFFFFFFFFFFFFFFFFFF AND PUSH32 0x17307EAB39AB6107E8899845AD3D59BD9653F200F220920489CA2B5937696C31 DUP4 PUSH1 0x40 MLOAD PUSH2 0x33F5 SWAP2 SWAP1 PUSH2 0x4E96 JUMP JUMPDEST PUSH1 0x40 MLOAD DUP1 SWAP2 SUB SWAP1 LOG3 POP POP POP JUMP JUMPDEST PUSH1 0x0 PUSH20 0xFFFFFFFFFFFFFFFFFFFFFFFFFFFFFFFFFFFFFFFF AND DUP4 PUSH20 0xFFFFFFFFFFFFFFFFFFFFFFFFFFFFFFFFFFFFFFFF AND EQ ISZERO PUSH2 0x3472 JUMPI PUSH1 0x40 MLOAD PUSH32 0x8C379A000000000000000000000000000000000000000000000000000000000 DUP2 MSTORE PUSH1 0x4 ADD PUSH2 0x3469 SWAP1 PUSH2 0x5151 JUMP JUMPDEST PUSH1 0x40 MLOAD DUP1 SWAP2 SUB SWAP1 REVERT JUMPDEST PUSH1 0x0 PUSH2 0x347C PUSH2 0x23DD JUMP JUMPDEST SWAP1 POP PUSH2 0x34AC DUP2 DUP6 PUSH1 0x0 PUSH2 0x348E DUP8 PUSH2 0x3AE6 JUMP JUMPDEST PUSH2 0x3497 DUP8 PUSH2 0x3AE6 JUMP JUMPDEST PUSH1 0x40 MLOAD DUP1 PUSH1 0x20 ADD PUSH1 0x40 MSTORE DUP1 PUSH1 0x0 DUP2 MSTORE POP PUSH2 0x38A1 JUMP JUMPDEST PUSH1 0x0 DUP1 PUSH1 0x0 DUP6 DUP2 MSTORE PUSH1 0x20 ADD SWAP1 DUP2 MSTORE PUSH1 0x20 ADD PUSH1 0x0 KECCAK256 PUSH1 0x0 DUP7 PUSH20 0xFFFFFFFFFFFFFFFFFFFFFFFFFFFFFFFFFFFFFFFF AND PUSH20 0xFFFFFFFFFFFFFFFFFFFFFFFFFFFFFFFFFFFFFFFF AND DUP2 MSTORE PUSH1 0x20 ADD SWAP1 DUP2 MSTORE PUSH1 0x20 ADD PUSH1 0x0 KECCAK256 SLOAD SWAP1 POP DUP3 DUP2 LT ISZERO PUSH2 0x3543 JUMPI PUSH1 0x40 MLOAD PUSH32 0x8C379A000000000000000000000000000000000000000000000000000000000 DUP2 MSTORE PUSH1 0x4 ADD PUSH2 0x353A SWAP1 PUSH2 0x5047 JUMP JUMPDEST PUSH1 0x40 MLOAD DUP1 SWAP2 SUB SWAP1 REVERT JUMPDEST DUP3 DUP2 SUB PUSH1 0x0 DUP1 DUP7 DUP2 MSTORE PUSH1 0x20 ADD SWAP1 DUP2 MSTORE PUSH1 0x20 ADD PUSH1 0x0 KECCAK256 PUSH1 0x0 DUP8 PUSH20 0xFFFFFFFFFFFFFFFFFFFFFFFFFFFFFFFFFFFFFFFF AND PUSH20 0xFFFFFFFFFFFFFFFFFFFFFFFFFFFFFFFFFFFFFFFF AND DUP2 MSTORE PUSH1 0x20 ADD SWAP1 DUP2 MSTORE PUSH1 0x20 ADD PUSH1 0x0 KECCAK256 DUP2 SWAP1 SSTORE POP PUSH1 0x0 PUSH20 0xFFFFFFFFFFFFFFFFFFFFFFFFFFFFFFFFFFFFFFFF AND DUP6 PUSH20 0xFFFFFFFFFFFFFFFFFFFFFFFFFFFFFFFFFFFFFFFF AND DUP4 PUSH20 0xFFFFFFFFFFFFFFFFFFFFFFFFFFFFFFFFFFFFFFFF AND PUSH32 0xC3D58168C5AE7397731D063D5BBF3D657854427343F4C083240F7AACAA2D0F62 DUP8 DUP8 PUSH1 0x40 MLOAD PUSH2 0x3610 SWAP3 SWAP2 SWAP1 PUSH2 0x52D6 JUMP JUMPDEST PUSH1 0x40 MLOAD DUP1 SWAP2 SUB SWAP1 LOG4 POP POP POP POP POP JUMP JUMPDEST PUSH1 0x0 PUSH20 0xFFFFFFFFFFFFFFFFFFFFFFFFFFFFFFFFFFFFFFFF AND DUP5 PUSH20 0xFFFFFFFFFFFFFFFFFFFFFFFFFFFFFFFFFFFFFFFF AND EQ ISZERO PUSH2 0x368F JUMPI PUSH1 0x40 MLOAD PUSH32 0x8C379A000000000000000000000000000000000000000000000000000000000 DUP2 MSTORE PUSH1 0x4 ADD PUSH2 0x3686 SWAP1 PUSH2 0x5111 JUMP JUMPDEST PUSH1 0x40 MLOAD DUP1 SWAP2 SUB SWAP1 REVERT JUMPDEST PUSH1 0x0 PUSH2 0x3699 PUSH2 0x23DD JUMP JUMPDEST SWAP1 POP PUSH2 0x36B9 DUP2 DUP8 DUP8 PUSH2 0x36AA DUP9 PUSH2 0x3AE6 JUMP JUMPDEST PUSH2 0x36B3 DUP9 PUSH2 0x3AE6 JUMP JUMPDEST DUP8 PUSH2 0x38A1 JUMP JUMPDEST PUSH1 0x0 DUP1 PUSH1 0x0 DUP7 DUP2 MSTORE PUSH1 0x20 ADD SWAP1 DUP2 MSTORE PUSH1 0x20 ADD PUSH1 0x0 KECCAK256 PUSH1 0x0 DUP9 PUSH20 0xFFFFFFFFFFFFFFFFFFFFFFFFFFFFFFFFFFFFFFFF AND PUSH20 0xFFFFFFFFFFFFFFFFFFFFFFFFFFFFFFFFFFFFFFFF AND DUP2 MSTORE PUSH1 0x20 ADD SWAP1 DUP2 MSTORE PUSH1 0x20 ADD PUSH1 0x0 KECCAK256 SLOAD SWAP1 POP DUP4 DUP2 LT ISZERO PUSH2 0x3750 JUMPI PUSH1 0x40 MLOAD PUSH32 0x8C379A000000000000000000000000000000000000000000000000000000000 DUP2 MSTORE PUSH1 0x4 ADD PUSH2 0x3747 SWAP1 PUSH2 0x5171 JUMP JUMPDEST PUSH1 0x40 MLOAD DUP1 SWAP2 SUB SWAP1 REVERT JUMPDEST DUP4 DUP2 SUB PUSH1 0x0 DUP1 DUP8 DUP2 MSTORE PUSH1 0x20 ADD SWAP1 DUP2 MSTORE PUSH1 0x20 ADD PUSH1 0x0 KECCAK256 PUSH1 0x0 DUP10 PUSH20 0xFFFFFFFFFFFFFFFFFFFFFFFFFFFFFFFFFFFFFFFF AND PUSH20 0xFFFFFFFFFFFFFFFFFFFFFFFFFFFFFFFFFFFFFFFF AND DUP2 MSTORE PUSH1 0x20 ADD SWAP1 DUP2 MSTORE PUSH1 0x20 ADD PUSH1 0x0 KECCAK256 DUP2 SWAP1 SSTORE POP DUP4 PUSH1 0x0 DUP1 DUP8 DUP2 MSTORE PUSH1 0x20 ADD SWAP1 DUP2 MSTORE PUSH1 0x20 ADD PUSH1 0x0 KECCAK256 PUSH1 0x0 DUP9 PUSH20 0xFFFFFFFFFFFFFFFFFFFFFFFFFFFFFFFFFFFFFFFF AND PUSH20 0xFFFFFFFFFFFFFFFFFFFFFFFFFFFFFFFFFFFFFFFF AND DUP2 MSTORE PUSH1 0x20 ADD SWAP1 DUP2 MSTORE PUSH1 0x20 ADD PUSH1 0x0 KECCAK256 PUSH1 0x0 DUP3 DUP3 SLOAD PUSH2 0x3805 SWAP2 SWAP1 PUSH2 0x544F JUMP JUMPDEST SWAP3 POP POP DUP2 SWAP1 SSTORE POP DUP6 PUSH20 0xFFFFFFFFFFFFFFFFFFFFFFFFFFFFFFFFFFFFFFFF AND DUP8 PUSH20 0xFFFFFFFFFFFFFFFFFFFFFFFFFFFFFFFFFFFFFFFF AND DUP4 PUSH20 0xFFFFFFFFFFFFFFFFFFFFFFFFFFFFFFFFFFFFFFFF AND PUSH32 0xC3D58168C5AE7397731D063D5BBF3D657854427343F4C083240F7AACAA2D0F62 DUP9 DUP9 PUSH1 0x40 MLOAD PUSH2 0x3882 SWAP3 SWAP2 SWAP1 PUSH2 0x52D6 JUMP JUMPDEST PUSH1 0x40 MLOAD DUP1 SWAP2 SUB SWAP1 LOG4 PUSH2 0x3898 DUP3 DUP9 DUP9 DUP9 DUP9 DUP9 PUSH2 0x3B60 JUMP JUMPDEST POP POP POP POP POP POP POP JUMP JUMPDEST PUSH2 0x38A9 PUSH2 0x13C3 JUMP JUMPDEST ISZERO PUSH2 0x38E9 JUMPI PUSH1 0x40 MLOAD PUSH32 0x8C379A000000000000000000000000000000000000000000000000000000000 DUP2 MSTORE PUSH1 0x4 ADD PUSH2 0x38E0 SWAP1 PUSH2 0x50F1 JUMP JUMPDEST PUSH1 0x40 MLOAD DUP1 SWAP2 SUB SWAP1 REVERT JUMPDEST PUSH2 0x38F7 DUP7 DUP7 DUP7 DUP7 DUP7 DUP7 PUSH2 0x3D47 JUMP JUMPDEST POP POP POP POP POP POP JUMP JUMPDEST PUSH2 0x391E DUP5 PUSH20 0xFFFFFFFFFFFFFFFFFFFFFFFFFFFFFFFFFFFFFFFF AND PUSH2 0x3EC1 JUMP JUMPDEST ISZERO PUSH2 0x3ADE JUMPI DUP4 PUSH20 0xFFFFFFFFFFFFFFFFFFFFFFFFFFFFFFFFFFFFFFFF AND PUSH4 0xBC197C81 DUP8 DUP8 DUP7 DUP7 DUP7 PUSH1 0x40 MLOAD DUP7 PUSH4 0xFFFFFFFF AND PUSH1 0xE0 SHL DUP2 MSTORE PUSH1 0x4 ADD PUSH2 0x3964 SWAP6 SWAP5 SWAP4 SWAP3 SWAP2 SWAP1 PUSH2 0x4D7B JUMP JUMPDEST PUSH1 0x20 PUSH1 0x40 MLOAD DUP1 DUP4 SUB DUP2 PUSH1 0x0 DUP8 DUP1 EXTCODESIZE ISZERO DUP1 ISZERO PUSH2 0x397E JUMPI PUSH1 0x0 DUP1 REVERT JUMPDEST POP GAS CALL SWAP3 POP POP POP DUP1 ISZERO PUSH2 0x39AF JUMPI POP PUSH1 0x40 MLOAD RETURNDATASIZE PUSH1 0x1F NOT PUSH1 0x1F DUP3 ADD AND DUP3 ADD DUP1 PUSH1 0x40 MSTORE POP DUP2 ADD SWAP1 PUSH2 0x39AC SWAP2 SWAP1 PUSH2 0x47A9 JUMP JUMPDEST PUSH1 0x1 JUMPDEST PUSH2 0x3A55 JUMPI PUSH2 0x39BB PUSH2 0x5740 JUMP JUMPDEST DUP1 PUSH4 0x8C379A0 EQ ISZERO PUSH2 0x3A18 JUMPI POP PUSH2 0x39D0 PUSH2 0x5E23 JUMP JUMPDEST DUP1 PUSH2 0x39DB JUMPI POP PUSH2 0x3A1A JUMP JUMPDEST DUP1 PUSH1 0x40 MLOAD PUSH32 0x8C379A000000000000000000000000000000000000000000000000000000000 DUP2 MSTORE PUSH1 0x4 ADD PUSH2 0x3A0F SWAP2 SWAP1 PUSH2 0x4EB1 JUMP JUMPDEST PUSH1 0x40 MLOAD DUP1 SWAP2 SUB SWAP1 REVERT JUMPDEST POP JUMPDEST PUSH1 0x40 MLOAD PUSH32 0x8C379A000000000000000000000000000000000000000000000000000000000 DUP2 MSTORE PUSH1 0x4 ADD PUSH2 0x3A4C SWAP1 PUSH2 0x4ED3 JUMP JUMPDEST PUSH1 0x40 MLOAD DUP1 SWAP2 SUB SWAP1 REVERT JUMPDEST PUSH4 0xBC197C81 PUSH1 0xE0 SHL PUSH28 0xFFFFFFFFFFFFFFFFFFFFFFFFFFFFFFFFFFFFFFFFFFFFFFFFFFFFFFFF NOT AND DUP2 PUSH28 0xFFFFFFFFFFFFFFFFFFFFFFFFFFFFFFFFFFFFFFFFFFFFFFFFFFFFFFFF NOT AND EQ PUSH2 0x3ADC JUMPI PUSH1 0x40 MLOAD PUSH32 0x8C379A000000000000000000000000000000000000000000000000000000000 DUP2 MSTORE PUSH1 0x4 ADD PUSH2 0x3AD3 SWAP1 PUSH2 0x4F13 JUMP JUMPDEST PUSH1 0x40 MLOAD DUP1 SWAP2 SUB SWAP1 REVERT JUMPDEST POP JUMPDEST POP POP POP POP POP POP JUMP JUMPDEST PUSH1 0x60 PUSH1 0x0 PUSH1 0x1 PUSH8 0xFFFFFFFFFFFFFFFF DUP2 GT ISZERO PUSH2 0x3B05 JUMPI PUSH2 0x3B04 PUSH2 0x5711 JUMP JUMPDEST JUMPDEST PUSH1 0x40 MLOAD SWAP1 DUP1 DUP3 MSTORE DUP1 PUSH1 0x20 MUL PUSH1 0x20 ADD DUP3 ADD PUSH1 0x40 MSTORE DUP1 ISZERO PUSH2 0x3B33 JUMPI DUP2 PUSH1 0x20 ADD PUSH1 0x20 DUP3 MUL DUP1 CALLDATASIZE DUP4 CALLDATACOPY DUP1 DUP3 ADD SWAP2 POP POP SWAP1 POP JUMPDEST POP SWAP1 POP DUP3 DUP2 PUSH1 0x0 DUP2 MLOAD DUP2 LT PUSH2 0x3B4B JUMPI PUSH2 0x3B4A PUSH2 0x56E2 JUMP JUMPDEST JUMPDEST PUSH1 0x20 MUL PUSH1 0x20 ADD ADD DUP2 DUP2 MSTORE POP POP DUP1 SWAP2 POP POP SWAP2 SWAP1 POP JUMP JUMPDEST PUSH2 0x3B7F DUP5 PUSH20 0xFFFFFFFFFFFFFFFFFFFFFFFFFFFFFFFFFFFFFFFF AND PUSH2 0x3EC1 JUMP JUMPDEST ISZERO PUSH2 0x3D3F JUMPI DUP4 PUSH20 0xFFFFFFFFFFFFFFFFFFFFFFFFFFFFFFFFFFFFFFFF AND PUSH4 0xF23A6E61 DUP8 DUP8 DUP7 DUP7 DUP7 PUSH1 0x40 MLOAD DUP7 PUSH4 0xFFFFFFFF AND PUSH1 0xE0 SHL DUP2 MSTORE PUSH1 0x4 ADD PUSH2 0x3BC5 SWAP6 SWAP5 SWAP4 SWAP3 SWAP2 SWAP1 PUSH2 0x4DE3 JUMP JUMPDEST PUSH1 0x20 PUSH1 0x40 MLOAD DUP1 DUP4 SUB DUP2 PUSH1 0x0 DUP8 DUP1 EXTCODESIZE ISZERO DUP1 ISZERO PUSH2 0x3BDF JUMPI PUSH1 0x0 DUP1 REVERT JUMPDEST POP GAS CALL SWAP3 POP POP POP DUP1 ISZERO PUSH2 0x3C10 JUMPI POP PUSH1 0x40 MLOAD RETURNDATASIZE PUSH1 0x1F NOT PUSH1 0x1F DUP3 ADD AND DUP3 ADD DUP1 PUSH1 0x40 MSTORE POP DUP2 ADD SWAP1 PUSH2 0x3C0D SWAP2 SWAP1 PUSH2 0x47A9 JUMP JUMPDEST PUSH1 0x1 JUMPDEST PUSH2 0x3CB6 JUMPI PUSH2 0x3C1C PUSH2 0x5740 JUMP JUMPDEST DUP1 PUSH4 0x8C379A0 EQ ISZERO PUSH2 0x3C79 JUMPI POP PUSH2 0x3C31 PUSH2 0x5E23 JUMP JUMPDEST DUP1 PUSH2 0x3C3C JUMPI POP PUSH2 0x3C7B JUMP JUMPDEST DUP1 PUSH1 0x40 MLOAD PUSH32 0x8C379A000000000000000000000000000000000000000000000000000000000 DUP2 MSTORE PUSH1 0x4 ADD PUSH2 0x3C70 SWAP2 SWAP1 PUSH2 0x4EB1 JUMP JUMPDEST PUSH1 0x40 MLOAD DUP1 SWAP2 SUB SWAP1 REVERT JUMPDEST POP JUMPDEST PUSH1 0x40 MLOAD PUSH32 0x8C379A000000000000000000000000000000000000000000000000000000000 DUP2 MSTORE PUSH1 0x4 ADD PUSH2 0x3CAD SWAP1 PUSH2 0x4ED3 JUMP JUMPDEST PUSH1 0x40 MLOAD DUP1 SWAP2 SUB SWAP1 REVERT JUMPDEST PUSH4 0xF23A6E61 PUSH1 0xE0 SHL PUSH28 0xFFFFFFFFFFFFFFFFFFFFFFFFFFFFFFFFFFFFFFFFFFFFFFFFFFFFFFFF NOT AND DUP2 PUSH28 0xFFFFFFFFFFFFFFFFFFFFFFFFFFFFFFFFFFFFFFFFFFFFFFFFFFFFFFFF NOT AND EQ PUSH2 0x3D3D JUMPI PUSH1 0x40 MLOAD PUSH32 0x8C379A000000000000000000000000000000000000000000000000000000000 DUP2 MSTORE PUSH1 0x4 ADD PUSH2 0x3D34 SWAP1 PUSH2 0x4F13 JUMP JUMPDEST PUSH1 0x40 MLOAD DUP1 SWAP2 SUB SWAP1 REVERT JUMPDEST POP JUMPDEST POP POP POP POP POP POP JUMP JUMPDEST PUSH2 0x3D55 DUP7 DUP7 DUP7 DUP7 DUP7 DUP7 PUSH2 0x3EE4 JUMP JUMPDEST PUSH1 0x0 PUSH20 0xFFFFFFFFFFFFFFFFFFFFFFFFFFFFFFFFFFFFFFFF AND DUP6 PUSH20 0xFFFFFFFFFFFFFFFFFFFFFFFFFFFFFFFFFFFFFFFF AND EQ ISZERO PUSH2 0x3E07 JUMPI PUSH1 0x0 JUMPDEST DUP4 MLOAD DUP2 LT ISZERO PUSH2 0x3E05 JUMPI DUP3 DUP2 DUP2 MLOAD DUP2 LT PUSH2 0x3DA9 JUMPI PUSH2 0x3DA8 PUSH2 0x56E2 JUMP JUMPDEST JUMPDEST PUSH1 0x20 MUL PUSH1 0x20 ADD ADD MLOAD PUSH1 0x4 PUSH1 0x0 DUP7 DUP5 DUP2 MLOAD DUP2 LT PUSH2 0x3DC8 JUMPI PUSH2 0x3DC7 PUSH2 0x56E2 JUMP JUMPDEST JUMPDEST PUSH1 0x20 MUL PUSH1 0x20 ADD ADD MLOAD DUP2 MSTORE PUSH1 0x20 ADD SWAP1 DUP2 MSTORE PUSH1 0x20 ADD PUSH1 0x0 KECCAK256 PUSH1 0x0 DUP3 DUP3 SLOAD PUSH2 0x3DED SWAP2 SWAP1 PUSH2 0x544F JUMP JUMPDEST SWAP3 POP POP DUP2 SWAP1 SSTORE POP DUP1 PUSH2 0x3DFE SWAP1 PUSH2 0x5611 JUMP JUMPDEST SWAP1 POP PUSH2 0x3D8D JUMP JUMPDEST POP JUMPDEST PUSH1 0x0 PUSH20 0xFFFFFFFFFFFFFFFFFFFFFFFFFFFFFFFFFFFFFFFF AND DUP5 PUSH20 0xFFFFFFFFFFFFFFFFFFFFFFFFFFFFFFFFFFFFFFFF AND EQ ISZERO PUSH2 0x3EB9 JUMPI PUSH1 0x0 JUMPDEST DUP4 MLOAD DUP2 LT ISZERO PUSH2 0x3EB7 JUMPI DUP3 DUP2 DUP2 MLOAD DUP2 LT PUSH2 0x3E5B JUMPI PUSH2 0x3E5A PUSH2 0x56E2 JUMP JUMPDEST JUMPDEST PUSH1 0x20 MUL PUSH1 0x20 ADD ADD MLOAD PUSH1 0x4 PUSH1 0x0 DUP7 DUP5 DUP2 MLOAD DUP2 LT PUSH2 0x3E7A JUMPI PUSH2 0x3E79 PUSH2 0x56E2 JUMP JUMPDEST JUMPDEST PUSH1 0x20 MUL PUSH1 0x20 ADD ADD MLOAD DUP2 MSTORE PUSH1 0x20 ADD SWAP1 DUP2 MSTORE PUSH1 0x20 ADD PUSH1 0x0 KECCAK256 PUSH1 0x0 DUP3 DUP3 SLOAD PUSH2 0x3E9F SWAP2 SWAP1 PUSH2 0x54A5 JUMP JUMPDEST SWAP3 POP POP DUP2 SWAP1 SSTORE POP DUP1 PUSH2 0x3EB0 SWAP1 PUSH2 0x5611 JUMP JUMPDEST SWAP1 POP PUSH2 0x3E3F JUMP JUMPDEST POP JUMPDEST POP POP POP POP POP POP JUMP JUMPDEST PUSH1 0x0 DUP1 DUP3 PUSH20 0xFFFFFFFFFFFFFFFFFFFFFFFFFFFFFFFFFFFFFFFF AND EXTCODESIZE GT SWAP1 POP SWAP2 SWAP1 POP JUMP JUMPDEST POP POP POP POP POP POP JUMP JUMPDEST DUP3 DUP1 SLOAD PUSH2 0x3EF8 SWAP1 PUSH2 0x55AE JUMP JUMPDEST SWAP1 PUSH1 0x0 MSTORE PUSH1 0x20 PUSH1 0x0 KECCAK256 SWAP1 PUSH1 0x1F ADD PUSH1 0x20 SWAP1 DIV DUP2 ADD SWAP3 DUP3 PUSH2 0x3F1A JUMPI PUSH1 0x0 DUP6 SSTORE PUSH2 0x3F61 JUMP JUMPDEST DUP3 PUSH1 0x1F LT PUSH2 0x3F33 JUMPI DUP1 MLOAD PUSH1 0xFF NOT AND DUP4 DUP1 ADD OR DUP6 SSTORE PUSH2 0x3F61 JUMP JUMPDEST DUP3 DUP1 ADD PUSH1 0x1 ADD DUP6 SSTORE DUP3 ISZERO PUSH2 0x3F61 JUMPI SWAP2 DUP3 ADD JUMPDEST DUP3 DUP2 GT ISZERO PUSH2 0x3F60 JUMPI DUP3 MLOAD DUP3 SSTORE SWAP2 PUSH1 0x20 ADD SWAP2 SWAP1 PUSH1 0x1 ADD SWAP1 PUSH2 0x3F45 JUMP JUMPDEST JUMPDEST POP SWAP1 POP PUSH2 0x3F6E SWAP2 SWAP1 PUSH2 0x3F72 JUMP JUMPDEST POP SWAP1 JUMP JUMPDEST JUMPDEST DUP1 DUP3 GT ISZERO PUSH2 0x3F8B JUMPI PUSH1 0x0 DUP2 PUSH1 0x0 SWAP1 SSTORE POP PUSH1 0x1 ADD PUSH2 0x3F73 JUMP JUMPDEST POP SWAP1 JUMP JUMPDEST PUSH1 0x0 PUSH2 0x3FA2 PUSH2 0x3F9D DUP5 PUSH2 0x5324 JUMP JUMPDEST PUSH2 0x52FF JUMP JUMPDEST SWAP1 POP DUP1 DUP4 DUP3 MSTORE PUSH1 0x20 DUP3 ADD SWAP1 POP DUP3 DUP6 PUSH1 0x20 DUP7 MUL DUP3 ADD GT ISZERO PUSH2 0x3FC5 JUMPI PUSH2 0x3FC4 PUSH2 0x5767 JUMP JUMPDEST JUMPDEST PUSH1 0x0 JUMPDEST DUP6 DUP2 LT ISZERO PUSH2 0x3FF5 JUMPI DUP2 PUSH2 0x3FDB DUP9 DUP3 PUSH2 0x40F3 JUMP JUMPDEST DUP5 MSTORE PUSH1 0x20 DUP5 ADD SWAP4 POP PUSH1 0x20 DUP4 ADD SWAP3 POP POP PUSH1 0x1 DUP2 ADD SWAP1 POP PUSH2 0x3FC8 JUMP JUMPDEST POP POP POP SWAP4 SWAP3 POP POP POP JUMP JUMPDEST PUSH1 0x0 PUSH2 0x4012 PUSH2 0x400D DUP5 PUSH2 0x5350 JUMP JUMPDEST PUSH2 0x52FF JUMP JUMPDEST SWAP1 POP DUP1 DUP4 DUP3 MSTORE PUSH1 0x20 DUP3 ADD SWAP1 POP DUP3 DUP6 PUSH1 0x20 DUP7 MUL DUP3 ADD GT ISZERO PUSH2 0x4035 JUMPI PUSH2 0x4034 PUSH2 0x5767 JUMP JUMPDEST JUMPDEST PUSH1 0x0 JUMPDEST DUP6 DUP2 LT ISZERO PUSH2 0x4065 JUMPI DUP2 PUSH2 0x404B DUP9 DUP3 PUSH2 0x41FF JUMP JUMPDEST DUP5 MSTORE PUSH1 0x20 DUP5 ADD SWAP4 POP PUSH1 0x20 DUP4 ADD SWAP3 POP POP PUSH1 0x1 DUP2 ADD SWAP1 POP PUSH2 0x4038 JUMP JUMPDEST POP POP POP SWAP4 SWAP3 POP POP POP JUMP JUMPDEST PUSH1 0x0 PUSH2 0x4082 PUSH2 0x407D DUP5 PUSH2 0x537C JUMP JUMPDEST PUSH2 0x52FF JUMP JUMPDEST SWAP1 POP DUP3 DUP2 MSTORE PUSH1 0x20 DUP2 ADD DUP5 DUP5 DUP5 ADD GT ISZERO PUSH2 0x409E JUMPI PUSH2 0x409D PUSH2 0x576C JUMP JUMPDEST JUMPDEST PUSH2 0x40A9 DUP5 DUP3 DUP6 PUSH2 0x556C JUMP JUMPDEST POP SWAP4 SWAP3 POP POP POP JUMP JUMPDEST PUSH1 0x0 PUSH2 0x40C4 PUSH2 0x40BF DUP5 PUSH2 0x53AD JUMP JUMPDEST PUSH2 0x52FF JUMP JUMPDEST SWAP1 POP DUP3 DUP2 MSTORE PUSH1 0x20 DUP2 ADD DUP5 DUP5 DUP5 ADD GT ISZERO PUSH2 0x40E0 JUMPI PUSH2 0x40DF PUSH2 0x576C JUMP JUMPDEST JUMPDEST PUSH2 0x40EB DUP5 DUP3 DUP6 PUSH2 0x556C JUMP JUMPDEST POP SWAP4 SWAP3 POP POP POP JUMP JUMPDEST PUSH1 0x0 DUP2 CALLDATALOAD SWAP1 POP PUSH2 0x4102 DUP2 PUSH2 0x5EB9 JUMP JUMPDEST SWAP3 SWAP2 POP POP JUMP JUMPDEST PUSH1 0x0 DUP3 PUSH1 0x1F DUP4 ADD SLT PUSH2 0x411D JUMPI PUSH2 0x411C PUSH2 0x5762 JUMP JUMPDEST JUMPDEST DUP2 CALLDATALOAD PUSH2 0x412D DUP5 DUP3 PUSH1 0x20 DUP7 ADD PUSH2 0x3F8F JUMP JUMPDEST SWAP2 POP POP SWAP3 SWAP2 POP POP JUMP JUMPDEST PUSH1 0x0 DUP3 PUSH1 0x1F DUP4 ADD SLT PUSH2 0x414B JUMPI PUSH2 0x414A PUSH2 0x5762 JUMP JUMPDEST JUMPDEST DUP2 CALLDATALOAD PUSH2 0x415B DUP5 DUP3 PUSH1 0x20 DUP7 ADD PUSH2 0x3FFF JUMP JUMPDEST SWAP2 POP POP SWAP3 SWAP2 POP POP JUMP JUMPDEST PUSH1 0x0 DUP2 CALLDATALOAD SWAP1 POP PUSH2 0x4173 DUP2 PUSH2 0x5ED0 JUMP JUMPDEST SWAP3 SWAP2 POP POP JUMP JUMPDEST PUSH1 0x0 DUP2 CALLDATALOAD SWAP1 POP PUSH2 0x4188 DUP2 PUSH2 0x5EE7 JUMP JUMPDEST SWAP3 SWAP2 POP POP JUMP JUMPDEST PUSH1 0x0 DUP2 MLOAD SWAP1 POP PUSH2 0x419D DUP2 PUSH2 0x5EE7 JUMP JUMPDEST SWAP3 SWAP2 POP POP JUMP JUMPDEST PUSH1 0x0 DUP3 PUSH1 0x1F DUP4 ADD SLT PUSH2 0x41B8 JUMPI PUSH2 0x41B7 PUSH2 0x5762 JUMP JUMPDEST JUMPDEST DUP2 CALLDATALOAD PUSH2 0x41C8 DUP5 DUP3 PUSH1 0x20 DUP7 ADD PUSH2 0x406F JUMP JUMPDEST SWAP2 POP POP SWAP3 SWAP2 POP POP JUMP JUMPDEST PUSH1 0x0 DUP3 PUSH1 0x1F DUP4 ADD SLT PUSH2 0x41E6 JUMPI PUSH2 0x41E5 PUSH2 0x5762 JUMP JUMPDEST JUMPDEST DUP2 CALLDATALOAD PUSH2 0x41F6 DUP5 DUP3 PUSH1 0x20 DUP7 ADD PUSH2 0x40B1 JUMP JUMPDEST SWAP2 POP POP SWAP3 SWAP2 POP POP JUMP JUMPDEST PUSH1 0x0 DUP2 CALLDATALOAD SWAP1 POP PUSH2 0x420E DUP2 PUSH2 0x5EFE JUMP JUMPDEST SWAP3 SWAP2 POP POP JUMP JUMPDEST PUSH1 0x0 PUSH1 0x20 DUP3 DUP5 SUB SLT ISZERO PUSH2 0x422A JUMPI PUSH2 0x4229 PUSH2 0x5776 JUMP JUMPDEST JUMPDEST PUSH1 0x0 PUSH2 0x4238 DUP5 DUP3 DUP6 ADD PUSH2 0x40F3 JUMP JUMPDEST SWAP2 POP POP SWAP3 SWAP2 POP POP JUMP JUMPDEST PUSH1 0x0 DUP1 PUSH1 0x40 DUP4 DUP6 SUB SLT ISZERO PUSH2 0x4258 JUMPI PUSH2 0x4257 PUSH2 0x5776 JUMP JUMPDEST JUMPDEST PUSH1 0x0 PUSH2 0x4266 DUP6 DUP3 DUP7 ADD PUSH2 0x40F3 JUMP JUMPDEST SWAP3 POP POP PUSH1 0x20 PUSH2 0x4277 DUP6 DUP3 DUP7 ADD PUSH2 0x40F3 JUMP JUMPDEST SWAP2 POP POP SWAP3 POP SWAP3 SWAP1 POP JUMP JUMPDEST PUSH1 0x0 DUP1 PUSH1 0x0 DUP1 PUSH1 0x0 PUSH1 0xA0 DUP7 DUP9 SUB SLT ISZERO PUSH2 0x429D JUMPI PUSH2 0x429C PUSH2 0x5776 JUMP JUMPDEST JUMPDEST PUSH1 0x0 PUSH2 0x42AB DUP9 DUP3 DUP10 ADD PUSH2 0x40F3 JUMP JUMPDEST SWAP6 POP POP PUSH1 0x20 PUSH2 0x42BC DUP9 DUP3 DUP10 ADD PUSH2 0x40F3 JUMP JUMPDEST SWAP5 POP POP PUSH1 0x40 DUP7 ADD CALLDATALOAD PUSH8 0xFFFFFFFFFFFFFFFF DUP2 GT ISZERO PUSH2 0x42DD JUMPI PUSH2 0x42DC PUSH2 0x5771 JUMP JUMPDEST JUMPDEST PUSH2 0x42E9 DUP9 DUP3 DUP10 ADD PUSH2 0x4136 JUMP JUMPDEST SWAP4 POP POP PUSH1 0x60 DUP7 ADD CALLDATALOAD PUSH8 0xFFFFFFFFFFFFFFFF DUP2 GT ISZERO PUSH2 0x430A JUMPI PUSH2 0x4309 PUSH2 0x5771 JUMP JUMPDEST JUMPDEST PUSH2 0x4316 DUP9 DUP3 DUP10 ADD PUSH2 0x4136 JUMP JUMPDEST SWAP3 POP POP PUSH1 0x80 DUP7 ADD CALLDATALOAD PUSH8 0xFFFFFFFFFFFFFFFF DUP2 GT ISZERO PUSH2 0x4337 JUMPI PUSH2 0x4336 PUSH2 0x5771 JUMP JUMPDEST JUMPDEST PUSH2 0x4343 DUP9 DUP3 DUP10 ADD PUSH2 0x41A3 JUMP JUMPDEST SWAP2 POP POP SWAP3 SWAP6 POP SWAP3 SWAP6 SWAP1 SWAP4 POP JUMP JUMPDEST PUSH1 0x0 DUP1 PUSH1 0x0 DUP1 PUSH1 0x0 PUSH1 0xA0 DUP7 DUP9 SUB SLT ISZERO PUSH2 0x436C JUMPI PUSH2 0x436B PUSH2 0x5776 JUMP JUMPDEST JUMPDEST PUSH1 0x0 PUSH2 0x437A DUP9 DUP3 DUP10 ADD PUSH2 0x40F3 JUMP JUMPDEST SWAP6 POP POP PUSH1 0x20 PUSH2 0x438B DUP9 DUP3 DUP10 ADD PUSH2 0x40F3 JUMP JUMPDEST SWAP5 POP POP PUSH1 0x40 PUSH2 0x439C DUP9 DUP3 DUP10 ADD PUSH2 0x41FF JUMP JUMPDEST SWAP4 POP POP PUSH1 0x60 PUSH2 0x43AD DUP9 DUP3 DUP10 ADD PUSH2 0x41FF JUMP JUMPDEST SWAP3 POP POP PUSH1 0x80 DUP7 ADD CALLDATALOAD PUSH8 0xFFFFFFFFFFFFFFFF DUP2 GT ISZERO PUSH2 0x43CE JUMPI PUSH2 0x43CD PUSH2 0x5771 JUMP JUMPDEST JUMPDEST PUSH2 0x43DA DUP9 DUP3 DUP10 ADD PUSH2 0x41A3 JUMP JUMPDEST SWAP2 POP POP SWAP3 SWAP6 POP SWAP3 SWAP6 SWAP1 SWAP4 POP JUMP JUMPDEST PUSH1 0x0 DUP1 PUSH1 0x0 PUSH1 0x60 DUP5 DUP7 SUB SLT ISZERO PUSH2 0x4400 JUMPI PUSH2 0x43FF PUSH2 0x5776 JUMP JUMPDEST JUMPDEST PUSH1 0x0 PUSH2 0x440E DUP7 DUP3 DUP8 ADD PUSH2 0x40F3 JUMP JUMPDEST SWAP4 POP POP PUSH1 0x20 DUP5 ADD CALLDATALOAD PUSH8 0xFFFFFFFFFFFFFFFF DUP2 GT ISZERO PUSH2 0x442F JUMPI PUSH2 0x442E PUSH2 0x5771 JUMP JUMPDEST JUMPDEST PUSH2 0x443B DUP7 DUP3 DUP8 ADD PUSH2 0x4136 JUMP JUMPDEST SWAP3 POP POP PUSH1 0x40 DUP5 ADD CALLDATALOAD PUSH8 0xFFFFFFFFFFFFFFFF DUP2 GT ISZERO PUSH2 0x445C JUMPI PUSH2 0x445B PUSH2 0x5771 JUMP JUMPDEST JUMPDEST PUSH2 0x4468 DUP7 DUP3 DUP8 ADD PUSH2 0x4136 JUMP JUMPDEST SWAP2 POP POP SWAP3 POP SWAP3 POP SWAP3 JUMP JUMPDEST PUSH1 0x0 DUP1 PUSH1 0x0 DUP1 PUSH1 0x0 PUSH1 0xA0 DUP7 DUP9 SUB SLT ISZERO PUSH2 0x448E JUMPI PUSH2 0x448D PUSH2 0x5776 JUMP JUMPDEST JUMPDEST PUSH1 0x0 PUSH2 0x449C DUP9 DUP3 DUP10 ADD PUSH2 0x40F3 JUMP JUMPDEST SWAP6 POP POP PUSH1 0x20 DUP7 ADD CALLDATALOAD PUSH8 0xFFFFFFFFFFFFFFFF DUP2 GT ISZERO PUSH2 0x44BD JUMPI PUSH2 0x44BC PUSH2 0x5771 JUMP JUMPDEST JUMPDEST PUSH2 0x44C9 DUP9 DUP3 DUP10 ADD PUSH2 0x4136 JUMP JUMPDEST SWAP5 POP POP PUSH1 0x40 DUP7 ADD CALLDATALOAD PUSH8 0xFFFFFFFFFFFFFFFF DUP2 GT ISZERO PUSH2 0x44EA JUMPI PUSH2 0x44E9 PUSH2 0x5771 JUMP JUMPDEST JUMPDEST PUSH2 0x44F6 DUP9 DUP3 DUP10 ADD PUSH2 0x4136 JUMP JUMPDEST SWAP4 POP POP PUSH1 0x60 DUP7 ADD CALLDATALOAD PUSH8 0xFFFFFFFFFFFFFFFF DUP2 GT ISZERO PUSH2 0x4517 JUMPI PUSH2 0x4516 PUSH2 0x5771 JUMP JUMPDEST JUMPDEST PUSH2 0x4523 DUP9 DUP3 DUP10 ADD PUSH2 0x4136 JUMP JUMPDEST SWAP3 POP POP PUSH1 0x80 DUP7 ADD CALLDATALOAD PUSH8 0xFFFFFFFFFFFFFFFF DUP2 GT ISZERO PUSH2 0x4544 JUMPI PUSH2 0x4543 PUSH2 0x5771 JUMP JUMPDEST JUMPDEST PUSH2 0x4550 DUP9 DUP3 DUP10 ADD PUSH2 0x4136 JUMP JUMPDEST SWAP2 POP POP SWAP3 SWAP6 POP SWAP3 SWAP6 SWAP1 SWAP4 POP JUMP JUMPDEST PUSH1 0x0 DUP1 PUSH1 0x40 DUP4 DUP6 SUB SLT ISZERO PUSH2 0x4574 JUMPI PUSH2 0x4573 PUSH2 0x5776 JUMP JUMPDEST JUMPDEST PUSH1 0x0 PUSH2 0x4582 DUP6 DUP3 DUP7 ADD PUSH2 0x40F3 JUMP JUMPDEST SWAP3 POP POP PUSH1 0x20 PUSH2 0x4593 DUP6 DUP3 DUP7 ADD PUSH2 0x4164 JUMP JUMPDEST SWAP2 POP POP SWAP3 POP SWAP3 SWAP1 POP JUMP JUMPDEST PUSH1 0x0 DUP1 PUSH1 0x40 DUP4 DUP6 SUB SLT ISZERO PUSH2 0x45B4 JUMPI PUSH2 0x45B3 PUSH2 0x5776 JUMP JUMPDEST JUMPDEST PUSH1 0x0 PUSH2 0x45C2 DUP6 DUP3 DUP7 ADD PUSH2 0x40F3 JUMP JUMPDEST SWAP3 POP POP PUSH1 0x20 PUSH2 0x45D3 DUP6 DUP3 DUP7 ADD PUSH2 0x41FF JUMP JUMPDEST SWAP2 POP POP SWAP3 POP SWAP3 SWAP1 POP JUMP JUMPDEST PUSH1 0x0 DUP1 PUSH1 0x0 PUSH1 0x60 DUP5 DUP7 SUB SLT ISZERO PUSH2 0x45F6 JUMPI PUSH2 0x45F5 PUSH2 0x5776 JUMP JUMPDEST JUMPDEST PUSH1 0x0 PUSH2 0x4604 DUP7 DUP3 DUP8 ADD PUSH2 0x40F3 JUMP JUMPDEST SWAP4 POP POP PUSH1 0x20 PUSH2 0x4615 DUP7 DUP3 DUP8 ADD PUSH2 0x41FF JUMP JUMPDEST SWAP3 POP POP PUSH1 0x40 PUSH2 0x4626 DUP7 DUP3 DUP8 ADD PUSH2 0x41FF JUMP JUMPDEST SWAP2 POP POP SWAP3 POP SWAP3 POP SWAP3 JUMP JUMPDEST PUSH1 0x0 DUP1 PUSH1 0x40 DUP4 DUP6 SUB SLT ISZERO PUSH2 0x4647 JUMPI PUSH2 0x4646 PUSH2 0x5776 JUMP JUMPDEST JUMPDEST PUSH1 0x0 DUP4 ADD CALLDATALOAD PUSH8 0xFFFFFFFFFFFFFFFF DUP2 GT ISZERO PUSH2 0x4665 JUMPI PUSH2 0x4664 PUSH2 0x5771 JUMP JUMPDEST JUMPDEST PUSH2 0x4671 DUP6 DUP3 DUP7 ADD PUSH2 0x4108 JUMP JUMPDEST SWAP3 POP POP PUSH1 0x20 DUP4 ADD CALLDATALOAD PUSH8 0xFFFFFFFFFFFFFFFF DUP2 GT ISZERO PUSH2 0x4692 JUMPI PUSH2 0x4691 PUSH2 0x5771 JUMP JUMPDEST JUMPDEST PUSH2 0x469E DUP6 DUP3 DUP7 ADD PUSH2 0x4136 JUMP JUMPDEST SWAP2 POP POP SWAP3 POP SWAP3 SWAP1 POP JUMP JUMPDEST PUSH1 0x0 DUP1 PUSH1 0x40 DUP4 DUP6 SUB SLT ISZERO PUSH2 0x46BF JUMPI PUSH2 0x46BE PUSH2 0x5776 JUMP JUMPDEST JUMPDEST PUSH1 0x0 DUP4 ADD CALLDATALOAD PUSH8 0xFFFFFFFFFFFFFFFF DUP2 GT ISZERO PUSH2 0x46DD JUMPI PUSH2 0x46DC PUSH2 0x5771 JUMP JUMPDEST JUMPDEST PUSH2 0x46E9 DUP6 DUP3 DUP7 ADD PUSH2 0x4108 JUMP JUMPDEST SWAP3 POP POP PUSH1 0x20 PUSH2 0x46FA DUP6 DUP3 DUP7 ADD PUSH2 0x41FF JUMP JUMPDEST SWAP2 POP POP SWAP3 POP SWAP3 SWAP1 POP JUMP JUMPDEST PUSH1 0x0 DUP1 PUSH1 0x40 DUP4 DUP6 SUB SLT ISZERO PUSH2 0x471B JUMPI PUSH2 0x471A PUSH2 0x5776 JUMP JUMPDEST JUMPDEST PUSH1 0x0 DUP4 ADD CALLDATALOAD PUSH8 0xFFFFFFFFFFFFFFFF DUP2 GT ISZERO PUSH2 0x4739 JUMPI PUSH2 0x4738 PUSH2 0x5771 JUMP JUMPDEST JUMPDEST PUSH2 0x4745 DUP6 DUP3 DUP7 ADD PUSH2 0x4136 JUMP JUMPDEST SWAP3 POP POP PUSH1 0x20 DUP4 ADD CALLDATALOAD PUSH8 0xFFFFFFFFFFFFFFFF DUP2 GT ISZERO PUSH2 0x4766 JUMPI PUSH2 0x4765 PUSH2 0x5771 JUMP JUMPDEST JUMPDEST PUSH2 0x4772 DUP6 DUP3 DUP7 ADD PUSH2 0x4136 JUMP JUMPDEST SWAP2 POP POP SWAP3 POP SWAP3 SWAP1 POP JUMP JUMPDEST PUSH1 0x0 PUSH1 0x20 DUP3 DUP5 SUB SLT ISZERO PUSH2 0x4792 JUMPI PUSH2 0x4791 PUSH2 0x5776 JUMP JUMPDEST JUMPDEST PUSH1 0x0 PUSH2 0x47A0 DUP5 DUP3 DUP6 ADD PUSH2 0x4179 JUMP JUMPDEST SWAP2 POP POP SWAP3 SWAP2 POP POP JUMP JUMPDEST PUSH1 0x0 PUSH1 0x20 DUP3 DUP5 SUB SLT ISZERO PUSH2 0x47BF JUMPI PUSH2 0x47BE PUSH2 0x5776 JUMP JUMPDEST JUMPDEST PUSH1 0x0 PUSH2 0x47CD DUP5 DUP3 DUP6 ADD PUSH2 0x418E JUMP JUMPDEST SWAP2 POP POP SWAP3 SWAP2 POP POP JUMP JUMPDEST PUSH1 0x0 PUSH1 0x20 DUP3 DUP5 SUB SLT ISZERO PUSH2 0x47EC JUMPI PUSH2 0x47EB PUSH2 0x5776 JUMP JUMPDEST JUMPDEST PUSH1 0x0 PUSH2 0x47FA DUP5 DUP3 DUP6 ADD PUSH2 0x41FF JUMP JUMPDEST SWAP2 POP POP SWAP3 SWAP2 POP POP JUMP JUMPDEST PUSH1 0x0 DUP1 PUSH1 0x40 DUP4 DUP6 SUB SLT ISZERO PUSH2 0x481A JUMPI PUSH2 0x4819 PUSH2 0x5776 JUMP JUMPDEST JUMPDEST PUSH1 0x0 PUSH2 0x4828 DUP6 DUP3 DUP7 ADD PUSH2 0x41FF JUMP JUMPDEST SWAP3 POP POP PUSH1 0x20 DUP4 ADD CALLDATALOAD PUSH8 0xFFFFFFFFFFFFFFFF DUP2 GT ISZERO PUSH2 0x4849 JUMPI PUSH2 0x4848 PUSH2 0x5771 JUMP JUMPDEST JUMPDEST PUSH2 0x4855 DUP6 DUP3 DUP7 ADD PUSH2 0x41D1 JUMP JUMPDEST SWAP2 POP POP SWAP3 POP SWAP3 SWAP1 POP JUMP JUMPDEST PUSH1 0x0 DUP1 PUSH1 0x40 DUP4 DUP6 SUB SLT ISZERO PUSH2 0x4876 JUMPI PUSH2 0x4875 PUSH2 0x5776 JUMP JUMPDEST JUMPDEST PUSH1 0x0 PUSH2 0x4884 DUP6 DUP3 DUP7 ADD PUSH2 0x41FF JUMP JUMPDEST SWAP3 POP POP PUSH1 0x20 PUSH2 0x4895 DUP6 DUP3 DUP7 ADD PUSH2 0x41FF JUMP JUMPDEST SWAP2 POP POP SWAP3 POP SWAP3 SWAP1 POP JUMP JUMPDEST PUSH1 0x0 PUSH2 0x48AB DUP4 DUP4 PUSH2 0x4D42 JUMP JUMPDEST PUSH1 0x20 DUP4 ADD SWAP1 POP SWAP3 SWAP2 POP POP JUMP JUMPDEST PUSH2 0x48C0 DUP2 PUSH2 0x54D9 JUMP JUMPDEST DUP3 MSTORE POP POP JUMP JUMPDEST PUSH1 0x0 PUSH2 0x48D1 DUP3 PUSH2 0x53EE JUMP JUMPDEST PUSH2 0x48DB DUP2 DUP6 PUSH2 0x541C JUMP JUMPDEST SWAP4 POP PUSH2 0x48E6 DUP4 PUSH2 0x53DE JUMP JUMPDEST DUP1 PUSH1 0x0 JUMPDEST DUP4 DUP2 LT ISZERO PUSH2 0x4917 JUMPI DUP2 MLOAD PUSH2 0x48FE DUP9 DUP3 PUSH2 0x489F JUMP JUMPDEST SWAP8 POP PUSH2 0x4909 DUP4 PUSH2 0x540F JUMP JUMPDEST SWAP3 POP POP PUSH1 0x1 DUP2 ADD SWAP1 POP PUSH2 0x48EA JUMP JUMPDEST POP DUP6 SWAP4 POP POP POP POP SWAP3 SWAP2 POP POP JUMP JUMPDEST PUSH2 0x492D DUP2 PUSH2 0x54EB JUMP JUMPDEST DUP3 MSTORE POP POP JUMP JUMPDEST PUSH1 0x0 PUSH2 0x493E DUP3 PUSH2 0x53F9 JUMP JUMPDEST PUSH2 0x4948 DUP2 DUP6 PUSH2 0x542D JUMP JUMPDEST SWAP4 POP PUSH2 0x4958 DUP2 DUP6 PUSH1 0x20 DUP7 ADD PUSH2 0x557B JUMP JUMPDEST PUSH2 0x4961 DUP2 PUSH2 0x577B JUMP JUMPDEST DUP5 ADD SWAP2 POP POP SWAP3 SWAP2 POP POP JUMP JUMPDEST PUSH2 0x4975 DUP2 PUSH2 0x555A JUMP JUMPDEST DUP3 MSTORE POP POP JUMP JUMPDEST PUSH1 0x0 PUSH2 0x4986 DUP3 PUSH2 0x5404 JUMP JUMPDEST PUSH2 0x4990 DUP2 DUP6 PUSH2 0x543E JUMP JUMPDEST SWAP4 POP PUSH2 0x49A0 DUP2 DUP6 PUSH1 0x20 DUP7 ADD PUSH2 0x557B JUMP JUMPDEST PUSH2 0x49A9 DUP2 PUSH2 0x577B JUMP JUMPDEST DUP5 ADD SWAP2 POP POP SWAP3 SWAP2 POP POP JUMP JUMPDEST PUSH1 0x0 PUSH2 0x49C1 PUSH1 0x34 DUP4 PUSH2 0x543E JUMP JUMPDEST SWAP2 POP PUSH2 0x49CC DUP3 PUSH2 0x5799 JUMP JUMPDEST PUSH1 0x40 DUP3 ADD SWAP1 POP SWAP2 SWAP1 POP JUMP JUMPDEST PUSH1 0x0 PUSH2 0x49E4 PUSH1 0x13 DUP4 PUSH2 0x543E JUMP JUMPDEST SWAP2 POP PUSH2 0x49EF DUP3 PUSH2 0x57E8 JUMP JUMPDEST PUSH1 0x20 DUP3 ADD SWAP1 POP SWAP2 SWAP1 POP JUMP JUMPDEST PUSH1 0x0 PUSH2 0x4A07 PUSH1 0x28 DUP4 PUSH2 0x543E JUMP JUMPDEST SWAP2 POP PUSH2 0x4A12 DUP3 PUSH2 0x5811 JUMP JUMPDEST PUSH1 0x40 DUP3 ADD SWAP1 POP SWAP2 SWAP1 POP JUMP JUMPDEST PUSH1 0x0 PUSH2 0x4A2A PUSH1 0x14 DUP4 PUSH2 0x543E JUMP JUMPDEST SWAP2 POP PUSH2 0x4A35 DUP3 PUSH2 0x5860 JUMP JUMPDEST PUSH1 0x20 DUP3 ADD SWAP1 POP SWAP2 SWAP1 POP JUMP JUMPDEST PUSH1 0x0 PUSH2 0x4A4D PUSH1 0x14 DUP4 PUSH2 0x543E JUMP JUMPDEST SWAP2 POP PUSH2 0x4A58 DUP3 PUSH2 0x5889 JUMP JUMPDEST PUSH1 0x20 DUP3 ADD SWAP1 POP SWAP2 SWAP1 POP JUMP JUMPDEST PUSH1 0x0 PUSH2 0x4A70 PUSH1 0x11 DUP4 PUSH2 0x543E JUMP JUMPDEST SWAP2 POP PUSH2 0x4A7B DUP3 PUSH2 0x58B2 JUMP JUMPDEST PUSH1 0x20 DUP3 ADD SWAP1 POP SWAP2 SWAP1 POP JUMP JUMPDEST PUSH1 0x0 PUSH2 0x4A93 PUSH1 0x2B DUP4 PUSH2 0x543E JUMP JUMPDEST SWAP2 POP PUSH2 0x4A9E DUP3 PUSH2 0x58DB JUMP JUMPDEST PUSH1 0x40 DUP3 ADD SWAP1 POP SWAP2 SWAP1 POP JUMP JUMPDEST PUSH1 0x0 PUSH2 0x4AB6 PUSH1 0x26 DUP4 PUSH2 0x543E JUMP JUMPDEST SWAP2 POP PUSH2 0x4AC1 DUP3 PUSH2 0x592A JUMP JUMPDEST PUSH1 0x40 DUP3 ADD SWAP1 POP SWAP2 SWAP1 POP JUMP JUMPDEST PUSH1 0x0 PUSH2 0x4AD9 PUSH1 0x1C DUP4 PUSH2 0x543E JUMP JUMPDEST SWAP2 POP PUSH2 0x4AE4 DUP3 PUSH2 0x5979 JUMP JUMPDEST PUSH1 0x20 DUP3 ADD SWAP1 POP SWAP2 SWAP1 POP JUMP JUMPDEST PUSH1 0x0 PUSH2 0x4AFC PUSH1 0x24 DUP4 PUSH2 0x543E JUMP JUMPDEST SWAP2 POP PUSH2 0x4B07 DUP3 PUSH2 0x59A2 JUMP JUMPDEST PUSH1 0x40 DUP3 ADD SWAP1 POP SWAP2 SWAP1 POP JUMP JUMPDEST PUSH1 0x0 PUSH2 0x4B1F PUSH1 0x1E DUP4 PUSH2 0x543E JUMP JUMPDEST SWAP2 POP PUSH2 0x4B2A DUP3 PUSH2 0x59F1 JUMP JUMPDEST PUSH1 0x20 DUP3 ADD SWAP1 POP SWAP2 SWAP1 POP JUMP JUMPDEST PUSH1 0x0 PUSH2 0x4B42 PUSH1 0x29 DUP4 PUSH2 0x543E JUMP JUMPDEST SWAP2 POP PUSH2 0x4B4D DUP3 PUSH2 0x5A1A JUMP JUMPDEST PUSH1 0x40 DUP3 ADD SWAP1 POP SWAP2 SWAP1 POP JUMP JUMPDEST PUSH1 0x0 PUSH2 0x4B65 PUSH1 0x10 DUP4 PUSH2 0x543E JUMP JUMPDEST SWAP2 POP PUSH2 0x4B70 DUP3 PUSH2 0x5A69 JUMP JUMPDEST PUSH1 0x20 DUP3 ADD SWAP1 POP SWAP2 SWAP1 POP JUMP JUMPDEST PUSH1 0x0 PUSH2 0x4B88 PUSH1 0x10 DUP4 PUSH2 0x543E JUMP JUMPDEST SWAP2 POP PUSH2 0x4B93 DUP3 PUSH2 0x5A92 JUMP JUMPDEST PUSH1 0x20 DUP3 ADD SWAP1 POP SWAP2 SWAP1 POP JUMP JUMPDEST PUSH1 0x0 PUSH2 0x4BAB PUSH1 0x25 DUP4 PUSH2 0x543E JUMP JUMPDEST SWAP2 POP PUSH2 0x4BB6 DUP3 PUSH2 0x5ABB JUMP JUMPDEST PUSH1 0x40 DUP3 ADD SWAP1 POP SWAP2 SWAP1 POP JUMP JUMPDEST PUSH1 0x0 PUSH2 0x4BCE PUSH1 0x32 DUP4 PUSH2 0x543E JUMP JUMPDEST SWAP2 POP PUSH2 0x4BD9 DUP3 PUSH2 0x5B0A JUMP JUMPDEST PUSH1 0x40 DUP3 ADD SWAP1 POP SWAP2 SWAP1 POP JUMP JUMPDEST PUSH1 0x0 PUSH2 0x4BF1 PUSH1 0x23 DUP4 PUSH2 0x543E JUMP JUMPDEST SWAP2 POP PUSH2 0x4BFC DUP3 PUSH2 0x5B59 JUMP JUMPDEST PUSH1 0x40 DUP3 ADD SWAP1 POP SWAP2 SWAP1 POP JUMP JUMPDEST PUSH1 0x0 PUSH2 0x4C14 PUSH1 0x2A DUP4 PUSH2 0x543E JUMP JUMPDEST SWAP2 POP PUSH2 0x4C1F DUP3 PUSH2 0x5BA8 JUMP JUMPDEST PUSH1 0x40 DUP3 ADD SWAP1 POP SWAP2 SWAP1 POP JUMP JUMPDEST PUSH1 0x0 PUSH2 0x4C37 PUSH1 0x21 DUP4 PUSH2 0x543E JUMP JUMPDEST SWAP2 POP PUSH2 0x4C42 DUP3 PUSH2 0x5BF7 JUMP JUMPDEST PUSH1 0x40 DUP3 ADD SWAP1 POP SWAP2 SWAP1 POP JUMP JUMPDEST PUSH1 0x0 PUSH2 0x4C5A PUSH1 0x20 DUP4 PUSH2 0x543E JUMP JUMPDEST SWAP2 POP PUSH2 0x4C65 DUP3 PUSH2 0x5C46 JUMP JUMPDEST PUSH1 0x20 DUP3 ADD SWAP1 POP SWAP2 SWAP1 POP JUMP JUMPDEST PUSH1 0x0 PUSH2 0x4C7D PUSH1 0x23 DUP4 PUSH2 0x543E JUMP JUMPDEST SWAP2 POP PUSH2 0x4C88 DUP3 PUSH2 0x5C6F JUMP JUMPDEST PUSH1 0x40 DUP3 ADD SWAP1 POP SWAP2 SWAP1 POP JUMP JUMPDEST PUSH1 0x0 PUSH2 0x4CA0 PUSH1 0x15 DUP4 PUSH2 0x543E JUMP JUMPDEST SWAP2 POP PUSH2 0x4CAB DUP3 PUSH2 0x5CBE JUMP JUMPDEST PUSH1 0x20 DUP3 ADD SWAP1 POP SWAP2 SWAP1 POP JUMP JUMPDEST PUSH1 0x0 PUSH2 0x4CC3 PUSH1 0x29 DUP4 PUSH2 0x543E JUMP JUMPDEST SWAP2 POP PUSH2 0x4CCE DUP3 PUSH2 0x5CE7 JUMP JUMPDEST PUSH1 0x40 DUP3 ADD SWAP1 POP SWAP2 SWAP1 POP JUMP JUMPDEST PUSH1 0x0 PUSH2 0x4CE6 PUSH1 0x29 DUP4 PUSH2 0x543E JUMP JUMPDEST SWAP2 POP PUSH2 0x4CF1 DUP3 PUSH2 0x5D36 JUMP JUMPDEST PUSH1 0x40 DUP3 ADD SWAP1 POP SWAP2 SWAP1 POP JUMP JUMPDEST PUSH1 0x0 PUSH2 0x4D09 PUSH1 0x28 DUP4 PUSH2 0x543E JUMP JUMPDEST SWAP2 POP PUSH2 0x4D14 DUP3 PUSH2 0x5D85 JUMP JUMPDEST PUSH1 0x40 DUP3 ADD SWAP1 POP SWAP2 SWAP1 POP JUMP JUMPDEST PUSH1 0x0 PUSH2 0x4D2C PUSH1 0x21 DUP4 PUSH2 0x543E JUMP JUMPDEST SWAP2 POP PUSH2 0x4D37 DUP3 PUSH2 0x5DD4 JUMP JUMPDEST PUSH1 0x40 DUP3 ADD SWAP1 POP SWAP2 SWAP1 POP JUMP JUMPDEST PUSH2 0x4D4B DUP2 PUSH2 0x5543 JUMP JUMPDEST DUP3 MSTORE POP POP JUMP JUMPDEST PUSH2 0x4D5A DUP2 PUSH2 0x5543 JUMP JUMPDEST DUP3 MSTORE POP POP JUMP JUMPDEST PUSH1 0x0 PUSH1 0x20 DUP3 ADD SWAP1 POP PUSH2 0x4D75 PUSH1 0x0 DUP4 ADD DUP5 PUSH2 0x48B7 JUMP JUMPDEST SWAP3 SWAP2 POP POP JUMP JUMPDEST PUSH1 0x0 PUSH1 0xA0 DUP3 ADD SWAP1 POP PUSH2 0x4D90 PUSH1 0x0 DUP4 ADD DUP9 PUSH2 0x48B7 JUMP JUMPDEST PUSH2 0x4D9D PUSH1 0x20 DUP4 ADD DUP8 PUSH2 0x48B7 JUMP JUMPDEST DUP2 DUP2 SUB PUSH1 0x40 DUP4 ADD MSTORE PUSH2 0x4DAF DUP2 DUP7 PUSH2 0x48C6 JUMP JUMPDEST SWAP1 POP DUP2 DUP2 SUB PUSH1 0x60 DUP4 ADD MSTORE PUSH2 0x4DC3 DUP2 DUP6 PUSH2 0x48C6 JUMP JUMPDEST SWAP1 POP DUP2 DUP2 SUB PUSH1 0x80 DUP4 ADD MSTORE PUSH2 0x4DD7 DUP2 DUP5 PUSH2 0x4933 JUMP JUMPDEST SWAP1 POP SWAP7 SWAP6 POP POP POP POP POP POP JUMP JUMPDEST PUSH1 0x0 PUSH1 0xA0 DUP3 ADD SWAP1 POP PUSH2 0x4DF8 PUSH1 0x0 DUP4 ADD DUP9 PUSH2 0x48B7 JUMP JUMPDEST PUSH2 0x4E05 PUSH1 0x20 DUP4 ADD DUP8 PUSH2 0x48B7 JUMP JUMPDEST PUSH2 0x4E12 PUSH1 0x40 DUP4 ADD DUP7 PUSH2 0x4D51 JUMP JUMPDEST PUSH2 0x4E1F PUSH1 0x60 DUP4 ADD DUP6 PUSH2 0x4D51 JUMP JUMPDEST DUP2 DUP2 SUB PUSH1 0x80 DUP4 ADD MSTORE PUSH2 0x4E31 DUP2 DUP5 PUSH2 0x4933 JUMP JUMPDEST SWAP1 POP SWAP7 SWAP6 POP POP POP POP POP POP JUMP JUMPDEST PUSH1 0x0 PUSH1 0x20 DUP3 ADD SWAP1 POP DUP2 DUP2 SUB PUSH1 0x0 DUP4 ADD MSTORE PUSH2 0x4E57 DUP2 DUP5 PUSH2 0x48C6 JUMP JUMPDEST SWAP1 POP SWAP3 SWAP2 POP POP JUMP JUMPDEST PUSH1 0x0 PUSH1 0x40 DUP3 ADD SWAP1 POP DUP2 DUP2 SUB PUSH1 0x0 DUP4 ADD MSTORE PUSH2 0x4E79 DUP2 DUP6 PUSH2 0x48C6 JUMP JUMPDEST SWAP1 POP DUP2 DUP2 SUB PUSH1 0x20 DUP4 ADD MSTORE PUSH2 0x4E8D DUP2 DUP5 PUSH2 0x48C6 JUMP JUMPDEST SWAP1 POP SWAP4 SWAP3 POP POP POP JUMP JUMPDEST PUSH1 0x0 PUSH1 0x20 DUP3 ADD SWAP1 POP PUSH2 0x4EAB PUSH1 0x0 DUP4 ADD DUP5 PUSH2 0x4924 JUMP JUMPDEST SWAP3 SWAP2 POP POP JUMP JUMPDEST PUSH1 0x0 PUSH1 0x20 DUP3 ADD SWAP1 POP DUP2 DUP2 SUB PUSH1 0x0 DUP4 ADD MSTORE PUSH2 0x4ECB DUP2 DUP5 PUSH2 0x497B JUMP JUMPDEST SWAP1 POP SWAP3 SWAP2 POP POP JUMP JUMPDEST PUSH1 0x0 PUSH1 0x20 DUP3 ADD SWAP1 POP DUP2 DUP2 SUB PUSH1 0x0 DUP4 ADD MSTORE PUSH2 0x4EEC DUP2 PUSH2 0x49B4 JUMP JUMPDEST SWAP1 POP SWAP2 SWAP1 POP JUMP JUMPDEST PUSH1 0x0 PUSH1 0x20 DUP3 ADD SWAP1 POP DUP2 DUP2 SUB PUSH1 0x0 DUP4 ADD MSTORE PUSH2 0x4F0C DUP2 PUSH2 0x49D7 JUMP JUMPDEST SWAP1 POP SWAP2 SWAP1 POP JUMP JUMPDEST PUSH1 0x0 PUSH1 0x20 DUP3 ADD SWAP1 POP DUP2 DUP2 SUB PUSH1 0x0 DUP4 ADD MSTORE PUSH2 0x4F2C DUP2 PUSH2 0x49FA JUMP JUMPDEST SWAP1 POP SWAP2 SWAP1 POP JUMP JUMPDEST PUSH1 0x0 PUSH1 0x20 DUP3 ADD SWAP1 POP DUP2 DUP2 SUB PUSH1 0x0 DUP4 ADD MSTORE PUSH2 0x4F4C DUP2 PUSH2 0x4A1D JUMP JUMPDEST SWAP1 POP SWAP2 SWAP1 POP JUMP JUMPDEST PUSH1 0x0 PUSH1 0x80 DUP3 ADD SWAP1 POP DUP2 DUP2 SUB PUSH1 0x0 DUP4 ADD MSTORE PUSH2 0x4F6C DUP2 PUSH2 0x4A40 JUMP JUMPDEST SWAP1 POP PUSH2 0x4F7B PUSH1 0x20 DUP4 ADD DUP7 PUSH2 0x48B7 JUMP JUMPDEST PUSH2 0x4F88 PUSH1 0x40 DUP4 ADD DUP6 PUSH2 0x496C JUMP JUMPDEST PUSH2 0x4F95 PUSH1 0x60 DUP4 ADD DUP5 PUSH2 0x4D51 JUMP JUMPDEST SWAP5 SWAP4 POP POP POP POP JUMP JUMPDEST PUSH1 0x0 PUSH1 0x20 DUP3 ADD SWAP1 POP DUP2 DUP2 SUB PUSH1 0x0 DUP4 ADD MSTORE PUSH2 0x4FB6 DUP2 PUSH2 0x4A63 JUMP JUMPDEST SWAP1 POP SWAP2 SWAP1 POP JUMP JUMPDEST PUSH1 0x0 PUSH1 0x20 DUP3 ADD SWAP1 POP DUP2 DUP2 SUB PUSH1 0x0 DUP4 ADD MSTORE PUSH2 0x4FD6 DUP2 PUSH2 0x4A86 JUMP JUMPDEST SWAP1 POP SWAP2 SWAP1 POP JUMP JUMPDEST PUSH1 0x0 PUSH1 0x20 DUP3 ADD SWAP1 POP DUP2 DUP2 SUB PUSH1 0x0 DUP4 ADD MSTORE PUSH2 0x4FF6 DUP2 PUSH2 0x4AA9 JUMP JUMPDEST SWAP1 POP SWAP2 SWAP1 POP JUMP JUMPDEST PUSH1 0x0 PUSH1 0x80 DUP3 ADD SWAP1 POP DUP2 DUP2 SUB PUSH1 0x0 DUP4 ADD MSTORE PUSH2 0x5016 DUP2 PUSH2 0x4ACC JUMP JUMPDEST SWAP1 POP PUSH2 0x5025 PUSH1 0x20 DUP4 ADD DUP7 PUSH2 0x48B7 JUMP JUMPDEST PUSH2 0x5032 PUSH1 0x40 DUP4 ADD DUP6 PUSH2 0x496C JUMP JUMPDEST PUSH2 0x503F PUSH1 0x60 DUP4 ADD DUP5 PUSH2 0x4D51 JUMP JUMPDEST SWAP5 SWAP4 POP POP POP POP JUMP JUMPDEST PUSH1 0x0 PUSH1 0x20 DUP3 ADD SWAP1 POP DUP2 DUP2 SUB PUSH1 0x0 DUP4 ADD MSTORE PUSH2 0x5060 DUP2 PUSH2 0x4AEF JUMP JUMPDEST SWAP1 POP SWAP2 SWAP1 POP JUMP JUMPDEST PUSH1 0x0 PUSH1 0x80 DUP3 ADD SWAP1 POP DUP2 DUP2 SUB PUSH1 0x0 DUP4 ADD MSTORE PUSH2 0x5080 DUP2 PUSH2 0x4B12 JUMP JUMPDEST SWAP1 POP PUSH2 0x508F PUSH1 0x20 DUP4 ADD DUP7 PUSH2 0x48B7 JUMP JUMPDEST PUSH2 0x509C PUSH1 0x40 DUP4 ADD DUP6 PUSH2 0x4D51 JUMP JUMPDEST PUSH2 0x50A9 PUSH1 0x60 DUP4 ADD DUP5 PUSH2 0x4D51 JUMP JUMPDEST SWAP5 SWAP4 POP POP POP POP JUMP JUMPDEST PUSH1 0x0 PUSH1 0x20 DUP3 ADD SWAP1 POP DUP2 DUP2 SUB PUSH1 0x0 DUP4 ADD MSTORE PUSH2 0x50CA DUP2 PUSH2 0x4B35 JUMP JUMPDEST SWAP1 POP SWAP2 SWAP1 POP JUMP JUMPDEST PUSH1 0x0 PUSH1 0x20 DUP3 ADD SWAP1 POP DUP2 DUP2 SUB PUSH1 0x0 DUP4 ADD MSTORE PUSH2 0x50EA DUP2 PUSH2 0x4B58 JUMP JUMPDEST SWAP1 POP SWAP2 SWAP1 POP JUMP JUMPDEST PUSH1 0x0 PUSH1 0x20 DUP3 ADD SWAP1 POP DUP2 DUP2 SUB PUSH1 0x0 DUP4 ADD MSTORE PUSH2 0x510A DUP2 PUSH2 0x4B7B JUMP JUMPDEST SWAP1 POP SWAP2 SWAP1 POP JUMP JUMPDEST PUSH1 0x0 PUSH1 0x20 DUP3 ADD SWAP1 POP DUP2 DUP2 SUB PUSH1 0x0 DUP4 ADD MSTORE PUSH2 0x512A DUP2 PUSH2 0x4B9E JUMP JUMPDEST SWAP1 POP SWAP2 SWAP1 POP JUMP JUMPDEST PUSH1 0x0 PUSH1 0x20 DUP3 ADD SWAP1 POP DUP2 DUP2 SUB PUSH1 0x0 DUP4 ADD MSTORE PUSH2 0x514A DUP2 PUSH2 0x4BC1 JUMP JUMPDEST SWAP1 POP SWAP2 SWAP1 POP JUMP JUMPDEST PUSH1 0x0 PUSH1 0x20 DUP3 ADD SWAP1 POP DUP2 DUP2 SUB PUSH1 0x0 DUP4 ADD MSTORE PUSH2 0x516A DUP2 PUSH2 0x4BE4 JUMP JUMPDEST SWAP1 POP SWAP2 SWAP1 POP JUMP JUMPDEST PUSH1 0x0 PUSH1 0x20 DUP3 ADD SWAP1 POP DUP2 DUP2 SUB PUSH1 0x0 DUP4 ADD MSTORE PUSH2 0x518A DUP2 PUSH2 0x4C07 JUMP JUMPDEST SWAP1 POP SWAP2 SWAP1 POP JUMP JUMPDEST PUSH1 0x0 PUSH1 0x80 DUP3 ADD SWAP1 POP DUP2 DUP2 SUB PUSH1 0x0 DUP4 ADD MSTORE PUSH2 0x51AA DUP2 PUSH2 0x4C2A JUMP JUMPDEST SWAP1 POP PUSH2 0x51B9 PUSH1 0x20 DUP4 ADD DUP7 PUSH2 0x48B7 JUMP JUMPDEST PUSH2 0x51C6 PUSH1 0x40 DUP4 ADD DUP6 PUSH2 0x4D51 JUMP JUMPDEST PUSH2 0x51D3 PUSH1 0x60 DUP4 ADD DUP5 PUSH2 0x4D51 JUMP JUMPDEST SWAP5 SWAP4 POP POP POP POP JUMP JUMPDEST PUSH1 0x0 PUSH1 0x20 DUP3 ADD SWAP1 POP DUP2 DUP2 SUB PUSH1 0x0 DUP4 ADD MSTORE PUSH2 0x51F4 DUP2 PUSH2 0x4C4D JUMP JUMPDEST SWAP1 POP SWAP2 SWAP1 POP JUMP JUMPDEST PUSH1 0x0 PUSH1 0x20 DUP3 ADD SWAP1 POP DUP2 DUP2 SUB PUSH1 0x0 DUP4 ADD MSTORE PUSH2 0x5214 DUP2 PUSH2 0x4C70 JUMP JUMPDEST SWAP1 POP SWAP2 SWAP1 POP JUMP JUMPDEST PUSH1 0x0 PUSH1 0x20 DUP3 ADD SWAP1 POP DUP2 DUP2 SUB PUSH1 0x0 DUP4 ADD MSTORE PUSH2 0x5234 DUP2 PUSH2 0x4C93 JUMP JUMPDEST SWAP1 POP SWAP2 SWAP1 POP JUMP JUMPDEST PUSH1 0x0 PUSH1 0x20 DUP3 ADD SWAP1 POP DUP2 DUP2 SUB PUSH1 0x0 DUP4 ADD MSTORE PUSH2 0x5254 DUP2 PUSH2 0x4CB6 JUMP JUMPDEST SWAP1 POP SWAP2 SWAP1 POP JUMP JUMPDEST PUSH1 0x0 PUSH1 0x20 DUP3 ADD SWAP1 POP DUP2 DUP2 SUB PUSH1 0x0 DUP4 ADD MSTORE PUSH2 0x5274 DUP2 PUSH2 0x4CD9 JUMP JUMPDEST SWAP1 POP SWAP2 SWAP1 POP JUMP JUMPDEST PUSH1 0x0 PUSH1 0x20 DUP3 ADD SWAP1 POP DUP2 DUP2 SUB PUSH1 0x0 DUP4 ADD MSTORE PUSH2 0x5294 DUP2 PUSH2 0x4CFC JUMP JUMPDEST SWAP1 POP SWAP2 SWAP1 POP JUMP JUMPDEST PUSH1 0x0 PUSH1 0x20 DUP3 ADD SWAP1 POP DUP2 DUP2 SUB PUSH1 0x0 DUP4 ADD MSTORE PUSH2 0x52B4 DUP2 PUSH2 0x4D1F JUMP JUMPDEST SWAP1 POP SWAP2 SWAP1 POP JUMP JUMPDEST PUSH1 0x0 PUSH1 0x20 DUP3 ADD SWAP1 POP PUSH2 0x52D0 PUSH1 0x0 DUP4 ADD DUP5 PUSH2 0x4D51 JUMP JUMPDEST SWAP3 SWAP2 POP POP JUMP JUMPDEST PUSH1 0x0 PUSH1 0x40 DUP3 ADD SWAP1 POP PUSH2 0x52EB PUSH1 0x0 DUP4 ADD DUP6 PUSH2 0x4D51 JUMP JUMPDEST PUSH2 0x52F8 PUSH1 0x20 DUP4 ADD DUP5 PUSH2 0x4D51 JUMP JUMPDEST SWAP4 SWAP3 POP POP POP JUMP JUMPDEST PUSH1 0x0 PUSH2 0x5309 PUSH2 0x531A JUMP JUMPDEST SWAP1 POP PUSH2 0x5315 DUP3 DUP3 PUSH2 0x55E0 JUMP JUMPDEST SWAP2 SWAP1 POP JUMP JUMPDEST PUSH1 0x0 PUSH1 0x40 MLOAD SWAP1 POP SWAP1 JUMP JUMPDEST PUSH1 0x0 PUSH8 0xFFFFFFFFFFFFFFFF DUP3 GT ISZERO PUSH2 0x533F JUMPI PUSH2 0x533E PUSH2 0x5711 JUMP JUMPDEST JUMPDEST PUSH1 0x20 DUP3 MUL SWAP1 POP PUSH1 0x20 DUP2 ADD SWAP1 POP SWAP2 SWAP1 POP JUMP JUMPDEST PUSH1 0x0 PUSH8 0xFFFFFFFFFFFFFFFF DUP3 GT ISZERO PUSH2 0x536B JUMPI PUSH2 0x536A PUSH2 0x5711 JUMP JUMPDEST JUMPDEST PUSH1 0x20 DUP3 MUL SWAP1 POP PUSH1 0x20 DUP2 ADD SWAP1 POP SWAP2 SWAP1 POP JUMP JUMPDEST PUSH1 0x0 PUSH8 0xFFFFFFFFFFFFFFFF DUP3 GT ISZERO PUSH2 0x5397 JUMPI PUSH2 0x5396 PUSH2 0x5711 JUMP JUMPDEST JUMPDEST PUSH2 0x53A0 DUP3 PUSH2 0x577B JUMP JUMPDEST SWAP1 POP PUSH1 0x20 DUP2 ADD SWAP1 POP SWAP2 SWAP1 POP JUMP JUMPDEST PUSH1 0x0 PUSH8 0xFFFFFFFFFFFFFFFF DUP3 GT ISZERO PUSH2 0x53C8 JUMPI PUSH2 0x53C7 PUSH2 0x5711 JUMP JUMPDEST JUMPDEST PUSH2 0x53D1 DUP3 PUSH2 0x577B JUMP JUMPDEST SWAP1 POP PUSH1 0x20 DUP2 ADD SWAP1 POP SWAP2 SWAP1 POP JUMP JUMPDEST PUSH1 0x0 DUP2 SWAP1 POP PUSH1 0x20 DUP3 ADD SWAP1 POP SWAP2 SWAP1 POP JUMP JUMPDEST PUSH1 0x0 DUP2 MLOAD SWAP1 POP SWAP2 SWAP1 POP JUMP JUMPDEST PUSH1 0x0 DUP2 MLOAD SWAP1 POP SWAP2 SWAP1 POP JUMP JUMPDEST PUSH1 0x0 DUP2 MLOAD SWAP1 POP SWAP2 SWAP1 POP JUMP JUMPDEST PUSH1 0x0 PUSH1 0x20 DUP3 ADD SWAP1 POP SWAP2 SWAP1 POP JUMP JUMPDEST PUSH1 0x0 DUP3 DUP3 MSTORE PUSH1 0x20 DUP3 ADD SWAP1 POP SWAP3 SWAP2 POP POP JUMP JUMPDEST PUSH1 0x0 DUP3 DUP3 MSTORE PUSH1 0x20 DUP3 ADD SWAP1 POP SWAP3 SWAP2 POP POP JUMP JUMPDEST PUSH1 0x0 DUP3 DUP3 MSTORE PUSH1 0x20 DUP3 ADD SWAP1 POP SWAP3 SWAP2 POP POP JUMP JUMPDEST PUSH1 0x0 PUSH2 0x545A DUP3 PUSH2 0x5543 JUMP JUMPDEST SWAP2 POP PUSH2 0x5465 DUP4 PUSH2 0x5543 JUMP JUMPDEST SWAP3 POP DUP3 PUSH32 0xFFFFFFFFFFFFFFFFFFFFFFFFFFFFFFFFFFFFFFFFFFFFFFFFFFFFFFFFFFFFFFFF SUB DUP3 GT ISZERO PUSH2 0x549A JUMPI PUSH2 0x5499 PUSH2 0x5684 JUMP JUMPDEST JUMPDEST DUP3 DUP3 ADD SWAP1 POP SWAP3 SWAP2 POP POP JUMP JUMPDEST PUSH1 0x0 PUSH2 0x54B0 DUP3 PUSH2 0x5543 JUMP JUMPDEST SWAP2 POP PUSH2 0x54BB DUP4 PUSH2 0x5543 JUMP JUMPDEST SWAP3 POP DUP3 DUP3 LT ISZERO PUSH2 0x54CE JUMPI PUSH2 0x54CD PUSH2 0x5684 JUMP JUMPDEST JUMPDEST DUP3 DUP3 SUB SWAP1 POP SWAP3 SWAP2 POP POP JUMP JUMPDEST PUSH1 0x0 PUSH2 0x54E4 DUP3 PUSH2 0x5523 JUMP JUMPDEST SWAP1 POP SWAP2 SWAP1 POP JUMP JUMPDEST PUSH1 0x0 DUP2 ISZERO ISZERO SWAP1 POP SWAP2 SWAP1 POP JUMP JUMPDEST PUSH1 0x0 PUSH32 0xFFFFFFFF00000000000000000000000000000000000000000000000000000000 DUP3 AND SWAP1 POP SWAP2 SWAP1 POP JUMP JUMPDEST PUSH1 0x0 PUSH20 0xFFFFFFFFFFFFFFFFFFFFFFFFFFFFFFFFFFFFFFFF DUP3 AND SWAP1 POP SWAP2 SWAP1 POP JUMP JUMPDEST PUSH1 0x0 DUP2 SWAP1 POP SWAP2 SWAP1 POP JUMP JUMPDEST PUSH1 0x0 PUSH1 0xFF DUP3 AND SWAP1 POP SWAP2 SWAP1 POP JUMP JUMPDEST PUSH1 0x0 PUSH2 0x5565 DUP3 PUSH2 0x5543 JUMP JUMPDEST SWAP1 POP SWAP2 SWAP1 POP JUMP JUMPDEST DUP3 DUP2 DUP4 CALLDATACOPY PUSH1 0x0 DUP4 DUP4 ADD MSTORE POP POP POP JUMP JUMPDEST PUSH1 0x0 JUMPDEST DUP4 DUP2 LT ISZERO PUSH2 0x5599 JUMPI DUP1 DUP3 ADD MLOAD DUP2 DUP5 ADD MSTORE PUSH1 0x20 DUP2 ADD SWAP1 POP PUSH2 0x557E JUMP JUMPDEST DUP4 DUP2 GT ISZERO PUSH2 0x55A8 JUMPI PUSH1 0x0 DUP5 DUP5 ADD MSTORE JUMPDEST POP POP POP POP JUMP JUMPDEST PUSH1 0x0 PUSH1 0x2 DUP3 DIV SWAP1 POP PUSH1 0x1 DUP3 AND DUP1 PUSH2 0x55C6 JUMPI PUSH1 0x7F DUP3 AND SWAP2 POP JUMPDEST PUSH1 0x20 DUP3 LT DUP2 EQ ISZERO PUSH2 0x55DA JUMPI PUSH2 0x55D9 PUSH2 0x56B3 JUMP JUMPDEST JUMPDEST POP SWAP2 SWAP1 POP JUMP JUMPDEST PUSH2 0x55E9 DUP3 PUSH2 0x577B JUMP JUMPDEST DUP2 ADD DUP2 DUP2 LT PUSH8 0xFFFFFFFFFFFFFFFF DUP3 GT OR ISZERO PUSH2 0x5608 JUMPI PUSH2 0x5607 PUSH2 0x5711 JUMP JUMPDEST JUMPDEST DUP1 PUSH1 0x40 MSTORE POP POP POP JUMP JUMPDEST PUSH1 0x0 PUSH2 0x561C DUP3 PUSH2 0x5543 JUMP JUMPDEST SWAP2 POP PUSH32 0xFFFFFFFFFFFFFFFFFFFFFFFFFFFFFFFFFFFFFFFFFFFFFFFFFFFFFFFFFFFFFFFF DUP3 EQ ISZERO PUSH2 0x564F JUMPI PUSH2 0x564E PUSH2 0x5684 JUMP JUMPDEST JUMPDEST PUSH1 0x1 DUP3 ADD SWAP1 POP SWAP2 SWAP1 POP JUMP JUMPDEST PUSH1 0x0 PUSH2 0x5665 DUP3 PUSH2 0x554D JUMP JUMPDEST SWAP2 POP PUSH1 0xFF DUP3 EQ ISZERO PUSH2 0x5679 JUMPI PUSH2 0x5678 PUSH2 0x5684 JUMP JUMPDEST JUMPDEST PUSH1 0x1 DUP3 ADD SWAP1 POP SWAP2 SWAP1 POP JUMP JUMPDEST PUSH32 0x4E487B7100000000000000000000000000000000000000000000000000000000 PUSH1 0x0 MSTORE PUSH1 0x11 PUSH1 0x4 MSTORE PUSH1 0x24 PUSH1 0x0 REVERT JUMPDEST PUSH32 0x4E487B7100000000000000000000000000000000000000000000000000000000 PUSH1 0x0 MSTORE PUSH1 0x22 PUSH1 0x4 MSTORE PUSH1 0x24 PUSH1 0x0 REVERT JUMPDEST PUSH32 0x4E487B7100000000000000000000000000000000000000000000000000000000 PUSH1 0x0 MSTORE PUSH1 0x32 PUSH1 0x4 MSTORE PUSH1 0x24 PUSH1 0x0 REVERT JUMPDEST PUSH32 0x4E487B7100000000000000000000000000000000000000000000000000000000 PUSH1 0x0 MSTORE PUSH1 0x41 PUSH1 0x4 MSTORE PUSH1 0x24 PUSH1 0x0 REVERT JUMPDEST PUSH1 0x0 PUSH1 0x3 RETURNDATASIZE GT ISZERO PUSH2 0x575F JUMPI PUSH1 0x4 PUSH1 0x0 DUP1 RETURNDATACOPY PUSH2 0x575C PUSH1 0x0 MLOAD PUSH2 0x578C JUMP JUMPDEST SWAP1 POP JUMPDEST SWAP1 JUMP JUMPDEST PUSH1 0x0 DUP1 REVERT JUMPDEST PUSH1 0x0 DUP1 REVERT JUMPDEST PUSH1 0x0 DUP1 REVERT JUMPDEST PUSH1 0x0 DUP1 REVERT JUMPDEST PUSH1 0x0 DUP1 REVERT JUMPDEST PUSH1 0x0 PUSH1 0x1F NOT PUSH1 0x1F DUP4 ADD AND SWAP1 POP SWAP2 SWAP1 POP JUMP JUMPDEST PUSH1 0x0 DUP2 PUSH1 0xE0 SHR SWAP1 POP SWAP2 SWAP1 POP JUMP JUMPDEST PUSH32 0x455243313135353A207472616E7366657220746F206E6F6E2045524331313535 PUSH1 0x0 DUP3 ADD MSTORE PUSH32 0x526563656976657220696D706C656D656E746572000000000000000000000000 PUSH1 0x20 DUP3 ADD MSTORE POP JUMP JUMPDEST PUSH32 0x546F6B656E20646F65736E277420657869737400000000000000000000000000 PUSH1 0x0 DUP3 ADD MSTORE POP JUMP JUMPDEST PUSH32 0x455243313135353A204552433131353552656365697665722072656A65637465 PUSH1 0x0 DUP3 ADD MSTORE PUSH32 0x6420746F6B656E73000000000000000000000000000000000000000000000000 PUSH1 0x20 DUP3 ADD MSTORE POP JUMP JUMPDEST PUSH32 0x5061757361626C653A206E6F7420706175736564000000000000000000000000 PUSH1 0x0 DUP3 ADD MSTORE POP JUMP JUMPDEST PUSH32 0x4D6F64696665722076616C6964546F6B656E4964000000000000000000000000 PUSH1 0x0 DUP3 ADD MSTORE POP JUMP JUMPDEST PUSH32 0x4E6F7420656E6F75676820737570706C79000000000000000000000000000000 PUSH1 0x0 DUP3 ADD MSTORE POP JUMP JUMPDEST PUSH32 0x455243313135353A2062616C616E636520717565727920666F7220746865207A PUSH1 0x0 DUP3 ADD MSTORE PUSH32 0x65726F2061646472657373000000000000000000000000000000000000000000 PUSH1 0x20 DUP3 ADD MSTORE POP JUMP JUMPDEST PUSH32 0x4F776E61626C653A206E6577206F776E657220697320746865207A65726F2061 PUSH1 0x0 DUP3 ADD MSTORE PUSH32 0x6464726573730000000000000000000000000000000000000000000000000000 PUSH1 0x20 DUP3 ADD MSTORE POP JUMP JUMPDEST PUSH32 0x4D6F6469666572206F6E6C7957686974656C6973744164647265737300000000 PUSH1 0x0 DUP3 ADD MSTORE POP JUMP JUMPDEST PUSH32 0x455243313135353A206275726E20616D6F756E7420657863656564732062616C PUSH1 0x0 DUP3 ADD MSTORE PUSH32 0x616E636500000000000000000000000000000000000000000000000000000000 PUSH1 0x20 DUP3 ADD MSTORE POP JUMP JUMPDEST PUSH32 0x6164647265737320697320616C72656164792077686974656C69737465640000 PUSH1 0x0 DUP3 ADD MSTORE POP JUMP JUMPDEST PUSH32 0x455243313135353A2063616C6C6572206973206E6F74206F776E6572206E6F72 PUSH1 0x0 DUP3 ADD MSTORE PUSH32 0x20617070726F7665640000000000000000000000000000000000000000000000 PUSH1 0x20 DUP3 ADD MSTORE POP JUMP JUMPDEST PUSH32 0x457863656564206D6178537570706C7900000000000000000000000000000000 PUSH1 0x0 DUP3 ADD MSTORE POP JUMP JUMPDEST PUSH32 0x5061757361626C653A2070617573656400000000000000000000000000000000 PUSH1 0x0 DUP3 ADD MSTORE POP JUMP JUMPDEST PUSH32 0x455243313135353A207472616E7366657220746F20746865207A65726F206164 PUSH1 0x0 DUP3 ADD MSTORE PUSH32 0x6472657373000000000000000000000000000000000000000000000000000000 PUSH1 0x20 DUP3 ADD MSTORE POP JUMP JUMPDEST PUSH32 0x455243313135353A207472616E736665722063616C6C6572206973206E6F7420 PUSH1 0x0 DUP3 ADD MSTORE PUSH32 0x6F776E6572206E6F7220617070726F7665640000000000000000000000000000 PUSH1 0x20 DUP3 ADD MSTORE POP JUMP JUMPDEST PUSH32 0x455243313135353A206275726E2066726F6D20746865207A65726F2061646472 PUSH1 0x0 DUP3 ADD MSTORE PUSH32 0x6573730000000000000000000000000000000000000000000000000000000000 PUSH1 0x20 DUP3 ADD MSTORE POP JUMP JUMPDEST PUSH32 0x455243313135353A20696E73756666696369656E742062616C616E636520666F PUSH1 0x0 DUP3 ADD MSTORE PUSH32 0x72207472616E7366657200000000000000000000000000000000000000000000 PUSH1 0x20 DUP3 ADD MSTORE POP JUMP JUMPDEST PUSH32 0x416472657373206973206E6F7420616C72656164792077686974656C69737465 PUSH1 0x0 DUP3 ADD MSTORE PUSH32 0x6400000000000000000000000000000000000000000000000000000000000000 PUSH1 0x20 DUP3 ADD MSTORE POP JUMP JUMPDEST PUSH32 0x4F776E61626C653A2063616C6C6572206973206E6F7420746865206F776E6572 PUSH1 0x0 DUP3 ADD MSTORE POP JUMP JUMPDEST PUSH32 0x41646472657373206E6F742077686974656C69737465642E2043616E74206D69 PUSH1 0x0 DUP3 ADD MSTORE PUSH32 0x6E742E0000000000000000000000000000000000000000000000000000000000 PUSH1 0x20 DUP3 ADD MSTORE POP JUMP JUMPDEST PUSH32 0x4E6F7420656E6F7567682065746865722073656E740000000000000000000000 PUSH1 0x0 DUP3 ADD MSTORE POP JUMP JUMPDEST PUSH32 0x455243313135353A2073657474696E6720617070726F76616C20737461747573 PUSH1 0x0 DUP3 ADD MSTORE PUSH32 0x20666F722073656C660000000000000000000000000000000000000000000000 PUSH1 0x20 DUP3 ADD MSTORE POP JUMP JUMPDEST PUSH32 0x455243313135353A206163636F756E747320616E6420696473206C656E677468 PUSH1 0x0 DUP3 ADD MSTORE PUSH32 0x206D69736D617463680000000000000000000000000000000000000000000000 PUSH1 0x20 DUP3 ADD MSTORE POP JUMP JUMPDEST PUSH32 0x455243313135353A2069647320616E6420616D6F756E7473206C656E67746820 PUSH1 0x0 DUP3 ADD MSTORE PUSH32 0x6D69736D61746368000000000000000000000000000000000000000000000000 PUSH1 0x20 DUP3 ADD MSTORE POP JUMP JUMPDEST PUSH32 0x455243313135353A206D696E7420746F20746865207A65726F20616464726573 PUSH1 0x0 DUP3 ADD MSTORE PUSH32 0x7300000000000000000000000000000000000000000000000000000000000000 PUSH1 0x20 DUP3 ADD MSTORE POP JUMP JUMPDEST PUSH1 0x0 PUSH1 0x44 RETURNDATASIZE LT ISZERO PUSH2 0x5E33 JUMPI PUSH2 0x5EB6 JUMP JUMPDEST PUSH2 0x5E3B PUSH2 0x531A JUMP JUMPDEST PUSH1 0x4 RETURNDATASIZE SUB PUSH1 0x4 DUP3 RETURNDATACOPY DUP1 MLOAD RETURNDATASIZE PUSH1 0x24 DUP3 ADD GT PUSH8 0xFFFFFFFFFFFFFFFF DUP3 GT OR ISZERO PUSH2 0x5E63 JUMPI POP POP PUSH2 0x5EB6 JUMP JUMPDEST DUP1 DUP3 ADD DUP1 MLOAD PUSH8 0xFFFFFFFFFFFFFFFF DUP2 GT ISZERO PUSH2 0x5E81 JUMPI POP POP POP POP PUSH2 0x5EB6 JUMP JUMPDEST DUP1 PUSH1 0x20 DUP4 ADD ADD PUSH1 0x4 RETURNDATASIZE SUB DUP6 ADD DUP2 GT ISZERO PUSH2 0x5E9E JUMPI POP POP POP POP POP PUSH2 0x5EB6 JUMP JUMPDEST PUSH2 0x5EAD DUP3 PUSH1 0x20 ADD DUP6 ADD DUP7 PUSH2 0x55E0 JUMP JUMPDEST DUP3 SWAP6 POP POP POP POP POP POP JUMPDEST SWAP1 JUMP JUMPDEST PUSH2 0x5EC2 DUP2 PUSH2 0x54D9 JUMP JUMPDEST DUP2 EQ PUSH2 0x5ECD JUMPI PUSH1 0x0 DUP1 REVERT JUMPDEST POP JUMP JUMPDEST PUSH2 0x5ED9 DUP2 PUSH2 0x54EB JUMP JUMPDEST DUP2 EQ PUSH2 0x5EE4 JUMPI PUSH1 0x0 DUP1 REVERT JUMPDEST POP JUMP JUMPDEST PUSH2 0x5EF0 DUP2 PUSH2 0x54F7 JUMP JUMPDEST DUP2 EQ PUSH2 0x5EFB JUMPI PUSH1 0x0 DUP1 REVERT JUMPDEST POP JUMP JUMPDEST PUSH2 0x5F07 DUP2 PUSH2 0x5543 JUMP JUMPDEST DUP2 EQ PUSH2 0x5F12 JUMPI PUSH1 0x0 DUP1 REVERT JUMPDEST POP JUMP INVALID LOG2 PUSH5 0x6970667358 0x22 SLT KECCAK256 BASEFEE LOG1 0xA9 PUSH4 0xC8FFA91E 0xAA ADD PUSH12 0xE2C42675917D2F55CF306986 0xBE PUSH7 0x1938E10CE60B4C PUSH5 0x736F6C6343 STOP ADDMOD SMOD STOP CALLER "
		},
		"gasEstimates": {
			"creation": {
				"codeDepositCost": "4879000",
				"executionCost": "infinite",
				"totalCost": "infinite"
			},
			"external": {
				"IsWhitelisted(address)": "2887",
				"_batchRemoveWhitelist(address[],uint256)": "infinite",
				"balanceOf(address,uint256)": "infinite",
				"balanceOfBatch(address[],uint256[])": "infinite",
				"batchWhitelistAddress(address[],uint256)": "infinite",
				"burn(address,uint256,uint256)": "infinite",
				"burn(uint256,uint256)": "infinite",
				"burnBatch(address,uint256[],uint256[])": "infinite",
				"burnBatch(uint256[],uint256[])": "infinite",
				"burnForMint(address,uint256[],uint256[],uint256[],uint256[])": "infinite",
				"contractBalance()": "2788",
				"exists(uint256)": "2903",
				"getWhitelistCount(uint256)": "infinite",
				"isApprovedForAll(address,address)": "infinite",
				"mint(address)": "infinite",
				"mintBatch(address,uint256[],uint256[])": "infinite",
				"name()": "infinite",
				"owner()": "2567",
				"pause()": "infinite",
				"paused()": "2641",
				"renounceOwnership()": "30463",
				"safeBatchTransferFrom(address,address,uint256[],uint256[],bytes)": "infinite",
				"safeTransferFrom(address,address,uint256,uint256,bytes)": "infinite",
				"setApprovalForAll(address,bool)": "infinite",
				"setURI(uint256,string)": "infinite",
				"supportsInterface(bytes4)": "842",
				"tokenURI(uint256)": "infinite",
				"totalSupply(uint256)": "infinite",
				"transferOwnership(address)": "30833",
				"unpause()": "infinite",
				"uri(uint256)": "infinite",
				"whitelist(address)": "2881",
				"withdrawAll()": "infinite"
			},
			"internal": {
				"_RemoveWhitelist(address,uint256)": "infinite",
				"_beforeTokenTransfer(address,address,address,uint256[] memory,uint256[] memory,bytes memory)": "infinite"
			}
		},
		"methodIdentifiers": {
			"IsWhitelisted(address)": "2ae5d2f9",
			"_batchRemoveWhitelist(address[],uint256)": "ce71047c",
			"balanceOf(address,uint256)": "00fdd58e",
			"balanceOfBatch(address[],uint256[])": "4e1273f4",
			"batchWhitelistAddress(address[],uint256)": "36576424",
			"burn(address,uint256,uint256)": "f5298aca",
			"burn(uint256,uint256)": "b390c0ab",
			"burnBatch(address,uint256[],uint256[])": "6b20c454",
			"burnBatch(uint256[],uint256[])": "83ca4b6f",
			"burnForMint(address,uint256[],uint256[],uint256[],uint256[])": "510f4104",
			"contractBalance()": "8b7afe2e",
			"exists(uint256)": "4f558e79",
			"getWhitelistCount(uint256)": "acb3180f",
			"isApprovedForAll(address,address)": "e985e9c5",
			"mint(address)": "6a627842",
			"mintBatch(address,uint256[],uint256[])": "d81d0a15",
			"name()": "06fdde03",
			"owner()": "8da5cb5b",
			"pause()": "8456cb59",
			"paused()": "5c975abb",
			"renounceOwnership()": "715018a6",
			"safeBatchTransferFrom(address,address,uint256[],uint256[],bytes)": "2eb2c2d6",
			"safeTransferFrom(address,address,uint256,uint256,bytes)": "f242432a",
			"setApprovalForAll(address,bool)": "a22cb465",
			"setURI(uint256,string)": "862440e2",
			"supportsInterface(bytes4)": "01ffc9a7",
			"tokenURI(uint256)": "c87b56dd",
			"totalSupply(uint256)": "bd85b039",
			"transferOwnership(address)": "f2fde38b",
			"unpause()": "3f4ba83a",
			"uri(uint256)": "0e89341c",
			"whitelist(address)": "9b19251a",
			"withdrawAll()": "853828b6"
		}
	},
	"abi": [
		{
			"inputs": [],
			"stateMutability": "nonpayable",
			"type": "constructor"
		},
		{
			"anonymous": false,
			"inputs": [
				{
					"indexed": true,
					"internalType": "address",
					"name": "account",
					"type": "address"
				},
				{
					"indexed": true,
					"internalType": "address",
					"name": "operator",
					"type": "address"
				},
				{
					"indexed": false,
					"internalType": "bool",
					"name": "approved",
					"type": "bool"
				}
			],
			"name": "ApprovalForAll",
			"type": "event"
		},
		{
			"anonymous": false,
			"inputs": [
				{
					"indexed": false,
					"internalType": "string",
					"name": "msg",
					"type": "string"
				},
				{
					"indexed": false,
					"internalType": "address",
					"name": "_id",
					"type": "address"
				},
				{
					"indexed": false,
					"internalType": "uint256",
					"name": "count",
					"type": "uint256"
				},
				{
					"indexed": false,
					"internalType": "uint256",
					"name": "addressvalue",
					"type": "uint256"
				}
			],
			"name": "Log",
			"type": "event"
		},
		{
			"anonymous": false,
			"inputs": [
				{
					"indexed": true,
					"internalType": "address",
					"name": "previousOwner",
					"type": "address"
				},
				{
					"indexed": true,
					"internalType": "address",
					"name": "newOwner",
					"type": "address"
				}
			],
			"name": "OwnershipTransferred",
			"type": "event"
		},
		{
			"anonymous": false,
			"inputs": [
				{
					"indexed": false,
					"internalType": "address",
					"name": "account",
					"type": "address"
				}
			],
			"name": "Paused",
			"type": "event"
		},
		{
			"anonymous": false,
			"inputs": [
				{
					"indexed": true,
					"internalType": "address",
					"name": "operator",
					"type": "address"
				},
				{
					"indexed": true,
					"internalType": "address",
					"name": "from",
					"type": "address"
				},
				{
					"indexed": true,
					"internalType": "address",
					"name": "to",
					"type": "address"
				},
				{
					"indexed": false,
					"internalType": "uint256[]",
					"name": "ids",
					"type": "uint256[]"
				},
				{
					"indexed": false,
					"internalType": "uint256[]",
					"name": "values",
					"type": "uint256[]"
				}
			],
			"name": "TransferBatch",
			"type": "event"
		},
		{
			"anonymous": false,
			"inputs": [
				{
					"indexed": true,
					"internalType": "address",
					"name": "operator",
					"type": "address"
				},
				{
					"indexed": true,
					"internalType": "address",
					"name": "from",
					"type": "address"
				},
				{
					"indexed": true,
					"internalType": "address",
					"name": "to",
					"type": "address"
				},
				{
					"indexed": false,
					"internalType": "uint256",
					"name": "id",
					"type": "uint256"
				},
				{
					"indexed": false,
					"internalType": "uint256",
					"name": "value",
					"type": "uint256"
				}
			],
			"name": "TransferSingle",
			"type": "event"
		},
		{
			"anonymous": false,
			"inputs": [
				{
					"indexed": false,
					"internalType": "string",
					"name": "value",
					"type": "string"
				},
				{
					"indexed": true,
					"internalType": "uint256",
					"name": "id",
					"type": "uint256"
				}
			],
			"name": "URI",
			"type": "event"
		},
		{
			"anonymous": false,
			"inputs": [
				{
					"indexed": false,
					"internalType": "address",
					"name": "account",
					"type": "address"
				}
			],
			"name": "Unpaused",
			"type": "event"
		},
		{
			"inputs": [
				{
					"internalType": "address",
					"name": "_address",
					"type": "address"
				}
			],
			"name": "IsWhitelisted",
			"outputs": [
				{
					"internalType": "uint256",
					"name": "",
					"type": "uint256"
				}
			],
			"stateMutability": "view",
			"type": "function"
		},
		{
			"inputs": [
				{
					"internalType": "address[]",
					"name": "_addresses",
					"type": "address[]"
				},
				{
					"internalType": "uint256",
					"name": "_id",
					"type": "uint256"
				}
			],
			"name": "_batchRemoveWhitelist",
			"outputs": [],
			"stateMutability": "nonpayable",
			"type": "function"
		},
		{
			"inputs": [
				{
					"internalType": "address",
					"name": "account",
					"type": "address"
				},
				{
					"internalType": "uint256",
					"name": "id",
					"type": "uint256"
				}
			],
			"name": "balanceOf",
			"outputs": [
				{
					"internalType": "uint256",
					"name": "",
					"type": "uint256"
				}
			],
			"stateMutability": "view",
			"type": "function"
		},
		{
			"inputs": [
				{
					"internalType": "address[]",
					"name": "accounts",
					"type": "address[]"
				},
				{
					"internalType": "uint256[]",
					"name": "ids",
					"type": "uint256[]"
				}
			],
			"name": "balanceOfBatch",
			"outputs": [
				{
					"internalType": "uint256[]",
					"name": "",
					"type": "uint256[]"
				}
			],
			"stateMutability": "view",
			"type": "function"
		},
		{
			"inputs": [
				{
					"internalType": "address[]",
					"name": "_addresses",
					"type": "address[]"
				},
				{
					"internalType": "uint256",
					"name": "_id",
					"type": "uint256"
				}
			],
			"name": "batchWhitelistAddress",
			"outputs": [],
			"stateMutability": "nonpayable",
			"type": "function"
		},
		{
			"inputs": [
				{
					"internalType": "uint256",
					"name": "_id",
					"type": "uint256"
				},
				{
					"internalType": "uint256",
					"name": "_amount",
					"type": "uint256"
				}
			],
			"name": "burn",
			"outputs": [],
			"stateMutability": "nonpayable",
			"type": "function"
		},
		{
			"inputs": [
				{
					"internalType": "address",
					"name": "account",
					"type": "address"
				},
				{
					"internalType": "uint256",
					"name": "id",
					"type": "uint256"
				},
				{
					"internalType": "uint256",
					"name": "value",
					"type": "uint256"
				}
			],
			"name": "burn",
			"outputs": [],
			"stateMutability": "nonpayable",
			"type": "function"
		},
		{
			"inputs": [
				{
					"internalType": "address",
					"name": "account",
					"type": "address"
				},
				{
					"internalType": "uint256[]",
					"name": "ids",
					"type": "uint256[]"
				},
				{
					"internalType": "uint256[]",
					"name": "values",
					"type": "uint256[]"
				}
			],
			"name": "burnBatch",
			"outputs": [],
			"stateMutability": "nonpayable",
			"type": "function"
		},
		{
			"inputs": [
				{
					"internalType": "uint256[]",
					"name": "_ids",
					"type": "uint256[]"
				},
				{
					"internalType": "uint256[]",
					"name": "_amounts",
					"type": "uint256[]"
				}
			],
			"name": "burnBatch",
			"outputs": [],
			"stateMutability": "nonpayable",
			"type": "function"
		},
		{
			"inputs": [
				{
					"internalType": "address",
					"name": "_from",
					"type": "address"
				},
				{
					"internalType": "uint256[]",
					"name": "_burnIds",
					"type": "uint256[]"
				},
				{
					"internalType": "uint256[]",
					"name": "_burnAmounts",
					"type": "uint256[]"
				},
				{
					"internalType": "uint256[]",
					"name": "_mintIds",
					"type": "uint256[]"
				},
				{
					"internalType": "uint256[]",
					"name": "_mintAmounts",
					"type": "uint256[]"
				}
			],
			"name": "burnForMint",
			"outputs": [],
			"stateMutability": "nonpayable",
			"type": "function"
		},
		{
			"inputs": [],
			"name": "contractBalance",
			"outputs": [
				{
					"internalType": "uint256",
					"name": "",
					"type": "uint256"
				}
			],
			"stateMutability": "view",
			"type": "function"
		},
		{
			"inputs": [
				{
					"internalType": "uint256",
					"name": "id",
					"type": "uint256"
				}
			],
			"name": "exists",
			"outputs": [
				{
					"internalType": "bool",
					"name": "",
					"type": "bool"
				}
			],
			"stateMutability": "view",
			"type": "function"
		},
		{
			"inputs": [
				{
					"internalType": "uint256",
					"name": "_id",
					"type": "uint256"
				}
			],
			"name": "getWhitelistCount",
			"outputs": [
				{
					"internalType": "uint256",
					"name": "",
					"type": "uint256"
				}
			],
			"stateMutability": "view",
			"type": "function"
		},
		{
			"inputs": [
				{
					"internalType": "address",
					"name": "account",
					"type": "address"
				},
				{
					"internalType": "address",
					"name": "operator",
					"type": "address"
				}
			],
			"name": "isApprovedForAll",
			"outputs": [
				{
					"internalType": "bool",
					"name": "",
					"type": "bool"
				}
			],
			"stateMutability": "view",
			"type": "function"
		},
		{
			"inputs": [
				{
					"internalType": "address",
					"name": "_to",
					"type": "address"
				}
			],
			"name": "mint",
			"outputs": [],
			"stateMutability": "payable",
			"type": "function"
		},
		{
			"inputs": [
				{
					"internalType": "address",
					"name": "_to",
					"type": "address"
				},
				{
					"internalType": "uint256[]",
					"name": "_ids",
					"type": "uint256[]"
				},
				{
					"internalType": "uint256[]",
					"name": "_amounts",
					"type": "uint256[]"
				}
			],
			"name": "mintBatch",
			"outputs": [],
			"stateMutability": "nonpayable",
			"type": "function"
		},
		{
			"inputs": [],
			"name": "name",
			"outputs": [
				{
					"internalType": "string",
					"name": "",
					"type": "string"
				}
			],
			"stateMutability": "view",
			"type": "function"
		},
		{
			"inputs": [],
			"name": "owner",
			"outputs": [
				{
					"internalType": "address",
					"name": "",
					"type": "address"
				}
			],
			"stateMutability": "view",
			"type": "function"
		},
		{
			"inputs": [],
			"name": "pause",
			"outputs": [],
			"stateMutability": "nonpayable",
			"type": "function"
		},
		{
			"inputs": [],
			"name": "paused",
			"outputs": [
				{
					"internalType": "bool",
					"name": "",
					"type": "bool"
				}
			],
			"stateMutability": "view",
			"type": "function"
		},
		{
			"inputs": [],
			"name": "renounceOwnership",
			"outputs": [],
			"stateMutability": "nonpayable",
			"type": "function"
		},
		{
			"inputs": [
				{
					"internalType": "address",
					"name": "from",
					"type": "address"
				},
				{
					"internalType": "address",
					"name": "to",
					"type": "address"
				},
				{
					"internalType": "uint256[]",
					"name": "ids",
					"type": "uint256[]"
				},
				{
					"internalType": "uint256[]",
					"name": "amounts",
					"type": "uint256[]"
				},
				{
					"internalType": "bytes",
					"name": "data",
					"type": "bytes"
				}
			],
			"name": "safeBatchTransferFrom",
			"outputs": [],
			"stateMutability": "nonpayable",
			"type": "function"
		},
		{
			"inputs": [
				{
					"internalType": "address",
					"name": "from",
					"type": "address"
				},
				{
					"internalType": "address",
					"name": "to",
					"type": "address"
				},
				{
					"internalType": "uint256",
					"name": "id",
					"type": "uint256"
				},
				{
					"internalType": "uint256",
					"name": "amount",
					"type": "uint256"
				},
				{
					"internalType": "bytes",
					"name": "data",
					"type": "bytes"
				}
			],
			"name": "safeTransferFrom",
			"outputs": [],
			"stateMutability": "nonpayable",
			"type": "function"
		},
		{
			"inputs": [
				{
					"internalType": "address",
					"name": "operator",
					"type": "address"
				},
				{
					"internalType": "bool",
					"name": "approved",
					"type": "bool"
				}
			],
			"name": "setApprovalForAll",
			"outputs": [],
			"stateMutability": "nonpayable",
			"type": "function"
		},
		{
			"inputs": [
				{
					"internalType": "uint256",
					"name": "_id",
					"type": "uint256"
				},
				{
					"internalType": "string",
					"name": "_uri",
					"type": "string"
				}
			],
			"name": "setURI",
			"outputs": [],
			"stateMutability": "nonpayable",
			"type": "function"
		},
		{
			"inputs": [
				{
					"internalType": "bytes4",
					"name": "interfaceId",
					"type": "bytes4"
				}
			],
			"name": "supportsInterface",
			"outputs": [
				{
					"internalType": "bool",
					"name": "",
					"type": "bool"
				}
			],
			"stateMutability": "view",
			"type": "function"
		},
		{
			"inputs": [
				{
					"internalType": "uint256",
					"name": "",
					"type": "uint256"
				}
			],
			"name": "tokenURI",
			"outputs": [
				{
					"internalType": "string",
					"name": "",
					"type": "string"
				}
			],
			"stateMutability": "view",
			"type": "function"
		},
		{
			"inputs": [
				{
					"internalType": "uint256",
					"name": "id",
					"type": "uint256"
				}
			],
			"name": "totalSupply",
			"outputs": [
				{
					"internalType": "uint256",
					"name": "",
					"type": "uint256"
				}
			],
			"stateMutability": "view",
			"type": "function"
		},
		{
			"inputs": [
				{
					"internalType": "address",
					"name": "newOwner",
					"type": "address"
				}
			],
			"name": "transferOwnership",
			"outputs": [],
			"stateMutability": "nonpayable",
			"type": "function"
		},
		{
			"inputs": [],
			"name": "unpause",
			"outputs": [],
			"stateMutability": "nonpayable",
			"type": "function"
		},
		{
			"inputs": [
				{
					"internalType": "uint256",
					"name": "_id",
					"type": "uint256"
				}
			],
			"name": "uri",
			"outputs": [
				{
					"internalType": "string",
					"name": "",
					"type": "string"
				}
			],
			"stateMutability": "view",
			"type": "function"
		},
		{
			"inputs": [
				{
					"internalType": "address",
					"name": "",
					"type": "address"
				}
			],
			"name": "whitelist",
			"outputs": [
				{
					"internalType": "uint256",
					"name": "",
					"type": "uint256"
				}
			],
			"stateMutability": "view",
			"type": "function"
		},
		{
			"inputs": [],
			"name": "withdrawAll",
			"outputs": [],
			"stateMutability": "payable",
			"type": "function"
		}
	]
}